S01C00004F7363696C6C61746F72436F6E74726F6C6C65722E73726563C8
S11300000C9496090C94C7090C94C7090C94C7095D
S11300100C94C7090C94C7090C94C7090C94C7091C
S11300200C94C7090C94C7090C94C7090C94C7090C
S11300300C94C7090C94C7090C94C7090C94C709FC
S11300400C94C7090C94C7090C94C7090C94C709EC
S11300500C94C7090C94C7090C94C7090C9437363F
S11300600C94C7090C94E8340C941E350C94C709FD
S11300700C94C7090C94C7090C94C7090C94C709BC
S11300800C94C7090C94C7090C94C7090C94C709AC
S11300900C94C7090C94C7090C94C7090C94C7099C
S11300A00C94C7090C94C7090C94C7090C94C7098C
S11300B00C94C7090C94C7090C94C7090C94C7097C
S11300C00C94C7090C94C7090C94C7090C94C7096C
S11300D00C94C7090C94C7090C94C7090C94C7095C
S11300E00C94C7091418FD182F182F184818FD1858
S11300F0F517D2186C18FD187A187A1897189718EB
S11301001418D218FD1814187A18D2182F18A61813
S1130110D218D218D218D218D218BF18D218D2189E
S11301206D19DB2B3A1A3A1ACC1BDB2BD21E061D97
S11301307F1EDB2B2C203521E122E1226D197E2745
S1130140DB2B6D190822E123B81AAA2478257E270F
S1130150A52637287E29DD2AF12A7A1D05A84CCD4B
S1130160B2D44EB93836A9020C50B9918688083CED
S1130170A6AAAA2ABE000000803F5B375E374D372F
S1130180513757379537623766376C37703774375E
S11301907A377E378237953788378C379037101007
S11301A0205F0000000000000000000000000000CC
S11301B0000000000000000000000000000000003B
S11301C000000000000007000F800F800F800F80E8
S11301D00F80070007000000000007000700070069
S11301E0000000000E380E380E380E3806300000BD
S11301F000000000000000000000000000000000FB
S1130200000000000C300C300C307FFE7FFE0C3000
S11302100C300C300C307FFE7FFE0C300C300C3078
S113022000000000024002400FF81FF81A401A4074
S11302301FF00FF8025802581FF81FF00240024046
S113024000000000000000000E100E300E7000E0F0
S113025001C0038007000E700C70087000000000DD
S11302600000000000000F001980198019800F00A1
S11302700F080F9819F818F018E019F00F980000FB
S11302800000000000000700070007000E00000047
S1130290000000000000000000000000000000005A
S11302A000000000000000F001C0038007000E0001
S11302B00E000E000E000700038001C000F00000D5
S11302C00000000000000F00038001C000E0007087
S11302D000700070007000E001C003800F00000097
S11302E000000000000001801188099007E007E089
S11302F03FFC3FFC07E007E0099011880180000003
S11303000000000000000000000001800180018066
S11303100FF00FF001800180018000000000000058
S113032000000000000000000000000000000000C9
S113033000000000000000000700070007000E0096
S113034000000000000000000000000000000000A9
S11303501FF81FF80000000000000000000000006B
S11303600000000000000000000000000000000089
S11303700000000000000000070007000700000064
S113038000000000000000020006000E001C0038FF
S1130390007000E001C0038007000E001C00000094
S11303A00000000000000FF01C381C781CF81CF83A
S11303B01DB81DB81F381F381E381C380FF0000038
S11303C00000000000000180018003801F801F8066
S11303D00380038003800380038003801FF00000F8
S11303E00000000000000FE01C701C380038007092
S11303F000E001C0038007000E381C381FF800001D
S11304000000000000000FE01C701C380038007071
S113041003C003C0007000381C381C700FE00000DB
S113042000000000000000E001E003E006E00CE052
S113043018E01FF81FF800E000E000E003F80000F7
S11304400000000000001FF81C001C001C001C0021
S11304501FE01FF0007800381C381C700FE000000B
S113046000000000000003E007000E001C001C0058
S11304701FF01FF81C381C381C381C380FF0000003
S11304800000000000001FFC1C1C1C1C1C1C001C89
S11304900038007000E001C0038003800380000086
S11304A00000000000000FF01C381C381C381F38F6
S11304B007E007E01CF81C381C381C380FF000005B
S11304C00000000000000FF01C381C381C381C38D9
S11304D01FF80FF800380038007000E007C0000073
S11304E0000000000000000000000380038003807F
S11304F0000000000380038003800000000000006F
S1130500000000000000000000000380038003805E
S11305100000000003800380038007000000000047
S113052000000000007000E001C0038007000E001E
S11305301C001C000E000700038001C000E00070D6
S11305400000000000000000000000003FFC3FFC31
S1130550000000003FFC3FFC000000000000000021
S1130560000000001C000E000700038001C000E032
S11305700070007000E001C0038007000E001C0042
S11305800000000003C00FF01E7818380038007017
S113059000E001C001C00000000001C001C001C0B2
S11305A0000000000FF81C1C1C1C1C1C1C1C1CFC48
S11305B01CFC1CFC1CFC1C001C001C001FF007F88D
S11305C000000000000003C007E00E701C381C3857
S11305D01C381C381FF81C381C381C381C38000008
S11305E00000000000001FF00E380E380E380E38E0
S11305F00FF00FF00E380E380E380E381FF00000D2
S113060000000000000007F00E381C381C001C001D
S11306101C001C001C001C001C380E3807F00000D5
S11306200000000000001FE00E700E380E380E3877
S11306300E380E380E380E380E380E701FE00000DB
S11306400000000000001FF80E180E080E000E3007
S11306500FF00FF00E300E000E080E181FF80000F9
S11306600000000000001FF80E180E080E000E30E7
S11306700FF00FF00E300E000E000E001F000000F1
S113068000000000000007F00E381C381C381C0065
S11306901C001C001CF81C381C380E3807F800001D
S11306A00000000000001C701C701C701C701C708A
S11306B01FF01FF01C701C701C701C701C7000005C
S11306C00000000000000FE003800380038003802B
S11306D00380038003800380038003800FE0000015
S11306E000000000000001FC007000700070007049
S11306F00070007038703870387038700FE0000087
S11307000000000000001E380E380E700EE00FC00E
S11307100F800F800FC00EE00E700E381E380000E0
S11307200000000000001F000E000E000E000E006E
S11307300E000E000E000E080E180E381FF80000F2
S11307400000000000001C1C1E3C1F7C1FFC1FFC42
S11307501DDC1C9C1C1C1C1C1C1C1C1C1C1C0000CC
S11307600000000000001C1C1C1C1E1C1F1C1F9CE5
S11307701DDC1CFC1C7C1C3C1C1C1C1C1C1C0000CC
S113078000000000000003E007F00E381C1C1C1CD5
S11307901C1C1C1C1C1C1C1C0E3807F003E0000055
S11307A00000000000001FF00E380E380E380E381E
S11307B00FF00FF00E000E000E000E001F000000E0
S11307C000000000000003E00F780E381C1C1C1C05
S11307D01C1C1C1C1C7C1CFC0FF80FF8003800FCB3
S11307E00000000000001FF00E380E380E380E38DE
S11307F00FF00FF00E700E380E380E381E38000051
S11308000000000000000FF01C381C381C381C00CD
S11308100FE007F000381C381C381C380FF00000BB
S11308200000000000001FFC19CC11C401C001C06D
S113083001C001C001C001C001C001C007F0000037
S11308400000000000001C701C701C701C701C70E8
S11308501C701C701C701C701C701C700FE000005D
S11308600000000000001C701C701C701C701C70C8
S11308701C701C701C701C700EE007C0038000000C
S11308800000000000001C1C1C1C1C1C1C1C1C1C4C
S11308901C9C1C9C1C9C0FF80FF807700770000030
S11308A00000000000001C701C701C700EE007C0EB
S11308B00380038007C00EE01C701C701C700000D5
S11308C00000000000001C701C701C701C701C7068
S11308D00EE007C003800380038003800FE0000064
S11308E00000000000001FF81C381838107000E0E9
S11308F001C0038007000E081C181C381FF80000F4
S113090000000000000007F00700070007000700D0
S113091007000700070007000700070007F00000B2
S1130920000000000000100018001C000E0007006A
S1130930038001C000E000700038001C00070000C4
S113094000000000000007F00070007000700070EC
S113095000700070007000700070007007F00000FC
S113096000000000018003C007E00E701C38000086
S11309700000000000000000000000000000000073
S11309800000000000000000000000000000000063
S113099000000000000000000000000000007FFFD5
S11309A07FFF000000001C001C000700070000007F
S11309B00000000000000000000000000000000033
S11309C000000000000000000000000000000FE034
S11309D0007000700FF01C701C701C700FD80000A9
S11309E00000000000001E000E000E000E000FF0BC
S11309F00E380E380E380E380E380E381BF0000044
S1130A0000000000000000000000000000000FE0F3
S1130A101C701C701C001C001C701C700FE000007B
S1130A2000000000000000F80070007000700FF07B
S1130A301C701C701C701C701C701C700FD8000083
S1130A4000000000000000000000000000000FE0B3
S1130A501C701C701FF01C001C701C700FE0000048
S1130A6000000000000003E00770077007000700A3
S1130A701FE01FE007000700070007001FC0000079
S1130A8000000000000000000000000000000FD87B
S1130A901C701C701C701C700FF007F000701C7030
S1130AA00FE0000000001E000E000E000E000EF00D
S1130AB00F380F380E380E380E380E381E38000036
S1130AC000000000000001C001C001C000000FC010
S1130AD001C001C001C001C001C001C00FF8000085
S1130AE0000000000000007000700070000003F0BF
S1130AF00070007000700070007000701C700CF0CA
S1130B0007E0000000001E000E000E000E000E386C
S1130B100E700EE00FC00EE00E700E381E3800008E
S1130B200000000000000FC001C001C001C001C0EE
S1130B3001C001C001C001C001C001C00FF8000024
S1130B4000000000000000000000000000001FF88A
S1130B501C9C1C9C1C9C1C9C1C9C1C9C1C9C000089
S1130B6000000000000000000000000000001FE082
S1130B701C701C701C701C701C701C701C7000009D
S1130B8000000000000000000000000000000FE072
S1130B901C701C701C701C701C701C700FE000001A
S1130BA000000000000000000000000000001BF036
S1130BB00E380E380E380E380E380FF00E000E00B8
S1130BC01F000000000000000000000000001FB033
S1130BD038E038E038E038E038E01FE000E000E0DA
S1130BE001F00000000000000000000000001EF002
S1130BF00FF80F380E000E000E000E001F0000004C
S1130C0000000000000000000000000000000FE0F1
S1130C101C301C300F8003E0187018700FE00000C7
S1130C2000000000000000000100030007001FF0A6
S1130C3007000700070007000770077003E00000C3
S1130C4000000000000000000000000000001C7014
S1130C501C701C701C701C701C701C700FD8000061
S1130C6000000000000000000000000000001C70F4
S1130C701C701C701C701C700EE007C00380000008
S1130C8000000000000000000000000000001C1C28
S1130C901C1C1C1C1C9C1C9C0FF80770077000007B
S1130CA000000000000000000000000000001CE044
S1130CB01CE00FC0078007800FC01CE01CE0000090
S1130CC000000000000000000000000000000E38DA
S1130CD00E380E380E380E3807F003E000E001C07D
S1130CE01F800000000000000000000000001FE062
S1130CF018E011C0038007000E201C601FE00000F4
S1130D0000000000000001F8038003800380070056
S1130D101C001C00070003800380038001F800000E
S1130D200000000001C001C001C001C001C001C039
S1130D3001C001C001C001C001C001C001C001C0A7
S1130D400000000000001F8001C001C001C000E0DD
S1130D500038003800E001C001C001C01F8000005D
S1130D600000000000001F1C3B9C39DC38F8000028
S1130D70000000000000000000000000000000006F
S1130D800000080C205F00000000000000000000CC
S1130D900000000020202020202000200000002847
S1130DA05050000000000000000000002828FC282B
S1130DB050FC50500000002078A8A0603028A8F013
S1130DC02000000048A8B050283454480000000017
S1130DD020505078A8A8906C00000040408000008B
S1130DE0000000000000000408101010101010088B
S1130DF004000040201010101010102040000000CB
S1130E000020A87070A8200000000000202020F816
S1130E10202020000000000000000000000000402E
S1130E2040800000000000F8000000000000000006
S1130E300000000000000040000000081010102016
S1130E40204040408000000070888888888888702E
S1130E5000000000206020202020207000000000FE
S1130E6070888810204080F80000000070880830E6
S1130E700808887000000000103050509078101856
S1130E8000000000F88080F008088870000000006E
S1130E90709080F08888887000000000F89010201E
S1130EA020202020000000007088887088888870C6
S1130EB000000000708888887808487000000000EE
S1130EC000002000000000200000000000000020BE
S1130ED00000002020000004081020402010080416
S1130EE0000000000000F80000F8000000000040CE
S1130EF020100804081020400000000070888810AA
S1130F002020002000000000708898A8A8B88078ED
S1130F100000000020203050507848CC0000000031
S1130F20F0484870484848F0000000007888808005
S1130F308080887000000000F0484848484848F025
S1130F4000000000F8485070504048F800000000CD
S1130F50F8485070504040E000000000384880805D
S1130F609C88483000000000CC484878484848CC69
S1130F7000000000F8202020202020F800000000BD
S1130F807C10101010101090E0000000EC4850602D
S1130F90505048EC00000000E0404040404044FC19
S1130FA000000000D8D8D8D8A8A8A8A8000000003D
S1130FB0DC486868585848E8000000007088888851
S1130FC08888887000000000F0484870404040E085
S1130FD0000000007088888888E898701800000075
S1130FE0F0484870504848EC000000007888806061
S1130FF0100888F000000000F8A8202020202070AD
S113100000000000CC484848484848300000000030
S1131010CC4848505030202000000000A8A8A870F8
S11310205050505000000000D8505020205050D84C
S113103000000000D8505020202020700000000044
S1131040F8901020204048F800000038202020208C
S1131050202020203800004040402020101010089C
S113106000000070101010101010101070000020FC
S1131070500000000000000000000000000000001C
S11310800000000000FC0020000000000000000040
S113109000000000000000304838483C0000000018
S11310A0C04040704848487000000000000000380C
S11310B04840403800000000180808384848483CB8
S11310C000000000000000304878403800000000B4
S11310D01C20207820202078000000000000003C24
S11310E04830407844380000C0404070484848ECDC
S11310F0000000002000006020202070000000009C
S1131100100000301010101010E00000C040405CCF
S1131110507048EC00000000E0202020202020F83F
S113112000000000000000F0A8A8A8A8000000002B
S1131130000000F0484848EC0000000000000030C7
S11311404848483000000000000000F0484848705B
S113115040E000000000003848484838081C0000FF
S1131160000000D8604040E000000000000000786B
S11311704030087800000000002020702020201853
S113118000000000000000D84848483C000000006F
S1131190000000EC4850302000000000000000A8CF
S11311A0A870505000000000000000D8502050D813
S11311B000000000000000EC4850302020C0000077
S11311C00000007810202078000000181010102073
S11311D01010101018001010101010101010101013
S11311E0101000602020201020202020600040A447
S11311F01800000000000000000000000A0B0209B3
S11312000C0D0E080703040100000000000000009C
S113121000000000000000000000000000000000CA
S11312200000000000001211100000000000000087
S113123000000000000000000000000000000000AA
S113124001021020200808102040102040800201D4
S113125002010804020101020408102040808040B9
S113126020100804020180040201804020100804B8
S11312700201080402010102040810204080010256
S1131280040810204080050505050705080808081E
S1131290020202020A0A080804040404010101010A
S11312A00101010103030303030303030407070705
S11312B00C0C0C0C0C0C0C0C0202020206060606AA
S11312C0060606060B0B0B0B0B0B0B0B000020008A
S11312D02300260029002C002F003200000100000A
S11312E003010601090100002200250028002B004B
S11312F02E003100340002010000050108010B0139
S113130000002100240027002A002D0030003300B3
S113131001010000040107010A01DB091F0BE60DAE
S113132008105035680A9D0B640E861011241FBEE8
S1131330CFEFD1E2DEBFCDBF00E00CBF13E0A0E0F1
S1131340B2E0E8E2F9E700E00BBF02C007900D92BB
S1131350A632B107D9F727E0A6E2B3E001C01D9297
S1131360A234B207E1F719E0C2E9D9E000E006C00F
S113137021970109802FFE010E94423ACD38D107FE
S113138080E00807A9F70E947E350C94833C0C94F6
S1131390000086E293E0D2D564EF71E080E090E053
S11313A00E94A63686E293E020C68BE494E046D100
S11313B086E293E01AC666EA72E080E095E00E9455
S11313C08F386BEA72E086E095E00E948F3860EB1C
S11313D072E08CE095E00E948F3865EB72E082E168
S11313E095E00E948F3868EB72E088E195E00E94F6
S11313F08F386EEB72E088EE94E00E948F3864ECD4
S113140072E08EEE94E00E948F386AEC72E084EF12
S113141094E00E948F3864EC72E08AEF94E00E94BA
S11314208F386FEC72E080ED94E00E948F3864ECAA
S113143072E086ED94E00E948F3865ED72E08CEDE9
S113144094E00E948F386AED72E082EE94E00E948C
S11314508F386FED72E088EB94E00E948F3864EE71
S113146072E08EEB94E00E948F3869EE72E084ECB7
S113147094E00E948F386EEE72E08AEC94E00E9451
S11314808F386FEC72E080EA94E00E948F3863EF4B
S113149072E086EA94E00E948F3868EF72E08CEA8A
S11314A094E00E948F386AEC72E082EB94E00E9430
S11314B08F3888E794E057D468E774E08BE494E0CD
S11314C06AD04BE454E068E774E086E293E009C52F
S11314D0CF93DF9386E293E0F3D48BE494E05AD085
S11314E088E794E0ECD482EB94E00E9428388CEAFC
S11314F094E00E94283886EA94E00E94283880EA22
S113150094E00E9428388AEC94E00E94283884EC05
S113151094E00E9428388EEB94E00E94283888EBEF
S113152094E00E94283882EE94E00E9428388CEDE2
S113153094E00E94283886ED94E00E94283880EDDB
S113154094E00E9428388AEF94E00E94283884EFBF
S113155094E00E9428388EEE94E00E94283888EEA9
S113156094E00E942838CEE1D5E02697CE010E946F
S1131570283885E0C030D807C1F7DF91CF910895AE
S1131580CF93DF93EC01EFD381E08BA78CA7DF919E
S1131590CF91089594C40F931F93CF93DF93EC01DD
S11315A08B01E1D381E08BA78CA71AA709A762E07E
S11315B08EE00E94963718A6DF91CF911F910F916C
S11315C00895FC01A1A5B2A59C919F5F9C9301A4E1
S11315D0F2A5E02D8081853008F010820895CF9324
S11315E0DF93EC018EE00E94003821E0892B09F49E
S11315F020E02BA76AE070E080E090E00E94A6362D
S11316008BA5811116C08CA5882399F0CE01D9DF52
S113161081E088A76FEF72E088E996E00E94CA35FE
S1131620E9A5FAA54AE050E0608188E996E00E94C5
S113163027368BA58CA7DF91CF910895D0CF66EA8A
S113164072E08EE795E00E948F386BEA72E084E8DE
S113165095E00E948F3860EB72E08AE895E00E9482
S11316608F3865EB72E080E995E00E948F3868EB73
S113167072E086E995E00E948F386EEB72E086E6B0
S113168095E00E948F3864EC72E08CE695E00E944D
S11316908F386AEC72E082E795E00E948F3864EC40
S11316A072E088E795E00E948F386FEC72E08EE478
S11316B095E00E948F3864EC72E084E595E00E9426
S11316C08F3865ED72E08AE595E00E948F386AED07
S11316D072E080E695E00E948F386FED72E086E359
S11316E095E00E948F3864EE72E08CE395E00E94EE
S11316F08F3869EE72E082E495E00E948F386EEED6
S113170072E088E495E00E948F386FEC72E08EE11D
S113171095E00E948F3863EF72E084E295E00E94C6
S11317208F3868EF72E08AE295E00E948F386AECA5
S113173072E080E395E00C948F38CF93DF9380E3DD
S113174095E00E9428388AE295E00E94283884E2D5
S113175095E00E9428388EE195E00E94283888E4BC
S113176095E00E94283882E495E00E9428388CE3B2
S113177095E00E94283886E395E00E94283880E6A8
S113178095E00E9428388AE595E00E94283884E58F
S113179095E00E9428388EE495E00E94283888E776
S11317A095E00E94283882E795E00E9428388CE66C
S11317B095E00E94283886E695E00E942838CCE916
S11317C0D5E02697CE010E94283885E0CE37D80789
S11317D0C1F7DF91CF910895CF93DF93EC01C3D28A
S11317E080E68EA788E78FA788E288ABDF91CF9148
S11317F0089565C30F931F93FC0171A760A755A7B4
S113180044A733A722A712AB01AB1F910F910895F0
S11318108F929F92AF92BF92CF92DF92EF92FF92FC
S11318200F931F93CF93DF9300D000D0CDB7DEB7D3
S11318307C01DC019A966D917C919B9798968D9191
S11318409C9199970E94C03260E078EFF70180A5DF
S113185091A50E94A12CD701D0960C91D09710E0AD
S113186020EE31E040E050E060E070E098968D9129
S11318709C9199970E947B2D8CEFA82E85E0B82E21
S1131880C12CD12CD701D196ED91FC91D297208116
S113189030E098968D919C919997F60131964F017D
S11318A060E070E02C153D0509F456C00E94A12C9F
S11318B0D7019E968C919E9790E0D0960C91D097EC
S11318C010E003501109889E9001899E300D989E66
S11318D0300D1124235031098C9DB0018D9D700D64
S11318E09C9D700D11246D5F7F4F43E050E09896EE
S11318F08D919C9199970E947B2D60E078EFF70180
S113190080A591A50E94A12C40E050E0BA01D70126
S113191098968D919C9199970E94A52CF70126A5E4
S11319202C9DC0012D9D900D11246C01F3E0CF0E70
S1131930D11CB501CE0101960E94B83800E010E038
S11319402AE030E0A601BE016F5F7F4FD701989671
S11319508D919C91999727C00E94A12C40E058EF4B
S113196060E070E0F70180A591A50E94A52CD70145
S11319709E962C912C9DC0012D9D900D11246C01DF
S1131980B3E0CB0ED11CB501CE0101960E94B8384C
S113199000E010E02AE030E0A601BE016F5F7F4F57
S11319A0F70180A591A50E947B32CE0101960E9489
S11319B028386401F6E0AF0EB11C25E082169104CC
S11319C009F060CF26960FB6F894DEBF0FBECDBFE8
S11319D0DF91CF911F910F91FF90EF90DF90CF9007
S11319E0BF90AF909F908F9008954F925F926F92A7
S11319F07F928F929F92AF92BF92CF92DF92EF929B
S1131A00FF920F931F93CF93DF9300D000D0CDB7F5
S1131A10DEB77C015B01C12CD12C8EE4482E552409
S1131A20539460E078EFF70180A591A50E94A12C62
S1131A3040E050E0BA01F70180A591A50E94A52CD1
S1131A40F70180A93201681A710887A58C9D4001AD
S1131A508D9D900C1124F5E08F0E911CB501CE01E3
S1131A6001960E94B83800E010E09301A401BE0181
S1131A706F5F7F4FF70180A591A50E947B32CE0155
S1131A8001960E942838FFEFCF1ADF0A86E0A80EDD
S1131A90B11CE4E0CE16D10421F626960FB6F894D4
S1131AA0DEBF0FBECDBFDF91CF911F910F91FF908D
S1131AB0EF90DF90CF90BF90AF909F908F907F90EA
S1131AC06F905F904F900895CF92DF92EF92FF92C4
S1131AD00F931F93CF93DF93EC016CA57DA588A58D
S1131AE099A50E94C03260E078EF88A599A50E946C
S1131AF0A12C88A940E451E0481B510900E411E0FD
S1131B0020EE31E060E070E088A599A50E947B2D6D
S1131B1060E070E088A599A50E94A12CE12CF12C2D
S1131B2083E4C82EDD24D3948FA590E02FEFE21A2E
S1131B30F20A8E9DB0018F9D700D9E9D700D112433
S1131B409B012350310948A9F601E41BF109AF01B7
S1131B50681B790B6D5F7F4F0DE311E088A599A594
S1131B600E947B2DF4E0EF16F104F1F6E9A9FAA93D
S1131B708081813059F038F0823059F08330A9F4F3
S1131B806CE975E008C064EE75E005C06CEC75E0C6
S1131B9002C064EB75E0CE01DF91CF911F910F91EC
S1131BA0FF90EF90DF90CF9020CFDF91CF911F91E6
S1131BB00F91FF90EF90DF90CF900895CF93DF9334
S1131BC0EC0182DFCE01DF91CF9122CE66EA72E092
S1131BD08CEF95E00E948F386BEA72E082E096E029
S1131BE00E948F3860EB72E088E096E00E948F38A4
S1131BF065EB72E08EE096E00E948F3868EB72E04D
S1131C0084E196E00E948F386EEB72E084EE95E0FA
S1131C100E948F3864EC72E08AEE95E00E948F385F
S1131C206AEC72E080EF95E00E948F3864EC72E019
S1131C3086EF95E00E948F386FEC72E08CEC95E0B3
S1131C400E948F3864EC72E082ED95E00E948F3838
S1131C5065ED72E088ED95E00E948F386AED72E0E0
S1131C608EED95E00E948F386FED72E084EB95E085
S1131C700E948F3864EE72E08AEB95E00E948F3800
S1131C8069EE72E080EC95E00E948F386EEE72E0AF
S1131C9086EC95E00E948F386FEC72E08CE995E059
S1131CA00E948F3863EF72E082EA95E00E948F38D9
S1131CB068EF72E088EA95E00E948F386AEC72E07F
S1131CC08EEA95E00C948F38CF93DF938EEA95E0FB
S1131CD00E94283888EA95E00E94283882EA95E034
S1131CE00E9428388CE995E00E94283886EC95E01B
S1131CF00E94283880EC95E00E9428388AEB95E011
S1131D000E94283884EB95E00E9428388EED95E0F7
S1131D100E94283888ED95E00E94283882ED95E0ED
S1131D200E9428388CEC95E00E94283886EF95E0D4
S1131D300E94283880EF95E00E9428388AEE95E0CA
S1131D400E94283884EE95E00E942838CAE1D6E043
S1131D502697CE010E94283885E0CC3FD807C1F7EA
S1131D60DF91CF9108952F923F924F925F926F929D
S1131D707F928F929F92AF92BF92CF92DF92EF9217
S1131D80FF920F931F93CF93DF93EC011882198274
S1131D90412C512C8CE5682E83E4782E4A825B8298
S1131DA06C827D821E82812C912C90E8A92E90E475
S1131DB0B92E8F829886A986BA861B86C12C20E804
S1131DC0D22E2BE3E22E26E4F22ECC86DD86EE869E
S1131DD0FF863EE1232E288A198A1A8A1B8A1C8AC6
S1131DE01D8A1E8A80E090E0A8E4B3E48F8B988F6C
S1131DF0A98FBA8F98EC9B8F80E090E0AAE7B4E4B7
S1131E008C8F9D8FAE8FBF8F18A219A21AA21BA20E
S1131E1000E410E01DA30CA333243A943EA23FA295
S1131E2088E290E00E948A35FC011082118242828D
S1131E30538264827582168287829086A186B286D6
S1131E401386C486D586E686F786208A118A128A86
S1131E50138A148A158A168A80E090E0A8E4B3E411
S1131E60878B908FA18FB28F98EC938F80E090E056
S1131E70AAE7B4E4848F958FA68FB78F10A211A21E
S1131E8012A213A215A304A336A237A288E2DE018C
S1131E9001900D928A95E1F7DF91CF911F910F91F7
S1131EA0FF90EF90DF90CF90BF90AF909F908F9076
S1131EB07F906F905F904F903F902F90089508957A
S1131EC0CF93DF93EC018E509F4F93DCCE018A5762
S1131ED09F4F8FDCCE0188965DDBCE01DF91CF91E1
S1131EE0EECFEF92FF920F931F93CF93DF93EC010A
S1131EF07B018A0138DFCE01889642DBCE018B5A02
S1131F009F4F36D6CE018A579F4F66DCCE0183544D
S1131F109F4F2ED6CE018E509F4F5EDCFE01E754BC
S1131F20FF4FF182E082C554DF4F19830883DF91AC
S1131F30CF911F910F91FF90EF900895AF92BF92B0
S1131F40CF92DF92EF92FF920F931F93CF93DF9381
S1131F50EC0181E390E00E948A355C01C12CD12C14
S1131F6089E2E82EF12C08E210E027E230E046E2B4
S1131F7050E065E1C501FDD57E018DEBE80EF11C55
S1131F8081E3F501D70101900D928A95E1F761E0B3
S1131F90C7010E940819FE01E251FF4F8EE991E04A
S1131FA091838083329682E89DE0918380836E01E1
S1131FB082EFC80ED11CC754DF4F088119812EE966
S1131FC031E042E85DE0B701C60114DCC7010E94BC
S1131FD0052CC601DF91CF911F910F91FF90EF90D7
S1131FE0DF90CF90BF90AF90E9CDCF93DF93EC011A
S1131FF0C554DF4FE881F98120A5222331F08E50AA
S11320009F4FDCDDE881F98110A6DF91CF9108951F
S113201066EA72E08AE796E00E948F386BEA72E023
S113202080E896E00E948F3860EB72E086E896E0E4
S11320300E948F3865EB72E08CE896E00E948F383E
S113204068EB72E082E996E00E948F386EEB72E0F2
S113205082E696E00E948F3864EC72E088E696E0AF
S11320600E948F386AEC72E08EE696E00E948F3808
S113207064EC72E084E796E00E948F386FEC72E0C3
S11320808AE496E00E948F3864EC72E080E596E082
S11320900E948F3865ED72E086E596E00E948F38E5
S11320A06AED72E08CE596E00E948F386FED72E085
S11320B082E396E00E948F3864EE72E088E396E053
S11320C00E948F3869EE72E08EE396E00E948F38AA
S11320D06EEE72E084E496E00E948F386FEC72E05A
S11320E08AE196E00E948F3863EF72E080E296E026
S11320F00E948F3868EF72E086E296E00E948F3883
S11321006AEC72E08CE296E00C948F38CF93DF9304
S11321108CE296E00E94283886E296E00E942838F5
S113212080E296E00E9428388AE196E00E942838EE
S113213084E496E00E9428388EE396E00E942838D2
S113214088E396E00E94283882E396E00E942838CB
S11321508CE596E00E94283886E596E00E942838AF
S113216080E596E00E9428388AE496E00E942838A8
S113217084E796E00E9428388EE696E00E9428388C
S113218088E696E00E94283882E696E00E94283885
S1132190C8E9D6E02697CE010E94283886E0CA37DF
S11321A0D807C1F7DF91CF910895FC01283009F4D5
S11321B0EEC018F4213041F00895203109F4F7C03D
S11321C0213109F402C1089587858430C1F4A08DBA
S11321D0B18D82A19C91613011F4892B02C080954C
S11321E089238C93A28DB38D9C9183A1809589239F
S11321F08C93A28DB38D9C9183A1892B08C0A08957
S1132200B189868D9C916130C1F3809589238C932B
S1132210A08DB18D82A19C9147FF02C0892B02C081
S1132220809589238C93A28DB38D9C9183A18095F5
S113223089238C93A28DB38D9C9183A1892B8C933C
S1132240A08DB18D82A19C9146FF02C0892B02C052
S1132250809589238C93A28DB38D9C9183A18095C5
S113226089238C93A28DB38D9C9183A1892B8C930C
S1132270A08DB18D82A19C9145FF02C0892B02C023
S1132280809589238C93A28DB38D9C9183A1809595
S113229089238C93A28DB38D9C9183A1892B8C93DC
S11322A0A08DB18D82A19C9144FF02C0892B02C0F4
S11322B0809589238C93A28DB38D9C9183A1809565
S11322C089238C93A28DB38D9C9183A1892B8C93AC
S11322D0A08DB18D82A19C9143FF02C0892B02C0C5
S11322E0809589238C93A28DB38D9C9183A1809535
S11322F089238C93A28DB38D9C9183A1892B8C937C
S1132300A08DB18D82A19C9142FF02C0892B02C095
S1132310809589238C93A28DB38D9C9183A1809504
S113232089238C93A28DB38D9C9183A1892B8C934B
S1132330A08DB18D82A19C9141FF02C0892B02C066
S1132340809589238C93A28DB38D9C9183A18095D4
S113235089238C93A28DB38D9C9183A1892B8C931B
S1132360A08DB18D82A19C9140FF02C0892B02C037
S1132370809589238C93A28DB38D9C9183A18095A4
S113238089238C93A28DB38D9C9183A1A2C062B941
S1132390A289B3899C91878D809589238C93A28986
S11323A0B3899C91878D892B8C9342B902C062B901
S11323B048B9A289B3899C91878D809589238C9390
S11323C0A289B3899C91878D84C0A59894B3862FE4
S11323D08071880F892B84BB80910201877E809352
S11323E0020190910201862F807C869586958695C0
S11323F0892B809302018EB1847C8EB99EB1262FE5
S11324002C70220F220F862F8370280F862F807244
S1132410682F70E07595679575956795620F692BC0
S11324206EB9A48DB58D9C9184A1809589238C93DC
S1132430A48DB58D9C9184A1892B8C93A48DB58D8D
S11324409C9184A1809589238C93A489B5899C91BE
S113245080A1809589238C93A59894B3842F80714F
S1132460880F892B84BB80910201877E80930201AF
S113247090910201842F807C869586958695892B80
S1132480809302018EB1847C8EB99EB1242F2C706E
S1132490220F220F842F8370280F842F8072482FDD
S11324A050E05595479555954795420F492B4EB9A0
S11324B0A289B3899C91878D809589238C93A28965
S11324C0B3899C91878D892B8C93A489B5899C9120
S11324D080A1892B8C930895613131F08FEF81B9FC
S11324E0603149F487B9089588E18093010180E25D
S11324F083BB8BE38DB908958F929F92AF92BF9265
S1132500CF92DF92EF92FF920F931F93CF93DF93BB
S1132510EC016801790162B948B9C901B80120E147
S113252030E040E050E00E94263A49015A0180E040
S113253090E0DC0188159905AA05BB050CF0D4C010
S1132540EA89FB8930812F8D209523232083EA8912
S1132550FB8930812F8D232B2083EA89FB893081ED
S11325602F8D209523232083EA89FB8930812F8DA9
S1132570232B2083EA89FB8930812F8D2095232307
S11325802083EA89FB8930812F8D232B2083EA89DC
S1132590FB8930812F8D209523232083EA89FB89B1
S11325A030812F8D232B2083EA89FB8930812F8D65
S11325B0209523232083EA89FB8930812F8D232BC7
S11325C02083EA89FB8930812F8D20952323208362
S11325D0EA89FB8930812F8D232B2083EA89FB89AB
S11325E030812F8D209523232083EA89FB89308134
S11325F02F8D232B2083EA89FB8930812F8D209511
S113260023232083EA89FB8930812F8D232B208388
S1132610EA89FB8930812F8D209523232083EA8941
S1132620FB8930812F8D232B2083EA89FB8930811C
S11326302F8D209523232083EA89FB8930812F8DD8
S1132640232B2083EA89FB8930812F8D2095232336
S11326502083EA89FB8930812F8D232B2083EA890B
S1132660FB8930812F8D209523232083EA89FB89E0
S113267030812F8D232B2083EA89FB8930812F8D94
S1132680209523232083EA89FB8930812F8D232BF6
S11326902083EA89FB8930812F8D20952323208391
S11326A0EA89FB8930812F8D232B2083EA89FB89DA
S11326B030812F8D209523232083EA89FB89308163
S11326C02F8D232B2083EA89FB8940813F8D309510
S11326D034233083EA89FB8920813F8D322B308378
S11326E00196A11DB11D26CFD701C6018F70992770
S11326F0AA27BB27892B8A2B8B2B19F1C701B6017B
S113270020E130E040E050E00E94263AC12CD12C78
S113271076016C157D058E059F059CF0EA89FB8981
S113272030812F8D209523232083EA89FB893081F2
S11327302F8D232B20832FEFC21AD20AE20AF20A2A
S1132740E8CFDF91CF911F910F91FF90EF90DF9031
S1132750CF90BF90AF909F908F9008958F929F924B
S1132760AF92BF92CF92DF92EF92FF92CF93DF931B
S1132770EC0169017A0162B9CA01B90120E130E0D2
S113278040E050E00E94263A49015A0180E090E07E
S1132790DC0188159905AA05BB050CF0A4C1EA89DA
S11327A0FB8930812F8D209523232083EA89FB899F
S11327B030812F8D232B2083EA89FB8930812F8D53
S11327C0209523232083EA89FB8930812F8D232BB5
S11327D02083EA89FB8930812F8D20952323208350
S11327E0EA89FB8930812F8D232B2083EA89FB8999
S11327F030812F8D209523232083EA89FB89308122
S11328002F8D232B2083EA89FB8930812F8D2095FE
S113281023232083EA89FB8930812F8D232B208376
S1132820EA89FB8930812F8D209523232083EA892F
S1132830FB8930812F8D232B2083EA89FB8930810A
S11328402F8D209523232083EA89FB8930812F8DC6
S1132850232B2083EA89FB8930812F8D2095232324
S11328602083EA89FB8930812F8D232B2083EA89F9
S1132870FB8930812F8D209523232083EA89FB89CE
S113288030812F8D232B2083EA89FB8930812F8D82
S1132890209523232083EA89FB8930812F8D232BE4
S11328A02083EA89FB8930812F8D2095232320837F
S11328B0EA89FB8930812F8D232B2083EA89FB89C8
S11328C030812F8D209523232083EA89FB89308151
S11328D02F8D232B2083EA89FB8930812F8D20952E
S11328E023232083EA89FB8930812F8D232B2083A6
S11328F0EA89FB8930812F8D209523232083EA895F
S1132900FB8930812F8D232B2083EA89FB89308139
S11329102F8D209523232083EA89FB8930812F8DF5
S1132920232B2083EA89FB8930812F8D2095232353
S11329302083EA89FB8930812F8D232B2083EA8928
S1132940FB8930812F8D209523232083EA89FB89FD
S113295030812F8D232B2083EA89FB8930812F8DB1
S1132960209523232083EA89FB8930812F8D232B13
S11329702083EA89FB8930812F8D209523232083AE
S1132980EA89FB8930812F8D232B2083EA89FB89F7
S113299030812F8D209523232083EA89FB89308180
S11329A02F8D232B2083EA89FB8930812F8D20955D
S11329B023232083EA89FB8930812F8D232B2083D5
S11329C0EA89FB8930812F8D209523232083EA898E
S11329D0FB8930812F8D232B2083EA89FB89308169
S11329E02F8D209523232083EA89FB8930812F8D25
S11329F0232B2083EA89FB8930812F8D2095232383
S1132A002083EA89FB8930812F8D232B2083EA8957
S1132A10FB8930812F8D209523232083EA89FB892C
S1132A2030812F8D232B2083EA89FB8930812F8DE0
S1132A30209523232083EA89FB8930812F8D232B42
S1132A402083EA89FB8930812F8D209523232083DD
S1132A50EA89FB8930812F8D232B2083EA89FB8926
S1132A6030812F8D209523232083EA89FB893081AF
S1132A702F8D232B2083EA89FB8930812F8D20958C
S1132A8023232083EA89FB8930812F8D232B208304
S1132A90EA89FB8930812F8D209523232083EA89BD
S1132AA0FB8930812F8D232B2083EA89FB89308198
S1132AB02F8D209523232083EA89FB8930812F8D54
S1132AC0232B2083EA89FB8940813F8D3095342371
S1132AD03083EA89FB8920813F8D322B3083019634
S1132AE0A11DB11D56CED701C6018F709927AA2703
S1132AF0BB27892B8A2B8B2B81F1C701B60120E1DF
S1132B0030E040E050E00E94263AC12CD12C7601FE
S1132B106C157D058E059F0504F1EA89FB893081DA
S1132B202F8D209523232083EA89FB8930812F8DE3
S1132B30232B2083EA89FB8930812F8D2095232341
S1132B402083EA89FB8930812F8D232B20832FEF6B
S1132B50C21AD20AE20AF20ADBCFDF91CF91FF90C8
S1132B60EF90DF90CF90BF90AF909F908F9008959B
S1132B7008954F925F926F927F928F929F92AF923D
S1132B80BF92CF92DF92EF92FF920F931F93CF9356
S1132B90DF93CDB7DEB7C05AD1090FB6F894DEBFC4
S1132BA00FBECDBF70E4E6E0F2E0DE01AF5BBF4FE5
S1132BB001900D927A95E1F770E4E6E4F2E0DE012B
S1132BC0119601900D927A95E1F770E2E6E8F2E051
S1132BD0DE01AF57BF4F01900D927A95E1F7E62FD2
S1132BE0F0E05F01AA0CBB1CA1E4B0E0AC0FBD1F78
S1132BF0AA0DBB1D0D90BC91A02D2D01612C712C33
S1132C00DC0115964D925D926D927C921897A1E02D
S1132C10B0E0AC0FBD1FAA0DBB1D0D90BC91A02D43
S1132C204D01A12CB12CDC0119968D929D92AD928F
S1132C30BC921C97A1E8B0E0AC0FBD1FEA0FFB1FCC
S1132C407081FC017687658745A326A307A3E0A6C8
S1132C50C1A6743019F461E066877787DC011E969B
S1132C606C911E97653031F471E01E967C931E972B
S1132C701F966C93FC016685613009F498C0490184
S1132C803A015C0129DCF301EA57FD4EE491F0E0DE
S1132C90EE0FFF1FEA51FD4E25913491D501519657
S1132CA03C932E935097F301E05CFD4EE4915E96C5
S1132CB0EC935E97F401EA57FD4EE491F0E0EE0FD9
S1132CC0FF1FEA51FD4E25913491F501338B228B80
S1132CD0F401E05CFD4EE4915F96EC935F97C801CC
S1132CE0F801EA57FD4EE491F0E0EE0FFF1FEA51C0
S1132CF0FD4E25913491F501358B248BFC01E05C6C
S1132D00FD4EE4919096EC939097F701EA57FD4EAF
S1132D10E491F0E0EE0FFF1FEA51FD4E859194918E
S1132D20F501978B868BF701E05CFD4EE49091965C
S1132D30EC9291971E968C91813109F0ADC0F60109
S1132D40EA57FD4EE491F0E0EE0FFF1FEA51FD4E0D
S1132D50A591B491F501B58FA48FF601E05CFD4E09
S1132D609491F50194A38C91E92FE095E823EC93D9
S1132D7061E088E00E94963760E088E0C056DF4F4B
S1132D800FB6F894DEBF0FBECDBFDF91CF911F9178
S1132D900F91FF90EF90DF90CF90BF90AF909F90F6
S1132DA08F907F906F905F904F900C94D237BA01C0
S1132DB0FA01EA57FD4EE491F0E0EE0FFF1FEA51ED
S1132DC0FD4E45915491DC0159965C934E9358976E
S1132DD0FB01E05CFD4EE4919296EC939297A9017D
S1132DE0F901EA57FD4EE491F0E0EE0FFF1FEA51BE
S1132DF0FD4E25913491FC01338F228FFA01E05C62
S1132E00FD4EE4919396EC939397F801EA57FD4EA7
S1132E10E491F0E0EE0FFF1FEA51FD4E459154910D
S1132E20FC01558B448BF801E05CFD4EE4919096D7
S1132E30EC93BFEFEB16F104A9F0F701EA57FD4E4E
S1132E40E491F0E0EE0FFF1FEA51FD4E259134911D
S1132E50FC01378B268BF701E05CFD4EE490DC012E
S1132E609196EC92FC0127852430B1F0F601EA57E3
S1132E70FD4EE491F0E0EE0FFF1FEA51FD4E459147
S1132E805491DC0151965C934E935097F601E05CAB
S1132E90FD4EE4915E96EC93C056DF4F0FB6F89466
S1132EA0DEBF0FBECDBFDF91CF911F910F91FF9079
S1132EB0EF90DF90CF90BF90AF909F908F907F90D6
S1132EC06F905F904F900895462FDC011E962C91D1
S1132ED01E97213071F05096ED91FC9151973081FD
S1132EE05E962C915E972095232320831E962C9129
S1132EF001C021E060E059C91F93CF93DF93DC0147
S1132F001E962C911E97213069F05096ED91FC91FC
S1132F10519730815E962C915E97232B20831E96C9
S1132F202C910AC0142F462FEC0121E061E03DD919
S1132F302E85412F61E0CE01DF91CF911F9135C9DC
S1132F40462FDC011E962C911E97213071F050966D
S1132F50ED91FC91519730815E962C915E97232BD5
S1132F6020831E962C9160E002C021E061E01DC91F
S1132F700F931F93CF93DF93EC018A01A5DF402FBA
S1132F80612FCE01DF91CF911F910F91B5CFAF92F9
S1132F90BF92CF92DF92EF92FF920F931F93CF9342
S1132FA0DF93EC016B01B42EA52E79018C81813065
S1132FB069F489859A859C01261B370B8E199F0914
S1132FC078018901C42ED52EB82EA92EED858E2F19
S1132FD090E0FC013297EE31F10508F00EC188272C
S1132FE0EE58FF4F8F4F0C94423A4D2D50E062E063
S1132FF0CE01BEDFA60163E0CE01BADF4F2D50E063
S113300064E0CE01B5DFA70165E0CE01B1DF4A2D52
S113301050E066E0CE01ACDF4B2D5A2D67E0CE01C7
S1133020A7DF412F50E052C05E2D44274C0D5D1D9B
S113303064E4CE019DDF4B2D5A2D65E4CE0198DF6B
S1133040A80166E4CE0194DFA6016EE4CE0190DF10
S11330504B2D5A2D6FE4CE018BDF62E2C2C0A60174
S113306060E2CE0185DF4B2D5A2D61E2CE0180DF77
S1133070A60160E5CE017CDF4B2D5A2D62E5CE0121
S113308077DFA70161E5CE0173DFA80163E5E3CF34
S113309040E050E062E0CE016BDFA60163E0CE01C8
S11330A067DF40E050E064E0CE0162DFA70165E045
S11330B0CE015EDF40E050E066E0CE0159DF4B2DEB
S11330C05A2D67E0CE0154DF40E050E068E0CE01C5
S11330D04FDFA80169E0BFCF6AE2CE01F5DE6C2DB7
S11330E0CE012EDF6E2DCE012BDF6BE2CE01ECDEA6
S11330F06B2D71C06AE2CE01E7DE6A2DCE0120DFBE
S11331006B2DCE011DDF612FCE011ADF602FCE01A2
S113311017DF6BE2CE01D8DE6D2DCE0111DF6C2DF1
S1133120CE010EDF6F2DCE010BDF6E2D57C05E2D4D
S113313044274C295D2966E4CE011ADFA80167E41F
S1133140CE0116DF4B2D5A2D68E40FC0A70166E3AC
S1133150CE010EDFA60167E3CE010ADFA80168E312
S1133160CE0106DF4B2D5A2D69E3CE0101DFA60106
S113317060E2CE01FDDE4B2D5A2D61E26CCF4B2D6A
S11331805A2D62E0CE01F4DEA60163E0CE01F0DE4A
S1133190A80166E0CE01ECDEA70167E0CE01E8DE1F
S11331A06FE01FC06AE2CE018FDE6D2DCE01C8DE56
S11331B06C2DCE01C5DE6F2DCE01C2DE6E2DCE018B
S11331C0BFDE6BE2CE0180DE6A2DCE01B9DE6B2D4F
S11331D0CE01B6DE612FCE01B3DE602FCE01B0DEAC
S11331E06CE2CE01DF91CF911F910F91FF90EF9090
S11331F0DF90CF90BF90AF9067CEDF91CF911F91BA
S11332000F91FF90EF90DF90CF90BF90AF90089513
S11332100F931F93CF93DF93EC016C8361E08DA137
S11332200E94963761E08EA10E94963761E08FA1DB
S11332300E94963788A58F3F19F061E00E94963767
S11332408E85813129F0813039F48F85853021F4E0
S113325061E089A50E9496376E85613011F0CE0138
S11332603BD9EE89FF89908189A1892B808365E010
S113327070E080E090E00E94A636EE89FF8990819C
S113328089A18095892380836FE070E080E090E0DD
S11332900E94A636EE89FF89908189A1892B8083BB
S11332A06FE070E080E090E00E94A636EC89FD8932
S11332B0908188A1809589238083ED858E2F90E06D
S11332C0FC013297EE31F10510F00C94DB2B8827CA
S11332D0E057FF4F8F4F0C94423A41E050E060E0DA
S11332E0CE0146DE44EA58EA63E0CE0141DE40E026
S11332F050E06CE0CE013CDE4CE058E06DE0CE01E5
S113330037DE40E05BE26EE0CE0132DE47EB50E0B8
S11333106EE1CE012DDE4FE35BE261E0CE0128DEFB
S113332040E056E062E0CE0123DE40E050E060E1A0
S1133330CE011EDE40E750E661E1CE0119DE40E039
S113334050E065E0CE0114DE40E050E066E0CE01DE
S11333500FDE4CE15FEE66E1CE010ADE43E050E0B1
S113336067E1CE0105DE43E352E067E0CE0100DE13
S113337040E050E06BE0CE01FBDD40E050E06FE068
S1133380CE01F6DD40E050E061E4CE01F1DD40E045
S113339050E062E4CE01ECDD40E050E068E4CE01B0
S11333A0E7DD4FE351E069E4CE01E2DD40E050E0C7
S11333B06AE4CE01DDDD40E050E06BE4CE01D8DD0F
S11333C040E05FEE64E4CE01D3DD40E050E065E42C
S11333D0CE01CEDD4FE351E066E4CE01C9DD47E026
S11333E057E060E3CE01C4DD44E052E061E3CE0186
S11333F0BFDD44E052E062E3CE01BADD42E055E0D5
S113340063E3CE01B5DD47E055E064E3CE01B0DD12
S113341044E052E065E3CE01ABDD44E052E066E314
S1133420CE01A6DD42E055E067E3CE01A1DD42E036
S113343053E06AE3CE019CDD42E053E06BE3CE014E
S113344097DD40E050E063E2CE0192DD40E050E0E1
S113345064E2CE018DDD40E050E865E2CE0188DD16
S113346040E050E06FE4CE0183DD40E050E06EE4E4
S11334700C94732540EF58E765EECE0179DD40E00A
S113348051E061E0CE0174DD40E052E062E0CE0143
S11334906FDD40E350E163E0CE016ADD40E050E0DF
S11334A064E0CE0165DD47E052E068E0CE0160DD16
S11334B040E050E069E0CE015BDD40E050E06AE0CE
S11334C0CE0156DD40E050E06CE0CE0151DD40E03D
S11334D050E06DE0CE014CDD40E050E06FE0CE0105
S11334E047DD40E050E060E1CE0142DD47E050E0DE
S11334F061E1CE013DDD40E050E062E1CE0138DD26
S113350040E050E063E1CE0133DD41E050E067E0AC
S1133510CE012EDD68EC70E080E090E00E94A636DB
S113352040E956E160E1CE0123DD47E252E061E18A
S1133530CE011EDD62E370E080E090E00E94A636DA
S11335404DE050E062E1CE0113DD62E370E080E023
S113355090E00E94A63640E052E163E1CE0108DD2E
S11335604AE050E069E2CE0103DD4DE050E07DC069
S113357040EF58E765EECE01FBDC40E051E061E04E
S1133580CE01F6DC40E057E062E0CE01F1DC40E33E
S113359050E163E0CE01ECDC40E050E064E0CE01B9
S11335A0E7DC47E052E068E0CE01E2DC40E050E0D6
S11335B069E0CE01DDDC40E050E06AE0CE01D8DC19
S11335C040E050E06CE0CE01D3DC40E050E06DE040
S11335D0CE01CEDC40E050E06FE0CE01C9DC40E03B
S11335E050E060E1CE01C4DC47E050E061E1CE018F
S11335F0BFDC40E050E062E1CE01BADC40E050E0E4
S113360063E1CE01B5DC41E050E067E0CE01B0DC1F
S113361068EC70E080E090E00E94A63640E955E155
S113362060E1CE01A5DC47E252E061E1CE01A0DC1D
S113363062E370E080E090E00E94A6364CE950E03E
S113364062E1CE0195DC62E370E080E090E00E94EC
S1133650A63640E059E163E1CE018ADC43E250E062
S113366069E2CE0185DC4EE050E06BE2CE0180DC05
S113367062E370E080E090E00E94A63640E050E013
S113368060E2CE0175DC40E050E061E2CE0170DC26
S113369040E050E060E3CE016BDC44E054E061E3E1
S11336A0CE0166DC43E050E062E3CE0161DC45E03C
S11336B054E065E3CE015CDC48E058E066E3CE010B
S11336C057DC47E054E067E3CE0152DC43E053E0CB
S11336D068E3CE014DDC47E057E069E3CE0148DC06
S11336E044E055E06CE3CE0143DC48E058E06DE390
S11336F0CE013EDC40E050E060E5CE0139DC4FEE27
S113370050E061E5CE0134DC40E050E062E5CE01FA
S11337102FDC4FE351E063E5CE012ADC40E057EAB9
S113372060E6CE0125DC41E050E061E6CE0120DC1C
S113373040E050E06AE6CE011BDC40E050E060E887
S1133740CE0116DC40E050E061E8CE0111DC40E03F
S113375050E062E8CE010CDC40E050E063E8CE01CA
S113376007DC40E050E064E8CE0102DC40E050E0D9
S113377065E8CE01FDDB40E150E060E9CE01F8DB15
S113378040E050E062E9CE01F3DB43E351E067E05F
S1133790CE01EEDB0C94DB2B44E850E066E2CE0174
S11337A0E7DB68E270E080E090E00E94A63648EB38
S11337B050E066E2CE01DCDB68E270E080E090E09D
S11337C00E94A6364CEB50E066E2CE01D1DB64E108
S11337D070E080E090E00E94A63640E050E060E6B1
S11337E0CE01C6DB46E050E061E6CE01C1DB40E03D
S11337F050E062E6CE01BCDB48EC50E063E6CE016B
S1133800B7DB64E170E080E090E00E94A63640E718
S113381050E063E7CE01ACDB40E050E060E4CE0171
S1133820A7DB40E450E061E4CE01A2DB45E450E0D4
S113383062E4CE019DDB41E050E063E4CE0198DB1D
S113384040E650E064E4CE0193DB45E050E065E4FB
S1133850CE018EDB4CE050E066E4CE0189DB41ED25
S113386050E067E4CE0184DB45E050E068E4CE013B
S11338707FDB45E750E060E5CE017ADB41E050E0D4
S113388061E5CE0175DB47E650E062E5CE0170DB11
S113389044E150E063E5CE016BDB42EF50E064E5C8
S11338A0CE0166DB47E050E065E5CE0161DB43E035
S11338B050E066E5CE015CDB49E450E067E5CE010B
S11338C057DB64E170E080E090E00E94A63643E0BC
S11338D050E06FE1CE014CDB40E050E060E2CE010D
S11338E047DB44E250E064E2CE0142DB44E350E0D3
S11338F065E2CE013DDB4FE250E063E2CE0138DB0E
S113390064E170E080E090E00E94A63644E450E078
S113391068E1CE012DDB41E050E061E2CE0128DB1D
S113392040E050E061E0CE0123DB43E050E06CE195
S1133930CE011EDB46E050E069E1CE0119DB64E113
S113394070E080E090E00E94A63644E850E066E231
S1133950CE010EDB68E270E080E090E00E94A636C3
S113396048EB50E066E2CE0103DB68E270E080E001
S113397090E00E94A6364CEB50E066E2CE01F8DA05
S113398064E170E080E090E00E94A63640E050E000
S113399062E0CE01EDDA40E050E063E0CE01E8DA27
S11339A040E050E064E0CE01E3DA4FEA50E065E045
S11339B0CE01DEDA40E050E066E0CE01D9DA40E044
S11339C050E067E0CE01D4DA40E050E068E0CE0198
S11339D0CFDA4BED50E069E0CE01CADA64E170E081
S11339E080E090E00E94A63648E050E066E1CE0117
S11339F0BFDA45E050E067E1CE01BADA61E2CE0118
S1133A0063DA62E2CE0160DA0C94DB2B61E1CE0171
S1133A105BDA6CE070E080E090E00E94A63661EB37
S1133A20CE0152DA61E0CE018BDA6CE2CE0188DAA3
S1133A306DE2CE0185DA62EBCE0146DA61E0CE01B9
S1133A407FDA6CE2CE017CDA6DE2CE0179DA63EBE7
S1133A50CE013ADA61E0CE0173DA6CE2CE0170DABB
S1133A606DE2CE016DDA61E0CE016ADA6CE2CE017C
S1133A7067DA6DE2CE0164DA64EBCE0125DA67E041
S1133A80CE015EDA60ECCE011FDA62EACE0158DACA
S1133A9062E0CE0155DA64E8CE0152DA61ECCE017F
S1133AA013DA65ECCE014CDA62ECCE010DDA6AE091
S1133AB0CE0146DA60E0CE0143DA63ECCE0104DAEB
S1133AC06AE8CE013DDA6AE2CE013ADA64ECCE016C
S1133AD0FBD96AE8CE0134DA6EEECE0131DA65EC58
S1133AE0CE01F2D96EE0CE012BDA66E3CE01ECD939
S1133AF068EC73C061E1CE01E7D96CE070E080E06E
S1133B0090E00E94A63661EBCE01DED961E0CE01E1
S1133B1017DA6CE2CE0114DA6DE2CE0111DA62EB4F
S1133B20CE01D2D961E0CE010BDA6CE2CE0108DA23
S1133B306DE2CE0105DA63EBCE01C6D961E0CE01B8
S1133B40FFD96CE2CE01FCD96DE2CE01F9D961E076
S1133B50CE01F6D96CE2CE01F3D96DE2CE01F0D9F3
S1133B6064EBCE01B1D967E0CE01EAD960ECCE01B5
S1133B70ABD962EACE01E4D962E0CE01E1D964E8CE
S1133B80CE01DED961ECCE019FD965ECCE01D8D946
S1133B9062ECCE0199D96AE0CE01D2D960E0CE01BF
S1133BA0CFD963ECCE0190D96AE8CE01C9D96AE2D3
S1133BB0CE01C6D964ECCE0187D96AE8CE01C0D95A
S1133BC06EEECE01BDD965ECCE017ED96EE0CE019C
S1133BD0B7D966E3CE0178D960ECCE01B1D960EEF5
S1133BE0CE0172D96FE0CE01ABD96AE1CE01A8D97A
S1133BF06FE0CE01A5D968E1CE01A2D96FE2CE0172
S1133C009FD968E2CE019CD960E2CE0199D962E2E3
S1133C10CE0196D96FE1CE0193D96BE1CE0190D953
S1133C2063E2CE018DD967E3CE018AD960E0CE018B
S1133C3087D967E0CE0184D962E0CE0181D960E101
S1133C40CE017ED961EECE013FD96FE0CE0178D9A5
S1133C506BE1CE0175D96FE0CE0172D967E1CE0177
S1133C606FD963E3CE016CD96CE2CE0169D969E204
S1133C70CE0166D96EE2CE0163D960E3CE0160D98C
S1133C8060E3CE015DD969E3CE015AD96FE3CE0179
S1133C9057D960E0CE0154D967E0CE0151D963E031
S1133CA0CE014ED960E1CE014BD96AE2CE010CD9E6
S1133CB060E0CE0145D960E0CE0142D960E0CE019A
S1133CC03FD96FE7CE013CD96BE2CE01FDD860E06D
S1133CD0CE0136D960E0CE0133D960E0CE0130D9CF
S1133CE06FE9CE012DD960EFCE01EED861E0CE01AF
S1133CF027D966EFCE01E8D860E00C94972661E0FE
S1133D00CE01E2D865E2CE01DFD860E4CE0118D955
S1133D1061E1CE01D9D86AE070E080E090E00E94D1
S1133D20A63660E2CE01D0D868E3CE01CDD869E2F0
S1133D30CE01CAD863E1CE01C7D866E3CE01C4D8A8
S1133D4060E6CE01FDD86AE3CE01BED865E0CE01BF
S1133D50F7D86AE2CE01B8D860E0CE01F1D86FE7B7
S1133D60CE01EED864EBCE01AFD863E0CE01E8D843
S1133D7068E0CE01E5D86BE0CE01E2D86EE0CE017A
S1133D80DFD86AEBCE01A0D867E0CE01D9D86DE0C8
S1133D90CE01D6D86BE2CE0197D860E0CE01D0D860
S1133DA06FE75EC263E8CE018FD862E0CE01C8D867
S1133DB065E8CE0189D863E0CE01C2D86BE8CE01B4
S1133DC083D861E0CE01BCD86CE8CE017DD863E92C
S1133DD0CE01B6D861E9CE0177D861E0CE01B0D882
S1133DE063E8CE0171D860E0CE01AAD86EE3CE01BB
S1133DF06BD860EBCE01A4D86FE3CE0165D863E045
S1133E00CE019ED860E4CE015FD860E1CE0198D89F
S1133E1061E4CE0159D866E5CE0192D862E4CE01C0
S1133E2053D863E1CE018CD863E4CE014DD866E467
S1133E30CE0186D864E4CE0147D863E2CE0180D8AF
S1133E4065E4CE0141D866E7CE017AD866E4CE01B6
S1133E503BD860E0CE0174D867E4CE0135D86EE576
S1133E60CE016ED868E4CE012FD86FE4CE0168D8B5
S1133E7069E4CE0129D860E4CE0162D867E1CE01BD
S1133E8023D861E9CE015CD86BE2CE011DD869EF7D
S1133E90CE0156D86AE070E080E090E00E94A63639
S1133EA06BE1CE0111D864E1CE014AD86AE1CE01BA
S1133EB00BD861E1CE0144D86CE1CE0105D866E0AF
S1133EC0CE013ED86FE1CE010E94641762E4CE01B8
S1133ED037D864E170E080E090E00E94A63669E1A2
S1133EE0CE010E9464176AE0CE012AD869E1CE01AE
S1133EF00E9464176AE1CE0123D868E270E080E092
S1133F0090E00E94A63669E1CE010E94641762E146
S1133F10CE0116D868E270E080E090E00E94A636F8
S1133F206EE1CE010E94641767E2CE0109D864E60F
S1133F3070E080E090E00E94A63664E2CE010E9428
S1133F40641760E6CE010E94A0176DE3CE010E94C3
S1133F50641760E4CE010E94A01764E3CE010E94BE
S1133F60641768E3CE010E94A01765E3CE010E94A6
S1133F70641768E3CE010E94A01764E2CE010E9498
S1133F80641768E3CE010E94A01768E270E080E045
S1133F9090E00E94A63664E2CE010E9464176CE3AE
S1133FA0CE010E94A01766E1CE010E9464176CE165
S1133FB0CE010E94A01761E0CE010E94641766E062
S1133FC0CE010E94A01765E5CE010E94641760E04F
S1133FD0CE010E94A01762E0CE010E94641760E047
S1133FE0CE010E94A01763E0CE010E94641760E036
S1133FF0CE010E94A01764E0CE010E94641760E025
S1134000CE010E94A01765E0CE010E9464176FEEF6
S1134010CE010E94A01766E0CE010E94641760E002
S1134020CE010E94A01767E0CE010E94641760E0F1
S1134030CE010E94A01768E0CE010E94641761E0DF
S1134040CE010E94A01769E0CE010E9464176FE8B8
S1134050CE010E94A017D5CC62EECE010E94641757
S113406063E2CE010E94A01762E0CE010E94A01775
S113407064E5CE010E94A01760EECE010E94641791
S113408061E0CE010E94A0176AE070E080E090E059
S11340900E94A63660EECE010E94641763E0CE0152
S11340A00E94A0176AE070E080E090E00E94A636CB
S11340B061E0CE010E94641764E670E080E090E065
S11340C00E94A63666EECE010E94641761E0CE011E
S11340D00E94A0176FE1CE010E94A0176FEFCE01DE
S11340E00E94A01760EBCE010E94641760E2CE012B
S11340F00E94A01760E0CE010E94A01761E0CE01EB
S11341000E94A0176FEDCE010E94A01761E0CE01BE
S11341100E94A0176FE0CE010E94A01760E0CE01BC
S11341200E94A01764EBCE010E94641762E0CE01E6
S11341300E94A01763E1CE010E94A01760E0CE01A7
S11341400E94A01768E0CE010E94A0176BE2CE0186
S11341500E94A01760E0CE010E94A01762E0CE0189
S11341600E94A01760E0CE010E94A01766EBCE016A
S11341700E94641761E0CE010E94A01760E2CE01A4
S11341800E94A01760E0CE010E94A01764E0CE0157
S11341900E94A0176CE0CE010E94A01760E0CE013F
S11341A00E94A01762E0CE010E94A0176AEBCE0124
S11341B00E9464176FE0CE010E94A01768EBCE0145
S11341C00E94641767E0CE010E94A01761E0CE014F
S11341D00E94A01766E3CE010E94641762E2CE013A
S11341E00E94A01760EFCE010E94641763E0CE0125
S11341F00E94A01761E070E080E090E00E94A63683
S11342000FE011E02FED31E040E050E060E070E0BD
S1134210CE010E94C71769E2CE010E9464176EEBBB
S1134220CE010E94641766E0CE010E94A01760EFE1
S1134230CE010E94A01761E0CE010E94A01760EF9A
S1134240CE010E94A01760E0CE010E94A01760E09A
S1134250CE010E94A01760EDCE010E9464176DE0AC
S1134260CE010E94A0170C94DA2A62EECE010E94BD
S113427064176EE1CE010E94A01762E0CE010E9495
S1134280A01764E5CE010E94A01760EECE010E9443
S1134290641761E0CE010E94A0176AE070E080E03C
S11342A090E00E94A63660EECE010E94641763E09F
S11342B0CE010E94A0176AE070E080E090E00E94C6
S11342C0A63661E0CE010E94641764E670E080E0E7
S11342D090E00E94A63666EECE010E94641763E069
S11342E0CE010E94A0176FEFCE010E94A0176FEFBE
S11342F0CE010E94A01760EBCE010E94641764E215
S1134300CE010E94A01760E0CE010E94A01763E0D6
S1134310CE010E94A0176FE1CE010E94A01761E0B8
S1134320CE010E94A0176FEDCE010E94A01760E09D
S1134330CE010E94A01764EBCE010E94641763E0D3
S1134340CE010E94A01760EACE010E94A01760E08F
S1134350CE010E94A0176EE2CE010E94A01760E376
S1134360CE010E94A01760E0CE010E94A0176FE06A
S1134370CE010E94A01760E0CE010E94A01766EB58
S1134380CE010E94641762E0CE010E94A0176DE086
S1134390CE010E94A01760E0CE010E94A01760E148
S11343A0CE010E94A01760E1CE010E94A01760E038
S11343B0CE010E94A01768E0CE010E94A0176AEB0C
S11343C0CE010E9464176FE0CE010E94A01768EB33
S11343D0CE010E94641767E0CE010E94A01761E03D
S11343E0CE010E94A01766E3CE010E94641762E228
S11343F0CE010E94A01760EFCE010E94641763E013
S1134400CE010E94A01761E070E080E090E0D2C08D
S113441062EECE010E94641763E2CE010E94A017EF
S113442062E0CE010E94A01764E0CE010E94A017B2
S113443060EECE010E94641761E0CE010E94A017D5
S11344406AE070E080E090E00E94A63660EECE0163
S11344500E94641763E0CE010E94A0176AE070E036
S113446080E090E00E94A63661E0CE010E946417CD
S113447064E670E080E090E00E94A63666EECE012D
S11344800E94641764E0CE010E94A01763E9CE0184
S11344900E94A01760EECE010E94A01760EBCE012F
S11344A00E94641760E0CE010E94A01760E0CE0174
S11344B00E94A01763E0CE010E94A0176FE1CE0115
S11344C00E94A01761E0CE010E94A0176FEDCE01FB
S11344D00E94A01760E0CE010E94A01764EBCE01F9
S11344E00E94641763E0CE010E94A01760EACE0127
S11344F00E94A01760E0CE010E94A0176EE2CE01D8
S11345000E94A01760E3CE010E94A01760E0CE01D4
S11345100E94A0176FE0CE010E94A01760E0CE01B8
S11345200E94A01766EBCE010E94641762E0CE01E0
S11345300E94A0176DE0CE010E94A01760E0CE019A
S11345400E94A01760E1CE010E94A01760E1CE0195
S11345500E94A01760E0CE010E94A01768E0CE017F
S11345600E94A0176AEBCE010E94641765E0CE0199
S11345700E94A01768EBCE010E94641767E0CE0189
S11345800E94A01761E0CE010E94A01766E3CE014D
S11345900E94641762E2CE010E94A01760EFCE0170
S11345A00E94641763E0CE010E94A0176AE070E0E5
S11345B080E090E00E94A6360FED11E02FE133E099
S11345C023CE44E050E261E1CE010E94B81740E0FE
S11345D05CEC63E1CE010E94B81740E056E265E16D
S11345E0CE010E94B8174AE255E264E1CE010E946E
S11345F0B81743E350E062E1CE010E94B81744E0EB
S11346005CEC63E1CE010E94B81746E05CEC63E128
S1134610CE010E94B8174FE45CEC63E1CE010E9426
S1134620B8174FE457E663E1CE010E94B81743E0A0
S113463050E261E1CE010E94B81749E056E260E31E
S1134640CE010E94B8174CE254E261E3CE010E940D
S1134650B81743E25FE162E3CE010E94B81745E276
S113466054E263E3CE010E94B81746E252E264E3E7
S1134670CE010E94B81743E255E265E3CE010E94E1
S1134680B8174AE15CE166E3CE010E94B8174DE138
S113469053E167E3CE010E94B81741E15BE068E3B0
S11346A0CE010E94B81740E152E169E3CE010E94B5
S11346B0B81745E153E16AE3CE010E94B81749E116
S11346C056E36BE3CE010E94B81740E05DE06CE373
S11346D0CE010E94B8174DE050E06DE3CE010E9478
S11346E0B81747E050E066E1CE010E94B81743E1F5
S11346F050E062E0CE010E94B81743E050E063E06E
S1134700CE010E94B81747E251E061E0CE010E9459
S1134710B81743E053E068E0CE010E94B8174BE0BD
S113472050E06AE0CE010E94B81743E050E06BE02D
S1134730CE010E94B81740E050E06CE0CE010E9428
S1134740B81740E050E061E4CE010E94B81740E0A1
S113475050E060E5CE010E94B81745E050E060E605
S1134760CE010E94B8174BE050E060E7CE010E94F2
S1134770B81740E050E061E7CE010E94B81740E06E
S113478050E068E7CE010E94B81740E050E06AE7C5
S1134790CE010E94B81747E050E069E7CE010E94BD
S11347A0B81741E550E067E0CE010E94B81743E531
S11347B050E067E0CE010E94B81740E050E069E79E
S11347C092C161E1CE010E94641764E170E080E06F
S11347D090E00E94A63660EDCE010E94641767E067
S11347E0CE010E94A01762E4CE010E94A01768E1E6
S11347F0CE010E94A01761EDCE010E94641760E013
S1134800CE010E94A01767E0CE010E94A01760E1CC
S1134810CE010E94A01762EDCE010E94641761E0F0
S1134820CE010E94A01762E0CE010E94A01760ECA6
S1134830CE010E94641760E1CE010E94A0176BE3D1
S1134840CE010E94A01760E0CE010E94A01762E092
S1134850CE010E94A01761E1CE010E94A01765EC71
S1134860CE010E94641763E0CE010E94A01768EC99
S1134870CE010E94641760E0CE010E94A01762E39B
S1134880CE010E94A01766E3CE010E94A01765E442
S1134890CE010E94A01766E0CE010E94A01766E137
S11348A0CE010E94A01767E3CE010E94A01765E71E
S11348B0CE010E94A01767E7CE010E94A01764E50D
S11348C0CE010E94A0176CE0CE010E94A01760E008
S11348D0CE010E94A01766E3CE010E9464176AE02D
S11348E0CE010E94A0176AE3CE010E94641765E519
S11348F0CE010E94A0176AE2CE010E94641760E014
S1134900CE010E94A01760E0CE010E94A01761E0D2
S1134910CE010E94A0176FE3CE010E94A0176BE2A4
S1134920CE010E94641760E0CE010E94A01760E0EF
S1134930CE010E94A01761E0CE010E94A01760EE94
S1134940CE010E94A01768E770E080E090E00E942A
S1134950A636F8C14AE150E061E1CE010E94B817E1
S113496041E251E362E1CE010E94B8174CE650E007
S113497063E1CE010E94B81749E452E464E1CE0138
S11349800E94B81740E058E060E1CE010E94B817D9
S11349906AE070E080E090E00E94A6364AE151E0CF
S11349A061E1CE010E94B8176AE070E080E090E017
S11349B00E94A6364AE153E061E1CE010E94B81795
S11349C06AE070E080E090E00E94A6364AE157E099
S11349D061E1CE010E94B8176AE070E080E090E0E7
S11349E00E94A6364AE15FE061E1CE010E94B81759
S11349F06AE070E080E090E00E94A6364AE35FE05F
S1134A0061E1CE010E94B8176EE170E080E090E0B1
S1134A100E94A6364CE151E061E0CE010E94B81735
S1134A2040E051E062E0CE010E94B81740E350E15B
S1134A3063E0CE010E94B81740E050E067E0CE0189
S1134A400E94B81748E058E068E0CE010E94B81709
S1134A5040E051E16BE0CE010E94B81740E050E025
S1134A606CE0CE010E94B81741E054E16FE0CE0142
S1134A700E94B81740E050E065E1CE010E94B817EB
S1134A8040E050E060E2CE010E94B81740E050E000
S1134A9061E2CE010E94B8174FEA50E066E3CE010E
S1134AA00E94B81740E050E067E3CE010E94B817B7
S1134AB04BED50E068E3CE010E94B81740E050E0AF
S1134AC069E3CE010E94B81741E05BE06FE0CE01DC
S1134AD00E94B81746E150E067E0CE010E94B81783
S1134AE047E150E067E0CE010E94B8170C94011D25
S1134AF061E1CE010E94641768E770E080E090E015
S1134B000E94A63661EBCE010E94641765E0CE01D7
S1134B100E94A0176CE3CE010E94A0176CE3CE01A3
S1134B200E94A01762EBCE010E94641765E0CE01DB
S1134B300E94A0176CE3CE010E94A0176CE3CE0183
S1134B400E94A01763EBCE010E94641765E0CE01BA
S1134B500E94A0176CE3CE010E94A0176CE3CE0163
S1134B600E94A01765E0CE010E94A0176CE3CE015D
S1134B700E94A0176CE3CE010E94A01764EBCE0143
S1134B800E94641763E0CE010E94A01760ECCE017E
S1134B900E94641768E2CE010E94A01768E0CE016B
S1134BA00E94A01764E0CE010E94A01761ECCE0120
S1134BB00E94641760ECCE010E94A01762ECCE0143
S1134BC00E9464176DE0CE010E94A01760E0CE0140
S1134BD00E94A01763ECCE010E9464176DE8CE0119
S1134BE00E94A0176AE2CE010E94A01764ECCE01D5
S1134BF00E9464176DE8CE010E94A0176EEECE01EC
S1134C000E94A01765ECCE010E9464176AE1CE01F0
S1134C100E94A01766E3CE010E94641760ECCE01E7
S1134C200E94A01760EECE010E94641763E0CE01DB
S1134C300E94A01762E2CE010E94A01767E0CE0195
S1134C400E94A0176AE0CE010E94A0176EE2CE0176
S1134C500E94A01760E3CE010E94A01765E2CE0176
S1134C600E94A0176AE2CE010E94A01768E2CE015A
S1134C700E94A01766E2CE010E94A0176EE2CE0148
S1134C800E94A0176AE3CE010E94A01760E0CE0143
S1134C900E94A01761E0CE010E94A01763E0CE013C
S1134CA00E94A01763E1CE010E94A01761EECE011D
S1134CB00E94641764E0CE010E94A01766E1CE0151
S1134CC00E94A01766E0CE010E94A0176DE0CE01FD
S1134CD00E94A0176DE2CE010E94A01766E2CE01E9
S1134CE00E94A01763E2CE010E94A01767E2CE01E2
S1134CF00E94A01767E2CE010E94A01765E2CE01D0
S1134D000E94A0176DE2CE010E94A0176BE3CE01B2
S1134D100E94A01760E0CE010E94A01761E0CE01BE
S1134D200E94A01764E0CE010E94A01763E1CE01A7
S1134D300E94A0176AE3CE010E94641765E0CE01C9
S1134D400E94A01769E20C94021D61E1CE010E9449
S1134D50641764E170E080E090E00E94A63668E2A7
S1134D60CE010E94641765E070E080E090E00E944C
S1134D70A6366FECCE010E94641760E0CE010E945B
S1134D80A01763E8CE010E94A01760E3CE010E9441
S1134D90A0176DEECE010E94641764E6CE010E9456
S1134DA0A01763E0CE010E94A01762E1CE010E9429
S1134DB0A01761E8CE010E94A01768EECE010E9400
S1134DC0641765E8CE010E94A01761E0CE010E943D
S1134DD0A01769E7CE010E94A0176BECCE010E94D8
S1134DE0641769E3CE010E94A0176CE2CE010E9411
S1134DF0A01760E0CE010E94A01764E3CE010E94D8
S1134E00A01762E0CE010E94A01767EFCE010E94B6
S1134E10641760E2CE010E94A0176AEECE010E94E0
S1134E20641760E0CE010E94A01760E0CE010E94EA
S1134E30A01760ECCE010E94641766E2CE010E94C6
S1134E40A01761ECCE010E94641761E1CE010E94BB
S1134E50A01765ECCE010E94641765E3CE010E94A1
S1134E60A0176EE3CE010E94A01767ECCE010E944A
S1134E7064176EEBCE010E94A01761EBCE010E9475
S1134E80641760E0CE010E94A0176BE1CE010E947E
S1134E90A01766EBCE010E9464176AE0CE010E945F
S1134EA0A01762E8CE010E94A01767E2CE010E941B
S1134EB0A01760E0CE010E94A01767EBCE010E940C
S1134EC0641767E0CE010E94A0176AE3CE010E9436
S1134ED0641765E5CE010E94A01766E3CE010E9427
S1134EE0641768E4CE010E94A01769E2CE010E9413
S1134EF0641765E070E080E090E05BC46BECCE0189
S1134F000E94641769E3CE010E94A0176CE2CE01EF
S1134F100E94A01760E0CE010E94A01764E3CE01B6
S1134F200E94A01762E0CE010E94A0176FECCE0190
S1134F300E94641760E0CE010E94A01761ECCE01CC
S1134F400E94A01760E3CE010E94A01768EECE0174
S1134F500E94641765E8CE010E94A01760E0CE01AC
S1134F600E94A01768E7CE010E94A0176AEECE0146
S1134F700E94641760E0CE010E94A01760E0CE0199
S1134F800E94A0176DEECE010E94641764E6CE0164
S1134F900E94A01763E0CE010E94A01762E1CE0137
S1134FA00E94A01761E8CE010E94A01767EFCE010E
S1134FB00E94641760E2CE010E94A01760ECCE014B
S1134FC00E94641763E2CE010E94A01761ECCE0137
S1134FD00E94641760E1CE010E94A01765ECCE0127
S1134FE00E9464176EE3CE010E94A01768E2CE010E
S1134FF00E94A01767ECCE010E94641766E8CE01F8
S11350000E94A01766E3CE010E94641768E4CE01F3
S11350100E94A0176AE3CE010E94641765E5CE01E1
S11350200E94A01761EBCE010E94641760E0CE01DC
S11350300E94A01768E1CE010E94A01766EBCE0182
S11350400E94641768E0CE010E94A01762E8CE01B6
S11350500E94A01767E2CE010E94A01761E1CE0171
S11350600E94641768E770E080E090E09DC260EB06
S1135070CE010E9464176EE1CE010E94A01760EB7E
S1135080CE010E94641760E0CE010E94A01763EB7A
S1135090CE010E94641762E0CE010E94A01760E076
S11350A0CE010E94A01760E0CE010E94A01760E12B
S11350B0CE010E94A01764EBCE010E94641760E049
S11350C0CE010E94A01760ECCE010E94641763E039
S11350D0CE010E94A0176BE3CE010E94A01760E0EE
S11350E0CE010E94A01760E0CE010E94A01760E0EC
S11350F0CE010E94A01761E0CE010E94A01760E0DB
S1135100CE010E94A01763E4CE010E94A01761ECB7
S1135110CE010E94641768E0CE010E94A01765E1E9
S1135120CE010E94A01768E0CE010E94A01768E09B
S1135130CE010E94A01764ECCE010E94641765E1C1
S1135140CE010E94A01763E0CE010E94A01763E085
S1135150CE010E94A01761E0CE010E94A01766EC68
S1135160CE010E94641762E0CE010E94A01768EC91
S1135170CE010E9464176CE0CE010E94A01765E086
S1135180CE010E94A0176AE0CE010E94A0176BE630
S1135190CE010E94A01764E0CE010E94A01766E031
S11351A0CE010E94A01765E1CE010E94A01760E124
S11351B0CE010E94A01760E0CE010E94A01760E615
S11351C0CE010E94A01766E3CE010E9464176AE034
S11351D0CE010E94A0176CE0CE010E94641765E521
S11351E0CE010E94A0176AE3CE010E94641765E510
S11351F0CE010E94A01768E3CE010E94641760EDFF
S1135200CE010E94641767E0CE010E94A01767E0F8
S1135210CE010E94A01764E1CE010E94A01762EAA9
S1135220CE010E94A01761EDCE010E94641763E0D5
S1135230CE010E94A0176AE5CE010E94A01760E18A
S1135240CE010E94A01762EDCE010E94641763E0B4
S1135250CE010E94A01764E0CE010E94A01764E072
S1135260CE010E94A01761E1CE010E94641766E995
S113527070E080E090E00E94A6366AE2CE010E94CF
S1135280641760E0CE010E94A01760E0CE010E9486
S1135290A01761E0CE010E94A0176FEDCE010E941D
S11352A0A0176BE2CE010E94641760E0CE010E9459
S11352B0A01760E0CE010E94A01761E0CE010E9419
S11352C0A0176FE3CE010E94A01764E670E080E0AF
S11352D090E00E94A63669E2CE010E9464176EE156
S11352E070E080E090E00E94A6366CE2CE010E945D
S11352F064176EE170E080E090E05BC261E1CE0192
S11353000E94641762E370E080E090E00E94A63699
S113531062EFCE010E9464176CE1CE010E94A017D7
S113532063EACE010E94A01762E3CE010E94A01797
S113533062E0CE010E94A01762EBCE010E94A0178A
S113534062E1CE010E94A0176FEFCE010E94A01768
S113535062E1CE010E94A01760E0CE010E94A01776
S113536061EFCE010E94641766E3CE010E94A0178C
S113537064EACE010E94A01768EFCE010E94641770
S113538061E2CE010E94A01764E0CE010E94A01742
S113539069EFCE010E94641760E0CE010E94A0175D
S11353A068E0CE010E94A01760ECCE010E94641751
S11353B06DE0CE010E94A0176DE0CE010E94A017FF
S11353C061ECCE010E94641763E4CE010E94A01731
S11353D060E0CE010E94A01762ECCE010E94641727
S11353E060E0CE010E94A01765ECCE010E94641714
S11353F060E0CE010E94A01768E4CE010E94A017CD
S113540066EBCE010E94641760E0CE010E94A017F3
S113541062E2CE010E94A0176BE3CE010E94A017A6
S113542060EECE010E9464176FE0CE010E94A017C7
S113543064E2CE010E94A0176CE1CE010E94A01785
S11354406AE0CE010E94A0176FE0CE010E94A0176F
S113545068E0CE010E94A01763E4CE010E94A01769
S113546068E8CE010E94A01762E3CE010E94A01753
S11354706FE0CE010E94A01760E1CE010E94A01748
S113548066E0CE010E94A0176FE0CE010E94A01733
S113549067E0CE010E94A01760E0CE010E94A01731
S11354A061EECE010E9464176FE0CE010E94A01746
S11354B068E3CE010E94A01760E3CE010E94A0170A
S11354C069E0CE010E94A0176FE0CE010E94A017F0
S11354D06FE0CE010E94A0176EE4CE010E94A017D7
S11354E067E7CE010E94A0176CE3CE010E94A017CB
S11354F067E0CE010E94A01760E1CE010E94A017D0
S113550065E0CE010E94A01763E2CE010E94A017BD
S11355106BE1CE010E94A01760E0CE010E94A017AB
S113552060E2CE010E94641760E0CE010E94A017E1
S113553066E3CE010E9464176AE0CE010E94A017C0
S11355406AE3CE010E94641765E5CE010E94A017AC
S11355506AE2CE010E94641760E0CE010E94A017A7
S113556060E0CE010E94A01761E0CE010E94A01766
S11355706FEDCE010E94A0176BE2CE010E9464176A
S113558060E0CE010E94A01760E0CE010E94A01747
S113559061E0CE010E94A0176FE3CE010E94A01724
S11355A062E370E080E090E00E94A63669E2CE01FA
S11355B00E9464176CE20C94021D8C81813011F4FA
S11355C01C8202C081E08C836FE0CE010E946417CC
S11355D040E150E061E0CE010E94B8176FE00C9406
S11355E0021D69EBCE010E9464176FEFCE010E9489
S11355F0A01763E8CE010E94A01763E5CE010E94C4
S1135600A01760EBCE010E9464176CE3CE010E94E8
S1135610A01761E0CE010E94A01766EBCE010E94A4
S1135620641764E9CE010E94A0176CE6CE010E94C3
S1135630A01760E5CE010E94A01761EBCE010E9485
S1135640641760E0CE010E94A01761E0CE010E94C1
S1135650A0176BE1CE010E94A01763E0CE010E9467
S1135660A01761E0CE010E94A01768E0CE010E945D
S1135670A01767E7CE010E94A01769E8CE010E9437
S1135680A01760EECE010E94641760E5CE010E946F
S1135690A01767E7CE010E94A01760E4CE010E9424
S11356A0A01768E0CE010E94A0176FEBCE010E9404
S11356B0A01760E0CE010E94A01763E0CE010E9413
S11356C0A0176FE0CE010E94A01760E0CE010E94F7
S11356D0A01761E0CE010E94A01763E7CE010E94EB
S11356E0A01760E0CE010E94A01762E7CE010E94DD
S11356F0A01763E0CE010E94A01760EBCE010E94C8
S1135700A0176FE0CE010E94A01768E0CE010E94AE
S1135710A01760E0CE010E94A0176FE0CE010E94A6
S1135720A0176AE3CE010E94641765E0CE010E94CF
S1135730A01766E3CE010E94641760ECCE010E94BC
S1135740A01761E1CE010E94641766E970E080E071
S113575090E00E94A63669E2CE010E94641766E9D1
S113576070E080E090E00E94A6366DE2CE010E94D7
S1135770641710E0612FCE010E94A0171E5F103441
S1135780C9F710E0612FCE010E94A0171F5F1034EB
S1135790C9F710E0612FCE010E94A0171E5F1034DC
S11357A0C9F76CE2CE010E94641766E970E080E0FC
S11357B090E00E94A636EC89FD89908188A1892B0E
S11357C080838FEF888389831A821B8218AA1BA681
S11357D01AA6DF91CF911F910F9108950F931F93F4
S11357E0FC0164812185328545815681611103C0A4
S11357F089019A0101C08A0140E050E060E070E054
S11358000E94C7171F910F910895CF92DF92EF92D4
S1135810FF920F931F93CF93DF93EC01EC89FD89E3
S1135820908188A1809589238083CE01D7DF8E85DE
S1135830813031F0E889F98990818E8D892B8083BC
S1135840EE854D815E816F81788589859A85AB85EA
S1135850BC85E031C1F49A01AB012F5F3F4F4F4F3C
S11358605F4FBC01CD016F5F7F4F8F4F9F4F0E94F1
S1135870E1398B019C0140E050E060E070E0CE0132
S11358800E947C124FC0E83021F0C12CD12C76014B
S113589023C09A01AB012F5F3F4F4F4F5F4FBC01B5
S11358A0CD016F5F7F4F8F4F9F4F0E94E1399B0166
S11358B0AC0160E070E0CE010E94AE1333C02E85CF
S11358C0213031F140E060E0CE010E94D5108FEF2D
S11358D0C81AD80AE80AF80A8D819E81AF81B88572
S11358E09C01AD012F5F3F4F4F4F5F4F89859A85D4
S11358F0AB85BC85BC01CD016F5F7F4F8F4F9F4F40
S11359000E94E139C616D706E806F906C4F20AC0B1
S113591021E040E061E0CE010E94D5102E8540E0F8
S113592061E0D2CFEC89FD89908188A1892B8083A5
S1135930DF91CF911F910F91FF90EF90DF90CF9067
S11359400895FC01708361830895FC014F3F8FEF3C
S113595058076807780719F481E080AB08955283EB
S1135960438310AA0895462F672F0C947C17EF9257
S1135970FF920F931F93CF93DF93EC01790137FFCD
S113598005C0620F731FF194E194F108EC89FD895D
S1135990908188A18095892380839B012E0D3F1DD2
S11359A08A01CE010E94C7178E85803191F4E8895F
S11359B0F98990818E8D892B80838701FF0C220BBE
S11359C0330B498150E0688170E0CE010E947C1263
S11359D022C08830A1F498818981981310C0E88985
S11359E0F98990818E8D892B80839701FF0C440B5C
S11359F0550B688170E0CE010E94AE130CC000E02C
S1135A0010E049816881CE010E947C170F5F1F4F0F
S1135A10E016F106B4F7EC89FD89908188A1892B01
S1135A208083CE01DF91CF911F910F91FF90EF9072
S1135A30D5CEEF92FF920F931F93CF93DF93EC0198
S1135A40790137FF05C0420F531FF194E194F10827
S1135A50EC89FD89908188A18095892380838A01BE
S1135A600E0D1F1D9B01CE010E94C7178E8580312C
S1135A7091F4E889F98990818E8D892B808387013F
S1135A80FF0C220B330B498150E0688170E0CE019A
S1135A900E947C1222C08830A1F4988189819813D5
S1135AA010C0E889F98990818E8D892B80839701B4
S1135AB0FF0C440B550B688170E0CE010E94AE13BD
S1135AC00CC000E010E049816881CE010E947C177F
S1135AD00F5F1F4FE016F106B4F7EC89FD89908142
S1135AE088A1892B8083CE01DF91CF911F910F91E3
S1135AF0FF90EF9073CE6F927F928F929F92AF92AE
S1135B00BF92CF92DF92EF92FF920F931F93CF93A6
S1135B10DF93EC014B015A0169017801261737071D
S1135B2024F4892D4901C62ED82EEA14FB042CF442
S1135B309A2D8B2D5701E92EF82E8E858031D9F5BB
S1135B40EC89FD89908188A18095892380838701D0
S1135B509601A501B401CE010E94C717E889F9890D
S1135B6090818E8D892B8083960128193909C9016A
S1135B70330FAA0BBB0B9C01AD012F5F3F4F4F4F5F
S1135B805F4FB7016A197B09CB01770FAA0BBB0BD7
S1135B90BC01CD016F5F7F4F8F4F9F4F0E94E13952
S1135BA08B019C01498150E08881682F70E0CE010F
S1135BB00E947C123FC0883009F043C098818981DB
S1135BC098133FC0EC89FD89908188A18095892331
S1135BD0808387019601A501B401CE010E94C717F5
S1135BE0E889F98990818E8D892B80839601281903
S1135BF03909C901330FAA0BBB0B9C01AD012F5FFF
S1135C003F4F4F4F5F4FB7016A197B09CB01770FA5
S1135C10AA0BBB0BBC01CD016F5F7F4F8F4F9F4F12
S1135C200E94E1399B01AC018881682F70E0CE01AC
S1135C300E94AE13EC89FD89908188A1892B808311
S1135C4047C08C81811122C037016A187B0877FE16
S1135C5003C08FEF681A780A7594679400E010E027
S1135C60C818D908601671069CF1A501400F511F90
S1135C709601B401CE017BDEA701401B510B9601B6
S1135C80B401CE0174DE0F5F1F4FECCF36016818EC
S1135C90790877FE03C08FEF681A780A75946794C1
S1135CA000E010E0EA18FB08601671068CF0B401FD
S1135CB0600F711F9701A501CE01BBDEB601601B09
S1135CC0710B9701A501CE01B4DE0F5F1F4FECCF1E
S1135CD0DF91CF911F910F91FF90EF90DF90CF90C4
