S01C00004F7363696C6C61746F72436F6E74726F6C6C65722E73726563C8
S11300000C948C090C943A320C9465320C94903212
S11300100C94BB320C94E6320C9411330C943C33A4
S11300200C9467330C94BD090C94BD090C94BD0960
S11300300C94BD090C94BD090C94BD090C94BD0924
S11300400C94BD090C94BD090C94BD090C94BD0914
S11300500C94BD090C94BD090C94BD090C94923305
S11300600C94BD090C94AB2F0C94E12F0C94BD0996
S11300700C94BD090C94BD090C94BD090C94BD09E4
S11300800C94BD090C94BD090C94BD090C94BD09D4
S11300900C94BD090C94BD090C94BD090C94BD09C4
S11300A00C94BD090C94BD090C94BD090C94BD09B4
S11300B00C94BD090C94BD090C94BD090C94BD09A4
S11300C00C94BD090C94BD090C94BD090C94BD0994
S11300D00C94BD090C94BD090C94BD090C94BD0984
S11300E00C94BD09DC17C518F717F7171018C518B5
S11300F0BD179A183418C518421842185F185F18AB
S1130100DC179A18C518DC1742189A18F7176E18D6
S11301109A189A189A189A189A1887189A189A185E
S11301203519A32B021A021A941BA32B9A1ECE1C58
S1130130471EA32BF41FFD20A922A9223519462707
S1130140A32B3519D021A923801A722440254627D0
S11301506D26FF274629A52AB92A421D1432DE310D
S1130160E631F231FF3120322D32C134C434B3349C
S1130170B734BD34FB34C834CC34D234D634DA3456
S1130180E034E434E834FB34EE34F234F634101062
S1130190205F0000000000000000000000000000DC
S11301A0000000000000000000000000000000004B
S11301B000000000000007000F800F800F800F80F8
S11301C00F80070007000000000007000700070079
S11301D0000000000E380E380E380E3806300000CD
S11301E0000000000000000000000000000000000B
S11301F0000000000C300C300C307FFE7FFE0C3011
S11302000C300C300C307FFE7FFE0C300C300C3088
S113021000000000024002400FF81FF81A401A4084
S11302201FF00FF8025802581FF81FF00240024056
S113023000000000000000000E100E300E7000E000
S113024001C0038007000E700C70087000000000ED
S11302500000000000000F001980198019800F00B1
S11302600F080F9819F818F018E019F00F9800000B
S11302700000000000000700070007000E00000057
S1130280000000000000000000000000000000006A
S113029000000000000000F001C0038007000E0011
S11302A00E000E000E000700038001C000F00000E5
S11302B00000000000000F00038001C000E0007097
S11302C000700070007000E001C003800F000000A7
S11302D000000000000001801188099007E007E099
S11302E03FFC3FFC07E007E0099011880180000013
S11302F00000000000000000000001800180018077
S11303000FF00FF001800180018000000000000068
S113031000000000000000000000000000000000D9
S113032000000000000000000700070007000E00A6
S113033000000000000000000000000000000000B9
S11303401FF81FF80000000000000000000000007B
S11303500000000000000000000000000000000099
S11303600000000000000000070007000700000074
S113037000000000000000020006000E001C00380F
S1130380007000E001C0038007000E001C000000A4
S11303900000000000000FF01C381C781CF81CF84A
S11303A01DB81DB81F381F381E381C380FF0000048
S11303B00000000000000180018003801F801F8076
S11303C00380038003800380038003801FF0000008
S11303D00000000000000FE01C701C3800380070A2
S11303E000E001C0038007000E381C381FF800002D
S11303F00000000000000FE01C701C380038007082
S113040003C003C0007000381C381C700FE00000EB
S113041000000000000000E001E003E006E00CE062
S113042018E01FF81FF800E000E000E003F8000007
S11304300000000000001FF81C001C001C001C0031
S11304401FE01FF0007800381C381C700FE000001B
S113045000000000000003E007000E001C001C0068
S11304601FF01FF81C381C381C381C380FF0000013
S11304700000000000001FFC1C1C1C1C1C1C001C99
S11304800038007000E001C0038003800380000096
S11304900000000000000FF01C381C381C381F3806
S11304A007E007E01CF81C381C381C380FF000006B
S11304B00000000000000FF01C381C381C381C38E9
S11304C01FF80FF800380038007000E007C0000083
S11304D0000000000000000000000380038003808F
S11304E0000000000380038003800000000000007F
S11304F0000000000000000000000380038003806F
S11305000000000003800380038007000000000057
S113051000000000007000E001C0038007000E002E
S11305201C001C000E000700038001C000E00070E6
S11305300000000000000000000000003FFC3FFC41
S1130540000000003FFC3FFC000000000000000031
S1130550000000001C000E000700038001C000E042
S11305600070007000E001C0038007000E001C0052
S11305700000000003C00FF01E7818380038007027
S113058000E001C001C00000000001C001C001C0C2
S1130590000000000FF81C1C1C1C1C1C1C1C1CFC58
S11305A01CFC1CFC1CFC1C001C001C001FF007F89D
S11305B000000000000003C007E00E701C381C3867
S11305C01C381C381FF81C381C381C381C38000018
S11305D00000000000001FF00E380E380E380E38F0
S11305E00FF00FF00E380E380E380E381FF00000E2
S11305F000000000000007F00E381C381C001C002E
S11306001C001C001C001C001C380E3807F00000E5
S11306100000000000001FE00E700E380E380E3887
S11306200E380E380E380E380E380E701FE00000EB
S11306300000000000001FF80E180E080E000E3017
S11306400FF00FF00E300E000E080E181FF8000009
S11306500000000000001FF80E180E080E000E30F7
S11306600FF00FF00E300E000E000E001F00000001
S113067000000000000007F00E381C381C381C0075
S11306801C001C001CF81C381C380E3807F800002D
S11306900000000000001C701C701C701C701C709A
S11306A01FF01FF01C701C701C701C701C7000006C
S11306B00000000000000FE003800380038003803B
S11306C00380038003800380038003800FE0000025
S11306D000000000000001FC007000700070007059
S11306E00070007038703870387038700FE0000097
S11306F00000000000001E380E380E700EE00FC01F
S11307000F800F800FC00EE00E700E381E380000F0
S11307100000000000001F000E000E000E000E007E
S11307200E000E000E000E080E180E381FF8000002
S11307300000000000001C1C1E3C1F7C1FFC1FFC52
S11307401DDC1C9C1C1C1C1C1C1C1C1C1C1C0000DC
S11307500000000000001C1C1C1C1E1C1F1C1F9CF5
S11307601DDC1CFC1C7C1C3C1C1C1C1C1C1C0000DC
S113077000000000000003E007F00E381C1C1C1CE5
S11307801C1C1C1C1C1C1C1C0E3807F003E0000065
S11307900000000000001FF00E380E380E380E382E
S11307A00FF00FF00E000E000E000E001F000000F0
S11307B000000000000003E00F780E381C1C1C1C15
S11307C01C1C1C1C1C7C1CFC0FF80FF8003800FCC3
S11307D00000000000001FF00E380E380E380E38EE
S11307E00FF00FF00E700E380E380E381E38000061
S11307F00000000000000FF01C381C381C381C00DE
S11308000FE007F000381C381C381C380FF00000CB
S11308100000000000001FFC19CC11C401C001C07D
S113082001C001C001C001C001C001C007F0000047
S11308300000000000001C701C701C701C701C70F8
S11308401C701C701C701C701C701C700FE000006D
S11308500000000000001C701C701C701C701C70D8
S11308601C701C701C701C700EE007C0038000001C
S11308700000000000001C1C1C1C1C1C1C1C1C1C5C
S11308801C9C1C9C1C9C0FF80FF807700770000040
S11308900000000000001C701C701C700EE007C0FB
S11308A00380038007C00EE01C701C701C700000E5
S11308B00000000000001C701C701C701C701C7078
S11308C00EE007C003800380038003800FE0000074
S11308D00000000000001FF81C381838107000E0F9
S11308E001C0038007000E081C181C381FF8000004
S11308F000000000000007F00700070007000700E1
S113090007000700070007000700070007F00000C2
S1130910000000000000100018001C000E0007007A
S1130920038001C000E000700038001C00070000D4
S113093000000000000007F00070007000700070FC
S113094000700070007000700070007007F000000C
S113095000000000018003C007E00E701C38000096
S11309600000000000000000000000000000000083
S11309700000000000000000000000000000000073
S113098000000000000000000000000000007FFFE5
S11309907FFF000000001C001C000700070000008F
S11309A00000000000000000000000000000000043
S11309B000000000000000000000000000000FE044
S11309C0007000700FF01C701C701C700FD80000B9
S11309D00000000000001E000E000E000E000FF0CC
S11309E00E380E380E380E380E380E381BF0000054
S11309F000000000000000000000000000000FE004
S1130A001C701C701C001C001C701C700FE000008B
S1130A1000000000000000F80070007000700FF08B
S1130A201C701C701C701C701C701C700FD8000093
S1130A3000000000000000000000000000000FE0C3
S1130A401C701C701FF01C001C701C700FE0000058
S1130A5000000000000003E00770077007000700B3
S1130A601FE01FE007000700070007001FC0000089
S1130A7000000000000000000000000000000FD88B
S1130A801C701C701C701C700FF007F000701C7040
S1130A900FE0000000001E000E000E000E000EF01D
S1130AA00F380F380E380E380E380E381E38000046
S1130AB000000000000001C001C001C000000FC020
S1130AC001C001C001C001C001C001C00FF8000095
S1130AD0000000000000007000700070000003F0CF
S1130AE00070007000700070007000701C700CF0DA
S1130AF007E0000000001E000E000E000E000E387D
S1130B000E700EE00FC00EE00E700E381E3800009E
S1130B100000000000000FC001C001C001C001C0FE
S1130B2001C001C001C001C001C001C00FF8000034
S1130B3000000000000000000000000000001FF89A
S1130B401C9C1C9C1C9C1C9C1C9C1C9C1C9C000099
S1130B5000000000000000000000000000001FE092
S1130B601C701C701C701C701C701C701C700000AD
S1130B7000000000000000000000000000000FE082
S1130B801C701C701C701C701C701C700FE000002A
S1130B9000000000000000000000000000001BF046
S1130BA00E380E380E380E380E380FF00E000E00C8
S1130BB01F000000000000000000000000001FB043
S1130BC038E038E038E038E038E01FE000E000E0EA
S1130BD001F00000000000000000000000001EF012
S1130BE00FF80F380E000E000E000E001F0000005C
S1130BF000000000000000000000000000000FE002
S1130C001C301C300F8003E0187018700FE00000D7
S1130C1000000000000000000100030007001FF0B6
S1130C2007000700070007000770077003E00000D3
S1130C3000000000000000000000000000001C7024
S1130C401C701C701C701C701C701C700FD8000071
S1130C5000000000000000000000000000001C7004
S1130C601C701C701C701C700EE007C00380000018
S1130C7000000000000000000000000000001C1C38
S1130C801C1C1C1C1C9C1C9C0FF80770077000008B
S1130C9000000000000000000000000000001CE054
S1130CA01CE00FC0078007800FC01CE01CE00000A0
S1130CB000000000000000000000000000000E38EA
S1130CC00E380E380E380E3807F003E000E001C08D
S1130CD01F800000000000000000000000001FE072
S1130CE018E011C0038007000E201C601FE0000004
S1130CF000000000000001F8038003800380070067
S1130D001C001C00070003800380038001F800001E
S1130D100000000001C001C001C001C001C001C049
S1130D2001C001C001C001C001C001C001C001C0B7
S1130D300000000000001F8001C001C001C000E0ED
S1130D400038003800E001C001C001C01F8000006D
S1130D500000000000001F1C3B9C39DC38F8000038
S1130D60000000000000000000000000000000007F
S1130D700000080C205F00000000000000000000DC
S1130D800000000020202020202000200000002857
S1130D905050000000000000000000002828FC283B
S1130DA050FC50500000002078A8A0603028A8F023
S1130DB02000000048A8B050283454480000000027
S1130DC020505078A8A8906C00000040408000009B
S1130DD0000000000000000408101010101010089B
S1130DE004000040201010101010102040000000DB
S1130DF00020A87070A8200000000000202020F827
S1130E00202020000000000000000000000000403E
S1130E1040800000000000F8000000000000000016
S1130E200000000000000040000000081010102026
S1130E30204040408000000070888888888888703E
S1130E40000000002060202020202070000000000E
S1130E5070888810204080F80000000070880830F6
S1130E600808887000000000103050509078101866
S1130E7000000000F88080F008088870000000007E
S1130E80709080F08888887000000000F89010202E
S1130E9020202020000000007088887088888870D6
S1130EA000000000708888887808487000000000FE
S1130EB000002000000000200000000000000020CE
S1130EC00000002020000004081020402010080426
S1130ED0000000000000F80000F8000000000040DE
S1130EE020100804081020400000000070888810BA
S1130EF02020002000000000708898A8A8B88078FE
S1130F000000000020203050507848CC0000000041
S1130F10F0484870484848F0000000007888808015
S1130F208080887000000000F0484848484848F035
S1130F3000000000F8485070504048F800000000DD
S1130F40F8485070504040E000000000384880806D
S1130F509C88483000000000CC484878484848CC79
S1130F6000000000F8202020202020F800000000CD
S1130F707C10101010101090E0000000EC4850603D
S1130F80505048EC00000000E0404040404044FC29
S1130F9000000000D8D8D8D8A8A8A8A8000000004D
S1130FA0DC486868585848E8000000007088888861
S1130FB08888887000000000F0484870404040E095
S1130FC0000000007088888888E898701800000085
S1130FD0F0484870504848EC000000007888806071
S1130FE0100888F000000000F8A8202020202070BD
S1130FF000000000CC484848484848300000000041
S1131000CC4848505030202000000000A8A8A87008
S11310105050505000000000D8505020205050D85C
S113102000000000D8505020202020700000000054
S1131030F8901020204048F800000038202020209C
S113104020202020380000404040202010101008AC
S1131050000000701010101010101010700000200C
S1131060500000000000000000000000000000002C
S11310700000000000FC0020000000000000000050
S113108000000000000000304838483C0000000028
S1131090C04040704848487000000000000000381C
S11310A04840403800000000180808384848483CC8
S11310B000000000000000304878403800000000C4
S11310C01C20207820202078000000000000003C34
S11310D04830407844380000C0404070484848ECEC
S11310E000000000200000602020207000000000AC
S11310F0100000301010101010E00000C040405CE0
S1131100507048EC00000000E0202020202020F84F
S113111000000000000000F0A8A8A8A8000000003B
S1131120000000F0484848EC0000000000000030D7
S11311304848483000000000000000F0484848706B
S113114040E000000000003848484838081C00000F
S1131150000000D8604040E000000000000000787B
S11311604030087800000000002020702020201863
S113117000000000000000D84848483C000000007F
S1131180000000EC4850302000000000000000A8DF
S1131190A870505000000000000000D8502050D823
S11311A000000000000000EC4850302020C0000087
S11311B00000007810202078000000181010102083
S11311C01010101018001010101010101010101023
S11311D0101000602020201020202020600040A457
S11311E01800000000000000000000000A0B0209C3
S11311F00C0D0E08070304010000000000000000AD
S113120000000000000000000000000000000000DA
S11312100000000000001211100000000000000097
S113122000000000000000000000000000000000BA
S113123001021020200808102040102040800201E4
S113124002010804020101020408102040808040C9
S113125020100804020180040201804020100804C8
S11312600201080402010102040810204080010266
S1131270040810204080050505050705080808082E
S1131280020202020A0A080804040404010101011A
S11312900101010103030303030303030407070715
S11312A00C0C0C0C0C0C0C0C0202020206060606BA
S11312B0060606060B0B0B0B0B0B0B0B000020009A
S11312C02300260029002C002F003200000100001A
S11312D003010601090100002200250028002B005B
S11312E02E003100340002010000050108010B0149
S11312F000002100240027002A002D0030003300C4
S113130001010000040107010A010B0BEE0D1E0F81
S11313101330B90B9C0E341011241FBECFEFD1E251
S1131320DEBFCDBF00E00CBF13E0A0E0B2E0E0E21E
S1131330F2E700E00BBF02C007900D92A436B1079C
S1131340D9F727E0A4E6B3E001C01D92AC3BB20795
S1131350E1F719E0C9E8D9E000E006C021970109E6
S1131360802FFE010E94CD36C538D10780E00807E2
S1131370A9F70E9441300C94FF380C940000DC0162
S1131380ED91FD918081ED91FD919081ED91FD9123
S11313906C9163708E2309F064609F2309F0686088
S11313A0ECEDF9E0E60FF11D659565956D936D9192
S11313B07D918D919D91099423C01AC012C016C0CD
S11313C010C01EC009C014C013C006C019C009C093
S11313D00DC007C00DC014C06250704080409040E2
S11313E00BC0615070408040904006C06E5F01C0E9
S11313F06F5F7F4F8F4F9F4F9E938E937E936E931D
S113140008958091080790910907B9CF8091060744
S113141090910707B4CFCF93DF93EC0113D21D8EC5
S113142080E090E0ACE5B3E48E8F9F8FA8A3B9A3CE
S11314301AA280E090E0A0E8B0E48BA39CA3ADA343
S1131440BEA31FA280E090E8ABE3B6E488A799A707
S1131450AAA7BBA788E28CA71DA61EA61FA618AA2A
S113146019AA80E090E0A8E4B3E48AAB9BABACABF0
S1131470BDAB84EB8EAB80E090E0AAE7B3E48FAB26
S113148098AFA9AFBAAF1BAE1CAE1DAE1EAE1FAE59
S1131490FE01E05CFF4F8FEF80833196108231961E
S11314A01082CE018B5B9F4FDF91CF91CBC10F9305
S11314B01F93CF93DF938C01FC01EC59FF4F718391
S11314C060838CE090E00E944D30EC0162E082E0A9
S11314D00E94FC3462E083E00E94FC34E8E7F2E11D
S11314E0E491F0E0EE0FFF1FE454FD4E85919491DA
S11314F099838883E2E3F2E1E491EC83E9E7F2E1A2
S1131500E491F0E0EE0FFF1FE454FD4E85919491B9
S11315109B838A83E3E3F2E1E491ED831F821886DF
S113152019861A8680ED97E00E943A34E881F981A1
S113153090818C81982381E009F480E0EA81FB8129
S113154020819D81922309F082608E83D0930707C6
S1131550C093060741E050E066E07AE080E00E9434
S1131560C73181E08B87D0930907C093080741E016
S113157050E061E07AE00E94C7318B858F5F8B87F2
S1131580F801ED5BFF4FD183C08342E1BE01C80186
S11315908B5B9F4FDF91CF911F910F9169C1CF92C8
S11315A0DF92EF92FF920F931F93CF93DF93EC019F
S11315B06C0185E4C80ED11C00E010E020E231E4A7
S11315C040E050E060E87FE3C6015AD1CC59DF4FD8
S11315D0688179816F5F7F4FE12C10E8F12E0BE376
S11315E016E420E030E040EF51E4C6016DD1E8811B
S11315F0F981418152816381748122E030E082E18A
S113160097E0DF91CF911F910F91FF90EF90DF90C2
S1131610CF900C94B631CF93DF9366EB72E08CE0FD
S113162094E00E94F5356BEB72E082E194E00E9455
S1131630F53560EC72E088E194E00E94F53565ECE4
S113164072E08EE194E00E94F53568EC72E084E289
S113165094E00E94F5356EEC72E084EF93E00E9412
S1131660F53564ED72E08AEF93E00E94F5356AED9A
S113167072E080E094E00E94F53564ED72E086E06B
S113168094E00E94F5356FED72E08CED93E00E94DA
S1131690F53564ED72E082EE93E00E94F53565EE77
S11316A072E088EE93E00E94F5356AEE72E08EEE09
S11316B093E00E94F5356FEE72E084EC93E00E94B3
S11316C0F53564EF72E08AEC93E00E94F53569EF3A
S11316D072E080ED93E00E94F5356EEF72E086EDE6
S11316E093E00E94F5356FED72E08CEA93E00E947E
S11316F0F53563E073E082EB93E00E94F53568E032
S113170073E088EB93E00E94F5356AED72E08EEBAE
S113171093E00E94F5356FE073E084E993E00E9462
S1131720F53564E173E08AE993E00E94F53568E1F8
S113173073E080EA93E00E94F5356CE173E086EA99
S113174093E00E94F53560E273E084E693E00E9442
S1131750F535C0E0D0E0269667E573E0CE018C59FC
S11317609C4F0E94F535CA32D105A9F7DF91CF917C
S11317700895CF93DF93C4E9D3E02697CE010E9466
S11317808E3583E0C436D807C1F786EA93E00E9419
S11317908E3580EA93E00E948E358AE993E00E94B8
S11317A08E3584E993E00E948E358EEB93E00E949F
S11317B08E3588EB93E00E948E3582EB93E00E9495
S11317C08E358CEA93E00E948E3586ED93E00E947C
S11317D08E3580ED93E00E948E358AEC93E00E9472
S11317E08E3584EC93E00E948E358EEE93E00E9459
S11317F08E3588EE93E00E948E3582EE93E00E944F
S11318008E358CED93E00E948E3586E094E00E9444
S11318108E3580E094E00E948E358AEF93E00E943A
S11318208E3584EF93E00E948E35CAE2D4E0269789
S1131830CE010E948E3584E0CC30D807C1F7DF9109
S1131840CF910895FC01118E108E138E128E80E0BC
S113185090E0A0E8BFE3808B918BA28BB38B80E0F8
S113186090E0A0E8BEE3848B958BA68BB78B08959C
S1131870FC0176876587478762E0842F0C94FC34EB
S1131880CF92DF92EF92FF920F931F93CF93DF9348
S1131890EC016A017B01C901B801C88AD98AEA8AC4
S11318A0FB8A20E030E040E85EE30E94F32D6C8B7D
S11318B07D8B8E8B9F8BDF91CF911F910F91FF902A
S11318C0EF90DF90CF9008952F923F924F925F92C6
S11318D06F927F928F929F92AF92BF92CF92DF923C
S11318E0EF92FF920F931F93CF93DF9300D000D01A
S11318F0CDB7DEB79E838D836B0149015A010983FD
S11319001A83FC0187850E94663521E0892B09F43E
S113191020E0ED81FE81248F05851685F8018385FD
S1131920823020F4F894C8012ADD01C0F894F8014B
S1131930478050846184728478945C824B82ED8108
S1131940FE81518E408E828D938D84159505CCF544
S1131950848D882329F0648975898689978906C0CE
S1131960ED81FE816089718982899389F6012081E4
S11319703181428153810E94A92C1B018C01940165
S1131980A5010E940D2D87FD0DC0970149815A8143
S1131990B101C8010E94EF2D181634F41701098112
S11319A01A8102C014018501C101D801F6018083A6
S11319B09183A283B383ED81FE81538E428E81E0B5
S11319C08487ED81FE81828D938D2B813C81281744
S11319D03907DCF5848D882329F0248935894689E3
S11319E0578906C0ED81FE81208931894289538956
S11319F0F60160817181828193810E94A82C1B0170
S1131A008C019B01AC01B401C5010E94EF2D181695
S1131A106CF09101A801B70189819A810E940D2D72
S1131A2087FF06C0170109811A8102C014018501CC
S1131A30C101D801F60180839183A283B383ED8130
S1131A40FE81538E428E81E0848726960FB6F894E9
S1131A50DEBF0FBECDBFDF91CF911F910F91FF90DD
S1131A60EF90DF90CF90BF90AF909F908F907F903A
S1131A706F905F904F903F902F900895FC011082DB
S1131A8080E090E0ACE5B3E481839283A383B483E4
S1131A90158280E090E0A0E8B0E486839783A08775
S1131AA0B187128680E090E8ABE3B6E4838794873D
S1131AB0A587B68788E28787108A118A128A138AD3
S1131AC0148A80E090E0A8E4B3E4858B968BA78B1E
S1131AD0B08F84EB818F80E090E0AAE7B3E4828F3B
S1131AE0938FA48FB58F168E178E10A211A212A2F7
S1131AF08FEF83A314A215A208950895089508955D
S1131B00CF93DF93EC01FCD7CE01C196B7DFCE01B2
S1131B10815A9F4F0E94692CCE0183579F4FDF91BA
S1131B20CF91EEC78F929F92AF92BF92CF92DF92E6
S1131B30EF92FF920F931F93CF93DF93EC015C011D
S1131B408EEBA80EB11CD5016D937C9381E390E0DC
S1131B500E944D304C01C12CD12C89E2E82EF12C8D
S1131B6008E210E027E230E046E250E065E1C4011B
S1131B70C8D77E01BDE8EB0EF11C81E3F401D70167
S1131B8001900D928A95E1F761E0C7010E94D01897
S1131B90D501ED91FC91EC59FF4F00811181C054A6
S1131BA0DF4F2EE831E042E75DE0B701888199819B
S1131BB0A4DFC7010E94CD2B888199819FDF888192
S1131BC09981DF91CF911F910F91FF90EF90DF905A
S1131BD0CF90BF90AF909F908F9091CFCF93DF9392
S1131BE066EB72E082ED94E00E94F5356BEB72E0F7
S1131BF088ED94E00E94F53560EC72E08EED94E09F
S1131C000E94F53565EC72E084EE94E00E94F535AF
S1131C1068EC72E08AEE94E00E94F5356EEC72E0B6
S1131C208AEB94E00E94F53564ED72E080EC94E078
S1131C300E94F5356AED72E086EC94E00E94F53579
S1131C4064ED72E08CEC94E00E94F5356FED72E087
S1131C5082EA94E00E94F53564ED72E088EA94E04B
S1131C600E94F53565EE72E08EEA94E00E94F53547
S1131C706AEE72E084EB94E00E94F5356FEE72E058
S1131C808AE894E00E94F53564EF72E080E994E01C
S1131C900E94F53569EF72E086E994E00E94F5351B
S1131CA06EEF72E08CE994E00E94F5356FED72E01E
S1131CB082E794E00E94F53563E073E088E794E0FE
S1131CC00E94F53568E073E08EE794E00E94F535F4
S1131CD06AED72E084E894E00E94F5356FE073E009
S1131CE08AE594E00E94F53564E173E080E694E0CF
S1131CF00E94F53568E173E086E694E00E94F535CC
S1131D006CE173E08CE694E00E94F53560E273E0E8
S1131D108AE294E00E94F535C0E0D0E0269667E5BB
S1131D2073E0CE01865D9B4F0E94F535CA32D10522
S1131D30A9F7DF91CF910895CF93DF93CAE5D4E05B
S1131D402697CE010E948E3584E0CA32D807C1F7A7
S1131D508CE694E00E948E3586E694E00E948E35EF
S1131D6080E694E00E948E358AE594E00E948E35E8
S1131D7084E894E00E948E358EE794E00E948E35CC
S1131D8088E794E00E948E3582E794E00E948E35C5
S1131D908CE994E00E948E3586E994E00E948E35A9
S1131DA080E994E00E948E358AE894E00E948E35A2
S1131DB084EB94E00E948E358EEA94E00E948E3586
S1131DC088EA94E00E948E3582EA94E00E948E357F
S1131DD08CEC94E00E948E3586EC94E00E948E3563
S1131DE080EC94E00E948E358AEB94E00E948E355C
S1131DF0C0EFD4E02697CE010E948E3584E0C23D28
S1131E00D807C1F7DF91CF91089526E040E052EC66
S1131E1061E070E082E197E00E94482F6AE176E099
S1131E2084EB95E044DB64EB75E080EF94E07ADECC
S1131E3084EB95E0B4CB84EB95E0B1CBCF93DF9307
S1131E4066EB72E088EE96E00E94F5356BEB72E08B
S1131E508EEE96E00E94F53560EC72E084EF96E039
S1131E600E94F53565EC72E08AEF96E00E94F53544
S1131E7068EC72E080E097E00E94F5356EEC72E069
S1131E8080ED96E00E94F53564ED72E086ED96E013
S1131E900E94F5356AED72E08CED96E00E94F5350E
S1131EA064ED72E082EE96E00E94F5356FED72E02B
S1131EB088EB96E00E94F53564ED72E08EEB96E0D7
S1131EC00E94F53565EE72E084EC96E00E94F535EB
S1131ED06AEE72E08AEC96E00E94F5356FEE72E0ED
S1131EE080EA96E00E94F53564EF72E086EA96E0B7
S1131EF00E94F53569EF72E08CEA96E00E94F535B0
S1131F006EEF72E082EB96E00E94F5356FED72E0C1
S1131F1088E896E00E94F53563E073E08EE896E089
S1131F200E94F53568E073E084E996E00E94F53597
S1131F306AED72E08AE996E00E94F5356FE073E09D
S1131F4080E796E00E94F53564E173E086E796E069
S1131F500E94F53568E173E08CE796E00E94F53560
S1131F606CE173E082E896E00E94F53560E273E08C
S1131F7080E496E00E94F535C0E0D0E0269667E55F
S1131F8073E0CE01805C994F0E94F535CA32D105C9
S1131F90A9F710921A0680E090E0ACE5B3E48093D0
S1131FA01B0690931C06A0931D06B0931E06109268
S1131FB01F0680E090E0A0E8B0E4809320069093B0
S1131FC02106A0932206B09323061092240680E0F3
S1131FD090E8ABE3B6E48093250690932606A0939D
S1131FE02706B093280688E28093290610922A06D1
S1131FF010922B0610922C0610922D0610922E068B
S113200080E090E0A8E4B3E480932F069093300638
S1132010A0933106B093320684EB8093330680E0BC
S113202090E0AAE7B3E48093340690933506A09336
S11320303606B0933706109238061092390610927D
S11320403A0610923B0610923C068FEF80933D06B1
S113205010923E0610923F0684EB95E0DCD980EFA7
S113206094E0DF91CF914CCDCF93DF93C0E7D6E0DE
S11320702697CE010E948E3586E0C034D807C1F77A
S113208082E896E00E948E358CE796E00E948E35B9
S113209086E796E00E948E3580E796E00E948E35B2
S11320A08AE996E00E948E3584E996E00E948E3596
S11320B08EE896E00E948E3588E896E00E948E3580
S11320C082EB96E00E948E358CEA96E00E948E3573
S11320D086EA96E00E948E3580EA96E00E948E356C
S11320E08AEC96E00E948E3584EC96E00E948E3550
S11320F08EEB96E00E948E3588EB96E00E948E353A
S113210082EE96E00E948E358CED96E00E948E352C
S113211086ED96E00E948E3580ED96E00E948E3525
S1132120C6E0D7E02697CE010E948E3586E0C83EF1
S1132130D807C1F7DF91CF910895FC01283009F445
S1132140EEC018F4213041F00895203109F4F7C0AD
S1132150213109F402C1089587858430C1F4A08D2A
S1132160B18D82A19C91613011F4892B02C08095BC
S113217089238C93A28DB38D9C9183A1809589230F
S11321808C93A28DB38D9C9183A1892B08C0A089C7
S1132190B189868D9C916130C1F3809589238C939C
S11321A0A08DB18D82A19C9147FF02C0892B02C0F2
S11321B0809589238C93A28DB38D9C9183A1809566
S11321C089238C93A28DB38D9C9183A1892B8C93AD
S11321D0A08DB18D82A19C9146FF02C0892B02C0C3
S11321E0809589238C93A28DB38D9C9183A1809536
S11321F089238C93A28DB38D9C9183A1892B8C937D
S1132200A08DB18D82A19C9145FF02C0892B02C093
S1132210809589238C93A28DB38D9C9183A1809505
S113222089238C93A28DB38D9C9183A1892B8C934C
S1132230A08DB18D82A19C9144FF02C0892B02C064
S1132240809589238C93A28DB38D9C9183A18095D5
S113225089238C93A28DB38D9C9183A1892B8C931C
S1132260A08DB18D82A19C9143FF02C0892B02C035
S1132270809589238C93A28DB38D9C9183A18095A5
S113228089238C93A28DB38D9C9183A1892B8C93EC
S1132290A08DB18D82A19C9142FF02C0892B02C006
S11322A0809589238C93A28DB38D9C9183A1809575
S11322B089238C93A28DB38D9C9183A1892B8C93BC
S11322C0A08DB18D82A19C9141FF02C0892B02C0D7
S11322D0809589238C93A28DB38D9C9183A1809545
S11322E089238C93A28DB38D9C9183A1892B8C938C
S11322F0A08DB18D82A19C9140FF02C0892B02C0A8
S1132300809589238C93A28DB38D9C9183A1809514
S113231089238C93A28DB38D9C9183A1A2C062B9B1
S1132320A289B3899C91878D809589238C93A289F6
S1132330B3899C91878D892B8C9342B902C062B971
S113234048B9A289B3899C91878D809589238C9300
S1132350A289B3899C91878D84C0A59894B3862F54
S11323608071880F892B84BB80910201877E8093C2
S1132370020190910201862F807C86958695869530
S1132380892B809302018EB1847C8EB99EB1262F55
S11323902C70220F220F862F8370280F862F8072B5
S11323A0682F70E07595679575956795620F692B31
S11323B06EB9A48DB58D9C9184A1809589238C934D
S11323C0A48DB58D9C9184A1892B8C93A48DB58DFE
S11323D09C9184A1809589238C93A489B5899C912F
S11323E080A1809589238C93A59894B3842F8071C0
S11323F0880F892B84BB80910201877E8093020120
S113240090910201842F807C869586958695892BF0
S1132410809302018EB1847C8EB99EB1242F2C70DE
S1132420220F220F842F8370280F842F8072482F4D
S113243050E05595479555954795420F492B4EB910
S1132440A289B3899C91878D809589238C93A289D5
S1132450B3899C91878D892B8C93A489B5899C9190
S113246080A1892B8C930895613131F08FEF81B96C
S1132470603149F487B9089588E18093010180E2CD
S113248083BB8BE38DB908958F929F92AF92BF92D5
S1132490CF92DF92EF92FF920F931F93CF93DF932C
S11324A0EC016801790162B948B9C901B80120E1B8
S11324B030E040E050E00E94B13649015A0180E02A
S11324C090E0DC0188159905AA05BB050CF0D4C081
S11324D0EA89FB8930812F8D209523232083EA8983
S11324E0FB8930812F8D232B2083EA89FB8930815E
S11324F02F8D209523232083EA89FB8930812F8D1A
S1132500232B2083EA89FB8930812F8D2095232377
S11325102083EA89FB8930812F8D232B2083EA894C
S1132520FB8930812F8D209523232083EA89FB8921
S113253030812F8D232B2083EA89FB8930812F8DD5
S1132540209523232083EA89FB8930812F8D232B37
S11325502083EA89FB8930812F8D209523232083D2
S1132560EA89FB8930812F8D232B2083EA89FB891B
S113257030812F8D209523232083EA89FB893081A4
S11325802F8D232B2083EA89FB8930812F8D209581
S113259023232083EA89FB8930812F8D232B2083F9
S11325A0EA89FB8930812F8D209523232083EA89B2
S11325B0FB8930812F8D232B2083EA89FB8930818D
S11325C02F8D209523232083EA89FB8930812F8D49
S11325D0232B2083EA89FB8930812F8D20952323A7
S11325E02083EA89FB8930812F8D232B2083EA897C
S11325F0FB8930812F8D209523232083EA89FB8951
S113260030812F8D232B2083EA89FB8930812F8D04
S1132610209523232083EA89FB8930812F8D232B66
S11326202083EA89FB8930812F8D20952323208301
S1132630EA89FB8930812F8D232B2083EA89FB894A
S113264030812F8D209523232083EA89FB893081D3
S11326502F8D232B2083EA89FB8940813F8D309580
S113266034233083EA89FB8920813F8D322B3083E8
S11326700196A11DB11D26CFD701C6018F709927E0
S1132680AA27BB27892B8A2B8B2B19F1C701B601EB
S113269020E130E040E050E00E94B136C12CD12C62
S11326A076016C157D058E059F059CF0EA89FB89F2
S11326B030812F8D209523232083EA89FB89308163
S11326C02F8D232B20832FEFC21AD20AE20AF20A9B
S11326D0E8CFDF91CF911F910F91FF90EF90DF90A2
S11326E0CF90BF90AF909F908F9008958F929F92BC
S11326F0AF92BF92CF92DF92EF92FF92CF93DF938C
S1132700EC0169017A0162B9CA01B90120E130E042
S113271040E050E00E94B13649015A0180E090E067
S1132720DC0188159905AA05BB050CF0A4C1EA894A
S1132730FB8930812F8D209523232083EA89FB890F
S113274030812F8D232B2083EA89FB8930812F8DC3
S1132750209523232083EA89FB8930812F8D232B25
S11327602083EA89FB8930812F8D209523232083C0
S1132770EA89FB8930812F8D232B2083EA89FB8909
S113278030812F8D209523232083EA89FB89308192
S11327902F8D232B2083EA89FB8930812F8D20956F
S11327A023232083EA89FB8930812F8D232B2083E7
S11327B0EA89FB8930812F8D209523232083EA89A0
S11327C0FB8930812F8D232B2083EA89FB8930817B
S11327D02F8D209523232083EA89FB8930812F8D37
S11327E0232B2083EA89FB8930812F8D2095232395
S11327F02083EA89FB8930812F8D232B2083EA896A
S1132800FB8930812F8D209523232083EA89FB893E
S113281030812F8D232B2083EA89FB8930812F8DF2
S1132820209523232083EA89FB8930812F8D232B54
S11328302083EA89FB8930812F8D209523232083EF
S1132840EA89FB8930812F8D232B2083EA89FB8938
S113285030812F8D209523232083EA89FB893081C1
S11328602F8D232B2083EA89FB8930812F8D20959E
S113287023232083EA89FB8930812F8D232B208316
S1132880EA89FB8930812F8D209523232083EA89CF
S1132890FB8930812F8D232B2083EA89FB893081AA
S11328A02F8D209523232083EA89FB8930812F8D66
S11328B0232B2083EA89FB8930812F8D20952323C4
S11328C02083EA89FB8930812F8D232B2083EA8999
S11328D0FB8930812F8D209523232083EA89FB896E
S11328E030812F8D232B2083EA89FB8930812F8D22
S11328F0209523232083EA89FB8930812F8D232B84
S11329002083EA89FB8930812F8D2095232320831E
S1132910EA89FB8930812F8D232B2083EA89FB8967
S113292030812F8D209523232083EA89FB893081F0
S11329302F8D232B2083EA89FB8930812F8D2095CD
S113294023232083EA89FB8930812F8D232B208345
S1132950EA89FB8930812F8D209523232083EA89FE
S1132960FB8930812F8D232B2083EA89FB893081D9
S11329702F8D209523232083EA89FB8930812F8D95
S1132980232B2083EA89FB8930812F8D20952323F3
S11329902083EA89FB8930812F8D232B2083EA89C8
S11329A0FB8930812F8D209523232083EA89FB899D
S11329B030812F8D232B2083EA89FB8930812F8D51
S11329C0209523232083EA89FB8930812F8D232BB3
S11329D02083EA89FB8930812F8D2095232320834E
S11329E0EA89FB8930812F8D232B2083EA89FB8997
S11329F030812F8D209523232083EA89FB89308120
S1132A002F8D232B2083EA89FB8930812F8D2095FC
S1132A1023232083EA89FB8930812F8D232B208374
S1132A20EA89FB8930812F8D209523232083EA892D
S1132A30FB8930812F8D232B2083EA89FB89308108
S1132A402F8D209523232083EA89FB8930812F8DC4
S1132A50232B2083EA89FB8940813F8D30953423E1
S1132A603083EA89FB8920813F8D322B30830196A4
S1132A70A11DB11D56CED701C6018F709927AA2773
S1132A80BB27892B8A2B8B2B81F1C701B60120E14F
S1132A9030E040E050E00E94B136C12CD12C7601E8
S1132AA06C157D058E059F0504F1EA89FB8930814B
S1132AB02F8D209523232083EA89FB8930812F8D54
S1132AC0232B2083EA89FB8930812F8D20952323B2
S1132AD02083EA89FB8930812F8D232B20832FEFDC
S1132AE0C21AD20AE20AF20ADBCFDF91CF91FF9039
S1132AF0EF90DF90CF90BF90AF909F908F9008950C
S1132B0008954F925F926F927F928F929F92AF92AD
S1132B10BF92CF92DF92EF92FF920F931F93CF93C6
S1132B20DF93CDB7DEB7C05AD1090FB6F894DEBF34
S1132B300FBECDBF70E4E6E1F2E0DE01AF5BBF4F54
S1132B4001900D927A95E1F770E4E6E5F2E0DE019A
S1132B50119601900D927A95E1F770E2E6E9F2E0C0
S1132B60DE01AF57BF4F01900D927A95E1F7E62F42
S1132B70F0E05F01AA0CBB1CA1E4B0E0AC0FBD1FE8
S1132B80AA0DBB1D0D90BC91A02D2D01612C712CA3
S1132B90DC0115964D925D926D927C921897A1E09E
S1132BA0B0E0AC0FBD1FAA0DBB1D0D90BC91A02DB4
S1132BB04D01A12CB12CDC0119968D929D92AD9200
S1132BC0BC921C97A1E8B0E0AC0FBD1FEA0FFB1F3D
S1132BD07081FC017687658745A326A307A3E0A639
S1132BE0C1A6743019F461E066877787DC011E960C
S1132BF06C911E97653031F471E01E967C931E979C
S1132C001F966C93FC016685613009F498C04901F4
S1132C103A015C0129DCF301EA58FD4EE491F0E04D
S1132C20EE0FFF1FEA52FD4E25913491D5015196C6
S1132C303C932E935097F301E05DFD4EE4915E9634
S1132C40EC935E97F401EA58FD4EE491F0E0EE0F48
S1132C50FF1FEA52FD4E25913491F501338B228BEF
S1132C60F401E05DFD4EE4915F96EC935F97C8013B
S1132C70F801EA58FD4EE491F0E0EE0FFF1FEA522E
S1132C80FD4E25913491F501358B248BFC01E05DDB
S1132C90FD4EE4919096EC939097F701EA58FD4E1F
S1132CA0E491F0E0EE0FFF1FEA52FD4E85919491FE
S1132CB0F501978B868BF701E05DFD4EE4909196CC
S1132CC0EC9291971E968C91813109F0ADC0F6017A
S1132CD0EA58FD4EE491F0E0EE0FFF1FEA52FD4E7C
S1132CE0A591B491F501B58FA48FF601E05DFD4E79
S1132CF09491F50194A38C91E92FE095E823EC934A
S1132D0061E088E00E94FC3460E088E0C056DF4F58
S1132D100FB6F894DEBF0FBECDBFDF91CF911F91E8
S1132D200F91FF90EF90DF90CF90BF90AF909F9066
S1132D308F907F906F905F904F900C943835BA01CC
S1132D40FA01EA58FD4EE491F0E0EE0FFF1FEA525B
S1132D50FD4E45915491DC0159965C934E935897DE
S1132D60FB01E05DFD4EE4919296EC939297A901EC
S1132D70F901EA58FD4EE491F0E0EE0FFF1FEA522C
S1132D80FD4E25913491FC01338F228FFA01E05DD1
S1132D90FD4EE4919396EC939397F801EA58FD4E17
S1132DA0E491F0E0EE0FFF1FEA52FD4E459154917D
S1132DB0FC01558B448BF801E05DFD4EE491909647
S1132DC0EC93BFEFEB16F104A9F0F701EA58FD4EBE
S1132DD0E491F0E0EE0FFF1FEA52FD4E259134918D
S1132DE0FC01378B268BF701E05DFD4EE490DC019E
S1132DF09196EC92FC0127852430B1F0F601EA5853
S1132E00FD4EE491F0E0EE0FFF1FEA52FD4E4591B6
S1132E105491DC0151965C934E935097F601E05D1A
S1132E20FD4EE4915E96EC93C056DF4F0FB6F894D6
S1132E30DEBF0FBECDBFDF91CF911F910F91FF90E9
S1132E40EF90DF90CF90BF90AF909F908F907F9046
S1132E506F905F904F900895462FDC011E962C9141
S1132E601E97213071F05096ED91FC91519730816D
S1132E705E962C915E972095232320831E962C9199
S1132E8001C021E060E059C91F93CF93DF93DC01B7
S1132E901E962C911E97213069F05096ED91FC916D
S1132EA0519730815E962C915E97232B20831E963A
S1132EB02C910AC0142F462FEC0121E061E03DD98A
S1132EC02E85412F61E0CE01DF91CF911F9135C94D
S1132ED0462FDC011E962C911E97213071F05096DE
S1132EE0ED91FC91519730815E962C915E97232B46
S1132EF020831E962C9160E002C021E061E01DC990
S1132F000F931F93CF93DF93EC018A01A5DF402F2A
S1132F10612FCE01DF91CF911F910F91B5CFAF9269
S1132F20BF92CF92DF92EF92FF920F931F93CF93B2
S1132F30DF93EC016B01B42EA52E79018C818130D5
S1132F4069F489859A859C01261B370B8E199F0984
S1132F5078018901C42ED52EB82EA92EED858E2F89
S1132F6090E0FC013297EE31F10508F00EC188279C
S1132F70EE58FF4F8F4F0C94CD364D2D50E062E04C
S1132F80CE01BEDFA60163E0CE01BADF4F2D50E0D3
S1132F9064E0CE01B5DFA70165E0CE01B1DF4A2DC3
S1132FA050E066E0CE01ACDF4B2D5A2D67E0CE0138
S1132FB0A7DF412F50E052C05E2D44274C0D5D1D0C
S1132FC064E4CE019DDF4B2D5A2D65E4CE0198DFDC
S1132FD0A80166E4CE0194DFA6016EE4CE0190DF81
S1132FE04B2D5A2D6FE4CE018BDF62E2C2C0A601E5
S1132FF060E2CE0185DF4B2D5A2D61E2CE0180DFE8
S1133000A60160E5CE017CDF4B2D5A2D62E5CE0191
S113301077DFA70161E5CE0173DFA80163E5E3CFA4
S113302040E050E062E0CE016BDFA60163E0CE0138
S113303067DF40E050E064E0CE0162DFA70165E0B5
S1133040CE015EDF40E050E066E0CE0159DF4B2D5B
S11330505A2D67E0CE0154DF40E050E068E0CE0135
S11330604FDFA80169E0BFCF6AE2CE01F5DE6C2D27
S1133070CE012EDF6E2DCE012BDF6BE2CE01ECDE16
S11330806B2D71C06AE2CE01E7DE6A2DCE0120DF2E
S11330906B2DCE011DDF612FCE011ADF602FCE0113
S11330A017DF6BE2CE01D8DE6D2DCE0111DF6C2D62
S11330B0CE010EDF6F2DCE010BDF6E2D57C05E2DBE
S11330C044274C295D2966E4CE011ADFA80167E490
S11330D0CE0116DF4B2D5A2D68E40FC0A70166E31D
S11330E0CE010EDFA60167E3CE010ADFA80168E383
S11330F0CE0106DF4B2D5A2D69E3CE0101DFA60177
S113310060E2CE01FDDE4B2D5A2D61E26CCF4B2DDA
S11331105A2D62E0CE01F4DEA60163E0CE01F0DEBA
S1133120A80166E0CE01ECDEA70167E0CE01E8DE8F
S11331306FE01FC06AE2CE018FDE6D2DCE01C8DEC6
S11331406C2DCE01C5DE6F2DCE01C2DE6E2DCE01FB
S1133150BFDE6BE2CE0180DE6A2DCE01B9DE6B2DBF
S1133160CE01B6DE612FCE01B3DE602FCE01B0DE1C
S11331706CE2CE01DF91CF911F910F91FF90EF9000
S1133180DF90CF90BF90AF9067CEDF91CF911F912A
S11331900F91FF90EF90DF90CF90BF90AF90089584
S11331A00F931F93CF93DF93EC016C8361E08DA1A8
S11331B00E94FC3461E08EA10E94FC3461E08FA186
S11331C00E94FC3488A58F3F19F061E00E94FC3412
S11331D08E85813129F0813039F48F85853021F451
S11331E061E089A50E94FC346E85613011F0CE0146
S11331F03BD9EE89FF89908189A1892B808365E081
S113320070E080E090E00E940134EE89FF899081B3
S113321089A18095892380836FE070E080E090E04D
S11332200E940134EE89FF89908189A1892B8083D2
S11332306FE070E080E090E00E940134EC89FD8949
S1133240908188A1809589238083ED858E2F90E0DD
S1133250FC013297EE31F10510F00C94A32B882772
S1133260E057FF4F8F4F0C94CD3641E050E060E0C3
S1133270CE0146DE44EA58EA63E0CE0141DE40E096
S113328050E06CE0CE013CDE4CE058E06DE0CE0155
S113329037DE40E05BE26EE0CE0132DE47EB50E029
S11332A06EE1CE012DDE4FE35BE261E0CE0128DE6C
S11332B040E056E062E0CE0123DE40E050E060E111
S11332C0CE011EDE40E750E661E1CE0119DE40E0AA
S11332D050E065E0CE0114DE40E050E066E0CE014F
S11332E00FDE4CE15FEE66E1CE010ADE43E050E022
S11332F067E1CE0105DE43E352E067E0CE0100DE84
S113330040E050E06BE0CE01FBDD40E050E06FE0D8
S1133310CE01F6DD40E050E061E4CE01F1DD40E0B5
S113332050E062E4CE01ECDD40E050E068E4CE0120
S1133330E7DD4FE351E069E4CE01E2DD40E050E037
S11333406AE4CE01DDDD40E050E06BE4CE01D8DD7F
S113335040E05FEE64E4CE01D3DD40E050E065E49C
S1133360CE01CEDD4FE351E066E4CE01C9DD47E096
S113337057E060E3CE01C4DD44E052E061E3CE01F6
S1133380BFDD44E052E062E3CE01BADD42E055E045
S113339063E3CE01B5DD47E055E064E3CE01B0DD83
S11333A044E052E065E3CE01ABDD44E052E066E385
S11333B0CE01A6DD42E055E067E3CE01A1DD42E0A7
S11333C053E06AE3CE019CDD42E053E06BE3CE01BF
S11333D097DD40E050E063E2CE0192DD40E050E052
S11333E064E2CE018DDD40E050E865E2CE0188DD87
S11333F040E050E06FE4CE0183DD40E050E06EE455
S11334000C943B2540EF58E765EECE0179DD40E0B2
S113341051E061E0CE0174DD40E052E062E0CE01B3
S11334206FDD40E350E163E0CE016ADD40E050E04F
S113343064E0CE0165DD47E052E068E0CE0160DD86
S113344040E050E069E0CE015BDD40E050E06AE03E
S1133450CE0156DD40E050E06CE0CE0151DD40E0AD
S113346050E06DE0CE014CDD40E050E06FE0CE0175
S113347047DD40E050E060E1CE0142DD47E050E04E
S113348061E1CE013DDD40E050E062E1CE0138DD96
S113349040E050E063E1CE0133DD41E050E067E01D
S11334A0CE012EDD68EC70E080E090E00E940134F3
S11334B040E956E160E1CE0123DD47E252E061E1FB
S11334C0CE011EDD62E370E080E090E00E940134F2
S11334D04DE050E062E1CE0113DD62E370E080E094
S11334E090E00E94013440E052E163E1CE0108DD46
S11334F04AE050E069E2CE0103DD4DE050E07DC0DA
S113350040EF58E765EECE01FBDC40E051E061E0BE
S1133510CE01F6DC40E057E062E0CE01F1DC40E3AE
S113352050E163E0CE01ECDC40E050E064E0CE0129
S1133530E7DC47E052E068E0CE01E2DC40E050E046
S113354069E0CE01DDDC40E050E06AE0CE01D8DC89
S113355040E050E06CE0CE01D3DC40E050E06DE0B0
S1133560CE01CEDC40E050E06FE0CE01C9DC40E0AB
S113357050E060E1CE01C4DC47E050E061E1CE01FF
S1133580BFDC40E050E062E1CE01BADC40E050E054
S113359063E1CE01B5DC41E050E067E0CE01B0DC90
S11335A068EC70E080E090E00E94013440E955E16D
S11335B060E1CE01A5DC47E252E061E1CE01A0DC8E
S11335C062E370E080E090E00E9401344CE950E056
S11335D062E1CE0195DC62E370E080E090E00E945D
S11335E0013440E059E163E1CE018ADC43E250E07A
S11335F069E2CE0185DC4EE050E06BE2CE0180DC76
S113360062E370E080E090E00E94013440E050E02A
S113361060E2CE0175DC40E050E061E2CE0170DC96
S113362040E050E060E3CE016BDC44E054E061E351
S1133630CE0166DC43E050E062E3CE0161DC45E0AC
S113364054E065E3CE015CDC48E058E066E3CE017B
S113365057DC47E054E067E3CE0152DC43E053E03B
S113366068E3CE014DDC47E057E069E3CE0148DC76
S113367044E055E06CE3CE0143DC48E058E06DE300
S1133680CE013EDC40E050E060E5CE0139DC4FEE97
S113369050E061E5CE0134DC40E050E062E5CE016B
S11336A02FDC4FE351E063E5CE012ADC40E057EA2A
S11336B060E6CE0125DC41E050E061E6CE0120DC8D
S11336C040E050E06AE6CE011BDC40E050E060E8F8
S11336D0CE0116DC40E050E061E8CE0111DC40E0B0
S11336E050E062E8CE010CDC40E050E063E8CE013B
S11336F007DC40E050E064E8CE0102DC40E050E04A
S113370065E8CE01FDDB40E150E060E9CE01F8DB85
S113371040E050E062E9CE01F3DB43E351E067E0CF
S1133720CE01EEDB0C94A32B44E850E066E2CE011C
S1133730E7DB68E270E080E090E00E94013448EB4F
S113374050E066E2CE01DCDB68E270E080E090E00D
S11337500E9401344CEB50E066E2CE01D1DB64E11F
S113376070E080E090E00E94013440E050E060E6C8
S1133770CE01C6DB46E050E061E6CE01C1DB40E0AD
S113378050E062E6CE01BCDB48EC50E063E6CE01DB
S1133790B7DB64E170E080E090E00E94013440E730
S11337A050E063E7CE01ACDB40E050E060E4CE01E2
S11337B0A7DB40E450E061E4CE01A2DB45E450E045
S11337C062E4CE019DDB41E050E063E4CE0198DB8E
S11337D040E650E064E4CE0193DB45E050E065E46C
S11337E0CE018EDB4CE050E066E4CE0189DB41ED96
S11337F050E067E4CE0184DB45E050E068E4CE01AC
S11338007FDB45E750E060E5CE017ADB41E050E044
S113381061E5CE0175DB47E650E062E5CE0170DB81
S113382044E150E063E5CE016BDB42EF50E064E538
S1133830CE0166DB47E050E065E5CE0161DB43E0A5
S113384050E066E5CE015CDB49E450E067E5CE017B
S113385057DB64E170E080E090E00E94013443E0D3
S113386050E06FE1CE014CDB40E050E060E2CE017D
S113387047DB44E250E064E2CE0142DB44E350E043
S113388065E2CE013DDB4FE250E063E2CE0138DB7E
S113389064E170E080E090E00E94013444E450E090
S11338A068E1CE012DDB41E050E061E2CE0128DB8E
S11338B040E050E061E0CE0123DB43E050E06CE106
S11338C0CE011EDB46E050E069E1CE0119DB64E184
S11338D070E080E090E00E94013444E850E066E249
S11338E0CE010EDB68E270E080E090E00E940134DB
S11338F048EB50E066E2CE0103DB68E270E080E072
S113390090E00E9401344CEB50E066E2CE01F8DA1C
S113391064E170E080E090E00E94013440E050E017
S113392062E0CE01EDDA40E050E063E0CE01E8DA97
S113393040E050E064E0CE01E3DA4FEA50E065E0B5
S1133940CE01DEDA40E050E066E0CE01D9DA40E0B4
S113395050E067E0CE01D4DA40E050E068E0CE0108
S1133960CFDA4BED50E069E0CE01CADA64E170E0F1
S113397080E090E00E94013448E050E066E1CE012E
S1133980BFDA45E050E067E1CE01BADA61E2CE0188
S113399063DA62E2CE0160DA0C94A32B61E1CE011A
S11339A05BDA6CE070E080E090E00E94013461EB4F
S11339B0CE0152DA61E0CE018BDA6CE2CE0188DA14
S11339C06DE2CE0185DA62EBCE0146DA61E0CE012A
S11339D07FDA6CE2CE017CDA6DE2CE0179DA63EB58
S11339E0CE013ADA61E0CE0173DA6CE2CE0170DA2C
S11339F06DE2CE016DDA61E0CE016ADA6CE2CE01ED
S1133A0067DA6DE2CE0164DA64EBCE0125DA67E0B1
S1133A10CE015EDA60ECCE011FDA62EACE0158DA3A
S1133A2062E0CE0155DA64E8CE0152DA61ECCE01EF
S1133A3013DA65ECCE014CDA62ECCE010DDA6AE001
S1133A40CE0146DA60E0CE0143DA63ECCE0104DA5B
S1133A506AE8CE013DDA6AE2CE013ADA64ECCE01DC
S1133A60FBD96AE8CE0134DA6EEECE0131DA65ECC8
S1133A70CE01F2D96EE0CE012BDA66E3CE01ECD9A9
S1133A8068EC73C061E1CE01E7D96CE070E080E0DE
S1133A9090E00E94013461EBCE01DED961E0CE01F9
S1133AA017DA6CE2CE0114DA6DE2CE0111DA62EBC0
S1133AB0CE01D2D961E0CE010BDA6CE2CE0108DA94
S1133AC06DE2CE0105DA63EBCE01C6D961E0CE0129
S1133AD0FFD96CE2CE01FCD96DE2CE01F9D961E0E7
S1133AE0CE01F6D96CE2CE01F3D96DE2CE01F0D964
S1133AF064EBCE01B1D967E0CE01EAD960ECCE0126
S1133B00ABD962EACE01E4D962E0CE01E1D964E83E
S1133B10CE01DED961ECCE019FD965ECCE01D8D9B6
S1133B2062ECCE0199D96AE0CE01D2D960E0CE012F
S1133B30CFD963ECCE0190D96AE8CE01C9D96AE243
S1133B40CE01C6D964ECCE0187D96AE8CE01C0D9CA
S1133B506EEECE01BDD965ECCE017ED96EE0CE010C
S1133B60B7D966E3CE0178D960ECCE01B1D960EE65
S1133B70CE0172D96FE0CE01ABD96AE1CE01A8D9EA
S1133B806FE0CE01A5D968E1CE01A2D96FE2CE01E2
S1133B909FD968E2CE019CD960E2CE0199D962E254
S1133BA0CE0196D96FE1CE0193D96BE1CE0190D9C4
S1133BB063E2CE018DD967E3CE018AD960E0CE01FC
S1133BC087D967E0CE0184D962E0CE0181D960E172
S1133BD0CE017ED961EECE013FD96FE0CE0178D916
S1133BE06BE1CE0175D96FE0CE0172D967E1CE01E8
S1133BF06FD963E3CE016CD96CE2CE0169D969E275
S1133C00CE0166D96EE2CE0163D960E3CE0160D9FC
S1133C1060E3CE015DD969E3CE015AD96FE3CE01E9
S1133C2057D960E0CE0154D967E0CE0151D963E0A1
S1133C30CE014ED960E1CE014BD96AE2CE010CD956
S1133C4060E0CE0145D960E0CE0142D960E0CE010A
S1133C503FD96FE7CE013CD96BE2CE01FDD860E0DD
S1133C60CE0136D960E0CE0133D960E0CE0130D93F
S1133C706FE9CE012DD960EFCE01EED861E0CE011F
S1133C8027D966EFCE01E8D860E00C945F2661E0A6
S1133C90CE01E2D865E2CE01DFD860E4CE0118D9C6
S1133CA061E1CE01D9D86AE070E080E090E00E9442
S1133CB0013460E2CE01D0D868E3CE01CDD869E208
S1133CC0CE01CAD863E1CE01C7D866E3CE01C4D819
S1133CD060E6CE01FDD86AE3CE01BED865E0CE0130
S1133CE0F7D86AE2CE01B8D860E0CE01F1D86FE728
S1133CF0CE01EED864EBCE01AFD863E0CE01E8D8B4
S1133D0068E0CE01E5D86BE0CE01E2D86EE0CE01EA
S1133D10DFD86AEBCE01A0D867E0CE01D9D86DE038
S1133D20CE01D6D86BE2CE0197D860E0CE01D0D8D0
S1133D306FE75EC263E8CE018FD862E0CE01C8D8D7
S1133D4065E8CE0189D863E0CE01C2D86BE8CE0124
S1133D5083D861E0CE01BCD86CE8CE017DD863E99C
S1133D60CE01B6D861E9CE0177D861E0CE01B0D8F2
S1133D7063E8CE0171D860E0CE01AAD86EE3CE012B
S1133D806BD860EBCE01A4D86FE3CE0165D863E0B5
S1133D90CE019ED860E4CE015FD860E1CE0198D810
S1133DA061E4CE0159D866E5CE0192D862E4CE0131
S1133DB053D863E1CE018CD863E4CE014DD866E4D8
S1133DC0CE0186D864E4CE0147D863E2CE0180D820
S1133DD065E4CE0141D866E7CE017AD866E4CE0127
S1133DE03BD860E0CE0174D867E4CE0135D86EE5E7
S1133DF0CE016ED868E4CE012FD86FE4CE0168D826
S1133E0069E4CE0129D860E4CE0162D867E1CE012D
S1133E1023D861E9CE015CD86BE2CE011DD869EFED
S1133E20CE0156D86AE070E080E090E00E94013450
S1133E306BE1CE0111D864E1CE014AD86AE1CE012A
S1133E400BD861E1CE0144D86CE1CE0105D866E01F
S1133E50CE013ED86FE1CE010E942C1762E4CE0160
S1133E6037D864E170E080E090E00E94013469E1B9
S1133E70CE010E942C176AE0CE012AD869E1CE0156
S1133E800E942C176AE1CE0123D868E270E080E03A
S1133E9090E00E94013469E1CE010E942C1762E196
S1133EA0CE0116D868E270E080E090E00E94013410
S1133EB06EE1CE010E942C1767E2CE0109D864E6B8
S1133EC070E080E090E00E94013464E2CE010E9440
S1133ED02C1760E6CE010E9468176DE3CE010E94A4
S1133EE02C1760E4CE010E94681764E3CE010E949F
S1133EF02C1768E3CE010E94681765E3CE010E9487
S1133F002C1768E3CE010E94681764E2CE010E9478
S1133F102C1768E3CE010E94681768E270E080E025
S1133F2090E00E94013464E2CE010E942C176CE3FD
S1133F30CE010E94681766E1CE010E942C176CE145
S1133F40CE010E94681761E0CE010E942C1766E042
S1133F50CE010E94681765E5CE010E942C1760E02F
S1133F60CE010E94681762E0CE010E942C1760E027
S1133F70CE010E94681763E0CE010E942C1760E016
S1133F80CE010E94681764E0CE010E942C1760E005
S1133F90CE010E94681765E0CE010E942C176FEED7
S1133FA0CE010E94681766E0CE010E942C1760E0E3
S1133FB0CE010E94681767E0CE010E942C1760E0D2
S1133FC0CE010E94681768E0CE010E942C1761E0C0
S1133FD0CE010E94681769E0CE010E942C176FE899
S1133FE0CE010E946817D5CC62EECE010E942C1738
S1133FF063E2CE010E94681762E0CE010E94681756
S113400064E5CE010E94681760EECE010E942C1771
S113401061E0CE010E9468176AE070E080E090E001
S11340200E94013460EECE010E942C1763E0CE01A1
S11340300E9468176AE070E080E090E00E9401341A
S113404061E0CE010E942C1764E670E080E090E00D
S11340500E94013466EECE010E942C1761E0CE016D
S11340600E9468176FE1CE010E9468176FEFCE01BE
S11340700E94681760EBCE010E942C1760E2CE010B
S11340800E94681760E0CE010E94681761E0CE01CB
S11340900E9468176FEDCE010E94681761E0CE019F
S11340A00E9468176FE0CE010E94681760E0CE019D
S11340B00E94681764EBCE010E942C1762E0CE01C7
S11340C00E94681763E1CE010E94681760E0CE0188
S11340D00E94681768E0CE010E9468176BE2CE0167
S11340E00E94681760E0CE010E94681762E0CE016A
S11340F00E94681760E0CE010E94681766EBCE014B
S11341000E942C1761E0CE010E94681760E2CE0184
S11341100E94681760E0CE010E94681764E0CE0137
S11341200E9468176CE0CE010E94681760E0CE011F
S11341300E94681762E0CE010E9468176AEBCE0104
S11341400E942C176FE0CE010E94681768EBCE0125
S11341500E942C1767E0CE010E94681761E0CE012F
S11341600E94681766E3CE010E942C1762E2CE011A
S11341700E94681760EFCE010E942C1763E0CE0105
S11341800E94681761E070E080E090E00E940134D2
S11341900FE011E02FED31E040E050E060E070E02E
S11341A0CE010E948F1769E2CE010E942C176EEB9C
S11341B0CE010E942C1766E0CE010E94681760EFC2
S11341C0CE010E94681761E0CE010E94681760EF7B
S11341D0CE010E94681760E0CE010E94681760E07B
S11341E0CE010E94681760EDCE010E942C176DE08D
S11341F0CE010E9468170C94A22A62EECE010E949E
S11342002C176EE1CE010E94681762E0CE010E9475
S1134210681764E5CE010E94681760EECE010E9423
S11342202C1761E0CE010E9468176AE070E080E01C
S113423090E00E94013460EECE010E942C1763E0EE
S1134240CE010E9468176AE070E080E090E00E946E
S1134250013461E0CE010E942C1764E670E080E036
S113426090E00E94013466EECE010E942C1763E0B8
S1134270CE010E9468176FEFCE010E9468176FEF9E
S1134280CE010E94681760EBCE010E942C1764E2F5
S1134290CE010E94681760E0CE010E94681763E0B7
S11342A0CE010E9468176FE1CE010E94681761E099
S11342B0CE010E9468176FEDCE010E94681760E07E
S11342C0CE010E94681764EBCE010E942C1763E0B4
S11342D0CE010E94681760EACE010E94681760E070
S11342E0CE010E9468176EE2CE010E94681760E357
S11342F0CE010E94681760E0CE010E9468176FE04B
S1134300CE010E94681760E0CE010E94681766EB38
S1134310CE010E942C1762E0CE010E9468176DE066
S1134320CE010E94681760E0CE010E94681760E128
S1134330CE010E94681760E1CE010E94681760E018
S1134340CE010E94681768E0CE010E9468176AEBEC
S1134350CE010E942C176FE0CE010E94681768EB13
S1134360CE010E942C1767E0CE010E94681761E01D
S1134370CE010E94681766E3CE010E942C1762E208
S1134380CE010E94681760EFCE010E942C1763E0F3
S1134390CE010E94681761E070E080E090E0D2C036
S11343A062EECE010E942C1763E2CE010E946817D0
S11343B062E0CE010E94681764E0CE010E94681793
S11343C060EECE010E942C1761E0CE010E946817B6
S11343D06AE070E080E090E00E94013460EECE017B
S11343E00E942C1763E0CE010E9468176AE070E017
S11343F080E090E00E94013461E0CE010E942C171D
S113440064E670E080E090E00E94013466EECE0144
S11344100E942C1764E0CE010E94681763E9CE0164
S11344200E94681760EECE010E94681760EBCE010F
S11344300E942C1760E0CE010E94681760E0CE0154
S11344400E94681763E0CE010E9468176FE1CE01F5
S11344500E94681761E0CE010E9468176FEDCE01DB
S11344600E94681760E0CE010E94681764EBCE01D9
S11344700E942C1763E0CE010E94681760EACE0107
S11344800E94681760E0CE010E9468176EE2CE01B8
S11344900E94681760E3CE010E94681760E0CE01B5
S11344A00E9468176FE0CE010E94681760E0CE0199
S11344B00E94681766EBCE010E942C1762E0CE01C1
S11344C00E9468176DE0CE010E94681760E0CE017B
S11344D00E94681760E1CE010E94681760E1CE0176
S11344E00E94681760E0CE010E94681768E0CE0160
S11344F00E9468176AEBCE010E942C1765E0CE017A
S11345000E94681768EBCE010E942C1767E0CE0169
S11345100E94681761E0CE010E94681766E3CE012D
S11345200E942C1762E2CE010E94681760EFCE0150
S11345300E942C1763E0CE010E9468176AE070E0C5
S113454080E090E00E9401340FED11E02FE133E0B0
S113455023CE44E050E261E1CE010E94801740E0A6
S11345605CEC63E1CE010E94801740E056E265E115
S1134570CE010E9480174AE255E264E1CE010E9416
S1134580801743E350E062E1CE010E94801744E0CB
S11345905CEC63E1CE010E94801746E05CEC63E1D1
S11345A0CE010E9480174FE45CEC63E1CE010E94CF
S11345B080174FE457E663E1CE010E94801743E081
S11345C050E261E1CE010E94801749E056E260E3C7
S11345D0CE010E9480174CE254E261E3CE010E94B6
S11345E0801743E25FE162E3CE010E94801745E257
S11345F054E263E3CE010E94801746E252E264E390
S1134600CE010E94801743E255E265E3CE010E9489
S113461080174AE15CE166E3CE010E9480174DE118
S113462053E167E3CE010E94801741E15BE068E358
S1134630CE010E94801740E152E169E3CE010E945D
S1134640801745E153E16AE3CE010E94801749E1F6
S113465056E36BE3CE010E94801740E05DE06CE31B
S1134660CE010E9480174DE050E06DE3CE010E9420
S1134670801747E050E066E1CE010E94801743E1D5
S113468050E062E0CE010E94801743E050E063E016
S1134690CE010E94801747E251E061E0CE010E9402
S11346A0801743E053E068E0CE010E9480174BE09E
S11346B050E06AE0CE010E94801743E050E06BE0D6
S11346C0CE010E94801740E050E06CE0CE010E94D1
S11346D0801740E050E061E4CE010E94801740E082
S11346E050E060E5CE010E94801745E050E060E6AE
S11346F0CE010E9480174BE050E060E7CE010E949B
S1134700801740E050E061E7CE010E94801740E04E
S113471050E068E7CE010E94801740E050E06AE76D
S1134720CE010E94801747E050E069E7CE010E9465
S1134730801741E550E067E0CE010E94801743E511
S113474050E067E0CE010E94801740E050E069E746
S113475092C161E1CE010E942C1764E170E080E017
S113476090E00E94013460EDCE010E942C1767E0B6
S1134770CE010E94681762E4CE010E94681768E1C6
S1134780CE010E94681761EDCE010E942C1760E0F3
S1134790CE010E94681767E0CE010E94681760E1AD
S11347A0CE010E94681762EDCE010E942C1761E0D1
S11347B0CE010E94681762E0CE010E94681760EC87
S11347C0CE010E942C1760E1CE010E9468176BE3B2
S11347D0CE010E94681760E0CE010E94681762E073
S11347E0CE010E94681761E1CE010E94681765EC52
S11347F0CE010E942C1763E0CE010E94681768EC7A
S1134800CE010E942C1760E0CE010E94681762E37B
S1134810CE010E94681766E3CE010E94681765E422
S1134820CE010E94681766E0CE010E94681766E117
S1134830CE010E94681767E3CE010E94681765E7FE
S1134840CE010E94681767E7CE010E94681764E5ED
S1134850CE010E9468176CE0CE010E94681760E0E8
S1134860CE010E94681766E3CE010E942C176AE00D
S1134870CE010E9468176AE3CE010E942C1765E5F9
S1134880CE010E9468176AE2CE010E942C1760E0F4
S1134890CE010E94681760E0CE010E94681761E0B3
S11348A0CE010E9468176FE3CE010E9468176BE285
S11348B0CE010E942C1760E0CE010E94681760E0D0
S11348C0CE010E94681761E0CE010E94681760EE75
S11348D0CE010E94681768E770E080E090E00E94D3
S11348E00134F8C14AE150E061E1CE010E94801731
S11348F041E251E362E1CE010E9480174CE650E0B0
S113490063E1CE010E94801749E452E464E1CE01E0
S11349100E94801740E058E060E1CE010E948017B9
S11349206AE070E080E090E00E9401344AE151E0E6
S113493061E1CE010E9480176AE070E080E090E0BF
S11349400E9401344AE153E061E1CE010E948017E4
S11349506AE070E080E090E00E9401344AE157E0B0
S113496061E1CE010E9480176AE070E080E090E08F
S11349700E9401344AE15FE061E1CE010E948017A8
S11349806AE070E080E090E00E9401344AE35FE076
S113499061E1CE010E9480176EE170E080E090E05A
S11349A00E9401344CE151E061E0CE010E94801785
S11349B040E051E062E0CE010E94801740E350E104
S11349C063E0CE010E94801740E050E067E0CE0132
S11349D00E94801748E058E068E0CE010E948017EA
S11349E040E051E16BE0CE010E94801740E050E0CE
S11349F06CE0CE010E94801741E054E16FE0CE01EB
S1134A000E94801740E050E065E1CE010E948017CB
S1134A1040E050E060E2CE010E94801740E050E0A8
S1134A2061E2CE010E9480174FEA50E066E3CE01B6
S1134A300E94801740E050E067E3CE010E94801797
S1134A404BED50E068E3CE010E94801740E050E057
S1134A5069E3CE010E94801741E05BE06FE0CE0184
S1134A600E94801746E150E067E0CE010E94801763
S1134A7047E150E067E0CE010E9480170C94C91C06
S1134A8061E1CE010E942C1768E770E080E090E0BD
S1134A900E94013461EBCE010E942C1765E0CE0127
S1134AA00E9468176CE3CE010E9468176CE3CE0184
S1134AB00E94681762EBCE010E942C1765E0CE01BC
S1134AC00E9468176CE3CE010E9468176CE3CE0164
S1134AD00E94681763EBCE010E942C1765E0CE019B
S1134AE00E9468176CE3CE010E9468176CE3CE0144
S1134AF00E94681765E0CE010E9468176CE3CE013E
S1134B000E9468176CE3CE010E94681764EBCE0123
S1134B100E942C1763E0CE010E94681760ECCE015E
S1134B200E942C1768E2CE010E94681768E0CE014B
S1134B300E94681764E0CE010E94681761ECCE0100
S1134B400E942C1760ECCE010E94681762ECCE0123
S1134B500E942C176DE0CE010E94681760E0CE0120
S1134B600E94681763ECCE010E942C176DE8CE01F9
S1134B700E9468176AE2CE010E94681764ECCE01B5
S1134B800E942C176DE8CE010E9468176EEECE01CC
S1134B900E94681765ECCE010E942C176AE1CE01D1
S1134BA00E94681766E3CE010E942C1760ECCE01C8
S1134BB00E94681760EECE010E942C1763E0CE01BC
S1134BC00E94681762E2CE010E94681767E0CE0176
S1134BD00E9468176AE0CE010E9468176EE2CE0157
S1134BE00E94681760E3CE010E94681765E2CE0157
S1134BF00E9468176AE2CE010E94681768E2CE013B
S1134C000E94681766E2CE010E9468176EE2CE0128
S1134C100E9468176AE3CE010E94681760E0CE0123
S1134C200E94681761E0CE010E94681763E0CE011C
S1134C300E94681763E1CE010E94681761EECE01FD
S1134C400E942C1764E0CE010E94681766E1CE0131
S1134C500E94681766E0CE010E9468176DE0CE01DD
S1134C600E9468176DE2CE010E94681766E2CE01C9
S1134C700E94681763E2CE010E94681767E2CE01C2
S1134C800E94681767E2CE010E94681765E2CE01B0
S1134C900E9468176DE2CE010E9468176BE3CE0193
S1134CA00E94681760E0CE010E94681761E0CE019F
S1134CB00E94681764E0CE010E94681763E1CE0188
S1134CC00E9468176AE3CE010E942C1765E0CE01AA
S1134CD00E94681769E20C94CA1C61E1CE010E942B
S1134CE02C1764E170E080E090E00E94013468E2F7
S1134CF0CE010E942C1765E070E080E090E00E94F5
S1134D0001346FECCE010E942C1760E0CE010E94AA
S1134D10681763E8CE010E94681760E3CE010E9421
S1134D2068176DEECE010E942C1764E6CE010E9436
S1134D30681763E0CE010E94681762E1CE010E9409
S1134D40681761E8CE010E94681768EECE010E94E0
S1134D502C1765E8CE010E94681761E0CE010E941D
S1134D60681769E7CE010E9468176BECCE010E94B8
S1134D702C1769E3CE010E9468176CE2CE010E94F1
S1134D80681760E0CE010E94681764E3CE010E94B8
S1134D90681762E0CE010E94681767EFCE010E9497
S1134DA02C1760E2CE010E9468176AEECE010E94C1
S1134DB02C1760E0CE010E94681760E0CE010E94CB
S1134DC0681760ECCE010E942C1766E2CE010E94A7
S1134DD0681761ECCE010E942C1761E1CE010E949C
S1134DE0681765ECCE010E942C1765E3CE010E9482
S1134DF068176EE3CE010E94681767ECCE010E942B
S1134E002C176EEBCE010E94681761EBCE010E9455
S1134E102C1760E0CE010E9468176BE1CE010E945E
S1134E20681766EBCE010E942C176AE0CE010E943F
S1134E30681762E8CE010E94681767E2CE010E94FB
S1134E40681760E0CE010E94681767EBCE010E94EC
S1134E502C1767E0CE010E9468176AE3CE010E9416
S1134E602C1765E5CE010E94681766E3CE010E9407
S1134E702C1768E4CE010E94681769E2CE010E94F3
S1134E802C1765E070E080E090E05BC46BECCE0131
S1134E900E942C1769E3CE010E9468176CE2CE01D0
S1134EA00E94681760E0CE010E94681764E3CE0197
S1134EB00E94681762E0CE010E9468176FECCE0171
S1134EC00E942C1760E0CE010E94681761ECCE01AD
S1134ED00E94681760E3CE010E94681768EECE0155
S1134EE00E942C1765E8CE010E94681760E0CE018D
S1134EF00E94681768E7CE010E9468176AEECE0127
S1134F000E942C1760E0CE010E94681760E0CE0179
S1134F100E9468176DEECE010E942C1764E6CE0144
S1134F200E94681763E0CE010E94681762E1CE0117
S1134F300E94681761E8CE010E94681767EFCE01EE
S1134F400E942C1760E2CE010E94681760ECCE012B
S1134F500E942C1763E2CE010E94681761ECCE0117
S1134F600E942C1760E1CE010E94681765ECCE0107
S1134F700E942C176EE3CE010E94681768E2CE01EE
S1134F800E94681767ECCE010E942C1766E8CE01D8
S1134F900E94681766E3CE010E942C1768E4CE01D4
S1134FA00E9468176AE3CE010E942C1765E5CE01C2
S1134FB00E94681761EBCE010E942C1760E0CE01BD
S1134FC00E94681768E1CE010E94681766EBCE0163
S1134FD00E942C1768E0CE010E94681762E8CE0197
S1134FE00E94681767E2CE010E94681761E1CE0152
S1134FF00E942C1768E770E080E090E09DC260EBAF
S1135000CE010E942C176EE1CE010E94681760EB5E
S1135010CE010E942C1760E0CE010E94681763EB5A
S1135020CE010E942C1762E0CE010E94681760E056
S1135030CE010E94681760E0CE010E94681760E10B
S1135040CE010E94681764EBCE010E942C1760E029
S1135050CE010E94681760ECCE010E942C1763E019
S1135060CE010E9468176BE3CE010E94681760E0CE
S1135070CE010E94681760E0CE010E94681760E0CC
S1135080CE010E94681761E0CE010E94681760E0BB
S1135090CE010E94681763E4CE010E94681761EC98
S11350A0CE010E942C1768E0CE010E94681765E1CA
S11350B0CE010E94681768E0CE010E94681768E07C
S11350C0CE010E94681764ECCE010E942C1765E1A2
S11350D0CE010E94681763E0CE010E94681763E066
S11350E0CE010E94681761E0CE010E94681766EC49
S11350F0CE010E942C1762E0CE010E94681768EC72
S1135100CE010E942C176CE0CE010E94681765E066
S1135110CE010E9468176AE0CE010E9468176BE610
S1135120CE010E94681764E0CE010E94681766E011
S1135130CE010E94681765E1CE010E94681760E104
S1135140CE010E94681760E0CE010E94681760E6F5
S1135150CE010E94681766E3CE010E942C176AE014
S1135160CE010E9468176CE0CE010E942C1765E501
S1135170CE010E9468176AE3CE010E942C1765E5F0
S1135180CE010E94681768E3CE010E942C1760EDDF
S1135190CE010E942C1767E0CE010E94681767E0D9
S11351A0CE010E94681764E1CE010E94681762EA8A
S11351B0CE010E94681761EDCE010E942C1763E0B6
S11351C0CE010E9468176AE5CE010E94681760E16B
S11351D0CE010E94681762EDCE010E942C1763E095
S11351E0CE010E94681764E0CE010E94681764E053
S11351F0CE010E94681761E1CE010E942C1766E976
S113520070E080E090E00E9401346AE2CE010E94E6
S11352102C1760E0CE010E94681760E0CE010E9466
S1135220681761E0CE010E9468176FEDCE010E94FD
S113523068176BE2CE010E942C1760E0CE010E9439
S1135240681760E0CE010E94681761E0CE010E94F9
S113525068176FE3CE010E94681764E670E080E08F
S113526090E00E94013469E2CE010E942C176EE1A5
S113527070E080E090E00E9401346CE2CE010E9474
S11352802C176EE170E080E090E05BC261E1CE013A
S11352900E942C1762E370E080E090E00E940134E9
S11352A062EFCE010E942C176CE1CE010E946817B8
S11352B063EACE010E94681762E3CE010E94681778
S11352C062E0CE010E94681762EBCE010E9468176B
S11352D062E1CE010E9468176FEFCE010E94681749
S11352E062E1CE010E94681760E0CE010E94681757
S11352F061EFCE010E942C1766E3CE010E9468176D
S113530064EACE010E94681768EFCE010E942C1750
S113531061E2CE010E94681764E0CE010E94681722
S113532069EFCE010E942C1760E0CE010E9468173D
S113533068E0CE010E94681760ECCE010E942C1731
S11353406DE0CE010E9468176DE0CE010E946817DF
S113535061ECCE010E942C1763E4CE010E94681711
S113536060E0CE010E94681762ECCE010E942C1707
S113537060E0CE010E94681765ECCE010E942C17F4
S113538060E0CE010E94681768E4CE010E946817AD
S113539066EBCE010E942C1760E0CE010E946817D4
S11353A062E2CE010E9468176BE3CE010E94681787
S11353B060EECE010E942C176FE0CE010E946817A8
S11353C064E2CE010E9468176CE1CE010E94681766
S11353D06AE0CE010E9468176FE0CE010E94681750
S11353E068E0CE010E94681763E4CE010E9468174A
S11353F068E8CE010E94681762E3CE010E94681734
S11354006FE0CE010E94681760E1CE010E94681728
S113541066E0CE010E9468176FE0CE010E94681713
S113542067E0CE010E94681760E0CE010E94681711
S113543061EECE010E942C176FE0CE010E94681726
S113544068E3CE010E94681760E3CE010E946817EA
S113545069E0CE010E9468176FE0CE010E946817D0
S11354606FE0CE010E9468176EE4CE010E946817B7
S113547067E7CE010E9468176CE3CE010E946817AB
S113548067E0CE010E94681760E1CE010E946817B0
S113549065E0CE010E94681763E2CE010E9468179E
S11354A06BE1CE010E94681760E0CE010E9468178C
S11354B060E2CE010E942C1760E0CE010E946817C2
S11354C066E3CE010E942C176AE0CE010E946817A1
S11354D06AE3CE010E942C1765E5CE010E9468178D
S11354E06AE2CE010E942C1760E0CE010E94681788
S11354F060E0CE010E94681761E0CE010E94681747
S11355006FEDCE010E9468176BE2CE010E942C174A
S113551060E0CE010E94681760E0CE010E94681727
S113552061E0CE010E9468176FE3CE010E94681704
S113553062E370E080E090E00E94013469E2CE0111
S11355400E942C176CE20C94CA1C8C81813011F4DB
S11355501C8202C081E08C836FE0CE010E942C1774
S113556040E150E061E0CE010E9480176FE00C94AE
S1135570CA1C69EBCE010E942C176FEFCE010E946A
S1135580681763E8CE010E94681763E5CE010E94A4
S1135590681760EBCE010E942C176CE3CE010E94C9
S11355A0681761E0CE010E94681766EBCE010E9485
S11355B02C1764E9CE010E9468176CE6CE010E94A4
S11355C0681760E5CE010E94681761EBCE010E9466
S11355D02C1760E0CE010E94681761E0CE010E94A2
S11355E068176BE1CE010E94681763E0CE010E9448
S11355F0681761E0CE010E94681768E0CE010E943E
S1135600681767E7CE010E94681769E8CE010E9417
S1135610681760EECE010E942C1760E5CE010E944F
S1135620681767E7CE010E94681760E4CE010E9404
S1135630681768E0CE010E9468176FEBCE010E94E4
S1135640681760E0CE010E94681763E0CE010E94F3
S113565068176FE0CE010E94681760E0CE010E94D7
S1135660681761E0CE010E94681763E7CE010E94CB
S1135670681760E0CE010E94681762E7CE010E94BD
S1135680681763E0CE010E94681760EBCE010E94A8
S113569068176FE0CE010E94681768E0CE010E948F
S11356A0681760E0CE010E9468176FE0CE010E9487
S11356B068176AE3CE010E942C1765E0CE010E94B0
S11356C0681766E3CE010E942C1760ECCE010E949D
S11356D0681761E1CE010E942C1766E970E080E052
S11356E090E00E94013469E2CE010E942C1766E921
S11356F070E080E090E00E9401346DE2CE010E94EF
S11357002C1710E0612FCE010E9468171E5F103421
S1135710C9F710E0612FCE010E9468171F5F103493
S1135720C9F710E0612FCE010E9468171E5F103484
S1135730C9F76CE2CE010E942C1766E970E080E0A4
S113574090E00E940134EC89FD89908188A1892B25
S113575080838FEF888389831A821B8218AA1BA6F1
S11357601AA6DF91CF911F910F9108950F931F9364
S1135770FC0164812185328545815681611103C014
S113578089019A0101C08A0140E050E060E070E0C4
S11357900E948F171F910F910895CF92DF92EF927D
S11357A0FF920F931F93CF93DF93EC01EC89FD8954
S11357B0908188A1809589238083CE01D7DF8E854F
S11357C0813031F0E889F98990818E8D892B80832D
S11357D0EE854D815E816F81788589859A85AB855B
S11357E0BC85E031C1F49A01AB012F5F3F4F4F4FAD
S11357F05F4FBC01CD016F5F7F4F8F4F9F4F0E9462
S113580080368B019C0140E050E060E070E0CE0106
S11358100E9444124FC0E83021F0C12CD12C7601F3
S113582023C09A01AB012F5F3F4F4F4F5F4FBC0125
S1135830CD016F5F7F4F8F4F9F4F0E9480369B013A
S1135840AC0160E070E0CE010E94761333C02E8577
S1135850213031F140E060E0CE010E949D108FEFD5
S1135860C81AD80AE80AF80A8D819E81AF81B885E2
S11358709C01AD012F5F3F4F4F4F5F4F89859A8544
S1135880AB85BC85BC01CD016F5F7F4F8F4F9F4FB0
S11358900E948036C616D706E806F906C4F20AC086
S11358A021E040E061E0CE010E949D102E8540E0A1
S11358B061E0D2CFEC89FD89908188A1892B808316
S11358C0DF91CF911F910F91FF90EF90DF90CF90D8
S11358D00895FC01108280E090E0ACE5B3E481839C
S11358E09283A383B483158280E090E0A0E8B0E4BF
S11358F086839783A087B187128680E090E8ABE324
S1135900B6E483879487A587B68788E28787108A59
S1135910118A128A138A148A80E090E0A8E4B3E41E
S1135920858B968BA78BB08F84EB818F80E090E082
S1135930AAE7B3E4828F938FA48FB58F168E178E48
S113594010A211A212A28FEF83A314A215A208958C
S11359505058BB27AA270ED008C1F9D030F0FED08A
S113596020F031F49F3F11F41EF4EEC00EF4E095E4
S1135970E7FBE4C0E92F0AD180F3BA176207730783
S11359808407950718F071F49EF522C10EF4E09592
S11359900B2EBA2FA02D0B01B90190010C01CA01E5
S11359A0A0011124FF27591B99F0593F50F4503E90
S11359B068F11A16F040A22F232F342F4427585F82
S11359C0F3CF469537952795A795F0405395C9F79A
S11359D07EF41F16BA0B620B730B840BBAF0915052
S11359E0A1F0FF0FBB1F661F771F881FC2F70EC0F1
S11359F0BA0F621F731F841F48F4879577956795C4
S1135A00B795F7959E3F08F0B3CF9395880F08F0AC
S1135A109927EE0F9795879508956CD008F481E047
S1135A200895BCD088F09F5790F0B92F9927B751AB
S1135A30A0F0D1F0660F771F881F991F1AF0BA954E
S1135A40C9F712C0B13081F0C3D0B1E00895C0C02D
S1135A50672F782F8827B85F39F0B93FCCF3869544
S1135A6077956795B395D9F73EF4909580957095A1
S1135A7061957F4F8F4F9F4F0895E89409C097FB1E
S1135A803EF490958095709561957F4F8F4F9F4F11
S1135A909923A9F0F92F96E9BB279395F695879555
S1135AA077956795B795F111F8CFFAF4BB0F11F418
S1135AB060FF1BC06F5F7F4F8F4F9F4F16C08823BF
S1135AC011F096E911C0772321F09EE8872F762FF5
S1135AD005C0662371F096E8862F70E060E02AF036
S1135AE09A95660F771F881FDAF7880F9695879522
S1135AF097F90895990F0008550FAA0BE0E8FEEFF7
S1135B0016161706E807F907C0F012161306E4077D
S1135B10F50798F0621B730B840B950B39F40A2676
S1135B2061F0232B242B252B21F408950A2609F454
S1135B30A140A6958FEF811D811D089597F99F6758
S1135B4080E870E060E008959FEF80EC0895002401
S1135B500A941616170618060906089500240A94CE
S1135B6012161306140605060895092E0394000C54
S1135B7011F4882352F0BB0F40F4BF2B11F460FFE3
S1135B8004C06F5F7F4F8F4F9F4F089557FD90580C
S1135B90440F551F59F05F3F71F04795880F97FBED
S1135BA0991F61F09F3F79F08795089512161306A7
S1135BB01406551FF2CF4695F1DF08C016161706D6
S1135BC01806991FF1CF869571056105089408950B
S1135BD0E894BB2766277727CB0197F908958ADFD6
S1135BE008F48FEF08950BD0C0CFB1DF28F0B6DFF3
S1135BF018F0952309F0A2CFA7CF1124EACFC6DF6E
S1135C00A0F3959FD1F3950F50E0551F629FF001CB
S1135C10729FBB27F00DB11D639FAA27F00DB11D24
S1135C20AA1F649F6627B00DA11D661F829F2227AD
S1135C30B00DA11D621F739FB00DA11D621F839F34
S1135C40A00D611D221F749F3327A00D611D231F0A
S1135C50849F600D211D822F762F6A2F11249F5758
S1135C6050408AF0E1F088234AF0EE0FFF1FBB1F7B
S1135C70661F771F881F91505040A9F79E3F51051A
S1135C8070F05CCFA6CF5F3FECF3983EDCF38695D3
S1135C9077956795B795F795E7959F5FC1F7FE2BC5
S1135CA0880F911D9695879597F90895FC01918D1C
S1135CB0228D892F90E0805C9F4F821B91098F7306
S1135CC099270895FC01918D828D981731F0828D6A
S1135CD0E80FF11D858D90E008958FEF9FEF0895F3
