:100000000C94140A0C94450A0C94450A0C94450A65
:100010000C94450A0C94450A0C94450A0C94450A24
:100020000C94450A0C94450A0C94450A0C94450A14
:100030000C94450A0C94450A0C94450A0C94450A04
:100040000C94450A0C94450A0C94450A0C94450AF4
:100050000C948D190C94450A0C94450A0C94B747DE
:100060000C94450A0C949C450C94D2450C94450A7A
:100070000C94450A0C94450A0C94450A0C94450AC4
:100080000C94450A0C94450A0C94450A0C94450AB4
:100090000C94450A0C94450A0C94450A0C94653F4F
:1000A0000C94450A0C94450A0C94450A0C94450A94
:1000B0000C94450A0C94450A0C94450A0C94450A84
:1000C0000C94450A0C94450A0C94450A0C94450A74
:1000D0000C94450A0C94450A0C94450A0C94450A64
:1000E0000C94450A8D217622A821A821C1217622CF
:1000F0006E214B22E5217622F321F32110221022DA
:100100008D214B2276228D21F3214B22A8211F2203
:100110004B224B224B224B224B2238224B224B228A
:10012000E6225435B323B323452554354B287F2687
:10013000F8275435A529AE2A5A2C5A2CE622F73036
:100140005435E622812B5A2D3124232EF12EF730FF
:100150001E30B031F73256346A34F32605A84CCD40
:10016000B2D44EB93836A9020C50B9918688083CF1
:10017000A6AAAA2ABE000000803FDB48DE48CD4880
:10018000D148D7481549E248E648EC48F048F448D9
:10019000FA48FE480249154908490C4910490040EF
:1001A0007A10F35A00A0724E18090010A5D4E80086
:1001B00000E87648170000E40B54020000CA9A3B9E
:1001C000000000E1F5050000809698000000404224
:1001D0000F000000A08601000000102700000000B2
:1001E000E803000000006400000000000A000000B6
:1001F00000000100000000002C76D888DC674F0862
:1002000023DFC1DFAE59E1B1B796E5E3E453C63A67
:10021000E651997696E8E6C28426EB898C9B62EDDE
:10022000407C6FFCEFBC9C9F40F2BAA56FA5F49098
:10023000055A2AF75C936B6CF9676DC11BFCE0E40F
:100240000D47FEF520E6B500D0ED902E0300943565
:1002500077050080841E080000204E0A000000C8B8
:100260000C333333330F986E12831141EF8D211409
:10027000893BE65516CFFEE6DB18D1844B381BF7D9
:100280007C1D901DA4BBE424203284725E22810078
:10029000C9F124ECA1E53D271010205F000000000B
:1002A000000000000000000000000000000000004E
:1002B000000000000000000000000000000000003E
:1002C00007000F800F800F800F800F80070007004E
:1002D00000000000070007000700000000000E38C3
:1002E0000E380E380E380630000000000000000006
:1002F00000000000000000000000000000000C30C2
:100300000C300C307FFE7FFE0C300C300C300C308B
:100310007FFE7FFE0C300C300C30000000000240ED
:1003200002400FF81FF81A401A401FF00FF8025849
:1003300002581FF81FF002400240000000000000B9
:1003400000000E100E300E7000E001C003800700A8
:100350000E700C700870000000000000000000002B
:100360000F001980198019800F000F080F9819F8D5
:1003700018F018E019F00F980000000000000000CD
:100380000700070007000E0000000000000000004A
:10039000000000000000000000000000000000005D
:1003A00000F001C0038007000E000E000E000E00DA
:1003B0000700038001C000F0000000000000000002
:1003C0000F00038001C000E000700070007000703A
:1003D00000E001C003800F000000000000000000EA
:1003E00001801188099007E007E03FFC3FFC07E02F
:1003F00007E0099011880180000000000000000063
:10040000000000000180018001800FF00FF00180EA
:1004100001800180000000000000000000000000DA
:1004200000000000000000000000000000000000CC
:1004300000000700070007000E0000000000000099
:10044000000000000000000000001FF81FF800007E
:10045000000000000000000000000000000000009C
:10046000000000000000000000000000000000008C
:100470000000070007000700000000000000000067
:1004800000020006000E001C0038007000E001C0F1
:10049000038007000E001C000000000000000000A8
:1004A0000FF01C381C781CF81CF81DB81DB81F383C
:1004B0001F381E381C380FF000000000000000003C
:1004C0000180018003801F801F80038003800380E0
:1004D0000380038003801FF0000000000000000084
:1004E0000FE01C701C380038007000E001C0038071
:1004F00007000E381C381FF8000000000000000044
:100500000FE01C701C380038007003C003C000707E
:1005100000381C381C700FE00000000000000000D4
:1005200000E001E003E006E00CE018E01FF81FF82F
:1005300000E000E000E003F8000000000000000020
:100540001FF81C001C001C001C001FE01FF000789E
:1005500000381C381C700FE0000000000000000094
:1005600003E007000E001C001C001FF01FF81C38E1
:100570001C381C381C380FF0000000000000000080
:100580001FFC1C1C1C1C1C1C001C0038007000E004
:1005900001C0038003800380000000000000000011
:1005A0000FF01C381C381C381F3807E007E01CF817
:1005B0001C381C381C380FF0000000000000000040
:1005C0000FF01C381C381C381C381FF80FF8003886
:1005D0000038007000E007C00000000000000000CC
:1005E00000000000038003800380000000000380FF
:1005F00003800380000000000000000000000000F5
:1006000000000000038003800380000000000380DE
:10061000038003800700000000000000000000705D
:1006200000E001C0038007000E001C001C000E004B
:100630000700038001C000E000700000000000001F
:100640000000000000003FFC3FFC000000003FFCF9
:100650003FFC0000000000000000000000001C0043
:100660000E000700038001C000E00070007000E091
:1006700001C0038007000E001C000000000003C042
:100680000FF01E7818380038007000E001C001C07B
:100690000000000001C001C001C0000000000FF810
:1006A0001C1C1C1C1C1C1C1C1CFC1CFC1CFC1CFC0A
:1006B0001C001C001C001FF007F8000000000000D8
:1006C00003C007E00E701C381C381C381C381FF89B
:1006D0001C381C381C381C380000000000000000CA
:1006E0001FF00E380E380E380E380FF00FF00E389F
:1006F0000E380E380E381FF0000000000000000019
:1007000007F00E381C381C001C001C001C001C00CC
:100710001C001C380E3807F000000000000000002C
:100720001FE00E700E380E380E380E380E380E38A8
:100730000E380E380E701FE00000000000000000B0
:100740001FF80E180E080E000E300FF00FF00E30CE
:100750000E000E080E181FF8000000000000000038
:100760001FF80E180E080E000E300FF00FF00E30AE
:100770000E000E000E001F00000000000000000030
:1007800007F00E381C381C381C001C001C001CF81C
:100790001C381C380E3807F800000000000000006C
:1007A0001C701C701C701C701C701FF01FF01C70E3
:1007B0001C701C701C701C70000000000000000009
:1007C0000FE00380038003800380038003800380A5
:1007D0000380038003800FE00000000000000000A1
:1007E00001FC0070007000700070007000703870C4
:1007F0003870387038700FE0000000000000000012
:100800001E380E380E700EE00FC00F800F800FC024
:100810000EE00E700E381E380000000000000000D0
:100820001F000E000E000E000E000E000E000E0047
:100830000E080E180E381FF800000000000000001F
:100840001C1C1E3C1F7C1FFC1FFC1DDC1C9C1C1C5C
:100850001C1C1C1C1C1C1C1C0000000000000000B8
:100860001C1C1C1C1E1C1F1C1F9C1DDC1CFC1C7C3F
:100870001C3C1C1C1C1C1C1C000000000000000078
:1008800003E007F00E381C1C1C1C1C1C1C1C1C1C30
:100890001C1C0E3807F003E0000000000000000000
:1008A0001FF00E380E380E380E380FF00FF00E0015
:1008B0000E000E000E001F000000000000000000EF
:1008C00003E00F780E381C1C1C1C1C1C1C1C1C7C00
:1008D0001CFC0FF80FF8003800FC000000000000BE
:1008E0001FF00E380E380E380E380FF00FF00E7065
:1008F0000E380E380E381E380000000000000000D0
:100900000FF01C381C381C381C000FE007F00038B2
:100910001C381C381C380FF00000000000000000DC
:100920001FFC19CC11C401C001C001C001C001C02D
:1009300001C001C001C007F000000000000000007D
:100940001C701C701C701C701C701C701C701C7047
:100950001C701C701C700FE0000000000000000004
:100960001C701C701C701C701C701C701C701C7027
:100970001C700EE007C003800000000000000000B3
:100980001C1C1C1C1C1C1C1C1C1C1C9C1C9C1C9C27
:100990000FF80FF80770077000000000000000005B
:1009A0001C701C701C700EE007C00380038007C021
:1009B0000EE01C701C701C700000000000000000A5
:1009C0001C701C701C701C701C700EE007C0038033
:1009D0000380038003800FE000000000000000009F
:1009E0001FF81C381838107000E001C003800700A1
:1009F0000E081C181C381FF8000000000000000042
:100A000007F00700070007000700070007000700BE
:100A100007000700070007F00000000000000000CA
:100A2000100018001C000E000700038001C000E049
:100A300000700038001C00070000000000000000EB
:100A400007F000700070007000700070007000709F
:100A500000700070007007F00000000000000180CE
:100A600003C007E00E701C3800000000000000000A
:100A70000000000000000000000000000000000076
:100A80000000000000000000000000000000000066
:100A900000000000000000007FFF7FFF000000005A
:100AA0001C001C0007000700000000000000000000
:100AB0000000000000000000000000000000000036
:100AC00000000000000000000FE0007000700FF058
:100AD0001C701C701C700FD800000000000000008B
:100AE0001E000E000E000E000FF00E380E380E38ED
:100AF0000E380E380E381BF0000000000000000019
:100B000000000000000000000FE01C701C701C00C2
:100B10001C001C701C700FE00000000000000000B2
:100B200000F80070007000700FF01C701C701C70DA
:100B30001C701C701C700FD800000000000000002A
:100B400000000000000000000FE01C701C701FF08F
:100B50001C001C701C700FE0000000000000000072
:100B600003E007700770070007001FE01FE00700A1
:100B70000700070007001FC0000000000000000081
:100B800000000000000000000FD81C701C701C70DA
:100B90001C700FF007F000701C700FE000000000E8
:100BA0001E000E000E000E000EF00F380F380E382B
:100BB0000E380E380E381E3800000000000000000D
:100BC00001C001C001C000000FC001C001C001C0D0
:100BD00001C001C001C00FF80000000000000000CB
:100BE000007000700070000003F000700070007072
:100BF0000070007000701C700CF007E00000000036
:100C00001E000E000E000E000E380E700EE00FC01B
:100C10000EE00E700E381E380000000000000000CC
:100C20000FC001C001C001C001C001C001C001C0AE
:100C300001C001C001C00FF800000000000000006A
:100C400000000000000000001FF81C9C1C9C1C9C65
:100C50001C9C1C9C1C9C1C9C0000000000000000B4
:100C600000000000000000001FE01C701C701C70E1
:100C70001C701C701C701C70000000000000000044
:100C800000000000000000000FE01C701C701C70D1
:100C90001C701C701C700FE00000000000000000C1
:100CA00000000000000000001BF00E380E380E3867
:100CB0000E380E380FF00E000E001F00000000006E
:100CC00000000000000000001FB038E038E038E00D
:100CD00038E038E01FE000E000E001F00000000034
:100CE00000000000000000001EF00FF80F380E009A
:100CF0000E000E000E001F000000000000000000AB
:100D000000000000000000000FE01C301C300F80CD
:100D100003E0187018700FE00000000000000000F1
:100D200000000100030007001FF007000700070094
:100D300007000770077003E00000000000000000DB
:100D400000000000000000001C701C701C701C7073
:100D50001C701C701C700FD8000000000000000008
:100D600000000000000000001C701C701C701C7053
:100D70001C700EE007C003800000000000000000AF
:100D800000000000000000001C1C1C1C1C1C1C9C03
:100D90001C9C0FF8077007700000000000000000A6
:100DA00000000000000000001CE01CE00FC00780F5
:100DB00007800FC01CE01CE00000000000000000E5
:100DC00000000000000000000E380E380E380E380B
:100DD0000E3807F003E000E001C01F8000000000B3
:100DE00000000000000000001FE018E011C00380B8
:100DF00007000E201C601FE0000000000000000043
:100E000001F803800380038007001C001C0007001A
:100E100003800380038001F800000000000001C08F
:100E200001C001C001C001C001C001C001C001C0BA
:100E300001C001C001C001C001C0000000000000ED
:100E40001F8001C001C001C000E00038003800E090
:100E500001C001C001C01F800000000000000000B0
:100E60001F1C3B9C39DC38F800000000000000002B
:100E7000000000000000000000000000080C205FDF
:100E80000000000000000000000000000000202022
:100E900020202020002000000028505000000000EA
:100EA0000000000000002828FC2850FC50500000E2
:100EB000002078A8A0603028A8F02000000048A8F2
:100EC000B050283454480000000020505078A8A8A2
:100ED000906C000000404080000000000000000016
:100EE000000408101010101010080400004020101A
:100EF000101010101020400000000020A87070A8F2
:100F0000200000000000202020F820202000000009
:100F100000000000000000000040408000000000D1
:100F200000F80000000000000000000000000000C9
:100F300000400000000810101020204040408000B9
:100F40000000708888888888887000000000206011
:100F50002020202020700000000070888810204091
:100F600080F80000000070880830080888700000D1
:100F70000000103050509078101800000000F880E9
:100F800080F00808887000000000709080F0888869
:100F9000887000000000F890102020202020000021
:100FA0000000708888708888887000000000708851
:100FB00088887808487000000000000020000000C9
:100FC00000200000000000000020000000202000A1
:100FD0000004081020402010080400000000000059
:100FE000F80000F80000000000402010080408107D
:100FF00020400000000070888810202000200000A1
:101000000000708898A8A8B8807800000000202010
:101010003050507848CC00000000F04848704848F4
:1010200048F0000000007888808080808870000090
:101030000000F0484848484848F000000000F848E0
:101040005070504048F800000000F8485070504080
:1010500040E000000000384880809C884830000054
:101060000000CC484878484848CC00000000F820F0
:101070002020202020F8000000007C10101010100C
:101080001090E0000000EC485060505048EC000028
:101090000000E0404040404044FC00000000D8D840
:1010A000D8D8A8A8A8A800000000DC48686858584C
:1010B00048E80000000070888888888888700000F0
:1010C0000000F0484870404040E000000000708898
:1010D000888888E8987018000000F04848705048E8
:1010E00048EC0000000078888060100888F000005C
:1010F0000000F8A820202020207000000000CC482C
:1011000048484848483000000000CC48485050301B
:10111000202000000000A8A8A870505050500000E7
:101120000000D8505020205050D800000000D85067
:1011300050202020207000000000F8901020204057
:1011400048F80000003820202020202020203800EF
:1011500000404040202010101008000000701010C7
:10116000101010101010700000205000000000003F
:10117000000000000000000000000000000000FC73
:10118000002000000000000000000000000000003F
:1011900000304838483C00000000C04040704848DB
:1011A000487000000000000000384840403800004F
:1011B0000000180808384848483C000000000000BB
:1011C000003048784038000000001C2020782020A3
:1011D0002078000000000000003C4830407844388F
:1011E0000000C0404070484848EC0000000020006B
:1011F000006020202070000000001000003010105F
:10120000101010E00000C040405C507048EC00003E
:101210000000E0202020202020F800000000000036
:1012200000F0A8A8A8A800000000000000F04848AE
:1012300048EC000000000000003048484830000042
:101240000000000000F04848487040E00000000046
:10125000003848484838081C0000000000D86040AA
:1012600040E00000000000000078403008780000F6
:101270000000002020702020201800000000000046
:1012800000D84848483C00000000000000EC4850EE
:10129000302000000000000000A8A870505000009E
:1012A0000000000000D8502050D8000000000000CE
:1012B00000EC4850302020C00000000000781020D2
:1012C00020780000001810101020101010101800C6
:1012D00010101010101010101010101000602020AE
:1012E000201020202020600040A4180000000000F2
:1012F0000000000000000A0B02090C0D0E08070395
:1013000004010000000000000000000000000000D8
:1013100000000000000000000000000000000000CD
:10132000121110000000000000000000000000008A
:101330000000000000000000000001021020200852
:101340000810204010204080020102010804020120
:10135000010204081020408080402010080402018F
:1013600080040201804020100804020108040201E8
:10137000010204081020408001020408102040806F
:1013800005050505070508080808020202020A0A01
:10139000080804040404010101010101010103031F
:1013A000030303030303040707070C0C0C0C0C0CCA
:1013B0000C0C0202020206060606060606060B0BC7
:1013C0000B0B0B0B0B0B0000200023002600290049
:1013D0002C002F003200000100000301060109016A
:1013E00000002200250028002B002E0031003400D0
:1013F00002010000050108010B010000210024008A
:1014000027002A002D0030003300010100000401F4
:1014100007010A01D10C1414131697177D410446D5
:10142000970DDA14D916A61811241FBECFEFD1E2FA
:10143000DEBFCDBF00E00CBF13E0A0E0B2E0E6E805
:10144000FFE900E00BBF02C007900D92AE39B10773
:10145000D9F72AE0AEE9B3E001C01D92AC32B20781
:10146000E1F71AE0C0E1DAE000E006C021970109E7
:10147000802FFE010E94044BCA30D10780E008078C
:10148000A9F70E9432460C94B24F0C940000CF93FF
:10149000DF93EC01C5D31D8A1E8A8CED90E0988FF6
:1014A0008F8B198E80E991E09B8F8A8F1C8E80E450
:1014B0009FE19E8F8D8F88E28F8F18A21AA219A2AA
:1014C00088EC90E09CA38BA384EB8DA38AEF90E043
:1014D0009FA38EA318A619A61AA61BA68FE78CA7F2
:1014E0001DA61EA61FA6CE01C0969AD3CE018B5B69
:1014F0009F4F96D3CE01865A9F4F92D3CE018159EA
:101500009F4F8ED3FE01E057FF4F81E080833196DD
:101510008083CC57DF4F188262E08EE0DF91CF915D
:101520000C941649FC01EA57FF4FA081B1819C91B0
:101530009F5F9C930190F081E02D8081853008F0C1
:1015400010820895CF93DF93EC01FC01EA57FF4F1F
:101550000190F081E02D8081823009F450C0D0F4F8
:101560008823B9F1813009F082C045E061E0CE0105
:10157000C09679D344E150E061E070E0CE018B5B2E
:101580009F4F6BD345E061E0CE01865A9F4F6BD3EE
:1015900045E066C0833009F451C0843009F067C06B
:1015A00045E061E0CE01C09662D345E061E0CE0146
:1015B0008B5B9F4F58D345E061E0CE01865A9F4F29
:1015C00056D345E061E0CE0181599F4FDF91CF9125
:1015D0004AC341E061E0CE01C09645D344E150E00A
:1015E00061E070E0CE018B5B9F4F37D341E061E05B
:1015F000CE01865A9F4F37D344E650E017C044E1EE
:1016000050E061E070E0CE01C09627D344E150E0A5
:1016100061E070E0CE018B5B9F4F1FD344E161E03E
:10162000CE01865A9F4F1FD344E150E061E070E045
:10163000CE0181599F4FDF91CF910FC345E061E00B
:10164000CE01C09610D345E061E0CE018B5B9F4F89
:101650000AD345E061E0CE01865A9F4F04D341E0B2
:1016600061E0CE0181599F4FDF91CF9100C3DF919F
:10167000CF9108950F931F93CF93DF93EC01FC015B
:10168000EA57FF4F7183608383E090E00E943E46FB
:101690008C0143E062E00E945319FE01E857FF4FBE
:1016A0001183008342E1B801CE01C096CED283E01F
:1016B00090E00E943E468C0145E064E00E94531990
:1016C000FE01E657FF4F1183008341E1B801CE01CF
:1016D0008B5B9F4FBAD283E090E00E943E468C0124
:1016E00047E066E00E945319FE01E457FF4F118363
:1016F000008340E1B801CE01865A9F4FA6D283E015
:1017000090E00E943E468C0149E068E00E94531937
:10171000FE01E257FF4F118300834FE0B801CE0175
:1017200081599F4F92D2CE01DF91CF911F910F919E
:1017300009CFEF92FF920F931F93CF93DF93EC01AA
:101740008EE00E9480498E0100571F4F21E0892BB7
:1017500009F420E0F80120836AE070E080E090E086
:101760000E942648F80180819E012F563F4F790143
:1017700081110DC0F9018081882349F0CE01D2DEAC
:10178000FE01EC57FF4F81E08083CE01DBDEF801E4
:101790008081F7018083DF91CF911F910F91FF909E
:1017A000EF900895C6CF0F931F93CF93DF93EC0173
:1017B0008C010A571F4FD801ED91FC918081823036
:1017C00009F48AC060F5882309F45CC0813009F00F
:1017D000E3C0BF01695F7F4F2FEF40E0CE01C096AD
:1017E000F0D2D8016D917C91685F7F4F20EE3EE290
:1017F0004EE150E0CE018B5B9F4F3DD2F8016081FE
:101800007181665F7F4F2FEF40E0CE01865A9F4F78
:10181000D8D2D8016D917C91655F7F4FB3C0833082
:1018200009F48DC0843009F0B7C0BF01695E7F4FF5
:101830002FE741E8CE01C0967AD2F801608171812C
:10184000685E7F4F2FEF40E0CE018B5B9F4FB9D298
:10185000D8016D917C91675E7F4F2FE741E8CE0103
:10186000865A9F4F64D2F80160817181665E7F4F16
:101870002FE040E0CE0181599F4FDF91CF911F9122
:101880000F919FC2BF016F5F7F4F23E040E0CE0109
:10189000C09697D2F801608171816E5F7F4F20E41E
:1018A0003FE14EE150E0CE018B5B9F4FE4D1D80188
:1018B0006D917C916C5F7F4F23E040E0CE01865AB2
:1018C0009F4F7FD2F801608171816B5F7F4F20EC69
:1018D00032E144E650E02BC0BF01645F7F4F20E758
:1018E00037E140E050E0CE01C096C5D1F8016081FB
:1018F0007181625F7F4F20E737E140E050E0CE0129
:101900008B5B9F4FB8D1D8016D917C91605F7F4F09
:101910002FEF40E0CE01865A9F4F53D2F8016081ED
:1019200071816F5E7F4F20E737E140E050E0CE01EC
:1019300081599F4FDF91CF911F910F919CC1BF01A2
:101940006D5E7F4F27E040E0CE01C0963AD2D801CD
:101950006D917C916C5E7F4F2FEF40E0CE018B5BF1
:101960009F4F2FD2F801608171816B5E7F4F2FEF07
:1019700040E0CE01865A9F4F24D2D8016D917C91D0
:101980006A5E7F4F2FE741E8CE0181599F4FDF917B
:10199000CF911F910F91CBC1DF91CF911F910F91EB
:1019A0000895CF93DF9366EA72E08EE594E00E949B
:1019B0000F4A6BEA72E084E694E00E940F4A60EB03
:1019C00072E08AE694E00E940F4A65EB72E080E7DD
:1019D00094E00E940F4A68EB72E086E794E00E9470
:1019E0000F4A6EEB72E086E494E00E940F4A64ECCA
:1019F00072E08CE494E00E940F4A6AEC72E082E5A7
:101A000094E00E940F4A64EC72E088E594E00E9442
:101A10000F4A6FEC72E08EE294E00E940F4A64EC91
:101A200072E084E394E00E940F4A65ED72E08AE37D
:101A300094E00E940F4A6AEC72E080E494E00E9415
:101A40000F4A6AED72E086E194E00E940F4A6FED62
:101A500072E08CE194E00E940F4A64EE72E082E250
:101A600094E00E940F4A69EE72E088E294E00E94DE
:101A70000F4A6FEC72E08EEF93E00E940F4A6EEE19
:101A800072E084E094E00E940F4A63EF72E08AE023
:101A900094E00E940F4A6AEC72E080E194E00E94B8
:101AA0000F4A6AEF72E086EE93E00E940F4A64E00C
:101AB00073E08CEE93E00E940F4A6CE073E082EFDB
:101AC00093E00E940F4A65E173E088EF93E00E9483
:101AD0000F4A6DE173E08EEC93E00E940F4A61E2E1
:101AE00073E084ED93E00E940F4A65E273E08AEDB3
:101AF00093E00E940F4A69E273E080EE93E00E9457
:101B00000F4A6DE273E08EE993E00E940F4AC0E055
:101B1000D0E0269660E973E0CE0182569C4F0E9489
:101B20000F4ACA32D105A9F7DF91CF910895CF931B
:101B3000DF93CEECD3E02697CE010E94A84983E044
:101B4000CE39D807C1F780EE93E00E94A8498AED0C
:101B500093E00E94A84984ED93E00E94A8498EEC8E
:101B600093E00E94A84988EF93E00E94A84982EF81
:101B700093E00E94A8498CEE93E00E94A84986EE6B
:101B800093E00E94A84980E194E00E94A8498AE07D
:101B900094E00E94A84984E094E00E94A8498EEF56
:101BA00093E00E94A84988E294E00E94A84982E25A
:101BB00094E00E94A8498CE194E00E94A84986E143
:101BC00094E00E94A84980E494E00E94A8498AE336
:101BD00094E00E94A84984E394E00E94A8498EE220
:101BE00094E00E94A84988E594E00E94A84982E513
:101BF00094E00E94A8498CE494E00E94A84986E4FD
:101C000094E00E94A849CCE7D4E02697CE010E9438
:101C1000A84984E0CE35D807C1F7DF91CF91089568
:101C2000CF93DF93EC010E94521981E090E09887F6
:101C30008F838AE090E09A87898791E09B878C87E1
:101C40009D878E87DF91CF910895FC017583648312
:101C5000468362E0842F0C941649FC0170876783E9
:101C6000528741870895FC01638744870895FC01EA
:101C7000658746870895CF92DF92EF92FF920F9388
:101C80001F93CF93DF93EC017B018A0169018E8161
:101C90000E94804921E0892B09F420E02C8B8C8163
:101CA0009D810E946C198B8B8031D9F48C8988239B
:101CB00019F029853A8502C02F813885F701808186
:101CC0009181820F931F8017910728F0C816D906BB
:101CD00018F4C60101C0C801F7019183808381E037
:101CE0008B838B898032D1F48C89882319F02985E4
:101CF0003A8502C02F813885F70180819181821B4E
:101D0000930B8017910728F086018C159D0508F428
:101D10008C01F7011183008381E08B83DF91CF91E8
:101D20001F910F91FF90EF90DF90CF900895EF9269
:101D3000FF920F931F93CF93DF93EC017B01142F3E
:101D4000022F8E810E94804921E0892B09F420E036
:101D50002C8B8C819D810E946C198B8B8031A1F41E
:101D60008C89882311F09E8501C09D85F7018081B3
:101D7000890F811724F008171CF4802F01C0812FD0
:101D8000F701808381E08B838B89803299F48C8981
:101D9000882311F09E8501C09D85F7018081891BF4
:101DA000811724F0102F80170CF4182FF7011083DF
:101DB00081E08B83DF91CF911F910F91FF90EF9086
:101DC0000895EF92FF920F931F93CF93DF93EC014F
:101DD0007B01142F022F8E810E94804921E0892BE4
:101DE00009F420E02C8B8C819D810E946C198B8BD7
:101DF0008031A1F48C89882311F09C8501C09B85DA
:101E0000F7018081890F811720F0081718F4802FBF
:101E100001C0812FF701808381E08B838B89803221
:101E200099F48C89882311F09C8501C09B85F7016A
:101E30008081891B811720F0102F801708F4182F3C
:101E4000F701108381E08B83DF91CF911F910F9178
:101E5000FF90EF900895FC01108211828CED90E0CC
:101E600093838283148280E991E09683858317822D
:101E700080E49FE19187808788E2828713861586B8
:101E8000148688EC90E09787868784EB808B8AEFB6
:101E900090E0928B818B138A148A158A168A8FE7B9
:101EA000878B108E118E128E80E683A388E784A321
:101EB00087E285A308950F931F93FC0112A301A34A
:101EC000748F638F568F458F30A3278F1F910F918B
:101ED00008958F929F92AF92BF92CF92DF92EF922E
:101EE000FF920F931F93CF93DF9300D000D0CDB715
:101EF000DEB77C01DC015F966D917C9190975B96DB
:101F00008D919C915C970E94E63E60E078EFF7012E
:101F1000838D948D0E941A36D70195960C919597D2
:101F200010E02FED31E040E050E060E070E05B96C3
:101F30008D919C915C970E94F4368CE3A82E85E0ED
:101F4000B82EC12CD12CD7019196ED91FC9192978E
:101F5000208130E05B968D919C915C97F6013196E3
:101F60004F0160E070E02C153D0509F456C00E9459
:101F70001A36D70193968C91939790E095960C9191
:101F8000959710E003501109889E9001899E300DAD
:101F9000989E300D1124235031098C9DB0018D9DE8
:101FA000700D9C9D700D11246D5F7F4F43E050E0DC
:101FB0005B968D919C915C970E94F43660E078EF7F
:101FC000F701838D948D0E941A3640E050E0BA01EB
:101FD000D7015B968D919C915C970E941E36F7010C
:101FE00023A12C9DC0012D9D900D11246C01F3E0C7
:101FF000CF0ED11CB501CE0101960E94384A00E0F7
:1020000010E02AE030E0A601BE016F5F7F4FD701EC
:102010005B968D919C915C9727C00E941A3640E098
:1020200058EF6FEF7FEFF701838D948D0E941E367E
:10203000D70193962C912C9DC0012D9D900D1124BC
:102040006C01B3E0CB0ED11CB501CE0101960E940C
:10205000384A00E010E02AE030E0A601BE016F5FE0
:102060007F4FF701838D948D0E94FE3BCE01019638
:102070000E94A8496401F6E0AF0EB11C25E082166B
:10208000910409F060CF26960FB6F894DEBF0FBE1C
:10209000CDBFDF91CF911F910F91FF90EF90DF9017
:1020A000CF90BF90AF909F908F9008954F925F9286
:1020B0006F927F928F929F92AF92BF92CF92DF9258
:1020C000EF92FF920F931F93CF93DF9300D000D036
:1020D000CDB7DEB77C015B01C12CD12C8DE4482E3D
:1020E0005524539460E078EFF701838D948D0E941E
:1020F0001A3640E050E0BA01F701838D948D0E94BA
:102100001E36F70185A13201681A710884A18C9DE1
:1021100040018D9D900C1124F5E08F0E911CB501AE
:10212000CE0101960E94384A00E010E09301A4011C
:10213000BE016F5F7F4FF701838D948D0E94FE3B40
:10214000CE0101960E94A849FFEFCF1ADF0A86E070
:10215000A80EB11CE4E0CE16D10421F626960FB6E7
:10216000F894DEBF0FBECDBFDF91CF911F910F91CD
:10217000FF90EF90DF90CF90BF90AF909F908F90A7
:102180007F906F905F904F900895CF92DF92EF9283
:10219000FF920F931F93CF93DF93EC016D8D7E8D94
:1021A0008B8D9C8D0E94E63E60E078EF8B8D9C8D40
:1021B0000E941A368DA14FE351E0481B51090FE3ED
:1021C00011E02FED31E060E070E08B8D9C8D0E947E
:1021D000F43660E070E08B8D9C8D0E941A36E12C05
:1021E000F12C82E4C82EDD24D3948CA190E02FEF53
:1021F000E21AF20A8E9DB0018F9D700D9E9D700DAA
:1022000011249B01235031094DA1F601E41BF10972
:10221000AF01681B790B6D5F7F4F0CE311E08B8D75
:102220009C8D0E94F436F4E0EF16F104F1F6E9A17A
:10223000FAA18081823091F038F4882361F08130F6
:10224000E1F46CE075E00FC0833059F08430A9F4FC
:1022500064EC74E008C064E275E005C064EF74E00B
:1022600002C06CED74E0CE01DF91CF911F910F9110
:10227000FF90EF90DF90CF9019CFDF91CF911F911A
:102280000F91FF90EF90DF90CF900895CF93DF9361
:10229000EC017BDFCE01DF91CF911BCE6F927F925D
:1022A0008F929F92AF92BF92CF92DF92EF92FF9266
:1022B0000F931F93CF93DF9300D000D0CDB7DEB73D
:1022C0003C01DC015D966D917C915E975B968D91F2
:1022D0009C915C970E94E63E60E078EFF301838D6D
:1022E000948D0E941A3640E050E0BA01D3015B960B
:1022F0008D919C915C970E941E36D3019196ED9131
:10230000FC9192978081823009F4A1C108F06CC0E1
:10231000882309F4DAC0813009F071C2D30195969F
:102320008C9195971DE4C12EDD24D3949601281B32
:10233000310994964C919497469550E04D5F5F4FCC
:1023400000E2E02E00E010E067815B968D919C91A9
:102350005C970E94E93CF30184A195A19601291B99
:102360003109482F50E04D5F5F4F8695480F511D52
:1023700001A0F2A1E02D60857185D3015B968D915E
:102380009C915C970E94443CF30184A195A1960125
:10239000291B3109482F50E0440F551F4D5F5F4FF7
:1023A0008695480F511D01A0F2A1E02D6285D30151
:1023B0005B968D919C915C970E94E93CF30184A10E
:1023C00095A19601291B3109F3E08F9FA0011124EB
:1023D0004D5F5F4F8695480F511DD3019196ED914A
:1023E000FC919297638505C2833009F49EC18430C5
:1023F00009F005C2D30195968C9195979DE4C92E5D
:10240000DD24D3949601281B310994964C9194971E
:10241000469550E04D5F5F4F60E2E62E00E010E031
:1024200067895B968D919C915C970E948E3DF3012C
:1024300084A195A19601291B3109482F50E04D5FD9
:102440005F4F8695480F511D01A0F2A1E02D608DD0
:10245000D3015B968D919C915C970E94E93CF301BE
:1024600084A195A19601291B3109482F50E0440F02
:10247000551F4D5F5F4F8695480F511D01A0F2A17A
:10248000E02D618DD3015B968D919C915C970E94AC
:102490008E3DF30184A195A19601291B3109F3E03A
:1024A0008F9FA00111244D5F5F4F8695480F511DEE
:1024B000D3019196ED91FC919297628D5B968D91EF
:1024C0009C915C970E94E93C9AC1D30195968C91AE
:1024D00095972DE4A22EBB24B3947501E81AF10858
:1024E0009496CC90C694D12CB3E0CB0ED11C6181D4
:1024F00036E0932E969EB001112464557B4FCE0199
:1025000001960E94384A00E010E09701A601BE0142
:102510006F5F7F4FF301838D948D0E94FE3BCE0150
:1025200001960E94A849D30194968C919497959610
:102530009C9195979501291B3109482F50E04D5FDB
:102540005F4F8695480F511D9196ED91FC919297A2
:1025500062817381E0E2EE2E5B968D919C915C9797
:102560000E94443CF30185A17501E81AF10884A199
:10257000C82ED12CCC0CDD1CF3E0CF0ED11C8695DF
:10258000C80ED11CD3019196ED91FC919297648174
:10259000969EB001112464557B4FCE0101960E9496
:1025A000384A9701A601BE016F5F7F4FF301838D0B
:1025B000948D0E94FE3BCE0101960E94A849D30152
:1025C0009196ED91FC9192976581768180E090E003
:1025D0000E94AF4220E030E048EC52E40E941642F4
:1025E000AB01BC0122E030E082E899E00E94A747FD
:1025F000F30184A195A17501E91AF108F3E08F9F19
:10260000800111240D5F1F4F8695080F111DD30106
:102610009196ED91FC9192976581768180E090E0B2
:102620000E94AF4220E030E048EC52E40E941642A3
:10263000AB01BC01A0E28A2EA12CB12CBEE2CB2EB4
:1026400022E0F301838D948D0E94623ED8C0D301B5
:1026500095968C9195972DE4C22EDD24D394960106
:10266000281B310994964C919497469550E04D5F04
:102670005F4F64857585E0E2EE2E00E010E05B962A
:102680008D919C915C970E94443CF30184A195A19B
:102690009601291B3109482F50E04D5F5F4F869509
:1026A000480F511D01A0F2A1E02D66857785D30169
:1026B0005B968D919C915C970E94443CF30184A1B0
:1026C00095A19601291B3109482F50E0440F551F51
:1026D0004D5F5F4F8695480F511D01A0F2A1E02D7F
:1026E0006089D3015B968D919C915C970E94E93C37
:1026F000F30184A195A19601291B3109F3E08F9F75
:10270000A00111244D5F5F4F8695480F511DD301E5
:102710009196ED91FC919297618972895B968D916A
:102720009C915C970E94443C6AC0D30195968C9121
:1027300095971DE4C12EDD24D3949601281B310901
:1027400094964C919497469550E04D5F5F4F00E210
:10275000E02E00E010E063895B968D919C915C9780
:102760000E94E93CF30184A195A19601291B31093E
:10277000482F50E04D5F5F4F8695480F511D01A0D7
:10278000F2A1E02D6489D3015B968D919C915C97B9
:102790000E94E93CF30184A195A19601291B31090E
:1027A000482F50E0440F551F4D5F5F4F8695480FEF
:1027B000511D01A0F2A1E02D6589D3015B968D9199
:1027C0009C915C970E94E93CF30184A195A196013C
:1027D000291B3109F3E08F9FA00111244D5F5F4F4A
:1027E0008695480F511DD3019196ED91FC919297DA
:1027F00066895B968D919C915C970E948E3D269692
:102800000FB6F894DEBF0FBECDBFDF91CF911F9101
:102810000F91FF90EF90DF90CF90BF90AF909F907F
:102820008F907F906F900895CF93DF9366EA72E068
:102830008CE395E00E940F4A6BEA72E082E495E037
:102840000E940F4A60EB72E088E495E00E940F4A14
:1028500065EB72E08EE495E00E940F4A68EB72E04F
:1028600084E595E00E940F4A6EEB72E084E295E009
:102870000E940F4A64EC72E08AE295E00E940F4ADF
:102880006AEC72E080E395E00E940F4A64EC72E02B
:1028900086E395E00E940F4A6FEC72E08CE095E0D1
:1028A0000E940F4A64EC72E082E195E00E940F4AB8
:1028B00065ED72E088E195E00E940F4A6AEC72E0F3
:1028C0008EE195E00E940F4A6AED72E084EF94E099
:1028D0000E940F4A6FED72E08AEF94E00E940F4A67
:1028E00064EE72E080E095E00E940F4A69EE72E0CB
:1028F00086E095E00E940F4A6FEC72E08CED94E068
:102900000E940F4A6EEE72E082EE94E00E940F4A3F
:1029100063EF72E088EE94E00E940F4A6AEC72E086
:102920008EEE94E00E940F4A6AEF72E084EC94E02D
:102930000E940F4A64E073E08AEC94E00E940F4A20
:102940006CE073E080ED94E00E940F4A65E173E073
:1029500086ED94E00E940F4A6DE173E08CEA94E00A
:102960000E940F4A61E273E082EB94E00E940F4AFA
:1029700065E273E088EB94E00E940F4A69E273E03D
:102980008EEB94E00E940F4A6DE273E08CE794E0D6
:102990000E940F4AC0E0D0E0269660E973E0CE01C5
:1029A00084589B4F0E940F4ACA32D105A9F7DF9184
:1029B000CF910895CF93DF93CCEAD4E02697CE0150
:1029C0000E94A84984E0CC37D807C1F78EEB94E089
:1029D0000E94A84988EB94E00E94A84982EB94E009
:1029E0000E94A8498CEA94E00E94A84986ED94E0F0
:1029F0000E94A84980ED94E00E94A8498AEC94E0E6
:102A00000E94A84984EC94E00E94A8498EEE94E0CC
:102A10000E94A84988EE94E00E94A84982EE94E0C2
:102A20000E94A8498CED94E00E94A84986E095E0B8
:102A30000E94A84980E095E00E94A8498AEF94E0AE
:102A40000E94A84984EF94E00E94A8498EE195E095
:102A50000E94A84988E195E00E94A84982E195E09A
:102A60000E94A8498CE095E00E94A84986E395E081
:102A70000E94A84980E395E00E94A8498AE295E077
:102A80000E94A84984E295E00E94A849CAE5D5E0E1
:102A90002697CE010E94A84985E0CC33D807C1F71C
:102AA000DF91CF910895CF93DF93EC010E94311F06
:102AB000CE01C196D0D9CE01895A9F4F0E94804144
:102AC000CE0184589F4F0E94311FCE0183559F4FE6
:102AD000C2D9CE018D529F4FDF91CF910C9480418E
:102AE0008F929F92AF92BF92CF92DF92EF92FF921E
:102AF0000F931F93CF93DF93EC015C018AE7A80E3D
:102B0000B11CD5016D937C9381E390E00E943E4619
:102B10004C01C12CD12C89E2E82EF12C08E210E006
:102B200027E230E046E250E065E1C4010E94321F36
:102B30007E01BCE7EB0EF11C81E3F401D7010190AB
:102B40000D928A95E1F761E0C7010E948122C35589
:102B5000DF4FD501ED91FC91EA57FF4F00811181C4
:102B600028E932E04CE75EE0B701CE01A4D9C70105
:102B70000E947E35CE018ADBCE01DF91CF911F917D
:102B80000F91FF90EF90DF90CF90BF90AF909F900C
:102B90008F9084CBEF92FF920F931F93CF93DF938D
:102BA0008C01EC01C658DF4FE881F981EC57FF4FEB
:102BB0008081882369F078018DEAE80EF11CC70155
:102BC00065DBC7016BDBE881F981EC57FF4F1082B1
:102BD000E881F98183A981110FC0DF01A85BBF4F94
:102BE0008C91811109C055968C91811105C0EE58C8
:102BF000FF4F8081882381F0C80183559F4F4EDBB2
:102C0000E881F98113AADF01A85BBF4F1C9255969A
:102C10001C92EE58FF4F1082DF91CF911F910F91C0
:102C2000FF90EF900895CF93DF9366EA72E08AE118
:102C300096E00E940F4A6BEA72E080E296E00E9402
:102C40000F4A60EB72E086E296E00E940F4A65EB65
:102C500072E08CE296E00E940F4A68EB72E082E339
:102C600096E00E940F4A6EEB72E082E096E00E94CE
:102C70000F4A64EC72E088E096E00E940F4A6AEC2A
:102C800072E08EE096E00E940F4A64EC72E084E10C
:102C900096E00E940F4A6FEC72E08AEE95E00E9487
:102CA0000F4A64EC72E080EF95E00E940F4A65EDF8
:102CB00072E086EF95E00E940F4A6AEC72E08CEFBA
:102CC00095E00E940F4A6AED72E082ED95E00E9465
:102CD0000F4A6FED72E088ED95E00E940F4A64EEB6
:102CE00072E08EED95E00E940F4A69EE72E084EE8C
:102CF00095E00E940F4A6FEC72E08AEB95E00E942B
:102D00000F4A6EEE72E080EC95E00E940F4A63EF8E
:102D100072E086EC95E00E940F4A6AEC72E08CEC5F
:102D200095E00E940F4A6AEF72E082EA95E00E9405
:102D30000F4A64E073E088EA95E00E940F4A6CE075
:102D400073E08EEA95E00E940F4A65E173E084EB40
:102D500095E00E940F4A6DE173E08AE895E00E94D9
:102D60000F4A61E273E080E995E00E940F4A65E254
:102D700073E086E995E00E940F4A69E273E08CE90E
:102D800095E00E940F4A6DE273E08AE595E00E94AB
:102D90000F4AC0E0D0E0269660E973E0CE01865A83
:102DA0009A4F0E940F4ACA32D105A9F7DF91CF91FD
:102DB0000895CF93DF93CAE8D5E02697CE010E940D
:102DC000A84985E0CA35D807C1F78CE995E00E948B
:102DD000A84986E995E00E94A84980E995E00E940B
:102DE000A8498AE895E00E94A84984EB95E00E94F2
:102DF000A8498EEA95E00E94A84988EA95E00E94D9
:102E0000A84982EA95E00E94A8498CEC95E00E94CE
:102E1000A84986EC95E00E94A84980EC95E00E94C4
:102E2000A8498AEB95E00E94A84984EE95E00E94AB
:102E3000A8498EED95E00E94A84988ED95E00E9492
:102E4000A84982ED95E00E94A8498CEF95E00E9488
:102E5000A84986EF95E00E94A84980EF95E00E947E
:102E6000A8498AEE95E00E94A84984E196E00E9474
:102E7000A8498EE096E00E94A84988E096E00E946A
:102E8000A84982E096E00E94A849C8E3D6E02697C8
:102E9000CE010E94A84986E0CA31D807C1F7DF9168
:102EA000CF9108958EE297E00C94D30B26E040E09A
:102EB00051EE60E070E082E899E00E94394568E0F8
:102EC00070E08DE299E00E94774160EC77E08EE25D
:102ED00097E00E943A0B6EE277E088E396E000DE2E
:102EE00048EE53E060E070E089EB98E0A9D22FEF64
:102EF0003FEFA90162E577E189EB98E0B6C28EE287
:102F000097E00E94D20B89EB98E0A0D26FE179E1C3
:102F10008DE299E00E94784188E396E03BDE2FEF56
:102F20003FEFA90162E577E189EB98E09EC2CF937C
:102F3000DF9366EA72E08BE998E00E940F4A6BEA41
:102F400072E081EA98E00E940F4A60EB72E087EA43
:102F500098E00E940F4A65EB72E08DEA98E00E94CB
:102F60000F4A68EB72E083EB98E00E940F4A6EEB29
:102F700072E083E898E00E940F4A64EC72E089E80E
:102F800098E00E940F4A6AEC72E08FE898E00E9495
:102F90000F4A64EC72E085E998E00E940F4A6FECFA
:102FA00072E08BE698E00E940F4A64EC72E081E7E1
:102FB00098E00E940F4A65ED72E087E798E00E9472
:102FC0000F4A6AEC72E08DE798E00E940F4A6AEDC2
:102FD00072E083E598E00E940F4A6FED72E089E5A8
:102FE00098E00E940F4A64EE72E08FE598E00E943C
:102FF0000F4A69EE72E085E698E00E940F4A6FEC96
:1030000072E08BE398E00E940F4A6EEE72E081E47A
:1030100098E00E940F4A63EF72E087E498E00E9414
:103020000F4A6AEC72E08DE498E00E940F4A6AEF62
:1030300072E083E298E00E940F4A64E073E089E264
:1030400098E00E940F4A6CE073E08FE298E00E94E3
:103050000F4A65E173E085E398E00E940F4A6DE155
:1030600073E08BE098E00E940F4A61E273E081E137
:1030700098E00E940F4A65E273E087E198E00E94C1
:103080000F4A69E273E08DE198E00E940F4A6DE219
:1030900073E08BED97E00E940F4AC0E0D0E02696E7
:1030A00060E973E0CE018552984F0E940F4ACA3200
:1030B000D105A9F71092C0071092C1078CED90E0DE
:1030C0009093C3078093C2071092C40780E991E0F0
:1030D0009093C6078093C5071092C70780E49FE1CD
:1030E0009093C9078093C80788E28093CA0710921B
:1030F000CB071092CD071092CC0788EC90E090930C
:10310000CF078093CE0784EB8093D0078AEF90E0BF
:103110009093D2078093D1071092D3071092D407CF
:103120001092D5071092D6078FE78093D707109299
:10313000D8071092D9071092DA078EE297E00E9422
:10314000470A88E396E0DF91CF91ADCCCF93DF9330
:10315000CBE0D8E02697CE010E94A84987E0CB3D7E
:10316000D807C1F78DE198E00E94A84987E198E06F
:103170000E94A84981E198E00E94A8498BE098E06C
:103180000E94A84985E398E00E94A8498FE298E050
:103190000E94A84989E298E00E94A84983E298E049
:1031A0000E94A8498DE498E00E94A84987E498E02D
:1031B0000E94A84981E498E00E94A8498BE398E026
:1031C0000E94A84985E698E00E94A8498FE598E00A
:1031D0000E94A84989E598E00E94A84983E598E003
:1031E0000E94A8498DE798E00E94A84987E798E0E7
:1031F0000E94A84981E798E00E94A8498BE698E0E0
:103200000E94A84985E998E00E94A8498FE898E0C3
:103210000E94A84989E898E00E94A84983E898E0BC
:103220000E94A849C9EBD8E02697CE010E94A84980
:1032300088E0CB39D807C1F7DF91CF910895CF93BC
:103240006091C00761111DC080916107882319F04A
:10325000C091C10702C0C0E060E880917607882372
:1032600019F0C091C20760E180918B07882319F0A3
:10327000C091C40760E28091A007882321F060E339
:1032800002C0C0E060E88DE299E00E9421416C2F0D
:103290008DE299E00E94214160E08DE299E0CF91BA
:1032A0000C9421410895CF93DF93EC01862F69831D
:1032B0004A8360E00E94164960E08A810E941649B4
:1032C00061E089810E94524961E08A810E945249ED
:1032D0001882DF91CF9108950F931F93CF93DF93BF
:1032E000EC018A810E9480498C0189810E94804979
:1032F000E881EF70000F111F802B94E0E99FF0012F
:103300001124EE5AFC4FE80FF11D808188838073F1
:10331000DF91CF911F910F9108951F920F920FB6D9
:103320000F9211240BB60F922F933F934F935F93FD
:103330006F937F938F939F93AF93BF93EF93FF937D
:10334000E091BD08F091BE081995FF91EF91BF91F2
:10335000AF919F918F917F916F915F914F913F912D
:103360002F910F900BBE0F900FBE0F901F901895CE
:10337000FC01A3E0440F551F661F771FAA95D1F7E4
:103380004115510581E06807710514F481E00EC014
:1033900033E075956795579547953A95D1F741155F
:1033A000510581E0680771051CF482E0828331C019
:1033B00023E075956795579547952A95D1F741155F
:1033C000510581E06807710514F483E0EFCF92E0C6
:1033D00075956795579547959A95D1F7411551057C
:1033E00081E06807710514F484E0E0CF82E0759510
:1033F0006795579547958A95D1F785E08283411562
:10340000510581E06807710524F04FEF5FEF60E040
:1034100070E08FB78383F894518340835093870083
:103420004093860083818FBF80918100887F809345
:103430008100909181008281892B80938100089581
:103440001092800020E12093810092CFEFE6F0E01F
:1034500080818E7F80830895E1E8F0E02081DC01A7
:1034600012968C91822B808308950F931F93CF9394
:10347000DF93EC018B01BA01A9011416150616069B
:1034800017060CF475DF1D830C8381E080936F00B9
:10349000CE01DF91CF911F910F91DECFFC0128303B
:1034A00009F4EEC018F4213041F00895203109F4F8
:1034B000F7C0213109F402C1089587858430C1F431
:1034C000A08DB18D82A19C91613011F4892B02C035
:1034D000809589238C93A28DB38D9C9183A1809537
:1034E00089238C93A28DB38D9C9183A1892B08C0D5
:1034F000A089B189868D9C916130C1F38095892323
:103500008C93A08DB18D82A19C9147FF02C0892B25
:1035100002C0809589238C93A28DB38D9C9183A149
:10352000809589238C93A28DB38D9C9183A1892B47
:103530008C93A08DB18D82A19C9146FF02C0892BF6
:1035400002C0809589238C93A28DB38D9C9183A119
:10355000809589238C93A28DB38D9C9183A1892B17
:103560008C93A08DB18D82A19C9145FF02C0892BC7
:1035700002C0809589238C93A28DB38D9C9183A1E9
:10358000809589238C93A28DB38D9C9183A1892BE7
:103590008C93A08DB18D82A19C9144FF02C0892B98
:1035A00002C0809589238C93A28DB38D9C9183A1B9
:1035B000809589238C93A28DB38D9C9183A1892BB7
:1035C0008C93A08DB18D82A19C9143FF02C0892B69
:1035D00002C0809589238C93A28DB38D9C9183A189
:1035E000809589238C93A28DB38D9C9183A1892B87
:1035F0008C93A08DB18D82A19C9142FF02C0892B3A
:1036000002C0809589238C93A28DB38D9C9183A158
:10361000809589238C93A28DB38D9C9183A1892B56
:103620008C93A08DB18D82A19C9141FF02C0892B0A
:1036300002C0809589238C93A28DB38D9C9183A128
:10364000809589238C93A28DB38D9C9183A1892B26
:103650008C93A08DB18D82A19C9140FF02C0892BDB
:1036600002C0809589238C93A28DB38D9C9183A1F8
:10367000809589238C93A28DB38D9C9183A1A2C048
:1036800062B9A289B3899C91878D809589238C9397
:10369000A289B3899C91878D892B8C9342B902C0F2
:1036A00062B948B9A289B3899C91878D8095892395
:1036B0008C93A289B3899C91878D84C0A59894B37B
:1036C000862F8071880F892B84BB80910201877EB1
:1036D0008093020190910201862F807C86958695C9
:1036E0008695892B809302018EB1847C8EB99EB120
:1036F000262F2C70220F220F862F8370280F862FE3
:103700008072682F70E07595679575956795620F63
:10371000692B6EB9A48DB58D9C9184A18095892368
:103720008C93A48DB58D9C9184A1892B8C93A48DB1
:10373000B58D9C9184A1809589238C93A489B589AA
:103740009C9180A1809589238C93A59894B3842F14
:103750008071880F892B84BB80910201877E8093C2
:10376000020190910201842F807C86958695869532
:10377000892B809302018EB1847C8EB99EB1242F57
:103780002C70220F220F842F8370280F842F8072B9
:10379000482F50E05595479555954795420F492B31
:1037A0004EB9A289B3899C91878D809589238C938A
:1037B000A289B3899C91878D892B8C93A489B58923
:1037C0009C9180A1892B8C930895613131F08FEF0A
:1037D00081B9603149F487B9089588E18093010186
:1037E00080E283BB8BE38DB908958F929F92AF9255
:1037F000BF92CF92DF92EF92FF920F931F93CF93DE
:10380000DF93EC016801790162B948B9C901B801D7
:1038100020E130E040E050E00E94E84A49015A01CE
:1038200080E090E0DC0188159905AA05BB050CF045
:10383000D4C0EA89FB8930812F8D209523232083F2
:10384000EA89FB8930812F8D232B2083EA89FB892C
:1038500030812F8D209523232083EA89FB893081B5
:103860002F8D232B2083EA89FB8930812F8D209592
:1038700023232083EA89FB8930812F8D232B20830A
:10388000EA89FB8930812F8D209523232083EA89C3
:10389000FB8930812F8D232B2083EA89FB8930819E
:1038A0002F8D209523232083EA89FB8930812F8D5A
:1038B000232B2083EA89FB8930812F8D20952323B8
:1038C0002083EA89FB8930812F8D232B2083EA898D
:1038D000FB8930812F8D209523232083EA89FB8962
:1038E00030812F8D232B2083EA89FB8930812F8D16
:1038F000209523232083EA89FB8930812F8D232B78
:103900002083EA89FB8930812F8D20952323208312
:10391000EA89FB8930812F8D232B2083EA89FB895B
:1039200030812F8D209523232083EA89FB893081E4
:103930002F8D232B2083EA89FB8930812F8D2095C1
:1039400023232083EA89FB8930812F8D232B208339
:10395000EA89FB8930812F8D209523232083EA89F2
:10396000FB8930812F8D232B2083EA89FB893081CD
:103970002F8D209523232083EA89FB8930812F8D89
:10398000232B2083EA89FB8930812F8D20952323E7
:103990002083EA89FB8930812F8D232B2083EA89BC
:1039A000FB8930812F8D209523232083EA89FB8991
:1039B00030812F8D232B2083EA89FB8940813F8D25
:1039C000309534233083EA89FB8920813F8D322B67
:1039D00030830196A11DB11D26CFD701C6018F707E
:1039E0009927AA27BB27892B8A2B8B2B19F1C70173
:1039F000B60120E130E040E050E00E94E84AC12CEE
:103A0000D12C76016C157D058E059F059CF0EA8909
:103A1000FB8930812F8D209523232083EA89FB8920
:103A200030812F8D232B20832FEFC21AD20AE20A76
:103A3000F20AE8CFDF91CF911F910F91FF90EF90A5
:103A4000DF90CF90BF90AF909F908F9008958F920E
:103A50009F92AF92BF92CF92DF92EF92FF92CF935D
:103A6000DF93EC0169017A0162B9CA01B90120E171
:103A700030E040E050E00E94E84A49015A0180E00D
:103A800090E0DC0188159905AA05BB050CF0A4C1DE
:103A9000EA89FB8930812F8D209523232083EA89B1
:103AA000FB8930812F8D232B2083EA89FB8930818C
:103AB0002F8D209523232083EA89FB8930812F8D48
:103AC000232B2083EA89FB8930812F8D20952323A6
:103AD0002083EA89FB8930812F8D232B2083EA897B
:103AE000FB8930812F8D209523232083EA89FB8950
:103AF00030812F8D232B2083EA89FB8930812F8D04
:103B0000209523232083EA89FB8930812F8D232B65
:103B10002083EA89FB8930812F8D20952323208300
:103B2000EA89FB8930812F8D232B2083EA89FB8949
:103B300030812F8D209523232083EA89FB893081D2
:103B40002F8D232B2083EA89FB8930812F8D2095AF
:103B500023232083EA89FB8930812F8D232B208327
:103B6000EA89FB8930812F8D209523232083EA89E0
:103B7000FB8930812F8D232B2083EA89FB893081BB
:103B80002F8D209523232083EA89FB8930812F8D77
:103B9000232B2083EA89FB8930812F8D20952323D5
:103BA0002083EA89FB8930812F8D232B2083EA89AA
:103BB000FB8930812F8D209523232083EA89FB897F
:103BC00030812F8D232B2083EA89FB8930812F8D33
:103BD000209523232083EA89FB8930812F8D232B95
:103BE0002083EA89FB8930812F8D20952323208330
:103BF000EA89FB8930812F8D232B2083EA89FB8979
:103C000030812F8D209523232083EA89FB89308101
:103C10002F8D232B2083EA89FB8930812F8D2095DE
:103C200023232083EA89FB8930812F8D232B208356
:103C3000EA89FB8930812F8D209523232083EA890F
:103C4000FB8930812F8D232B2083EA89FB893081EA
:103C50002F8D209523232083EA89FB8930812F8DA6
:103C6000232B2083EA89FB8930812F8D2095232304
:103C70002083EA89FB8930812F8D232B2083EA89D9
:103C8000FB8930812F8D209523232083EA89FB89AE
:103C900030812F8D232B2083EA89FB8930812F8D62
:103CA000209523232083EA89FB8930812F8D232BC4
:103CB0002083EA89FB8930812F8D2095232320835F
:103CC000EA89FB8930812F8D232B2083EA89FB89A8
:103CD00030812F8D209523232083EA89FB89308131
:103CE0002F8D232B2083EA89FB8930812F8D20950E
:103CF00023232083EA89FB8930812F8D232B208386
:103D0000EA89FB8930812F8D209523232083EA893E
:103D1000FB8930812F8D232B2083EA89FB89308119
:103D20002F8D209523232083EA89FB8930812F8DD5
:103D3000232B2083EA89FB8930812F8D2095232333
:103D40002083EA89FB8930812F8D232B2083EA8908
:103D5000FB8930812F8D209523232083EA89FB89DD
:103D600030812F8D232B2083EA89FB8930812F8D91
:103D7000209523232083EA89FB8930812F8D232BF3
:103D80002083EA89FB8930812F8D2095232320838E
:103D9000EA89FB8930812F8D232B2083EA89FB89D7
:103DA00030812F8D209523232083EA89FB89308160
:103DB0002F8D232B2083EA89FB8940813F8D30950D
:103DC00034233083EA89FB8920813F8D322B308375
:103DD0000196A11DB11D56CED701C6018F7099273E
:103DE000AA27BB27892B8A2B8B2B81F1C701B60110
:103DF00020E130E040E050E00E94E84AC12CD12CA4
:103E000076016C157D058E059F0504F1EA89FB8915
:103E100030812F8D209523232083EA89FB893081EF
:103E20002F8D232B2083EA89FB8930812F8D2095CC
:103E300023232083EA89FB8930812F8D232B208344
:103E40002FEFC21AD20AE20AF20ADBCFDF91CF913A
:103E5000FF90EF90DF90CF90BF90AF909F908F90AA
:103E6000089508954F925F926F927F928F929F92E2
:103E7000AF92BF92CF92DF92EF92FF920F931F9378
:103E8000CF93DF93CDB7DEB7C05AD1090FB6F89400
:103E9000DEBF0FBECDBF70E4E6E0F2E0DE01AF5B57
:103EA000BF4F01900D927A95E1F770E4E6E4F2E0FD
:103EB000DE01119601900D927A95E1F770E2E6E845
:103EC000F2E0DE01AF57BF4F01900D927A95E1F716
:103ED000E62FF0E05F01AA0CBB1CA1E4B0E0AC0F40
:103EE000BD1FAA0DBB1D0D90BC91A02D2D01612CF5
:103EF000712CDC0115964D925D926D927C92189713
:103F0000A1E0B0E0AC0FBD1FAA0DBB1D0D90BC9190
:103F1000A02D4D01A12CB12CDC0119968D929D9202
:103F2000AD92BC921C97A1E8B0E0AC0FBD1FEA0FA8
:103F3000FB1F7081FC017687658745A326A307A335
:103F4000E0A6C1A6743019F461E066877787DC01CA
:103F50001E966C911E97653031F471E01E967C932D
:103F60001E971F966C93FC016685613009F498C01A
:103F700049013A015C0129DCF301E058FC4EE4916F
:103F8000F0E0EE0FFF1FE052FC4E25913491D50179
:103F900051963C932E935097F301E65CFC4EE491CE
:103FA0005E96EC935E97F401E058FC4EE491F0E0ED
:103FB000EE0FFF1FE052FC4E25913491F501338B3B
:103FC000228BF401E65CFC4EE4915F96EC935F97E4
:103FD000C801F801E058FC4EE491F0E0EE0FFF1F3D
:103FE000E052FC4E25913491F501358B248BFC0178
:103FF000E65CFC4EE4919096EC939097F701E058C4
:10400000FC4EE491F0E0EE0FFF1FE052FC4E859174
:104010009491F501978B868BF701E65CFC4EE4905A
:104020009196EC9291971E968C91813109F0ADC0DA
:10403000F601E058FC4EE491F0E0EE0FFF1FE05275
:10404000FC4EA591B491F501B58FA48FF601E65C05
:10405000FC4E9491F50194A38C91E92FE095E8230F
:10406000EC9361E088E00E94164960E088E0C05669
:10407000DF4F0FB6F894DEBF0FBECDBFDF91CF91FB
:104080001F910F91FF90EF90DF90CF90BF90AF9076
:104090009F908F907F906F905F904F900C945249BB
:1040A000BA01FA01E058FC4EE491F0E0EE0FFF1F78
:1040B000E052FC4E45915491DC0159965C934E932D
:1040C0005897FB01E65CFC4EE4919296EC93929734
:1040D000A901F901E058FC4EE491F0E0EE0FFF1F5A
:1040E000E052FC4E25913491FC01338F228FFA016E
:1040F000E65CFC4EE4919396EC939397F801E058BC
:10410000FC4EE491F0E0EE0FFF1FE052FC4E4591B3
:104110005491FC01558B448BF801E65CFC4EE49114
:104120009096EC93BFEFEB16F104A9F0F701E0587D
:10413000FC4EE491F0E0EE0FFF1FE052FC4E2591A3
:104140003491FC01378B268BF701E65CFC4EE49042
:10415000DC019196EC92FC0127852430B1F0F60148
:10416000E058FC4EE491F0E0EE0FFF1FE052FC4EF1
:1041700045915491DC0151965C934E935097F60112
:10418000E65CFC4EE4915E96EC93C056DF4F0FB6B2
:10419000F894DEBF0FBECDBFDF91CF911F910F917D
:1041A000FF90EF90DF90CF90BF90AF909F908F9057
:1041B0007F906F905F904F900895462FDC011E9680
:1041C0002C911E97213071F05096ED91FC915197F2
:1041D00030815E962C915E972095232320831E9636
:1041E0002C9101C021E060E059C91F93CF93DF9368
:1041F000DC011E962C911E97213069F05096ED91AE
:10420000FC91519730815E962C915E97232B2083F1
:104210001E962C910AC0142F462FEC0121E061E07C
:104220003DD92E85412F61E0CE01DF91CF911F91C5
:1042300035C9462FDC011E962C911E97213071F056
:104240005096ED91FC91519730815E962C915E973E
:10425000232B20831E962C9160E002C021E061E0B8
:104260001DC90F931F93CF93DF93EC018A01A5DF44
:10427000402F612FCE01DF91CF911F910F91B5CFCC
:10428000AF92BF92CF92DF92EF92FF920F931F9364
:10429000CF93DF93EC016B01B42EA52E79018C81B5
:1042A000813069F489859A859C01261B370B8E190C
:1042B0009F0978018901C42ED52EB82EA92EED852F
:1042C0008E2F90E0FC013297EE31F10508F00EC11F
:1042D0008827EE58FF4F8F4F0C94044B4D2D50E024
:1042E00062E0CE01BEDFA60163E0CE01BADF4F2D52
:1042F00050E064E0CE01B5DFA70165E0CE01B1DF9B
:104300004A2D50E066E0CE01ACDF4B2D5A2D67E020
:10431000CE01A7DF412F50E052C05E2D44274C0D47
:104320005D1D64E4CE019DDF4B2D5A2D65E4CE0169
:1043300098DFA80166E4CE0194DFA6016EE4CE0109
:1043400090DF4B2D5A2D6FE4CE018BDF62E2C2C0AD
:10435000A60160E2CE0185DF4B2D5A2D61E2CE0130
:1043600080DFA60160E5CE017CDF4B2D5A2D62E592
:10437000CE0177DFA70161E5CE0173DFA80163E518
:10438000E3CF40E050E062E0CE016BDFA60163E0E6
:10439000CE0167DF40E050E064E0CE0162DFA701BC
:1043A00065E0CE015EDF40E050E066E0CE0159DF1F
:1043B0004B2D5A2D67E0CE0154DF40E050E068E01D
:1043C000CE014FDFA80169E0BFCF6AE2CE01F5DE82
:1043D0006C2DCE012EDF6E2DCE012BDF6BE2CE01D8
:1043E000ECDE6B2D71C06AE2CE01E7DE6A2DCE01F4
:1043F00020DF6B2DCE011DDF612FCE011ADF602F74
:10440000CE0117DF6BE2CE01D8DE6D2DCE0111DFBC
:104410006C2DCE010EDF6F2DCE010BDF6E2D57C040
:104420005E2D44274C295D2966E4CE011ADFA801E0
:1044300067E4CE0116DF4B2D5A2D68E40FC0A701AB
:1044400066E3CE010EDFA60167E3CE010ADFA80115
:1044500068E3CE0106DF4B2D5A2D69E3CE0101DF63
:10446000A60160E2CE01FDDE4B2D5A2D61E26CCF3C
:104470004B2D5A2D62E0CE01F4DEA60163E0CE01A1
:10448000F0DEA80166E0CE01ECDEA70167E0CE0118
:10449000E8DE6FE01FC06AE2CE018FDE6D2DCE0137
:1044A000C8DE6C2DCE01C5DE6F2DCE01C2DE6E2DB5
:1044B000CE01BFDE6BE2CE0180DE6A2DCE01B9DE19
:1044C0006B2DCE01B6DE612FCE01B3DE602FCE01A3
:1044D000B0DE6CE2CE01DF91CF911F910F91FF9082
:1044E000EF90DF90CF90BF90AF9067CEDF91CF91EC
:1044F0001F910F91FF90EF90DF90CF90BF90AF9002
:1045000008950F931F93CF93DF93EC016C8361E0C9
:104510008DA10E94164961E08EA10E94164961E0BA
:104520008FA10E94164988A58F3F19F061E00E9473
:1045300016498E85813129F0813039F48F85853097
:1045400021F461E089A50E9416496E85613011F061
:10455000CE013BD9EE89FF89908189A1892B808387
:1045600065E070E080E090E00E942648EE89FF89D7
:10457000908189A18095892380836FE070E080E03D
:1045800090E00E942648EE89FF89908189A1892BBD
:1045900080836FE070E080E090E00E942648EC8924
:1045A000FD89908188A1809589238083ED858E2F58
:1045B00090E0FC013297EE31F10510F00C94543587
:1045C0008827E057FF4F8F4F0C94044B41E050E099
:1045D00060E0CE0146DE44EA58EA63E0CE0141DE07
:1045E00040E050E06CE0CE013CDE4CE058E06DE095
:1045F000CE0137DE40E05BE26EE0CE0132DE47EB1B
:1046000050E06EE1CE012DDE4FE35BE261E0CE01D2
:1046100028DE40E056E062E0CE0123DE40E050E0DC
:1046200060E1CE011EDE40E750E661E1CE0119DE19
:1046300040E050E065E0CE0114DE40E050E066E08E
:10464000CE010FDE4CE15FEE66E1CE010ADE43E013
:1046500050E067E1CE0105DE43E352E067E0CE01C2
:1046600000DE40E050E06BE0CE01FBDD40E050E0DA
:104670006FE0CE01F6DD40E050E061E4CE01F1DD17
:1046800040E050E062E4CE01ECDD40E050E068E460
:10469000CE01E7DD4FE351E069E4CE01E2DD40E029
:1046A00050E06AE4CE01DDDD40E050E06BE4CE0195
:1046B000D8DD40E05FEE64E4CE01D3DD40E050E0C1
:1046C00065E4CE01CEDD4FE351E066E4CE01C9DD05
:1046D00047E057E060E3CE01C4DD44E052E061E32F
:1046E000CE01BFDD44E052E062E3CE01BADD42E03C
:1046F00055E063E3CE01B5DD47E055E064E3CE016C
:10470000B0DD44E052E065E3CE01ABDD44E052E0D1
:1047100066E3CE01A6DD42E055E067E3CE01A1DD10
:1047200042E053E06AE3CE019CDD42E053E06BE3FC
:10473000CE0197DD40E050E063E2CE0192DD40E043
:1047400050E064E2CE018DDD40E050E865E2CE014C
:1047500088DD40E050E06FE4CE0183DD40E050E0D2
:104760006EE40C94EC2E40EF58E765EECE0179DD57
:1047700040E051E061E0CE0174DD40E052E062E0F3
:10478000CE016FDD40E350E163E0CE016ADD40E041
:1047900050E064E0CE0165DD47E052E068E0CE0124
:1047A00060DD40E050E069E0CE015BDD40E050E0DC
:1047B0006AE0CE0156DD40E050E06CE0CE0151DD14
:1047C00040E050E06DE0CE014CDD40E050E06FE0B5
:1047D000CE0147DD40E050E060E1CE0142DD47E040
:1047E00050E061E1CE013DDD40E050E062E1CE010C
:1047F00038DD40E050E063E1CE0133DD41E050E0E0
:1048000067E0CE012EDD68EC70E080E090E00E9471
:10481000264840E956E160E1CE0123DD47E252E05F
:1048200061E1CE011EDD62E370E080E090E00E9475
:1048300026484DE050E062E1CE0113DD62E370E016
:1048400080E090E00E94264840E052E163E1CE0122
:1048500008DD4AE050E069E2CE0103DD4DE050E0C2
:104860007DC040EF58E765EECE01FBDC40E051E053
:1048700061E0CE01F6DC40E057E062E0CE01F1DC21
:1048800040E350E163E0CE01ECDC40E050E064E066
:10489000CE01E7DC47E052E068E0CE01E2DC40E038
:1048A00050E069E0CE01DDDC40E050E06AE0CE019E
:1048B000D8DC40E050E06CE0CE01D3DC40E050E0DA
:1048C0006DE0CE01CEDC40E050E06FE0CE01C9DC0F
:1048D00040E050E060E1CE01C4DC47E050E061E13F
:1048E000CE01BFDC40E050E062E1CE01BADC40E046
:1048F00050E063E1CE01B5DC41E050E067E0CE017D
:10490000B0DC68EC70E080E090E00E94264840E96E
:1049100055E160E1CE01A5DC47E252E061E1CE0164
:10492000A0DC62E370E080E090E00E9426484CE961
:1049300050E062E1CE0195DC62E370E080E090E05F
:104940000E94264840E059E163E1CE018ADC43E25F
:1049500050E069E2CE0185DC4EE050E06BE2CE0132
:1049600080DC62E370E080E090E00E94264840E056
:1049700050E060E2CE0175DC40E050E061E2CE0143
:1049800070DC40E050E060E3CE016BDC44E054E0DA
:1049900061E3CE0166DC43E050E062E3CE0161DC1E
:1049A00045E054E065E3CE015CDC48E058E066E3B6
:1049B000CE0157DC47E054E067E3CE0152DC43E030
:1049C00053E068E3CE014DDC47E057E069E3CE01F8
:1049D00048DC44E055E06CE3CE0143DC48E058E0BD
:1049E0006DE3CE013EDC40E050E060E5CE0139DC15
:1049F0004FEE50E061E5CE0134DC40E050E062E58E
:104A0000CE012FDC4FE351E063E5CE012ADC40E02C
:104A100057EA60E6CE0125DC41E050E061E6CE01D8
:104A200020DC40E050E06AE6CE011BDC40E050E0D4
:104A300060E8CE0116DC40E050E061E8CE0111DC18
:104A400040E050E062E8CE010CDC40E050E063E87A
:104A5000CE0107DC40E050E064E8CE0102DC40E03B
:104A600050E065E8CE01FDDB40E150E060E9CE01B9
:104A7000F8DB40E050E062E9CE01F3DB43E351E0D4
:104A800067E0CE01EEDB0C94543544E850E066E27A
:104A9000CE01E7DB68E270E080E090E00E9426480B
:104AA00048EB50E066E2CE01DCDB68E270E080E0DB
:104AB00090E00E9426484CEB50E066E2CE01D1DB4C
:104AC00064E170E080E090E00E94264840E050E021
:104AD00060E6CE01C6DB46E050E061E6CE01C1DB18
:104AE00040E050E062E6CE01BCDB48EC50E063E61B
:104AF000CE01B7DB64E170E080E090E00E942648E0
:104B000040E750E063E7CE01ACDB40E050E060E41A
:104B1000CE01A7DB40E450E061E4CE01A2DB45E436
:104B200050E062E4CE019DDB41E050E063E4CE0161
:104B300098DB40E650E064E4CE0193DB45E050E0D2
:104B400065E4CE018EDB4CE050E066E4CE0189DB0B
:104B500041ED50E067E4CE0184DB45E050E068E4DD
:104B6000CE017FDB45E750E060E5CE017ADB41E036
:104B700050E061E5CE0175DB47E650E062E5CE012D
:104B800070DB44E150E063E5CE016BDB42EF50E0C7
:104B900064E5CE0166DB47E050E065E5CE0161DB10
:104BA00043E050E066E5CE015CDB49E450E067E5B8
:104BB000CE0157DB64E170E080E090E00E9426487F
:104BC00043E050E06FE1CE014CDB40E050E060E2BA
:104BD000CE0147DB44E250E064E2CE0142DB44E335
:104BE00050E065E2CE013DDB4FE250E063E2CE01F2
:104BF00038DB64E170E080E090E00E94264844E405
:104C000050E068E1CE012DDB41E050E061E2CE01F1
:104C100028DB40E050E061E0CE0123DB43E050E0E0
:104C20006CE1CE011EDB46E050E069E1CE0119DB0C
:104C300064E170E080E090E00E94264844E850E0A3
:104C400066E2CE010EDB68E270E080E090E00E9458
:104C5000264848EB50E066E2CE0103DB68E270E0F4
:104C600080E090E00E9426484CEB50E066E2CE01E6
:104C7000F8DA64E170E080E090E00E94264840E0CD
:104C800050E062E0CE01EDDA40E050E063E0CE01BA
:104C9000E8DA40E050E064E0CE01E3DA4FEA50E0C9
:104CA00065E0CE01DEDA40E050E066E0CE01D9DA20
:104CB00040E050E067E0CE01D4DA40E050E068E048
:104CC000CE01CFDA4BED50E069E0CE01CADA64E103
:104CD00070E080E090E00E94264848E050E066E105
:104CE000CE01BFDA45E050E067E1CE01BADA61E219
:104CF000CE0163DA62E2CE0160DA0C94543561E1F0
:104D0000CE015BDA6CE070E080E090E00E94264823
:104D100061EBCE0152DA61E0CE018BDA6CE2CE01BA
:104D200088DA6DE2CE0185DA62EBCE0146DA61E027
:104D3000CE017FDA6CE2CE017CDA6DE2CE0179DA67
:104D400063EBCE013ADA61E0CE0173DA6CE2CE01B8
:104D500070DA6DE2CE016DDA61E0CE016ADA6CE202
:104D6000CE0167DA6DE2CE0164DA64EBCE0125DABA
:104D700067E0CE015EDA60ECCE011FDA62EACE01B6
:104D800058DA62E0CE0155DA64E8CE0152DA61EC1D
:104D9000CE0113DA65ECCE014CDA62ECCE010DDA0D
:104DA0006AE0CE0146DA60E0CE0143DA63ECCE0180
:104DB00004DA6AE8CE013DDA6AE2CE013ADA64EC5E
:104DC000CE01FBD96AE8CE0134DA6EEECE0131DADB
:104DD00065ECCE01F2D96EE0CE012BDA66E3CE01AE
:104DE000ECD968EC73C061E1CE01E7D96CE070E00A
:104DF00080E090E00E94264861EBCE01DED961E0C0
:104E0000CE0117DA6CE2CE0114DA6DE2CE0111DACE
:104E100062EBCE01D2D961E0CE010BDA6CE2CE01B9
:104E200008DA6DE2CE0105DA63EBCE01C6D961E0A6
:104E3000CE01FFD96CE2CE01FCD96DE2CE01F9D9E9
:104E400061E0CE01F6D96CE2CE01F3D96DE2CE017C
:104E5000F0D964EBCE01B1D967E0CE01EAD960ECBC
:104E6000CE01ABD962EACE01E4D962E0CE01E1D94C
:104E700064E8CE01DED961ECCE019FD965ECCE01AC
:104E8000D8D962ECCE0199D96AE0CE01D2D960E0DE
:104E9000CE01CFD963ECCE0190D96AE8CE01C9D951
:104EA0006AE2CE01C6D964ECCE0187D96AE8CE01A8
:104EB000C0D96EEECE01BDD965ECCE017ED96EE0D3
:104EC000CE01B7D966E3CE0178D960ECCE01B1D975
:104ED00060EECE0172D96FE0CE01ABD96AE1CE01AE
:104EE000A8D96FE0CE01A5D968E1CE01A2D96FE2C1
:104EF000CE019FD968E2CE019CD960E2CE0199D95A
:104F000062E2CE0196D96FE1CE0193D96BE1CE0179
:104F100090D963E2CE018DD967E3CE018AD960E0F2
:104F2000CE0187D967E0CE0184D962E0CE0181D974
:104F300060E1CE017ED961EECE013FD96FE0CE01B6
:104F400078D96BE1CE0175D96FE0CE0172D967E1F6
:104F5000CE016FD963E3CE016CD96CE2CE0169D981
:104F600069E2CE0166D96EE2CE0163D960E3CE017B
:104F700060D960E3CE015DD969E3CE015AD96FE310
:104F8000CE0157D960E0CE0154D967E0CE0151D9A6
:104F900063E0CE014ED960E1CE014BD96AE2CE0189
:104FA0000CD960E0CE0145D960E0CE0142D960E085
:104FB000CE013FD96FE7CE013CD96BE2CE01FDD8DF
:104FC00060E0CE0136D960E0CE0133D960E0CE0199
:104FD00030D96FE9CE012DD960EFCE01EED861E076
:104FE000CE0127D966EFCE01E8D860E00C941030EE
:104FF00061E0CE01E2D865E2CE01DFD860E4CE0107
:1050000018D961E1CE01D9D86AE070E080E090E083
:105010000E94264860E2CE01D0D868E3CE01CDD808
:1050200069E2CE01CAD863E1CE01C7D866E3CE01FA
:10503000C4D860E6CE01FDD86AE3CE01BED865E0F3
:10504000CE01F7D86AE2CE01B8D860E0CE01F1D83F
:105050006FE7CE01EED864EBCE01AFD863E0CE01AE
:10506000E8D868E0CE01E5D86BE0CE01E2D86EE08A
:10507000CE01DFD86AEBCE01A0D867E0CE01D9D847
:105080006DE0CE01D6D86BE2CE0197D860E0CE01BC
:10509000D0D86FE75EC263E8CE018FD862E0CE0160
:1050A000C8D865E8CE0189D863E0CE01C2D86BE8E4
:1050B000CE0183D861E0CE01BCD86CE8CE017DD8AA
:1050C00063E9CE01B6D861E9CE0177D861E0CE01BF
:1050D000B0D863E8CE0171D860E0CE01AAD86EE303
:1050E000CE016BD860EBCE01A4D86FE3CE0165D8BA
:1050F00063E0CE019ED860E4CE015FD860E1CE01CE
:1051000098D861E4CE0159D866E5CE0192D862E420
:10511000CE0153D863E1CE018CD863E4CE014DD8E3
:1051200066E4CE0186D864E4CE0147D863E2CE01BE
:1051300080D865E4CE0141D866E7CE017AD866E42E
:10514000CE013BD860E0CE0174D867E4CE0135D8FB
:105150006EE5CE016ED868E4CE012FD86FE4CE01A3
:1051600068D869E4CE0129D860E4CE0162D867E14D
:10517000CE0123D861E9CE015CD86BE2CE011DD807
:1051800069EFCE0156D86AE070E080E090E00E94BE
:1051900026486BE1CE0111D864E1CE014AD86AE11C
:1051A000CE010BD861E1CE0144D86CE1CE0105D827
:1051B00066E0CE013ED86FE1CE010E94DD2062E4C0
:1051C000CE0137D864E170E080E090E00E9426488C
:1051D00069E1CE010E94DD206AE0CE012AD869E1B2
:1051E000CE010E94DD206AE1CE0123D868E270E0A2
:1051F00080E090E00E94264869E1CE010E94DD2017
:1052000062E1CE0116D868E270E080E090E00E9492
:1052100026486EE1CE010E94DD2067E2CE0109D86A
:1052200064E670E080E090E00E94264864E2CE01EF
:105230000E94DD2060E6CE010E9419216DE3CE01BF
:105240000E94DD2060E4CE010E94192164E3CE01BA
:105250000E94DD2068E3CE010E94192165E3CE01A2
:105260000E94DD2068E3CE010E94192164E2CE0194
:105270000E94DD2068E3CE010E94192168E270E0FF
:1052800080E090E00E94264864E2CE010E94DD208A
:105290006CE3CE010E94192166E1CE010E94DD205F
:1052A0006CE1CE010E94192161E0CE010E94DD2057
:1052B00066E0CE010E94192165E5CE010E94DD2045
:1052C00060E0CE010E94192162E0CE010E94DD2043
:1052D00060E0CE010E94192163E0CE010E94DD2032
:1052E00060E0CE010E94192164E0CE010E94DD2021
:1052F00060E0CE010E94192165E0CE010E94DD2010
:105300006FEECE010E94192166E0CE010E94DD20E1
:1053100060E0CE010E94192167E0CE010E94DD20ED
:1053200060E0CE010E94192168E0CE010E94DD20DC
:1053300061E0CE010E94192169E0CE010E94DD20CA
:105340006FE8CE010E941921D5CC62EECE010E94F9
:10535000DD2063E2CE010E94192162E0CE010E94AD
:10536000192164E5CE010E94192160EECE010E9450
:10537000DD2061E0CE010E9419216AE070E080E04A
:1053800090E00E94264860EECE010E94DD2063E09E
:10539000CE010E9419216AE070E080E090E00E9456
:1053A000264861E0CE010E94DD2064E670E080E0E6
:1053B00090E00E94264866EECE010E94DD2061E06A
:1053C000CE010E9419216FE1CE010E9419216FEFD9
:1053D000CE010E94192160EBCE010E94DD2060E227
:1053E000CE010E94192160E0CE010E94192161E0E6
:1053F000CE010E9419216FEDCE010E94192161E0BA
:10540000CE010E9419216FE0CE010E94192160E0B7
:10541000CE010E94192164EBCE010E94DD2062E0E2
:10542000CE010E94192163E1CE010E94192160E0A2
:10543000CE010E94192168E0CE010E9419216BE281
:10544000CE010E94192160E0CE010E94192162E084
:10545000CE010E94192160E0CE010E94192166EB65
:10546000CE010E94DD2061E0CE010E94192160E2A0
:10547000CE010E94192160E0CE010E94192164E052
:10548000CE010E9419216CE0CE010E94192160E03A
:10549000CE010E94192162E0CE010E9419216AEB1F
:1054A000CE010E94DD206FE0CE010E94192168EB41
:1054B000CE010E94DD2067E0CE010E94192161E04B
:1054C000CE010E94192166E3CE010E94DD2062E236
:1054D000CE010E94192160EFCE010E94DD2063E021
:1054E000CE010E94192161E070E080E090E00E940E
:1054F00026480FE011E02FED31E040E050E060E0A1
:1055000070E0CE010E94402169E2CE010E94DD20C0
:105510006EEBCE010E94DD2066E0CE010E941921D3
:1055200060EFCE010E94192161E0CE010E94192195
:1055300060EFCE010E94192160E0CE010E94192186
:1055400060E0CE010E94192160EDCE010E94DD20B5
:105550006DE0CE010E9419210C94533462EECE010D
:105560000E94DD206EE1CE010E94192162E0CE0191
:105570000E94192164E5CE010E94192160EECE013E
:105580000E94DD2061E0CE010E9419216AE070E0F6
:1055900080E090E00E94264860EECE010E94DD206F
:1055A00063E0CE010E9419216AE070E080E090E0A3
:1055B0000E94264861E0CE010E94DD2064E670E092
:1055C00080E090E00E94264866EECE010E94DD2039
:1055D00063E0CE010E9419216FEFCE010E941921D4
:1055E0006FEFCE010E94192160EBCE010E94DD20F9
:1055F00064E2CE010E94192160E0CE010E941921CF
:1056000063E0CE010E9419216FE1CE010E941921B1
:1056100061E0CE010E9419216FEDCE010E94192197
:1056200060E0CE010E94192164EBCE010E94DD20D2
:1056300063E0CE010E94192160EACE010E94192187
:1056400060E0CE010E9419216EE2CE010E94192174
:1056500060E3CE010E94192160E0CE010E94192171
:105660006FE0CE010E94192160E0CE010E94192155
:1056700066EBCE010E94DD2062E0CE010E9419217E
:105680006DE0CE010E94192160E0CE010E94192137
:1056900060E1CE010E94192160E1CE010E94192132
:1056A00060E0CE010E94192168E0CE010E9419211C
:1056B0006AEBCE010E94DD206FE0CE010E9419212D
:1056C00068EBCE010E94DD2067E0CE010E94192127
:1056D00061E0CE010E94192166E3CE010E94DD2027
:1056E00062E2CE010E94192160EFCE010E94DD200E
:1056F00063E0CE010E94192161E070E080E090E05B
:10570000D2C062EECE010E94DD2063E2CE010E9493
:10571000192162E0CE010E94192164E0CE010E94AD
:10572000192160EECE010E94DD2061E0CE010E94D1
:1057300019216AE070E080E090E00E94264860EE67
:10574000CE010E94DD2063E0CE010E9419216AE0B3
:1057500070E080E090E00E94264861E0CE010E9467
:10576000DD2064E670E080E090E00E94264866EE6E
:10577000CE010E94DD2064E0CE010E94192163E980
:10578000CE010E94192160EECE010E94192160EB2A
:10579000CE010E94DD2060E0CE010E94192160E070
:1057A000CE010E94192163E0CE010E9419216FE110
:1057B000CE010E94192161E0CE010E9419216FEDF6
:1057C000CE010E94192160E0CE010E94192164EBF4
:1057D000CE010E94DD2063E0CE010E94192160EA23
:1057E000CE010E94192160E0CE010E9419216EE2D3
:1057F000CE010E94192160E3CE010E94192160E0D0
:10580000CE010E9419216FE0CE010E94192160E0B3
:10581000CE010E94192166EBCE010E94DD2062E0DC
:10582000CE010E9419216DE0CE010E94192160E095
:10583000CE010E94192160E1CE010E94192160E190
:10584000CE010E94192160E0CE010E94192168E07A
:10585000CE010E9419216AEBCE010E94DD2065E095
:10586000CE010E94192168EBCE010E94DD2067E085
:10587000CE010E94192161E0CE010E94192166E348
:10588000CE010E94DD2062E2CE010E94192160EF6C
:10589000CE010E94DD2063E0CE010E9419216AE062
:1058A00070E080E090E00E9426480FED11E02FE1CB
:1058B00033E023CE44E050E261E1CE010E94312189
:1058C00040E05CEC63E1CE010E94312140E056E211
:1058D00065E1CE010E9431214AE255E264E1CE0148
:1058E0000E94312143E350E062E1CE010E94312168
:1058F00044E05CEC63E1CE010E94312146E05CECC7
:1059000063E1CE010E9431214FE45CEC63E1CE0102
:105910000E9431214FE457E663E1CE010E9431211C
:1059200043E050E261E1CE010E94312149E056E2BC
:1059300060E3CE010E9431214CE254E261E3CE01EA
:105940000E94312143E25FE162E3CE010E943121F6
:1059500045E254E263E3CE010E94312146E252E285
:1059600064E3CE010E94312143E255E265E3CE01BA
:105970000E9431214AE15CE166E3CE010E943121BF
:105980004DE153E167E3CE010E94312141E15BE04B
:1059900068E3CE010E94312140E152E169E3CE018A
:1059A0000E94312145E153E16AE3CE010E94312199
:1059B00049E156E36BE3CE010E94312140E05DE016
:1059C0006CE3CE010E9431214DE050E06DE3CE0149
:1059D0000E94312147E050E066E1CE010E94312172
:1059E00043E150E062E0CE010E94312143E050E00B
:1059F00063E0CE010E94312147E251E061E0CE0137
:105A00000E94312143E053E068E0CE010E94312141
:105A10004BE050E06AE0CE010E94312143E050E0CB
:105A20006BE0CE010E94312140E050E06CE0CE01FD
:105A30000E94312140E050E061E4CE010E9431211A
:105A400040E050E060E5CE010E94312145E050E0A9
:105A500060E6CE010E9431214BE050E060E7CE01CC
:105A60000E94312140E050E061E7CE010E943121E7
:105A700040E050E068E7CE010E94312140E050E074
:105A80006AE7CE010E94312147E050E069E7CE018C
:105A90000E94312141E550E067E0CE010E943121B2
:105AA00043E550E067E0CE010E94312140E050E044
:105AB00069E792C161E1CE010E94DD2064E170E0FE
:105AC00080E090E00E94264860EDCE010E94DD203B
:105AD00067E0CE010E94192162E4CE010E941921E3
