:100000000C949D090C94E73B0C94123C0C943D3CE1
:100010000C94683C0C94933C0C94BE3C0C94E93CCE
:100020000C94143D0C94CE090C94CE090C94CE097A
:100030000C94CE090C94CE090C94CE090C94CE09E4
:100040000C94CE090C94CE090C94CE090C94CE09D4
:100050000C94CE090C94CE090C94CE090C943F3D1F
:100060000C94CE090C94A63A0C94DC3A0C94CE096C
:100070000C94CE090C94CE090C94CE090C94CE09A4
:100080000C94CE090C94CE090C94CE090C94CE0994
:100090000C94CE090C94CE090C94CE090C94CE0984
:1000A0000C94CE090C94CE090C94CE090C94CE0974
:1000B0000C94CE090C94CE090C94CE090C94CE0964
:1000C0000C94CE090C94CE090C94CE090C94CE0954
:1000D0000C94CE090C94CE090C94CE090C94CE0944
:1000E0000C94CE090F1CF81C2A1C2A1C431CF81C5B
:1000F000F01BCD1C671CF81C751C751C921C921CF7
:100100000F1CCD1CF81C0F1C751CCD1C2A1CA11C1F
:10011000CD1CCD1CCD1CCD1CCD1CBA1CCD1CCD1CAA
:10012000681DD62F351E351EC71FD62FCD220121A3
:100130007A22D62F27243025DC26DC26681D792B51
:10014000D62F681D0326DC27B31EA5287329792B1B
:10015000A02A322C792DD82EEC2E752105A84CCD55
:10016000B2D44EB93836A9020C50B9918688083CF1
:10017000A6AAAA2ABE000000803FC13B8B3B933B4E
:100180009F3BAC3BCD3BDA3B6E3E713E603E643EF6
:100190006A3EA83E753E793E7F3E833E873E8D3E59
:1001A000913E953EA83E9B3E9F3EA33E1010205F91
:1001B000000000000000000000000000000000003F
:1001C000000000000000000000000000000000002F
:1001D0000000000007000F800F800F800F800F804D
:1001E00007000700000000000700070007000000EC
:1001F00000000E380E380E380E38063000000000B1
:1002000000000000000000000000000000000000EE
:1002100000000C300C300C307FFE7FFE0C300C30B8
:100220000C300C307FFE7FFE0C300C300C300000A8
:100230000000024002400FF81FF81A401A401FF059
:100240000FF8025802581FF81FF002400240000049
:100250000000000000000E100E300E7000E001C023
:10026000038007000E700C70087000000000000092
:10027000000000000F001980198019800F000F087E
:100280000F9819F818F018E019F00F980000000006
:10029000000000000700070007000E00000000003B
:1002A000000000000000000000000000000000004E
:1002B0000000000000F001C0038007000E000E00E7
:1002C0000E000E000700038001C000F000000000D7
:1002D000000000000F00038001C000E0007000700B
:1002E0000070007000E001C003800F0000000000FB
:1002F0000000000001801188099007E007E03FFC42
:100300003FFC07E007E00990118801800000000031
:1003100000000000000000000180018001800FF05B
:100320000FF001800180018000000000000000004B
:1003300000000000000000000000000000000000BD
:100340000000000000000700070007000E0000008A
:1003500000000000000000000000000000001FF886
:100360001FF8000000000000000000000000000076
:10037000000000000000000000000000000000007D
:100380000000000000000700070007000000000058
:100390000000000000020006000E001C0038007083
:1003A00000E001C0038007000E001C0000000000F8
:1003B000000000000FF01C381C781CF81CF81DB859
:1003C0001DB81F381F381E381C380FF00000000001
:1003D000000000000180018003801F801F800380D7
:1003E000038003800380038003801FF0000000006F
:1003F000000000000FE01C701C380038007000E0A6
:1004000001C0038007000E381C381FF800000000F0
:10041000000000000FE01C701C380038007003C0A2
:1004200003C0007000381C381C700FE00000000092
:100430000000000000E001E003E006E00CE018E04E
:100440001FF81FF800E000E000E003F800000000E3
:10045000000000001FF81C001C001C001C001FE016
:100460001FF0007800381C381C700FE000000000FE
:100470000000000003E007000E001C001C001FF03D
:100480001FF81C381C381C381C380FF00000000006
:10049000000000001FFC1C1C1C1C1C1C001C003845
:1004A000007000E001C003800380038000000000B2
:1004B000000000000FF01C381C381C381F3807E003
:1004C00007E01CF81C381C381C380FF00000000036
:1004D000000000000FF01C381C381C381C381FF8B6
:1004E0000FF800380038007000E007C0000000007E
:1004F0000000000000000000038003800380000073
:100500000000038003800380000000000000000062
:100510000000000000000000038003800380000052
:10052000000003800380038007000000000000003B
:100530000000007000E001C0038007000E001C00F6
:100540001C000E000700038001C000E000700000E6
:10055000000000000000000000003FFC3FFC000025
:1005600000003FFC3FFC0000000000000000000015
:1005700000001C000E000700038001C000E00070B6
:10058000007000E001C0038007000E001C000000A6
:10059000000003C00FF01E7818380038007000E02B
:1005A00001C001C00000000001C001C001C0000086
:1005B00000000FF81C1C1C1C1C1C1C1C1CFC1CFC24
:1005C0001CFC1CFC1C001C001C001FF007F8000099
:1005D0000000000003C007E00E701C381C381C38F7
:1005E0001C381FF81C381C381C381C380000000050
:1005F000000000001FF00E380E380E380E380FF0D5
:100600000FF00E380E380E380E381FF000000000C4
:100610000000000007F00E381C381C001C001C00F5
:100620001C001C001C001C380E3807F000000000E5
:10063000000000001FE00E700E380E380E380E3825
:100640000E380E380E380E380E701FE00000000015
:10065000000000001FF80E180E080E000E300FF0FC
:100660000FF00E300E000E080E181FF800000000EC
:10067000000000001FF80E180E080E000E300FF0DC
:100680000FF00E300E000E000E001F0000000000E4
:100690000000000007F00E381C381C381C001C003D
:1006A0001C001CF81C381C380E3807F8000000002D
:1006B000000000001C701C701C701C701C701FF06F
:1006C0001FF01C701C701C701C701C70000000005F
:1006D000000000000FE0038003800380038003809C
:1006E000038003800380038003800FE0000000008C
:1006F0000000000001FC00700070007000700070CD
:10070000007038703870387038700FE000000000EA
:10071000000000001E380E380E700EE00FC00F8073
:100720000F800FC00EE00E700E381E380000000063
:10073000000000001F000E000E000E000E000E0054
:100740000E000E000E080E180E381FF800000000F4
:10075000000000001C1C1E3C1F7C1FFC1FFC1DDC3D
:100760001C9C1C1C1C1C1C1C1C1C1C1C00000000B9
:10077000000000001C1C1C1C1E1C1F1C1F9C1DDCE0
:100780001CFC1C7C1C3C1C1C1C1C1C1C00000000B9
:100790000000000003E007F00E381C1C1C1C1C1C91
:1007A0001C1C1C1C1C1C0E3807F003E00000000081
:1007B000000000001FF00E380E380E380E380FF013
:1007C0000FF00E000E000E000E001F0000000000D3
:1007D0000000000003E00F780E381C1C1C1C1C1CC1
:1007E0001C1C1C7C1CFC0FF80FF8003800FC0000DF
:1007F000000000001FF00E380E380E380E380FF0D3
:100800000FF00E700E380E380E381E380000000043
:10081000000000000FF01C381C381C381C000FE0D2
:1008200007F000381C381C381C380FF0000000009E
:10083000000000001FFC19CC11C401C001C001C0A0
:1008400001C001C001C001C001C007F000000000EC
:10085000000000001C701C701C701C701C701C7050
:100860001C701C701C701C701C700FE000000000DD
:10087000000000001C701C701C701C701C701C7030
:100880001C701C701C700EE007C00380000000008C
:10089000000000001C1C1C1C1C1C1C1C1C1C1C9C88
:1008A0001C9C1C9C0FF80FF80770077000000000DC
:1008B000000000001C701C701C700EE007C003805C
:1008C000038007C00EE01C701C701C70000000004C
:1008D000000000001C701C701C701C701C700EE06E
:1008E00007C003800380038003800FE00000000046
:1008F000000000001FF81C381838107000E001C01C
:10090000038007000E081C181C381FF800000000A8
:100910000000000007F007000700070007000700BD
:100920000700070007000700070007F000000000AD
:1009300000000000100018001C000E0007000380DB
:1009400001C000E000700038001C0007000000003B
:100950000000000007F00070007000700070007070
:100960000070007000700070007007F00000000060
:100970000000018003C007E00E701C38000000007A
:100980000000000000000000000000000000000067
:100990000000000000000000000000000000000057
:1009A0000000000000000000000000007FFF7FFF4B
:1009B000000000001C001C000700070000000000F1
:1009C0000000000000000000000000000000000027
:1009D0000000000000000000000000000FE00070B8
:1009E00000700FF01C701C701C700FD8000000000D
:1009F000000000001E000E000E000E000FF00E386A
:100A00000E380E380E380E380E381BF0000000007D
:100A10000000000000000000000000000FE01C705B
:100A20001C701C001C001C701C700FE000000000FB
:100A30000000000000F80070007000700FF01C70E3
:100A40001C701C701C701C701C700FD80000000003
:100A50000000000000000000000000000FE01C701B
:100A60001C701FF01C001C701C700FE000000000C8
:100A70000000000003E007700770070007001FE098
:100A80001FE007000700070007001FC0000000006C
:100A90000000000000000000000000000FD81C70E3
:100AA0001C701C701C700FF007F000701C700FE0C1
:100AB000000000001E000E000E000E000EF00F38A9
:100AC0000F380E380E380E380E381E380000000071
:100AD0000000000001C001C001C000000FC001C043
:100AE00001C001C001C001C001C00FF8000000003A
:100AF00000000000007000700070000003F0007043
:100B0000007000700070007000701C700CF007E046
:100B1000000000001E000E000E000E000E380E70C9
:100B20000EE00FC00EE00E700E381E380000000000
:100B3000000000000FC001C001C001C001C001C021
:100B400001C001C001C001C001C00FF800000000D9
:100B50000000000000000000000000001FF81C9CC6
:100B60001C9C1C9C1C9C1C9C1C9C1C9C0000000035
:100B70000000000000000000000000001FE01C70EA
:100B80001C701C701C701C701C701C70000000001D
:100B90000000000000000000000000000FE01C70DA
:100BA0001C701C701C701C701C700FE0000000009A
:100BB0000000000000000000000000001BF00E38E4
:100BC0000E380E380E380E380FF00E000E001F00D3
:100BD0000000000000000000000000001FB038E02E
:100BE00038E038E038E038E01FE000E000E001F0F5
:100BF0000000000000000000000000001EF00FF8E0
:100C00000F380E000E000E000E001F000000000046
:100C10000000000000000000000000000FE01C3099
:100C20001C300F8003E0187018700FE00000000007
:100C30000000000000000100030007001FF0070093
:100C40000700070007000770077003E000000000BE
:100C50000000000000000000000000001C701C707C
:100C60001C701C701C701C701C700FD800000000E1
:100C70000000000000000000000000001C701C705C
:100C80001C701C701C700EE007C003800000000088
:100C90000000000000000000000000001C1C1C1CE4
:100CA0001C1C1C9C1C9C0FF80770077000000000A7
:100CB0000000000000000000000000001CE01CE03C
:100CC0000FC0078007800FC01CE01CE00000000080
:100CD0000000000000000000000000000E380E3888
:100CE0000E380E380E3807F003E000E001C01F8018
:100CF0000000000000000000000000001FE018E0FD
:100D000011C0038007000E201C601FE000000000DF
:100D10000000000001F803800380038007001C002E
:100D20001C00070003800380038001F8000000001E
:100D3000000001C001C001C001C001C001C001C06C
:100D400001C001C001C001C001C001C001C000005C
:100D5000000000001F8001C001C001C000E0003899
:100D6000003800E001C001C001C01F800000000089
:100D7000000000001F1C3B9C39DC38F8000000001C
:100D80000000000000000000000000000000000063
:100D9000080C205F000000000000000000000000C0
:100DA000000020202020202000200000002850509B
:100DB000000000000000000000002828FC2850FC73
:100DC00050500000002078A8A0603028A8F0200033
:100DD000000048A8B05028345448000000002050BB
:100DE0005078A8A8906C00000040408000000000EF
:100DF000000000000004081010101010100804007B
:100E000000402010101010101020400000000020A2
:100E1000A87070A8200000000000202020F82020EA
:100E200020000000000000000000000000404080A2
:100E30000000000000F800000000000000000000BA
:100E400000000000004000000008101010202040AA
:100E50004040800000007088888888888870000082
:100E600000002060202020202070000000007088FA
:100E70008810204080F800000000708808300808C2
:100E8000887000000000103050509078101800005A
:100E90000000F88080F00808887000000000709062
:100EA00080F08888887000000000F89010202020D2
:100EB00020200000000070888870888888700000FA
:100EC00000007088888878084870000000000000E2
:100ED00020000000002000000000000000200000B2
:100EE000002020000004081020402010080400000A
:100EF00000000000F80000F8000000000040201092
:100F0000080408102040000000007088881020208D
:100F1000002000000000708898A8A8B88078000021
:100F2000000020203050507848CC00000000F048ED
:100F30004870484848F00000000078888080808031
:100F4000887000000000F0484848484848F0000019
:100F50000000F8485070504048F800000000F84881
:100F60005070504040E000000000384880809C886D
:100F7000483000000000CC484878484848CC000081
:100F80000000F8202020202020F8000000007C1025
:100F9000101010101090E0000000EC48506050500D
:100FA00048EC00000000E0404040404044FC0000AD
:100FB0000000D8D8D8D8A8A8A8A800000000DC480D
:100FC0006868585848E80000000070888888888859
:100FD000887000000000F0484870404040E0000089
:100FE00000007088888888E8987018000000F04831
:100FF0004870504848EC0000000078888060100875
:1010000088F000000000F8A82020202020700000B8
:101010000000CC4848484848483000000000CC4810
:1010200048505030202000000000A8A8A870505060
:10103000505000000000D8505020205050D80000E0
:101040000000D85050202020207000000000F890B0
:101050001020204048F800000038202020202020C8
:1010600020203800004040402020101010080000D0
:1010700000701010101010101010700000205000A0
:101080000000000000000000000000000000000060
:10109000000000FC00200000000000000000000034
:1010A0000000000000304838483C00000000C0400C
:1010B0004070484848700000000000000038484078
:1010C000403800000000180808384848483C000034
:1010D00000000000003048784038000000001C206C
:1010E000207820202078000000000000003C4830DC
:1010F000407844380000C0404070484848EC000048
:10110000000020000060202020700000000010007F
:1011100000301010101010E00000C040405C507013
:1011200048EC00000000E0202020202020F80000F3
:101130000000000000F0A8A8A8A80000000000001F
:1011400000F0484848EC000000000000003048482B
:10115000483000000000000000F04848487040E0BF
:1011600000000000003848484838081C0000000013
:1011700000D8604040E000000000000000784030EF
:1011800008780000000000202070202020180000B7
:101190000000000000D84848483C00000000000063
:1011A00000EC4850302000000000000000A8A870AB
:1011B000505000000000000000D8502050D800001F
:1011C0000000000000EC4850302020C0000000006B
:1011D0000078102020780000001810101020101047
:1011E0001010180010101010101010101010101007
:1011F00000602020201020202020600040A4180043
:10120000000000000000000000000A0B02090C0DA5
:101210000E080703040100000000000000000000A9
:1012200000000000000000000000000000000000BE
:10123000000000001211100000000000000000007B
:10124000000000000000000000000000000001029B
:1012500010202008081020401020408002010201C8
:101260000804020101020408102040808040201080
:1012700008040201800402018040201008040201D9
:101280000804020101020408102040800102040841
:10129000102040800505050507050808080802021A
:1012A00002020A0A08080404040401010101010100
:1012B00001010303030303030303040707070C0CE3
:1012C0000C0C0C0C0C0C02020202060606060606AA
:1012D00006060B0B0B0B0B0B0B0B00002000230067
:1012E000260029002C002F0032000001000003011D
:1012F0000601090100002200250028002B002E0015
:101300003100340002010000050108010B0100005A
:101310002100240027002A002D00300033000101A5
:101320000000040107010A01690BFD0FCA11261311
:101330000E3B2F0CC3109012571411241FBECFEF79
:10134000D1E2DEBFCDBF00E00CBF13E0A0E0B2E011
:10135000EAE6F5E800E00BBF02C007900D92A43763
:10136000B107D9F729E0A4E7B3E001C01D92A83581
:10137000B207E1F719E0C9E9D9E000E006C021971A
:101380000109802FFE010E946340C439D10780E02B
:101390000807A9F70E943C3B0C94A4420C9400005F
:1013A000DC01ED91FD918081ED91FD919081ED91B8
:1013B000FD916C9163708E2309F064609F2309F0A6
:1013C0006860EDEEF9E0E60FF11D659565956D93AA
:1013D0006D917D918D919D91099423C01AC012C089
:1013E00016C010C01EC009C014C013C006C019C06A
:1013F00009C00DC007C00DC014C0625070408040CD
:1014000090400BC0615070408040904006C06E5FBD
:1014100001C06F5F7F4F8F4F9F4F9E938E937E9340
:101420006E9308958091A4089091A508B9CF8091FA
:10143000A2089091A308B4CFCF93DF93EC0188D298
:101440001D8E1E8E80E090E0ACE5B3E48F8F98A3F4
:10145000A9A3BAA31BA280E090E0A0E8B0E48CA30B
:101460009DA3AEA3BFA318A680E090E8ABE3B6E4CB
:1014700089A79AA7ABA7BCA788E28DA71EA61FA61F
:1014800018AA19AA1AAA80E090E0A8E4B3E48BABEA
:101490009CABADABBEAB84EB8FAB80E090E0AAE73A
:1014A000B3E488AF99AFAAAFBBAF1CAE1DAE1EAE02
:1014B0001FAEFE01E05CFF4F8FEF808331961082FC
:1014C0003196108231961082CE018A5B9F4F40D2B6
:1014D000FE01E959FF4F81E0808331968083CD5929
:1014E000DF4F188262E08EE0DF91CF910C94A93E2D
:1014F0000F931F93CF93DF938C01FC01EB59FF4FA8
:10150000718360838CE090E00E94483BEC0162E0D4
:1015100082E00E94A93E62E083E00E94A93EE6E9E3
:10152000F2E1E491F0E0EE0FFF1FE652FD4E8591EF
:10153000949199838883E0E5F2E1E491EC83E7E913
:10154000F2E1E491F0E0EE0FFF1FE652FD4E8591CF
:1015500094919B838A83E1E5F2E1E491ED831F821C
:10156000188619861A8680ED97E00E94E73DE8818B
:10157000F98190818C81982381E009F480E0EA81EF
:10158000FB8120819D81922309F082608E83D0931C
:10159000A308C093A20841E050E067E17AE080E050
:1015A0000E94743B81E08B87D093A508C093A40868
:1015B00041E050E062E17AE00E94743B8B858F5FEE
:1015C0008B87F801EC5BFF4FD183C08342E1BE0102
:1015D000C8018A5B9F4FDF91CF911F910F91CEC1C0
:1015E000FC01EB59FF4FA081B1819C919F5F9C93BF
:1015F0000190F081E02D8081853008F010820895FF
:10160000EF92FF920F931F93CF93DF93EC018EE045
:101610000E94133F8E0109591F4F21E0892B09F4C5
:1016200020E0F80120836AE070E080E090E00E9412
:10163000AE3DF80180819E0128593F4F790181110B
:101640000AC0F9018081882331F0CE01C9DFCD596C
:10165000DF4F81E08883F8018081F7018083DF918B
:10166000CF911F910F91FF90EF900895CF92DF924D
:10167000EF92FF920F931F93CF93DF93EC016C01D6
:1016800086E4C80ED11C00E010E020E231E440E026
:1016900050E060E87FE3C60179D1FE01EB59FF4FCE
:1016A000608171816E5F7F4FE12C10E8F12E0BE3BA
:1016B00016E420E030E040EF51E4C6018BD1CE01CA
:1016C000DF91CF911F910F91FF90EF90DF90CF901E
:1016D00097CFCF93DF9366EB72E084E394E00E94B0
:1016E000A23F6BEB72E08AE394E00E94A23F60ECC1
:1016F00072E080E494E00E94A23F65EC72E086E430
:1017000094E00E94A23F68EC72E08CE494E00E94B6
:10171000A23F6EEC72E08CE194E00E94A23F64ED87
:1017200072E082E294E00E94A23F6AED72E088E2F9
:1017300094E00E94A23F64ED72E08EE294E00E9489
:10174000A23F6FED72E084E094E00E94A23F64ED5E
:1017500072E08AE094E00E94A23F65EE72E080E1D0
:1017600094E00E94A23F6AED72E086E194E00E945C
:10177000A23F6AEE72E08CEE93E00E94A23F6FEE11
:1017800072E082EF93E00E94A23F64EF72E088EF84
:1017900093E00E94A23F69EF72E08EEF93E00E9417
:1017A000A23F6FED72E084ED93E00E94A23F6EEFE6
:1017B00072E08AED93E00E94A23F63E073E080EE66
:1017C00093E00E94A23F6AED72E086EE93E00E94F1
:1017D000A23F6AE073E08CEB93E00E94A23F64E1D9
:1017E00073E082EC93E00E94A23F6CE173E088EC2E
:1017F00093E00E94A23F65E273E08EEC93E00E94CA
:10180000A23F6DE273E084EA93E00E94A23F62E3AC
:1018100073E08AEA93E00E94A23F66E373E080EB04
:1018200093E00E94A23F6AE373E086EB93E00E949C
:10183000A23F6EE373E084E793E00E94A23FC0E022
:10184000D0E026966AEB72E0CE018C589C4F0E9445
:10185000A23FCA32D105A9F7DF91CF910895CF9366
:10186000DF93C4EAD3E02697CE010E943B3F83E09A
:10187000C437D807C1F786EB93E00E943B3F80EB6B
:1018800093E00E943B3F8AEA93E00E943B3F84EA58
:1018900093E00E943B3F8EEC93E00E943B3F88EC3C
:1018A00093E00E943B3F82EC93E00E943B3F8CEB35
:1018B00093E00E943B3F86EE93E00E943B3F80EE28
:1018C00093E00E943B3F8AED93E00E943B3F84ED12
:1018D00093E00E943B3F8EEF93E00E943B3F88EFF6
:1018E00093E00E943B3F82EF93E00E943B3F8CEEEF
:1018F00093E00E943B3F86E194E00E943B3F80E101
:1019000094E00E943B3F8AE094E00E943B3F84E0E9
:1019100094E00E943B3F8EE294E00E943B3F88E2CD
:1019200094E00E943B3F82E294E00E943B3F8CE1C6
:1019300094E00E943B3FC2E5D4E02697CE010E948E
:101940003B3F84E0C433D807C1F7DF91CF910895BE
:10195000FC01118E108E138E128E80E090E0A0E8B4
:10196000BFE3808B918BA28BB38B80E090E0A0E8EB
:10197000BEE3848B958BA68BB78B0895FC0176878D
:101980006587478762E0842F0C94A93ECF92DF924F
:10199000EF92FF920F931F93CF93DF93EC016A01B5
:1019A0007B01C901B801C88AD98AEA8AFB8A20E08A
:1019B00030E040E85EE30E94A4386C8B7D8B8E8B18
:1019C0009F8BDF91CF911F910F91FF90EF90DF9050
:1019D000CF9008952F923F924F925F926F927F9295
:1019E0008F929F92AF92BF92CF92DF92EF92FF922F
:1019F0000F931F93CF93DF9300D000D0CDB7DEB706
:101A00009E838D836B0149015A0109831A83FC016E
:101A100087850E94133F21E0892B09F420E0ED81A6
:101A2000FE81248F05851685F8018385823020F498
:101A3000F894C801B5DC01C0F894F80147805084DF
:101A40006184728478945C824B82ED81FE81518E38
:101A5000408E828D938D84159505CCF5848D8823D9
:101A600029F0648975898689978906C0ED81FE8190
:101A70006089718982899389F6012081318142814F
:101A800053810E9419371B018C019401A5010E940A
:101A90007D3787FD0DC0970149815A81B101C80189
:101AA0000E94A038181634F4170109811A8102C067
:101AB00014018501C101D801F60180839183A283BD
:101AC000B383ED81FE81538E428E81E08487ED8168
:101AD000FE81828D938D2B813C8128173907DCF59F
:101AE000848D882329F0248935894689578906C041
:101AF000ED81FE812089318942895389F601608117
:101B00007181828193810E9418371B018C019B0196
:101B1000AC01B401C5010E94A03818166CF0910107
:101B2000A801B70189819A810E947D3787FF06C08D
:101B3000170109811A8102C014018501C101D80170
:101B4000F60180839183A283B383ED81FE81538E5E
:101B5000428E81E0848726960FB6F894DEBF0FBED2
:101B6000CDBFDF91CF911F910F91FF90EF90DF904C
:101B7000CF90BF90AF909F908F907F906F905F902D
:101B80004F903F902F900895FC011082118280E0C9
:101B900090E0ACE5B3E482839383A483B58316829B
:101BA00080E090E0A0E8B0E487839087A187B287C7
:101BB000138680E090E8ABE3B6E484879587A68738
:101BC000B78788E2808B118A128A138A148A158A51
:101BD00040E050E068E473E4468B578B608F718F70
:101BE00094EB928F40E050E06AE773E4438F548FA8
:101BF000658F768F178E10A211A212A29FEF93A36A
:101C000014A215A216A290E697A798E790AB81AB15
:101C100008950F931F93FC0116A705A770A767A34C
:101C200052A741A734A723A71F910F9108958F9220
:101C30009F92AF92BF92CF92DF92EF92FF920F935B
:101C40001F93CF93DF9300D000D0CDB7DEB77C01D8
:101C5000DC019B966D917C919C9797968D919C91C0
:101C600098970E94BD3660E078EFF70187A190A5B4
:101C70000E949C30D701D1960C91D19710E020EEB4
:101C800031E040E050E060E070E097968D919C91EB
:101C900098970E94763182E1A82E85E0B82EC12C5B
:101CA000D12CD7019D96ED91FC919E97208130E03B
:101CB00097968D919C919897F60131964F0160E02F
:101CC00070E02C153D0509F456C00E949C30D701E8
:101CD0009F968C919F9790E0D1960C91D19710E0B0
:101CE00003501109889E9001899E300D989E300DF9
:101CF0001124235031098C9DB0018D9D700D9C9D48
:101D0000700D11246D5F7F4F43E050E097968D91E9
:101D10009C9198970E94763160E078EFF70187A157
:101D200090A50E949C3040E050E0BA01D701979600
:101D30008D919C9198970E94A030F70127A52C9D2A
:101D4000C0012D9D900D11246C01F3E0CF0ED11C2C
:101D5000B501CE0101960E94CB3F00E010E02AE0E1
:101D600030E0A601BE016F5F7F4FD70197968D913E
:101D70009C91989727C00E949C3040E058EF6FEFED
:101D80007FEFF70187A190A50E94A030D7019F9611
:101D90002C912C9DC0012D9D900D11246C01B3E060
:101DA000CB0ED11CB501CE0101960E94CB3F00E0C5
:101DB00010E02AE030E0A601BE016F5F7F4FF7011F
:101DC00087A190A50E947736CE0101960E943B3FE5
:101DD0006401F6E0AF0EB11C25E08216910409F013
:101DE00060CF26960FB6F894DEBF0FBECDBFDF9151
:101DF000CF911F910F91FF90EF90DF90CF90BF9008
:101E0000AF909F908F9008954F925F926F927F92C4
:101E10008F929F92AF92BF92CF92DF92EF92FF92FA
:101E20000F931F93CF93DF9300D000D0CDB7DEB7D1
:101E30007C015B01C12CD12C8EE4482E5524539497
:101E400060E078EFF70187A190A50E949C3040E008
:101E500050E0BA01F70187A190A50E94A030F701D8
:101E600081A93201681A710880A98C9D40018D9D5D
:101E7000900C1124F5E08F0E911CB501CE01019656
:101E80000E94CB3F00E010E09301A401BE016F5F10
:101E90007F4FF70187A190A50E947736CE0101966A
:101EA0000E943B3FFFEFCF1ADF0A86E0A80EB11C6D
:101EB000E4E0CE16D10421F626960FB6F894DEBFE4
:101EC0000FBECDBFDF91CF911F910F91FF90EF908B
:101ED000DF90CF90BF90AF909F908F907F906F904A
:101EE0005F904F900895CF92DF92EF92FF920F9301
:101EF0001F93CF93DF93EC0169A57AA58FA198A5D5
:101F00000E94BD3660E078EF8FA198A50E949C30BA
:101F100089A940E451E0481B510900E411E020EE9A
:101F200031E060E070E08FA198A50E94763160E01A
:101F300070E08FA198A50E949C30E12CF12C83E4E5
:101F4000C82EDD24D39488A990E02FEFE21AF20A7C
:101F50008E9DB0018F9D700D9E9D700D11249B0173
:101F60002350310949A9F601E41BF109AF01681BAF
:101F7000790B6D5F7F4F0DE311E08FA198A50E9453
:101F80007631F4E0EF16F104F1F6EDA5FEA58081BF
:101F9000823091F038F4882361F08130E1F462EE10
:101FA00074E00FC0833059F08430A9F46AE974E01A
:101FB00008C06AEF74E005C06AEC74E002C062EB2E
:101FC00074E0CE01DF91CF911F910F91FF90EF90C0
:101FD000DF90CF9019CFDF91CF911F910F91FF909C
:101FE000EF90DF90CF900895CF93DF93EC017BDFEC
:101FF000CE01DF91CF911BCE0895CF93DF9366EB97
:1020000072E082E195E00E94A23F6BEB72E088E112
:1020100095E00E94A23F60EC72E08EE195E00E94A4
:10202000A23F65EC72E084E295E00E94A23F68EC7A
:1020300072E08AE295E00E94A23F6EEC72E08AEFC5
:1020400094E00E94A23F64ED72E080E095E00E947F
:10205000A23F6AED72E086E095E00E94A23F64ED47
:1020600072E08CE095E00E94A23F6FED72E082EE9C
:1020700094E00E94A23F64ED72E088EE94E00E943A
:10208000A23F65EE72E08EEE94E00E94A23F6AED00
:1020900072E084EF94E00E94A23F6AEE72E08AEC64
:1020A00094E00E94A23F6FEE72E080ED94E00E9407
:1020B000A23F64EF72E086ED94E00E94A23F69EFD8
:1020C00072E08CED94E00E94A23F6FED72E082EB33
:1020D00094E00E94A23F6EEF72E088EB94E00E94D1
:1020E000A23F63E073E08EEB94E00E94A23F6AEDB2
:1020F00072E084EC94E00E94A23F6AE073E08AE917
:1021000094E00E94A23F64E173E080EA94E00E94C0
:10211000A23F6CE173E086EA94E00E94A23F65E290
:1021200073E08CEA94E00E94A23F6DE273E082E8E3
:1021300094E00E94A23F62E373E088E894E00E948A
:10214000A23F66E373E08EE894E00E94A23F6AE358
:1021500073E084E994E00E94A23F6EE373E082E5BD
:1021600094E00E94A23FC0E0D0E026966AEB72E0C5
:10217000CE018E5A9B4F0E94A23FCA32D105A9F7C9
:10218000DF91CF910895CF93DF93C2E8D4E02697F3
:10219000CE010E943B3F84E0C235D807C1F784E9F5
:1021A00094E00E943B3F8EE894E00E943B3F88E829
:1021B00094E00E943B3F82E894E00E943B3F8CEA1F
:1021C00094E00E943B3F86EA94E00E943B3F80EA15
:1021D00094E00E943B3F8AE994E00E943B3F84ECFC
:1021E00094E00E943B3F8EEB94E00E943B3F88EBE3
:1021F00094E00E943B3F82EB94E00E943B3F8CEDD9
:1022000094E00E943B3F86ED94E00E943B3F80EDCE
:1022100094E00E943B3F8AEC94E00E943B3F84EFB5
:1022200094E00E943B3F8EEE94E00E943B3F88EE9C
:1022300094E00E943B3F82EE94E00E943B3F8CE0A2
:1022400095E00E943B3F86E095E00E943B3F80E0A6
:1022500095E00E943B3F8AEF94E00E943B3FC0E341
:10226000D5E02697CE010E943B3F85E0C231D807DA
:10227000C1F7DF91CF910895CF93DF93EC010E94D6
:10228000B319CE01C19680DCCE018D599F4F0E94BB
:10229000D836CE018C569F4F0E94B319CE018B5376
:1022A0009F4F72DCCE0189509F4FDF91CF910C94EC
:1022B000D8368F929F92AF92BF92CF92DF92EF92D9
:1022C000FF920F931F93CF93DF93EC015C0182E9A0
:1022D000A80EB11CD5016D937C9381E390E00E9420
:1022E000483B4C01C12CD12C89E2E82EF12C08E2AC
:1022F00010E027E230E046E250E065E1C4010E94D0
:10230000B4197E01B4E9EB0EF11C81E3F401D701AD
:1023100001900D928A95E1F761E0C7010E94031DCB
:10232000CB53DF4FD501ED91FC91EB59FF4F00816D
:1023300011812CEA31E040E95DE0B701CE0169DCB2
:10234000C7010E940030CE014FDECE01DF91CF9158
:102350001F910F91FF90EF90DF90CF90BF90AF90C3
:102360009F908F9049CECF93DF93EC01CE56DF4FF5
:10237000E881F981ED59FF4F2081222341F08B53F1
:102380009F4F32DEE881F981ED59FF4F1082DF91D6
:10239000CF910895CF93DF9366EB72E080EF95E0E5
:1023A0000E94A23F6BEB72E086EF95E00E94A23F95
:1023B00060EC72E08CEF95E00E94A23F65EC72E069
:1023C00082E096E00E94A23F68EC72E088E096E02E
:1023D0000E94A23F6EEC72E088ED95E00E94A23F61
:1023E00064ED72E08EED95E00E94A23F6AED72E02E
:1023F00084EE95E00E94A23F64ED72E08AEE95E0E3
:102400000E94A23F6FED72E080EC95E00E94A23F37
:1024100064ED72E086EC95E00E94A23F65EE72E00A
:102420008CEC95E00E94A23F6AED72E082ED95E0AF
:102430000E94A23F6AEE72E088EA95E00E94A23F05
:102440006FEE72E08EEA95E00E94A23F64EF72E0C8
:1024500084EB95E00E94A23F69EF72E08AEB95E081
:102460000E94A23F6FED72E080E995E00E94A23FDA
:102470006EEF72E086E995E00E94A23F63E073E0B0
:102480008CE995E00E94A23F6AED72E082EA95E055
:102490000E94A23F6AE073E088E795E00E94A23FB5
:1024A00064E173E08EE795E00E94A23F6CE173E087
:1024B00084E895E00E94A23F65E273E08AE895E037
:1024C0000E94A23F6DE273E080E695E00E94A23F89
:1024D00062E373E086E695E00E94A23F66E373E064
:1024E0008CE695E00E94A23F6AE373E082E795E004
:1024F0000E94A23F6EE373E080E395E00E94A23F5A
:10250000C0E0D0E026966AEB72E0CE01805D9A4F83
:102510000E94A23FCA32D105A9F7DF91CF91089559
:10252000CF93DF93C0E6D5E02697CE010E943B3FD4
:1025300085E0C033D807C1F782E795E00E943B3FB2
:102540008CE695E00E943B3F86E695E00E943B3F8B
:1025500080E695E00E943B3F8AE895E00E943B3F81
:1025600084E895E00E943B3F8EE795E00E943B3F68
:1025700088E795E00E943B3F82EA95E00E943B3F5E
:102580008CE995E00E943B3F86E995E00E943B3F45
:1025900080E995E00E943B3F8AEB95E00E943B3F3B
:1025A00084EB95E00E943B3F8EEA95E00E943B3F22
:1025B00088EA95E00E943B3F82ED95E00E943B3F18
:1025C0008CEC95E00E943B3F86EC95E00E943B3FFF
:1025D00080EC95E00E943B3F8AEE95E00E943B3FF5
:1025E00084EE95E00E943B3F8EED95E00E943B3FDC
:1025F00088ED95E00E943B3FCEE0D6E02697CE01E5
:102600000E943B3F85E0C03FD807C1F7DF91CF91E3
:10261000089526E040E052EC61E070E08EEA98E038
:102620000E94433A6DE977E084E397E00E94780ADC
:1026300064E377E08EE096E03CDE84E397E016C842
:1026400084E397E013D88EE096E08DCECF93DF93AE
:1026500066EB72E084E898E00E94A23F6BEB72E0C8
:102660008AE898E00E94A23F60EC72E080E998E07E
:102670000E94A23F65EC72E086E998E00E94A23FCA
:1026800068EC72E08CE998E00E94A23F6EEC72E088
:102690008CE698E00E94A23F64ED72E082E798E049
:1026A0000E94A23F6AED72E088E798E00E94A23F94
:1026B00064ED72E08EE798E00E94A23F6FED72E059
:1026C00084E598E00E94A23F64ED72E08AE598E01C
:1026D0000E94A23F65EE72E080E698E00E94A23F71
:1026E0006AED72E086E698E00E94A23F6AEE72E030
:1026F0008CE398E00E94A23F6FEE72E082E498E0E3
:102700000E94A23F64EF72E088E498E00E94A23F3A
:1027100069EF72E08EE498E00E94A23F6FED72E0F4
:1027200084E298E00E94A23F6EEF72E08AE298E0B5
:102730000E94A23F63E073E080E398E00E94A23F22
:102740006AED72E086E398E00E94A23F6AE073E0DF
:102750008CE098E00E94A23F64E173E082E198E09F
:102760000E94A23F6CE173E088E198E00E94A23FE2
:1027700065E273E08EE198E00E94A23F6DE273E0B3
:1027800084EF97E00E94A23F62E373E08AEF97E054
:102790000E94A23F66E373E080E098E00E94A23FBF
:1027A0006AE373E086E098E00E94A23F6EE373E084
:1027B00084EC97E00E94A23FC0E0D0E026966AEB4E
:1027C00072E0CE018C53984F0E94A23FCA32D105CD
:1027D000A9F710929D0710929E0780E090E0ACE56B
:1027E000B3E480939F079093A007A093A107B093B1
:1027F000A2071092A30780E090E0A0E8B0E48093E5
:10280000A4079093A507A093A607B093A7071092DB
:10281000A80780E090E8ABE3B6E48093A907909323
:10282000AA07A093AB07B093AC0788E28093AD07EB
:102830001092AE071092AF071092B0071092B10736
:102840001092B20780E090E0A8E4B3E48093B3076D
:102850009093B407A093B507B093B60784EB809329
:10286000B70780E090E0AAE7B3E48093B8079093BD
:10287000B907A093BA07B093BB071092BC07109298
:10288000BD071092BE071092BF078FEF8093C0075D
:102890001092C1071092C2071092C30784E397E019
:1028A0000E941C0A8EE096E0DF91CF91E5CCCF9399
:1028B000DF93C4EFD7E02697CE010E943B3F87E02D
:1028C000C43CD807C1F786E098E00E943B3F80E017
:1028D00098E00E943B3F8AEF97E00E943B3F84EFE5
:1028E00097E00E943B3F8EE198E00E943B3F88E1E9
:1028F00098E00E943B3F82E198E00E943B3F8CE0E1
:1029000098E00E943B3F86E398E00E943B3F80E3D3
:1029100098E00E943B3F8AE298E00E943B3F84E2BD
:1029200098E00E943B3F8EE498E00E943B3F88E4A1
:1029300098E00E943B3F82E498E00E943B3F8CE39A
:1029400098E00E943B3F86E698E00E943B3F80E68D
:1029500098E00E943B3F8AE598E00E943B3F84E577
:1029600098E00E943B3F8EE798E00E943B3F88E75B
:1029700098E00E943B3F82E798E00E943B3F8CE654
:1029800098E00E943B3FC2EAD8E02697CE010E9421
:102990003B3F88E0C438D807C1F7DF91CF91089555
:1029A000FC01283009F4EEC018F4213041F00895FC
:1029B000203109F4F7C0213109F402C10895878557
:1029C0008430C1F4A08DB18D82A19C91613011F44D
:1029D000892B02C0809589238C93A28DB38D9C9105
:1029E00083A1809589238C93A28DB38D9C9183A123
:1029F000892B08C0A089B189868D9C916130C1F373
:102A0000809589238C93A08DB18D82A19C9147FFE5
:102A100002C0892B02C0809589238C93A28DB38D2F
:102A20009C9183A1809589238C93A28DB38D9C91D9
:102A300083A1892B8C93A08DB18D82A19C9146FF9F
:102A400002C0892B02C0809589238C93A28DB38DFF
:102A50009C9183A1809589238C93A28DB38D9C91A9
:102A600083A1892B8C93A08DB18D82A19C9145FF70
:102A700002C0892B02C0809589238C93A28DB38DCF
:102A80009C9183A1809589238C93A28DB38D9C9179
:102A900083A1892B8C93A08DB18D82A19C9144FF41
:102AA00002C0892B02C0809589238C93A28DB38D9F
:102AB0009C9183A1809589238C93A28DB38D9C9149
:102AC00083A1892B8C93A08DB18D82A19C9143FF12
:102AD00002C0892B02C0809589238C93A28DB38D6F
:102AE0009C9183A1809589238C93A28DB38D9C9119
:102AF00083A1892B8C93A08DB18D82A19C9142FFE3
:102B000002C0892B02C0809589238C93A28DB38D3E
:102B10009C9183A1809589238C93A28DB38D9C91E8
:102B200083A1892B8C93A08DB18D82A19C9141FFB3
:102B300002C0892B02C0809589238C93A28DB38D0E
:102B40009C9183A1809589238C93A28DB38D9C91B8
:102B500083A1892B8C93A08DB18D82A19C9140FF84
:102B600002C0892B02C0809589238C93A28DB38DDE
:102B70009C9183A1809589238C93A28DB38D9C9188
:102B800083A1A2C062B9A289B3899C91878D8095E7
:102B900089238C93A289B3899C91878D892B8C93EF
:102BA00042B902C062B948B9A289B3899C91878DA4
:102BB000809589238C93A289B3899C91878D84C049
:102BC000A59894B3862F8071880F892B84BB809140
:102BD0000201877E8093020190910201862F807C02
:102BE000869586958695892B809302018EB1847C8B
:102BF0008EB99EB1262F2C70220F220F862F837044
:102C0000280F862F8072682F70E0759567957595EF
:102C10006795620F692B6EB9A48DB58D9C9184A1C7
:102C2000809589238C93A48DB58D9C9184A1892B4B
:102C30008C93A48DB58D9C9184A1809589238C93D0
:102C4000A489B5899C9180A1809589238C93A598AE
:102C500094B3842F8071880F892B84BB80910201EB
:102C6000877E8093020190910201842F807C86955B
:102C700086958695892B809302018EB1847C8EB9CE
:102C80009EB1242F2C70220F220F842F8370280FC7
:102C9000842F8072482F50E055954795559547955C
:102CA000420F492B4EB9A289B3899C91878D80959B
:102CB00089238C93A289B3899C91878D892B8C93CE
:102CC000A489B5899C9180A1892B8C930895613149
:102CD00031F08FEF81B9603149F487B9089588E107
:102CE0008093010180E283BB8BE38DB908958F92BD
:102CF0009F92AF92BF92CF92DF92EF92FF920F938B
:102D00001F93CF93DF93EC016801790162B948B951
:102D1000C901B80120E130E040E050E00E944740A6
:102D200049015A0180E090E0DC0188159905AA0567
:102D3000BB050CF0D4C0EA89FB8930812F8D20952A
:102D400023232083EA89FB8930812F8D232B208345
:102D5000EA89FB8930812F8D209523232083EA89FE
:102D6000FB8930812F8D232B2083EA89FB893081D9
:102D70002F8D209523232083EA89FB8930812F8D95
:102D8000232B2083EA89FB8930812F8D20952323F3
:102D90002083EA89FB8930812F8D232B2083EA89C8
:102DA000FB8930812F8D209523232083EA89FB899D
:102DB00030812F8D232B2083EA89FB8930812F8D51
:102DC000209523232083EA89FB8930812F8D232BB3
:102DD0002083EA89FB8930812F8D2095232320834E
:102DE000EA89FB8930812F8D232B2083EA89FB8997
:102DF00030812F8D209523232083EA89FB89308120
:102E00002F8D232B2083EA89FB8930812F8D2095FC
:102E100023232083EA89FB8930812F8D232B208374
:102E2000EA89FB8930812F8D209523232083EA892D
:102E3000FB8930812F8D232B2083EA89FB89308108
:102E40002F8D209523232083EA89FB8930812F8DC4
:102E5000232B2083EA89FB8930812F8D2095232322
:102E60002083EA89FB8930812F8D232B2083EA89F7
:102E7000FB8930812F8D209523232083EA89FB89CC
:102E800030812F8D232B2083EA89FB8930812F8D80
:102E9000209523232083EA89FB8930812F8D232BE2
:102EA0002083EA89FB8930812F8D2095232320837D
:102EB000EA89FB8930812F8D232B2083EA89FB89C6
:102EC00040813F8D309534233083EA89FB8920810E
:102ED0003F8D322B30830196A11DB11D26CFD70126
:102EE000C6018F709927AA27BB27892B8A2B8B2B8A
:102EF00019F1C701B60120E130E040E050E00E9446
:102F00004740C12CD12C76016C157D058E059F059F
:102F10009CF0EA89FB8930812F8D20952323208323
:102F2000EA89FB8930812F8D232B20832FEFC21A52
:102F3000D20AE20AF20AE8CFDF91CF911F910F91F6
:102F4000FF90EF90DF90CF90BF90AF909F908F90C9
:102F500008958F929F92AF92BF92CF92DF92EF929D
:102F6000FF92CF93DF93EC0169017A0162B9CA0144
:102F7000B90120E130E040E050E00E9447404901C3
:102F80005A0180E090E0DC0188159905AA05BB058F
:102F90000CF0A4C1EA89FB8930812F8D2095232371
:102FA0002083EA89FB8930812F8D232B2083EA89B6
:102FB000FB8930812F8D209523232083EA89FB898B
:102FC00030812F8D232B2083EA89FB8930812F8D3F
:102FD000209523232083EA89FB8930812F8D232BA1
:102FE0002083EA89FB8930812F8D2095232320833C
:102FF000EA89FB8930812F8D232B2083EA89FB8985
:1030000030812F8D209523232083EA89FB8930810D
:103010002F8D232B2083EA89FB8930812F8D2095EA
:1030200023232083EA89FB8930812F8D232B208362
:10303000EA89FB8930812F8D209523232083EA891B
:10304000FB8930812F8D232B2083EA89FB893081F6
:103050002F8D209523232083EA89FB8930812F8DB2
:10306000232B2083EA89FB8930812F8D2095232310
:103070002083EA89FB8930812F8D232B2083EA89E5
:10308000FB8930812F8D209523232083EA89FB89BA
:1030900030812F8D232B2083EA89FB8930812F8D6E
:1030A000209523232083EA89FB8930812F8D232BD0
:1030B0002083EA89FB8930812F8D2095232320836B
:1030C000EA89FB8930812F8D232B2083EA89FB89B4
:1030D00030812F8D209523232083EA89FB8930813D
:1030E0002F8D232B2083EA89FB8930812F8D20951A
:1030F00023232083EA89FB8930812F8D232B208392
:10310000EA89FB8930812F8D209523232083EA894A
:10311000FB8930812F8D232B2083EA89FB89308125
:103120002F8D209523232083EA89FB8930812F8DE1
:10313000232B2083EA89FB8930812F8D209523233F
:103140002083EA89FB8930812F8D232B2083EA8914
:10315000FB8930812F8D209523232083EA89FB89E9
:1031600030812F8D232B2083EA89FB8930812F8D9D
:10317000209523232083EA89FB8930812F8D232BFF
:103180002083EA89FB8930812F8D2095232320839A
:10319000EA89FB8930812F8D232B2083EA89FB89E3
:1031A00030812F8D209523232083EA89FB8930816C
:1031B0002F8D232B2083EA89FB8930812F8D209549
:1031C00023232083EA89FB8930812F8D232B2083C1
:1031D000EA89FB8930812F8D209523232083EA897A
:1031E000FB8930812F8D232B2083EA89FB89308155
:1031F0002F8D209523232083EA89FB8930812F8D11
:10320000232B2083EA89FB8930812F8D209523236E
:103210002083EA89FB8930812F8D232B2083EA8943
:10322000FB8930812F8D209523232083EA89FB8918
:1032300030812F8D232B2083EA89FB8930812F8DCC
:10324000209523232083EA89FB8930812F8D232B2E
:103250002083EA89FB8930812F8D209523232083C9
:10326000EA89FB8930812F8D232B2083EA89FB8912
:1032700030812F8D209523232083EA89FB8930819B
:103280002F8D232B2083EA89FB8930812F8D209578
:1032900023232083EA89FB8930812F8D232B2083F0
:1032A000EA89FB8930812F8D209523232083EA89A9
:1032B000FB8930812F8D232B2083EA89FB89408174
:1032C0003F8D309534233083EA89FB8920813F8DFF
:1032D000322B30830196A11DB11D56CED701C601F8
:1032E0008F709927AA27BB27892B8A2B8B2B81F1DB
:1032F000C701B60120E130E040E050E00E944740C5
:10330000C12CD12C76016C157D058E059F0504F12D
:10331000EA89FB8930812F8D209523232083EA8938
:10332000FB8930812F8D232B2083EA89FB89308113
:103330002F8D209523232083EA89FB8930812F8DCF
:10334000232B20832FEFC21AD20AE20AF20ADBCF24
:10335000DF91CF91FF90EF90DF90CF90BF90AF9033
:103360009F908F90089508954F925F926F927F92F1
:103370008F929F92AF92BF92CF92DF92EF92FF9285
:103380000F931F93CF93DF93CDB7DEB7C05AD10908
:103390000FB6F894DEBF0FBECDBF70E4E6E1F2E0F9
:1033A000DE01AF5BBF4F01900D927A95E1F770E4BB
:1033B000E6E5F2E0DE01119601900D927A95E1F7D3
:1033C00070E2E6E9F2E0DE01AF57BF4F01900D92E7
:1033D0007A95E1F7E62FF0E05F01AA0CBB1CA1E4AF
:1033E000B0E0AC0FBD1FAA0DBB1D0D90BC91A02D70
:1033F0002D01612C712CDC0115964D925D926D9220
:103400007C921897A1E0B0E0AC0FBD1FAA0DBB1DC8
:103410000D90BC91A02D4D01A12CB12CDC01199671
:103420008D929D92AD92BC921C97A1E8B0E0AC0F3A
:10343000BD1FEA0FFB1F7081FC017687658745A3DE
:1034400026A307A3E0A6C1A6743019F461E066873D
:103450007787DC011E966C911E97653031F471E020
:103460001E967C931E971F966C93FC0166856130B7
:1034700009F498C049013A015C0129DCF301EC56DA
:10348000FD4EE491F0E0EE0FFF1FEC50FD4E259154
:103490003491D50151963C932E935097F301E25B02
:1034A000FD4EE4915E96EC935E97F401EC56FD4E72
:1034B000E491F0E0EE0FFF1FEC50FD4E25913491AA
:1034C000F501338B228BF401E25BFD4EE4915F96B4
:1034D000EC935F97C801F801EC56FD4EE491F0E0E3
:1034E000EE0FFF1FEC50FD4E25913491F501358B09
:1034F000248BFC01E25BFD4EE4919096EC93909757
:10350000F701EC56FD4EE491F0E0EE0FFF1FEC509A
:10351000FD4E85919491F501978B868BF701E25BC7
:10352000FD4EE4909196EC9291971E968C9181318C
:1035300009F0ADC0F601EC56FD4EE491F0E0EE0F5F
:10354000FF1FEC50FD4EA591B491F501B58FA48FEE
:10355000F601E25BFD4E9491F50194A38C91E92F65
:10356000E095E823EC9361E088E00E94A93E60E0EA
:1035700088E0C056DF4F0FB6F894DEBF0FBECDBF58
:10358000DF91CF911F910F91FF90EF90DF90CF903F
:10359000BF90AF909F908F907F906F905F904F9073
:1035A0000C94E53EBA01FA01EC56FD4EE491F0E0D0
:1035B000EE0FFF1FEC50FD4E45915491DC015996E2
:1035C0005C934E935897FB01E25BFD4EE49192961B
:1035D000EC939297A901F901EC56FD4EE491F0E0CD
:1035E000EE0FFF1FEC50FD4E25913491FC01338FFF
:1035F000228FFA01E25BFD4EE4919396EC93939750
:10360000F801EC56FD4EE491F0E0EE0FFF1FEC5098
:10361000FD4E45915491FC01558B448BF801E25BC2
:10362000FD4EE4919096EC93BFEFEB16F104A9F0F8
:10363000F701EC56FD4EE491F0E0EE0FFF1FEC5069
:10364000FD4E25913491FC01378B268BF701E25B0F
:10365000FD4EE490DC019196EC92FC01278524302C
:10366000B1F0F601EC56FD4EE491F0E0EE0FFF1FD5
:10367000EC50FD4E45915491DC0151965C934E9374
:103680005097F601E25BFD4EE4915E96EC93C056D6
:10369000DF4F0FB6F894DEBF0FBECDBFDF91CF91E5
:1036A0001F910F91FF90EF90DF90CF90BF90AF9060
:1036B0009F908F907F906F905F904F900895462FCE
:1036C000DC011E962C911E97213071F05096ED91E1
:1036D000FC91519730815E962C915E972095232323
:1036E00020831E962C9101C021E060E059C91F93F0
:1036F000CF93DF93DC011E962C911E97213069F049
:103700005096ED91FC91519730815E962C915E9789
:10371000232B20831E962C910AC0142F462FEC01D8
:1037200021E061E03DD92E85412F61E0CE01DF919E
:10373000CF911F9135C9462FDC011E962C911E9703
:10374000213071F05096ED91FC91519730815E9649
:103750002C915E97232B20831E962C9160E002C053
:1037600021E061E01DC90F931F93CF93DF93EC011C
:103770008A01A5DF402F612FCE01DF91CF911F91EC
:103780000F91B5CFAF92BF92CF92DF92EF92FF929F
:103790000F931F93CF93DF93EC016B01B42EA52EF3
:1037A00079018C81813069F489859A859C01261B79
:1037B000370B8E199F0978018901C42ED52EB82E9A
:1037C000A92EED858E2F90E0FC013297EE31F105A8
:1037D00008F00EC18827EE58FF4F8F4F0C946340BE
:1037E0004D2D50E062E0CE01BEDFA60163E0CE01C8
:1037F000BADF4F2D50E064E0CE01B5DFA70165E0F0
:10380000CE01B1DF4A2D50E066E0CE01ACDF4B2D9A
:103810005A2D67E0CE01A7DF412F50E052C05E2D48
:1038200044274C0D5D1D64E4CE019DDF4B2D5A2DC8
:1038300065E4CE0198DFA80166E4CE0194DFA6011D
:103840006EE4CE0190DF4B2D5A2D6FE4CE018BDF5D
:1038500062E2C2C0A60160E2CE0185DF4B2D5A2D87
:1038600061E2CE0180DFA60160E5CE017CDF4B2D59
:103870005A2D62E5CE0177DFA70161E5CE0173DF46
:10388000A80163E5E3CF40E050E062E0CE016BDFEA
:10389000A60163E0CE0167DF40E050E064E0CE01C6
:1038A00062DFA70165E0CE015EDF40E050E066E048
:1038B000CE0159DF4B2D5A2D67E0CE0154DF40E099
:1038C00050E068E0CE014FDFA80169E0BFCF6AE2B7
:1038D000CE01F5DE6C2DCE012EDF6E2DCE012BDF5D
:1038E0006BE2CE01ECDE6B2D71C06AE2CE01E7DE49
:1038F0006A2DCE0120DF6B2DCE011DDF612FCE01A1
:103900001ADF602FCE0117DF6BE2CE01D8DE6D2DFE
:10391000CE0111DF6C2DCE010EDF6F2DCE010BDF3E
:103920006E2D57C05E2D44274C295D2966E4CE01DB
:103930001ADFA80167E4CE0116DF4B2D5A2D68E48B
:103940000FC0A70166E3CE010EDFA60167E3CE013B
:103950000ADFA80168E3CE0106DF4B2D5A2D69E38B
:10396000CE0101DFA60160E2CE01FDDE4B2D5A2D16
:1039700061E26CCF4B2D5A2D62E0CE01F4DEA60140
:1039800063E0CE01F0DEA80166E0CE01ECDEA70127
:1039900067E0CE01E8DE6FE01FC06AE2CE018FDE95
:1039A0006D2DCE01C8DE6C2DCE01C5DE6F2DCE0192
:1039B000C2DE6E2DCE01BFDE6BE2CE0180DE6A2D4F
:1039C000CE01B9DE6B2DCE01B6DE612FCE01B3DEA6
:1039D000602FCE01B0DE6CE2CE01DF91CF911F915E
:1039E0000F91FF90EF90DF90CF90BF90AF9067CE98
:1039F000DF91CF911F910F91FF90EF90DF90CF90CB
:103A0000BF90AF9008950F931F93CF93DF93EC0176
:103A10006C8361E08DA10E94A93E61E08EA10E94AD
:103A2000A93E61E08FA10E94A93E88A58F3F19F0B1
:103A300061E00E94A93E8E85813129F0813039F400
:103A40008F85853021F461E089A50E94A93E6E85AD
:103A5000613011F0CE013BD9EE89FF89908189A1B7
:103A6000892B808365E070E080E090E00E94AE3DAD
:103A7000EE89FF89908189A18095892380836FE0F9
:103A800070E080E090E00E94AE3DEE89FF89908179
:103A900089A1892B80836FE070E080E090E00E9434
:103AA000AE3DEC89FD89908188A180958923808332
:103AB000ED858E2F90E0FC013297EE31F10510F08C
:103AC0000C94D62F8827E057FF4F8F4F0C946340FC
:103AD00041E050E060E0CE0146DE44EA58EA63E0AF
:103AE000CE0141DE40E050E06CE0CE013CDE4CE037
:103AF00058E06DE0CE0137DE40E05BE26EE0CE01E3
:103B000032DE47EB50E06EE1CE012DDE4FE35BE2AB
:103B100061E0CE0128DE40E056E062E0CE0123DE27
:103B200040E050E060E1CE011EDE40E750E661E19A
:103B3000CE0119DE40E050E065E0CE0114DE40E049
:103B400050E066E0CE010FDE4CE15FEE66E1CE01B3
:103B50000ADE43E050E067E1CE0105DE43E352E0D8
:103B600067E0CE0100DE40E050E06BE0CE01FBDD1F
:103B700040E050E06FE0CE01F6DD40E050E061E46F
:103B8000CE01F1DD40E050E062E4CE01ECDD40E04A
:103B900050E068E4CE01E7DD4FE351E069E4CE0197
:103BA000E2DD40E050E06AE4CE01DDDD40E050E0DF
:103BB0006BE4CE01D8DD40E05FEE64E4CE01D3DDFE
:103BC00040E050E065E4CE01CEDD4FE351E066E435
:103BD000CE01C9DD47E057E060E3CE01C4DD44E03B
:103BE00052E061E3CE01BFDD44E052E062E3CE018A
:103BF000BADD42E055E063E3CE01B5DD47E055E0D4
:103C000064E3CE01B0DD44E052E065E3CE01ABDD1C
:103C100044E052E066E3CE01A6DD42E055E067E312
:103C2000CE01A1DD42E053E06AE3CE019CDD42E03B
:103C300053E06BE3CE0197DD40E050E063E2CE015C
:103C400092DD40E050E064E2CE018DDD40E050E8DE
:103C500065E2CE0188DD40E050E06FE4CE0183DD17
:103C600040E050E06EE40C946E2940EF58E765EEBA
:103C7000CE0179DD40E051E061E0CE0174DD40E04D
:103C800052E062E0CE016FDD40E350E163E0CE013F
:103C90006ADD40E050E064E0CE0165DD47E052E0DF
:103CA00068E0CE0160DD40E050E069E0CE015BDD20
:103CB00040E050E06AE0CE0156DD40E050E06CE0CC
:103CC000CE0151DD40E050E06DE0CE014CDD40E042
:103CD00050E06FE0CE0147DD40E050E060E1CE0112
:103CE00042DD47E050E061E1CE013DDD40E050E0E3
:103CF00062E1CE0138DD40E050E063E1CE0133DD2A
:103D000041E050E067E0CE012EDD68EC70E080E03D
:103D100090E00E94AE3D40E956E160E1CE0123DD36
:103D200047E252E061E1CE011EDD62E370E080E037
:103D300090E00E94AE3D4DE050E062E1CE0113DD27
:103D400062E370E080E090E00E94AE3D40E052E12E
:103D500063E1CE0108DD4AE050E069E2CE0103DD17
:103D60004DE050E07DC040EF58E765EECE01FBDC52
:103D700040E051E061E0CE01F6DC40E057E062E077
:103D8000CE01F1DC40E350E163E0CE01ECDC40E049
:103D900050E064E0CE01E7DC47E052E068E0CE01AD
:103DA000E2DC40E050E069E0CE01DDDC40E050E0E4
:103DB0006AE0CE01D8DC40E050E06CE0CE01D3DC1C
:103DC00040E050E06DE0CE01CEDC40E050E06FE03E
:103DD000CE01C9DC40E050E060E1CE01C4DC47E048
:103DE00050E061E1CE01BFDC40E050E062E1CE0195
:103DF000BADC40E050E063E1CE01B5DC41E050E0E8
:103E000067E0CE01B0DC68EC70E080E090E00E94FA
:103E1000AE3D40E955E160E1CE01A5DC47E252E06C
:103E200061E1CE01A0DC62E370E080E090E00E94FE
:103E3000AE3D4CE950E062E1CE0195DC62E370E01A
:103E400080E090E00E94AE3D40E059E163E1CE01A8
:103E50008ADC43E250E069E2CE0185DC4EE050E0CE
:103E60006BE2CE0180DC62E370E080E090E00E94D3
:103E7000AE3D40E050E060E2CE0175DC40E050E055
:103E800061E2CE0170DC40E050E060E3CE016BDC2B
:103E900044E054E061E3CE0166DC43E050E062E3DD
:103EA000CE0161DC45E054E065E3CE015CDC48E036
:103EB00058E066E3CE0157DC47E054E067E3CE010B
:103EC00052DC43E053E068E3CE014DDC47E057E0CD
:103ED00069E3CE0148DC44E055E06CE3CE0143DC0D
:103EE00048E058E06DE3CE013EDC40E050E060E5A4
:103EF000CE0139DC4FEE50E061E5CE0134DC40E02C
:103F000050E062E5CE012FDC4FE351E063E5CE01E6
:103F10002ADC40E057EA60E6CE0125DC41E050E0D3
:103F200061E6CE0120DC40E050E06AE6CE011BDC19
:103F300040E050E060E8CE0116DC40E050E061E88F
:103F4000CE0111DC40E050E062E8CE010CDC40E044
:103F500050E063E8CE0107DC40E050E064E8CE01C9
:103F600002DC40E050E065E8CE01FDDB40E150E0DE
:103F700060E9CE01F8DB40E050E062E9CE01F3DB1E
:103F800043E351E067E0CE01EEDB0C94D62F44E82A
:103F900050E066E2CE01E7DB68E270E080E090E0AE
:103FA0000E94AE3D48EB50E066E2CE01DCDB68E209
:103FB00070E080E090E00E94AE3D4CEB50E066E2A5
:103FC000CE01D1DB64E170E080E090E00E94AE3D84
:103FD00040E050E060E6CE01C6DB46E050E061E63E
:103FE000CE01C1DB40E050E062E6CE01BCDB48EC34
:103FF00050E063E6CE01B7DB64E170E080E090E082
:104000000E94AE3D40E750E063E7CE01ACDB40E00C
:1040100050E060E4CE01A7DB40E450E061E4CE0173
:10402000A2DB45E450E062E4CE019DDB41E050E0DC
:1040300063E4CE0198DB40E650E064E4CE0193DB1C
:1040400045E050E065E4CE018EDB4CE050E066E4F4
:10405000CE0189DB41ED50E067E4CE0184DB45E031
:1040600050E068E4CE017FDB45E750E060E5CE013B
:104070007ADB41E050E061E5CE0175DB47E650E0D8
:1040800062E5CE0170DB44E150E063E5CE016BDB1D
:1040900042EF50E064E5CE0166DB47E050E065E5C5
:1040A000CE0161DB43E050E066E5CE015CDB49E434
:1040B00050E067E5CE0157DB64E170E080E090E01E
:1040C0000E94AE3D43E050E06FE1CE014CDB40E0AA
:1040D00050E060E2CE0147DB44E250E064E2CE0112
:1040E00042DB44E350E065E2CE013DDB4FE250E0CD
:1040F00063E2CE0138DB64E170E080E090E00E9492
:10410000AE3D44E450E068E1CE012DDB41E050E0FB
:1041100061E2CE0128DB40E050E061E0CE0123DB2C
:1041200043E050E06CE1CE011EDB46E050E069E187
:10413000CE0119DB64E170E080E090E00E94AE3DCA
:1041400044E850E066E2CE010EDB68E270E080E019
:1041500090E00E94AE3D48EB50E066E2CE0103DB0A
:1041600068E270E080E090E00E94AE3D4CEB50E0F1
:1041700066E2CE01F8DA64E170E080E090E00E944F
:10418000AE3D40E050E062E0CE01EDDA40E050E0CC
:1041900063E0CE01E8DA40E050E064E0CE01E3DA2B
:1041A0004FEA50E065E0CE01DEDA40E050E066E044
:1041B000CE01D9DA40E050E067E0CE01D4DA40E049
:1041C00050E068E0CE01CFDA4BED50E069E0CE017F
:1041D000CADA64E170E080E090E00E94AE3D48E021
:1041E00050E066E1CE01BFDA45E050E067E1CE0184
:1041F000BADA61E2CE0163DA62E2CE0160DA0C94EF
:10420000D62F61E1CE015BDA6CE070E080E090E0F7
:104210000E94AE3D61EBCE0152DA61E0CE018BDA55
:104220006CE2CE0188DA6DE2CE0185DA62EBCE0176
:1042300046DA61E0CE017FDA6CE2CE017CDA6DE233
:10424000CE0179DA63EBCE013ADA61E0CE0173DABE
:104250006CE2CE0170DA6DE2CE016DDA61E0CE0182
:104260006ADA6CE2CE0167DA6DE2CE0164DA64EB01
:10427000CE0125DA67E0CE015EDA60ECCE011FDA0E
:1042800062EACE0158DA62E0CE0155DA64E8CE0186
:1042900052DA61ECCE0113DA65ECCE014CDA62EC55
:1042A000CE010DDA6AE0CE0146DA60E0CE0143DAF3
:1042B00063ECCE0104DA6AE8CE013DDA6AE2CE01AF
:1042C0003ADA64ECCE01FBD96AE8CE0134DA6EEE5C
:1042D000CE0131DA65ECCE01F2D96EE0CE012BDAF7
:1042E00066E3CE01ECD968EC73C061E1CE01E7D999
:1042F0006CE070E080E090E00E94AE3D61EBCE01AA
:10430000DED961E0CE0117DA6CE2CE0114DA6DE29B
:10431000CE0111DA62EBCE01D2D961E0CE010BDA27
:104320006CE2CE0108DA6DE2CE0105DA63EBCE0174
:10433000C6D961E0CE01FFD96CE2CE01FCD96DE2B5
:10434000CE01F9D961E0CE01F6D96CE2CE01F3D904
:104350006DE2CE01F0D964EBCE01B1D967E0CE01B8
:10436000EAD960ECCE01ABD962EACE01E4D962E0D1
:10437000CE01E1D964E8CE01DED961ECCE019FD94E
:1043800065ECCE01D8D962ECCE0199D96AE0CE01B4
:10439000D2D960E0CE01CFD963ECCE0190D96AE8E2
:1043A000CE01C9D96AE2CE01C6D964ECCE0187D963
:1043B0006AE8CE01C0D96EEECE01BDD965ECCE0162
:1043C0007ED96EE0CE01B7D966E3CE0178D960EC34
:1043D000CE01B1D960EECE0172D96FE0CE01ABD97A
:1043E0006AE1CE01A8D96FE0CE01A5D968E1CE017E
:1043F000A2D96FE2CE019FD968E2CE019CD960E2DA
:10440000CE0199D962E2CE0196D96FE1CE0193D95E
:104410006BE1CE0190D963E2CE018DD967E3CE0185
:104420008AD960E0CE0187D967E0CE0184D962E005
:10443000CE0181D960E1CE017ED961EECE013FD9B6
:104440006FE0CE0178D96BE1CE0175D96FE0CE0176
:1044500072D967E1CE016FD963E3CE016CD96CE20A
:10446000CE0169D969E2CE0166D96EE2CE0163D987
:1044700060E3CE0160D960E3CE015DD969E3CE018E
:104480005AD96FE3CE0157D960E0CE0154D967E025
:10449000CE0151D963E0CE014ED960E1CE014BD9B6
:1044A0006AE2CE010CD960E0CE0145D960E0CE01D0
:1044B00042D960E0CE013FD96FE7CE013CD96BE233
:1044C000CE01FDD860E0CE0136D960E0CE0133D90F
:1044D00060E0CE0130D96FE9CE012DD960EFCE0179
:1044E000EED861E0CE0127D966EFCE01E8D860E0D2
:1044F0000C94922A61E0CE01E2D865E2CE01DFD8C9
:1045000060E4CE0118D961E1CE01D9D86AE070E04B
:1045100080E090E00E94AE3D60E2CE01D0D868E33A
:10452000CE01CDD869E2CE01CAD863E1CE01C7D8A9
:1045300066E3CE01C4D860E6CE01FDD86AE3CE01C1
:10454000BED865E0CE01F7D86AE2CE01B8D860E007
:10455000CE01F1D86FE7CE01EED864EBCE01AFD833
:1045600063E0CE01E8D868E0CE01E5D86BE0CE018B
:10457000E2D86EE0CE01DFD86AEBCE01A0D867E0CA
:10458000CE01D9D86DE0CE01D6D86BE2CE0197D856
:1045900060E0CE01D0D86FE75EC263E8CE018FD86D
:1045A00062E0CE01C8D865E8CE0189D863E0CE01CB
:1045B000C2D86BE8CE0183D861E0CE01BCD86CE8EC
:1045C000CE017DD863E9CE01B6D861E9CE0177D8B6
:1045D00061E0CE01B0D863E8CE0171D860E0CE01D1
:1045E000AAD86EE3CE016BD860EBCE01A4D86FE3FE
:1045F000CE0165D863E0CE019ED860E4CE015FD8DD
:1046000060E1CE0198D861E4CE0159D866E5CE01CB
:1046100092D862E4CE0153D863E1CE018CD863E432
:10462000CE014DD866E4CE0186D864E4CE0147D8E9
:1046300063E2CE0180D865E4CE0141D866E7CE01C1
:104640007AD866E4CE013BD860E0CE0174D867E446
:10465000CE0135D86EE5CE016ED868E4CE012FD8F4
:104660006FE4CE0168D869E4CE0129D860E4CE01B8
:1046700062D867E1CE0123D861E9CE015CD86BE254
:10468000CE011DD869EFCE0156D86AE070E080E017
:1046900090E00E94AE3D6BE1CE0111D864E1CE0105
:1046A0004AD86AE1CE010BD861E1CE0144D86CE171
:1046B000CE0105D866E0CE013ED86FE1CE010E9462
:1046C0005F1B62E4CE0137D864E170E080E090E0E7
:1046D0000E94AE3D69E1CE010E945F1B6AE0CE01FF
:1046E0002AD869E1CE010E945F1B6AE1CE0123D87E
:1046F00068E270E080E090E00E94AE3D69E1CE01AA
:104700000E945F1B62E1CE0116D868E270E080E093
:1047100090E00E94AE3D6EE1CE010E945F1B67E219
:10472000CE0109D864E670E080E090E00E94AE3DE2
:1047300064E2CE010E945F1B60E6CE010E949B1BDB
:104740006DE3CE010E945F1B60E4CE010E949B1BC3
:1047500064E3CE010E945F1B68E3CE010E949B1BB5
:1047600065E3CE010E945F1B68E3CE010E949B1BA4
:1047700064E2CE010E945F1B68E3CE010E949B1B96
:1047800068E270E080E090E00E94AE3D64E2CE011D
:104790000E945F1B6CE3CE010E949B1B66E1CE0171
:1047A0000E945F1B6CE1CE010E949B1B61E0CE0169
:1047B0000E945F1B66E0CE010E949B1B65E5CE0157
:1047C0000E945F1B60E0CE010E949B1B62E0CE0155
:1047D0000E945F1B60E0CE010E949B1B63E0CE0144
:1047E0000E945F1B60E0CE010E949B1B64E0CE0133
:1047F0000E945F1B60E0CE010E949B1B65E0CE0122
:104800000E945F1B6FEECE010E949B1B66E0CE01F3
:104810000E945F1B60E0CE010E949B1B67E0CE01FF
:104820000E945F1B60E0CE010E949B1B68E0CE01EE
:104830000E945F1B61E0CE010E949B1B69E0CE01DC
:104840000E945F1B6FE8CE010E949B1BD5CC62EEDD
:10485000CE010E945F1B63E2CE010E949B1B62E0BF
:10486000CE010E949B1B64E5CE010E949B1B60EE63
:10487000CE010E945F1B61E0CE010E949B1B6AE09B
:1048800070E080E090E00E94AE3D60EECE010E94BC
:104890005F1B63E0CE010E949B1B6AE070E080E03A
:1048A00090E00E94AE3D61E0CE010E945F1B64E695
:1048B00070E080E090E00E94AE3D66EECE010E9486
:1048C0005F1B61E0CE010E949B1B6FE1CE010E9445
:1048D0009B1B6FEFCE010E949B1B60EBCE010E94E1
:1048E0005F1B60E2CE010E949B1B60E0CE010E9434
:1048F0009B1B61E0CE010E949B1B6FEDCE010E94CD
:104900009B1B61E0CE010E949B1B6FE0CE010E94C9
:104910009B1B60E0CE010E949B1B64EBCE010E94BA
:104920005F1B62E0CE010E949B1B63E1CE010E94EF
:104930009B1B60E0CE010E949B1B68E0CE010E94A1
:104940009B1B6BE2CE010E949B1B60E0CE010E948C
:104950009B1B62E0CE010E949B1B60E0CE010E9487
:104960009B1B66EBCE010E945F1B61E0CE010E94A3
:104970009B1B60E2CE010E949B1B60E0CE010E9467
:104980009B1B64E0CE010E949B1B6CE0CE010E9449
:104990009B1B60E0CE010E949B1B62E0CE010E9447
:1049A0009B1B6AEBCE010E945F1B6FE0CE010E9451
:1049B0009B1B68EBCE010E945F1B67E0CE010E944B
:1049C0009B1B61E0CE010E949B1B66E3CE010E940F
:1049D0005F1B62E2CE010E949B1B60EFCE010E9432
:1049E0005F1B63E0CE010E949B1B61E070E080E0F2
:1049F00090E00E94AE3D0FE011E02FED31E040E08D
:104A000050E060E070E0CE010E94C21B69E2CE017E
:104A10000E945F1B6EEBCE010E945F1B66E0CE0121
:104A20000E949B1B60EFCE010E949B1B61E0CE01A8
:104A30000E949B1B60EFCE010E949B1B60E0CE0199
:104A40000E949B1B60E0CE010E949B1B60EDCE018B
:104A50000E945F1B6DE0CE010E949B1B0C94D52E23
:104A600062EECE010E945F1B6EE1CE010E949B1B95
:104A700062E0CE010E949B1B64E5CE010E949B1B5D
:104A800060EECE010E945F1B61E0CE010E949B1B85
:104A90006AE070E080E090E00E94AE3D60EECE0102
:104AA0000E945F1B63E0CE010E949B1B6AE070E0E6
:104AB00080E090E00E94AE3D61E0CE010E945F1B6D
:104AC00064E670E080E090E00E94AE3D66EECE01CC
:104AD0000E945F1B63E0CE010E949B1B6FEFCE0123
:104AE0000E949B1B6FEFCE010E949B1B60EBCE01CF
:104AF0000E945F1B64E2CE010E949B1B60E0CE011E
:104B00000E949B1B63E0CE010E949B1B6FE1CE01C4
:104B10000E949B1B61E0CE010E949B1B6FEDCE01AA
:104B20000E949B1B60E0CE010E949B1B64EBCE01A8
:104B30000E945F1B63E0CE010E949B1B60EACE01D6
:104B40000E949B1B60E0CE010E949B1B6EE2CE0187
:104B50000E949B1B60E3CE010E949B1B60E0CE0184
:104B60000E949B1B6FE0CE010E949B1B60E0CE0168
:104B70000E949B1B66EBCE010E945F1B62E0CE0190
:104B80000E949B1B6DE0CE010E949B1B60E0CE014A
:104B90000E949B1B60E1CE010E949B1B60E1CE0145
:104BA0000E949B1B60E0CE010E949B1B68E0CE012F
:104BB0000E949B1B6AEBCE010E945F1B6FE0CE013F
:104BC0000E949B1B68EBCE010E945F1B67E0CE0139
:104BD0000E949B1B61E0CE010E949B1B66E3CE01FD
:104BE0000E945F1B62E2CE010E949B1B60EFCE0120
:104BF0000E945F1B63E0CE010E949B1B61E070E09E
:104C000080E090E0D2C062EECE010E945F1B63E2C2
:104C1000CE010E949B1B62E0CE010E949B1B64E0C0
:104C2000CE010E949B1B60EECE010E945F1B61E0E3
:104C3000CE010E949B1B6AE070E080E090E00E9441
:104C4000AE3D60EECE010E945F1B63E0CE010E948C
:104C50009B1B6AE070E080E090E00E94AE3D61E066
:104C6000CE010E945F1B64E670E080E090E00E944D
:104C7000AE3D66EECE010E945F1B64E0CE010E9455
:104C80009B1B63E9CE010E949B1B60EECE010E943C
:104C90009B1B60EBCE010E945F1B60E0CE010E9477
:104CA0009B1B60E0CE010E949B1B63E0CE010E9433
:104CB0009B1B6FE1CE010E949B1B61E0CE010E9415
:104CC0009B1B6FEDCE010E949B1B60E0CE010E94FA
:104CD0009B1B64EBCE010E945F1B63E0CE010E9430
:104CE0009B1B60EACE010E949B1B60E0CE010E94EC
:104CF0009B1B6EE2CE010E949B1B60E3CE010E94D3
:104D00009B1B60E0CE010E949B1B6FE0CE010E94C6
:104D10009B1B60E0CE010E949B1B66EBCE010E94B4
:104D20005F1B62E0CE010E949B1B6DE0CE010E94E2
:104D30009B1B60E0CE010E949B1B60E1CE010E94A4
:104D40009B1B60E1CE010E949B1B60E0CE010E9494
:104D50009B1B68E0CE010E949B1B6AEBCE010E9468
:104D60005F1B65E0CE010E949B1B68EBCE010E9499
:104D70005F1B67E0CE010E949B1B61E0CE010E9499
:104D80009B1B66E3CE010E945F1B62E2CE010E9484
:104D90009B1B60EFCE010E945F1B63E0CE010E946F
:104DA0009B1B6AE070E080E090E00E94AE3D0FED5A
:104DB00011E02FE133E023CE44E050E261E1CE0187
:104DC0000E94B31B40E05CEC63E1CE010E94B31B88
:104DD00040E056E265E1CE010E94B31B4AE255E293
:104DE00064E1CE010E94B31B43E350E062E1CE01D7
:104DF0000E94B31B44E05CEC63E1CE010E94B31B54
:104E000046E05CEC63E1CE010E94B31B4FE45CEC36
:104E100063E1CE010E94B31B4FE457E663E1CE018C
:104E20000E94B31B43E050E261E1CE010E94B31B3C
:104E300049E056E260E3CE010E94B31B4CE254E22B
:104E400061E3CE010E94B31B43E25FE162E3CE0166
:104E50000E94B31B45E254E263E3CE010E94B31B00
:104E600046E252E264E3CE010E94B31B43E255E204
:104E700065E3CE010E94B31B4AE15CE166E3CE012B
:104E80000E94B31B4DE153E167E3CE010E94B31BC7
:104E900041E15BE068E3CE010E94B31B40E152E1D7
:104EA00069E3CE010E94B31B45E153E16AE3CE0101
:104EB0000E94B31B49E156E36BE3CE010E94B31B92
:104EC00040E05DE06CE3CE010E94B31B4DE050E09A
:104ED0006DE3CE010E94B31B47E050E066E1CE01D6
:104EE0000E94B31B43E150E062E0CE010E94B31B7D
:104EF00043E050E063E0CE010E94B31B47E251E083
:104F000061E0CE010E94B31B43E053E068E0CE01B4
:104F10000E94B31B4BE050E06AE0CE010E94B31B3D
:104F200043E050E06BE0CE010E94B31B40E050E054
:104F30006CE0CE010E94B31B40E050E061E4CE0182
:104F40000E94B31B40E050E060E5CE010E94B31B1D
:104F500045E050E060E6CE010E94B31B4BE050E01C
:104F600060E7CE010E94B31B40E050E061E7CE0154
:104F70000E94B31B40E050E068E7CE010E94B31BE3
:104F800040E050E06AE7CE010E94B31B47E050E0EA
:104F900069E7CE010E94B31B41E550E067E0CE0116
:104FA0000E94B31B43E550E067E0CE010E94B31BB3
:104FB00040E050E069E792C161E1CE010E945F1BD1
:104FC00064E170E080E090E00E94AE3D60EDCE01D3
:104FD0000E945F1B67E0CE010E949B1B62E4CE0132
:104FE0000E949B1B68E1CE010E949B1B61EDCE01DC
:104FF0000E945F1B60E0CE010E949B1B67E0CE0118
:105000000E949B1B60E1CE010E949B1B62EDCE01C2
:105010000E945F1B61E0CE010E949B1B62E0CE01FB
:105020000E949B1B60ECCE010E945F1B60E1CE01E1
:105030000E949B1B6BE3CE010E949B1B60E0CE0194
:105040000E949B1B62E0CE010E949B1B61E1CE018E
:105050000E949B1B65ECCE010E945F1B63E0CE01AA
:105060000E949B1B68ECCE010E945F1B60E0CE019A
:105070000E949B1B62E3CE010E949B1B66E3CE0154
:105080000E949B1B65E4CE010E949B1B66E0CE0143
:105090000E949B1B66E1CE010E949B1B67E3CE0131
:1050A0000E949B1B65E7CE010E949B1B67E7CE0118
:1050B0000E949B1B64E5CE010E949B1B6CE0CE010D
:1050C0000E949B1B60E0CE010E949B1B66E3CE0109
:1050D0000E945F1B6AE0CE010E949B1B6AE3CE0127
:1050E0000E945F1B65E5CE010E949B1B6AE2CE0118
:1050F0000E945F1B60E0CE010E949B1B60E0CE011E
:105100000E949B1B61E0CE010E949B1B6FE3CE01BE
:105110000E949B1B6BE2CE010E945F1B60E0CE01F0
:105120000E949B1B60E0CE010E949B1B61E0CE01B0
:105130000E949B1B60EECE010E949B1B68E770E003
:1051400080E090E00E94AE3DF8C14AE150E061E1AC
:10515000CE010E94B31B41E251E362E1CE010E9405
:10516000B31B4CE650E063E1CE010E94B31B49E45F
:1051700052E464E1CE010E94B31B40E058E060E1DC
:10518000CE010E94B31B6AE070E080E090E00E94D4
:10519000AE3D4AE151E061E1CE010E94B31B6AE0FD
:1051A00070E080E090E00E94AE3D4AE153E061E1B2
:1051B000CE010E94B31B6AE070E080E090E00E94A4
:1051C000AE3D4AE157E061E1CE010E94B31B6AE0C7
:1051D00070E080E090E00E94AE3D4AE15FE061E176
:1051E000CE010E94B31B6AE070E080E090E00E9474
:1051F000AE3D4AE35FE061E1CE010E94B31B6EE188
:1052000070E080E090E00E94AE3D4CE151E061E052
:10521000CE010E94B31B40E051E062E0CE010E944B
:10522000B31B40E350E163E0CE010E94B31B40E0BA
:1052300050E067E0CE010E94B31B48E058E068E010
:10524000CE010E94B31B40E051E16BE0CE010E9411
:10525000B31B40E050E06CE0CE010E94B31B41E084
:1052600054E16FE0CE010E94B31B40E050E065E1E5
:10527000CE010E94B31B40E050E060E2CE010E94EC
:10528000B31B40E050E061E2CE010E94B31B4FEA45
:1052900050E066E3CE010E94B31B40E050E067E3BC
:1052A000CE010E94B31B4BED50E068E3CE010E949B
:1052B000B31B40E050E069E3CE010E94B31B41E024
:1052C0005BE06FE0CE010E94B31B46E150E067E077
:1052D000CE010E94B31B47E150E067E0CE010E947F
:1052E000B31B0C94FC2061E1CE010E945F1B68E7B8
:1052F00070E080E090E00E94AE3D61EBCE010E9444
:105300005F1B65E0CE010E949B1B6CE3CE010E94F7
:105310009B1B6CE3CE010E949B1B62EBCE010E94A3
:105320005F1B65E0CE010E949B1B6CE3CE010E94D7
:105330009B1B6CE3CE010E949B1B63EBCE010E9482
:105340005F1B65E0CE010E949B1B6CE3CE010E94B7
:105350009B1B6CE3CE010E949B1B65E0CE010E946B
:105360009B1B6CE3CE010E949B1B6CE3CE010E9451
:105370009B1B64EBCE010E945F1B63E0CE010E9489
:105380009B1B60ECCE010E945F1B68E2CE010E9475
:105390009B1B68E0CE010E949B1B64E0CE010E9433
:1053A0009B1B61ECCE010E945F1B60ECCE010E9452
:1053B0009B1B62ECCE010E945F1B6DE0CE010E9440
:1053C0009B1B60E0CE010E949B1B63ECCE010E9400
:1053D0005F1B6DE8CE010E949B1B6AE2CE010E941A
:1053E0009B1B64ECCE010E945F1B6DE8CE010E9406
:1053F0009B1B6EEECE010E949B1B65ECCE010E94B2
:105400005F1B6AE1CE010E949B1B66E3CE010E94F6
:105410005F1B60ECCE010E949B1B60EECE010E94E0
:105420005F1B63E0CE010E949B1B62E2CE010E94E3
:105430009B1B67E0CE010E949B1B6AE0CE010E948D
:105440009B1B6EE2CE010E949B1B60E3CE010E947B
:105450009B1B65E2CE010E949B1B6AE2CE010E946B
:105460009B1B68E2CE010E949B1B66E2CE010E945C
:105470009B1B6EE2CE010E949B1B6AE3CE010E9441
:105480009B1B60E0CE010E949B1B61E0CE010E944D
:105490009B1B63E0CE010E949B1B63E1CE010E9437
:1054A0009B1B61EECE010E945F1B64E0CE010E9457
:1054B0009B1B66E1CE010E949B1B66E0CE010E9411
:1054C0009B1B6DE0CE010E949B1B6DE2CE010E94F2
:1054D0009B1B66E2CE010E949B1B63E2CE010E94F1
:1054E0009B1B67E2CE010E949B1B67E2CE010E94DC
:1054F0009B1B65E2CE010E949B1B6DE2CE010E94C8
:105500009B1B6BE3CE010E949B1B60E0CE010E94BF
:105510009B1B61E0CE010E949B1B64E0CE010E94B8
:105520009B1B63E1CE010E949B1B6AE3CE010E949C
:105530005F1B65E0CE010E949B1B69E20C94FD207D
:1055400061E1CE010E945F1B64E170E080E090E0C9
:105550000E94AE3D68E2CE010E945F1B65E070E0F4
:1055600080E090E00E94AE3D6FECCE010E945F1B98
:1055700060E0CE010E949B1B63E8CE010E949B1B52
:1055800060E3CE010E949B1B6DEECE010E945F1B6B
:1055900064E6CE010E949B1B63E0CE010E949B1B30
:1055A00062E1CE010E949B1B61E8CE010E949B1B21
:1055B00068EECE010E945F1B65E8CE010E949B1B36
:1055C00061E0CE010E949B1B69E7CE010E949B1BFC
:1055D0006BECCE010E945F1B69E3CE010E949B1B16
:1055E0006CE2CE010E949B1B60E0CE010E949B1BDF
:1055F00064E3CE010E949B1B62E0CE010E949B1BD4
:1056000067EFCE010E945F1B60E2CE010E949B1BF0
:105610006AEECE010E945F1B60E0CE010E949B1BE0
:1056200060E0CE010E949B1B60ECCE010E945F1BDC
:1056300066E2CE010E949B1B61ECCE010E945F1BC3
:1056400061E1CE010E949B1B65ECCE010E945F1BB5
:1056500065E3CE010E949B1B6EE3CE010E949B1B63
:1056600067ECCE010E945F1B6EEBCE010E949B1B7C
:1056700061EBCE010E945F1B60E0CE010E949B1B8C
:105680006BE1CE010E949B1B66EBCE010E945F1B6B
:105690006AE0CE010E949B1B62E8CE010E949B1B28
:1056A00067E2CE010E949B1B60E0CE010E949B1B23
:1056B00067EBCE010E945F1B67E0CE010E949B1B3F
:1056C0006AE3CE010E945F1B65E5CE010E949B1B31
:1056D00066E3CE010E945F1B68E4CE010E949B1B23
:1056E00069E2CE010E945F1B65E070E080E090E01F
:1056F0005BC46BECCE010E945F1B69E3CE010E948C
:105700009B1B6CE2CE010E949B1B60E0CE010E94BD
:105710009B1B64E3CE010E949B1B62E0CE010E94B2
:105720009B1B6FECCE010E945F1B60E0CE010E94CC
:105730009B1B61ECCE010E949B1B60E3CE010E948B
:105740009B1B68EECE010E945F1B65E8CE010E94A4
:105750009B1B60E0CE010E949B1B68E7CE010E946C
:105760009B1B6AEECE010E945F1B60E0CE010E948F
:105770009B1B60E0CE010E949B1B6DEECE010E9440
:105780005F1B64E6CE010E949B1B63E0CE010E947A
:105790009B1B62E1CE010E949B1B61E8CE010E942F
:1057A0009B1B67EFCE010E945F1B60E2CE010E944F
:1057B0009B1B60ECCE010E945F1B63E2CE010E9446
:1057C0009B1B61ECCE010E945F1B60E1CE010E9439
:1057D0009B1B65ECCE010E945F1B6EE3CE010E9415
:1057E0009B1B68E2CE010E949B1B67ECCE010E94CE
:1057F0005F1B66E8CE010E949B1B66E3CE010E9400
:105800005F1B68E4CE010E949B1B6AE3CE010E94ED
:105810005F1B65E5CE010E949B1B61EBCE010E94E0
:105820005F1B60E0CE010E949B1B68E1CE010E94DD
:105830009B1B66EBCE010E945F1B68E0CE010E94BD
:105840009B1B62E8CE010E949B1B67E2CE010E9477
:105850009B1B61E1CE010E945F1B68E770E080E066
:1058600090E09DC260EBCE010E945F1B6EE1CE0115
:105870000E949B1B60EBCE010E945F1B60E0CE018B
:105880000E949B1B63EBCE010E945F1B62E0CE0176
:105890000E949B1B60E0CE010E949B1B60E0CE013A
:1058A0000E949B1B60E1CE010E949B1B64EBCE011A
:1058B0000E945F1B60E0CE010E949B1B60ECCE014A
:1058C0000E945F1B63E0CE010E949B1B6BE3CE0135
:1058D0000E949B1B60E0CE010E949B1B60E0CE01FA
:1058E0000E949B1B60E0CE010E949B1B61E0CE01E9
:1058F0000E949B1B60E0CE010E949B1B63E4CE01D3
:105900000E949B1B61ECCE010E945F1B68E0CE01F0
:105910000E949B1B65E1CE010E949B1B68E0CE01AB
:105920000E949B1B68E0CE010E949B1B64ECCE0191
:105930000E945F1B65E1CE010E949B1B63E0CE01CC
:105940000E949B1B63E0CE010E949B1B61E0CE0185
:105950000E949B1B66ECCE010E945F1B62E0CE01A1
:105960000E949B1B68ECCE010E945F1B6CE0CE0185
:105970000E949B1B65E0CE010E949B1B6AE0CE014A
:105980000E949B1B6BE6CE010E949B1B64E0CE0134
:105990000E949B1B66E0CE010E949B1B65E1CE012D
:1059A0000E949B1B60E1CE010E949B1B60E0CE0128
:1059B0000E949B1B60E6CE010E949B1B66E3CE010A
:1059C0000E945F1B6AE0CE010E949B1B6CE0CE012F
:1059D0000E945F1B65E5CE010E949B1B6AE3CE011E
:1059E0000E945F1B65E5CE010E949B1B68E3CE0110
:1059F0000E945F1B60EDCE010E945F1B67E0CE013D
:105A00000E949B1B67E0CE010E949B1B64E1CE01BC
:105A10000E949B1B62EACE010E949B1B61EDCE019E
:105A20000E945F1B63E0CE010E949B1B6AE5CE01D2
:105A30000E949B1B60E1CE010E949B1B62EDCE0188
:105A40000E945F1B63E0CE010E949B1B64E0CE01BD
:105A50000E949B1B64E0CE010E949B1B61E1CE0172
:105A60000E945F1B66E970E080E090E00E94AE3D1E
:105A70006AE2CE010E945F1B60E0CE010E949B1B88
:105A800060E0CE010E949B1B61E0CE010E949B1B47
:105A90006FEDCE010E949B1B6BE2CE010E945F1B4B
:105AA00060E0CE010E949B1B60E0CE010E949B1B28
:105AB00061E0CE010E949B1B6FE3CE010E949B1B05
:105AC00064E670E080E090E00E94AE3D69E2CE01C5
:105AD0000E945F1B6EE170E080E090E00E94AE3DAE
