:100000000C948E090C947A340C94A5340C94D0344E
:100010000C94FB340C9426350C9451350C947C359F
:100020000C94A7350C94BF090C94BF090C94BF091C
:100030000C94BF090C94BF090C94BF090C94BF0920
:100040000C94BF090C94BF090C94BF090C94BF0910
:100050000C94BF090C94BF090C94BF090C94D235C1
:100060000C94BF090C94B7320C94ED320C94BF0978
:100070000C94BF090C94BF090C94BF090C94BF09E0
:100080000C94BF090C94BF090C94BF090C94BF09D0
:100090000C94BF090C94BF090C94BF090C94BF09C0
:1000A0000C94BF090C94BF090C94BF090C94BF09B0
:1000B0000C94BF090C94BF090C94BF090C94BF09A0
:1000C0000C94BF090C94BF090C94BF090C94BF0990
:1000D0000C94BF090C94BF090C94BF090C94BF0980
:1000E0000C94BF098C19751AA719A719C019751A8C
:1000F0006D194A1AE419751AF219F2190F1A0F1A22
:100100008C194A1A751A8C19F2194A1AA7191E1A4B
:100110004A1A4A1A4A1A4A1A4A1A371A4A1A4A1AD2
:10012000E51A532DB21BB21B441D532D4A207E1ECF
:10013000F71F532DA421AD2259245924E51AF6287E
:10014000532DE51A80235925301C2226F026F62847
:100150001D28AF29F62A552C692CF21E54341E3462
:10016000263432343F3460346D3401370437F3368B
:10017000F736FD363B3708370C37123716371A3744
:100180002037243728373B372E3732373637101091
:10019000205F0000000000000000000000000000E0
:1001A000000000000000000000000000000000004F
:1001B00000000000000007000F800F800F800F80FC
:1001C0000F8007000700000000000700070007007D
:1001D000000000000E380E380E380E3806300000D1
:1001E000000000000000000000000000000000000F
:1001F000000000000C300C300C307FFE7FFE0C3015
:100200000C300C300C307FFE7FFE0C300C300C308C
:1002100000000000024002400FF81FF81A401A4088
:100220001FF00FF8025802581FF81FF0024002405A
:1002300000000000000000000E100E300E7000E004
:1002400001C0038007000E700C70087000000000F1
:100250000000000000000F001980198019800F00B5
:100260000F080F9819F818F018E019F00F9800000F
:100270000000000000000700070007000E0000005B
:10028000000000000000000000000000000000006E
:1002900000000000000000F001C0038007000E0015
:1002A0000E000E000E000700038001C000F00000E9
:1002B0000000000000000F00038001C000E000709B
:1002C00000700070007000E001C003800F000000AB
:1002D00000000000000001801188099007E007E09D
:1002E0003FFC3FFC07E007E0099011880180000017
:1002F000000000000000000000000180018001807B
:100300000FF00FF00180018001800000000000006C
:1003100000000000000000000000000000000000DD
:1003200000000000000000000700070007000E00AA
:1003300000000000000000000000000000000000BD
:100340001FF81FF80000000000000000000000007F
:10035000000000000000000000000000000000009D
:100360000000000000000000070007000700000078
:1003700000000000000000020006000E001C003813
:10038000007000E001C0038007000E001C000000A8
:100390000000000000000FF01C381C781CF81CF84E
:1003A0001DB81DB81F381F381E381C380FF000004C
:1003B0000000000000000180018003801F801F807A
:1003C0000380038003800380038003801FF000000C
:1003D0000000000000000FE01C701C3800380070A6
:1003E00000E001C0038007000E381C381FF8000031
:1003F0000000000000000FE01C701C380038007086
:1004000003C003C0007000381C381C700FE00000EF
:1004100000000000000000E001E003E006E00CE066
:1004200018E01FF81FF800E000E000E003F800000B
:100430000000000000001FF81C001C001C001C0035
:100440001FE01FF0007800381C381C700FE000001F
:1004500000000000000003E007000E001C001C006C
:100460001FF01FF81C381C381C381C380FF0000017
:100470000000000000001FFC1C1C1C1C1C1C001C9D
:100480000038007000E001C003800380038000009A
:100490000000000000000FF01C381C381C381F380A
:1004A00007E007E01CF81C381C381C380FF000006F
:1004B0000000000000000FF01C381C381C381C38ED
:1004C0001FF80FF800380038007000E007C0000087
:1004D0000000000000000000000003800380038093
:1004E0000000000003800380038000000000000083
:1004F0000000000000000000000003800380038073
:10050000000000000380038003800700000000005B
:1005100000000000007000E001C0038007000E0032
:100520001C001C000E000700038001C000E00070EA
:100530000000000000000000000000003FFC3FFC45
:10054000000000003FFC3FFC000000000000000035
:10055000000000001C000E000700038001C000E046
:100560000070007000E001C0038007000E001C0056
:100570000000000003C00FF01E781838003800702B
:1005800000E001C001C00000000001C001C001C0C6
:10059000000000000FF81C1C1C1C1C1C1C1C1CFC5C
:1005A0001CFC1CFC1CFC1C001C001C001FF007F8A1
:1005B00000000000000003C007E00E701C381C386B
:1005C0001C381C381FF81C381C381C381C3800001C
:1005D0000000000000001FF00E380E380E380E38F4
:1005E0000FF00FF00E380E380E380E381FF00000E6
:1005F00000000000000007F00E381C381C001C0032
:100600001C001C001C001C001C380E3807F00000E9
:100610000000000000001FE00E700E380E380E388B
:100620000E380E380E380E380E380E701FE00000EF
:100630000000000000001FF80E180E080E000E301B
:100640000FF00FF00E300E000E080E181FF800000D
:100650000000000000001FF80E180E080E000E30FB
:100660000FF00FF00E300E000E000E001F00000005
:1006700000000000000007F00E381C381C381C0079
:100680001C001C001CF81C381C380E3807F8000031
:100690000000000000001C701C701C701C701C709E
:1006A0001FF01FF01C701C701C701C701C70000070
:1006B0000000000000000FE003800380038003803F
:1006C0000380038003800380038003800FE0000029
:1006D00000000000000001FC00700070007000705D
:1006E0000070007038703870387038700FE000009B
:1006F0000000000000001E380E380E700EE00FC023
:100700000F800F800FC00EE00E700E381E380000F4
:100710000000000000001F000E000E000E000E0082
:100720000E000E000E000E080E180E381FF8000006
:100730000000000000001C1C1E3C1F7C1FFC1FFC56
:100740001DDC1C9C1C1C1C1C1C1C1C1C1C1C0000E0
:100750000000000000001C1C1C1C1E1C1F1C1F9CF9
:100760001DDC1CFC1C7C1C3C1C1C1C1C1C1C0000E0
:1007700000000000000003E007F00E381C1C1C1CE9
:100780001C1C1C1C1C1C1C1C0E3807F003E0000069
:100790000000000000001FF00E380E380E380E3832
:1007A0000FF00FF00E000E000E000E001F000000F4
:1007B00000000000000003E00F780E381C1C1C1C19
:1007C0001C1C1C1C1C7C1CFC0FF80FF8003800FCC7
:1007D0000000000000001FF00E380E380E380E38F2
:1007E0000FF00FF00E700E380E380E381E38000065
:1007F0000000000000000FF01C381C381C381C00E2
:100800000FE007F000381C381C381C380FF00000CF
:100810000000000000001FFC19CC11C401C001C081
:1008200001C001C001C001C001C001C007F000004B
:100830000000000000001C701C701C701C701C70FC
:100840001C701C701C701C701C701C700FE0000071
:100850000000000000001C701C701C701C701C70DC
:100860001C701C701C701C700EE007C00380000020
:100870000000000000001C1C1C1C1C1C1C1C1C1C60
:100880001C9C1C9C1C9C0FF80FF807700770000044
:100890000000000000001C701C701C700EE007C0FF
:1008A0000380038007C00EE01C701C701C700000E9
:1008B0000000000000001C701C701C701C701C707C
:1008C0000EE007C003800380038003800FE0000078
:1008D0000000000000001FF81C381838107000E0FD
:1008E00001C0038007000E081C181C381FF8000008
:1008F00000000000000007F00700070007000700E5
:1009000007000700070007000700070007F00000C6
:10091000000000000000100018001C000E0007007E
:10092000038001C000E000700038001C00070000D8
:1009300000000000000007F0007000700070007000
:1009400000700070007000700070007007F0000010
:1009500000000000018003C007E00E701C3800009A
:100960000000000000000000000000000000000087
:100970000000000000000000000000000000000077
:1009800000000000000000000000000000007FFFE9
:100990007FFF000000001C001C0007000700000093
:1009A0000000000000000000000000000000000047
:1009B00000000000000000000000000000000FE048
:1009C000007000700FF01C701C701C700FD80000BD
:1009D0000000000000001E000E000E000E000FF0D0
:1009E0000E380E380E380E380E380E381BF0000058
:1009F00000000000000000000000000000000FE008
:100A00001C701C701C001C001C701C700FE000008F
:100A100000000000000000F80070007000700FF08F
:100A20001C701C701C701C701C701C700FD8000097
:100A300000000000000000000000000000000FE0C7
:100A40001C701C701FF01C001C701C700FE000005C
:100A500000000000000003E00770077007000700B7
:100A60001FE01FE007000700070007001FC000008D
:100A700000000000000000000000000000000FD88F
:100A80001C701C701C701C700FF007F000701C7044
:100A90000FE0000000001E000E000E000E000EF021
:100AA0000F380F380E380E380E380E381E3800004A
:100AB00000000000000001C001C001C000000FC024
:100AC00001C001C001C001C001C001C00FF8000099
:100AD000000000000000007000700070000003F0D3
:100AE0000070007000700070007000701C700CF0DE
:100AF00007E0000000001E000E000E000E000E3881
:100B00000E700EE00FC00EE00E700E381E380000A2
:100B10000000000000000FC001C001C001C001C002
:100B200001C001C001C001C001C001C00FF8000038
:100B300000000000000000000000000000001FF89E
:100B40001C9C1C9C1C9C1C9C1C9C1C9C1C9C00009D
:100B500000000000000000000000000000001FE096
:100B60001C701C701C701C701C701C701C700000B1
:100B700000000000000000000000000000000FE086
:100B80001C701C701C701C701C701C700FE000002E
:100B900000000000000000000000000000001BF04A
:100BA0000E380E380E380E380E380FF00E000E00CC
:100BB0001F000000000000000000000000001FB047
:100BC00038E038E038E038E038E01FE000E000E0EE
:100BD00001F00000000000000000000000001EF016
:100BE0000FF80F380E000E000E000E001F00000060
:100BF00000000000000000000000000000000FE006
:100C00001C301C300F8003E0187018700FE00000DB
:100C100000000000000000000100030007001FF0BA
:100C200007000700070007000770077003E00000D7
:100C300000000000000000000000000000001C7028
:100C40001C701C701C701C701C701C700FD8000075
:100C500000000000000000000000000000001C7008
:100C60001C701C701C701C700EE007C0038000001C
:100C700000000000000000000000000000001C1C3C
:100C80001C1C1C1C1C9C1C9C0FF80770077000008F
:100C900000000000000000000000000000001CE058
:100CA0001CE00FC0078007800FC01CE01CE00000A4
:100CB00000000000000000000000000000000E38EE
:100CC0000E380E380E380E3807F003E000E001C091
:100CD0001F800000000000000000000000001FE076
:100CE00018E011C0038007000E201C601FE0000008
:100CF00000000000000001F803800380038007006B
:100D00001C001C00070003800380038001F8000022
:100D10000000000001C001C001C001C001C001C04D
:100D200001C001C001C001C001C001C001C001C0BB
:100D30000000000000001F8001C001C001C000E0F1
:100D40000038003800E001C001C001C01F80000071
:100D50000000000000001F1C3B9C39DC38F800003C
:100D60000000000000000000000000000000000083
:100D70000000080C205F00000000000000000000E0
:100D8000000000002020202020200020000000285B
:100D90005050000000000000000000002828FC283F
:100DA00050FC50500000002078A8A0603028A8F027
:100DB0002000000048A8B05028345448000000002B
:100DC00020505078A8A8906C00000040408000009F
:100DD000000000000000000408101010101010089F
:100DE00004000040201010101010102040000000DF
:100DF0000020A87070A8200000000000202020F82B
:100E00002020200000000000000000000000004042
:100E100040800000000000F800000000000000001A
:100E2000000000000000004000000008101010202A
:100E30002040404080000000708888888888887042
:100E40000000000020602020202020700000000012
:100E500070888810204080F80000000070880830FA
:100E6000080888700000000010305050907810186A
:100E700000000000F88080F0080888700000000082
:100E8000709080F08888887000000000F890102032
:100E900020202020000000007088887088888870DA
:100EA0000000000070888888780848700000000002
:100EB00000002000000000200000000000000020D2
:100EC000000000202000000408102040201008042A
:100ED000000000000000F80000F8000000000040E2
:100EE00020100804081020400000000070888810BE
:100EF0002020002000000000708898A8A8B8807802
:100F00000000000020203050507848CC0000000045
:100F1000F0484870484848F0000000007888808019
:100F20008080887000000000F0484848484848F039
:100F300000000000F8485070504048F800000000E1
:100F4000F8485070504040E0000000003848808071
:100F50009C88483000000000CC484878484848CC7D
:100F600000000000F8202020202020F800000000D1
:100F70007C10101010101090E0000000EC48506041
:100F8000505048EC00000000E0404040404044FC2D
:100F900000000000D8D8D8D8A8A8A8A80000000051
:100FA000DC486868585848E8000000007088888865
:100FB0008888887000000000F0484870404040E099
:100FC000000000007088888888E898701800000089
:100FD000F0484870504848EC000000007888806075
:100FE000100888F000000000F8A8202020202070C1
:100FF00000000000CC484848484848300000000045
:10100000CC4848505030202000000000A8A8A8700C
:101010005050505000000000D8505020205050D860
:1010200000000000D8505020202020700000000058
:10103000F8901020204048F80000003820202020A0
:1010400020202020380000404040202010101008B0
:101050000000007010101010101010107000002010
:101060005000000000000000000000000000000030
:101070000000000000FC0020000000000000000054
:1010800000000000000000304838483C000000002C
:10109000C040407048484870000000000000003820
:1010A0004840403800000000180808384848483CCC
:1010B00000000000000000304878403800000000C8
:1010C0001C20207820202078000000000000003C38
:1010D0004830407844380000C0404070484848ECF0
:1010E00000000000200000602020207000000000B0
:1010F000100000301010101010E00000C040405CE4
:10110000507048EC00000000E0202020202020F853
:1011100000000000000000F0A8A8A8A8000000003F
:10112000000000F0484848EC0000000000000030DB
:101130004848483000000000000000F0484848706F
:1011400040E000000000003848484838081C000013
:10115000000000D8604040E000000000000000787F
:101160004030087800000000002020702020201867
:1011700000000000000000D84848483C0000000083
:10118000000000EC4850302000000000000000A8E3
:10119000A870505000000000000000D8502050D827
:1011A00000000000000000EC4850302020C000008B
:1011B0000000007810202078000000181010102087
:1011C0001010101018001010101010101010101027
:1011D000101000602020201020202020600040A45B
:1011E0001800000000000000000000000A0B0209C7
:1011F0000C0D0E08070304010000000000000000B1
:1012000000000000000000000000000000000000DE
:10121000000000000000121110000000000000009B
:1012200000000000000000000000000000000000BE
:1012300001021020200808102040102040800201E8
:1012400002010804020101020408102040808040CD
:1012500020100804020180040201804020100804CC
:10126000020108040201010204081020408001026A
:101270000408102040800505050507050808080832
:10128000020202020A0A080804040404010101011E
:101290000101010103030303030303030407070719
:1012A0000C0C0C0C0C0C0C0C0202020206060606BE
:1012B000060606060B0B0B0B0B0B0B0B000020009E
:1012C0002300260029002C002F003200000100001E
:1012D00003010601090100002200250028002B005F
:1012E0002E003100340002010000050108010B014D
:1012F00000002100240027002A002D0030003300C8
:1013000001010000040107010A016C0B0A0E990F8C
:10131000CC101F331A0CB80E4710E41111241FBE55
:10132000CFEFD1E2DEBFCDBF00E00CBF13E0A0E005
:10133000B2E0E4EBF5E700E00BBF02C007900D92CE
:10134000AC36B107D9F728E0ACE6B3E001C01D9296
:10135000A03FB207E1F719E0CAE8D9E000E006C013
:1013600021970109802FFE010E949738C538D107C7
:1013700080E00807A9F70E944D330C94C93A0C94F9
:101380000000DC01ED91FD918081ED91FD91908156
:10139000ED91FD916C9163708E2309F064609F2341
:1013A00009F06860EEEDF9E0E60FF11D65956595D1
:1013B0006D936D917D918D919D91099423C01AC07B
:1013C00012C016C010C01EC009C014C013C006C091
:1013D00019C009C00DC007C00DC014C062507040D4
:1013E000804090400BC0615070408040904006C0EB
:1013F0006E5F01C06F5F7F4F8F4F9F4F9E938E93A5
:101400007E936E93089580913C0890913D08B9CFEA
:1014100080913A0890913B08B4CFCF93DF93EC01D1
:1014200072D21D8E1E8E80E090E0ACE5B3E48F8F0B
:1014300098A3A9A3BAA31BA280E090E0A0E8B0E41F
:101440008CA39DA3AEA3BFA318A680E090E8ABE356
:10145000B6E489A79AA7ABA7BCA788E28DA71EA66A
:101460001FA618AA19AA1AAA80E090E0A8E4B3E47B
:101470008BAB9CABADABBEAB84EB8FAB80E090E0B5
:10148000AAE7B3E488AF99AFAAAFBBAF1CAE1DAE5D
:101490001EAE1FAEFE01E05CFF4F108231968FEF53
:1014A00080833196108231961082CE018A5B9F4FE5
:1014B0002AD2FE01E959FF4F81E080833196808373
:1014C000CD59DF4F188262E08EE0DF91CF910C940E
:1014D0003C370F931F93CF93DF938C01FC01EB59A3
:1014E000FF4F718360838CE090E00E945933EC01E0
:1014F00062E082E00E943C3762E083E00E943C3779
:10150000E8E7F2E1E491F0E0EE0FFF1FE454FD4E56
:101510008591949199838883E2E3F2E1E491EC83ED
:10152000E9E7F2E1E491F0E0EE0FFF1FE454FD4E35
:10153000859194919B838A83E3E3F2E1E491ED83C7
:101540001F82188619861A8680ED97E00E947A36E7
:10155000E881F98190818C81982381E009F480E011
:10156000EA81FB8120819D81922309F082608E8334
:10157000D0933B08C0933A0841E050E068E07AE03D
:1015800080E00E94073481E08B87D0933D08C093B0
:101590003C0841E050E063E07AE00E9407348B852C
:1015A0008F5F8B87F801EC5BFF4FD183C08342E1F3
:1015B000BE01C8018A5B9F4FDF91CF911F910F91B0
:1015C000B8C1FC01EB59FF4FA081B1819C919F5F95
:1015D0009C930190F081E02D8081853008F010828D
:1015E0000895EF92FF920F931F93CF93DF93EC0137
:1015F0008EE00E94A6378E0109591F4F21E0892BEA
:1016000009F420E0F80120836AE070E080E090E0D7
:101610000E944136F80180819E0128593F4F79018F
:1016200081111CC0F90180818823C1F0CE01C9DF7E
:10163000FE01ED59FF4F81E0808366EB72E086E4A6
:1016400098E00E949933CB59DF4FE881F9814AE055
:1016500050E0608186E498E00E94F633F8018081D2
:10166000F7018083DF91CF911F910F91FF90EF9051
:101670000895CF92DF92EF92FF920F931F93CF9333
:10168000DF93EC016C0186E4C80ED11C00E010E091
:1016900020E231E440E050E060E87FE3C60151D150
:1016A000FE01EB59FF4F608171816E5F7F4FE12C2E
:1016B00010E8F12E0BE316E420E030E040EF51E4B7
:1016C000C60163D1CE01DF91CF911F910F91FF90A1
:1016D000EF90DF90CF9085CFCF93DF936DEB72E0EB
:1016E00084E194E00E94353862EC72E08AE194E093
:1016F0000E94353867EC72E080E294E00E94353851
:101700006CEC72E086E294E00E9435386FEC72E097
:101710008CE294E00E94353865ED72E08CEF93E046
:101720000E9435386BED72E082E094E00E9435381B
:1017300061EE72E088E094E00E9435386BED72E073
:101740008EE094E00E94353866EE72E084EE93E01D
:101750000E9435386BED72E08AEE93E00E943538D6
:101760006CEE72E080EF93E00E94353861EF72E03A
:1017700086EF93E00E94353866EF72E08CEC93E0E0
:101780000E9435386BEF72E082ED93E00E943538AD
:1017900060E073E088ED93E00E94353865E073E027
:1017A0008EED93E00E94353866EE72E084EB93E0B4
:1017B0000E9435386AE073E08AEB93E00E94353886
:1017C0006FE073E080EC93E00E94353861EE72E0E8
:1017D00086EC93E00E94353866E173E08CE993E093
:1017E0000E9435386BE173E082EA93E00E9435385D
:1017F0006FE173E088EA93E00E94353863E273E0BA
:101800008EEA93E00E94353867E273E08CE693E05D
:101810000E943538C0E0D0E026966EE573E0CE0138
:1018200084599C4F0E943538CA32D105A9F7DF91FF
:10183000CF910895CF93DF93CCE9D3E02697CE01E3
:101840000E94CE3783E0CC36D807C1F78EEA93E00A
:101850000E94CE3788EA93E00E94CE3782EA93E076
:101860000E94CE378CE993E00E94CE3786EC93E05D
:101870000E94CE3780EC93E00E94CE378AEB93E053
:101880000E94CE3784EB93E00E94CE378EED93E03A
:101890000E94CE3788ED93E00E94CE3782ED93E030
:1018A0000E94CE378CEC93E00E94CE3786EF93E017
:1018B0000E94CE3780EF93E00E94CE378AEE93E00D
:1018C0000E94CE3784EE93E00E94CE378EE094E003
:1018D0000E94CE3788E094E00E94CE3782E094E008
:1018E0000E94CE378CEF93E00E94CE37C2E3D4E063
:1018F0002697CE010E94CE3784E0C431D807C1F7C5
:10190000DF91CF910895FC01118E108E138E128EEF
:1019100080E090E0A0E8BFE3808B918BA28BB38B3B
:1019200080E090E0A0E8BEE3848B958BA68BB78B1C
:101930000895FC0176876587478762E0842F0C94C1
:101940003C37CF92DF92EF92FF920F931F93CF938A
:10195000DF93EC016A017B01C901B801C88AD98A09
:10196000EA8AFB8A20E030E040E85EE30E94FF3034
:101970006C8B7D8B8E8B9F8BDF91CF911F910F9105
:10198000FF90EF90DF90CF9008952F923F924F926B
:101990005F926F927F928F929F92AF92BF92CF92FF
:1019A000DF92EF92FF920F931F93CF93DF9300D0BC
:1019B00000D0CDB7DEB79E838D836B0149015A01FC
:1019C00009831A83FC0187850E94A63721E0892BB1
:1019D00009F420E0ED81FE81248F05851685F8014C
:1019E0008385823020F4F894C801CBDC01C0F894E0
:1019F000F801478050846184728478945C824B82C1
:101A0000ED81FE81518E408E828D938D84159505DA
:101A1000CCF5848D882329F0648975898689978916
:101A200006C0ED81FE816089718982899389F60102
:101A300020813181428153810E941E301B018C0123
:101A40009401A5010E94823087FD0DC09701498154
:101A50005A81B101C8010E94FB30181634F41701F5
:101A600009811A8102C014018501C101D801F60162
:101A700080839183A283B383ED81FE81538E428E56
:101A800081E08487ED81FE81828D938D2B813C8165
:101A900028173907DCF5848D882329F024893589B6
:101AA0004689578906C0ED81FE81208931894289A6
:101AB0005389F60160817181828193810E941D307A
:101AC0001B018C019B01AC01B401C5010E94FB30DC
:101AD00018166CF09101A801B70189819A810E94C2
:101AE000823087FF06C0170109811A8102C01401E4
:101AF0008501C101D801F60180839183A283B3835C
:101B0000ED81FE81538E428E81E0848726960FB64A
:101B1000F894DEBF0FBECDBFDF91CF911F910F9123
:101B2000FF90EF90DF90CF90BF90AF909F908F90FD
:101B30007F906F905F904F903F902F900895FC01A1
:101B40001082118280E090E0ACE5B3E4828393835D
:101B5000A483B583168280E090E0A0E8B0E4878398
:101B60009087A187B287138680E090E8ABE3B6E464
:101B700084879587A687B78788E2808B118A128A27
:101B8000138A148A158A80E090E0A8E4B3E4868B77
:101B9000978BA08FB18F84EB828F80E090E0AAE7D3
:101BA000B3E4838F948FA58FB68F178E10A211A2E6
:101BB00012A213A28FEF84A315A216A208950F9369
:101BC0001F93FC0116A705A770A767A352A741A7FB
:101BD00034A723A71F910F9108950F931F93CF93BD
:101BE000DF93EC0160E078EF8FA198A50E94192E99
:101BF00000E411E020EE31E048E750E068E770E0F3
:101C00008FA198A50E94E12EDF91CF911F910F9196
:101C100008950895CF93DF936DEB72E08AED94E021
:101C20000E94353862EC72E080EE94E00E94353814
:101C300067EC72E086EE94E00E9435386CEC72E05E
:101C40008CEE94E00E9435386FEC72E082EF94E005
:101C50000E94353865ED72E082EC94E00E943538E0
:101C60006BED72E088EC94E00E94353861EE72E032
:101C70008EEC94E00E9435386BED72E084ED94E0D8
:101C80000E94353866EE72E08AEA94E00E943538A8
:101C90006BED72E080EB94E00E9435386CEE72E000
:101CA00086EB94E00E94353861EF72E08CEB94E0B3
:101CB0000E94353866EF72E082E994E00E94353880
:101CC0006BEF72E088E994E00E94353860E073E0E1
:101CD0008EE994E00E94353865E073E084EA94E090
:101CE0000E94353866EE72E08AE794E00E9435384B
:101CF0006AE073E080E894E00E9435386FE073E0BA
:101D000086E894E00E94353861EE72E08CE894E059
:101D10000E94353866E173E082E694E00E9435382F
:101D20006BE173E088E694E00E9435386FE173E080
:101D30008EE694E00E94353863E273E084E794E035
:101D40000E94353867E273E082E394E00E94353800
:101D5000C0E0D0E026966EE573E0CE018E5C9B4F2E
:101D60000E943538CA32D105A9F7DF91CF91089585
:101D7000CF93DF93C2E6D4E02697CE010E94CE3700
:101D800084E0C233D807C1F784E794E00E94CE37DD
:101D90008EE694E00E94CE3788E694E00E94CE372B
:101DA00082E694E00E94CE378CE894E00E94CE3721
:101DB00086E894E00E94CE3780E894E00E94CE3717
:101DC0008AE794E00E94CE3784EA94E00E94CE37FE
:101DD0008EE994E00E94CE3788E994E00E94CE37E5
:101DE00082E994E00E94CE378CEB94E00E94CE37DB
:101DF00086EB94E00E94CE3780EB94E00E94CE37D1
:101E00008AEA94E00E94CE3784ED94E00E94CE37B7
:101E10008EEC94E00E94CE3788EC94E00E94CE379E
:101E200082EC94E00E94CE37C8EFD4E02697CE0132
:101E30000E94CE3784E0CA3DD807C1F7DF91CF9129
:101E40000895CF93DF93EC010E943017CE01C19625
:101E500076DECE018D599F4F0E94DD2FCE018C562C
:101E60009F4FFED7CE018B539F4F69DECE01895025
:101E70009F4FDF91CF910C94DD2F8F929F92AF9265
:101E8000BF92CF92DF92EF92FF920F931F93CF9367
:101E9000DF93EC015C0182E9A80EB11CD5016D93C2
:101EA0007C9381E390E00E9459334C01C12CD12CEA
:101EB00089E2E82EF12C08E210E027E230E046E269
:101EC00050E065E1C401CDD77E01B4E9EB0EF11C11
:101ED00081E3F401D70101900D928A95E1F761E069
:101EE000C7010E94801ACB53DF4FD501ED91FC91C1
:101EF000EB59FF4F008111812EE831E042E75DE0B0
:101F0000B701CE015CDEC7010E947D2DCE0165DEEA
:101F1000CE01DF91CF911F910F91FF90EF90DF9055
:101F2000CF90BF90AF909F908F9073CE8B539F4F69
:101F300054CECF93DF936DEB72E080EA95E00E9480
:101F4000353862EC72E086EA95E00E94353867EC3D
:101F500072E08CEA95E00E9435386CEC72E082EB1E
:101F600095E00E9435386FEC72E088EB95E00E94B6
:101F7000353865ED72E088E895E00E9435386BED04
:101F800072E08EE895E00E94353861EE72E084E9F7
:101F900095E00E9435386BED72E08AE995E00E9489
:101FA000353866EE72E080E795E00E9435386BEDDB
:101FB00072E086E795E00E9435386CEE72E08CE7BF
:101FC00095E00E94353861EF72E082E895E00E946A
:101FD000353866EF72E088E595E00E9435386BEFA2
:101FE00072E08EE595E00E94353860E073E084E6AB
:101FF00095E00E94353865E073E08AE695E00E943E
:10200000353866EE72E080E495E00E9435386AE08B
:1020100073E086E495E00E9435386FE073E08CE46D
:1020200095E00E94353861EE72E082E595E00E940D
:10203000353866E173E088E295E00E9435386BE15F
:1020400073E08EE295E00E9435386FE173E084E33F
:1020500095E00E94353863E273E08AE395E00E94E0
:10206000353867E273E088EF94E00E943538C0E0CD
:10207000D0E026966EE573E0CE0188509B4F0E941B
:102080003538CA32D105A9F7DF91CF910895CF93A2
:10209000DF93C8E2D5E02697CE010E94CE3784E0D8
:1020A000C83FD807C1F78AE395E00E94CE3784E3A2
:1020B00095E00E94CE378EE295E00E94CE3788E20E
:1020C00095E00E94CE3782E595E00E94CE378CE401
:1020D00095E00E94CE3786E495E00E94CE3780E4FA
:1020E00095E00E94CE378AE695E00E94CE3784E6DE
:1020F00095E00E94CE378EE595E00E94CE3788E5C8
:1021000095E00E94CE3782E895E00E94CE378CE7BA
:1021100095E00E94CE3786E795E00E94CE3780E7B3
:1021200095E00E94CE378AE995E00E94CE3784E997
:1021300095E00E94CE378EE895E00E94CE3788E881
:1021400095E00E94CE37CEEBD5E02697CE010E94D7
:10215000CE3785E0C03AD807C1F7DF91CF91089517
:1021600026E040E052EC61E070E086E498E00E94F6
:1021700054326DE477E084EE96E0ABD964EE76E01D
:102180008EEB95E07ADE84EE96E073CA84EE96E0FC
:1021900070DA8EEB95E0CACECF93DF936DEB72E0F1
:1021A0008CE198E00E94353862EC72E082E298E0BF
:1021B0000E94353867EC72E088E298E00E9435387A
:1021C0006CEC72E08EE298E00E9435386FEC72E0C1
:1021D00084E398E00E94353865ED72E084E098E091
:1021E0000E9435386BED72E08AE098E00E94353845
:1021F00061EE72E080E198E00E9435386BED72E0AC
:1022000086E198E00E94353866EE72E08CEE97E049
:102210000E9435386BED72E082EF97E00E9435380E
:102220006CEE72E088EF97E00E94353861EF72E063
:102230008EEF97E00E94353866EF72E084ED97E00C
:102240000E9435386BEF72E08AED97E00E943538D6
:1022500060E073E080EE97E00E94353865E073E05F
:1022600086EE97E00E94353866EE72E08CEB97E0E0
:102270000E9435386AE073E082EC97E00E943538BE
:102280006FE073E088EC97E00E94353861EE72E011
:102290008EEC97E00E94353866E173E084EA97E0BF
:1022A0000E9435386BE173E08AEA97E00E94353886
:1022B0006FE173E080EB97E00E94353863E273E0F2
:1022C00086EB97E00E94353867E273E084E797E099
:1022D0000E943538C0E0D0E026966EE573E0CE016E
:1022E0008C58984F0E943538CA32D105A9F7109200
:1022F0004D0710924E0780E090E0ACE5B3E4809388
:102300004F0790935007A0935107B0935207109234
:10231000530780E090E0A0E8B0E4809354079093E6
:102320005507A0935607B09357071092580780E0BF
:1023300090E8ABE3B6E48093590790935A07A093D3
:102340005B07B0935C0788E280935D0710925E079D
:1023500010925F0710926007109261071092620757
:1023600080E090E0A8E4B3E480936307909364076F
:10237000A0936507B093660784EB8093670780E0BE
:1023800090E0AAE7B3E48093680790936907A0936D
:102390006A07B0936B0710926C0710926D0710924A
:1023A0006E0710926F07109270078FEF809371077E
:1023B000109272071092730784EE96E02ED88EEB7F
:1023C00095E0DF91CF913DCDCF93DF93C4EAD7E085
:1023D0002697CE010E94CE3787E0C437D807C1F7D1
:1023E00086EB97E00E94CE3780EB97E00E94CE37D5
:1023F0008AEA97E00E94CE3784EA97E00E94CE37BF
:102400008EEC97E00E94CE3788EC97E00E94CE37A2
:1024100082EC97E00E94CE378CEB97E00E94CE379B
:1024200086EE97E00E94CE3780EE97E00E94CE378E
:102430008AED97E00E94CE3784ED97E00E94CE3778
:102440008EEF97E00E94CE3788EF97E00E94CE375C
:1024500082EF97E00E94CE378CEE97E00E94CE3755
:1024600086E198E00E94CE3780E198E00E94CE3766
:102470008AE098E00E94CE3784E098E00E94CE3750
:10248000CAE3D8E02697CE010E94CE3788E0CC314F
:10249000D807C1F7DF91CF910895FC01283009F4E6
:1024A000EEC018F4213041F00895203109F4F7C04E
:1024B000213109F402C1089587858430C1F4A08DCB
:1024C000B18D82A19C91613011F4892B02C080955D
:1024D00089238C93A28DB38D9C9183A180958923B0
:1024E0008C93A28DB38D9C9183A1892B08C0A08968
:1024F000B189868D9C916130C1F3809589238C933D
:10250000A08DB18D82A19C9147FF02C0892B02C092
:10251000809589238C93A28DB38D9C9183A1809506
:1025200089238C93A28DB38D9C9183A1892B8C934D
:10253000A08DB18D82A19C9146FF02C0892B02C063
:10254000809589238C93A28DB38D9C9183A18095D6
:1025500089238C93A28DB38D9C9183A1892B8C931D
:10256000A08DB18D82A19C9145FF02C0892B02C034
:10257000809589238C93A28DB38D9C9183A18095A6
:1025800089238C93A28DB38D9C9183A1892B8C93ED
:10259000A08DB18D82A19C9144FF02C0892B02C005
:1025A000809589238C93A28DB38D9C9183A1809576
:1025B00089238C93A28DB38D9C9183A1892B8C93BD
:1025C000A08DB18D82A19C9143FF02C0892B02C0D6
:1025D000809589238C93A28DB38D9C9183A1809546
:1025E00089238C93A28DB38D9C9183A1892B8C938D
:1025F000A08DB18D82A19C9142FF02C0892B02C0A7
:10260000809589238C93A28DB38D9C9183A1809515
:1026100089238C93A28DB38D9C9183A1892B8C935C
:10262000A08DB18D82A19C9141FF02C0892B02C077
:10263000809589238C93A28DB38D9C9183A18095E5
:1026400089238C93A28DB38D9C9183A1892B8C932C
:10265000A08DB18D82A19C9140FF02C0892B02C048
:10266000809589238C93A28DB38D9C9183A18095B5
:1026700089238C93A28DB38D9C9183A1A2C062B952
:10268000A289B3899C91878D809589238C93A28997
:10269000B3899C91878D892B8C9342B902C062B912
:1026A00048B9A289B3899C91878D809589238C93A1
:1026B000A289B3899C91878D84C0A59894B3862FF5
:1026C0008071880F892B84BB80910201877E809363
:1026D000020190910201862F807C869586958695D1
:1026E000892B809302018EB1847C8EB99EB1262FF6
:1026F0002C70220F220F862F8370280F862F807256
:10270000682F70E07595679575956795620F692BD1
:102710006EB9A48DB58D9C9184A1809589238C93ED
:10272000A48DB58D9C9184A1892B8C93A48DB58D9E
:102730009C9184A1809589238C93A489B5899C91CF
:1027400080A1809589238C93A59894B3842F807160
:10275000880F892B84BB80910201877E80930201C0
:1027600090910201842F807C869586958695892B91
:10277000809302018EB1847C8EB99EB1242F2C707F
:10278000220F220F842F8370280F842F8072482FEE
:1027900050E05595479555954795420F492B4EB9B1
:1027A000A289B3899C91878D809589238C93A28976
:1027B000B3899C91878D892B8C93A489B5899C9131
:1027C00080A1892B8C930895613131F08FEF81B90D
:1027D000603149F487B9089588E18093010180E26E
:1027E00083BB8BE38DB908958F929F92AF92BF9276
:1027F000CF92DF92EF92FF920F931F93CF93DF93CD
:10280000EC016801790162B948B9C901B80120E158
:1028100030E040E050E00E947B3849015A0180E0FE
:1028200090E0DC0188159905AA05BB050CF0D4C021
:10283000EA89FB8930812F8D209523232083EA8923
:10284000FB8930812F8D232B2083EA89FB893081FE
:102850002F8D209523232083EA89FB8930812F8DBA
:10286000232B2083EA89FB8930812F8D2095232318
:102870002083EA89FB8930812F8D232B2083EA89ED
:10288000FB8930812F8D209523232083EA89FB89C2
:1028900030812F8D232B2083EA89FB8930812F8D76
:1028A000209523232083EA89FB8930812F8D232BD8
:1028B0002083EA89FB8930812F8D20952323208373
:1028C000EA89FB8930812F8D232B2083EA89FB89BC
:1028D00030812F8D209523232083EA89FB89308145
:1028E0002F8D232B2083EA89FB8930812F8D209522
:1028F00023232083EA89FB8930812F8D232B20839A
:10290000EA89FB8930812F8D209523232083EA8952
:10291000FB8930812F8D232B2083EA89FB8930812D
:102920002F8D209523232083EA89FB8930812F8DE9
:10293000232B2083EA89FB8930812F8D2095232347
:102940002083EA89FB8930812F8D232B2083EA891C
:10295000FB8930812F8D209523232083EA89FB89F1
:1029600030812F8D232B2083EA89FB8930812F8DA5
:10297000209523232083EA89FB8930812F8D232B07
:102980002083EA89FB8930812F8D209523232083A2
:10299000EA89FB8930812F8D232B2083EA89FB89EB
:1029A00030812F8D209523232083EA89FB89308174
:1029B0002F8D232B2083EA89FB8940813F8D309521
:1029C00034233083EA89FB8920813F8D322B308389
:1029D0000196A11DB11D26CFD701C6018F70992781
:1029E000AA27BB27892B8A2B8B2B19F1C701B6018C
:1029F00020E130E040E050E00E947B38C12CD12C37
:102A000076016C157D058E059F059CF0EA89FB8992
:102A100030812F8D209523232083EA89FB89308103
:102A20002F8D232B20832FEFC21AD20AE20AF20A3B
:102A3000E8CFDF91CF911F910F91FF90EF90DF9042
:102A4000CF90BF90AF909F908F9008958F929F925C
:102A5000AF92BF92CF92DF92EF92FF92CF93DF932C
:102A6000EC0169017A0162B9CA01B90120E130E0E3
:102A700040E050E00E947B3849015A0180E090E03C
:102A8000DC0188159905AA05BB050CF0A4C1EA89EB
:102A9000FB8930812F8D209523232083EA89FB89B0
:102AA00030812F8D232B2083EA89FB8930812F8D64
:102AB000209523232083EA89FB8930812F8D232BC6
:102AC0002083EA89FB8930812F8D20952323208361
:102AD000EA89FB8930812F8D232B2083EA89FB89AA
:102AE00030812F8D209523232083EA89FB89308133
:102AF0002F8D232B2083EA89FB8930812F8D209510
:102B000023232083EA89FB8930812F8D232B208387
:102B1000EA89FB8930812F8D209523232083EA8940
:102B2000FB8930812F8D232B2083EA89FB8930811B
:102B30002F8D209523232083EA89FB8930812F8DD7
:102B4000232B2083EA89FB8930812F8D2095232335
:102B50002083EA89FB8930812F8D232B2083EA890A
:102B6000FB8930812F8D209523232083EA89FB89DF
:102B700030812F8D232B2083EA89FB8930812F8D93
:102B8000209523232083EA89FB8930812F8D232BF5
:102B90002083EA89FB8930812F8D20952323208390
:102BA000EA89FB8930812F8D232B2083EA89FB89D9
:102BB00030812F8D209523232083EA89FB89308162
:102BC0002F8D232B2083EA89FB8930812F8D20953F
:102BD00023232083EA89FB8930812F8D232B2083B7
:102BE000EA89FB8930812F8D209523232083EA8970
:102BF000FB8930812F8D232B2083EA89FB8930814B
:102C00002F8D209523232083EA89FB8930812F8D06
:102C1000232B2083EA89FB8930812F8D2095232364
:102C20002083EA89FB8930812F8D232B2083EA8939
:102C3000FB8930812F8D209523232083EA89FB890E
:102C400030812F8D232B2083EA89FB8930812F8DC2
:102C5000209523232083EA89FB8930812F8D232B24
:102C60002083EA89FB8930812F8D209523232083BF
:102C7000EA89FB8930812F8D232B2083EA89FB8908
:102C800030812F8D209523232083EA89FB89308191
:102C90002F8D232B2083EA89FB8930812F8D20956E
:102CA00023232083EA89FB8930812F8D232B2083E6
:102CB000EA89FB8930812F8D209523232083EA899F
:102CC000FB8930812F8D232B2083EA89FB8930817A
:102CD0002F8D209523232083EA89FB8930812F8D36
:102CE000232B2083EA89FB8930812F8D2095232394
:102CF0002083EA89FB8930812F8D232B2083EA8969
:102D0000FB8930812F8D209523232083EA89FB893D
:102D100030812F8D232B2083EA89FB8930812F8DF1
:102D2000209523232083EA89FB8930812F8D232B53
:102D30002083EA89FB8930812F8D209523232083EE
:102D4000EA89FB8930812F8D232B2083EA89FB8937
:102D500030812F8D209523232083EA89FB893081C0
:102D60002F8D232B2083EA89FB8930812F8D20959D
:102D700023232083EA89FB8930812F8D232B208315
:102D8000EA89FB8930812F8D209523232083EA89CE
:102D9000FB8930812F8D232B2083EA89FB893081A9
:102DA0002F8D209523232083EA89FB8930812F8D65
:102DB000232B2083EA89FB8940813F8D3095342382
:102DC0003083EA89FB8920813F8D322B3083019645
:102DD000A11DB11D56CED701C6018F709927AA2714
:102DE000BB27892B8A2B8B2B81F1C701B60120E1F0
:102DF00030E040E050E00E947B38C12CD12C7601BD
:102E00006C157D058E059F0504F1EA89FB893081EB
:102E10002F8D209523232083EA89FB8930812F8DF4
:102E2000232B2083EA89FB8930812F8D2095232352
:102E30002083EA89FB8930812F8D232B20832FEF7C
:102E4000C21AD20AE20AF20ADBCFDF91CF91FF90D9
:102E5000EF90DF90CF90BF90AF909F908F900895AC
:102E600008954F925F926F927F928F929F92AF924E
:102E7000BF92CF92DF92EF92FF920F931F93CF9367
:102E8000DF93CDB7DEB7C05AD1090FB6F894DEBFD5
:102E90000FBECDBF70E4E6E1F2E0DE01AF5BBF4FF5
:102EA00001900D927A95E1F770E4E6E5F2E0DE013B
:102EB000119601900D927A95E1F770E2E6E9F2E061
:102EC000DE01AF57BF4F01900D927A95E1F7E62FE3
:102ED000F0E05F01AA0CBB1CA1E4B0E0AC0FBD1F89
:102EE000AA0DBB1D0D90BC91A02D2D01612C712C44
:102EF000DC0115964D925D926D927C921897A1E03F
:102F0000B0E0AC0FBD1FAA0DBB1D0D90BC91A02D54
:102F10004D01A12CB12CDC0119968D929D92AD92A0
:102F2000BC921C97A1E8B0E0AC0FBD1FEA0FFB1FDD
:102F30007081FC017687658745A326A307A3E0A6D9
:102F4000C1A6743019F461E066877787DC011E96AC
:102F50006C911E97653031F471E01E967C931E973C
:102F60001F966C93FC016685613009F498C0490195
:102F70003A015C0129DCF301EA58FD4EE491F0E0EE
:102F8000EE0FFF1FEA52FD4E25913491D501519667
:102F90003C932E935097F301E05DFD4EE4915E96D5
:102FA000EC935E97F401EA58FD4EE491F0E0EE0FE9
:102FB000FF1FEA52FD4E25913491F501338B228B90
:102FC000F401E05DFD4EE4915F96EC935F97C801DC
:102FD000F801EA58FD4EE491F0E0EE0FFF1FEA52CF
:102FE000FD4E25913491F501358B248BFC01E05D7C
:102FF000FD4EE4919096EC939097F701EA58FD4EC0
:10300000E491F0E0EE0FFF1FEA52FD4E859194919E
:10301000F501978B868BF701E05DFD4EE49091966C
:10302000EC9291971E968C91813109F0ADC0F6011A
:10303000EA58FD4EE491F0E0EE0FFF1FEA52FD4E1C
:10304000A591B491F501B58FA48FF601E05DFD4E19
:103050009491F50194A38C91E92FE095E823EC93EA
:1030600061E088E00E943C3760E088E0C056DF4FB6
:103070000FB6F894DEBF0FBECDBFDF91CF911F9189
:103080000F91FF90EF90DF90CF90BF90AF909F9007
:103090008F907F906F905F904F900C947837BA012B
:1030A000FA01EA58FD4EE491F0E0EE0FFF1FEA52FC
:1030B000FD4E45915491DC0159965C934E9358977F
:1030C000FB01E05DFD4EE4919296EC939297A9018D
:1030D000F901EA58FD4EE491F0E0EE0FFF1FEA52CD
:1030E000FD4E25913491FC01338F228FFA01E05D72
:1030F000FD4EE4919396EC939397F801EA58FD4EB8
:10310000E491F0E0EE0FFF1FEA52FD4E459154911D
:10311000FC01558B448BF801E05DFD4EE4919096E7
:10312000EC93BFEFEB16F104A9F0F701EA58FD4E5E
:10313000E491F0E0EE0FFF1FEA52FD4E259134912D
:10314000FC01378B268BF701E05DFD4EE490DC013E
:103150009196EC92FC0127852430B1F0F601EA58F3
:10316000FD4EE491F0E0EE0FFF1FEA52FD4E459157
:103170005491DC0151965C934E935097F601E05DBB
:10318000FD4EE4915E96EC93C056DF4F0FB6F89477
:10319000DEBF0FBECDBFDF91CF911F910F91FF908A
:1031A000EF90DF90CF90BF90AF909F908F907F90E7
:1031B0006F905F904F900895462FDC011E962C91E2
:1031C0001E97213071F05096ED91FC91519730810E
:1031D0005E962C915E972095232320831E962C913A
:1031E00001C021E060E059C91F93CF93DF93DC0158
:1031F0001E962C911E97213069F05096ED91FC910E
:10320000519730815E962C915E97232B20831E96DA
:103210002C910AC0142F462FEC0121E061E03DD92A
:103220002E85412F61E0CE01DF91CF911F9135C9ED
:10323000462FDC011E962C911E97213071F050967E
:10324000ED91FC91519730815E962C915E97232BE6
:1032500020831E962C9160E002C021E061E01DC930
:103260000F931F93CF93DF93EC018A01A5DF402FCB
:10327000612FCE01DF91CF911F910F91B5CFAF920A
:10328000BF92CF92DF92EF92FF920F931F93CF9353
:10329000DF93EC016B01B42EA52E79018C81813076
:1032A00069F489859A859C01261B370B8E199F0925
:1032B00078018901C42ED52EB82EA92EED858E2F2A
:1032C00090E0FC013297EE31F10508F00EC188273D
:1032D000EE58FF4F8F4F0C9497384D2D50E062E021
:1032E000CE01BEDFA60163E0CE01BADF4F2D50E074
:1032F00064E0CE01B5DFA70165E0CE01B1DF4A2D64
:1033000050E066E0CE01ACDF4B2D5A2D67E0CE01D8
:10331000A7DF412F50E052C05E2D44274C0D5D1DAC
:1033200064E4CE019DDF4B2D5A2D65E4CE0198DF7C
:10333000A80166E4CE0194DFA6016EE4CE0190DF21
:103340004B2D5A2D6FE4CE018BDF62E2C2C0A60185
:1033500060E2CE0185DF4B2D5A2D61E2CE0180DF88
:10336000A60160E5CE017CDF4B2D5A2D62E5CE0132
:1033700077DFA70161E5CE0173DFA80163E5E3CF45
:1033800040E050E062E0CE016BDFA60163E0CE01D9
:1033900067DF40E050E064E0CE0162DFA70165E056
:1033A000CE015EDF40E050E066E0CE0159DF4B2DFC
:1033B0005A2D67E0CE0154DF40E050E068E0CE01D6
:1033C0004FDFA80169E0BFCF6AE2CE01F5DE6C2DC8
:1033D000CE012EDF6E2DCE012BDF6BE2CE01ECDEB7
:1033E0006B2D71C06AE2CE01E7DE6A2DCE0120DFCF
:1033F0006B2DCE011DDF612FCE011ADF602FCE01B4
:1034000017DF6BE2CE01D8DE6D2DCE0111DF6C2D02
:10341000CE010EDF6F2DCE010BDF6E2D57C05E2D5E
:1034200044274C295D2966E4CE011ADFA80167E430
:10343000CE0116DF4B2D5A2D68E40FC0A70166E3BD
:10344000CE010EDFA60167E3CE010ADFA80168E323
:10345000CE0106DF4B2D5A2D69E3CE0101DFA60117
:1034600060E2CE01FDDE4B2D5A2D61E26CCF4B2D7B
:103470005A2D62E0CE01F4DEA60163E0CE01F0DE5B
:10348000A80166E0CE01ECDEA70167E0CE01E8DE30
:103490006FE01FC06AE2CE018FDE6D2DCE01C8DE67
:1034A0006C2DCE01C5DE6F2DCE01C2DE6E2DCE019C
:1034B000BFDE6BE2CE0180DE6A2DCE01B9DE6B2D60
:1034C000CE01B6DE612FCE01B3DE602FCE01B0DEBD
:1034D0006CE2CE01DF91CF911F910F91FF90EF90A1
:1034E000DF90CF90BF90AF9067CEDF91CF911F91CB
:1034F0000F91FF90EF90DF90CF90BF90AF90089525
:103500000F931F93CF93DF93EC016C8361E08DA148
:103510000E943C3761E08EA10E943C3761E08FA1A0
:103520000E943C3788A58F3F19F061E00E943C372C
:103530008E85813129F0813039F48F85853021F4F1
:1035400061E089A50E943C376E85613011F0CE01A3
:103550003BD9EE89FF89908189A1892B808365E021
:1035600070E080E090E00E944136EE89FF89908112
:1035700089A18095892380836FE070E080E090E0EE
:103580000E944136EE89FF89908189A1892B808331
:103590006FE070E080E090E00E944136EC89FD89A8
:1035A000908188A1809589238083ED858E2F90E07E
:1035B000FC013297EE31F10510F00C94532D882761
:1035C000E057FF4F8F4F0C94973841E050E060E098
:1035D000CE0146DE44EA58EA63E0CE0141DE40E037
:1035E00050E06CE0CE013CDE4CE058E06DE0CE01F6
:1035F00037DE40E05BE26EE0CE0132DE47EB50E0CA
:103600006EE1CE012DDE4FE35BE261E0CE0128DE0C
:1036100040E056E062E0CE0123DE40E050E060E1B1
:10362000CE011EDE40E750E661E1CE0119DE40E04A
:1036300050E065E0CE0114DE40E050E066E0CE01EF
:103640000FDE4CE15FEE66E1CE010ADE43E050E0C2
:1036500067E1CE0105DE43E352E067E0CE0100DE24
:1036600040E050E06BE0CE01FBDD40E050E06FE079
:10367000CE01F6DD40E050E061E4CE01F1DD40E056
:1036800050E062E4CE01ECDD40E050E068E4CE01C1
:10369000E7DD4FE351E069E4CE01E2DD40E050E0D8
:1036A0006AE4CE01DDDD40E050E06BE4CE01D8DD20
:1036B00040E05FEE64E4CE01D3DD40E050E065E43D
:1036C000CE01CEDD4FE351E066E4CE01C9DD47E037
:1036D00057E060E3CE01C4DD44E052E061E3CE0197
:1036E000BFDD44E052E062E3CE01BADD42E055E0E6
:1036F00063E3CE01B5DD47E055E064E3CE01B0DD24
:1037000044E052E065E3CE01ABDD44E052E066E325
:10371000CE01A6DD42E055E067E3CE01A1DD42E047
:1037200053E06AE3CE019CDD42E053E06BE3CE015F
:1037300097DD40E050E063E2CE0192DD40E050E0F2
:1037400064E2CE018DDD40E050E865E2CE0188DD27
:1037500040E050E06FE4CE0183DD40E050E06EE4F5
:103760000C94EB2640EF58E765EECE0179DD40E0A2
:1037700051E061E0CE0174DD40E052E062E0CE0154
:103780006FDD40E350E163E0CE016ADD40E050E0F0
:1037900064E0CE0165DD47E052E068E0CE0160DD27
:1037A00040E050E069E0CE015BDD40E050E06AE0DF
:1037B000CE0156DD40E050E06CE0CE0151DD40E04E
:1037C00050E06DE0CE014CDD40E050E06FE0CE0116
:1037D00047DD40E050E060E1CE0142DD47E050E0EF
:1037E00061E1CE013DDD40E050E062E1CE0138DD37
:1037F00040E050E063E1CE0133DD41E050E067E0BE
:10380000CE012EDD68EC70E080E090E00E94413651
:1038100040E956E160E1CE0123DD47E252E061E19B
:10382000CE011EDD62E370E080E090E00E94413650
:103830004DE050E062E1CE0113DD62E370E080E034
:1038400090E00E94413640E052E163E1CE0108DDA4
:103850004AE050E069E2CE0103DD4DE050E07DC07A
:1038600040EF58E765EECE01FBDC40E051E061E05F
:10387000CE01F6DC40E057E062E0CE01F1DC40E34F
:1038800050E163E0CE01ECDC40E050E064E0CE01CA
:10389000E7DC47E052E068E0CE01E2DC40E050E0E7
:1038A00069E0CE01DDDC40E050E06AE0CE01D8DC2A
:1038B00040E050E06CE0CE01D3DC40E050E06DE051
:1038C000CE01CEDC40E050E06FE0CE01C9DC40E04C
:1038D00050E060E1CE01C4DC47E050E061E1CE01A0
:1038E000BFDC40E050E062E1CE01BADC40E050E0F5
:1038F00063E1CE01B5DC41E050E067E0CE01B0DC31
:1039000068EC70E080E090E00E94413640E955E1CB
:1039100060E1CE01A5DC47E252E061E1CE01A0DC2E
:1039200062E370E080E090E00E9441364CE950E0B4
:1039300062E1CE0195DC62E370E080E090E00E94FD
:10394000413640E059E163E1CE018ADC43E250E0D8
:1039500069E2CE0185DC4EE050E06BE2CE0180DC16
:1039600062E370E080E090E00E94413640E050E089
:1039700060E2CE0175DC40E050E061E2CE0170DC37
:1039800040E050E060E3CE016BDC44E054E061E3F2
:10399000CE0166DC43E050E062E3CE0161DC45E04D
:1039A00054E065E3CE015CDC48E058E066E3CE011C
:1039B00057DC47E054E067E3CE0152DC43E053E0DC
:1039C00068E3CE014DDC47E057E069E3CE0148DC17
:1039D00044E055E06CE3CE0143DC48E058E06DE3A1
:1039E000CE013EDC40E050E060E5CE0139DC4FEE38
:1039F00050E061E5CE0134DC40E050E062E5CE010C
:103A00002FDC4FE351E063E5CE012ADC40E057EACA
:103A100060E6CE0125DC41E050E061E6CE0120DC2D
:103A200040E050E06AE6CE011BDC40E050E060E898
:103A3000CE0116DC40E050E061E8CE0111DC40E050
:103A400050E062E8CE010CDC40E050E063E8CE01DB
:103A500007DC40E050E064E8CE0102DC40E050E0EA
:103A600065E8CE01FDDB40E150E060E9CE01F8DB26
:103A700040E050E062E9CE01F3DB43E351E067E070
:103A8000CE01EEDB0C94532D44E850E066E2CE010B
:103A9000E7DB68E270E080E090E00E94413648EBAE
:103AA00050E066E2CE01DCDB68E270E080E090E0AE
:103AB0000E9441364CEB50E066E2CE01D1DB64E17E
:103AC00070E080E090E00E94413640E050E060E627
:103AD000CE01C6DB46E050E061E6CE01C1DB40E04E
:103AE00050E062E6CE01BCDB48EC50E063E6CE017C
:103AF000B7DB64E170E080E090E00E94413640E78F
:103B000050E063E7CE01ACDB40E050E060E4CE0182
:103B1000A7DB40E450E061E4CE01A2DB45E450E0E5
:103B200062E4CE019DDB41E050E063E4CE0198DB2E
:103B300040E650E064E4CE0193DB45E050E065E40C
:103B4000CE018EDB4CE050E066E4CE0189DB41ED36
:103B500050E067E4CE0184DB45E050E068E4CE014C
:103B60007FDB45E750E060E5CE017ADB41E050E0E5
:103B700061E5CE0175DB47E650E062E5CE0170DB22
:103B800044E150E063E5CE016BDB42EF50E064E5D9
:103B9000CE0166DB47E050E065E5CE0161DB43E046
:103BA00050E066E5CE015CDB49E450E067E5CE011C
:103BB00057DB64E170E080E090E00E94413643E032
:103BC00050E06FE1CE014CDB40E050E060E2CE011E
:103BD00047DB44E250E064E2CE0142DB44E350E0E4
:103BE00065E2CE013DDB4FE250E063E2CE0138DB1F
:103BF00064E170E080E090E00E94413644E450E0EF
:103C000068E1CE012DDB41E050E061E2CE0128DB2E
:103C100040E050E061E0CE0123DB43E050E06CE1A6
:103C2000CE011EDB46E050E069E1CE0119DB64E124
:103C300070E080E090E00E94413644E850E066E2A7
:103C4000CE010EDB68E270E080E090E00E94413639
:103C500048EB50E066E2CE0103DB68E270E080E012
:103C600090E00E9441364CEB50E066E2CE01F8DA7B
:103C700064E170E080E090E00E94413640E050E076
:103C800062E0CE01EDDA40E050E063E0CE01E8DA38
:103C900040E050E064E0CE01E3DA4FEA50E065E056
:103CA000CE01DEDA40E050E066E0CE01D9DA40E055
:103CB00050E067E0CE01D4DA40E050E068E0CE01A9
:103CC000CFDA4BED50E069E0CE01CADA64E170E092
:103CD00080E090E00E94413648E050E066E1CE018D
:103CE000BFDA45E050E067E1CE01BADA61E2CE0129
:103CF00063DA62E2CE0160DA0C94532D61E1CE0109
:103D00005BDA6CE070E080E090E00E94413661EBAD
:103D1000CE0152DA61E0CE018BDA6CE2CE0188DAB4
:103D20006DE2CE0185DA62EBCE0146DA61E0CE01CA
:103D30007FDA6CE2CE017CDA6DE2CE0179DA63EBF8
:103D4000CE013ADA61E0CE0173DA6CE2CE0170DACC
:103D50006DE2CE016DDA61E0CE016ADA6CE2CE018D
:103D600067DA6DE2CE0164DA64EBCE0125DA67E052
:103D7000CE015EDA60ECCE011FDA62EACE0158DADB
:103D800062E0CE0155DA64E8CE0152DA61ECCE0190
:103D900013DA65ECCE014CDA62ECCE010DDA6AE0A2
:103DA000CE0146DA60E0CE0143DA63ECCE0104DAFC
:103DB0006AE8CE013DDA6AE2CE013ADA64ECCE017D
:103DC000FBD96AE8CE0134DA6EEECE0131DA65EC69
:103DD000CE01F2D96EE0CE012BDA66E3CE01ECD94A
:103DE00068EC73C061E1CE01E7D96CE070E080E07F
:103DF00090E00E94413661EBCE01DED961E0CE0158
:103E000017DA6CE2CE0114DA6DE2CE0111DA62EB60
:103E1000CE01D2D961E0CE010BDA6CE2CE0108DA34
:103E20006DE2CE0105DA63EBCE01C6D961E0CE01C9
:103E3000FFD96CE2CE01FCD96DE2CE01F9D961E087
:103E4000CE01F6D96CE2CE01F3D96DE2CE01F0D904
:103E500064EBCE01B1D967E0CE01EAD960ECCE01C6
:103E6000ABD962EACE01E4D962E0CE01E1D964E8DF
:103E7000CE01DED961ECCE019FD965ECCE01D8D957
:103E800062ECCE0199D96AE0CE01D2D960E0CE01D0
:103E9000CFD963ECCE0190D96AE8CE01C9D96AE2E4
:103EA000CE01C6D964ECCE0187D96AE8CE01C0D96B
:103EB0006EEECE01BDD965ECCE017ED96EE0CE01AD
:103EC000B7D966E3CE0178D960ECCE01B1D960EE06
:103ED000CE0172D96FE0CE01ABD96AE1CE01A8D98B
:103EE0006FE0CE01A5D968E1CE01A2D96FE2CE0183
:103EF0009FD968E2CE019CD960E2CE0199D962E2F5
:103F0000CE0196D96FE1CE0193D96BE1CE0190D964
:103F100063E2CE018DD967E3CE018AD960E0CE019C
:103F200087D967E0CE0184D962E0CE0181D960E112
:103F3000CE017ED961EECE013FD96FE0CE0178D9B6
:103F40006BE1CE0175D96FE0CE0172D967E1CE0188
:103F50006FD963E3CE016CD96CE2CE0169D969E215
:103F6000CE0166D96EE2CE0163D960E3CE0160D99D
:103F700060E3CE015DD969E3CE015AD96FE3CE018A
:103F800057D960E0CE0154D967E0CE0151D963E042
:103F9000CE014ED960E1CE014BD96AE2CE010CD9F7
:103FA00060E0CE0145D960E0CE0142D960E0CE01AB
:103FB0003FD96FE7CE013CD96BE2CE01FDD860E07E
:103FC000CE0136D960E0CE0133D960E0CE0130D9E0
:103FD0006FE9CE012DD960EFCE01EED861E0CE01C0
:103FE00027D966EFCE01E8D860E00C940F2861E095
:103FF000CE01E2D865E2CE01DFD860E4CE0118D967
:1040000061E1CE01D9D86AE070E080E090E00E94E2
:10401000413660E2CE01D0D868E3CE01CDD869E266
:10402000CE01CAD863E1CE01C7D866E3CE01C4D8B9
:1040300060E6CE01FDD86AE3CE01BED865E0CE01D0
:10404000F7D86AE2CE01B8D860E0CE01F1D86FE7C8
:10405000CE01EED864EBCE01AFD863E0CE01E8D854
:1040600068E0CE01E5D86BE0CE01E2D86EE0CE018B
:10407000DFD86AEBCE01A0D867E0CE01D9D86DE0D9
:10408000CE01D6D86BE2CE0197D860E0CE01D0D871
:104090006FE75EC263E8CE018FD862E0CE01C8D878
:1040A00065E8CE0189D863E0CE01C2D86BE8CE01C5
:1040B00083D861E0CE01BCD86CE8CE017DD863E93D
:1040C000CE01B6D861E9CE0177D861E0CE01B0D893
:1040D00063E8CE0171D860E0CE01AAD86EE3CE01CC
:1040E0006BD860EBCE01A4D86FE3CE0165D863E056
:1040F000CE019ED860E4CE015FD860E1CE0198D8B1
:1041000061E4CE0159D866E5CE0192D862E4CE01D1
:1041100053D863E1CE018CD863E4CE014DD866E478
:10412000CE0186D864E4CE0147D863E2CE0180D8C0
:1041300065E4CE0141D866E7CE017AD866E4CE01C7
:104140003BD860E0CE0174D867E4CE0135D86EE587
:10415000CE016ED868E4CE012FD86FE4CE0168D8C6
:1041600069E4CE0129D860E4CE0162D867E1CE01CE
:1041700023D861E9CE015CD86BE2CE011DD869EF8E
:10418000CE0156D86AE070E080E090E00E944136AF
:104190006BE1CE0111D864E1CE014AD86AE1CE01CB
:1041A0000BD861E1CE0144D86CE1CE0105D866E0C0
:1041B000CE013ED86FE1CE010E94DC1862E4CE0150
:1041C00037D864E170E080E090E00E94413669E118
:1041D000CE010E94DC186AE0CE012AD869E1CE0146
:1041E0000E94DC186AE1CE0123D868E270E080E02A
:1041F00090E00E94413669E1CE010E94DC1862E144
:10420000CE0116D868E270E080E090E00E9441366E
:104210006EE1CE010E94DC1867E2CE0109D864E6A7
:1042200070E080E090E00E94413664E2CE010E949E
:10423000DC1860E6CE010E9418196DE3CE010E94E1
:10424000DC1860E4CE010E94181964E3CE010E94DC
:10425000DC1868E3CE010E94181965E3CE010E94C4
:10426000DC1868E3CE010E94181964E2CE010E94B6
:10427000DC1868E3CE010E94181968E270E080E063
:1042800090E00E94413664E2CE010E94DC186CE3AB
:10429000CE010E94181966E1CE010E94DC186CE183
:1042A000CE010E94181961E0CE010E94DC1866E080
:1042B000CE010E94181965E5CE010E94DC1860E06D
:1042C000CE010E94181962E0CE010E94DC1860E065
:1042D000CE010E94181963E0CE010E94DC1860E054
:1042E000CE010E94181964E0CE010E94DC1860E043
:1042F000CE010E94181965E0CE010E94DC186FEE15
:10430000CE010E94181966E0CE010E94DC1860E020
:10431000CE010E94181967E0CE010E94DC1860E00F
:10432000CE010E94181968E0CE010E94DC1861E0FD
:10433000CE010E94181969E0CE010E94DC186FE8D6
:10434000CE010E941819D5CC62EECE010E94DC1875
:1043500063E2CE010E94181962E0CE010E94181992
:1043600064E5CE010E94181960EECE010E94DC18AF
:1043700061E0CE010E9418196AE070E080E090E0F0
:104380000E94413660EECE010E94DC1863E0CE014F
:104390000E9418196AE070E080E090E00E944136C7
:1043A00061E0CE010E94DC1864E670E080E090E0FD
:1043B0000E94413666EECE010E94DC1861E0CE011B
:1043C0000E9418196FE1CE010E9418196FEFCE01FB
:1043D0000E94181960EBCE010E94DC1860E2CE0149
:1043E0000E94181960E0CE010E94181961E0CE0108
:1043F0000E9418196FEDCE010E94181961E0CE01DC
:104400000E9418196FE0CE010E94181960E0CE01D9
:104410000E94181964EBCE010E94DC1862E0CE0104
:104420000E94181963E1CE010E94181960E0CE01C4
:104430000E94181968E0CE010E9418196BE2CE01A3
:104440000E94181960E0CE010E94181962E0CE01A6
:104450000E94181960E0CE010E94181966EBCE0187
:104460000E94DC1861E0CE010E94181960E2CE01C2
:104470000E94181960E0CE010E94181964E0CE0174
:104480000E9418196CE0CE010E94181960E0CE015C
:104490000E94181962E0CE010E9418196AEBCE0141
:1044A0000E94DC186FE0CE010E94181968EBCE0163
:1044B0000E94DC1867E0CE010E94181961E0CE016D
:1044C0000E94181966E3CE010E94DC1862E2CE0158
:1044D0000E94181960EFCE010E94DC1863E0CE0143
:1044E0000E94181961E070E080E090E00E9441367F
:1044F0000FE011E02FED31E040E050E060E070E0CF
:10450000CE010E943F1969E2CE010E94DC186EEBD9
:10451000CE010E94DC1866E0CE010E94181960EFFF
:10452000CE010E94181961E0CE010E94181960EFB7
:10453000CE010E94181960E0CE010E94181960E0B7
:10454000CE010E94181960EDCE010E94DC186DE0CA
:10455000CE010E9418190C94522C62EECE010E94DA
:10456000DC186EE1CE010E94181962E0CE010E94B3
:10457000181964E5CE010E94181960EECE010E9460
:10458000DC1861E0CE010E9418196AE070E080E05A
:1045900090E00E94413660EECE010E94DC1863E09C
:1045A000CE010E9418196AE070E080E090E00E945D
:1045B000413661E0CE010E94DC1864E670E080E0E4
:1045C00090E00E94413666EECE010E94DC1863E066
:1045D000CE010E9418196FEFCE010E9418196FEFDB
:1045E000CE010E94181960EBCE010E94DC1864E233
:1045F000CE010E94181960E0CE010E94181963E0F4
:10460000CE010E9418196FE1CE010E94181961E0D5
:10461000CE010E9418196FEDCE010E94181960E0BA
:10462000CE010E94181964EBCE010E94DC1863E0F1
:10463000CE010E94181960EACE010E94181960E0AC
:10464000CE010E9418196EE2CE010E94181960E393
:10465000CE010E94181960E0CE010E9418196FE087
:10466000CE010E94181960E0CE010E94181966EB75
:10467000CE010E94DC1862E0CE010E9418196DE0A4
:10468000CE010E94181960E0CE010E94181960E165
:10469000CE010E94181960E1CE010E94181960E055
:1046A000CE010E94181968E0CE010E9418196AEB29
:1046B000CE010E94DC186FE0CE010E94181968EB51
:1046C000CE010E94DC1867E0CE010E94181961E05B
:1046D000CE010E94181966E3CE010E94DC1862E246
:1046E000CE010E94181960EFCE010E94DC1863E031
:1046F000CE010E94181961E070E080E090E0D2C025
:1047000062EECE010E94DC1863E2CE010E9418190D
:1047100062E0CE010E94181964E0CE010E941819CF
:1047200060EECE010E94DC1861E0CE010E941819F3
:104730006AE070E080E090E00E94413660EECE01D9
:104740000E94DC1863E0CE010E9418196AE070E054
:1047500080E090E00E94413661E0CE010E94DC18CA
:1047600064E670E080E090E00E94413666EECE01A3
:104770000E94DC1864E0CE010E94181963E9CE01A2
:104780000E94181960EECE010E94181960EBCE014C
:104790000E94DC1860E0CE010E94181960E0CE0192
:1047A0000E94181963E0CE010E9418196FE1CE0132
:1047B0000E94181961E0CE010E9418196FEDCE0118
:1047C0000E94181960E0CE010E94181964EBCE0116
:1047D0000E94DC1863E0CE010E94181960EACE0145
:1047E0000E94181960E0CE010E9418196EE2CE01F5
:1047F0000E94181960E3CE010E94181960E0CE01F2
:104800000E9418196FE0CE010E94181960E0CE01D5
:104810000E94181966EBCE010E94DC1862E0CE01FE
:104820000E9418196DE0CE010E94181960E0CE01B7
:104830000E94181960E1CE010E94181960E1CE01B2
:104840000E94181960E0CE010E94181968E0CE019C
:104850000E9418196AEBCE010E94DC1865E0CE01B7
:104860000E94181968EBCE010E94DC1867E0CE01A7
:104870000E94181961E0CE010E94181966E3CE016A
:104880000E94DC1862E2CE010E94181960EFCE018E
:104890000E94DC1863E0CE010E9418196AE070E003
:1048A00080E090E00E9441360FED11E02FE133E00F
:1048B00023CE44E050E261E1CE010E94301940E095
:1048C0005CEC63E1CE010E94301940E056E265E104
:1048D000CE010E9430194AE255E264E1CE010E9405
:1048E000301943E350E062E1CE010E94301944E008
:1048F0005CEC63E1CE010E94301946E05CEC63E1C0
:10490000CE010E9430194FE45CEC63E1CE010E94BD
:1049100030194FE457E663E1CE010E94301943E0BD
:1049200050E261E1CE010E94301949E056E260E3B5
:10493000CE010E9430194CE254E261E3CE010E94A4
:10494000301943E25FE162E3CE010E94301945E293
:1049500054E263E3CE010E94301946E252E264E37E
:10496000CE010E94301943E255E265E3CE010E9478
:1049700030194AE15CE166E3CE010E9430194DE155
:1049800053E167E3CE010E94301941E15BE068E347
:10499000CE010E94301940E152E169E3CE010E944C
:1049A000301945E153E16AE3CE010E94301949E133
:1049B00056E36BE3CE010E94301940E05DE06CE30A
:1049C000CE010E9430194DE050E06DE3CE010E940F
:1049D000301947E050E066E1CE010E94301943E112
:1049E00050E062E0CE010E94301943E050E063E005
:1049F000CE010E94301947E251E061E0CE010E94F1
:104A0000301943E053E068E0CE010E9430194BE0DA
:104A100050E06AE0CE010E94301943E050E06BE0C4
:104A2000CE010E94301940E050E06CE0CE010E94BF
:104A3000301940E050E061E4CE010E94301940E0BE
:104A400050E060E5CE010E94301945E050E060E69C
:104A5000CE010E9430194BE050E060E7CE010E9489
:104A6000301940E050E061E7CE010E94301940E08B
:104A700050E068E7CE010E94301940E050E06AE75C
:104A8000CE010E94301947E050E069E7CE010E9454
:104A9000301941E550E067E0CE010E94301943E54E
:104AA00050E067E0CE010E94301940E050E069E735
:104AB00092C161E1CE010E94DC1864E170E080E007
:104AC00090E00E94413660EDCE010E94DC1867E064
:104AD000CE010E94181962E4CE010E94181968E103
:104AE000CE010E94181961EDCE010E94DC1860E031
:104AF000CE010E94181967E0CE010E94181960E1EA
:104B0000CE010E94181962EDCE010E94DC1861E00E
:104B1000CE010E94181962E0CE010E94181960ECC3
:104B2000CE010E94DC1860E1CE010E9418196BE3EF
:104B3000CE010E94181960E0CE010E94181962E0AF
:104B4000CE010E94181961E1CE010E94181965EC8E
:104B5000CE010E94DC1863E0CE010E94181968ECB7
:104B6000CE010E94DC1860E0CE010E94181962E3B9
:104B7000CE010E94181966E3CE010E94181965E45F
:104B8000CE010E94181966E0CE010E94181966E154
:104B9000CE010E94181967E3CE010E94181965E73B
:104BA000CE010E94181967E7CE010E94181964E52A
:104BB000CE010E9418196CE0CE010E94181960E025
:104BC000CE010E94181966E3CE010E94DC186AE04B
:104BD000CE010E9418196AE3CE010E94DC1865E537
:104BE000CE010E9418196AE2CE010E94DC1860E032
:104BF000CE010E94181960E0CE010E94181961E0F0
:104C0000CE010E9418196FE3CE010E9418196BE2C1
:104C1000CE010E94DC1860E0CE010E94181960E00D
:104C2000CE010E94181961E0CE010E94181960EEB1
:104C3000CE010E94181968E770E080E090E00E94C1
:104C40004136F8C14AE150E061E1CE010E943019DD
:104C500041E251E362E1CE010E9430194CE650E09E
:104C600063E1CE010E94301949E452E464E1CE01CF
:104C70000E94301940E058E060E1CE010E943019F6
:104C80006AE070E080E090E00E9441364AE151E045
:104C900061E1CE010E9430196AE070E080E090E0AE
:104CA0000E9441364AE153E061E1CE010E94301991
:104CB0006AE070E080E090E00E9441364AE157E00F
:104CC00061E1CE010E9430196AE070E080E090E07E
:104CD0000E9441364AE15FE061E1CE010E94301955
:104CE0006AE070E080E090E00E9441364AE35FE0D5
:104CF00061E1CE010E9430196EE170E080E090E049
:104D00000E9441364CE151E061E0CE010E94301931
:104D100040E051E062E0CE010E94301940E350E1F2
:104D200063E0CE010E94301940E050E067E0CE0120
:104D30000E94301948E058E068E0CE010E94301926
:104D400040E051E16BE0CE010E94301940E050E0BC
:104D50006CE0CE010E94301941E054E16FE0CE01D9
:104D60000E94301940E050E065E1CE010E94301908
:104D700040E050E060E2CE010E94301940E050E097
:104D800061E2CE010E9430194FEA50E066E3CE01A5
:104D90000E94301940E050E067E3CE010E943019D4
:104DA0004BED50E068E3CE010E94301940E050E046
:104DB00069E3CE010E94301941E05BE06FE0CE0173
:104DC0000E94301946E150E067E0CE010E943019A0
:104DD00047E150E067E0CE010E9430190C94791E43
:104DE00061E1CE010E94DC1868E770E080E090E0AD
:104DF0000E94413661EBCE010E94DC1865E0CE01D5
:104E00000E9418196CE3CE010E9418196CE3CE01C0
:104E10000E94181962EBCE010E94DC1865E0CE01F9
:104E20000E9418196CE3CE010E9418196CE3CE01A0
:104E30000E94181963EBCE010E94DC1865E0CE01D8
:104E40000E9418196CE3CE010E9418196CE3CE0180
:104E50000E94181965E0CE010E9418196CE3CE017A
:104E60000E9418196CE3CE010E94181964EBCE0160
:104E70000E94DC1863E0CE010E94181960ECCE019C
:104E80000E94DC1868E2CE010E94181968E0CE0189
:104E90000E94181964E0CE010E94181961ECCE013D
:104EA0000E94DC1860ECCE010E94181962ECCE0161
:104EB0000E94DC186DE0CE010E94181960E0CE015E
:104EC0000E94181963ECCE010E94DC186DE8CE0137
:104ED0000E9418196AE2CE010E94181964ECCE01F2
:104EE0000E94DC186DE8CE010E9418196EEECE010A
:104EF0000E94181965ECCE010E94DC186AE1CE010F
:104F00000E94181966E3CE010E94DC1860ECCE0105
:104F10000E94181960EECE010E94DC1863E0CE01F9
:104F20000E94181962E2CE010E94181967E0CE01B2
:104F30000E9418196AE0CE010E9418196EE2CE0193
:104F40000E94181960E3CE010E94181965E2CE0193
:104F50000E9418196AE2CE010E94181968E2CE0177
:104F60000E94181966E2CE010E9418196EE2CE0165
:104F70000E9418196AE3CE010E94181960E0CE0160
:104F80000E94181961E0CE010E94181963E0CE0159
:104F90000E94181963E1CE010E94181961EECE013A
:104FA0000E94DC1864E0CE010E94181966E1CE016F
:104FB0000E94181966E0CE010E9418196DE0CE011A
:104FC0000E9418196DE2CE010E94181966E2CE0106
:104FD0000E94181963E2CE010E94181967E2CE01FF
:104FE0000E94181967E2CE010E94181965E2CE01ED
:104FF0000E9418196DE2CE010E9418196BE3CE01D0
:105000000E94181960E0CE010E94181961E0CE01DB
:105010000E94181964E0CE010E94181963E1CE01C4
:105020000E9418196AE3CE010E94DC1865E0CE01E7
:105030000E94181969E20C947A1E61E1CE010E9467
:10504000DC1864E170E080E090E00E94413668E2A4
:10505000CE010E94DC1865E070E080E090E00E94E4
:1050600041366FECCE010E94DC1860E0CE010E9458
:10507000181963E8CE010E94181960E3CE010E945E
:1050800018196DEECE010E94DC1864E6CE010E9474
:10509000181963E0CE010E94181962E1CE010E9446
:1050A000181961E8CE010E94181968EECE010E941D
:1050B000DC1865E8CE010E94181961E0CE010E945B
:1050C000181969E7CE010E9418196BECCE010E94F5
:1050D000DC1869E3CE010E9418196CE2CE010E942F
:1050E000181960E0CE010E94181964E3CE010E94F5
:1050F000181962E0CE010E94181967EFCE010E94D4
:10510000DC1860E2CE010E9418196AEECE010E94FE
:10511000DC1860E0CE010E94181960E0CE010E9408
:10512000181960ECCE010E94DC1866E2CE010E94E4
:10513000181961ECCE010E94DC1861E1CE010E94D9
:10514000181965ECCE010E94DC1865E3CE010E94BF
:1051500018196EE3CE010E94181967ECCE010E9467
:10516000DC186EEBCE010E94181961EBCE010E9493
:10517000DC1860E0CE010E9418196BE1CE010E949C
:10518000181966EBCE010E94DC186AE0CE010E947D
:10519000181962E8CE010E94181967E2CE010E9438
:1051A000181960E0CE010E94181967EBCE010E9429
:1051B000DC1867E0CE010E9418196AE3CE010E9454
:1051C000DC1865E5CE010E94181966E3CE010E9445
:1051D000DC1868E4CE010E94181969E2CE010E9431
:1051E000DC1865E070E080E090E05BC46BECCE0121
:1051F0000E94DC1869E3CE010E9418196CE2CE010E
:105200000E94181960E0CE010E94181964E3CE01D3
:105210000E94181962E0CE010E9418196FECCE01AD
:105220000E94DC1860E0CE010E94181961ECCE01EA
:105230000E94181960E3CE010E94181968EECE0191
:105240000E94DC1865E8CE010E94181960E0CE01CA
:105250000E94181968E7CE010E9418196AEECE0163
:105260000E94DC1860E0CE010E94181960E0CE01B7
:105270000E9418196DEECE010E94DC1864E6CE0182
:105280000E94181963E0CE010E94181962E1CE0154
:105290000E94181961E8CE010E94181967EFCE012B
:1052A0000E94DC1860E2CE010E94181960ECCE0169
:1052B0000E94DC1863E2CE010E94181961ECCE0155
:1052C0000E94DC1860E1CE010E94181965ECCE0145
:1052D0000E94DC186EE3CE010E94181968E2CE012C
:1052E0000E94181967ECCE010E94DC1866E8CE0116
:1052F0000E94181966E3CE010E94DC1868E4CE0112
:105300000E9418196AE3CE010E94DC1865E5CE01FF
:105310000E94181961EBCE010E94DC1860E0CE01FA
:105320000E94181968E1CE010E94181966EBCE019F
:105330000E94DC1868E0CE010E94181962E8CE01D4
:105340000E94181967E2CE010E94181961E1CE018E
:105350000E94DC1868E770E080E090E09DC260EB9E
:10536000CE010E94DC186EE1CE010E94181960EB9C
:10537000CE010E94DC1860E0CE010E94181963EB98
:10538000CE010E94DC1862E0CE010E94181960E094
:10539000CE010E94181960E0CE010E94181960E148
:1053A000CE010E94181964EBCE010E94DC1860E067
:1053B000CE010E94181960ECCE010E94DC1863E057
:1053C000CE010E9418196BE3CE010E94181960E00B
:1053D000CE010E94181960E0CE010E94181960E009
:1053E000CE010E94181961E0CE010E94181960E0F8
:1053F000CE010E94181963E4CE010E94181961ECD5
:10540000CE010E94DC1868E0CE010E94181965E107
:10541000CE010E94181968E0CE010E94181968E0B8
:10542000CE010E94181964ECCE010E94DC1865E1DF
:10543000CE010E94181963E0CE010E94181963E0A2
:10544000CE010E94181961E0CE010E94181966EC85
:10545000CE010E94DC1862E0CE010E94181968ECAF
:10546000CE010E94DC186CE0CE010E94181965E0A4
:10547000CE010E9418196AE0CE010E9418196BE64D
:10548000CE010E94181964E0CE010E94181966E04E
:10549000CE010E94181965E1CE010E94181960E141
:1054A000CE010E94181960E0CE010E94181960E632
:1054B000CE010E94181966E3CE010E94DC186AE052
:1054C000CE010E9418196CE0CE010E94DC1865E53F
:1054D000CE010E9418196AE3CE010E94DC1865E52E
:1054E000CE010E94181968E3CE010E94DC1860ED1D
:1054F000CE010E94DC1867E0CE010E94181967E017
:10550000CE010E94181964E1CE010E94181962EAC6
:10551000CE010E94181961EDCE010E94DC1863E0F3
:10552000CE010E9418196AE5CE010E94181960E1A7
:10553000CE010E94181962EDCE010E94DC1863E0D2
:10554000CE010E94181964E0CE010E94181964E08F
:10555000CE010E94181961E1CE010E94DC1866E9B3
:1055600070E080E090E00E9441366AE2CE010E9445
:10557000DC1860E0CE010E94181960E0CE010E94A4
:10558000181961E0CE010E9418196FEDCE010E943A
:1055900018196BE2CE010E94DC1860E0CE010E9477
:1055A000181960E0CE010E94181961E0CE010E9436
:1055B00018196FE3CE010E94181964E670E080E0CC
:1055C00090E00E94413669E2CE010E94DC186EE153
:1055D00070E080E090E00E9441366CE2CE010E94D3
:1055E000DC186EE170E080E090E05BC261E1CE012A
:1055F0000E94DC1862E370E080E090E00E94413697
:1056000062EFCE010E94DC186CE1CE010E941819F5
:1056100063EACE010E94181962E3CE010E941819B4
:1056200062E0CE010E94181962EBCE010E941819A7
:1056300062E1CE010E9418196FEFCE010E94181985
:1056400062E1CE010E94181960E0CE010E94181993
:1056500061EFCE010E94DC1866E3CE010E941819AA
:1056600064EACE010E94181968EFCE010E94DC188E
:1056700061E2CE010E94181964E0CE010E9418195F
:1056800069EFCE010E94DC1860E0CE010E9418197B
:1056900068E0CE010E94181960ECCE010E94DC186F
:1056A0006DE0CE010E9418196DE0CE010E9418191C
:1056B00061ECCE010E94DC1863E4CE010E9418194F
:1056C00060E0CE010E94181962ECCE010E94DC1845
:1056D00060E0CE010E94181965ECCE010E94DC1832
:1056E00060E0CE010E94181968E4CE010E941819EA
:1056F00066EBCE010E94DC1860E0CE010E94181912
:1057000062E2CE010E9418196BE3CE010E941819C3
:1057100060EECE010E94DC186FE0CE010E941819E5
:1057200064E2CE010E9418196CE1CE010E941819A2
:105730006AE0CE010E9418196FE0CE010E9418198C
:1057400068E0CE010E94181963E4CE010E94181986
:1057500068E8CE010E94181962E3CE010E94181970
:105760006FE0CE010E94181960E1CE010E94181965
:1057700066E0CE010E9418196FE0CE010E94181950
:1057800067E0CE010E94181960E0CE010E9418194E
:1057900061EECE010E94DC186FE0CE010E94181964
:1057A00068E3CE010E94181960E3CE010E94181927
:1057B00069E0CE010E9418196FE0CE010E9418190D
:1057C0006FE0CE010E9418196EE4CE010E941819F4
:1057D00067E7CE010E9418196CE3CE010E941819E8
:1057E00067E0CE010E94181960E1CE010E941819ED
:1057F00065E0CE010E94181963E2CE010E941819DB
:105800006BE1CE010E94181960E0CE010E941819C8
:1058100060E2CE010E94DC1860E0CE010E941819FF
:1058200066E3CE010E94DC186AE0CE010E941819DE
:105830006AE3CE010E94DC1865E5CE010E941819CA
:105840006AE2CE010E94DC1860E0CE010E941819C5
:1058500060E0CE010E94181961E0CE010E94181983
:105860006FEDCE010E9418196BE2CE010E94DC1888
:1058700060E0CE010E94181960E0CE010E94181964
:1058800061E0CE010E9418196FE3CE010E94181941
:1058900062E370E080E090E00E94413669E2CE0170
:1058A0000E94DC186CE20C947A1E8C81813011F419
:1058B0001C8202C081E08C836FE0CE010E94DC1864
:1058C00040E150E061E0CE010E9430196FE00C949D
:1058D0007A1E69EBCE010E94DC186FEFCE010E94A8
:1058E000181963E8CE010E94181963E5CE010E94E1
:1058F000181960EBCE010E94DC186CE3CE010E9407
:10590000181961E0CE010E94181966EBCE010E94C1
:10591000DC1864E9CE010E9418196CE6CE010E94E1
:10592000181960E5CE010E94181961EBCE010E94A2
:10593000DC1860E0CE010E94181961E0CE010E94DF
:1059400018196BE1CE010E94181963E0CE010E9484
:10595000181961E0CE010E94181968E0CE010E947A
:10596000181967E7CE010E94181969E8CE010E9454
:10597000181960EECE010E94DC1860E5CE010E948D
:10598000181967E7CE010E94181960E4CE010E9441
:10599000181968E0CE010E9418196FEBCE010E9421
:1059A000181960E0CE010E94181963E0CE010E9430
:1059B00018196FE0CE010E94181960E0CE010E9414
:1059C000181961E0CE010E94181963E7CE010E9408
:1059D000181960E0CE010E94181962E7CE010E94FA
:1059E000181963E0CE010E94181960EBCE010E94E5
:1059F00018196FE0CE010E94181968E0CE010E94CC
:105A0000181960E0CE010E9418196FE0CE010E94C3
:105A100018196AE3CE010E94DC1865E0CE010E94ED
:105A2000181966E3CE010E94DC1860ECCE010E94DA
:105A3000181961E1CE010E94DC1866E970E080E08F
:105A400090E00E94413669E2CE010E94DC1866E9CE
:105A500070E080E090E00E9441366DE2CE010E944D
:105A6000DC1810E0612FCE010E9418191E5F10345F
:105A7000C9F710E0612FCE010E9418191F5F103482
:105A8000C9F710E0612FCE010E9418191E5F103473
:105A9000C9F76CE2CE010E94DC1866E970E080E094
:105AA00090E00E944136EC89FD89908188A1892B84
:105AB00080838FEF888389831A821B8218AA1BA692
:105AC0001AA6DF91CF911F910F9108950F931F9305
:105AD000FC0164812185328545815681611103C0B5
