:100000000C9474090C94A5090C94A5090C94A509E9
:100010000C94A5090C94A5090C94A5090C94A509A8
:100020000C94A5090C94A5090C94A5090C94A50998
:100030000C94A5090C94A5090C94A5090C94A50988
:100040000C94A5090C94A5090C94A5090C94A50978
:100050000C94A5090C94A5090C94A5090C94832D66
:100060000C94A5090C94682B0C949E2B0C94A50958
:100070000C94A5090C94A5090C94A5090C94A50948
:100080000C94A5090C94A5090C94A5090C94A50938
:100090000C94A5090C94A5090C94A5090C94A50928
:1000A0000C94A5090C94A5090C94A5090C94A50918
:1000B0000C94A5090C94A5090C94A5090C94A50908
:1000C0000C94A5090C94A5090C94A5090C94A509F8
:1000D0000C94A5090C94A5090C94A5090C94A509E8
:1000E0000C94A509A1138A14BC13BC13D5138A144C
:1000F00082135F14F9138A140714071424142414A8
:10010000A1135F148A14A11307145F14BC133314D2
:100110005F145F145F145F145F144C145F145F145A
:10012000FA146427C715C715591764275F1A93185F
:100130000C1A6427B91BC21C6E1E6E1EFA140B2308
:100140006427FA14951D6E1F4516372005210B23D1
:100150003222C4230B2569267D260719A72EAA2E35
:10016000992E9D2EA32EE12EAE2EB22EB82EBC2E91
:10017000C02EC62ECA2ECE2EE12ED42ED82EDC2E88
:100180001010205F000000000000000000000000D0
:10019000000000000000000000000000000000005F
:1001A000000000000000000007000F800F800F809B
:1001B0000F800F8007000700000000000700070005
:1001C0000700000000000E380E380E380E380630DA
:1001D000000000000000000000000000000000001F
:1001E0000000000000000C300C300C307FFE7FFE61
:1001F0000C300C300C300C307FFE7FFE0C300C309D
:100200000C3000000000024002400FF81FF81A40B6
:100210001A401FF00FF8025802581FF81FF0024052
:10022000024000000000000000000E100E300E70B2
:1002300000E001C0038007000E700C700870000021
:1002400000000000000000000F00198019801980D4
:100250000F000F080F9819F818F018E019F00F9810
:1002600000000000000000000700070007000E006B
:10027000000000000000000000000000000000007E
:10028000000000000000000000F001C00380070033
:100290000E000E000E000E000700038001C000F0EB
:1002A00000000000000000000F00038001C000E01B
:1002B000007000700070007000E001C003800F004B
:1002C000000000000000000001801188099007E094
:1002D00007E03FFC3FFC07E007E009901188018040
:1002E000000000000000000000000000018001800C
:1002F00001800FF00FF001800180018000000000FC
:1003000000000000000000000000000000000000ED
:1003100000000000000000000000070007000700C8
:100320000E000000000000000000000000000000BF
:1003300000001FF81FF8000000000000000000008F
:1003400000000000000000000000000000000000AD
:100350000000000000000000000007000700070088
:10036000000000000000000000020006000E001C5B
:100370000038007000E001C0038007000E001C0080
:1003800000000000000000000FF01C381C781CF872
:100390001CF81DB81DB81F381F381E381C380FF048
:1003A00000000000000000000180018003801F8029
:1003B0001F800380038003800380038003801FF07D
:1003C00000000000000000000FE01C701C38003826
:1003D000007000E001C0038007000E381C381FF8D1
:1003E00000000000000000000FE01C701C38003806
:1003F000007003C003C0007000381C381C700FE090
:10040000000000000000000000E001E003E006E062
:100410000CE018E01FF81FF800E000E000E003F82F
:1004200000000000000000001FF81C001C001C0061
:100430001C001FE01FF0007800381C381C700FE013
:10044000000000000000000003E007000E001C0098
:100450001C001FF01FF81C381C381C381C380FF00B
:1004600000000000000000001FFC1C1C1C1C1C1CC9
:10047000001C0038007000E001C00380038003808E
:1004800000000000000000000FF01C381C381C3871
:100490001F3807E007E01CF81C381C381C380FF028
:1004A00000000000000000000FF01C381C381C3851
:1004B0001C381FF80FF800380038007000E007C043
:1004C0000000000000000000000000000380038026
:1004D0000380000000000380038003800000000010
:1004E0000000000000000000000000000380038006
:1004F00003800000000003800380038007000000E9
:10050000000000000000007000E001C00380070050
:100510000E001C001C000E000700038001C000E05C
:1005200000700000000000000000000000003FFC20
:100530003FFC000000003FFC3FFC0000000000000A
:100540000000000000001C000E000700038001C036
:1005500000E00070007000E001C0038007000E00A2
:100560001C000000000003C00FF01E78183800388F
:10057000007000E001C001C00000000001C001C027
:1005800001C0000000000FF81C1C1C1C1C1C1C1CC3
:100590001CFC1CFC1CFC1CFC1C001C001C001FF098
:1005A00007F800000000000003C007E00E701C38D0
:1005B0001C381C381C381FF81C381C381C381C38D8
:1005C00000000000000000001FF00E380E380E384A
:1005D0000E380FF00FF00E380E380E380E381FF0B0
:1005E000000000000000000007F00E381C381C005E
:1005F0001C001C001C001C001C001C380E3807F0DE
:1006000000000000000000001FE00E700E380E38E1
:100610000E380E380E380E380E380E380E701FE0B9
:1006200000000000000000001FF80E180E080E0069
:100630000E300FF00FF00E300E000E080E181FF8DF
:1006400000000000000000001FF80E180E080E0049
:100650000E300FF00FF00E300E000E000E001F00D7
:10066000000000000000000007F00E381C381C38A5
:100670001C001C001C001CF81C381C380E3807F825
:1006800000000000000000001C701C701C701C703A
:100690001C701FF01FF01C701C701C701C701C70F4
:1006A00000000000000000000FE0038003800380D2
:1006B00003800380038003800380038003800FE0B6
:1006C000000000000000000001FC007000700070DD
:1006D00000700070007038703870387038700FE03B
:1006E00000000000000000001E380E380E700EE002
:1006F0000FC00F800F800FC00EE00E700E381E3836
:1007000000000000000000001F000E000E000E00A0
:100710000E000E000E000E000E080E180E381FF808
:1007200000000000000000001C1C1E3C1F7C1FFC81
:100730001FFC1DDC1C9C1C1C1C1C1C1C1C1C1C1CD5
:1007400000000000000000001C1C1C1C1E1C1F1CC4
:100750001F9C1DDC1CFC1C7C1C3C1C1C1C1C1C1C35
:10076000000000000000000003E007F00E381C1C31
:100770001C1C1C1C1C1C1C1C1C1C0E3807F003E041
:1007800000000000000000001FF00E380E380E3888
:100790000E380FF00FF00E000E000E000E001F00BE
:1007A000000000000000000003E00F780E381C1C61
:1007B0001C1C1C1C1C1C1C7C1CFC0FF80FF800389B
:1007C00000FC0000000000001FF00E380E380E384C
:1007D0000E380FF00FF00E700E380E380E381E382F
:1007E00000000000000000000FF01C381C381C380E
:1007F0001C000FE007F000381C381C381C380FF0C4
:1008000000000000000000001FFC19CC11C401C052
:1008100001C001C001C001C001C001C001C007F09A
:1008200000000000000000001C701C701C701C7098
:100830001C701C701C701C701C701C701C700FE0F5
:1008400000000000000000001C701C701C701C7078
:100850001C701C701C701C701C700EE007C00380A4
:1008600000000000000000001C1C1C1C1C1C1C1CA8
:100870001C1C1C9C1C9C1C9C0FF80FF8077007701C
:1008800000000000000000001C701C701C700EE0D6
:1008900007C00380038007C00EE01C701C701C7032
:1008A00000000000000000001C701C701C701C7018
:1008B0001C700EE007C003800380038003800FE0FC
:1008C00000000000000000001FF81C3818381070ED
:1008D00000E001C0038007000E081C181C381FF838
:1008E000000000000000000007F0070007000700FC
:1008F000070007000700070007000700070007F0D0
:100900000000000000000000100018001C000E0095
:100910000700038001C000E000700038001C0007E1
:10092000000000000000000007F000700070007080
:10093000007000700070007000700070007007F0B0
:10094000000000000000018003C007E00E701C38AA
:100950000000000000000000000000000000000097
:100960000000000000000000000000000000000087
:100970000000000000000000000000000000000077
:100980007FFF7FFF000000001C001C000700070025
:100990000000000000000000000000000000000057
:1009A0000000000000000000000000000000000047
:1009B0000FE0007000700FF01C701C701C700FD8DE
:1009C00000000000000000001E000E000E000E00DF
:1009D0000FF00E380E380E380E380E380E381BF069
:1009E0000000000000000000000000000000000007
:1009F0000FE01C701C701C001C001C701C700FE0B1
:100A0000000000000000000000F80070007000709E
:100A10000FF01C701C701C701C701C701C700FD8A8
:100A200000000000000000000000000000000000C6
:100A30000FE01C701C701FF01C001C701C700FE07D
:100A4000000000000000000003E0077007700700CE
:100A500007001FE01FE007000700070007001FC096
:100A60000000000000000000000000000000000086
:100A70000FD81C701C701C701C700FF007F00070F9
:100A80001C700FE0000000001E000E000E000E00A3
:100A90000EF00F380F380E380E380E380E381E385C
:100AA000000000000000000001C001C001C0000003
:100AB0000FC001C001C001C001C001C001C00FF8DA
:100AC00000000000000000000070007000700000D6
:100AD00003F00070007000700070007000701C70F7
:100AE0000CF007E0000000001E000E000E000E00DB
:100AF0000E380E700EE00FC00EE00E700E381E386D
:100B000000000000000000000FC001C001C001C0D3
:100B100001C001C001C001C001C001C001C00FF887
:100B200000000000000000000000000000000000C5
:100B30001FF81C9C1C9C1C9C1C9C1C9C1C9C1C9C96
:100B400000000000000000000000000000000000A5
:100B50001FE01C701C701C701C701C701C701C70C2
:100B60000000000000000000000000000000000085
:100B70000FE01C701C701C701C701C701C700FE04F
:100B80000000000000000000000000000000000065
:100B90001BF00E380E380E380E380E380FF00E00DF
:100BA0000E001F0000000000000000000000000018
:100BB0001FB038E038E038E038E038E01FE000E00F
:100BC00000E001F000000000000000000000000054
:100BD0001EF00FF80F380E000E000E000E001F0062
:100BE0000000000000000000000000000000000005
:100BF0000FE01C301C300F8003E0187018700FE0FD
:100C000000000000000000000000010003000700D9
:100C10001FF007000700070007000770077003E0D8
:100C200000000000000000000000000000000000C4
:100C30001C701C701C701C701C701C701C700FD8F9
:100C400000000000000000000000000000000000A4
:100C50001C701C701C701C701C700EE007C00380A0
:100C60000000000000000000000000000000000084
:100C70001C1C1C1C1C1C1C9C1C9C0FF80770077067
:100C80000000000000000000000000000000000064
:100C90001CE01CE00FC0078007800FC01CE01CE0B8
:100CA0000000000000000000000000000000000044
:100CB0000E380E380E380E380E3807F003E000E01C
:100CC00001C01F80000000000000000000000000C4
:100CD0001FE018E011C0038007000E201C601FE019
:100CE000000000000000000001F803800380038082
:100CF00007001C001C00070003800380038001F82C
:100D000000000000000001C001C001C001C001C01E
:100D100001C001C001C001C001C001C001C001C0CB
:100D200001C00000000000001F8001C001C001C020
:100D300000E00038003800E001C001C001C01F80A1
:100D400000000000000000001F1C3B9C39DC38F84C
:100D50000000000000000000000000000000000093
:100D600000000000080C205F0000000000000000F0
:100D70000000000000002020202020200020000093
:100D8000002850500000000000000000000028284B
:100D9000FC2850FC50500000002078A8A0603028AB
:100DA000A8F02000000048A8B050283454480000A3
:100DB000000020505078A8A8906C000000404080AF
:100DC00000000000000000000004081010101010C7
:100DD00010080400004020101010101010204000D7
:100DE00000000020A87070A8200000000000202053
:100DF00020F820202000000000000000000000007B
:100E0000004040800000000000F8000000000000EA
:100E1000000000000000000000400000000810106A
:100E2000102020404040800000007088888888881A
:100E3000887000000000206020202020207000002A
:100E4000000070888810204080F800000000708842
:100E5000083008088870000000001030505090786A
:100E6000101800000000F88080F00808887000006A
:100E70000000709080F08888887000000000F89072
:100E800010202020202000000000708888708888B2
:100E9000887000000000708888887808487000001A
:100EA0000000000020000000002000000000000002
:100EB0000020000000202000000408102040201026
:100EC0000804000000000000F80000F80000000026
:100ED0000040201008040810204000000000708826
:100EE00088102020002000000000708898A8A8B872
:100EF00080780000000020203050507848CC00005E
:100F00000000F0484870484848F000000000788829
:100F100080808080887000000000F0484848484881
:100F200048F000000000F8485070504048F80000B9
:100F30000000F8485070504040E000000000384881
:100F400080809C88483000000000CC4848784848A1
:100F500048CC00000000F8202020202020F80000CD
:100F600000007C10101010101090E0000000EC4801
:100F70005060505048EC00000000E04040404040CD
:100F800044FC00000000D8D8D8D8A8A8A8A8000021
:100F90000000DC486868585848E800000000708885
:100FA00088888888887000000000F04848704040B9
:100FB00040E0000000007088888888E89870180079
:100FC0000000F0484870504848EC00000000788865
:100FD0008060100888F000000000F8A82020202081
:100FE000207000000000CC484848484848300000C5
:100FF0000000CC4848505030202000000000A8A835
:10100000A8705050505000000000D8505020205080
:1010100050D800000000D850502020202070000040
:101020000000F8901020204048F8000000382020F0
:101030002020202020203800004040402020101098
:101040001008000000701010101010101010700028
:101050000020500000000000000000000000000020
:1010600000000000000000FC002000000000000064
:10107000000000000000000000304838483C00003C
:101080000000C04040704848487000000000000068
:101090000038484040380000000018080838484828
:1010A000483C000000000000003048784038000054
:1010B00000001C2020782020207800000000000084
:1010C000003C4830407844380000C04040704848F8
:1010D00048EC00000000200000602020207000008C
:1010E0000000100000301010101010E00000C04090
:1010F000405C507048EC00000000E02020202020E0
:1011000020F800000000000000F0A8A8A8A8000037
:101110000000000000F0484848EC0000000000001B
:1011200000304848483000000000000000F0484807
:10113000487040E000000000003848484838081C6B
:101140000000000000D8604040E000000000000007
:101150000078403008780000000000202070202037
:10116000201800000000000000D84848483C00005B
:101170000000000000EC485030200000000000009B
:1011800000A8A870505000000000000000D85020B7
:1011900050D800000000000000EC4850302020C073
:1011A00000000000007810202078000000181010C7
:1011B0001020101010101800101010101010101027
:1011C000101010100060202020102020202060002F
:1011D00040A41800000000000000000000000A0BFE
:1011E00002090C0D0E0807030401000000000000B6
:1011F00000000000000000000000000000000000EF
:1012000000000000000000001211100000000000AB
:1012100000000000000000000000000000000000CE
:1012200000000102102020080810204010204080FB
:10123000020102010804020101020408102040809A
:101240008040201008040201800402018040201028
:101250000804020108040201010204081020408071
:10126000010204081020408005050505070508084F
:101270000808020202020A0A080804040404010120
:101280000101010101010303030303030303040735
:1012900007070C0C0C0C0C0C0C0C020202020606CC
:1012A0000606060606060B0B0B0B0B0B0B0B0000C2
:1012B0002200250028002B002E00310034000201FE
:1012C0000000050108010B01000021002400270097
:1012D0002A002D0030003300010100000401070145
:1012E0000A01E30AD02BF90B11241FBECFEFD1E284
:1012F000DEBFCDBF00E00CBF13E0A0E0B2E0E0E94C
:10130000F5E600E00BBF02C007900D92A435B107CF
:10131000D9F725E0A4E5B3E001C01D92AE3FB207C6
:10132000E1F719E0C3E7D9E000E006C02197010921
:10133000802FFE010E948530C137D10780E0080769
:10134000A9F70E94FE2B0C94B7320C940000CF93A7
:10135000DF93EC0155D01E8A80E090E0ACE5B3E469
:101360008F8B988FA98FBA8F1B8E80E090E0A0E8BA
:10137000B0E48C8F9D8FAE8FBF8F18A280E090E875
:10138000ABE3B6E489A39AA3ABA3BCA388E28DA385
:101390001EA21FA218A619A61AA680E090E0A8E433
:1013A000B3E48BA79CA7ADA7BEA784EB8FA780E073
:1013B00090E0AAE7B3E488AB99ABAAABBBAB1CAA9D
:1013C0001DAA1EAA1FAA18AE8FEF89AF1AAE1BAEB8
:1013D000DF91CF910895825B9F4FFC017183608301
:1013E0000895825B9F4FDC01ED91FC914181528118
:1013F0006381748122E030E084E595E00C94732DE4
:101400000895FC01108280E090E0ACE5B3E48183B4
:101410009283A383B483158280E090E0A0E8B0E4D7
:1014200086839783A087B187128680E090E8ABE33C
:10143000B6E483879487A587B68788E28787108A72
:10144000118A128A138A148A80E090E0A8E4B3E437
:10145000858B968BA78BB08F84EB818F80E090E09B
:10146000AAE7B3E4828F938FA48FB58F168E178E61
:1014700010A211A212A28FEF83A314A215A20895A5
:101480000F931F93CF93DF93E80149815A816B81BA
:101490007C8122E030E084E595E00E94732D80E0BD
:1014A00090E0ACEDB3E489839A83AB83BC83DF9196
:1014B000CF911F910F91089508950895CF93DF93D1
:1014C000EC01E3D6CE01C1969CDFCE01815A9F4F3D
:1014D0000E942A28CE0183579F4FDF91CF91D5C616
:1014E0008F929F92AF92BF92CF92DF92EF92FF9234
:1014F0000F931F93CF93DF93EC015C018EEBA80E4B
:10150000B11CD5016D937C9381E390E00E940A2C7D
:101510004C01C12CD12C89E2E82EF12C08E210E01C
:1015200027E230E046E250E065E1C401AFD67E013B
:10153000BDE8EB0EF11C81E3F401D70101900D929F
:101540008A95E1F761E0C7010E949514D501ED91FC
:10155000FC91E25BFF4F00811181C054DF4F20E816
:1015600031E044E65DE0B7018881998189DFC701F8
:101570000E948E27888199819FDF88819981DF91E0
:10158000CF911F910F91FF90EF90DF90CF90BF9080
:10159000AF909F908F9091CF26E040E052EC61E0B9
:1015A00070E084E595E00E94052B68E674E088E130
:1015B00094E011DF68E174E084E593E091DF88E175
:1015C00094E00FCF0895CF93DF9366EA72E086E34D
:1015D00095E00E94B32F6BEA72E08CE395E00E94E5
:1015E000B32F60EB72E082E495E00E94B32F65EBCD
:1015F00072E088E495E00E94B32F68EB72E08EE41D
:1016000095E00E94B32F6EEB72E08EE195E00E94B0
:10161000B32F64EC72E084E295E00E94B32F6AEC91
:1016200072E08AE295E00E94B32F64EC72E080E3FE
:1016300095E00E94B32F6FEC72E086E095E00E9487
:10164000B32F64EC72E08CE095E00E94B32F65ED5F
:1016500072E082E195E00E94B32F6AED72E088E1CA
:1016600095E00E94B32F6FED72E08EEE94E00E9441
:10167000B32F64EE72E084EF94E00E94B32F69EE22
:1016800072E08AEF94E00E94B32F6EEE72E080E089
:1016900095E00E94B32F6FEC72E086ED94E00E941B
:1016A000B32F63EF72E08CED94E00E94B32F68EFEC
:1016B00072E082EE94E00E94B32F6AEC72E088EE52
:1016C00094E00E94B32F6FEF72E08EEB94E00E94E3
:1016D000B32F64E073E084EC94E00E94B32F68E0E1
:1016E00073E08AEC94E00E94B32F6CE073E080ED2D
:1016F00094E00E94B32F60E173E08EE894E00E94D2
:10170000B32FC0E0D0E0269667E473E0CE018257A5
:101710009B4F0E94B32FCA32D105A9F710926804DB
:1017200080E090E0ACE5B3E48093690490936A04B0
:10173000A0936B04B0936C0410926D0480E090E071
:10174000A0E8B0E480936E0490936F04A0937004BB
:10175000B09371041092720480E090E8ABE3B6E4B9
:101760008093730490937404A0937504B0937604EB
:1017700088E2809377041092780410927904109292
:101780007A0410927B0410927C0480E090E0A8E43C
:10179000B3E480937D0490937E04A0937F04B09380
:1017A000800484EB8093810480E090E0AAE7B3E4B6
:1017B0008093820490938304A0938404B09385045F
:1017C0001092860410928704109288041092890463
:1017D00010928A048FEF80938B0410928C041092E5
:1017E0008D0488E194E0B3DD84E593E0DF91CF914F
:1017F00065CECF93DF93CEEBD4E02697CE010E9447
:101800004C2F84E0CE38D807C1F780ED94E00E94D9
:101810004C2F8AEC94E00E944C2F84EC94E00E94C0
:101820004C2F8EEB94E00E944C2F88EE94E00E94A7
:101830004C2F82EE94E00E944C2F8CED94E00E949D
:101840004C2F86ED94E00E944C2F80E095E00E94A2
:101850004C2F8AEF94E00E944C2F84EF94E00E947A
:101860004C2F8EEE94E00E944C2F88E195E00E9470
:101870004C2F82E195E00E944C2F8CE095E00E9475
:101880004C2F86E095E00E944C2F80E395E00E946B
:101890004C2F8AE295E00E944C2F84E295E00E9452
:1018A0004C2F8EE195E00E944C2FC4E5D5E02697A1
:1018B000CE010E944C2F85E0C633D807C1F7DF91D7
:1018C000CF910895FC01283009F4EEC018F42130BE
:1018D00041F00895203109F4F7C0213109F402C123
:1018E000089587858430C1F4A08DB18D82A19C912B
:1018F000613011F4892B02C0809589238C93A28DCD
:10190000B38D9C9183A1809589238C93A28DB38DF7
:101910009C9183A1892B08C0A089B189868D9C9157
:101920006130C1F3809589238C93A08DB18D82A104
:101930009C9147FF02C0892B02C0809589238C931C
:10194000A28DB38D9C9183A1809589238C93A28DC8
:10195000B38D9C9183A1892B8C93A08DB18D82A195
:101960009C9146FF02C0892B02C0809589238C93ED
:10197000A28DB38D9C9183A1809589238C93A28D98
:10198000B38D9C9183A1892B8C93A08DB18D82A165
:101990009C9145FF02C0892B02C0809589238C93BE
:1019A000A28DB38D9C9183A1809589238C93A28D68
:1019B000B38D9C9183A1892B8C93A08DB18D82A135
:1019C0009C9144FF02C0892B02C0809589238C938F
:1019D000A28DB38D9C9183A1809589238C93A28D38
:1019E000B38D9C9183A1892B8C93A08DB18D82A105
:1019F0009C9143FF02C0892B02C0809589238C9360
:101A0000A28DB38D9C9183A1809589238C93A28D07
:101A1000B38D9C9183A1892B8C93A08DB18D82A1D4
:101A20009C9142FF02C0892B02C0809589238C9330
:101A3000A28DB38D9C9183A1809589238C93A28DD7
:101A4000B38D9C9183A1892B8C93A08DB18D82A1A4
:101A50009C9141FF02C0892B02C0809589238C9301
:101A6000A28DB38D9C9183A1809589238C93A28DA7
:101A7000B38D9C9183A1892B8C93A08DB18D82A174
:101A80009C9140FF02C0892B02C0809589238C93D2
:101A9000A28DB38D9C9183A1809589238C93A28D77
:101AA000B38D9C9183A1A2C062B9A289B3899C9194
:101AB000878D809589238C93A289B3899C91878D8A
:101AC000892B8C9342B902C062B948B9A289B38903
:101AD0009C91878D809589238C93A289B3899C9151
:101AE000878D84C0A59894B3862F8071880F892B29
:101AF00084BB80910201877E809302019091020154
:101B0000862F807C869586958695892B8093020109
:101B10008EB1847C8EB99EB1262F2C70220F220F9D
:101B2000862F8370280F862F8072682F70E075953E
:101B3000679575956795620F692B6EB9A48DB58D04
:101B40009C9184A1809589238C93A48DB58D9C91C3
:101B500084A1892B8C93A48DB58D9C9184A18095B3
:101B600089238C93A489B5899C9180A18095892330
:101B70008C93A59894B3842F8071880F892B84BB94
:101B800080910201877E8093020190910201842F4F
:101B9000807C869586958695892B809302018EB1EF
:101BA000847C8EB99EB1242F2C70220F220F842F9B
:101BB0008370280F842F8072482F50E055954795E9
:101BC00055954795420F492B4EB9A289B3899C91EF
:101BD000878D809589238C93A289B3899C91878D69
:101BE000892B8C93A489B5899C9180A1892B8C9396
:101BF0000895613131F08FEF81B9603149F487B9CF
:101C0000089588E18093010180E283BB8BE38DB965
:101C100008958F929F92AF92BF92CF92DF92EF92F0
:101C2000FF920F931F93CF93DF93EC01680179012B
:101C300062B948B9C901B80120E130E040E050E0A4
:101C40000E94693049015A0180E090E0DC0188156A
:101C50009905AA05BB050CF0D4C0EA89FB8930813F
:101C60002F8D209523232083EA89FB8930812F8DB6
:101C7000232B2083EA89FB8930812F8D2095232314
:101C80002083EA89FB8930812F8D232B2083EA89E9
:101C9000FB8930812F8D209523232083EA89FB89BE
:101CA00030812F8D232B2083EA89FB8930812F8D72
:101CB000209523232083EA89FB8930812F8D232BD4
:101CC0002083EA89FB8930812F8D2095232320836F
:101CD000EA89FB8930812F8D232B2083EA89FB89B8
:101CE00030812F8D209523232083EA89FB89308141
:101CF0002F8D232B2083EA89FB8930812F8D20951E
:101D000023232083EA89FB8930812F8D232B208395
:101D1000EA89FB8930812F8D209523232083EA894E
:101D2000FB8930812F8D232B2083EA89FB89308129
:101D30002F8D209523232083EA89FB8930812F8DE5
:101D4000232B2083EA89FB8930812F8D2095232343
:101D50002083EA89FB8930812F8D232B2083EA8918
:101D6000FB8930812F8D209523232083EA89FB89ED
:101D700030812F8D232B2083EA89FB8930812F8DA1
:101D8000209523232083EA89FB8930812F8D232B03
:101D90002083EA89FB8930812F8D2095232320839E
:101DA000EA89FB8930812F8D232B2083EA89FB89E7
:101DB00030812F8D209523232083EA89FB89308170
:101DC0002F8D232B2083EA89FB8930812F8D20954D
:101DD00023232083EA89FB8930812F8D232B2083C5
:101DE000EA89FB8940813F8D309534233083EA892D
:101DF000FB8920813F8D322B30830196A11DB11DBF
:101E000026CFD701C6018F709927AA27BB27892B18
:101E10008A2B8B2B19F1C701B60120E130E040E09D
:101E200050E00E946930C12CD12C76016C157D05E3
:101E30008E059F059CF0EA89FB8930812F8D2095C6
:101E400023232083EA89FB8930812F8D232B208354
:101E50002FEFC21AD20AE20AF20AE8CFDF91CF913D
:101E60001F910F91FF90EF90DF90CF90BF90AF90B8
:101E70009F908F9008958F929F92AF92BF92CF9232
:101E8000DF92EF92FF92CF93DF93EC0169017A0129
:101E900062B9CA01B90120E130E040E050E00E949F
:101EA000693049015A0180E090E0DC01881599050C
:101EB000AA05BB050CF0A4C1EA89FB8930812F8DEE
:101EC000209523232083EA89FB8930812F8D232BC2
:101ED0002083EA89FB8930812F8D2095232320835D
:101EE000EA89FB8930812F8D232B2083EA89FB89A6
:101EF00030812F8D209523232083EA89FB8930812F
:101F00002F8D232B2083EA89FB8930812F8D20950B
:101F100023232083EA89FB8930812F8D232B208383
:101F2000EA89FB8930812F8D209523232083EA893C
:101F3000FB8930812F8D232B2083EA89FB89308117
:101F40002F8D209523232083EA89FB8930812F8DD3
:101F5000232B2083EA89FB8930812F8D2095232331
:101F60002083EA89FB8930812F8D232B2083EA8906
:101F7000FB8930812F8D209523232083EA89FB89DB
:101F800030812F8D232B2083EA89FB8930812F8D8F
:101F9000209523232083EA89FB8930812F8D232BF1
:101FA0002083EA89FB8930812F8D2095232320838C
:101FB000EA89FB8930812F8D232B2083EA89FB89D5
:101FC00030812F8D209523232083EA89FB8930815E
:101FD0002F8D232B2083EA89FB8930812F8D20953B
:101FE00023232083EA89FB8930812F8D232B2083B3
:101FF000EA89FB8930812F8D209523232083EA896C
:10200000FB8930812F8D232B2083EA89FB89308146
:102010002F8D209523232083EA89FB8930812F8D02
:10202000232B2083EA89FB8930812F8D2095232360
:102030002083EA89FB8930812F8D232B2083EA8935
:10204000FB8930812F8D209523232083EA89FB890A
:1020500030812F8D232B2083EA89FB8930812F8DBE
:10206000209523232083EA89FB8930812F8D232B20
:102070002083EA89FB8930812F8D209523232083BB
:10208000EA89FB8930812F8D232B2083EA89FB8904
:1020900030812F8D209523232083EA89FB8930818D
:1020A0002F8D232B2083EA89FB8930812F8D20956A
:1020B00023232083EA89FB8930812F8D232B2083E2
:1020C000EA89FB8930812F8D209523232083EA899B
:1020D000FB8930812F8D232B2083EA89FB89308176
:1020E0002F8D209523232083EA89FB8930812F8D32
:1020F000232B2083EA89FB8930812F8D2095232390
:102100002083EA89FB8930812F8D232B2083EA8964
:10211000FB8930812F8D209523232083EA89FB8939
:1021200030812F8D232B2083EA89FB8930812F8DED
:10213000209523232083EA89FB8930812F8D232B4F
:102140002083EA89FB8930812F8D209523232083EA
:10215000EA89FB8930812F8D232B2083EA89FB8933
:1021600030812F8D209523232083EA89FB893081BC
:102170002F8D232B2083EA89FB8930812F8D209599
:1021800023232083EA89FB8930812F8D232B208311
:10219000EA89FB8930812F8D209523232083EA89CA
:1021A000FB8930812F8D232B2083EA89FB893081A5
:1021B0002F8D209523232083EA89FB8930812F8D61
:1021C000232B2083EA89FB8930812F8D20952323BF
:1021D0002083EA89FB8930812F8D232B2083EA8994
:1021E000FB8940813F8D309534233083EA89FB8918
:1021F00020813F8D322B30830196A11DB11D56CE1B
:10220000D701C6018F709927AA27BB27892B8A2B54
:102210008B2B81F1C701B60120E130E040E050E0B6
:102220000E946930C12CD12C76016C157D058E057C
:102230009F0504F1EA89FB8930812F8D20952323A6
:102240002083EA89FB8930812F8D232B2083EA8923
:10225000FB8930812F8D209523232083EA89FB89F8
:1022600030812F8D232B20832FEFC21AD20AE20A4E
:10227000F20ADBCFDF91CF91FF90EF90DF90CF900C
:10228000BF90AF909F908F90089508954F925F9266
:102290006F927F928F929F92AF92BF92CF92DF9276
:1022A000EF92FF920F931F93CF93DF93CDB7DEB7DB
:1022B000C05AD1090FB6F894DEBF0FBECDBF70E48F
:1022C000E6E0F2E0DE01AF5BBF4F01900D927A9540
:1022D000E1F770E4E6E4F2E0DE01119601900D9280
:1022E0007A95E1F770E2E6E8F2E0DE01AF57BF4F22
:1022F00001900D927A95E1F7E62FF0E05F01AA0CCC
:10230000BB1CA1E4B0E0AC0FBD1FAA0DBB1D0D901E
:10231000BC91A02D2D01612C712CDC0115964D92E4
:102320005D926D927C921897A1E0B0E0AC0FBD1F5A
:10233000AA0DBB1D0D90BC91A02D4D01A12CB12C5F
:10234000DC0119968D929D92AD92BC921C97A1E8EA
:10235000B0E0AC0FBD1FEA0FFB1F7081FC01768758
:10236000658745A326A307A3E0A6C1A6743019F488
:1023700061E066877787DC011E966C911E97653059
:1023800031F471E01E967C931E971F966C93FC01AE
:102390006685613009F498C049013A015C0129DC85
:1023A000F301E859FD4EE491F0E0EE0FFF1FE25516
:1023B000FD4E25913491D50151963C932E93509723
:1023C000F301EE5DFD4EE4915E96EC935E97F401B1
:1023D000E859FD4EE491F0E0EE0FFF1FE255FD4E8F
:1023E00025913491F501338B228BF401EE5DFD4E86
:1023F000E4915F96EC935F97C801F801E859FD4EB0
:10240000E491F0E0EE0FFF1FE255FD4E259134916F
:10241000F501358B248BFC01EE5DFD4EE491909629
:10242000EC939097F701E859FD4EE491F0E0EE0F40
:10243000FF1FE255FD4E85919491F501978B868B98
:10244000F701EE5DFD4EE4909196EC9291971E9609
:102450008C91813109F0ADC0F601E859FD4EE4914F
:10246000F0E0EE0FFF1FE255FD4EA591B491F5018E
:10247000B58FA48FF601EE5DFD4E9491F50194A306
:102480008C91E92FE095E823EC9361E088E00E94CD
:10249000E22E60E088E0C056DF4F0FB6F894DEBF52
:1024A0000FBECDBFDF91CF911F910F91FF90EF90A5
:1024B000DF90CF90BF90AF909F908F907F906F9064
:1024C0005F904F900C941E2FBA01FA01E859FD4E0F
:1024D000E491F0E0EE0FFF1FE255FD4E459154915F
:1024E000DC0159965C934E935897FB01EE5DFD4ECF
:1024F000E4919296EC939297A901F901E859FD4E67
:10250000E491F0E0EE0FFF1FE255FD4E259134916E
:10251000FC01338F228FFA01EE5DFD4EE49193961C
:10252000EC939397F801E859FD4EE491F0E0EE0F3B
:10253000FF1FE255FD4E45915491FC01558B448B94
:10254000F801EE5DFD4EE4919096EC93BFEFEB1633
:10255000F104A9F0F701E859FD4EE491F0E0EE0F27
:10256000FF1FE255FD4E25913491FC01378B268BE0
:10257000F701EE5DFD4EE490DC019196EC92FC01DA
:1025800027852430B1F0F601E859FD4EE491F0E0E2
:10259000EE0FFF1FE255FD4E45915491DC0151961F
:1025A0005C934E935097F601EE5DFD4EE4915E967E
:1025B000EC93C056DF4F0FB6F894DEBF0FBECDBF11
:1025C000DF91CF911F910F91FF90EF90DF90CF900F
:1025D000BF90AF909F908F907F906F905F904F9043
:1025E0000895462FDC011E962C911E97213071F024
:1025F0005096ED91FC91519730815E962C915E97AB
:102600002095232320831E962C9101C021E060E0B9
:1026100059C91F93CF93DF93DC011E962C911E970F
:10262000213069F05096ED91FC91519730815E9682
:102630002C915E97232B20831E962C910AC0142F79
:10264000462FEC0121E061E03DD92E85412F61E06C
:10265000CE01DF91CF911F9135C9462FDC011E9627
:102660002C911E97213071F05096ED91FC9151976D
:1026700030815E962C915E97232B20831E962C91A1
:1026800060E002C021E061E01DC90F931F93CF936A
:10269000DF93EC018A01A5DF402F612FCE01DF918E
:1026A000CF911F910F91B5CFAF92BF92CF92DF9292
:1026B000EF92FF920F931F93CF93DF93EC016B0187
:1026C000B42EA52E79018C81813069F489859A8593
:1026D0009C01261B370B8E199F0978018901C42E96
:1026E000D52EB82EA92EED858E2F90E0FC013297C5
:1026F000EE31F10508F00EC18827EE58FF4F8F4FDD
:102700000C9485304D2D50E062E0CE01BEDFA60175
:1027100063E0CE01BADF4F2D50E064E0CE01B5DFBB
:10272000A70165E0CE01B1DF4A2D50E066E0CE01A1
:10273000ACDF4B2D5A2D67E0CE01A7DF412F50E0D3
:1027400052C05E2D44274C0D5D1D64E4CE019DDF1B
:102750004B2D5A2D65E4CE0198DFA80166E4CE0129
:1027600094DFA6016EE4CE0190DF4B2D5A2D6FE46D
:10277000CE018BDF62E2C2C0A60160E2CE0185DF3E
:102780004B2D5A2D61E2CE0180DFA60160E5CE011E
:102790007CDF4B2D5A2D62E5CE0177DFA70161E585
:1027A000CE0173DFA80163E5E3CF40E050E062E0D3
:1027B000CE016BDFA60163E0CE0167DF40E050E0B1
:1027C00064E0CE0162DFA70165E0CE015EDF40E09C
:1027D00050E066E0CE0159DF4B2D5A2D67E0CE0167
:1027E00054DF40E050E068E0CE014FDFA80169E02F
:1027F000BFCF6AE2CE01F5DE6C2DCE012EDF6E2D4D
:10280000CE012BDF6BE2CE01ECDE6B2D71C06AE2F4
:10281000CE01E7DE6A2DCE0120DF6B2DCE011DDF5C
:10282000612FCE011ADF602FCE0117DF6BE2CE01E0
:10283000D8DE6D2DCE0111DF6C2DCE010EDF6F2D98
:10284000CE010BDF6E2D57C05E2D44274C295D292C
:1028500066E4CE011ADFA80167E4CE0116DF4B2D36
:102860005A2D68E40FC0A70166E3CE010EDFA60172
:1028700067E3CE010ADFA80168E3CE0106DF4B2D36
:102880005A2D69E3CE0101DFA60160E2CE01FDDE33
:102890004B2D5A2D61E26CCF4B2D5A2D62E0CE01AB
:1028A000F4DEA60163E0CE01F0DEA80166E0CE0111
:1028B000ECDEA70167E0CE01E8DE6FE01FC06AE250
:1028C000CE018FDE6D2DCE01C8DE6C2DCE01C5DEB2
:1028D0006F2DCE01C2DE6E2DCE01BFDE6BE2CE01CA
:1028E00080DE6A2DCE01B9DE6B2DCE01B6DE612F02
:1028F000CE01B3DE602FCE01B0DE6CE2CE01DF91FF
:10290000CF911F910F91FF90EF90DF90CF90BF90EC
:10291000AF9067CEDF91CF911F910F91FF90EF9015
:10292000DF90CF90BF90AF9008950F931F93CF93F8
:10293000DF93EC016C8361E08DA10E94E22E61E0E7
:102940008EA10E94E22E61E08FA10E94E22E88A556
:102950008F3F19F061E00E94E22E8E85813129F0CF
:10296000813039F48F85853021F461E089A50E949A
:10297000E22E6E85613011F0CE013BD9EE89FF89E0
:10298000908189A1892B808365E070E080E090E0F0
:102990000E94F22DEE89FF89908189A1809589237B
:1029A00080836FE070E080E090E00E94F22DEE897D
:1029B000FF89908189A1892B80836FE070E080E09E
:1029C00090E00E94F22DEC89FD89908188A180958C
:1029D00089238083ED858E2F90E0FC013297EE31C4
:1029E000F10510F00C9464278827E057FF4F8F4FB4
:1029F0000C94853041E050E060E0CE0146DE44EAD0
:102A000058EA63E0CE0141DE40E050E06CE0CE01E8
:102A10003CDE4CE058E06DE0CE0137DE40E05BE2AA
:102A20006EE0CE0132DE47EB50E06EE1CE012DDEEE
:102A30004FE35BE261E0CE0128DE40E056E062E079
:102A4000CE0123DE40E050E060E1CE011EDE40E733
:102A500050E661E1CE0119DE40E050E065E0CE01D4
:102A600014DE40E050E066E0CE010FDE4CE15FEEA8
:102A700066E1CE010ADE43E050E067E1CE0105DE0B
:102A800043E352E067E0CE0100DE40E050E06BE05F
:102A9000CE01FBDD40E050E06FE0CE01F6DD40E02E
:102AA00050E061E4CE01F1DD40E050E062E4CE01AF
:102AB000ECDD40E050E068E4CE01E7DD4FE351E0BB
:102AC00069E4CE01E2DD40E050E06AE4CE01DDDD04
:102AD00040E050E06BE4CE01D8DD40E05FEE64E41E
:102AE000CE01D3DD40E050E065E4CE01CEDD4FE322
:102AF00051E066E4CE01C9DD47E057E060E3CE0176
:102B0000C4DD44E052E061E3CE01BFDD44E052E0C9
:102B100062E3CE01BADD42E055E063E3CE01B5DD0C
:102B200047E055E064E3CE01B0DD44E052E065E308
:102B3000CE01ABDD44E052E066E3CE01A6DD42E02B
:102B400055E067E3CE01A1DD42E053E06AE3CE0148
:102B50009CDD42E053E06BE3CE0197DD40E050E0C6
:102B600063E2CE0192DD40E050E064E2CE018DDD13
:102B700040E050E865E2CE0188DD40E050E06FE4DF
:102B8000CE0183DD40E050E06EE40C94002140EF84
:102B900058E765EECE0179DD40E051E061E0CE011D
:102BA00074DD40E052E062E0CE016FDD40E350E1D1
:102BB00063E0CE016ADD40E050E064E0CE0165DD17
:102BC00047E052E068E0CE0160DD40E050E069E0BF
:102BD000CE015BDD40E050E06AE0CE0156DD40E032
:102BE00050E06CE0CE0151DD40E050E06DE0CE0100
:102BF0004CDD40E050E06FE0CE0147DD40E050E0CA
:102C000060E1CE0142DD47E050E061E1CE013DDD13
:102C100040E050E062E1CE0138DD40E050E063E1A9
:102C2000CE0133DD41E050E067E0CE012EDD68ECFF
:102C300070E080E090E00E94F22D40E956E160E112
:102C4000CE0123DD47E252E061E1CE011EDD62E309
:102C500070E080E090E00E94F22D4DE050E062E1F3
:102C6000CE0113DD62E370E080E090E00E94F22D7F
:102C700040E052E163E1CE0108DD4AE050E069E264
:102C8000CE0103DD4DE050E07DC040EF58E765EE3A
:102C9000CE01FBDC40E051E061E0CE01F6DC40E03B
:102CA00057E062E0CE01F1DC40E350E163E0CE01A9
:102CB000ECDC40E050E064E0CE01E7DC47E052E0CD
:102CC00068E0CE01E2DC40E050E069E0CE01DDDC0E
:102CD00040E050E06AE0CE01D8DC40E050E06CE03B
:102CE000CE01D3DC40E050E06DE0CE01CEDC40E030
:102CF00050E06FE0CE01C9DC40E050E060E1CE0181
:102D0000C4DC47E050E061E1CE01BFDC40E050E0D0
:102D100062E1CE01BADC40E050E063E1CE01B5DC17
:102D200041E050E067E0CE01B0DC68EC70E080E0AC
:102D300090E00E94F22D40E955E160E1CE01A5DC72
:102D400047E252E061E1CE01A0DC62E370E080E0A6
:102D500090E00E94F22D4CE950E062E1CE0195DC5A
:102D600062E370E080E090E00E94F22D40E059E1E3
:102D700063E1CE018ADC43E250E069E2CE0185DC0A
:102D80004EE050E06BE2CE0180DC62E370E080E078
:102D900090E00E94F22D40E050E060E2CE0175DC50
:102DA00040E050E061E2CE0170DC40E050E060E3E2
:102DB000CE016BDC44E054E061E3CE0166DC43E02D
:102DC00050E062E3CE0161DC45E054E065E3CE0112
:102DD0005CDC48E058E066E3CE0157DC47E054E0B5
:102DE00067E3CE0152DC43E053E068E3CE014DDC03
:102DF00047E057E069E3CE0148DC44E055E06CE38E
:102E0000CE0143DC48E058E06DE3CE013EDC40E01B
:102E100050E060E5CE0139DC4FEE50E061E5CE01D7
:102E200034DC40E050E062E5CE012FDC4FE351E0BE
:102E300063E5CE012ADC40E057EA60E6CE0125DCFE
:102E400041E050E061E6CE0120DC40E050E06AE67F
:102E5000CE011BDC40E050E060E8CE0116DC40E033
:102E600050E061E8CE0111DC40E050E062E8CE01C4
:102E70000CDC40E050E063E8CE0107DC40E050E0CD
:102E800064E8CE0102DC40E050E065E8CE01FDDB05
:102E900040E150E060E9CE01F8DB40E050E062E95B
:102EA000CE01F3DB43E351E067E0CE01EEDB0C94AF
:102EB000642744E850E066E2CE01E7DB68E270E0B8
:102EC00080E090E00E94F22D48EB50E066E2CE01F7
:102ED000DCDB68E270E080E090E00E94F22D4CEBD9
:102EE00050E066E2CE01D1DB64E170E080E090E08A
:102EF0000E94F22D40E050E060E6CE01C6DB46E0E5
:102F000050E061E6CE01C1DB40E050E062E6CE0178
:102F1000BCDB48EC50E063E6CE01B7DB64E170E077
:102F200080E090E00E94F22D40E750E063E7CE01A0
:102F3000ACDB40E050E060E4CE01A7DB40E450E0D1
:102F400061E4CE01A2DB45E450E062E4CE019DDB0A
:102F500041E050E063E4CE0198DB40E650E064E4F9
:102F6000CE0193DB45E050E065E4CE018EDB4CE022
:102F700050E066E4CE0189DB41ED50E067E4CE012C
:102F800084DB45E050E068E4CE017FDB45E750E0BC
:102F900060E5CE017ADB41E050E061E5CE0175DB12
:102FA00047E650E062E5CE0170DB44E150E063E5C6
:102FB000CE016BDB42EF50E064E5CE0166DB47E01B
:102FC00050E065E5CE0161DB43E050E066E5CE010F
:102FD0005CDB49E450E067E5CE0157DB64E170E07B
:102FE00080E090E00E94F22D43E050E06FE1CE01DE
:102FF0004CDB40E050E060E2CE0147DB44E250E0D1
:1030000064E2CE0142DB44E350E065E2CE013DDB09
:103010004FE250E063E2CE0138DB64E170E080E033
:1030200090E00E94F22D44E450E068E1CE012DDBF7
:1030300041E050E061E2CE0128DB40E050E061E099
:10304000CE0123DB43E050E06CE1CE011EDB46E025
:1030500050E069E1CE0119DB64E170E080E090E0CE
:103060000E94F22D44E850E066E2CE010EDB68E2F9
:1030700070E080E090E00E94F22D48EB50E066E2C4
:10308000CE0103DB68E270E080E090E00E94F22D68
:103090004CEB50E066E2CE01F8DA64E170E080E0EB
:1030A00090E00E94F22D40E050E062E0CE01EDDAC7
:1030B00040E050E063E0CE01E8DA40E050E064E058
:1030C000CE01E3DA4FEA50E065E0CE01DEDA40E01F
:1030D00050E066E0CE01D9DA40E050E067E0CE0192
:1030E000D4DA40E050E068E0CE01CFDA4BED50E0BA
:1030F00069E0CE01CADA64E170E080E090E00E940D
:10310000F22D48E050E066E1CE01BFDA45E050E044
:1031100067E1CE01BADA61E2CE0163DA62E2CE01A2
:1031200060DA0C94642761E1CE015BDA6CE070E058
:1031300080E090E00E94F22D61EBCE0152DA61E076
:10314000CE018BDA6CE2CE0188DA6DE2CE0185DA4F
:1031500062EBCE0146DA61E0CE017FDA6CE2CE01AD
:103160007CDA6DE2CE0179DA63EBCE013ADA61E026
:10317000CE0173DA6CE2CE0170DA6DE2CE016DDA67
:1031800061E0CE016ADA6CE2CE0167DA6DE2CE016F
:1031900064DA64EBCE0125DA67E0CE015EDA60EC3A
:1031A000CE011FDA62EACE0158DA62E0CE0155DACA
:1031B00064E8CE0152DA61ECCE0113DA65ECCE019F
:1031C0004CDA62ECCE010DDA6AE0CE0146DA60E05C
:1031D000CE0143DA63ECCE0104DA6AE8CE013DDACF
:1031E0006AE2CE013ADA64ECCE01FBD96AE8CE019C
:1031F00034DA6EEECE0131DA65ECCE01F2D96EE052
:10320000CE012BDA66E3CE01ECD968EC73C061E144
:10321000CE01E7D96CE070E080E090E00E94F22DF2
:1032200061EBCE01DED961E0CE0117DA6CE2CE01AE
:1032300014DA6DE2CE0111DA62EBCE01D2D961E08F
:10324000CE010BDA6CE2CE0108DA6DE2CE0105DACE
:1032500063EBCE01C6D961E0CE01FFD96CE2CE01AD
:10326000FCD96DE2CE01F9D961E0CE01F6D96CE26C
:10327000CE01F3D96DE2CE01F0D964EBCE01B1D924
:1032800067E0CE01EAD960ECCE01ABD962EACE01AB
:10329000E4D962E0CE01E1D964E8CE01DED961EC87
:1032A000CE019FD965ECCE01D8D962ECCE0199D977
:1032B0006AE0CE01D2D960E0CE01CFD963ECCE0175
:1032C00090D96AE8CE01C9D96AE2CE01C6D964ECC8
:1032D000CE0187D96AE8CE01C0D96EEECE01BDD944
:1032E00065ECCE017ED96EE0CE01B7D966E3CE01A2
:1032F00078D960ECCE01B1D960EECE0172D96FE021
:10330000CE01ABD96AE1CE01A8D96FE0CE01A5D933
:1033100068E1CE01A2D96FE2CE019FD968E2CE0169
:103320009CD960E2CE0199D962E2CE0196D96FE1D3
:10333000CE0193D96BE1CE0190D963E2CE018DD954
:1033400067E3CE018AD960E0CE0187D967E0CE017C
:1033500084D962E0CE0181D960E1CE017ED961EEEF
:10336000CE013FD96FE0CE0178D96BE1CE0175D99E
:103370006FE0CE0172D967E1CE016FD963E3CE0170
:103380006CD96CE2CE0169D969E2CE0166D96EE2F0
:10339000CE0163D960E3CE0160D960E3CE015DD98F
:1033A00069E3CE015AD96FE3CE0157D960E0CE016F
:1033B00054D967E0CE0151D963E0CE014ED960E126
:1033C000CE014BD96AE2CE010CD960E0CE0145D9DD
:1033D00060E0CE0142D960E0CE013FD96FE7CE0177
:1033E0003CD96BE2CE01FDD860E0CE0136D960E079
:1033F000CE0133D960E0CE0130D96FE9CE012DD9AD
:1034000060EFCE01EED861E0CE0127D966EFCE01A4
:10341000E8D860E00C94242261E0CE01E2D865E2B5
:10342000CE01DFD860E4CE0118D961E1CE01D9D850
:103430006AE070E080E090E00E94F22D60E2CE0150
:10344000D0D868E3CE01CDD869E2CE01CAD863E115
:10345000CE01C7D866E3CE01C4D860E6CE01FDD860
:103460006AE3CE01BED865E0CE01F7D86AE2CE01AC
:10347000B8D860E0CE01F1D86FE7CE01EED864EBAA
:10348000CE01AFD863E0CE01E8D868E0CE01E5D840
:103490006BE0CE01E2D86EE0CE01DFD86AEBCE0160
:1034A000A0D867E0CE01D9D86DE0CE01D6D86BE2C6
:1034B000CE0197D860E0CE01D0D86FE75EC263E856
:1034C000CE018FD862E0CE01C8D865E8CE0189D898
:1034D00063E0CE01C2D86BE8CE0183D861E0CE01B3
:1034E000BCD86CE8CE017DD863E9CE01B6D861E9DD
:1034F000CE0177D861E0CE01B0D863E8CE0171D8B3
:1035000060E0CE01AAD86EE3CE016BD860EBCE01AD
:10351000A4D86FE3CE0165D863E0CE019ED860E405
:10352000CE015FD860E1CE0198D861E4CE0159D8D0
:1035300066E5CE0192D862E4CE0153D863E1CE01B4
:103540008CD863E4CE014DD866E4CE0186D864E41D
:10355000CE0147D863E2CE0180D865E4CE0141D8E0
:1035600066E7CE017AD866E4CE013BD860E0CE01B2
:1035700074D867E4CE0135D86EE5CE016ED868E424
:10358000CE012FD86FE4CE0168D869E4CE0129D8E6
:1035900060E4CE0162D867E1CE0123D861E9CE01B3
:1035A0005CD86BE2CE011DD869EFCE0156D86AE037
:1035B00070E080E090E00E94F22D6BE1CE0111D826
:1035C00064E1CE014AD86AE1CE010BD861E1CE01B7
:1035D00044D86CE1CE0105D866E0CE013ED86FE15B
:1035E000CE010E94F11262E4CE0137D864E170E0AE
:1035F00080E090E00E94F22D69E1CE010E94F1127C
:103600006AE0CE012AD869E1CE010E94F1126AE196
:10361000CE0123D868E270E080E090E00E94F22DB5
:1036200069E1CE010E94F11262E1CE0116D868E292
:1036300070E080E090E00E94F22D6EE1CE010E94E9
:10364000F11267E2CE0109D864E670E080E090E014
:103650000E94F22D64E2CE010E94F11260E6CE01DA
:103660000E942D136DE3CE010E94F11260E4CE01A1
:103670000E942D1364E3CE010E94F11268E3CE0193
:103680000E942D1365E3CE010E94F11268E3CE0182
:103690000E942D1364E2CE010E94F11268E3CE0174
:1036A0000E942D1368E270E080E090E00E94F22D0D
:1036B00064E2CE010E94F1126CE3CE010E942D1350
:1036C00066E1CE010E94F1126CE1CE010E942D1341
:1036D00061E0CE010E94F11266E0CE010E942D133E
:1036E00065E5CE010E94F11260E0CE010E942D132B
:1036F00062E0CE010E94F11260E0CE010E942D1323
:1037000063E0CE010E94F11260E0CE010E942D1311
:1037100064E0CE010E94F11260E0CE010E942D1300
:1037200065E0CE010E94F1126FEECE010E942D13D2
:1037300066E0CE010E94F11260E0CE010E942D13DE
:1037400067E0CE010E94F11260E0CE010E942D13CD
:1037500068E0CE010E94F11261E0CE010E942D13BB
:1037600069E0CE010E94F1126FE8CE010E942D1394
:10377000D5CC62EECE010E94F11263E2CE010E942E
:103780002D1362E0CE010E942D1364E5CE010E944C
:103790002D1360EECE010E94F11261E0CE010E9475
:1037A0002D136AE070E080E090E00E94F22D60EE60
:1037B000CE010E94F11263E0CE010E942D136AE057
:1037C00070E080E090E00E94F22D61E0CE010E9466
:1037D000F11264E670E080E090E00E94F22D66EE67
:1037E000CE010E94F11261E0CE010E942D136FE123
:1037F000CE010E942D136FEFCE010E942D1360EBBE
:10380000CE010E94F11260E2CE010E942D1360E011
:10381000CE010E942D1361E0CE010E942D136FEDA9
:10382000CE010E942D1361E0CE010E942D136FE0A6
:10383000CE010E942D1360E0CE010E942D1364EB97
:10384000CE010E94F11262E0CE010E942D1363E1CD
:10385000CE010E942D1360E0CE010E942D1368E07E
:10386000CE010E942D136BE2CE010E942D1360E069
:10387000CE010E942D1362E0CE010E942D1360E064
:10388000CE010E942D1366EBCE010E94F11261E081
:10389000CE010E942D1360E2CE010E942D1360E044
:1038A000CE010E942D1364E0CE010E942D136CE026
:1038B000CE010E942D1360E0CE010E942D1362E024
:1038C000CE010E942D136AEBCE010E94F1126FE02F
:1038D000CE010E942D1368EBCE010E94F11267E029
:1038E000CE010E942D1361E0CE010E942D1366E3EC
:1038F000CE010E94F11262E2CE010E942D1360EF10
:10390000CE010E94F11263E0CE010E942D1361E00E
:1039100070E080E090E00E94F22D0FE011E02FEDCA
:1039200031E040E050E060E070E0CE010E945413CE
:1039300069E2CE010E94F1126EEBCE010E94F112FB
:1039400066E0CE010E942D1360EFCE010E942D1380
:1039500061E0CE010E942D1360EFCE010E942D1375
:1039600060E0CE010E942D1360E0CE010E942D1375
:1039700060EDCE010E94F1126DE0CE010E942D1388
:103980000C94662662EECE010E94F1126EE1CE0129
:103990000E942D1362E0CE010E942D1364E5CE013A
:1039A0000E942D1360EECE010E94F11261E0CE0163
:1039B0000E942D136AE070E080E090E00E94F22DFA
:1039C00060EECE010E94F11263E0CE010E942D1341
:1039D0006AE070E080E090E00E94F22D61E0CE01AC
:1039E0000E94F11264E670E080E090E00E94F22D07
:1039F00066EECE010E94F11263E0CE010E942D130B
:103A00006FEFCE010E942D136FEFCE010E942D1398
:103A100060EBCE010E94F11264E2CE010E942D13F0
:103A200060E0CE010E942D1363E0CE010E942D13B1
:103A30006FE1CE010E942D1361E0CE010E942D1393
:103A40006FEDCE010E942D1360E0CE010E942D1378
:103A500064EBCE010E94F11263E0CE010E942D13AF
:103A600060EACE010E942D1360E0CE010E942D136A
:103A70006EE2CE010E942D1360E3CE010E942D1351
:103A800060E0CE010E942D136FE0CE010E942D1345
:103A900060E0CE010E942D1366EBCE010E94F11270
:103AA00062E0CE010E942D136DE0CE010E942D1325
:103AB00060E0CE010E942D1360E1CE010E942D1323
:103AC00060E1CE010E942D1360E0CE010E942D1313
:103AD00068E0CE010E942D136AEBCE010E94F11224
:103AE0006FE0CE010E942D1368EBCE010E94F1120F
:103AF00067E0CE010E942D1361E0CE010E942D13DC
:103B000066E3CE010E94F11262E2CE010E942D1303
:103B100060EFCE010E94F11263E0CE010E942D13EE
:103B200061E070E080E090E0D2C062EECE010E94E1
:103B3000F11263E2CE010E942D1362E0CE010E94D9
:103B40002D1364E0CE010E942D1360EECE010E9481
:103B5000F11261E0CE010E942D136AE070E080E076
:103B600090E00E94F22D60EECE010E94F11263E01F
:103B7000CE010E942D136AE070E080E090E00E9488
:103B8000F22D61E0CE010E94F11264E670E080E067
:103B900090E00E94F22D66EECE010E94F11264E0E8
:103BA000CE010E942D1363E9CE010E942D1360EE19
:103BB000CE010E942D1360EBCE010E94F11260E055
:103BC000CE010E942D1360E0CE010E942D1363E010
:103BD000CE010E942D136FE1CE010E942D1361E0F2
:103BE000CE010E942D136FEDCE010E942D1360E0D7
:103BF000CE010E942D1364EBCE010E94F11263E00E
:103C0000CE010E942D1360EACE010E942D1360E0C8
:103C1000CE010E942D136EE2CE010E942D1360E3AF
:103C2000CE010E942D1360E0CE010E942D136FE0A3
:103C3000CE010E942D1360E0CE010E942D1366EB91
:103C4000CE010E94F11262E0CE010E942D136DE0C0
:103C5000CE010E942D1360E0CE010E942D1360E181
:103C6000CE010E942D1360E1CE010E942D1360E071
:103C7000CE010E942D1368E0CE010E942D136AEB45
:103C8000CE010E94F11265E0CE010E942D1368EB77
:103C9000CE010E94F11267E0CE010E942D1361E077
:103CA000CE010E942D1366E3CE010E94F11262E262
:103CB000CE010E942D1360EFCE010E94F11263E04D
:103CC000CE010E942D136AE070E080E090E00E9437
:103CD000F22D0FED11E02FE133E023CE44E050E26E
:103CE00061E1CE010E94451340E05CEC63E1CE014E
:103CF0000E94451340E056E265E1CE010E94451363
:103D00004AE255E264E1CE010E94451343E350E0EC
:103D100062E1CE010E94451344E05CEC63E1CE0118
:103D20000E94451346E05CEC63E1CE010E9445131E
:103D30004FE45CEC63E1CE010E9445134FE457E68B
:103D400063E1CE010E94451343E050E261E1CE0100
:103D50000E94451349E056E260E3CE010E944513FC
:103D60004CE254E261E3CE010E94451343E25FE17D
:103D700062E3CE010E94451345E254E263E3CE01C3
:103D80000E94451346E252E264E3CE010E944513CD
:103D900043E255E265E3CE010E9445134AE15CE14E
:103DA00066E3CE010E9445134DE153E167E3CE0186
:103DB0000E94451341E15BE068E3CE010E94451398
:103DC00040E152E169E3CE010E94451345E153E130
:103DD0006AE3CE010E94451349E156E36BE3CE014D
:103DE0000E94451340E05DE06CE3CE010E94451364
:103DF0004DE050E06DE3CE010E94451347E050E0F6
:103E000066E1CE010E94451343E150E062E0CE013D
:103E10000E94451343E050E063E0CE010E94451349
:103E200047E251E061E0CE010E94451343E053E0D8
:103E300068E0CE010E9445134BE050E06AE0CE01FD
:103E40000E94451343E050E06BE0CE010E94451311
:103E500040E050E06CE0CE010E94451340E050E0AD
:103E600061E4CE010E94451340E050E060E5CE01E0
:103E70000E94451345E050E060E6CE010E944513E4
:103E80004BE050E060E7CE010E94451340E050E077
:103E900061E7CE010E94451340E050E068E7CE01A3
:103EA0000E94451340E050E06AE7CE010E944513AE
:103EB00047E050E069E7CE010E94451341E550E03C
:103EC00067E0CE010E94451343E550E067E0CE0174
:103ED0000E94451340E050E069E792C161E1CE01E4
:103EE0000E94F11264E170E080E090E00E94F22D07
:103EF00060EDCE010E94F11267E0CE010E942D1309
:103F000062E4CE010E942D1368E1CE010E942D13C0
:103F100061EDCE010E94F11260E0CE010E942D13EE
:103F200067E0CE010E942D1360E1CE010E942D13A7
:103F300062EDCE010E94F11261E0CE010E942D13CC
:103F400062E0CE010E942D1360ECCE010E94F112BE
:103F500060E1CE010E942D136BE3CE010E942D1370
:103F600060E0CE010E942D1362E0CE010E942D136D
:103F700061E1CE010E942D1365ECCE010E94F11289
:103F800063E0CE010E942D1368ECCE010E94F11275
:103F900060E0CE010E942D1362E3CE010E942D133A
:103FA00066E3CE010E942D1365E4CE010E942D131D
:103FB00066E0CE010E942D1366E1CE010E942D1312
:103FC00067E3CE010E942D1365E7CE010E942D13F9
:103FD00067E7CE010E942D1364E5CE010E942D13E8
:103FE0006CE0CE010E942D1360E0CE010E942D13E3
:103FF00066E3CE010E94F1126AE0CE010E942D1309
:104000006AE3CE010E94F11265E5CE010E942D13F4
:104010006AE2CE010E94F11260E0CE010E942D13EF
:1040200060E0CE010E942D1361E0CE010E942D13AD
:104030006FE3CE010E942D136BE2CE010E94F112BC
:1040400060E0CE010E942D1360E0CE010E942D138E
:1040500061E0CE010E942D1360EECE010E942D136F
:1040600068E770E080E090E00E94F22DF8C14AE13C
:1040700050E061E1CE010E94451341E251E362E16B
:10408000CE010E9445134CE650E063E1CE010E9450
:10409000451349E452E464E1CE010E94451340E037
:1040A00058E060E1CE010E9445136AE070E080E0D4
:1040B00090E00E94F22D4AE151E061E1CE010E94C0
:1040C00045136AE070E080E090E00E94F22D4AE142
:1040D00053E061E1CE010E9445136AE070E080E0A8
:1040E00090E00E94F22D4AE157E061E1CE010E948A
:1040F00045136AE070E080E090E00E94F22D4AE112
:104100005FE061E1CE010E9445136AE070E080E06B
:1041100090E00E94F22D4AE35FE061E1CE010E944F
:1041200045136EE170E080E090E00E94F22D4CE1DA
:1041300051E061E0CE010E94451340E051E062E0B1
:10414000CE010E94451340E350E163E0CE010E949E
:10415000451340E050E067E0CE010E94451348E07F
:1041600058E068E0CE010E94451340E051E16BE069
:10417000CE010E94451340E050E06CE0CE010E9469
:10418000451341E054E16FE0CE010E94451340E049
:1041900050E065E1CE010E94451340E050E060E24E
:1041A000CE010E94451340E050E061E2CE010E9442
:1041B00045134FEA50E066E3CE010E94451340E00C
:1041C00050E067E3CE010E9445134BED50E068E3F9
:1041D000CE010E94451340E050E069E3CE010E9409
:1041E000451341E05BE06FE0CE010E94451346E1DC
:1041F00050E067E0CE010E94451347E150E067E0E0
:10420000CE010E9445130C948E1861E1CE010E94EC
:10421000F11268E770E080E090E00E94F22D61EB1F
:10422000CE010E94F11265E0CE010E942D136CE3D5
:10423000CE010E942D136CE3CE010E942D1362EB80
:10424000CE010E94F11265E0CE010E942D136CE3B5
:10425000CE010E942D136CE3CE010E942D1363EB5F
:10426000CE010E94F11265E0CE010E942D136CE395
:10427000CE010E942D136CE3CE010E942D1365E048
:10428000CE010E942D136CE3CE010E942D136CE32E
:10429000CE010E942D1364EBCE010E94F11263E067
:1042A000CE010E942D1360ECCE010E94F11268E253
:1042B000CE010E942D1368E0CE010E942D1364E010
:1042C000CE010E942D1361ECCE010E94F11260EC30
:1042D000CE010E942D1362ECCE010E94F1126DE01E
:1042E000CE010E942D1360E0CE010E942D1363ECDD
:1042F000CE010E94F1126DE8CE010E942D136AE2F8
:10430000CE010E942D1364ECCE010E94F1126DE8E3
:10431000CE010E942D136EEECE010E942D1365EC8E
:10432000CE010E94F1126AE1CE010E942D1366E3D4
:10433000CE010E94F11260ECCE010E942D1360EEBE
:10434000CE010E94F11263E0CE010E942D1362E2C1
:10435000CE010E942D1367E0CE010E942D136AE06A
:10436000CE010E942D136EE2CE010E942D1360E358
:10437000CE010E942D1365E2CE010E942D136AE248
:10438000CE010E942D1368E2CE010E942D1366E239
:10439000CE010E942D136EE2CE010E942D136AE31E
:1043A000CE010E942D1360E0CE010E942D1361E02A
:1043B000CE010E942D1363E0CE010E942D1363E114
:1043C000CE010E942D1361EECE010E94F11264E035
:1043D000CE010E942D1366E1CE010E942D1366E0EE
:1043E000CE010E942D136DE0CE010E942D136DE2CF
:1043F000CE010E942D1366E2CE010E942D1363E2CE
:10440000CE010E942D1367E2CE010E942D1367E2B8
:10441000CE010E942D1365E2CE010E942D136DE2A4
:10442000CE010E942D136BE3CE010E942D1360E09C
:10443000CE010E942D1361E0CE010E942D1364E095
:10444000CE010E942D1363E1CE010E942D136AE379
:10445000CE010E94F11265E0CE010E942D1369E2A7
:104460000C948F1861E1CE010E94F11264E170E0BA
:1044700080E090E00E94F22D68E2CE010E94F112ED
:1044800065E070E080E090E00E94F22D6FECCE01DC
:104490000E94F11260E0CE010E942D1363E8CE016C
:1044A0000E942D1360E3CE010E942D136DEECE010C
:1044B0000E94F11264E6CE010E942D1363E0CE014A
:1044C0000E942D1362E1CE010E942D1361E8CE01FE
:1044D0000E942D1368EECE010E94F11265E8CE0114
:1044E0000E942D1361E0CE010E942D1369E7CE01D9
:1044F0000E942D136BECCE010E94F11269E3CE01F4
:104500000E942D136CE2CE010E942D1360E0CE01BB
:104510000E942D1364E3CE010E942D1362E0CE01B0
:104520000E942D1367EFCE010E94F11260E2CE01CE
:104530000E942D136AEECE010E94F11260E0CE01BE
:104540000E942D1360E0CE010E942D1360ECCE017D
:104550000E94F11266E2CE010E942D1361ECCE01A1
:104560000E94F11261E1CE010E942D1365ECCE0193
:104570000E94F11265E3CE010E942D136EE3CE017D
:104580000E942D1367ECCE010E94F1126EEBCE015A
:104590000E942D1361EBCE010E94F11260E0CE016A
:1045A0000E942D136BE1CE010E942D1366EBCE010C
:1045B0000E94F1126AE0CE010E942D1362E8CE0142
:1045C0000E942D1367E2CE010E942D1360E0CE0100
:1045D0000E942D1367EBCE010E94F11267E0CE011D
:1045E0000E942D136AE3CE010E94F11265E5CE010F
:1045F0000E942D1366E3CE010E94F11268E4CE0101
:104600000E942D1369E2CE010E94F11265E070E074
:1046100080E090E058C46BECCE010E94F11269E397
:10462000CE010E942D136CE2CE010E942D1360E09A
:10463000CE010E942D1364E3CE010E942D1362E08F
:10464000CE010E942D136FECCE010E94F11260E0AA
:10465000CE010E942D1361ECCE010E942D1360E368
:10466000CE010E942D1368EECE010E94F11265E882
:10467000CE010E942D1360E0CE010E942D1368E749
:10468000CE010E942D136AEECE010E94F11260E06D
:10469000CE010E942D1360E0CE010E942D136DEE1D
:1046A000CE010E94F11264E6CE010E942D1363E058
:1046B000CE010E942D1362E1CE010E942D1361E80C
:1046C000CE010E942D1367EFCE010E94F11260E22D
:1046D000CE010E942D1360ECCE010E94F11263E224
:1046E000CE010E942D1361ECCE010E94F11260E117
:1046F000CE010E942D1365ECCE010E94F1126EE3F3
:10470000CE010E942D1368E2CE010E942D1367ECAA
:10471000CE010E94F11266E8CE010E942D1366E3DD
:10472000CE010E94F11268E4CE010E942D136AE3CB
:10473000CE010E94F11265E5CE010E942D1361EBBE
:10474000CE010E94F11260E0CE010E942D1368E1BB
:10475000CE010E942D1366EBCE010E94F11268E09B
:10476000CE010E942D1362E8CE010E942D1367E254
:10477000CE010E942D1361E1CE010E94F11268E783
:1047800070E080E090E09DC260EBCE010E94F112EB
:104790006EE1CE010E942D1360EBCE010E94F1125A
:1047A00060E0CE010E942D1363EBCE010E94F11256
:1047B00062E0CE010E942D1360E0CE010E942D1315
:1047C00060E0CE010E942D1360E1CE010E942D1306
:1047D00064EBCE010E94F11260E0CE010E942D1325
:1047E00060ECCE010E94F11263E0CE010E942D1315
:1047F0006BE3CE010E942D1360E0CE010E942D13C9
:1048000060E0CE010E942D1360E0CE010E942D13C6
:1048100061E0CE010E942D1360E0CE010E942D13B5
:1048200063E4CE010E942D1361ECCE010E94F112CF
:1048300068E0CE010E942D1365E1CE010E942D1388
:1048400068E0CE010E942D1368E0CE010E942D1376
:1048500064ECCE010E94F11265E1CE010E942D139D
:1048600063E0CE010E942D1363E0CE010E942D1360
:1048700061E0CE010E942D1366ECCE010E94F11280
:1048800062E0CE010E942D1368ECCE010E94F1126D
:104890006CE0CE010E942D1365E0CE010E942D1325
:1048A0006AE0CE010E942D136BE6CE010E942D130B
:1048B00064E0CE010E942D1366E0CE010E942D130C
:1048C00065E1CE010E942D1360E1CE010E942D13FF
:1048D00060E0CE010E942D1360E6CE010E942D13F0
:1048E00066E3CE010E94F1126AE0CE010E942D1310
:1048F0006CE0CE010E94F11265E5CE010E942D13FD
:104900006AE3CE010E94F11265E5CE010E942D13EB
:1049100068E3CE010E94F11260EDCE010E94F11217
:1049200067E0CE010E942D1367E0CE010E942D1397
:1049300064E1CE010E942D1362EACE010E942D1384
:1049400061EDCE010E94F11263E0CE010E942D13B1
:104950006AE5CE010E942D1360E1CE010E942D1365
:1049600062EDCE010E94F11263E0CE010E942D1390
:1049700064E0CE010E942D1364E0CE010E942D134D
:1049800061E1CE010E94F11266E970E080E090E002
:104990000E94F22D6AE2CE010E94F11260E0CE0187
:1049A0000E942D1360E0CE010E942D1361E0CE0124
:1049B0000E942D136FEDCE010E942D136BE2CE01EC
:1049C0000E94F11260E0CE010E942D1360E0CE0142
:1049D0000E942D1361E0CE010E942D136FE3CE01E2
:1049E0000E942D1364E670E080E090E00E94F22DBA
:1049F00069E2CE010E94F1126EE170E080E090E089
:104A00000E94F22D6CE2CE010E94F1126EE170E084
:104A100080E090E058C261E1CE010E94F11262E3B1
:104A200070E080E090E00E94F22D62EFCE010E94E3
:104A3000F1126CE1CE010E942D1363EACE010E94B7
:104A40002D1362E3CE010E942D1362E0CE010E947D
:104A50002D1362EBCE010E942D1362E1CE010E9464
:104A60002D136FEFCE010E942D1362E1CE010E9443
:104A70002D1360E0CE010E942D1361EFCE010E9444
:104A8000F11266E3CE010E942D1364EACE010E946A
:104A90002D1368EFCE010E94F11261E2CE010E9457
:104AA0002D1364E0CE010E942D1369EFCE010E9408
:104AB000F11260E0CE010E942D1368E0CE010E9449
:104AC0002D1360ECCE010E94F1126DE0CE010E9428
:104AD0002D136DE0CE010E942D1361ECCE010E94DA
:104AE000F11263E4CE010E942D1360E0CE010E941A
:104AF0002D1362ECCE010E94F11260E0CE010E9403
:104B00002D1365ECCE010E94F11260E0CE010E94EF
:104B10002D1368E4CE010E942D1366EBCE010E9496
:104B2000F11260E0CE010E942D1362E2CE010E94DC
:104B30002D136BE3CE010E942D1360EECE010E9477
:104B4000F1126FE0CE010E942D1364E2CE010E94AB
:104B50002D136CE1CE010E942D136AE0CE010E945C
:104B60002D136FE0CE010E942D1368E0CE010E944C
:104B70002D1363E4CE010E942D1368E8CE010E943C
:104B80002D1362E3CE010E942D136FE0CE010E942F
:104B90002D1360E1CE010E942D1366E0CE010E942C
:104BA0002D136FE0CE010E942D1367E0CE010E940D
:104BB0002D1360E0CE010E942D1361EECE010E9404
:104BC000F1126FE0CE010E942D1368E3CE010E9426
:104BD0002D1360E3CE010E942D1369E0CE010E94E7
:104BE0002D136FE0CE010E942D136FE0CE010E94C5
:104BF0002D136EE4CE010E942D1367E7CE010E94B3
:104C00002D136CE3CE010E942D1367E0CE010E94AC
:104C10002D1360E1CE010E942D1365E0CE010E94AC
:104C20002D1363E2CE010E942D136BE1CE010E9491
:104C30002D1360E0CE010E942D1360E2CE010E9490
:104C4000F11260E0CE010E942D1366E3CE010E94B6
:104C5000F1126AE0CE010E942D136AE3CE010E9498
:104C6000F11265E5CE010E942D136AE2CE010E9489
:104C7000F11260E0CE010E942D1360E0CE010E948F
:104C80002D1361E0CE010E942D136FEDCE010E9425
:104C90002D136BE2CE010E94F11260E0CE010E9462
:104CA0002D1360E0CE010E942D1361E0CE010E9421
:104CB0002D136FE3CE010E942D1362E370E080E0BC
:104CC00090E090D769E2CE010E94F1126CE20C9460
:104CD0008F188C81813011F41C8202C081E08C839A
:104CE0006FE0CE010E94F11240E150E061E0CE01A0
:104CF0000E9445136FE00C948F1869EBCE010E945F
:104D0000F1126FEFCE010E942D1363E8CE010E94D5
:104D10002D1363E5CE010E942D1360EBCE010E949E
:104D2000F1126CE3CE010E942D1361E0CE010E94CE
:104D30002D1366EBCE010E94F11264E9CE010E94B0
:104D40002D136CE6CE010E942D1360E5CE010E946A
:104D50002D1361EBCE010E94F11260E0CE010E94A2
:104D60002D1361E0CE010E942D136BE1CE010E9454
:104D70002D1363E0CE010E942D1361E0CE010E944D
:104D80002D1368E0CE010E942D1367E7CE010E942B
:104D90002D1369E8CE010E942D1360EECE010E9412
:104DA000F11260E5CE010E942D1367E7CE010E944B
:104DB0002D1360E4CE010E942D1368E0CE010E9405
:104DC0002D136FEBCE010E942D1360E0CE010E94E7
:104DD0002D1363E0CE010E942D136FE0CE010E94DF
:104DE0002D1360E0CE010E942D1361E0CE010E94E0
:104DF0002D1363E7CE010E942D1360E0CE010E94C7
:104E00002D1362E7CE010E942D1363E0CE010E94B4
:104E10002D1360EBCE010E942D136FE0CE010E9496
:104E20002D1368E0CE010E942D1360E0CE010E9498
:104E30002D136FE0CE010E942D136AE3CE010E9474
:104E4000F11265E0CE010E942D1366E3CE010E94AF
:104E5000F11260ECCE010E942D1361E1CE010E949F
:104E6000F11266E970E080E090E0BCD669E2CE0124
:104E70000E94F11266E970E080E090E0B3D66DE246
:104E8000CE010E94F11210E0612FCE010E942D137D
:104E90001E5F1034C9F710E0612FCE010E942D1360
:104EA0001F5F1034C9F710E0612FCE010E942D134F
:104EB0001E5F1034C9F76CE2CE010E94F11266E960
:104EC00070E080E090E08ED6EC89FD89908188A129
:104ED000892B80838FEF888389831A821B8218AA8B
:104EE0001BA61AA6DF91CF911F910F9108950F93E2
:104EF0001F93FC01648121853285458156816111B2
:104F000003C089019A0101C08A0140E050E060E0DD
:104F100070E00E9454131F910F910895CF92DF9279
:104F2000EF92FF920F931F93CF93DF93EC01EC89E5
:104F3000FD89908188A1809589238083CE01D7DF68
:104F40008E85813031F0E889F98990818E8D892BA9
:104F50008083EE854D815E816F81788589859A8514
:104F6000AB85BC85E031C1F49A01AB012F5F3F4FA7
:104F70004F4F5F4FBC01CD016F5F7F4F8F4F9F4FF2
:104F80000E9438308B019C0140E050E060E070E00E
:104F9000CE010E94090E4FC0E83021F0C12CD12C67
:104FA000760123C09A01AB012F5F3F4F4F4F5F4FF8
:104FB000BC01CD016F5F7F4F8F4F9F4F0E943830F4
:104FC0009B01AC0160E070E0CE010E943B0F33C05A
:104FD0002E85213031F140E060E0CE010E94620C6C
:104FE0008FEFC81AD80AE80AF80A8D819E81AF812E
:104FF000B8859C01AD012F5F3F4F4F4F5F4F8985B3
:105000009A85AB85BC85BC01CD016F5F7F4F8F4F0B
:105010009F4F0E943830C616D706E806F906C4F23C
:105020000AC021E040E061E0CE010E94620C2E85C2
:1050300040E061E0D2CFEC89FD89908188A1892B85
:105040008083DF91CF911F910F91FF90EF90DF90C0
:10505000CF900895FC01108280E090E0ACE5B3E4CD
:1050600081839283A383B483158280E090E0A0E8DB
:10507000B0E486839783A087B187128680E090E8AA
:10508000ABE3B6E483879487A587B68788E28787F2
:10509000108A118A128A138A148A80E090E0A8E4A8
:1050A000B3E4858B968BA78BB08F84EB818F80E0E8
:1050B00090E0AAE7B3E4828F938FA48FB58F168E0A
:1050C000178E10A211A212A28FEF83A314A215A211
:1050D00008955058BB27AA270ED008C1F9D030F048
:1050E000FED020F031F49F3F11F41EF4EEC00EF418
:1050F000E095E7FBE4C0E92F0AD180F3BA17620715
:1051000073078407950718F071F49EF522C10EF419
:10511000E0950B2EBA2FA02D0B01B90190010C01C7
:10512000CA01A0011124FF27591B99F0593F50F4DF
:10513000503E68F11A16F040A22F232F342F442737
:10514000585FF3CF469537952795A795F04053952F
:10515000C9F77EF41F16BA0B620B730B840BBAF0FF
:105160009150A1F0FF0FBB1F661F771F881FC2F76A
:105170000EC0BA0F621F731F841F48F4879577957E
:105180006795B795F7959E3F08F0B3CF9395880F35
:1051900008F09927EE0F9795879508956CD008F43D
:1051A00081E00895BCD088F09F5790F0B92F9927DF
:1051B000B751A0F0D1F0660F771F881F991F1AF022
:1051C000BA95C9F712C0B13081F0C3D0B1E00895EB
:1051D000C0C0672F782F8827B85F39F0B93FCCF36C
:1051E000869577956795B395D9F73EF49095809518
:1051F000709561957F4F8F4F9F4F0895E89409C038
:1052000097FB3EF490958095709561957F4F8F4FF9
:105210009F4F9923A9F0F92F96E9BB279395F6950F
:10522000879577956795B795F111F8CFFAF4BB0F8D
:1052300011F460FF1BC06F5F7F4F8F4F9F4F16C0F1
:10524000882311F096E911C0772321F09EE8872F7B
:10525000762F05C0662371F096E8862F70E060E037
:105260002AF09A95660F771F881FDAF7880F9695B0
:10527000879597F90895990F0008550FAA0BE0E854
:10528000FEEF16161706E807F907C0F01216130608
:10529000E407F50798F0621B730B840B950B39F448
:1052A0000A2661F0232B242B252B21F408950A26AE
:1052B00009F4A140A6958FEF811D811D089597F9EE
:1052C0009F6780E870E060E008959FEF80EC0895AC
:1052D00000240A94161617061806090608950024D5
:1052E0000A9412161306140605060895092E03944F
:1052F000000C11F4882352F0BB0F40F4BF2B11F4C3
:1053000060FF04C06F5F7F4F8F4F9F4F089557FD21
:105310009058440F551F59F05F3F71F04795880F23
:1053200097FB991F61F09F3F79F0879508951216BA
:1053300013061406551FF2CF4695F1DF08C0161666
:1053400017061806991FF1CF869571056105089417
:105350000895E894BB2766277727CB0197F908952E
:105360000BD0C4CFB5DF28F0BADF18F0952309F0D1
:10537000A6CFABCF1124EECFCADFA0F3959FD1F318
:10538000950F50E0551F629FF001729FBB27F00DF3
:10539000B11D639FAA27F00DB11DAA1F649F662748
:1053A000B00DA11D661F829F2227B00DA11D621F97
:1053B000739FB00DA11D621F839FA00D611D221F51
:1053C000749F3327A00D611D231F849F600D211D35
:1053D000822F762F6A2F11249F5750408AF0E1F0D8
:1053E00088234AF0EE0FFF1FBB1F661F771F881F21
:1053F00091505040A9F79E3F510570F060CFAACF61
:105400005F3FECF3983EDCF3869577956795B7950B
:10541000F795E7959F5FC1F7FE2B880F911D969535
:10542000879597F90895FC01918D228D892F90E041
:10543000805C9F4F821B91098F7399270895FC010F
:10544000918D828D981731F0828DE80FF11D858D39
:1054500090E008958FEF9FEF0895FC01918D828D6C
:10546000981761F0828DDF01A80FB11D5D968C91B8
:10547000928D9F5F9F73928F90E008958FEF9FEFC3
:10548000089587EC9BE2892B39F080E090E0892B2E
:1054900019F07DD1811125C080E090E0892B41F089
:1054A00080E090E0892B21F00E94000081111CC057
:1054B00080E090E0892B41F080E090E0892B21F0A2
:1054C0000E940000811113C080E090E0892BA1F0C0
:1054D00080E090E0892B81F00E94000081110AC0D9
:1054E00008950E940000D8CF0E940000E1CF0E94E2
:1054F0000000EACF0C9400000895FC01848DDF01C8
:10550000A80FB11DA35ABF4F2C91848D90E0019636
:105510008F739927848FA689B7892C93A089B18925
:105520008C9180648C93938D848D981306C002882F
:10553000F389E02D80818F7D80830895EF92FF9223
:105540000F931F93CF93DF93EC0181E0888F9B8DA6
:105550008C8D981305C0E889F989808185FD23C069
:10556000F62E0B8D10E00F5F1F4F0F731127E02EEB
:105570008C8DE8120BC00FB607FCFACFE889F989C9
:10558000808185FFF5CFCE01B8DFF2CF8B8DFE0194
:10559000E80FF11DE35AFF4FF0820B8FEA89FB8978
:1055A0008081806207C0EE89FF896083E889F9897C
:1055B00080818064808381E090E0DF91CF911F91B2
:1055C0000F91FF90EF900895CF93DF93EC01888DBA
:1055D0008823C1F0EA89FB89808185FD05C0A889FF
:1055E000B9898C9186FD0EC00FB607FCF5CF80817E
:1055F00085FFF2CFA889B9898C9185FFEDCFCE01C7
:105600007CDFE8CFDF91CF910895CF92DF92EF92C8
:10561000FF921F93CF93DF93EC016A017B01122F5E
:10562000E889F98982E080834115514E6105710551
:10563000A9F060E079E08DE390E0A701960127D51D
:10564000DA01C9010197A109B109B695A795979506
:1056500087959C01211580E13807A0F0E889F98938
:10566000108260E874E88EE190E0A70196010FD502
:10567000DA01C9010197A109B109B695A7959795D6
:1056800087959C01EC85FD853083EE85FF85208321
:10569000188EEC89FD891083EA89FB8980818061FD
:1056A0008083EA89FB89808188608083EA89FB891D
:1056B000808180688083EA89FB8980818F7D8083F7
:1056C000DF91CF911F91FF90EF90DF90CF900895E1
:1056D0001F920F920FB60F9211240BB60F922F93B9
:1056E0008F939F93EF93FF93E0916405F09165058D
:1056F0008081E0916A05F0916B0582FD12C0908176
:1057000080916D058F5F8F7320916E05821751F028
:10571000E0916D05F0E0EC5AFA4F958F80936D059E
:1057200001C08081FF91EF919F918F912F910F90F8
:105730000BBE0F900FBE0F901F9018951F920F92E7
:105740000FB60F9211240BB60F922F933F934F93E6
:105750005F936F937F938F939F93AF93BF93EF93D9
:10576000FF9384E595E0C9DEFF91EF91BF91AF9182
:105770009F918F917F916F915F914F913F912F9169
:105780000F900BBE0F900FBE0F901F90189584E5E1
:1057900095E049DE21E0892B09F420E0822F08956D
:1057A000E4E5F5E01382128288EE93E0A0E0B0E039
:1057B00084839583A683B78389E393E09183808371
:1057C00085EC90E09587848784EC90E097878687C6
:1057D00080EC90E0918B808B81EC90E0938B828BBE
:1057E00082EC90E0958B848B86EC90E0978B868B97
:1057F000118E128E138E148E089508952CD2FDDF13
:105800000E94CC0AC1E4DAE20E94E20A2097E1F3A6
:1058100038DEFACF9BC4CF92DF92EF92FF920F93C4
:105820001F93CF93DF936C017A018B01C0E0D0E02E
:10583000CE15DF0581F0D8016D918D01D601ED9176
:10584000FC910190F081E02DC6011995892B11F092
:105850002196EECF7E01C701DF91CF911F910F916D
:10586000FF90EF90DF90CF9008956115710579F06A
:10587000FB0101900020E9F73197AF01461B570B60
:10588000DC01ED91FC910280F381E02D199480E020
:1058900090E00895DC01ED91FC910190F081E02D04
:1058A000199465E473E0E1CF8F929F92AF92BF921B
:1058B000EF92FF920F931F93CF93DF93CDB7DEB795
:1058C000A1970FB6F894DEBF0FBECDBF7C01FA01E1
:1058D000CB0119A2223008F42AE08E010F5D1F4F80
:1058E000822E912CA12CB12CBF01A5019401CFD304
:1058F000F901CA01015011096A3010F4605D01C05C
:10590000695CD8016C93232B242B252B69F7B801F4
:10591000C701ABDFA1960FB6F894DEBF0FBECDBFB7
:10592000DF91CF911F910F91FF90EF90BF90AF90BB
:105930009F908F9008952115310541F4DC01ED9180
:10594000FC910190F081E02D642F1994ADCF9A0164
:10595000AB0160E070E0EFCF7F928F929F92AF92A9
:10596000BF92CF92DF92EF92FF920F931F93CF934C
:10597000DF938C016A017B01722E9A01AB01C70192
:10598000B60172D3882319F068E473E024C046019D
:105990005701E894B7F82FEF3FEF4FE75FE7C501F6
:1059A000B40162D381110CC02FEF3FEF4FE75FE7E7
:1059B000C501B401F3DB18161CF46CE473E00BC0F2
:1059C0002FEF3FEF4FE75FE4C701B60149D3181649
:1059D0008CF460E573E0C801DF91CF911F910F91C6
:1059E000FF90EF90DF90CF90BF90AF909F908F90FF
:1059F0007F903BCF2FEF3FEF4FE75FECC701B60142
:105A0000CDDB87FDE6CF20E030E0A901C701B6017C
:105A1000C5DB87FF09C06DE2C8013CDFEC01F7FA86
:105A2000F094F7F8F09402C0C0E0D0E0B12C60E050
:105A300070E080E09FE37B1439F020E030E040E24A
:105A400051E4A6D2B394F7CFA701960143DB6B01D3
:105A50007C01A8DB4B015C012AE0AB01BC01C80161
:105A600023DFC80FD91F772079F1C501B401C6DB48
:105A70009B01AC01C701B6012CDB6B017C016EE21E
:105A8000C80108DFC80FD91F20E030E040E251E430
:105A9000C701B60165DC4B015C0184DB6B017C0155
:105AA0004AE050E0C80153DFC80FD91FB60180E0BB
:105AB00090E0A4DB9B01AC01C501B4010ADB6B01E2
:105AC0007C017A947110E0CFCE01DF91CF911F91CC
:105AD0000F91FF90EF90DF90CF90BF90AF909F908D
