:100000000C94120A0C94430A0C94430A0C94430A6D
:100010000C94430A0C94430A0C94430A0C94430A2C
:100020000C94430A0C94430A0C94430A0C94430A1C
:100030000C94430A0C94430A0C94430A0C94430A0C
:100040000C94430A0C94430A0C94430A0C94430AFC
:100050000C94F8190C94430A0C94430A0C94B14084
:100060000C94430A0C94430A0C94430A0C94430ADC
:100070000C94430A0C94430A0C94430A0C94430ACC
:100080000C94430A0C94430A0C94430A0C94430ABC
:100090000C94430A0C94430A0C94430A0C94430AAC
:1000A0000C94430A0C94430A0C94430A0C94430A9C
:1000B0000C94430A0C94430A0C94430A0C94430A8C
:1000C0000C94430A0C94430A0C94430A0C94430A7C
:1000D0000C94430A0C94430A0C94430A0C94430A6C
:1000E0000C94430AF821E122132213222C22E1224C
:1000F000D921B6225022E1225E225E227B227B227F
:10010000F821B622E122F8215E22B62213228A22A9
:10011000B622B622B622B622B622A322B622B62232
:100120005123BF351E241E24B025BF35B628EA262C
:100130006328BF35102A192BC52CC52C51236231D9
:10014000BF355123EC2BC52D9C248E2E5C2F6231A4
:1001500089301B326233C134D5345E2705A84CCDBB
:10016000B2D44EB93836A9020C50B9918688083CF1
:10017000A6AAAA2ABE000000803FD541D841C741A7
:10018000CB41D1410F42DC41E041E641EA41EE4141
:10019000F441F841FC410F42024206420A4200404B
:1001A0007A10F35A00A0724E18090010A5D4E80086
:1001B00000E87648170000E40B54020000CA9A3B9E
:1001C000000000E1F5050000809698000000404224
:1001D0000F000000A08601000000102700000000B2
:1001E000E803000000006400000000000A000000B6
:1001F00000000100000000002C76D888DC674F0862
:1002000023DFC1DFAE59E1B1B796E5E3E453C63A67
:10021000E651997696E8E6C28426EB898C9B62EDDE
:10022000407C6FFCEFBC9C9F40F2BAA56FA5F49098
:10023000055A2AF75C936B6CF9676DC11BFCE0E40F
:100240000D47FEF520E6B500D0ED902E0300943565
:1002500077050080841E080000204E0A000000C8B8
:100260000C333333330F986E12831141EF8D211409
:10027000893BE65516CFFEE6DB18D1844B381BF7D9
:100280007C1D901DA4BBE424203284725E22810078
:10029000C9F124ECA1E53D271010205F000000000B
:1002A000000000000000000000000000000000004E
:1002B000000000000000000000000000000000003E
:1002C00007000F800F800F800F800F80070007004E
:1002D00000000000070007000700000000000E38C3
:1002E0000E380E380E380630000000000000000006
:1002F00000000000000000000000000000000C30C2
:100300000C300C307FFE7FFE0C300C300C300C308B
:100310007FFE7FFE0C300C300C30000000000240ED
:1003200002400FF81FF81A401A401FF00FF8025849
:1003300002581FF81FF002400240000000000000B9
:1003400000000E100E300E7000E001C003800700A8
:100350000E700C700870000000000000000000002B
:100360000F001980198019800F000F080F9819F8D5
:1003700018F018E019F00F980000000000000000CD
:100380000700070007000E0000000000000000004A
:10039000000000000000000000000000000000005D
:1003A00000F001C0038007000E000E000E000E00DA
:1003B0000700038001C000F0000000000000000002
:1003C0000F00038001C000E000700070007000703A
:1003D00000E001C003800F000000000000000000EA
:1003E00001801188099007E007E03FFC3FFC07E02F
:1003F00007E0099011880180000000000000000063
:10040000000000000180018001800FF00FF00180EA
:1004100001800180000000000000000000000000DA
:1004200000000000000000000000000000000000CC
:1004300000000700070007000E0000000000000099
:10044000000000000000000000001FF81FF800007E
:10045000000000000000000000000000000000009C
:10046000000000000000000000000000000000008C
:100470000000070007000700000000000000000067
:1004800000020006000E001C0038007000E001C0F1
:10049000038007000E001C000000000000000000A8
:1004A0000FF01C381C781CF81CF81DB81DB81F383C
:1004B0001F381E381C380FF000000000000000003C
:1004C0000180018003801F801F80038003800380E0
:1004D0000380038003801FF0000000000000000084
:1004E0000FE01C701C380038007000E001C0038071
:1004F00007000E381C381FF8000000000000000044
:100500000FE01C701C380038007003C003C000707E
:1005100000381C381C700FE00000000000000000D4
:1005200000E001E003E006E00CE018E01FF81FF82F
:1005300000E000E000E003F8000000000000000020
:100540001FF81C001C001C001C001FE01FF000789E
:1005500000381C381C700FE0000000000000000094
:1005600003E007000E001C001C001FF01FF81C38E1
:100570001C381C381C380FF0000000000000000080
:100580001FFC1C1C1C1C1C1C001C0038007000E004
:1005900001C0038003800380000000000000000011
:1005A0000FF01C381C381C381F3807E007E01CF817
:1005B0001C381C381C380FF0000000000000000040
:1005C0000FF01C381C381C381C381FF80FF8003886
:1005D0000038007000E007C00000000000000000CC
:1005E00000000000038003800380000000000380FF
:1005F00003800380000000000000000000000000F5
:1006000000000000038003800380000000000380DE
:10061000038003800700000000000000000000705D
:1006200000E001C0038007000E001C001C000E004B
:100630000700038001C000E000700000000000001F
:100640000000000000003FFC3FFC000000003FFCF9
:100650003FFC0000000000000000000000001C0043
:100660000E000700038001C000E00070007000E091
:1006700001C0038007000E001C000000000003C042
:100680000FF01E7818380038007000E001C001C07B
:100690000000000001C001C001C0000000000FF810
:1006A0001C1C1C1C1C1C1C1C1CFC1CFC1CFC1CFC0A
:1006B0001C001C001C001FF007F8000000000000D8
:1006C00003C007E00E701C381C381C381C381FF89B
:1006D0001C381C381C381C380000000000000000CA
:1006E0001FF00E380E380E380E380FF00FF00E389F
:1006F0000E380E380E381FF0000000000000000019
:1007000007F00E381C381C001C001C001C001C00CC
:100710001C001C380E3807F000000000000000002C
:100720001FE00E700E380E380E380E380E380E38A8
:100730000E380E380E701FE00000000000000000B0
:100740001FF80E180E080E000E300FF00FF00E30CE
:100750000E000E080E181FF8000000000000000038
:100760001FF80E180E080E000E300FF00FF00E30AE
:100770000E000E000E001F00000000000000000030
:1007800007F00E381C381C381C001C001C001CF81C
:100790001C381C380E3807F800000000000000006C
:1007A0001C701C701C701C701C701FF01FF01C70E3
:1007B0001C701C701C701C70000000000000000009
:1007C0000FE00380038003800380038003800380A5
:1007D0000380038003800FE00000000000000000A1
:1007E00001FC0070007000700070007000703870C4
:1007F0003870387038700FE0000000000000000012
:100800001E380E380E700EE00FC00F800F800FC024
:100810000EE00E700E381E380000000000000000D0
:100820001F000E000E000E000E000E000E000E0047
:100830000E080E180E381FF800000000000000001F
:100840001C1C1E3C1F7C1FFC1FFC1DDC1C9C1C1C5C
:100850001C1C1C1C1C1C1C1C0000000000000000B8
:100860001C1C1C1C1E1C1F1C1F9C1DDC1CFC1C7C3F
:100870001C3C1C1C1C1C1C1C000000000000000078
:1008800003E007F00E381C1C1C1C1C1C1C1C1C1C30
:100890001C1C0E3807F003E0000000000000000000
:1008A0001FF00E380E380E380E380FF00FF00E0015
:1008B0000E000E000E001F000000000000000000EF
:1008C00003E00F780E381C1C1C1C1C1C1C1C1C7C00
:1008D0001CFC0FF80FF8003800FC000000000000BE
:1008E0001FF00E380E380E380E380FF00FF00E7065
:1008F0000E380E380E381E380000000000000000D0
:100900000FF01C381C381C381C000FE007F00038B2
:100910001C381C381C380FF00000000000000000DC
:100920001FFC19CC11C401C001C001C001C001C02D
:1009300001C001C001C007F000000000000000007D
:100940001C701C701C701C701C701C701C701C7047
:100950001C701C701C700FE0000000000000000004
:100960001C701C701C701C701C701C701C701C7027
:100970001C700EE007C003800000000000000000B3
:100980001C1C1C1C1C1C1C1C1C1C1C9C1C9C1C9C27
:100990000FF80FF80770077000000000000000005B
:1009A0001C701C701C700EE007C00380038007C021
:1009B0000EE01C701C701C700000000000000000A5
:1009C0001C701C701C701C701C700EE007C0038033
:1009D0000380038003800FE000000000000000009F
:1009E0001FF81C381838107000E001C003800700A1
:1009F0000E081C181C381FF8000000000000000042
:100A000007F00700070007000700070007000700BE
:100A100007000700070007F00000000000000000CA
:100A2000100018001C000E000700038001C000E049
:100A300000700038001C00070000000000000000EB
:100A400007F000700070007000700070007000709F
:100A500000700070007007F00000000000000180CE
:100A600003C007E00E701C3800000000000000000A
:100A70000000000000000000000000000000000076
:100A80000000000000000000000000000000000066
:100A900000000000000000007FFF7FFF000000005A
:100AA0001C001C0007000700000000000000000000
:100AB0000000000000000000000000000000000036
:100AC00000000000000000000FE0007000700FF058
:100AD0001C701C701C700FD800000000000000008B
:100AE0001E000E000E000E000FF00E380E380E38ED
:100AF0000E380E380E381BF0000000000000000019
:100B000000000000000000000FE01C701C701C00C2
:100B10001C001C701C700FE00000000000000000B2
:100B200000F80070007000700FF01C701C701C70DA
:100B30001C701C701C700FD800000000000000002A
:100B400000000000000000000FE01C701C701FF08F
:100B50001C001C701C700FE0000000000000000072
:100B600003E007700770070007001FE01FE00700A1
:100B70000700070007001FC0000000000000000081
:100B800000000000000000000FD81C701C701C70DA
:100B90001C700FF007F000701C700FE000000000E8
:100BA0001E000E000E000E000EF00F380F380E382B
:100BB0000E380E380E381E3800000000000000000D
:100BC00001C001C001C000000FC001C001C001C0D0
:100BD00001C001C001C00FF80000000000000000CB
:100BE000007000700070000003F000700070007072
:100BF0000070007000701C700CF007E00000000036
:100C00001E000E000E000E000E380E700EE00FC01B
:100C10000EE00E700E381E380000000000000000CC
:100C20000FC001C001C001C001C001C001C001C0AE
:100C300001C001C001C00FF800000000000000006A
:100C400000000000000000001FF81C9C1C9C1C9C65
:100C50001C9C1C9C1C9C1C9C0000000000000000B4
:100C600000000000000000001FE01C701C701C70E1
:100C70001C701C701C701C70000000000000000044
:100C800000000000000000000FE01C701C701C70D1
:100C90001C701C701C700FE00000000000000000C1
:100CA00000000000000000001BF00E380E380E3867
:100CB0000E380E380FF00E000E001F00000000006E
:100CC00000000000000000001FB038E038E038E00D
:100CD00038E038E01FE000E000E001F00000000034
:100CE00000000000000000001EF00FF80F380E009A
:100CF0000E000E000E001F000000000000000000AB
:100D000000000000000000000FE01C301C300F80CD
:100D100003E0187018700FE00000000000000000F1
:100D200000000100030007001FF007000700070094
:100D300007000770077003E00000000000000000DB
:100D400000000000000000001C701C701C701C7073
:100D50001C701C701C700FD8000000000000000008
:100D600000000000000000001C701C701C701C7053
:100D70001C700EE007C003800000000000000000AF
:100D800000000000000000001C1C1C1C1C1C1C9C03
:100D90001C9C0FF8077007700000000000000000A6
:100DA00000000000000000001CE01CE00FC00780F5
:100DB00007800FC01CE01CE00000000000000000E5
:100DC00000000000000000000E380E380E380E380B
:100DD0000E3807F003E000E001C01F8000000000B3
:100DE00000000000000000001FE018E011C00380B8
:100DF00007000E201C601FE0000000000000000043
:100E000001F803800380038007001C001C0007001A
:100E100003800380038001F800000000000001C08F
:100E200001C001C001C001C001C001C001C001C0BA
:100E300001C001C001C001C001C0000000000000ED
:100E40001F8001C001C001C000E00038003800E090
:100E500001C001C001C01F800000000000000000B0
:100E60001F1C3B9C39DC38F800000000000000002B
:100E7000000000000000000000000000080C205FDF
:100E80000000000000000000000000000000202022
:100E900020202020002000000028505000000000EA
:100EA0000000000000002828FC2850FC50500000E2
:100EB000002078A8A0603028A8F02000000048A8F2
:100EC000B050283454480000000020505078A8A8A2
:100ED000906C000000404080000000000000000016
:100EE000000408101010101010080400004020101A
:100EF000101010101020400000000020A87070A8F2
:100F0000200000000000202020F820202000000009
:100F100000000000000000000040408000000000D1
:100F200000F80000000000000000000000000000C9
:100F300000400000000810101020204040408000B9
:100F40000000708888888888887000000000206011
:100F50002020202020700000000070888810204091
:100F600080F80000000070880830080888700000D1
:100F70000000103050509078101800000000F880E9
:100F800080F00808887000000000709080F0888869
:100F9000887000000000F890102020202020000021
:100FA0000000708888708888887000000000708851
:100FB00088887808487000000000000020000000C9
:100FC00000200000000000000020000000202000A1
:100FD0000004081020402010080400000000000059
:100FE000F80000F80000000000402010080408107D
:100FF00020400000000070888810202000200000A1
:101000000000708898A8A8B8807800000000202010
:101010003050507848CC00000000F04848704848F4
:1010200048F0000000007888808080808870000090
:101030000000F0484848484848F000000000F848E0
:101040005070504048F800000000F8485070504080
:1010500040E000000000384880809C884830000054
:101060000000CC484878484848CC00000000F820F0
:101070002020202020F8000000007C10101010100C
:101080001090E0000000EC485060505048EC000028
:101090000000E0404040404044FC00000000D8D840
:1010A000D8D8A8A8A8A800000000DC48686858584C
:1010B00048E80000000070888888888888700000F0
:1010C0000000F0484870404040E000000000708898
:1010D000888888E8987018000000F04848705048E8
:1010E00048EC0000000078888060100888F000005C
:1010F0000000F8A820202020207000000000CC482C
:1011000048484848483000000000CC48485050301B
:10111000202000000000A8A8A870505050500000E7
:101120000000D8505020205050D800000000D85067
:1011300050202020207000000000F8901020204057
:1011400048F80000003820202020202020203800EF
:1011500000404040202010101008000000701010C7
:10116000101010101010700000205000000000003F
:10117000000000000000000000000000000000FC73
:10118000002000000000000000000000000000003F
:1011900000304838483C00000000C04040704848DB
:1011A000487000000000000000384840403800004F
:1011B0000000180808384848483C000000000000BB
:1011C000003048784038000000001C2020782020A3
:1011D0002078000000000000003C4830407844388F
:1011E0000000C0404070484848EC0000000020006B
:1011F000006020202070000000001000003010105F
:10120000101010E00000C040405C507048EC00003E
:101210000000E0202020202020F800000000000036
:1012200000F0A8A8A8A800000000000000F04848AE
:1012300048EC000000000000003048484830000042
:101240000000000000F04848487040E00000000046
:10125000003848484838081C0000000000D86040AA
:1012600040E00000000000000078403008780000F6
:101270000000002020702020201800000000000046
:1012800000D84848483C00000000000000EC4850EE
:10129000302000000000000000A8A870505000009E
:1012A0000000000000D8502050D8000000000000CE
:1012B00000EC4850302020C00000000000781020D2
:1012C00020780000001810101020101010101800C6
:1012D00010101010101010101010101000602020AE
:1012E000201020202020600040A4180000000000F2
:1012F0000000000000000A0B02090C0D0E08070395
:1013000004010000000000000000000000000000D8
:1013100000000000000000000000000000000000CD
:10132000121110000000000000000000000000008A
:101330000000000000000000000001021020200852
:101340000810204010204080020102010804020120
:10135000010204081020408080402010080402018F
:1013600080040201804020100804020108040201E8
:10137000010204081020408001020408102040806F
:1013800005050505070508080808020202020A0A01
:10139000080804040404010101010101010103031F
:1013A000030303030303040707070C0C0C0C0C0CCA
:1013B0000C0C0202020206060606060606060B0BC7
:1013C0000B0B0B0B0B0B0000200023002600290049
:1013D0002C002F003200000100000301060109016A
:1013E00000002200250028002B002E0031003400D0
:1013F00002010000050108010B010000210024008A
:1014000027002A002D0030003300010100000401F4
:1014100007010A01090DA514A4161318CF0D6B15A9
:101420006A17441911241FBECFEFD1E2DEBFCDBF32
:1014300000E00CBF13E0A0E0B2E0E2E1F1E900E07F
:101440000BBF02C007900D92AE36B107D9F728E066
:10145000AEE6B3E001C01D92AA3DB207E1F71AE083
:10146000CEE0DAE000E006C021970109802FFE01FE
:101470000E94CA43CA30D10780E00807A9F70E943A
:10148000A3400C9478480C940000CF93DF93EC01B8
:10149000FFD31B8A1C8A80E090E0ACE5B3E48D8B1F
:1014A0009E8BAF8BB88F198E80E090E0A0E8B0E4FF
:1014B0008A8F9B8FAC8FBD8F1E8E80E090E8ABE350
:1014C000B6E48F8F98A3A9A3BAA388E28BA31CA22A
:1014D0001DA21EA21FA218A680E090E0A8E4B3E41B
:1014E00089A79AA7ABA7BCA784EB8DA780E090E063
:1014F000AAE7B3E48EA79FA7A8ABB9AB1AAA1BAA09
:101500001CAA1DAA8FEF8EAB1FAA18AE19AECE0172
:10151000CA96BED3CE01835B9F4FBAD3CE01805A09
:101520009F4FB6D3CE018D589F4FB2D3FE01EE56DA
:10153000FF4F81E0808331968083CA57DF4F188246
:1015400062E08EE0DF91CF910C941042FC01E857ED
:10155000FF4FA081B1819C919F5F9C930190F0818E
:10156000E02D8081853008F0108208950F931F933D
:10157000CF93DF93EC01FC01E857FF4F0190F0811E
:10158000E02D8081823009F451C0B8F4882371F1D4
:10159000813009F090C045E061E0CE01CA96AAD33F
:1015A00000E010E020EA31E440E050E060E87FE352
:1015B000CE01835B9F4F90D36EC0833009F460C02F
:1015C000843009F078C045E061E0CE01CA9692D33C
:1015D00045E061E0CE01835B9F4F8CD345E061E045
:1015E000CE01805A9F4F86D341E05CC041E061E06C
:1015F000CE01CA967FD300E010E020EA31E440E05B
:1016000050E060E87FE3CE01835B9F4F65D341E00C
:1016100061E0CE01805A9F4F6DD300E010E020E0E2
:1016200030E44DEC5CEC6CEC7DE325C000E010E0B8
:1016300020EA31E440E050E060E87FE3CE01CA9662
:101640004BD300E010E020EA31E440E050E060E8F5
:101650007FE3CE01835B9F4F3FD345E061E0CE0146
:10166000805A9F4F47D300E010E020EA31E440E089
:1016700050E060E87FE3CE018D589F4F2DD31BC013
:1016800045E061E0CE01CA9635D345E061E0CE0188
:10169000835B9F4F2FD345E061E0CE01805A9F4F7F
:1016A00029D345E061E0CE018D589F4FDF91CF9166
:1016B0001F910F911FC3DF91CF911F910F9108953B
:1016C0000F931F93CF93DF93EC01FC01E857FF4F7B
:1016D0007183608383E090E00E94B0408C0143E01E
:1016E00062E00E94BE19FE01E657FF4F118300839E
:1016F00042E1B801CE01CA96E7D283E090E00E94B1
:10170000B0408C0145E064E00E94BE19FE01E45740
:10171000FF4F1183008341E1B801CE01835B9F4FEE
:10172000D3D283E090E00E94B0408C0147E066E0B5
:101730000E94BE19FE01E257FF4F1183008340E172
:10174000B801CE01805A9F4FBFD283E090E00E9443
:10175000B0408C0149E068E00E94BE19FE01E057EC
:10176000FF4F118300834FE0B801CE018D589F4F8A
:10177000ABD2CE01DF91CF911F910F91F7CEEF92B7
:10178000FF920F931F93CF93DF93EC018EE00E94A3
:101790007A428E010E561F4F21E0892B09F420E07A
:1017A000F80120836AE070E080E090E00E94204130
:1017B000F80180819E012D563F4F790181110DC0A6
:1017C000F9018081882349F0CE01C0DEFE01EA578D
:1017D000FF4F81E08083CE01C9DEF8018081F701EF
:1017E0008083DF91CF911F910F91FF90EF9008952B
:1017F000C6CFCF92DF92EF92FF920F931F93CF93BA
:10180000DF93EC016C0188E8C80ED11CD601ED9184
:10181000FC918081823009F490C088F5882309F416
:1018200059C0813009F0ECC0BF01655F7F4F2FEFD9
:1018300040E0CE01CA96FDD2D6016D917C91645FE5
:101840007F4FE12C10E8F12E0BE316E420E030E0AE
:1018500040EF51E4CE01835B9F4F50D2F60160818F
:101860007181605F7F4F2FEF40E0CE01805A9F4F24
:10187000E0D2D6016D917C916F5E7F4FB3C0833013
:1018800009F48DC0843009F0BBC0BF016D5D7F4F8E
:101890002FEF40E0CE01CA96CCD2F6016081718173
:1018A0006C5D7F4F2FEF40E0CE01835B9F4FC1D235
:1018B000D6016D917C916B5D7F4F2FEF40E0CE01A3
:1018C000805A9F4FB6D2F601608171816A5D7F4F69
:1018D0002FE089C0BF016F5F7F4F23E040E0CE0162
:1018E000CA96A7D2F601608171816E5F7F4FE12CAD
:1018F00010E8F12E0BE316E420E030E040EF51E475
:10190000CE01835B9F4FFAD1D6016D917C916A5FC6
:101910007F4F23E040E0CE01805A9F4F8AD2F601EC
:1019200060817181695F7F4FE12CF12C00E412E44A
:101930002FE632E143E85AE32DC0BF016E5E7F4FD0
:10194000E12C10E8F12E0BEB15E420E030E0A901CA
:10195000CE01CA96D3D1F601608171816A5E7F4F54
:1019600020E030E0A901CE01835B9F4FC7D1D601B3
:101970006D917C91665E7F4F2FEF40E0CE01805AE3
:101980009F4F57D2F60160817181655E7F4F20E0E5
:1019900030E0A901CE018D589F4FB0D131C0BF01B9
:1019A000615E7F4F27E040E0CE01CA9642D2D60169
:1019B0006D917C91605E7F4F2FEF40E0CE01835BA5
:1019C0009F4F37D2F601608171816F5D7F4F2FEF9E
:1019D00040E0CE01805A9F4F2CD2D6016D917C9170
:1019E0006E5D7F4F2FEF40E0CE018D589F4FDF910E
:1019F000CF911F910F91FF90EF90DF90CF9019C280
:101A0000DF91CF911F910F91FF90EF90DF90CF90DA
:101A10000895CF93DF9366EA72E08EE294E00E942D
:101A200009436BEA72E084E394E00E94094360EBAF
:101A300072E08AE394E00E94094365EB72E080E47F
:101A400094E00E94094368EB72E086E494E00E940F
:101A500009436EEB72E086E194E00E94094364EC76
:101A600072E08CE194E00E9409436AEC72E082E249
:101A700094E00E94094364EC72E088E294E00E94E2
:101A800009436FEC72E08EEF93E00E94094364EC2F
:101A900072E084E094E00E94094365ED72E08AE020
:101AA00094E00E9409436AEC72E080E194E00E94B5
:101AB00009436AED72E086EE93E00E9409436FED00
:101AC00072E08CEE93E00E94094364EE72E082EFD4
:101AD00093E00E94094369EE72E088EF93E00E9470
:101AE00009436FEC72E08EEC93E00E9409436EEEC6
:101AF00072E084ED93E00E94094363EF72E08AEDA7
:101B000093E00E9409436AEC72E080EE93E00E9449
:101B100009436AEF72E086EB93E00E94094364E0B8
:101B200073E08CEB93E00E9409436CE073E082EC7D
:101B300093E00E94094365E173E088EC93E00E9422
:101B400009436DE173E08EE993E00E94094361E28D
:101B500073E084EA93E00E94094365E273E08AEA55
:101B600093E00E94094369E273E080EB93E00E94F6
:101B700009436DE273E08EE693E00E940943C0E002
:101B8000D0E026966AEA72E0CE0182599C4F0E940C
:101B90000943CA32D105A9F7DF91CF910895CF93B8
:101BA000DF93CEE9D3E02697CE010E94A24283E0E4
:101BB000CE36D807C1F780EB93E00E94A2428AEAB2
:101BC00093E00E94A24284EA93E00E94A2428EE93E
:101BD00093E00E94A24288EC93E00E94A24282EC31
:101BE00093E00E94A2428CEB93E00E94A24286EB1B
:101BF00093E00E94A24280EE93E00E94A2428AED0E
:101C000093E00E94A24284ED93E00E94A2428EECF7
:101C100093E00E94A24288EF93E00E94A24282EFEA
:101C200093E00E94A2428CEE93E00E94A24286EED4
:101C300093E00E94A24280E194E00E94A2428AE0E6
:101C400094E00E94A24284E094E00E94A2428EEFBF
:101C500093E00E94A24288E294E00E94A24282E2C3
:101C600094E00E94A2428CE194E00E94A24286E1AC
:101C700094E00E94A242CCE4D4E02697CE010E94D8
:101C8000A24284E0CE32D807C1F7DF91CF91089508
:101C9000CF93DF93EC010E94BD1980E090E0A0E8B3
:101CA000BFE38F839887A987BA8780E090E0A0E29E
:101CB000B1E48B879C87AD87BE8781E08F8784E006
:101CC000888BDF91CF910895FC01758364834683EF
:101CD00062E0842F0C9410420F931F93FC01478302
:101CE00050876187728703871487258736871F91FE
:101CF0000F910895FC016787408B08954F925F9282
:101D00006F927F928F929F92AF92BF92CF92DF920B
:101D1000EF92FF920F931F93CF93DF93EC016B0130
:101D200029013A018E810E947A4221E0892B09F42F
:101D300020E02A8B8C819D810E94D719898B80316C
:101D400089F58A89882329F06B857C858D859E8518
:101D500004C06F81788589859A85F601208131815B
:101D6000428153810E946A3E4B015C019201A301B2
:101D70000E94CE3E87FD0BC09701A801B401C501AA
:101D80000E94F13F18162CF44701580102C042018D
:101D90005301C401D501F60180839183A283B383EB
:101DA00081E08B838989803299F58A89882329F09B
:101DB0002B853C854D855E8504C02F8138854985FE
:101DC0005A85F60160817181828193810E94693E0A
:101DD0004B015C019B01AC01B201C3010E94F13FC8
:101DE00018165CF09401A501B701C8010E94CE3E0F
:101DF00087FF05C04701580102C042015301C401D9
:101E0000D501F60180839183A283B38381E08B8324
:101E1000DF91CF911F910F91FF90EF90DF90CF90C6
:101E2000BF90AF909F908F907F906F905F904F90FA
:101E300008958F929F92AF92BF92EF92FF920F936D
:101E40001F93CF93DF93EC017B01142F022F8E8120
:101E50000E947A4221E0892B09F420E02A8B8C81B0
:101E60009D810E94D719898B803129F58A89882321
:101E700011F0688901C06F8570E080E090E00E94F9
:101E8000063F4B015C01F701608170E080E090E06B
:101E90000E94083FA50194010E946A3E0E94DA3E1A
:101EA000611720F0061718F4602F01C0612FF701A9
:101EB000608381E08B838989803221F58A89882338
:101EC00011F0688901C06F8570E080E090E00E94A9
:101ED000063F4B015C01F701608170E080E090E01B
:101EE0000E94083FA50194010E94693E0E94DA3ECB
:101EF000611720F0102F601708F4162FF7011083D8
:101F000081E08B83DF91CF911F910F91FF90EF9034
:101F1000BF90AF909F908F900895FC011082118226
:101F200080E090E0ACE5B3E482839383A483B5833F
:101F3000168280E090E0A0E8B0E487839087A187D4
:101F4000B287138680E090E8ABE3B6E48487958798
:101F5000A687B78788E2808B118A128A138A148A2F
:101F6000158A80E090E0A8E4B3E4868B978BA08F7D
:101F7000B18F84EB828F80E090E0AAE7B3E4838F97
:101F8000948FA58FB68F178E10A211A212A28FEF79
:101F900083A314A215A216A280E687A788E780ABC8
:101FA00087E281AB08950F931F93FC0116A705A745
:101FB00070A767A352A741A734A723A71F910F912A
:101FC00008958F929F92AF92BF92CF92DF92EF923D
:101FD000FF920F931F93CF93DF9300D000D0CDB724
:101FE000DEB77C01DC019B966D917C919C97979666
:101FF0008D919C9198970E940E3E60E078EFF701DA
:1020000087A190A50E948536D701D1960C91D197D2
:1020100010E02FED31E040E050E060E070E0979696
:102020008D919C9198970E945F378CE0A82E85E057
:10203000B82EC12CD12CD7019D96ED91FC919E9785
:10204000208130E097968D919C919897F60131967A
:102050004F0160E070E02C153D0509F456C00E9468
:102060008536D7019F968C919F9790E0D1960C91E1
:10207000D19710E003501109889E9001899E300D80
:10208000989E300D1124235031098C9DB0018D9DF7
:10209000700D9C9D700D11246D5F7F4F43E050E0EB
:1020A00097968D919C9198970E945F3760E078EFAA
:1020B000F70187A190A50E94853640E050E0BA0163
:1020C000D70197968D919C9198970E948936F70138
:1020D00027A52C9DC0012D9D900D11246C01F3E0CE
:1020E000CF0ED11CB501CE0101960E94324300E013
:1020F00010E02AE030E0A601BE016F5F7F4FD701FC
:1021000097968D919C91989727C00E94853640E0C4
:1021100058EF6FEF7FEFF70187A190A50E948936F6
:10212000D7019F962C912C9DC0012D9D900D1124BF
:102130006C01B3E0CB0ED11CB501CE0101960E941B
:10214000324300E010E02AE030E0A601BE016F5FFC
:102150007F4FF70187A190A50E945F3CCE010196B9
:102160000E94A2426401F6E0AF0EB11C25E0821687
:10217000910409F060CF26960FB6F894DEBF0FBE2B
:10218000CDBFDF91CF911F910F91FF90EF90DF9026
:10219000CF90BF90AF909F908F9008954F925F9295
:1021A0006F927F928F929F92AF92BF92CF92DF9267
:1021B000EF92FF920F931F93CF93DF9300D000D045
:1021C000CDB7DEB77C015B01C12CD12C8DE4482E4C
:1021D0005524539460E078EFF70187A190A50E9401
:1021E000853640E050E0BA01F70187A190A50E9432
:1021F0008936F70181A93201681A710880A98C9D7E
:1022000040018D9D900C1124F5E08F0E911CB501BD
:10221000CE0101960E94324300E010E09301A40138
:10222000BE016F5F7F4FF70187A190A50E945F3CC1
:10223000CE0101960E94A242FFEFCF1ADF0A86E08C
:10224000A80EB11CE4E0CE16D10421F626960FB6F6
:10225000F894DEBF0FBECDBFDF91CF911F910F91DC
:10226000FF90EF90DF90CF90BF90AF909F908F90B6
:102270007F906F905F904F900895CF92DF92EF9292
:10228000FF920F931F93CF93DF93EC0169A57AA57B
:102290008FA198A50E940E3E60E078EF8FA198A5CF
:1022A0000E94853689A94FE351E0481B51090FE38D
:1022B00011E02FED31E060E070E08FA198A50E9461
:1022C0005F3760E070E08FA198A50E948536E12C11
:1022D000F12C82E4C82EDD24D39488A990E02FEF5E
:1022E000E21AF20A8E9DB0018F9D700D9E9D700DB9
:1022F00011249B012350310949A9F601E41BF1097E
:10230000AF01681B790B6D5F7F4F0CE311E08FA16C
:1023100098A50E945F37F4E0EF16F104F1F6EDA501
:10232000FEA58081823091F038F4882361F08130FD
:10233000E1F46CED74E00FC0833059F08430A9F4FF
:1023400064E974E008C064EF74E005C064EC74E014
:1023500002C06CEA74E0CE01DF91CF911F910F9122
:10236000FF90EF90DF90CF9019CFDF91CF911F9129
:102370000F91FF90EF90DF90CF900895CF93DF9370
:10238000EC017BDFCE01DF91CF911BCE2F923F92EC
:102390004F925F926F927F928F92AF92BF92CF9245
:1023A000DF92EF92FF920F931F93CF93DF9300D0B2
:1023B00000D0CDB7DEB73C01DC0199966D917C91E0
:1023C0009A9797968D919C9198970E940E3E60E007
:1023D00078EFF30187A190A50E94853640E050E098
:1023E000BA01D30197968D919C9198970E94893656
:1023F000D3019D96ED91FC919E978081823009F4E6
:1024000094C108F07FC0882309F4F0C0813009F03E
:1024100084C2D301D1968C91D1979DE4492E552445
:1024200053948201081B1109D0962C91D0972695C0
:1024300030E02D5F3F4F438550E060E070E0E0E228
:10244000CE2EE12CF12C97968D919C9198970E941D
:10245000A43CF30180A991A97201E91AF108082F9F
:1024600010E00D5F1F4F8695080F111D05A4F6A5FE
:10247000E02D4485558566857785F0E28F2EA12C69
:10248000B12CAEE2CA2E21E0D30197968D919C919A
:1024900098970E948B3DF30180A991A98201091BA5
:1024A0001109282F30E0220F331F2D5F3F4F8695F3
:1024B000280F311D05A4F6A5E02D408950E060E00D
:1024C00070E080E2C82EE12CF12CD30197968D911B
:1024D0009C9198970E94A43CF30180A991A9820144
:1024E000091B1109F3E08F9F900111242D5F3F4FCD
:1024F0008695280F311DD3019D96ED91FC919E97F5
:10250000418902C2833009F492C1843009F005C2C6
:10251000D301D1968C91D1979DE4492E55245394A3
:102520008201081B1109D0962C91D097269530E096
:102530002D5F3F4F43A150E060E070E0E0E2CE2E1F
:10254000E12CF12C97968D919C9198970E94A43C38
:10255000F30180A991A98201091B1109282F30E0FC
:102560002D5F3F4F8695280F311D05A4F6A5E02D60
:1025700044A150E060E070E0D30197968D919C916A
:1025800098970E94A43CF30180A991A98201091B9C
:102590001109282F30E0220F331F2D5F3F4F869502
:1025A000280F311D05A4F6A5E02D45A150E060E0FF
:1025B00070E0D30197968D919C9198970E94A43CCE
:1025C000F30180A991A98201091B1109F3E08F9FF2
:1025D000900111242D5F3F4F8695280F311DD301A7
:1025E0009D96ED91FC919E9746A18EC1D301D19607
:1025F0008C91D1979DE4292E332433947101E81AEC
:10260000F108D0964C904694512CB3E04B0E511CDF
:10261000618126E0D22ED69EB001112464587B4FF2
:10262000CE0101960E94324300E010E09701A20122
:10263000BE016F5F7F4FF30187A190A50E945F3CB1
:10264000CE0101960E94A242D301D0968C91D097E0
:10265000D1969C91D1977101E91AF108082F10E0E9
:102660000D5F1F4F8695080F111D9D96ED91FC91F2
:102670009E97428153816481758130E2832EA12C23
:10268000B12CEEE2CE2E21E097968D919C919897F9
:102690000E948B3DF30181A97101E81AF10880A91C
:1026A000482E512C440C551CF3E04F0E511C8695BE
:1026B000480E511CD3019D96ED91FC919E97668129
:1026C000D69EB001112464587B4FCE0101960E9422
:1026D000324300E010E09701A201BE016F5F7F4F1F
:1026E000F30187A190A50E945F3CCE0101960E9454
:1026F000A242D301D0968C91D097D1969C91710132
:10270000E91AF108B3E08B9F800111240D5F1F4F80
:102710008695080F111DD3019D96ED91FC919E9712
:1027200047815085618572857AC0D301D1968C919D
:10273000D1972DE4422E552453947201E81AF108E2
:10274000D0960C91D097069510E00D5F1F4F4289EF
:1027500053896489758930E2832EA12CB12CEEE275
:10276000CE2E21E097968D919C9198970E948B3D5B
:10277000F30180A991A97201E91AF108082F10E06C
:102780000D5F1F4F8695080F111D05A4F6A5E02DBE
:1027900046895789608D718D21E0D30197968D917F
:1027A0009C9198970E948B3DF30180A991A9820189
:1027B000091B1109282F30E0220F331F2D5F3F4FD7
:1027C0008695280F311D05A4F6A5E02D428D50E019
:1027D00060E070E0B0E2CB2EE12CF12CD3019796B3
:1027E0008D919C9198970E94A43CF30180A991A996
:1027F0007201E91AF108F3E08F9F800111240D5F47
:102800001F4F8695080F111DD3019D96ED91FC91E8
:102810009E97438D548D658D768D8EE2C82E21E076
:1028200097968D919C9198970E948B3D76C0D3018D
:10283000D1968C91D1971DE4412E55245394820159
:10284000081B1109D0962C91D097269530E02D5F6A
:102850003F4F478D50E060E070E080E2C82EE12CF1
:10286000F12C97968D919C9198970E94A43CF3012E
:1028700080A991A98201091B1109282F30E02D5F41
:102880003F4F8695280F311D05A4F6A5E02D40A1E8
:1028900050E060E070E0D30197968D919C919897FD
:1028A0000E94A43CF30180A991A98201091B11098E
:1028B000282F30E0220F331F2D5F3F4F8695280FC2
:1028C000311D05A4F6A5E02D41A150E060E070E0C7
:1028D000D30197968D919C9198970E94A43CF30107
:1028E00080A991A98201091B1109F3E08F9F900132
:1028F00011242D5F3F4F8695280F311DD3019D96E2
:10290000ED91FC919E9742A150E060E070E09796B7
:102910008D919C9198970E94A43C26960FB6F894AE
:10292000DEBF0FBECDBFDF91CF911F910F91FF9002
:10293000EF90DF90CF90BF90AF908F907F906F908F
:102940005F904F903F902F900895CF93DF9366EA6A
:1029500072E08CE095E00E9409436BEA72E082E14C
:1029600095E00E94094360EB72E088E195E00E94E7
:10297000094365EB72E08EE195E00E94094368EB44
:1029800072E084E295E00E9409436EEB72E084EF0E
:1029900094E00E94094364EC72E08AEF94E00E94A4
:1029A00009436AEC72E080E095E00E94094364EC20
:1029B00072E086E095E00E9409436FEC72E08CEDD6
:1029C00094E00E94094364EC72E082EE94E00E947D
:1029D000094365ED72E088EE94E00E9409436AECD9
:1029E00072E08EEE94E00E9409436AED72E084EC9E
:1029F00094E00E9409436FED72E08AEC94E00E943B
:102A0000094364EE72E080ED94E00E94094369EEB0
:102A100072E086ED94E00E9409436FEC72E08CEA6C
:102A200094E00E9409436EEE72E082EB94E00E9413
:102A3000094363EF72E088EB94E00E9409436AEC7B
:102A400072E08EEB94E00E9409436AEF72E084E941
:102A500094E00E94094364E073E08AE994E00E94F4
:102A600009436CE073E080EA94E00E94094365E169
:102A700073E086EA94E00E9409436DE173E08CE71D
:102A800094E00E94094361E273E082E894E00E94CE
:102A9000094365E273E088E894E00E94094369E233
:102AA00073E08EE894E00E9409436DE273E08CE4E9
:102AB00094E00E940943C0E0D0E026966AEA72E002
:102AC000CE01845B9B4F0E940943CA32D105A9F70E
:102AD000DF91CF910895CF93DF93CCE7D4E0269791
:102AE000CE010E94A24284E0CC34D807C1F78EE820
:102AF00094E00E94A24288E894E00E94A24282E808
:102B000094E00E94A2428CE794E00E94A24286EAEE
:102B100094E00E94A24280EA94E00E94A2428AE9E4
:102B200094E00E94A24284E994E00E94A2428EEBCB
:102B300094E00E94A24288EB94E00E94A24282EBC1
:102B400094E00E94A2428CEA94E00E94A24286EDA8
:102B500094E00E94A24280ED94E00E94A2428AEC9E
:102B600094E00E94A24284EC94E00E94A2428EEE85
:102B700094E00E94A24288EE94E00E94A24282EE7B
:102B800094E00E94A2428CED94E00E94A24286E072
:102B900095E00E94A24280E095E00E94A2428AEF66
:102BA00094E00E94A24284EF94E00E94A242CAE212
:102BB000D5E02697CE010E94A24285E0CC30D8070E
:102BC000C1F7DF91CF910895CF93DF93EC010E947D
:102BD0009C1FCE01C196A1D9CE018D599F4F0E9455
:102BE000293ECE018C569F4F0E949C1FCE018B53D5
:102BF0009F4F93D9CE0189509F4FDF91CF910C9475
:102C0000293E8F929F92AF92BF92CF92DF92EF9226
:102C1000FF920F931F93CF93DF93EC015C0182E946
:102C2000A80EB11CD5016D937C9381E390E00E94C6
:102C3000B0404C01C12CD12C89E2E82EF12C08E2E5
:102C400010E027E230E046E250E065E1C4010E9476
:102C50009D1F7E01B4E9EB0EF11C81E3F401D70165
:102C600001900D928A95E1F761E0C7010E94EC2284
:102C7000CB53DF4FD501ED91FC91E857FF4F008119
:102C8000118128E932E04CE75EE0B701CE018BD933
:102C9000C7010E94E935CE0171DBCE01DF91CF91F2
:102CA0001F910F91FF90EF90DF90CF90BF90AF906A
:102CB0009F908F906BCBEF92FF920F931F93CF93C8
:102CC000DF938C01EC01CE56DF4FE881F981EA57A2
:102CD000FF4F8081882369F0780185ECE80EF11CB4
:102CE000C7014CDBC70152DBE881F981EA57FF4F8E
:102CF0001082E881F98185AD81110FC0DF01A05BF1
:102D0000BF4F8C91811109C053968C91811105C0E0
:102D1000EA58FF4F8081882381F0C8018B539F4F71
:102D200035DBE881F98115AEDF01A05BBF4F1C9256
:102D300053961C92EA58FF4F1082DF91CF911F915A
:102D40000F91FF90EF900895CF93DF9366EA72E0C2
:102D50008AEE95E00E9409436BEA72E080EF95E00D
:102D60000E94094360EB72E086EF95E00E94094300
:102D700065EB72E08CEF95E00E94094368EB72E02E
:102D800082E096E00E9409436EEB72E082ED95E0EE
:102D90000E94094364EC72E088ED95E00E940943CB
:102DA0006AEC72E08EED95E00E94094364EC72E0FB
:102DB00084EE95E00E9409436FEC72E08AEB95E0A7
:102DC0000E94094364EC72E080EC95E00E940943A4
:102DD00065ED72E086EC95E00E9409436AEC72E0D2
:102DE0008CEC95E00E9409436AED72E082EA95E07E
:102DF0000E9409436FED72E088EA95E00E94094362
:102E000064EE72E08EEA95E00E94094369EE72E09A
:102E100084EB95E00E9409436FEC72E08AE895E04C
:102E20000E9409436EEE72E080E995E00E9409433A
:102E300063EF72E086E995E00E9409436AEC72E074
:102E40008CE995E00E9409436AEF72E082E795E021
:102E50000E94094364E073E088E795E00E9409431B
:102E60006CE073E08EE795E00E94094365E173E052
:102E700084E895E00E9409436DE173E08AE595E0FE
:102E80000E94094361E273E080E695E00E940943F5
:102E900065E273E086E695E00E94094369E273E02B
:102EA0008CE695E00E9409436DE273E08AE295E0CA
:102EB0000E940943C0E0D0E026966AEA72E0CE01A3
:102EC000865D9A4F0E940943CA32D105A9F7DF9166
:102ED000CF910895CF93DF93CAE5D5E02697CE0131
:102EE0000E94A24285E0CA32D807C1F78CE695E07D
:102EF0000E94A24286E695E00E94A24280E695E00A
:102F00000E94A2428AE595E00E94A24284E895E0F0
:102F10000E94A2428EE795E00E94A24288E795E0D7
:102F20000E94A24282E795E00E94A2428CE995E0CD
:102F30000E94A24286E995E00E94A24280E995E0C3
:102F40000E94A2428AE895E00E94A24284EB95E0AA
:102F50000E94A2428EEA95E00E94A24288EA95E091
:102F60000E94A24282EA95E00E94A2428CEC95E087
:102F70000E94A24286EC95E00E94A24280EC95E07D
:102F80000E94A2428AEB95E00E94A24284EE95E064
:102F90000E94A2428EED95E00E94A24288ED95E04B
:102FA0000E94A24282ED95E00E94A242C8E0D6E0D3
:102FB0002697CE010E94A24285E0CA3ED807C1F7FB
:102FC000DF91CF9108958EE297E00C94F90B62ECBB
:102FD00077E08EE297E00E94600B6EE277E088E097
:102FE00096E00FDE48EE53E060E070E087EC98E09A
:102FF00092D22FEF3FEFA90163EE77E187EC98E0E3
:103000009FC28EE297E00E94F80B87EC98E089D28D
:1030100088E096E050DE2FEF3FEFA90163EE77E105
:1030200087EC98E08DC2CF93DF9366EA72E089EA7D
:1030300098E00E9409436BEA72E08FEA98E00E94F0
:10304000094360EB72E085EB98E00E94094365EB71
:1030500072E08BEB98E00E94094368EB72E081EC30
:1030600098E00E9409436EEB72E081E998E00E94CB
:10307000094364EC72E087E998E00E9409436AEC36
:1030800072E08DE998E00E94094364EC72E083EA03
:1030900098E00E9409436FEC72E089E798E00E9493
:1030A000094364EC72E08FE798E00E94094365ED04
:1030B00072E085E898E00E9409436AEC72E08BE8D0
:1030C00098E00E9409436AED72E081E698E00E9470
:1030D00009436FED72E087E698E00E94094364EED1
:1030E00072E08DE698E00E94094369EE72E083E7A2
:1030F00098E00E9409436FEC72E089E498E00E9436
:1031000009436EEE72E08FE498E00E94094363EF9A
:1031100072E085E598E00E9409436AEC72E08BE575
:1031200098E00E9409436AEF72E081E398E00E9410
:10313000094364E073E087E398E00E9409436CE090
:1031400073E08DE398E00E94094365E173E083E456
:1031500098E00E9409436DE173E089E198E00E94E4
:10316000094361E273E08FE198E00E94094365E260
:1031700073E085E298E00E94094369E273E08BE224
:1031800098E00E9409436DE273E089EE97E00E94A7
:103190000943C0E0D0E026966AEA72E0CE0187518A
:1031A000984F0E940943CA32D105A9F71092C2076D
:1031B0001092C30780E090E0ACE5B3E48093C407CD
:1031C0009093C507A093C607B093C7071092C8078E
:1031D00080E090E0A0E8B0E48093C9079093CA072C
:1031E000A093CB07B093CC071092CD0780E090E876
:1031F000ABE3B6E48093CE079093CF07A093D007BC
:10320000B093D10788E28093D2071092D30710922F
:10321000D4071092D5071092D6071092D70780E0F6
:1032200090E0A8E4B3E48093D8079093D907A093E3
:10323000DA07B093DB0784EB8093DC0780E090E053
:10324000AAE7B3E48093DD079093DE07A093DF073E
:10325000B093E0071092E1071092E2071092E307A3
:103260001092E4078FEF8093E5071092E607109223
:10327000E7071092E8078EE297E00E94450A88E08F
:1032800096E0DF91CF91A0CCCF93DF93C9E1D8E056
:103290002697CE010E94A24287E0C93ED807C1F717
:1032A0008BE298E00E94A24285E298E00E94A2424E
:1032B0008FE198E00E94A24289E198E00E94A24238
:1032C00083E498E00E94A2428DE398E00E94A2422B
:1032D00087E398E00E94A24281E398E00E94A24224
:1032E0008BE598E00E94A24285E598E00E94A24208
:1032F0008FE498E00E94A24289E498E00E94A242F2
:1033000083E798E00E94A2428DE698E00E94A242E4
:1033100087E698E00E94A24281E698E00E94A242DD
:103320008BE898E00E94A24285E898E00E94A242C1
:103330008FE798E00E94A24289E798E00E94A242AB
:1033400083EA98E00E94A2428DE998E00E94A2429E
:1033500087E998E00E94A24281E998E00E94A24297
:10336000C7ECD8E02697CE010E94A24288E0C93A75
:10337000D807C1F7DF91CF9108950895CF93DF93D8
:10338000EC01862F69834A8360E00E94104260E06E
:103390008A810E94104261E089810E944C4261E072
:1033A0008A810E944C421882DF91CF9108950F9339
:1033B0001F93CF93DF93EC018A810E947A428C01A4
:1033C00089810E947A42E881EF70000F111F802BE3
:1033D00094E0E99FF0011124EE5AFC4FE80FF11D33
:1033E000808188838073DF91CF911F910F91089521
:1033F0001F920F920FB60F9211240BB60F922F93BC
:103400003F934F935F936F937F938F939F93AF936C
:10341000BF93EF93FF93E091CB08F091CC081995FF
:10342000FF91EF91BF91AF919F918F917F916F919C
:103430005F914F913F912F910F900BBE0F900FBE58
:103440000F901F901895FC01A3E0440F551F661FB5
:10345000771FAA95D1F74115510581E068077105DD
:1034600014F481E00EC033E0759567955795479544
:103470003A95D1F74115510581E0680771051CF4B3
:1034800082E0828331C023E0759567955795479513
:103490002A95D1F74115510581E06807710514F4AB
:1034A00083E0EFCF92E075956795579547959A958C
:1034B000D1F74115510581E06807710514F484E0E6
:1034C000E0CF82E075956795579547958A95D1F736
:1034D00085E082834115510581E06807710524F07C
:1034E0004FEF5FEF60E070E08FB78383F894518314
:1034F0004083509387004093860083818FBF8091E3
:103500008100887F80938100909181008281892B46
:103510008093810008951092800020E12093810023
:1035200092CFEFE6F0E080818E7F80830895E1E81E
:10353000F0E02081DC0112968C91822B808308952B
:103540000F931F93CF93DF93EC018B01BA01A90175
:1035500014161506160617060CF475DF1D830C836A
:1035600081E080936F00CE01DF91CF911F910F9189
:10357000DECFFC01283009F4EEC018F4213041F010
:103580000895203109F4F7C0213109F402C10895EA
:1035900087858430C1F4A08DB18D82A19C9161306A
:1035A00011F4892B02C0809589238C93A28DB38D51
:1035B0009C9183A1809589238C93A28DB38D9C913E
:1035C00083A1892B08C0A089B189868D9C91613027
:1035D000C1F3809589238C93A08DB18D82A19C919C
:1035E00047FF02C0892B02C0809589238C93A28D4E
:1035F000B38D9C9183A1809589238C93A28DB38DEB
:103600009C9183A1892B8C93A08DB18D82A19C91DB
:1036100046FF02C0892B02C0809589238C93A28D1E
:10362000B38D9C9183A1809589238C93A28DB38DBA
:103630009C9183A1892B8C93A08DB18D82A19C91AB
:1036400045FF02C0892B02C0809589238C93A28DEF
:10365000B38D9C9183A1809589238C93A28DB38D8A
:103660009C9183A1892B8C93A08DB18D82A19C917B
:1036700044FF02C0892B02C0809589238C93A28DC0
:10368000B38D9C9183A1809589238C93A28DB38D5A
:103690009C9183A1892B8C93A08DB18D82A19C914B
:1036A00043FF02C0892B02C0809589238C93A28D91
:1036B000B38D9C9183A1809589238C93A28DB38D2A
:1036C0009C9183A1892B8C93A08DB18D82A19C911B
:1036D00042FF02C0892B02C0809589238C93A28D62
:1036E000B38D9C9183A1809589238C93A28DB38DFA
:1036F0009C9183A1892B8C93A08DB18D82A19C91EB
:1037000041FF02C0892B02C0809589238C93A28D32
:10371000B38D9C9183A1809589238C93A28DB38DC9
:103720009C9183A1892B8C93A08DB18D82A19C91BA
:1037300040FF02C0892B02C0809589238C93A28D03
:10374000B38D9C9183A1809589238C93A28DB38D99
:103750009C9183A1A2C062B9A289B3899C91878DF3
:10376000809589238C93A289B3899C91878D892B1D
:103770008C9342B902C062B948B9A289B3899C91BD
:10378000878D809589238C93A289B3899C91878D9D
:1037900084C0A59894B3862F8071880F892B84BB31
:1037A00080910201877E8093020190910201862F11
:1037B000807C869586958695892B809302018EB1B3
:1037C000847C8EB99EB1262F2C70220F220F862F5B
:1037D0008370280F862F8072682F70E0759567952B
:1037E00075956795620F692B6EB9A48DB58D9C9107
:1037F00084A1809589238C93A48DB58D9C9184A1FF
:10380000892B8C93A48DB58D9C9184A1809589235F
:103810008C93A489B5899C9180A1809589238C93F0
:10382000A59894B3842F8071880F892B84BB8091D5
:103830000201877E8093020190910201842F807C97
:10384000869586958695892B809302018EB1847C1E
:103850008EB99EB1242F2C70220F220F842F8370DB
:10386000280F842F8072482F50E055954795559525
:103870004795420F492B4EB9A289B3899C91878DF8
:10388000809589238C93A289B3899C91878D892BFC
:103890008C93A489B5899C9180A1892B8C930895E0
:1038A000613131F08FEF81B9603149F487B9089502
:1038B00088E18093010180E283BB8BE38DB9089599
:1038C0008F929F92AF92BF92CF92DF92EF92FF9230
:1038D0000F931F93CF93DF93EC016801790162B9D5
:1038E00048B9C901B80120E130E040E050E00E9451
:1038F000AE4349015A0180E090E0DC01881599054A
:10390000AA05BB050CF0D4C0EA89FB8930812F8D54
:10391000209523232083EA89FB8930812F8D232B57
:103920002083EA89FB8930812F8D209523232083F2
:10393000EA89FB8930812F8D232B2083EA89FB893B
:1039400030812F8D209523232083EA89FB893081C4
:103950002F8D232B2083EA89FB8930812F8D2095A1
:1039600023232083EA89FB8930812F8D232B208319
:10397000EA89FB8930812F8D209523232083EA89D2
:10398000FB8930812F8D232B2083EA89FB893081AD
:103990002F8D209523232083EA89FB8930812F8D69
:1039A000232B2083EA89FB8930812F8D20952323C7
:1039B0002083EA89FB8930812F8D232B2083EA899C
:1039C000FB8930812F8D209523232083EA89FB8971
:1039D00030812F8D232B2083EA89FB8930812F8D25
:1039E000209523232083EA89FB8930812F8D232B87
:1039F0002083EA89FB8930812F8D20952323208322
:103A0000EA89FB8930812F8D232B2083EA89FB896A
:103A100030812F8D209523232083EA89FB893081F3
:103A20002F8D232B2083EA89FB8930812F8D2095D0
:103A300023232083EA89FB8930812F8D232B208348
:103A4000EA89FB8930812F8D209523232083EA8901
:103A5000FB8930812F8D232B2083EA89FB893081DC
:103A60002F8D209523232083EA89FB8930812F8D98
:103A7000232B2083EA89FB8930812F8D20952323F6
:103A80002083EA89FB8930812F8D232B2083EA89CB
:103A9000FB8940813F8D309534233083EA89FB894F
:103AA00020813F8D322B30830196A11DB11D26CF81
:103AB000D701C6018F709927AA27BB27892B8A2B8C
:103AC0008B2B19F1C701B60120E130E040E050E056
:103AD0000E94AE43C12CD12C76016C157D058E055C
:103AE0009F059CF0EA89FB8930812F8D2095232347
:103AF0002083EA89FB8930812F8D232B20832FEFB0
:103B0000C21AD20AE20AF20AE8CFDF91CF911F91DE
:103B10000F91FF90EF90DF90CF90BF90AF909F906C
:103B20008F9008958F929F92AF92BF92CF92DF9223
:103B3000EF92FF92CF93DF93EC0169017A0162B9B2
:103B4000CA01B90120E130E040E050E00E94AE43FC
:103B500049015A0180E090E0DC0188159905AA0529
:103B6000BB050CF0A4C1EA89FB8930812F8D20951B
:103B700023232083EA89FB8930812F8D232B208307
:103B8000EA89FB8930812F8D209523232083EA89C0
:103B9000FB8930812F8D232B2083EA89FB8930819B
:103BA0002F8D209523232083EA89FB8930812F8D57
:103BB000232B2083EA89FB8930812F8D20952323B5
:103BC0002083EA89FB8930812F8D232B2083EA898A
:103BD000FB8930812F8D209523232083EA89FB895F
:103BE00030812F8D232B2083EA89FB8930812F8D13
:103BF000209523232083EA89FB8930812F8D232B75
:103C00002083EA89FB8930812F8D2095232320830F
:103C1000EA89FB8930812F8D232B2083EA89FB8958
:103C200030812F8D209523232083EA89FB893081E1
:103C30002F8D232B2083EA89FB8930812F8D2095BE
:103C400023232083EA89FB8930812F8D232B208336
:103C5000EA89FB8930812F8D209523232083EA89EF
:103C6000FB8930812F8D232B2083EA89FB893081CA
:103C70002F8D209523232083EA89FB8930812F8D86
:103C8000232B2083EA89FB8930812F8D20952323E4
:103C90002083EA89FB8930812F8D232B2083EA89B9
:103CA000FB8930812F8D209523232083EA89FB898E
:103CB00030812F8D232B2083EA89FB8930812F8D42
:103CC000209523232083EA89FB8930812F8D232BA4
:103CD0002083EA89FB8930812F8D2095232320833F
:103CE000EA89FB8930812F8D232B2083EA89FB8988
:103CF00030812F8D209523232083EA89FB89308111
:103D00002F8D232B2083EA89FB8930812F8D2095ED
:103D100023232083EA89FB8930812F8D232B208365
:103D2000EA89FB8930812F8D209523232083EA891E
:103D3000FB8930812F8D232B2083EA89FB893081F9
:103D40002F8D209523232083EA89FB8930812F8DB5
:103D5000232B2083EA89FB8930812F8D2095232313
:103D60002083EA89FB8930812F8D232B2083EA89E8
:103D7000FB8930812F8D209523232083EA89FB89BD
:103D800030812F8D232B2083EA89FB8930812F8D71
:103D9000209523232083EA89FB8930812F8D232BD3
:103DA0002083EA89FB8930812F8D2095232320836E
:103DB000EA89FB8930812F8D232B2083EA89FB89B7
:103DC00030812F8D209523232083EA89FB89308140
:103DD0002F8D232B2083EA89FB8930812F8D20951D
:103DE00023232083EA89FB8930812F8D232B208395
:103DF000EA89FB8930812F8D209523232083EA894E
:103E0000FB8930812F8D232B2083EA89FB89308128
:103E10002F8D209523232083EA89FB8930812F8DE4
:103E2000232B2083EA89FB8930812F8D2095232342
:103E30002083EA89FB8930812F8D232B2083EA8917
:103E4000FB8930812F8D209523232083EA89FB89EC
:103E500030812F8D232B2083EA89FB8930812F8DA0
:103E6000209523232083EA89FB8930812F8D232B02
:103E70002083EA89FB8930812F8D2095232320839D
:103E8000EA89FB8930812F8D232B2083EA89FB89E6
:103E900040813F8D309534233083EA89FB8920812E
:103EA0003F8D322B30830196A11DB11D56CED70117
:103EB000C6018F709927AA27BB27892B8A2B8B2BAA
:103EC00081F1C701B60120E130E040E050E00E94FE
:103ED000AE43C12CD12C76016C157D058E059F0556
:103EE00004F1EA89FB8930812F8D209523232083DB
:103EF000EA89FB8930812F8D232B2083EA89FB8976
:103F000030812F8D209523232083EA89FB893081FE
:103F10002F8D232B20832FEFC21AD20AE20AF20A36
:103F2000DBCFDF91CF91FF90EF90DF90CF90BF90EC
:103F3000AF909F908F90089508954F925F926F92E7
:103F40007F928F929F92AF92BF92CF92DF92EF9229
:103F5000FF920F931F93CF93DF93CDB7DEB7C05A75
:103F6000D1090FB6F894DEBF0FBECDBF70E4E6E016
:103F7000F2E0DE01AF5BBF4F01900D927A95E1F761
:103F800070E4E6E4F2E0DE01119601900D927A957C
:103F9000E1F770E2E6E8F2E0DE01AF57BF4F0190D3
:103FA0000D927A95E1F7E62FF0E05F01AA0CBB1CB9
:103FB000A1E4B0E0AC0FBD1FAA0DBB1D0D90BC91DC
:103FC000A02D2D01612C712CDC0115964D925D9276
:103FD0006D927C921897A1E0B0E0AC0FBD1FAA0DC6
:103FE000BB1D0D90BC91A02D4D01A12CB12CDC016D
:103FF00019968D929D92AD92BC921C97A1E8B0E06B
:10400000AC0FBD1FEA0FFB1F7081FC01768765872F
:1040100045A326A307A3E0A6C1A6743019F461E066
:1040200066877787DC011E966C911E97653031F4A8
:1040300071E01E967C931E971F966C93FC0166851B
:10404000613009F498C049013A015C0129DCF301AF
:10405000E058FC4EE491F0E0EE0FFF1FE052FC4E02
:1040600025913491D50151963C932E935097F301AD
:10407000E65CFC4EE4915E96EC935E97F401E058AA
:10408000FC4EE491F0E0EE0FFF1FE052FC4E259154
:104090003491F501338B228BF401E65CFC4EE49104
:1040A0005F96EC935F97C801F801E058FC4EE491ED
:1040B000F0E0EE0FFF1FE052FC4E25913491F50128
:1040C000358B248BFC01E65CFC4EE4919096EC93DE
:1040D0009097F701E058FC4EE491F0E0EE0FFF1FDF
:1040E000E052FC4E85919491F501978B868BF701F8
:1040F000E65CFC4EE4909196EC9291971E968C9122
:10410000813109F0ADC0F601E058FC4EE491F0E0D9
:10411000EE0FFF1FE052FC4EA591B491F501B58F53
:10412000A48FF601E65CFC4E9491F50194A38C916A
:10413000E92FE095E823EC9361E088E00E941042CB
:1041400060E088E0C056DF4F0FB6F894DEBF0FBEC8
:10415000CDBFDF91CF911F910F91FF90EF90DF9036
:10416000CF90BF90AF909F908F907F906F905F9017
:104170004F900C944C42BA01FA01E058FC4EE49185
:10418000F0E0EE0FFF1FE052FC4E45915491DC0130
:1041900059965C934E935897FB01E65CFC4EE49174
:1041A0009296EC939297A901F901E058FC4EE491A4
:1041B000F0E0EE0FFF1FE052FC4E25913491FC0120
:1041C000338F228FFA01E65CFC4EE4919396EC93D8
:1041D0009397F801E058FC4EE491F0E0EE0FFF1FDA
:1041E000E052FC4E45915491FC01558B448BF801F3
:1041F000E65CFC4EE4919096EC93BFEFEB16F10475
:10420000A9F0F701E058FC4EE491F0E0EE0FFF1F3B
:10421000E052FC4E25913491FC01378B268BF7013F
:10422000E65CFC4EE490DC019196EC92FC01278563
:104230002430B1F0F601E058FC4EE491F0E0EE0FCE
:10424000FF1FE052FC4E45915491DC0151965C9366
:104250004E935097F601E65CFC4EE4915E96EC932B
:10426000C056DF4F0FB6F894DEBF0FBECDBFDF9153
:10427000CF911F910F91FF90EF90DF90CF90BF9063
:10428000AF909F908F907F906F905F904F90089528
:10429000462FDC011E962C911E97213071F050960E
:1042A000ED91FC91519730815E962C915E9720950F
:1042B000232320831E962C9101C021E060E059C980
:1042C0001F93CF93DF93DC011E962C911E97213014
:1042D00069F05096ED91FC91519730815E962C914A
:1042E0005E97232B20831E962C910AC0142F462FF5
:1042F000EC0121E061E03DD92E85412F61E0CE0146
:10430000DF91CF911F9135C9462FDC011E962C916C
:104310001E97213071F05096ED91FC9151973081AC
:104320005E962C915E97232B20831E962C9160E045
:1043300002C021E061E01DC90F931F93CF93DF936B
:10434000EC018A01A5DF402F612FCE01DF91CF91D3
:104350001F910F91B5CFAF92BF92CF92DF92EF92A4
:10436000FF920F931F93CF93DF93EC016B01B42E59
:10437000A52E79018C81813069F489859A859C010B
:10438000261B370B8E199F0978018901C42ED52E63
:10439000B82EA92EED858E2F90E0FC013297EE31DC
:1043A000F10508F00EC18827EE58FF4F8F4F0C948F
:1043B000CA434D2D50E062E0CE01BEDFA60163E0AE
:1043C000CE01BADF4F2D50E064E0CE01B5DFA7018A
:1043D00065E0CE01B1DF4A2D50E066E0CE01ACDFF2
:1043E0004B2D5A2D67E0CE01A7DF412F50E052C080
:1043F0005E2D44274C0D5D1D64E4CE019DDF4B2DE9
:104400005A2D65E4CE0198DFA80166E4CE0194DF61
:10441000A6016EE4CE0190DF4B2D5A2D6FE4CE0144
:104420008BDF62E2C2C0A60160E2CE0185DF4B2DC8
:104430005A2D61E2CE0180DFA60160E5CE017CDF6E
:104440004B2D5A2D62E5CE0177DFA70161E5CE0144
:1044500073DFA80163E5E3CF40E050E062E0CE0106
:104460006BDFA60163E0CE0167DF40E050E064E06F
:10447000CE0162DFA70165E0CE015EDF40E050E0E3
:1044800066E0CE0159DF4B2D5A2D67E0CE0154DF97
:1044900040E050E068E0CE014FDFA80169E0BFCF07
:1044A0006AE2CE01F5DE6C2DCE012EDF6E2DCE013F
:1044B0002BDF6BE2CE01ECDE6B2D71C06AE2CE0128
:1044C000E7DE6A2DCE0120DF6B2DCE011DDF612FCF
:1044D000CE011ADF602FCE0117DF6BE2CE01D8DEEE
:1044E0006D2DCE0111DF6C2DCE010EDF6F2DCE01B3
:1044F0000BDF6E2D57C05E2D44274C295D2966E4E5
:10450000CE011ADFA80167E4CE0116DF4B2D5A2D2C
:1045100068E40FC0A70166E3CE010EDFA60167E3E2
:10452000CE010ADFA80168E3CE0106DF4B2D5A2D2C
:1045300069E3CE0101DFA60160E2CE01FDDE4B2D75
:104540005A2D61E26CCF4B2D5A2D62E0CE01F4DE84
:10455000A60163E0CE01F0DEA80166E0CE01ECDE4C
:10456000A70167E0CE01E8DE6FE01FC06AE2CE017E
:104570008FDE6D2DCE01C8DE6C2DCE01C5DE6F2D18
:10458000CE01C2DE6E2DCE01BFDE6BE2CE0180DE3B
:104590006A2DCE01B9DE6B2DCE01B6DE612FCE01C4
:1045A000B3DE602FCE01B0DE6CE2CE01DF91CF91A1
:1045B0001F910F91FF90EF90DF90CF90BF90AF9041
:1045C00067CEDF91CF911F910F91FF90EF90DF9019
:1045D000CF90BF90AF9008950F931F93CF93DF9329
:1045E000EC016C8361E08DA10E94104261E08EA11C
:1045F0000E94104261E08FA10E94104288A58F3F67
:1046000019F061E00E9410428E85813129F08130DD
:1046100039F48F85853021F461E089A50E9410422C
:104620006E85613011F0CE013BD9EE89FF89908112
:1046300089A1892B808365E070E080E090E00E9492
:104640002041EE89FF89908189A18095892380830B
:104650006FE070E080E090E00E942041EE89FF89E9
:10466000908189A1892B80836FE070E080E090E0E9
:104670000E942041EC89FD89908188A18095892341
:104680008083ED858E2F90E0FC013297EE31F105AD
:1046900010F00C94BF358827E057FF4F8F4F0C94D4
:1046A000CA4341E050E060E0CE0146DE44EA58EA09
:1046B00063E0CE0141DE40E050E06CE0CE013CDE44
:1046C0004CE058E06DE0CE0137DE40E05BE26EE0AA
:1046D000CE0132DE47EB50E06EE1CE012DDE4FE33E
:1046E0005BE261E0CE0128DE40E056E062E0CE0110
:1046F00023DE40E050E060E1CE011EDE40E750E600
:1047000061E1CE0119DE40E050E065E0CE0114DE4B
:1047100040E050E066E0CE010FDE4CE15FEE66E186
:10472000CE010ADE43E050E067E1CE0105DE43E35F
:1047300052E067E0CE0100DE40E050E06BE0CE01E9
:10474000FBDD40E050E06FE0CE01F6DD40E050E000
:1047500061E4CE01F1DD40E050E062E4CE01ECDD49
:1047600040E050E068E4CE01E7DD4FE351E069E46A
:10477000CE01E2DD40E050E06AE4CE01DDDD40E064
:1047800050E06BE4CE01D8DD40E05FEE64E4CE01A2
:10479000D3DD40E050E065E4CE01CEDD4FE351E0F3
:1047A00066E4CE01C9DD47E057E060E3CE01C4DD39
:1047B00044E052E061E3CE01BFDD44E052E062E359
:1047C000CE01BADD42E055E063E3CE01B5DD47E05E
:1047D00055E064E3CE01B0DD44E052E065E3CE0194
:1047E000ABDD44E052E066E3CE01A6DD42E055E0F9
:1047F00067E3CE01A1DD42E053E06AE3CE019CDD38
:1048000042E053E06BE3CE0197DD40E050E063E22D
:10481000CE0192DD40E050E064E2CE018DDD40E06B
:1048200050E865E2CE0188DD40E050E06FE4CE0163
:1048300083DD40E050E06EE40C94572F40EF58E7E2
:1048400065EECE0179DD40E051E061E0CE0174DD3E
:1048500040E052E062E0CE016FDD40E350E163E012
:10486000CE016ADD40E050E064E0CE0165DD47E066
:1048700052E068E0CE0160DD40E050E069E0CE014A
:104880005BDD40E050E06AE0CE0156DD40E050E004
:104890006CE0CE0151DD40E050E06DE0CE014CDD3A
:1048A00040E050E06FE0CE0147DD40E050E060E1E5
:1048B000CE0142DD47E050E061E1CE013DDD40E068
:1048C00050E062E1CE0138DD40E050E063E1CE012E
:1048D00033DD41E050E067E0CE012EDD68EC70E0B2
:1048E00080E090E00E94204140E956E160E1CE0185
:1048F00023DD47E252E061E1CE011EDD62E370E0BC
:1049000080E090E00E9420414DE050E062E1CE0165
:1049100013DD62E370E080E090E00E94204140E01F
:1049200052E163E1CE0108DD4AE050E069E2CE01E8
:1049300003DD4DE050E07DC040EF58E765EECE016D
:10494000FBDC40E051E061E0CE01F6DC40E057E006
:1049500062E0CE01F1DC40E350E163E0CE01ECDC4B
:1049600040E050E064E0CE01E7DC47E052E068E080
:10497000CE01E2DC40E050E069E0CE01DDDC40E069
:1049800050E06AE0CE01D8DC40E050E06CE0CE01BF
:10499000D3DC40E050E06DE0CE01CEDC40E050E002
:1049A0006FE0CE01C9DC40E050E060E1CE01C4DC44
:1049B00047E050E061E1CE01BFDC40E050E062E161
:1049C000CE01BADC40E050E063E1CE01B5DC41E06D
:1049D00050E067E0CE01B0DC68EC70E080E090E091
:1049E0000E94204140E955E160E1CE01A5DC47E2AB
:1049F00052E061E1CE01A0DC62E370E080E090E093
:104A00000E9420414CE950E062E1CE0195DC62E376
:104A100070E080E090E00E94204140E059E163E1D5
:104A2000CE018ADC43E250E069E2CE0185DC4EE053
:104A300050E06BE2CE0180DC62E370E080E090E069
:104A40000E94204140E050E060E2CE0175DC40E091
:104A500050E061E2CE0170DC40E050E060E3CE0166
:104A60006BDC44E054E061E3CE0166DC43E050E0FF
:104A700062E3CE0161DC45E054E065E3CE015CDC3D
:104A800048E058E066E3CE0157DC47E054E067E3D6
:104A9000CE0152DC43E053E068E3CE014DDC47E059
:104AA00057E069E3CE0148DC44E055E06CE3CE0119
:104AB00043DC48E058E06DE3CE013EDC40E050E0EE
:104AC00060E5CE0139DC4FEE50E061E5CE0134DC2B
:104AD00040E050E062E5CE012FDC4FE351E063E5BA
:104AE000CE012ADC40E057EA60E6CE0125DC41E059
:104AF00050E061E6CE0120DC40E050E06AE6CE0105
:104B00001BDC40E050E060E8CE0116DC40E050E005
:104B100061E8CE0111DC40E050E062E8CE010CDC3F
:104B200040E050E063E8CE0107DC40E050E064E89C
:104B3000CE0102DC40E050E065E8CE01FDDB40E163
:104B400050E060E9CE01F8DB40E050E062E9CE01E0
:104B5000F3DB43E351E067E0CE01EEDB0C94BF35BD
:104B600044E850E066E2CE01E7DB68E270E080E016
:104B700090E00E94204148EB50E066E2CE01DCDB91
:104B800068E270E080E090E00E9420414CEB50E051
:104B900066E2CE01D1DB64E170E080E090E00E944B
:104BA000204140E050E060E6CE01C6DB46E050E048
:104BB00061E6CE01C1DB40E050E062E6CE01BCDB45
:104BC00048EC50E063E6CE01B7DB64E170E080E0E2
:104BD00090E00E94204140E750E063E7CE01ACDB6B
:104BE00040E050E060E4CE01A7DB40E450E061E447
:104BF000CE01A2DB45E450E062E4CE019DDB41E062
:104C000050E063E4CE0198DB40E650E064E4CE017E
:104C100093DB45E050E065E4CE018EDB4CE050E0F4
:104C200066E4CE0189DB41ED50E067E4CE0184DB30
:104C300045E050E068E4CE017FDB45E750E060E509
:104C4000CE017ADB41E050E061E5CE0175DB47E65D
:104C500050E062E5CE0170DB44E150E063E5CE0157
:104C60006BDB42EF50E064E5CE0166DB47E050E0ED
:104C700065E5CE0161DB43E050E066E5CE015CDB3B
:104C800049E450E067E5CE0157DB64E170E080E085
:104C900090E00E94204143E050E06FE1CE014CDB08
:104CA00040E050E060E2CE0147DB44E250E064E2E5
:104CB000CE0142DB44E350E065E2CE013DDB4FE252
:104CC00050E063E2CE0138DB64E170E080E090E028
:104CD0000E94204144E450E068E1CE012DDB41E038
:104CE00050E061E2CE0128DB40E050E061E0CE011F
:104CF00023DB43E050E06CE1CE011EDB46E050E0F8
:104D000069E1CE0119DB64E170E080E090E00E948F
:104D1000204144E850E066E2CE010EDB68E270E03C
:104D200080E090E00E94204148EB50E066E2CE0136
:104D300003DB68E270E080E090E00E9420414CEBF1
:104D400050E066E2CE01F8DA64E170E080E090E0E5
:104D50000E94204140E050E062E0CE01EDDA40E008
:104D600050E063E0CE01E8DA40E050E064E0CE01DC
:104D7000E3DA4FEA50E065E0CE01DEDA40E050E0F1
:104D800066E0CE01D9DA40E050E067E0CE01D4DA47
:104D900040E050E068E0CE01CFDA4BED50E069E052
:104DA000CE01CADA64E170E080E090E00E94204128
:104DB00048E050E066E1CE01BFDA45E050E067E14F
:104DC000CE01BADA61E2CE0163DA62E2CE0160DAE4
:104DD0000C94BF3561E1CE015BDA6CE070E080E0FD
:104DE00090E00E94204161EBCE0152DA61E0CE01F9
:104DF0008BDA6CE2CE0188DA6DE2CE0185DA62EB05
:104E0000CE0146DA61E0CE017FDA6CE2CE017CDAD7
:104E10006DE2CE0179DA63EBCE013ADA61E0CE01E0
:104E200073DA6CE2CE0170DA6DE2CE016DDA61E028
:104E3000CE016ADA6CE2CE0167DA6DE2CE0164DAA5
:104E400064EBCE0125DA67E0CE015EDA60ECCE01DC
:104E50001FDA62EACE0158DA62E0CE0155DA64E880
:104E6000CE0152DA61ECCE0113DA65ECCE014CDAF8
:104E700062ECCE010DDA6AE0CE0146DA60E0CE01E6
:104E800043DA63ECCE0104DA6AE8CE013DDA6AE285
:104E9000CE013ADA64ECCE01FBD96AE8CE0134DA0D
:104EA0006EEECE0131DA65ECCE01F2D96EE0CE01C4
:104EB0002BDA66E3CE01ECD968EC73C061E1CE0178
:104EC000E7D96CE070E080E090E00E94204161EB67
:104ED000CE01DED961E0CE0117DA6CE2CE0114DA40
:104EE0006DE2CE0111DA62EBCE01D2D961E0CE01E2
:104EF0000BDA6CE2CE0108DA6DE2CE0105DA63EB83
:104F0000CE01C6D961E0CE01FFD96CE2CE01FCD959
:104F10006DE2CE01F9D961E0CE01F6D96CE2CE01A5
:104F2000F3D96DE2CE01F0D964EBCE01B1D967E0DF
:104F3000CE01EAD960ECCE01ABD962EACE01E4D968
:104F400062E0CE01E1D964E8CE01DED961ECCE01A8
:104F50009FD965ECCE01D8D962ECCE0199D96AE02F
:104F6000CE01D2D960E0CE01CFD963ECCE0190D989
:104F70006AE8CE01C9D96AE2CE01C6D964ECCE0195
:104F800087D96AE8CE01C0D96EEECE01BDD965ECF5
:104F9000CE017ED96EE0CE01B7D966E3CE0178D9D5
:104FA00060ECCE01B1D960EECE0172D96FE0CE01D6
:104FB000ABD96AE1CE01A8D96FE0CE01A5D968E1ED
:104FC000CE01A2D96FE2CE019FD968E2CE019CD971
:104FD00060E2CE0199D962E2CE0196D96FE1CE01AD
:104FE00093D96BE1CE0190D963E2CE018DD967E30D
:104FF000CE018AD960E0CE0187D967E0CE0184D99D
:1050000062E0CE0181D960E1CE017ED961EECE01B0
:105010003FD96FE0CE0178D96BE1CE0175D96FE051
:10502000CE0172D967E1CE016FD963E3CE016CD9AD
:105030006CE2CE0169D969E2CE0166D96EE2CE0199
:1050400063D960E3CE0160D960E3CE015DD969E345
:10505000CE015AD96FE3CE0157D960E0CE0154D9C1
:1050600067E0CE0151D963E0CE014ED960E1CE01B7
:105070004BD96AE2CE010CD960E0CE0145D960E09F
:10508000CE0142D960E0CE013FD96FE7CE013CD9D5
:105090006BE2CE01FDD860E0CE0136D960E0CE01F2
:1050A00033D960E0CE0130D96FE9CE012DD960EF60
:1050B000CE01EED861E0CE0127D966EFCE01E8D867
:1050C00060E00C947B3061E0CE01E2D865E2CE0175
:1050D000DFD860E4CE0118D961E1CE01D9D86AE009
:1050E00070E080E090E00E94204160E2CE01D0D8E4
:1050F00068E3CE01CDD869E2CE01CAD863E1CE0122
:10510000C7D866E3CE01C4D860E6CE01FDD86AE315
:10511000CE01BED865E0CE01F7D86AE2CE01B8D89C
:1051200060E0CE01F1D86FE7CE01EED864EBCE019E
:10513000AFD863E0CE01E8D868E0CE01E5D86BE0F7
:10514000CE01E2D86EE0CE01DFD86AEBCE01A0D866
:1051500067E0CE01D9D86DE0CE01D6D86BE2CE01A2
:1051600097D860E0CE01D0D86FE75EC263E8CE0189
:105170008FD862E0CE01C8D865E8CE0189D863E057
:10518000CE01C2D86BE8CE0183D861E0CE01BCD895
:105190006CE8CE017DD863E9CE01B6D861E9CE01D5
:1051A00077D861E0CE01B0D863E8CE0171D860E075
:1051B000CE01AAD86EE3CE016BD860EBCE01A4D8A5
:1051C0006FE3CE0165D863E0CE019ED860E4CE01E6
:1051D0005FD860E1CE0198D861E4CE0159D866E588
:1051E000CE0192D862E4CE0153D863E1CE018CD8CF
:1051F00063E4CE014DD866E4CE0186D864E4CE01E6
:1052000047D863E2CE0180D865E4CE0141D866E795
:10521000CE017AD866E4CE013BD860E0CE0174D8E6
:1052200067E4CE0135D86EE5CE016ED868E4CE01D4
:105230002FD86FE4CE0168D869E4CE0129D860E4A4
:10524000CE0162D867E1CE0123D861E9CE015CD8F6
:105250006BE2CE011DD869EFCE0156D86AE070E04E
:1052600080E090E00E9420416BE1CE0111D864E122
:10527000CE014AD86AE1CE010BD861E1CE0144D813
:105280006CE1CE0105D866E0CE013ED86FE1CE01DB
:105290000E94482162E4CE0137D864E170E080E0EA
:1052A00090E00E94204169E1CE010E9448216AE01D
:1052B000CE012AD869E1CE010E9448216AE1CE01DF
:1052C00023D868E270E080E090E00E94204169E12C
:1052D000CE010E94482162E1CE0116D868E270E05A
:1052E00080E090E00E9420416EE1CE010E944821C2
:1052F00067E2CE0109D864E670E080E090E00E94A9
:10530000204164E2CE010E94482160E6CE010E9465
:1053100084216DE3CE010E94482160E4CE010E9409
:10532000842164E3CE010E94482168E3CE010E94FB
:10533000842165E3CE010E94482168E3CE010E94EA
:10534000842164E2CE010E94482168E3CE010E94DC
:10535000842168E270E080E090E00E94204164E2F5
:10536000CE010E9448216CE3CE010E94842166E1B7
:10537000CE010E9448216CE1CE010E94842161E0AF
:10538000CE010E94482166E0CE010E94842165E59D
:10539000CE010E94482160E0CE010E94842162E09B
:1053A000CE010E94482160E0CE010E94842163E08A
:1053B000CE010E94482160E0CE010E94842164E079
:1053C000CE010E94482160E0CE010E94842165E068
:1053D000CE010E9448216FEECE010E94842166E03A
:1053E000CE010E94482160E0CE010E94842167E046
:1053F000CE010E94482160E0CE010E94842168E035
:10540000CE010E94482161E0CE010E94842169E022
:10541000CE010E9448216FE8CE010E948421D5CCA4
:1054200062EECE010E94482163E2CE010E948421F7
:1054300062E0CE010E94842164E5CE010E948421B5
:1054400060EECE010E94482161E0CE010E948421DD
:105450006AE070E080E090E00E94204160EECE01C2
:105460000E94482163E0CE010E9484216AE070E03E
:1054700080E090E00E94204161E0CE010E9448213E
:1054800064E670E080E090E00E94204166EECE018C
:105490000E94482161E0CE010E9484216FE1CE018B
:1054A0000E9484216FEFCE010E94842160EBCE0127
:1054B0000E94482160E2CE010E94842160E0CE017A
:1054C0000E94842161E0CE010E9484216FEDCE0113
:1054D0000E94842161E0CE010E9484216FE0CE0110
:1054E0000E94842160E0CE010E94842164EBCE0101
:1054F0000E94482162E0CE010E94842163E1CE0136
:105500000E94842160E0CE010E94842168E0CE01E7
:105510000E9484216BE2CE010E94842160E0CE01D2
:105520000E94842162E0CE010E94842160E0CE01CD
:105530000E94842166EBCE010E94482161E0CE01E9
:105540000E94842160E2CE010E94842160E0CE01AD
:105550000E94842164E0CE010E9484216CE0CE018F
:105560000E94842160E0CE010E94842162E0CE018D
:105570000E9484216AEBCE010E9448216FE0CE0197
:105580000E94842168EBCE010E94482167E0CE0191
:105590000E94842161E0CE010E94842166E3CE0155
:1055A0000E94482162E2CE010E94842160EFCE0178
:1055B0000E94482163E0CE010E94842161E070E0F6
:1055C00080E090E00E9420410FE011E02FED31E0FB
:1055D00040E050E060E070E0CE010E94AB2169E263
:1055E000CE010E9448216EEBCE010E94482166E068
:1055F000CE010E94842160EFCE010E94842161E0EF
:10560000CE010E94842160EFCE010E94842160E0DF
:10561000CE010E94842160E0CE010E94842160EDD1
:10562000CE010E9448216DE0CE010E9484210C949D
:10563000BE3462EECE010E9448216EE1CE010E948E
:10564000842162E0CE010E94842164E5CE010E94A3
:10565000842160EECE010E94482161E0CE010E94CB
:1056600084216AE070E080E090E00E94204160EEDA
:10567000CE010E94482163E0CE010E9484216AE0AD
:1056800070E080E090E00E94204161E0CE010E9445
:10569000482164E670E080E090E00E94204166EEE0
:1056A000CE010E94482163E0CE010E9484216FEF69
:1056B000CE010E9484216FEFCE010E94842160EB15
:1056C000CE010E94482164E2CE010E94842160E064
:1056D000CE010E94842163E0CE010E9484216FE10B
:1056E000CE010E94842161E0CE010E9484216FEDF1
:1056F000CE010E94842160E0CE010E94842164EBEF
:10570000CE010E94482163E0CE010E94842160EA1C
:10571000CE010E94842160E0CE010E9484216EE2CD
:10572000CE010E94842160E3CE010E94842160E0CA
:10573000CE010E9484216FE0CE010E94842160E0AE
:10574000CE010E94842166EBCE010E94482162E0D6
:10575000CE010E9484216DE0CE010E94842160E090
:10576000CE010E94842160E1CE010E94842160E18B
:10577000CE010E94842160E0CE010E94842168E075
:10578000CE010E9484216AEBCE010E9448216FE085
:10579000CE010E94842168EBCE010E94482167E07F
:1057A000CE010E94842161E0CE010E94842166E343
:1057B000CE010E94482162E2CE010E94842160EF66
:1057C000CE010E94482163E0CE010E94842161E065
:1057D00070E080E090E0D2C062EECE010E944821ED
:1057E00063E2CE010E94842162E0CE010E94842106
:1057F00064E0CE010E94842160EECE010E94482127
:1058000061E0CE010E9484216AE070E080E090E0D7
:105810000E94204160EECE010E94482163E0CE014B
:105820000E9484216AE070E080E090E00E942041C4
:1058300061E0CE010E94482164E670E080E090E0E3
:105840000E94204166EECE010E94482164E0CE0114
:105850000E94842163E9CE010E94842160EECE0182
:105860000E94842160EBCE010E94482160E0CE01BD
:105870000E94842160E0CE010E94842163E0CE0179
:105880000E9484216FE1CE010E94842161E0CE015B
:105890000E9484216FEDCE010E94842160E0CE0140
:1058A0000E94842164EBCE010E94482163E0CE0176
:1058B0000E94842160EACE010E94842160E0CE0132
:1058C0000E9484216EE2CE010E94842160E3CE0119
:1058D0000E94842160E0CE010E9484216FE0CE010D
:1058E0000E94842160E0CE010E94842166EBCE01FB
:1058F0000E94482162E0CE010E9484216DE0CE0129
:105900000E94842160E0CE010E94842160E1CE01EA
:105910000E94842160E1CE010E94842160E0CE01DA
:105920000E94842168E0CE010E9484216AEBCE01AE
:105930000E94482165E0CE010E94842168EBCE01DF
:105940000E94482167E0CE010E94842161E0CE01DF
:105950000E94842166E3CE010E94482162E2CE01CA
:105960000E94842160EFCE010E94482163E0CE01B5
:105970000E9484216AE070E080E090E00E94204173
:105980000FED11E02FE133E023CE44E050E261E17E
:10599000CE010E949C2140E05CEC63E1CE010E94BC
:1059A0009C2140E056E265E1CE010E949C214AE242
:1059B00055E264E1CE010E949C2143E350E062E1A4
:1059C000CE010E949C2144E05CEC63E1CE010E9488
:1059D0009C2146E05CEC63E1CE010E949C214FE4F7
:1059E0005CEC63E1CE010E949C214FE457E663E149
:1059F000CE010E949C2143E050E261E1CE010E9471
:105A00009C2149E056E260E3CE010E949C214CE2D9
:105A100054E261E3CE010E949C2143E25FE162E334
:105A2000CE010E949C2145E254E263E3CE010E9434
:105A30009C2146E252E264E3CE010E949C2143E2B3
:105A400055E265E3CE010E949C214AE15CE166E3F8
:105A5000CE010E949C214DE153E167E3CE010E94FB
:105A60009C2141E15BE068E3CE010E949C2140E182
:105A700052E169E3CE010E949C2145E153E16AE3D2
:105A8000CE010E949C2149E156E36BE3CE010E94C6
:105A90009C2140E05DE06CE3CE010E949C214DE042
:105AA00050E06DE3CE010E949C2147E050E066E1AA
:105AB000CE010E949C2143E150E062E0CE010E94B1
:105AC0009C2143E050E063E0CE010E949C2147E22C
:105AD00051E061E0CE010E949C2143E053E068E088
