:100000000C94140A0C94450A0C94450A0C94450A65
:100010000C94450A0C94450A0C94450A0C94450A24
:100020000C94450A0C94450A0C94450A0C94450A14
:100030000C94450A0C94450A0C94450A0C94450A04
:100040000C94450A0C94450A0C94450A0C94450AF4
:100050000C94E21A0C94450A0C94450A0C94E94657
:100060000C94450A0C949C450C94D2450C94450A7A
:100070000C94450A0C94450A0C94450A0C94450AC4
:100080000C94450A0C94450A0C94450A0C94450AB4
:100090000C94450A0C94450A0C94450A0C94BA40F9
:1000A0000C94450A0C94450A0C94450A0C94450A94
:1000B0000C94450A0C94450A0C94450A0C94450A84
:1000C0000C94450A0C94450A0C94450A0C94450A74
:1000D0000C94450A0C94450A0C94450A0C94450A64
:1000E0000C94450AE222CB23FD22FD221623CB23CA
:1000F000C322A0233A23CB23482348236523652327
:10010000E222A023CB23E2224823A023FD22742352
:10011000A023A023A023A023A0238D23A023A023DA
:100120003B24A936082508259A26A936A029D427D4
:100130004D29A936FA2A032CAF2DAF2D3B244C3282
:10014000A9363B24D62CAF2E8625782F46304C324C
:10015000733105334C34AB35BF35482805A84CCD39
:10016000B2D44EB93836A9020C50B9918688083CF1
:10017000A6AAAA2ABE000000803F0D481048FF47EB
:10018000034809484748144818481E48224826484A
:100190002C483048344847483A483E484248004096
:1001A0007A10F35A00A0724E18090010A5D4E80086
:1001B00000E87648170000E40B54020000CA9A3B9E
:1001C000000000E1F5050000809698000000404224
:1001D0000F000000A08601000000102700000000B2
:1001E000E803000000006400000000000A000000B6
:1001F00000000100000000002C76D888DC674F0862
:1002000023DFC1DFAE59E1B1B796E5E3E453C63A67
:10021000E651997696E8E6C28426EB898C9B62EDDE
:10022000407C6FFCEFBC9C9F40F2BAA56FA5F49098
:10023000055A2AF75C936B6CF9676DC11BFCE0E40F
:100240000D47FEF520E6B500D0ED902E0300943565
:1002500077050080841E080000204E0A000000C8B8
:100260000C333333330F986E12831141EF8D211409
:10027000893BE65516CFFEE6DB18D1844B381BF7D9
:100280007C1D901DA4BBE424203284725E22810078
:10029000C9F124ECA1E53D271010205F000000000B
:1002A000000000000000000000000000000000004E
:1002B000000000000000000000000000000000003E
:1002C00007000F800F800F800F800F80070007004E
:1002D00000000000070007000700000000000E38C3
:1002E0000E380E380E380630000000000000000006
:1002F00000000000000000000000000000000C30C2
:100300000C300C307FFE7FFE0C300C300C300C308B
:100310007FFE7FFE0C300C300C30000000000240ED
:1003200002400FF81FF81A401A401FF00FF8025849
:1003300002581FF81FF002400240000000000000B9
:1003400000000E100E300E7000E001C003800700A8
:100350000E700C700870000000000000000000002B
:100360000F001980198019800F000F080F9819F8D5
:1003700018F018E019F00F980000000000000000CD
:100380000700070007000E0000000000000000004A
:10039000000000000000000000000000000000005D
:1003A00000F001C0038007000E000E000E000E00DA
:1003B0000700038001C000F0000000000000000002
:1003C0000F00038001C000E000700070007000703A
:1003D00000E001C003800F000000000000000000EA
:1003E00001801188099007E007E03FFC3FFC07E02F
:1003F00007E0099011880180000000000000000063
:10040000000000000180018001800FF00FF00180EA
:1004100001800180000000000000000000000000DA
:1004200000000000000000000000000000000000CC
:1004300000000700070007000E0000000000000099
:10044000000000000000000000001FF81FF800007E
:10045000000000000000000000000000000000009C
:10046000000000000000000000000000000000008C
:100470000000070007000700000000000000000067
:1004800000020006000E001C0038007000E001C0F1
:10049000038007000E001C000000000000000000A8
:1004A0000FF01C381C781CF81CF81DB81DB81F383C
:1004B0001F381E381C380FF000000000000000003C
:1004C0000180018003801F801F80038003800380E0
:1004D0000380038003801FF0000000000000000084
:1004E0000FE01C701C380038007000E001C0038071
:1004F00007000E381C381FF8000000000000000044
:100500000FE01C701C380038007003C003C000707E
:1005100000381C381C700FE00000000000000000D4
:1005200000E001E003E006E00CE018E01FF81FF82F
:1005300000E000E000E003F8000000000000000020
:100540001FF81C001C001C001C001FE01FF000789E
:1005500000381C381C700FE0000000000000000094
:1005600003E007000E001C001C001FF01FF81C38E1
:100570001C381C381C380FF0000000000000000080
:100580001FFC1C1C1C1C1C1C001C0038007000E004
:1005900001C0038003800380000000000000000011
:1005A0000FF01C381C381C381F3807E007E01CF817
:1005B0001C381C381C380FF0000000000000000040
:1005C0000FF01C381C381C381C381FF80FF8003886
:1005D0000038007000E007C00000000000000000CC
:1005E00000000000038003800380000000000380FF
:1005F00003800380000000000000000000000000F5
:1006000000000000038003800380000000000380DE
:10061000038003800700000000000000000000705D
:1006200000E001C0038007000E001C001C000E004B
:100630000700038001C000E000700000000000001F
:100640000000000000003FFC3FFC000000003FFCF9
:100650003FFC0000000000000000000000001C0043
:100660000E000700038001C000E00070007000E091
:1006700001C0038007000E001C000000000003C042
:100680000FF01E7818380038007000E001C001C07B
:100690000000000001C001C001C0000000000FF810
:1006A0001C1C1C1C1C1C1C1C1CFC1CFC1CFC1CFC0A
:1006B0001C001C001C001FF007F8000000000000D8
:1006C00003C007E00E701C381C381C381C381FF89B
:1006D0001C381C381C381C380000000000000000CA
:1006E0001FF00E380E380E380E380FF00FF00E389F
:1006F0000E380E380E381FF0000000000000000019
:1007000007F00E381C381C001C001C001C001C00CC
:100710001C001C380E3807F000000000000000002C
:100720001FE00E700E380E380E380E380E380E38A8
:100730000E380E380E701FE00000000000000000B0
:100740001FF80E180E080E000E300FF00FF00E30CE
:100750000E000E080E181FF8000000000000000038
:100760001FF80E180E080E000E300FF00FF00E30AE
:100770000E000E000E001F00000000000000000030
:1007800007F00E381C381C381C001C001C001CF81C
:100790001C381C380E3807F800000000000000006C
:1007A0001C701C701C701C701C701FF01FF01C70E3
:1007B0001C701C701C701C70000000000000000009
:1007C0000FE00380038003800380038003800380A5
:1007D0000380038003800FE00000000000000000A1
:1007E00001FC0070007000700070007000703870C4
:1007F0003870387038700FE0000000000000000012
:100800001E380E380E700EE00FC00F800F800FC024
:100810000EE00E700E381E380000000000000000D0
:100820001F000E000E000E000E000E000E000E0047
:100830000E080E180E381FF800000000000000001F
:100840001C1C1E3C1F7C1FFC1FFC1DDC1C9C1C1C5C
:100850001C1C1C1C1C1C1C1C0000000000000000B8
:100860001C1C1C1C1E1C1F1C1F9C1DDC1CFC1C7C3F
:100870001C3C1C1C1C1C1C1C000000000000000078
:1008800003E007F00E381C1C1C1C1C1C1C1C1C1C30
:100890001C1C0E3807F003E0000000000000000000
:1008A0001FF00E380E380E380E380FF00FF00E0015
:1008B0000E000E000E001F000000000000000000EF
:1008C00003E00F780E381C1C1C1C1C1C1C1C1C7C00
:1008D0001CFC0FF80FF8003800FC000000000000BE
:1008E0001FF00E380E380E380E380FF00FF00E7065
:1008F0000E380E380E381E380000000000000000D0
:100900000FF01C381C381C381C000FE007F00038B2
:100910001C381C381C380FF00000000000000000DC
:100920001FFC19CC11C401C001C001C001C001C02D
:1009300001C001C001C007F000000000000000007D
:100940001C701C701C701C701C701C701C701C7047
:100950001C701C701C700FE0000000000000000004
:100960001C701C701C701C701C701C701C701C7027
:100970001C700EE007C003800000000000000000B3
:100980001C1C1C1C1C1C1C1C1C1C1C9C1C9C1C9C27
:100990000FF80FF80770077000000000000000005B
:1009A0001C701C701C700EE007C00380038007C021
:1009B0000EE01C701C701C700000000000000000A5
:1009C0001C701C701C701C701C700EE007C0038033
:1009D0000380038003800FE000000000000000009F
:1009E0001FF81C381838107000E001C003800700A1
:1009F0000E081C181C381FF8000000000000000042
:100A000007F00700070007000700070007000700BE
:100A100007000700070007F00000000000000000CA
:100A2000100018001C000E000700038001C000E049
:100A300000700038001C00070000000000000000EB
:100A400007F000700070007000700070007000709F
:100A500000700070007007F00000000000000180CE
:100A600003C007E00E701C3800000000000000000A
:100A70000000000000000000000000000000000076
:100A80000000000000000000000000000000000066
:100A900000000000000000007FFF7FFF000000005A
:100AA0001C001C0007000700000000000000000000
:100AB0000000000000000000000000000000000036
:100AC00000000000000000000FE0007000700FF058
:100AD0001C701C701C700FD800000000000000008B
:100AE0001E000E000E000E000FF00E380E380E38ED
:100AF0000E380E380E381BF0000000000000000019
:100B000000000000000000000FE01C701C701C00C2
:100B10001C001C701C700FE00000000000000000B2
:100B200000F80070007000700FF01C701C701C70DA
:100B30001C701C701C700FD800000000000000002A
:100B400000000000000000000FE01C701C701FF08F
:100B50001C001C701C700FE0000000000000000072
:100B600003E007700770070007001FE01FE00700A1
:100B70000700070007001FC0000000000000000081
:100B800000000000000000000FD81C701C701C70DA
:100B90001C700FF007F000701C700FE000000000E8
:100BA0001E000E000E000E000EF00F380F380E382B
:100BB0000E380E380E381E3800000000000000000D
:100BC00001C001C001C000000FC001C001C001C0D0
:100BD00001C001C001C00FF80000000000000000CB
:100BE000007000700070000003F000700070007072
:100BF0000070007000701C700CF007E00000000036
:100C00001E000E000E000E000E380E700EE00FC01B
:100C10000EE00E700E381E380000000000000000CC
:100C20000FC001C001C001C001C001C001C001C0AE
:100C300001C001C001C00FF800000000000000006A
:100C400000000000000000001FF81C9C1C9C1C9C65
:100C50001C9C1C9C1C9C1C9C0000000000000000B4
:100C600000000000000000001FE01C701C701C70E1
:100C70001C701C701C701C70000000000000000044
:100C800000000000000000000FE01C701C701C70D1
:100C90001C701C701C700FE00000000000000000C1
:100CA00000000000000000001BF00E380E380E3867
:100CB0000E380E380FF00E000E001F00000000006E
:100CC00000000000000000001FB038E038E038E00D
:100CD00038E038E01FE000E000E001F00000000034
:100CE00000000000000000001EF00FF80F380E009A
:100CF0000E000E000E001F000000000000000000AB
:100D000000000000000000000FE01C301C300F80CD
:100D100003E0187018700FE00000000000000000F1
:100D200000000100030007001FF007000700070094
:100D300007000770077003E00000000000000000DB
:100D400000000000000000001C701C701C701C7073
:100D50001C701C701C700FD8000000000000000008
:100D600000000000000000001C701C701C701C7053
:100D70001C700EE007C003800000000000000000AF
:100D800000000000000000001C1C1C1C1C1C1C9C03
:100D90001C9C0FF8077007700000000000000000A6
:100DA00000000000000000001CE01CE00FC00780F5
:100DB00007800FC01CE01CE00000000000000000E5
:100DC00000000000000000000E380E380E380E380B
:100DD0000E3807F003E000E001C01F8000000000B3
:100DE00000000000000000001FE018E011C00380B8
:100DF00007000E201C601FE0000000000000000043
:100E000001F803800380038007001C001C0007001A
:100E100003800380038001F800000000000001C08F
:100E200001C001C001C001C001C001C001C001C0BA
:100E300001C001C001C001C001C0000000000000ED
:100E40001F8001C001C001C000E00038003800E090
:100E500001C001C001C01F800000000000000000B0
:100E60001F1C3B9C39DC38F800000000000000002B
:100E7000000000000000000000000000080C205FDF
:100E80000000000000000000000000000000202022
:100E900020202020002000000028505000000000EA
:100EA0000000000000002828FC2850FC50500000E2
:100EB000002078A8A0603028A8F02000000048A8F2
:100EC000B050283454480000000020505078A8A8A2
:100ED000906C000000404080000000000000000016
:100EE000000408101010101010080400004020101A
:100EF000101010101020400000000020A87070A8F2
:100F0000200000000000202020F820202000000009
:100F100000000000000000000040408000000000D1
:100F200000F80000000000000000000000000000C9
:100F300000400000000810101020204040408000B9
:100F40000000708888888888887000000000206011
:100F50002020202020700000000070888810204091
:100F600080F80000000070880830080888700000D1
:100F70000000103050509078101800000000F880E9
:100F800080F00808887000000000709080F0888869
:100F9000887000000000F890102020202020000021
:100FA0000000708888708888887000000000708851
:100FB00088887808487000000000000020000000C9
:100FC00000200000000000000020000000202000A1
:100FD0000004081020402010080400000000000059
:100FE000F80000F80000000000402010080408107D
:100FF00020400000000070888810202000200000A1
:101000000000708898A8A8B8807800000000202010
:101010003050507848CC00000000F04848704848F4
:1010200048F0000000007888808080808870000090
:101030000000F0484848484848F000000000F848E0
:101040005070504048F800000000F8485070504080
:1010500040E000000000384880809C884830000054
:101060000000CC484878484848CC00000000F820F0
:101070002020202020F8000000007C10101010100C
:101080001090E0000000EC485060505048EC000028
:101090000000E0404040404044FC00000000D8D840
:1010A000D8D8A8A8A8A800000000DC48686858584C
:1010B00048E80000000070888888888888700000F0
:1010C0000000F0484870404040E000000000708898
:1010D000888888E8987018000000F04848705048E8
:1010E00048EC0000000078888060100888F000005C
:1010F0000000F8A820202020207000000000CC482C
:1011000048484848483000000000CC48485050301B
:10111000202000000000A8A8A870505050500000E7
:101120000000D8505020205050D800000000D85067
:1011300050202020207000000000F8901020204057
:1011400048F80000003820202020202020203800EF
:1011500000404040202010101008000000701010C7
:10116000101010101010700000205000000000003F
:10117000000000000000000000000000000000FC73
:10118000002000000000000000000000000000003F
:1011900000304838483C00000000C04040704848DB
:1011A000487000000000000000384840403800004F
:1011B0000000180808384848483C000000000000BB
:1011C000003048784038000000001C2020782020A3
:1011D0002078000000000000003C4830407844388F
:1011E0000000C0404070484848EC0000000020006B
:1011F000006020202070000000001000003010105F
:10120000101010E00000C040405C507048EC00003E
:101210000000E0202020202020F800000000000036
:1012200000F0A8A8A8A800000000000000F04848AE
:1012300048EC000000000000003048484830000042
:101240000000000000F04848487040E00000000046
:10125000003848484838081C0000000000D86040AA
:1012600040E00000000000000078403008780000F6
:101270000000002020702020201800000000000046
:1012800000D84848483C00000000000000EC4850EE
:10129000302000000000000000A8A870505000009E
:1012A0000000000000D8502050D8000000000000CE
:1012B00000EC4850302020C00000000000781020D2
:1012C00020780000001810101020101010101800C6
:1012D00010101010101010101010101000602020AE
:1012E000201020202020600040A4180000000000F2
:1012F0000000000000000A0B02090C0D0E08070395
:1013000004010000000000000000000000000000D8
:1013100000000000000000000000000000000000CD
:10132000121110000000000000000000000000008A
:101330000000000000000000000001021020200852
:101340000810204010204080020102010804020120
:10135000010204081020408080402010080402018F
:1013600080040201804020100804020108040201E8
:10137000010204081020408001020408102040806F
:1013800005050505070508080808020202020A0A01
:10139000080804040404010101010101010103031F
:1013A000030303030303040707070C0C0C0C0C0CCA
:1013B0000C0C0202020206060606060606060B0BC7
:1013C0000B0B0B0B0B0B0000200023002600290049
:1013D0002C002F003200000100000301060109016A
:1013E00000002200250028002B002E0031003400D0
:1013F00002010000050108010B010000210024008A
:1014000027002A002D0030003300010100000401F4
:1014100007010A01E30C10140F168A17D242044682
:10142000A90DD614D516991811241FBECFEFD1E2FD
:10143000DEBFCDBF00E00CBF13E0A0E0B2E0EEEBFA
:10144000FFE900E00BBF02C007900D92A03AB10780
:10145000D9F72AE0A0EAB3E001C01D92AE32B2078C
:10146000E1F71AE0C0E1DAE000E006C021970109E7
:10147000802FFE010E94204BCA30D10780E0080770
:10148000A9F70E9432460C94CE4F0C940000CF93E3
:10149000DF93EC01D7D31D8A1E8A8CED90E0988FE4
:1014A0008F8B198E80E991E09B8F8A8F1C8E80E450
:1014B0009FE19E8F8D8F88E28F8F18A21AA219A2AA
:1014C00088EC90E09CA38BA384EB8DA38AEF90E043
:1014D0009FA38EA318A619A61AA61BA68FE78CA7F2
:1014E0001DA61EA61FA6CE01C096ACD3CE018B5B57
:1014F0009F4FA8D3CE01865A9F4FA4D3CE018159C6
:101500009F4FA0D3FE01E057FF4F81E080833196CB
:101510008083CC57DF4F188262E08EE0DF91CF915D
:101520000C944848FC01EA57FF4FA081B1819C917F
:101530009F5F9C930190F081E02D8081853008F0C1
:1015400010820895CF93DF93EC01FC01EA57FF4F1F
:101550000190F081E02D8081823009F450C0D0F4F8
:101560008823B9F1813009F082C045E061E0CE0105
:10157000C0968BD344E150E061E070E0CE018B5B1C
:101580009F4F7DD345E061E0CE01865A9F4F7DD3CA
:1015900045E066C0833009F451C0843009F067C06B
:1015A00045E061E0CE01C09674D345E061E0CE0134
:1015B0008B5B9F4F6AD345E061E0CE01865A9F4F17
:1015C00068D345E061E0CE0181599F4FDF91CF9113
:1015D0005CC341E061E0CE01C09657D344E150E0E6
:1015E00061E070E0CE018B5B9F4F49D341E061E049
:1015F000CE01865A9F4F49D344E650E017C044E1DC
:1016000050E061E070E0CE01C09639D344E150E093
:1016100061E070E0CE018B5B9F4F31D344E161E02C
:10162000CE01865A9F4F31D344E150E061E070E033
:10163000CE0181599F4FDF91CF9121C345E061E0F9
:10164000CE01C09622D345E061E0CE018B5B9F4F77
:101650001CD345E061E0CE01865A9F4F16D341E08E
:1016600061E0CE0181599F4FDF91CF9112C3DF918D
:10167000CF9108950F931F93CF93DF93EC01FC015B
:10168000EA57FF4F7183608383E090E00E943E46FB
:101690008C0143E062E00E94A81AFE01E857FF4F68
:1016A0001183008342E1B801CE01C096E0D283E00D
:1016B00090E00E943E468C0145E064E00E94A81A3A
:1016C000FE01E657FF4F1183008341E1B801CE01CF
:1016D0008B5B9F4FCCD283E090E00E943E468C0112
:1016E00047E066E00E94A81AFE01E457FF4F11830D
:1016F000008340E1B801CE01865A9F4FB8D283E003
:1017000090E00E943E468C0149E068E00E94A81AE1
:10171000FE01E257FF4F118300834FE0B801CE0175
:1017200081599F4FA4D2CE01DF91CF911F910F918C
:1017300009CFEF92FF920F931F93CF93DF93EC01AA
:101740008EE00E94B2488E0100571F4F21E0892B86
:1017500009F420E0F80120836AE070E080E090E086
:101760000E945847F80180819E012F563F4F790112
:1017700081110DC0F9018081882349F0CE01D2DEAC
:10178000FE01EC57FF4F81E08083CE01DBDEF801E4
:101790008081F7018083DF91CF911F910F91FF909E
:1017A000EF900895C6CF0F931F93CF93DF93EC0173
:1017B0008C010A571F4FD801ED91FC918081823036
:1017C00009F49CC060F5882309F45CC0813009F0FD
:1017D000F5C0BF01695F7F4F2FEF40E0CE01C0969B
:1017E00002D3F80160817181685F7F4F20EE3EE295
:1017F0004EE150E0CE018B5B9F4F4FD2D8016D91EF
:101800007C91665F7F4F2FEF40E0CE01865A9F4F5D
:10181000EAD2F80160817181655F7F4FC5C0833076
:1018200009F49FC0843009F0C9C0BF01695E7F4FD1
:101830002FE741E8CE01C0968CD2D8016D917C9102
:10184000685E7F4F2FEF40E0CE018B5B9F4FCBD286
:10185000F80160817181675E7F4F2FE741E8CE011B
:10186000865A9F4F76D2D8016D917C91665E7F4FEC
:101870002FE040E0CE0181599F4FDF91CF911F9122
:101880000F91B1C2BF016F5F7F4F23E040E0CE01F7
:10189000C096A9D2F801608171816E5F7F4F20E40C
:1018A0003FE14EE150E0CE018B5B9F4FF6D1D80176
:1018B0006D917C916C5F7F4F23E040E0CE01865AB2
:1018C0009F4F91D2F801608171816B5F7F4F20EC57
:1018D00032E141E050E0CE0181599F4FDED1D80185
:1018E000ED91FC91658176814AE050E084E899E0D1
:1018F000DF91CF911F910F910C94D946BF01645F86
:101900007F4F20E737E140E050E0CE01C096C5D1DF
:10191000D8016D917C91625F7F4F20E737E140E015
:1019200050E0CE018B5B9F4FB8D1F801608171818F
:10193000605F7F4F2FEF40E0CE01865A9F4F53D21A
:10194000D8016D917C916F5E7F4F20E737E140E0D9
:1019500050E0CE0181599F4FDF91CF911F910F91A0
:101960009CC1BF016D5E7F4F27E040E0CE01C09675
:101970003AD2F801608171816C5E7F4F2FEF40E0B9
:10198000CE018B5B9F4F2FD2D8016D917C916B5E06
:101990007F4F2FEF40E0CE01865A9F4F24D2F801AF
:1019A000608171816A5E7F4F2FE741E8CE018159E6
:1019B0009F4FDF91CF911F910F91CBC1DF91CF91BD
:1019C0001F910F910895CF93DF9369EA72E080E64B
:1019D00094E00E9441496EEA72E086E694E00E943B
:1019E000414963EB72E08CE694E00E94414968EB68
:1019F00072E082E794E00E9441496BEB72E088E775
:101A000094E00E94414961EC72E088E494E00E9415
:101A1000414967EC72E08EE494E00E9441496DEC2C
:101A200072E084E594E00E94414967EC72E08AE547
:101A300094E00E94414962ED72E080E394E00E94EC
:101A4000414967EC72E086E394E00E94414968ED09
:101A500072E08CE394E00E9441496DEC72E082E414
:101A600094E00E9441496DED72E088E194E00E94AB
:101A7000414962EE72E08EE194E00E94414967EED6
:101A800072E084E294E00E9441496CEE72E08AE2E6
:101A900094E00E94414962ED72E080E094E00E948F
:101AA000414961EF72E086E094E00E94414966EFAF
:101AB00072E08CE094E00E9441496DEC72E082E1BA
:101AC00094E00E9441496DEF72E088EE93E00E943D
:101AD000414967E073E08EEE93E00E9441496FE078
:101AE00073E084EF93E00E94414968E173E08AEF7C
:101AF00093E00E94414960E273E080ED93E00E9430
:101B0000414964E273E086ED93E00E94414968E256
:101B100073E08CED93E00E9441496CE273E082EE49
:101B200093E00E94414960E373E080EA93E00E9401
:101B30004149C0E0D0E0269663E873E0CE018056CC
:101B40009C4F0E944149CA32D105A9F7DF91CF913C
:101B50000895CF93DF93C0EDD3E02697CE010E9486
:101B6000DA4883E0C03AD807C1F782EE93E00E94DA
:101B7000DA488CED93E00E94DA4886ED93E00E940B
:101B8000DA4880ED93E00E94DA488AEF93E00E9401
:101B9000DA4884EF93E00E94DA488EEE93E00E94E8
:101BA000DA4888EE93E00E94DA4882E194E00E94ED
:101BB000DA488CE094E00E94DA4886E094E00E94E3
:101BC000DA4880E094E00E94DA488AE294E00E94D9
:101BD000DA4884E294E00E94DA488EE194E00E94C0
:101BE000DA4888E194E00E94DA4882E494E00E94B6
:101BF000DA488CE394E00E94DA4886E394E00E949D
:101C0000DA4880E394E00E94DA488AE594E00E9492
:101C1000DA4884E594E00E94DA488EE494E00E9479
:101C2000DA4888E494E00E94DA48CEE7D4E02697C8
:101C3000CE010E94DA4884E0C036D807C1F7DF91B0
:101C4000CF910895CF93DF93EC010E94A71A81E012
:101C500090E098878F838AE090E09A87898791E067
:101C60009B878C879D878E87DF91CF910895FC019C
:101C700075836483468362E0842F0C944848FC019A
:101C800070876783528741870895FC016387448783
:101C90000895FC01658746870895CF92DF92EF9201
:101CA000FF920F931F93CF93DF93EC017B018A0187
:101CB00069018E810E94B24821E0892B09F420E05D
:101CC0002C8B8C819D810E94C11A8B8B8031D9F421
:101CD0008C89882319F029853A8502C02F8138859F
:101CE000F70180819181820F931F8017910728F05F
:101CF000C816D90618F4C60101C0C801F7019183BE
:101D0000808381E08B838B898032D1F48C89882316
:101D100019F029853A8502C02F813885F701808125
:101D20009181821B930B8017910728F086018C15F7
:101D30009D0508F48C01F7011183008381E08B83FA
:101D4000DF91CF911F910F91FF90EF90DF90CF9097
:101D50000895EF92FF920F931F93CF93DF93EC01BF
:101D60007B01142F022F8E810E94B24821E0892B23
:101D700009F420E02C8B8C819D810E94C11A8B8BF1
:101D80008031A1F48C89882311F09E8501C09D8546
:101D9000F7018081890F811724F008171CF4802F28
:101DA00001C0812FF701808381E08B838B89803292
:101DB00099F48C89882311F09E8501C09D85F701D7
:101DC0008081891B811724F0102F80170CF4182FA5
:101DD000F701108381E08B83DF91CF911F910F91E9
:101DE000FF90EF900895EF92FF920F931F93CF9380
:101DF000DF93EC017B01142F022F8E810E94B248E9
:101E000021E0892B09F420E02C8B8C819D810E949C
:101E1000C11A8B8B8031A1F48C89882311F09C85A9
:101E200001C09B85F7018081890F811720F0081779
:101E300018F4802F01C0812FF701808381E08B830C
:101E40008B89803299F48C89882311F09C8501C09C
:101E50009B85F7018081891B811720F0102F801747
:101E600008F4182FF701108381E08B83DF91CF9165
:101E70001F910F91FF90EF900895FC011082118245
:101E80008CED90E093838283148280E991E09683C5
:101E90008583178280E49FE19187808788E282872B
:101EA00013861586148688EC90E09787868784EBE6
:101EB000808B8AEF90E0928B818B138A148A158A2B
:101EC000168A8FE7878B108E118E128E80E683A381
:101ED00088E784A387E285A308950F931F93FC01ED
:101EE00012A301A3748F638F568F458F30A3278F62
:101EF0001F910F9108958F929F92AF92BF92CF92B0
:101F0000DF92EF92FF920F931F93CF93DF9300D056
:101F100000D0CDB7DEB77C01DC015F966D917C917E
:101F200090975B968D919C915C970E943B4060E0FE
:101F300078EFF701838D948D0E946F37D7019596C6
:101F40000C91959710E02FED31E040E050E060E01B
:101F500070E05B968D919C915C970E9449388EE36E
:101F6000A82E85E0B82EC12CD12CD7019196ED91E9
:101F7000FC919297208130E05B968D919C915C97CB
:101F8000F60131964F0160E070E02C153D0509F433
:101F900056C00E946F37D70193968C91939790E02B
:101FA00095960C91959710E003501109889E900129
:101FB000899E300D989E300D1124235031098C9D3F
:101FC000B0018D9D700D9C9D700D11246D5F7F4F34
:101FD00043E050E05B968D919C915C970E9449385C
:101FE00060E078EFF701838D948D0E946F3740E0B9
:101FF00050E0BA01D7015B968D919C915C970E944D
:102000007337F70123A12C9DC0012D9D900D112444
:102010006C01F3E0CF0ED11CB501CE0101960E94F8
:102020006A4900E010E02AE030E0A601BE016F5FDF
:102030007F4FD7015B968D919C915C9727C00E9442
:102040006F3740E058EF6FEF7FEFF701838D948D8E
:102050000E947337D70193962C912C9DC0012D9D22
:10206000900D11246C01B3E0CB0ED11CB501CE0153
:1020700001960E946A4900E010E02AE030E0A601E3
:10208000BE016F5F7F4FF701838D948D0E94533D9A
:10209000CE0101960E94DA486401F6E0AF0EB11C51
:1020A00025E08216910409F060CF26960FB6F894C9
:1020B000DEBF0FBECDBFDF91CF911F910F91FF907B
:1020C000EF90DF90CF90BF90AF909F908F9008954A
:1020D0004F925F926F927F928F929F92AF92BF9238
:1020E000CF92DF92EF92FF920F931F93CF93DF93E4
:1020F00000D000D0CDB7DEB77C015B01C12CD12C64
:102100008DE4482E5524539460E078EFF701838DD9
:10211000948D0E946F3740E050E0BA01F701838D43
:10212000948D0E947337F70185A13201681A7108F6
:1021300084A18C9D40018D9D900C1124F5E08F0EA3
:10214000911CB501CE0101960E946A4900E010E0A1
:102150009301A401BE016F5F7F4FF701838D948DC2
:102160000E94533DCE0101960E94DA48FFEFCF1A3C
:10217000DF0A86E0A80EB11CE4E0CE16D10421F6F9
:1021800026960FB6F894DEBF0FBECDBFDF91CF917C
:102190001F910F91FF90EF90DF90CF90BF90AF9085
:1021A0009F908F907F906F905F904F900895CF9207
:1021B000DF92EF92FF920F931F93CF93DF93EC0187
:1021C0006D8D7E8D8B8D9C8D0E943B4060E078EF05
:1021D0008B8D9C8D0E946F378DA14FE351E0481B82
:1021E00051090FE311E02FED31E060E070E08B8DDD
:1021F0009C8D0E94493860E070E08B8D9C8D0E9420
:102200006F37E12CF12C82E4C82EDD24D3948CA10D
:1022100090E02FEFE21AF20A8E9DB0018F9D700DB3
:102220009E9D700D11249B01235031094DA1F60193
:10223000E41BF109AF01681B790B6D5F7F4F0CE365
:1022400011E08B8D9C8D0E944938F4E0EF16F1046B
:10225000F1F6E9A1FAA18081823091F038F4882367
:1022600061F08130E1F46EE075E00FC0833059F029
:102270008430A9F466EC74E008C066E275E005C03D
:1022800066EF74E002C06EED74E0CE01DF91CF9195
:102290001F910F91FF90EF90DF90CF9019CFDF91BA
:1022A000CF911F910F91FF90EF90DF90CF90089505
:1022B000CF93DF93EC017BDFCE01DF91CF911BCE7B
:1022C0006F927F928F929F92AF92BF92CF92DF9246
:1022D000EF92FF920F931F93CF93DF9300D000D024
:1022E000CDB7DEB73C01DC015D966D917C915E97C8
:1022F0005B968D919C915C970E943B4060E078EFEB
:10230000F301838D948D0E946F3740E050E0BA0155
:10231000D3015B968D919C915C970E947337D3019A
:102320009196ED91FC9192978081823009F48BC156
:1023300008F06CC0882309F4DAC0813009F05BC270
:10234000D30195968C9195971DE4C12EDD24D394ED
:102350009601281B310994964C919497469550E02C
:102360004D5F5F4F00E2E02E00E010E067815B967A
:102370008D919C915C970E943E3EF30184A195A1B2
:102380009601291B3109482F50E04D5F5F4F86951C
:10239000480F511D01A0F2A1E02D60857185D30188
:1023A0005B968D919C915C970E94993DF30184A16D
:1023B00095A19601291B3109482F50E0440F551F64
:1023C0004D5F5F4F8695480F511D01A0F2A1E02D92
:1023D0006285D3015B968D919C915C970E943E3EF5
:1023E000F30184A195A19601291B3109F3E08F9F88
:1023F000A00111244D5F5F4F8695480F511DD301F9
:102400009196ED91FC9192976385EFC1833009F429
:1024100088C1843009F0EFC1D30195968C919597CE
:102420009DE4C92EDD24D3949601281B310994968E
:102430004C919497469550E04D5F5F4F60E2E62ED9
:1024400000E010E067895B968D919C915C970E94FB
:10245000E33EF30184A195A19601291B3109482F80
:1024600050E04D5F5F4F8695480F511D01A0F2A1CE
:10247000E02D608DD3015B968D919C915C970E94BD
:102480003E3EF30184A195A19601291B3109482FF5
:1024900050E0440F551F4D5F5F4F8695480F511D0B
:1024A00001A0F2A1E02D618DD3015B968D919C91ED
:1024B0005C970E94E33EF30184A195A19601291B3C
:1024C0003109F3E08F9FA00111244D5F5F4F869586
:1024D000480F511DD3019196ED91FC919297628D19
:1024E0005B968D919C915C970E943E3E84C1D30186
:1024F00095968C9195972DE4A22EBB24B3947501EB
:10250000E81AF1089496CC90C694D12CB3E0CB0E87
:10251000D11C618136E0932E969EB0011124625544
:102520007B4FCE0101960E946A4900E010E09701BE
:10253000A601BE016F5F7F4FF301838D948D0E94D2
:10254000533DCE0101960E94DA48D30194968C91B6
:10255000949795969C9195979501291B3109482F41
:1025600050E04D5F5F4F8695480F511D9196ED915C
:10257000FC91929762817381E0E2EE2E5B968D91E1
:102580009C915C970E94993DF30185A17501E81A21
:10259000F10884A1C82ED12CCC0CDD1CF3E0CF0EA9
:1025A000D11C8695C80ED11CD3019196ED91FC915A
:1025B00092976481969EB001112462557B4FCE01A3
:1025C00001960E946A499701A601BE016F5F7F4F85
:1025D000F301838D948D0E94533DCE0101960E949C
:1025E000DA48D30194968C91949795969C917501B5
:1025F000E91AF108B3E08B9F800111240D5F1F4F92
:102600008695080F111DD3019196ED91FC9192973B
:102610006581768180E090E00E94044420E030E013
:1026200048EC52E40E946B43AB01BC01A0E28A2E4D
:10263000A12CB12CBEE2CB2E22E0F301838D948D30
:102640000E94B73FD8C0D30195968C9195972DE401
:10265000C22EDD24D3949601281B310994964C9107
:102660009497469550E04D5F5F4F64857585E0E235
:10267000EE2E00E010E05B968D919C915C970E949D
:10268000993DF30184A195A19601291B3109482F99
:1026900050E04D5F5F4F8695480F511D01A0F2A19C
:1026A000E02D66857785D3015B968D919C915C9733
:1026B0000E94993DF30184A195A19601291B31093E
:1026C000482F50E0440F551F4D5F5F4F8695480FD0
:1026D000511D01A0F2A1E02D6089D3015B968D917F
:1026E0009C915C970E943E3EF30184A195A19601C6
:1026F000291B3109F3E08F9FA00111244D5F5F4F2B
:102700008695480F511DD3019196ED91FC919297BA
:10271000618972895B968D919C915C970E94993D2D
:102720006AC0D30195968C9195971DE4C12EDD2446
:10273000D3949601281B310994964C919497469511
:1027400050E04D5F5F4F00E2E02E00E010E0638953
:102750005B968D919C915C970E943E3EF30184A113
:1027600095A19601291B3109482F50E04D5F5F4F1D
:102770008695480F511D01A0F2A1E02D6489D30177
:102780005B968D919C915C970E943E3EF30184A1E3
:1027900095A19601291B3109482F50E0440F551F80
:1027A0004D5F5F4F8695480F511D01A0F2A1E02DAE
:1027B0006589D3015B968D919C915C970E943E3E0A
:1027C000F30184A195A19601291B3109F3E08F9FA4
:1027D000A00111244D5F5F4F8695480F511DD30115
:1027E0009196ED91FC91929766895B968D919C9163
:1027F0005C970E94E33E26960FB6F894DEBF0FBEAC
:10280000CDBFDF91CF911F910F91FF90EF90DF909F
:10281000CF90BF90AF909F908F907F906F900895D2
:10282000CF93DF9369EA72E08EE395E00E9441491D
:102830006EEA72E084E495E00E94414963EB72E045
:102840008AE495E00E94414968EB72E080E595E0FA
:102850000E9441496BEB72E086E595E00E94414998
:1028600061EC72E086E295E00E94414967EC72E01B
:102870008CE295E00E9441496DEC72E082E395E0C4
:102880000E94414967EC72E088E395E00E9441496B
:1028900062ED72E08EE095E00E94414967EC72E0E3
:1028A00084E195E00E94414968ED72E08AE195E09B
:1028B0000E9441496DEC72E080E295E00E9441493E
:1028C0006DED72E086EF94E00E94414962EE72E0A5
:1028D0008CEF94E00E94414967EE72E082E095E05F
:1028E0000E9441496CEE72E088E095E00E94414907
:1028F00062ED72E08EED94E00E94414961EF72E07A
:1029000084EE94E00E94414966EF72E08AEE94E022
:102910000E9441496DEC72E080EF94E00E944149D1
:102920006DEF72E086EC94E00E94414967E073E04D
:102930008CEC94E00E9441496FE073E082ED94E0FA
:102940000E94414968E173E088ED94E00E944149AA
:1029500060E273E08EEA94E00E94414964E273E031
:1029600084EB94E00E94414968E273E08AEB94E0D2
:102970000E9441496CE273E080EC94E00E9441497E
:1029800060E373E08EE794E00E944149C0E0D0E04C
:10299000269663E873E0CE0182589B4F0E9441491E
:1029A000CA32D105A9F7DF91CF910895CF93DF9374
:1029B000CEEAD4E02697CE010E94DA4884E0CE37F2
:1029C000D807C1F780EC94E00E94DA488AEB94E0E3
:1029D0000E94DA4884EB94E00E94DA488EEA94E0A0
:1029E0000E94DA4888ED94E00E94DA4882ED94E093
:1029F0000E94DA488CEC94E00E94DA4886EC94E07D
:102A00000E94DA4880EF94E00E94DA488AEE94E06F
:102A10000E94DA4884EE94E00E94DA488EED94E059
:102A20000E94DA4888E095E00E94DA4882E095E06A
:102A30000E94DA488CEF94E00E94DA4886EF94E036
:102A40000E94DA4880E295E00E94DA488AE195E047
:102A50000E94DA4884E195E00E94DA488EE095E031
:102A60000E94DA4888E395E00E94DA4882E395E024
:102A70000E94DA488CE295E00E94DA4886E295E00E
:102A80000E94DA48CCE5D5E02697CE010E94DA48CC
:102A900085E0CE33D807C1F7DF91CF910895CF936A
:102AA000DF93EC010E948620CE01C196E6D9CE01CB
:102AB000895A9F4F0E94D542CE0184589F4F0E9451
:102AC0008620CE0183559F4FD8D9CE018D529F4F7E
:102AD000DF91CF910C94D5428F929F92AF92BF928B
:102AE000CF92DF92EF92FF920F931F93CF93DF93DA
:102AF000EC015C018AE7A80EB11CD5016D937C93B3
:102B000081E390E00E943E464C01C12CD12C89E229
:102B1000E82EF12C08E210E027E230E046E250E037
:102B200065E1C4010E9487207E01BCE7EB0EF11C29
:102B300081E3F401D70101900D928A95E1F761E0FC
:102B4000C7010E94D623C355DF4FD501ED91FC91FB
:102B5000EA57FF4F0081118128E932E04CE75EE03F
:102B6000B701CE01BAD9C7010E94D336CE01A0DB8E
:102B7000CE01DF91CF911F910F91FF90EF90DF90E9
:102B8000CF90BF90AF909F908F909ACBEF92FF9293
:102B90000F931F93CF93DF938C01EC01C658DF4F47
:102BA000E881F981EC57FF4F8081882369F0780133
:102BB0008DEAE80EF11CC7017BDBC70181DBE881F0
:102BC000F981EC57FF4F1082E881F98183A98111C7
:102BD0000FC0DF01A85BBF4F8C91811109C05596D2
:102BE0008C91811105C0EE58FF4F8081882381F0C0
:102BF000C80183559F4F64DBE881F98113AADF0187
:102C0000A85BBF4F1C9255961C92EE58FF4F108246
:102C1000DF91CF911F910F91FF90EF900895CF9387
:102C2000DF9369EA72E08CE196E00E9441496EEA26
:102C300072E082E296E00E94414963EB72E088E232
:102C400096E00E94414968EB72E08EE296E00E94B5
:102C500041496BEB72E084E396E00E94414961ECEC
:102C600072E084E096E00E94414967EC72E08AE0FD
:102C700096E00E9441496DEC72E080E196E00E948E
:102C8000414967EC72E086E196E00E94414962EDBD
:102C900072E08CEE95E00E94414967EC72E082EFB1
:102CA00095E00E94414968ED72E088EF95E00E944E
:102CB00041496DEC72E08EEF95E00E9441496DED67
:102CC00072E084ED95E00E94414962EE72E08AED87
:102CD00095E00E94414967EE72E080EE95E00E9427
:102CE00041496CEE72E086EE95E00E94414962ED4A
:102CF00072E08CEB95E00E94414961EF72E082EC5A
:102D000095E00E94414966EF72E088EC95E00E94F0
:102D100041496DEC72E08EEC95E00E9441496DEF07
:102D200072E084EA95E00E94414967E073E08AEA34
:102D300095E00E9441496FE073E080EB95E00E94CE
:102D4000414968E173E086EB95E00E94414960E209
:102D500073E08CE895E00E94414964E273E082E907
:102D600095E00E94414968E273E088E995E00E949D
:102D700041496CE273E08EE995E00E94414960E3CD
:102D800073E08CE595E00E944149C0E0D0E02696D2
:102D900063E873E0CE01845A9A4F0E944149CA32D7
:102DA000D105A9F7DF91CF910895CF93DF93CCE8B8
:102DB000D5E02697CE010E94DA4885E0CC35D807C9
:102DC000C1F78EE995E00E94DA4888E995E00E9413
:102DD000DA4882E995E00E94DA488CE895E00E94A2
:102DE000DA4886EB95E00E94DA4880EB95E00E9495
:102DF000DA488AEA95E00E94DA4884EA95E00E947F
:102E0000DA488EEC95E00E94DA4888EC95E00E9462
:102E1000DA4882EC95E00E94DA488CEB95E00E945B
:102E2000DA4886EE95E00E94DA4880EE95E00E944E
:102E3000DA488AED95E00E94DA4884ED95E00E9438
:102E4000DA488EEF95E00E94DA4888EF95E00E941C
:102E5000DA4882EF95E00E94DA488CEE95E00E9415
:102E6000DA4886E196E00E94DA4880E196E00E9426
:102E7000DA488AE096E00E94DA4884E096E00E9410
:102E8000DA48CAE3D6E02697CE010E94DA4886E007
:102E9000CC31D807C1F7DF91CF91089580E397E057
:102EA0000C94D30B68E070E08FE299E00E94CC4272
:102EB00062EC77E080E397E00E943A0B60E377E012
:102EC0008AE396E009DE48EE53E060E070E08BEBC9
:102ED00098E00BD42FEF3FEFA9016EE477E18BEB85
:102EE00098E018C480E397E00E94D20B8BEB98E047
:102EF00002D462E179E18FE299E00E94CD428AE357
:102F000096E044DE2FEF3FEFA9016EE477E18BEB13
:102F100098E000C4CF93DF9369EA72E08DE998E00E
:102F20000E9441496EEA72E083EA98E00E944149BA
:102F300063EB72E089EA98E00E94414968EB72E035
:102F40008FEA98E00E9441496BEB72E085EB98E0D4
:102F50000E94414961EC72E085E898E00E94414995
:102F600067EC72E08BE898E00E9441496DEC72E0FA
:102F700081E998E00E94414967EC72E087E998E0B6
:102F80000E94414962ED72E08DE698E00E9441495D
:102F900067EC72E083E798E00E94414968ED72E0D7
:102FA00089E798E00E9441496DEC72E08FE798E074
:102FB0000E9441496DED72E085E598E00E9441492B
:102FC00062EE72E08BE598E00E94414967EE72E0A4
:102FD00081E698E00E9441496CEE72E087E698E055
:102FE0000E94414962ED72E08DE398E00E94414900
:102FF00061EF72E083E498E00E94414966EF72E07D
:1030000089E498E00E9441496DEC72E08FE498E019
:103010000E9441496DEF72E085E298E00E944149CB
:1030200067E073E08BE298E00E9441496FE073E053
:1030300081E398E00E94414968E173E087E398E00A
:103040000E94414960E273E08DE098E00E944149AE
:1030500064E273E083E198E00E94414968E273E032
:1030600089E198E00E9441496CE273E08FE198E0C9
:103070000E94414960E373E08DED97E00E94414971
:10308000C0E0D0E0269663E873E0CE018352984F0B
:103090000E944149CA32D105A9F71092C207109285
:1030A000C3078CED90E09093C5078093C4071092FE
:1030B000C60780E991E09093C8078093C7071092F4
:1030C000C90780E49FE19093CB078093CA0788E209
:1030D0008093CC071092CD071092CF071092CE07A5
:1030E00088EC90E09093D1078093D00784EB809395
:1030F000D2078AEF90E09093D4078093D307109281
:10310000D5071092D6071092D7071092D8078FE7ED
:103110008093D9071092DA071092DB071092DC0730
:1031200080E397E00E94470A8AE396E0DF91CF911F
:10313000B6CCCF93DF93CDE0D8E02697CE010E94A6
:10314000DA4887E0CD3DD807C1F78FE198E00E94CB
:10315000DA4889E198E00E94DA4883E198E00E9429
:10316000DA488DE098E00E94DA4887E398E00E9410
:10317000DA4881E398E00E94DA488BE298E00E9406
:10318000DA4885E298E00E94DA488FE498E00E94ED
:10319000DA4889E498E00E94DA4883E498E00E94E3
:1031A000DA488DE398E00E94DA4887E698E00E94CA
:1031B000DA4881E698E00E94DA488BE598E00E94C0
:1031C000DA4885E598E00E94DA488FE798E00E94A7
:1031D000DA4889E798E00E94DA4883E798E00E949D
:1031E000DA488DE698E00E94DA4887E998E00E9484
:1031F000DA4881E998E00E94DA488BE898E00E947A
:10320000DA4885E898E00E94DA48CBEBD8E02697C8
:10321000CE010E94DA4888E0CD39D807C1F7DF91A6
:10322000CF91089580E880930602109207021092D1
:1032300008028091C207823009F4A4C030F48823C8
:1032400059F0813009F454C00895833009F4F3C073
:10325000843009F43BC1089580916307882371F09D
:103260008091C307109206028093070243E050E06A
:1032700066E072E08FE299E00E944A42809178070E
:103280008823A9F02091C4079091C5078091C207B7
:10329000806180930602209307029093080243E026
:1032A00050E066E072E08FE299E00E944A4280912D
:1032B0008D07882399F09091C6078091C20780629C
:1032C00080930602909307021092080243E050E0B8
:1032D00066E072E08FE299E00E944A428091A20784
:1032E000882309F433C12091C7079091C80799C07A
:1032F00090916307992371F09091C907809306021A
:103300009093070243E050E066E072E08FE299E0BC
:103310000E944A42809178078823A9F02091CA0729
:103320009091CB078091C207806180930602209321
:1033300007029093080243E050E066E072E08FE2FB
:1033400099E00E944A4280918D07882399F09091DC
:10335000CC078091C2078062809306029093070297
:103360001092080243E050E066E072E08FE299E0DC
:103370000E944A428091A207882309F4E7C09091F5
:10338000CD07A0C090916307992391F02091CE07BB
:103390009091CF0780930602209307029093080232
:1033A00043E050E066E072E08FE299E00E944A421A
:1033B000809178078823A9F02091D0079091D107B8
:1033C0008091C20780618093060220930702909348
:1033D000080243E050E066E072E08FE299E00E946C
:1033E0004A4280918D07882399F09091D20780916D
:1033F000C20780628093060290930702109208022F
:1034000043E050E066E072E08FE299E00E944A42B9
:103410008091A207882309F499C02091D307909145
:10342000D4078091C207806380930602209307022D
:103430009093080283C090916307992371F0909153
:10344000D507809306029093070243E050E066E0C0
:1034500072E08FE299E00E944A42809178078823C7
:1034600099F09091D6078091C207806180930602FF
:10347000909307021092080243E050E066E072E089
:103480008FE299E00E944A4280918D07882399F04B
:103490009091D7078091C207806280930602909333
:1034A00007021092080243E050E066E072E08FE20B
:1034B00099E00E944A428091A207882309F446C0FD
:1034C0009091D8078091C207806332C090916307C2
:1034D000992371F09091D907809306029093070287
:1034E00043E050E066E072E08FE299E00E944A42D9
:1034F00080917807882399F09091DA078091C2072C
:10350000806180930602909307021092080243E0C4
:1035100050E066E072E08FE299E00E944A428091BA
:103520008D07882399F09091DB078091C207806214
:1035300080930602909307021092080243E050E045
:1035400066E072E08FE299E00C944A420895089593
:10355000CF93DF93EC01862F69834A8360E00E945A
:10356000484860E08A810E94484861E089810E9461
:10357000844861E08A810E9484481882DF91CF915B
:1035800008950F931F93CF93DF93EC018A810E94DC
:10359000B2488C0189810E94B248E881EF70000F27
:1035A000111F802B94E0E99FF0011124EB5AFC4F8E
:1035B000E80FF11D808188838073DF91CF911F9187
:1035C0000F9108951F920F920FB60F9211240BB610
:1035D0000F922F933F934F935F936F937F938F93AC
:1035E0009F93AF93BF93EF93FF93E091BF08F09148
:1035F000C0081995FF91EF91BF91AF919F918F9165
:103600007F916F915F914F913F912F910F900BBEE2
:103610000F900FBE0F901F901895FC01A3E0440F70
:10362000551F661F771FAA95D1F74115510581E0F7
:103630006807710514F481E00EC033E07595679555
:10364000579547953A95D1F74115510581E068079F
:1036500071051CF482E0828331C023E07595679583
:10366000579547952A95D1F74115510581E068078F
:10367000710514F483E0EFCF92E075956795579547
:1036800047959A95D1F74115510581E06807710575
:1036900014F484E0E0CF82E07595679557954795DF
:1036A0008A95D1F785E082834115510581E068074D
:1036B000710524F04FEF5FEF60E070E08FB7838318
:1036C000F894518340835093870040938600838110
:1036D0008FBF80918100887F8093810090918100CD
:1036E0008281892B8093810008951092800020E1CF
:1036F0002093810092CFEFE6F0E080818E7F80837F
:103700000895E1E8F0E02081DC0112968C91822B93
:10371000808308950F931F93CF93DF93EC018B0168
:10372000BA01A90114161506160617060CF475DF62
:103730001D830C8381E080936F00CE01DF91CF91D8
:103740001F910F91DECFFC01283009F4EEC018F470
:10375000213041F00895203109F4F7C0213109F4F6
:1037600002C1089587858430C1F4A08DB18D82A1F6
:103770009C91613011F4892B02C0809589238C9330
:10378000A28DB38D9C9183A1809589238C93A28D6A
:10379000B38D9C9183A1892B08C0A089B189868DA6
:1037A0009C916130C1F3809589238C93A08DB18D5C
:1037B00082A19C9147FF02C0892B02C0809589237A
:1037C0008C93A28DB38D9C9183A1809589238C933A
:1037D000A28DB38D9C9183A1892B8C93A08DB18DEB
:1037E00082A19C9146FF02C0892B02C0809589234B
:1037F0008C93A28DB38D9C9183A1809589238C930A
:10380000A28DB38D9C9183A1892B8C93A08DB18DBA
:1038100082A19C9145FF02C0892B02C0809589231B
:103820008C93A28DB38D9C9183A1809589238C93D9
:10383000A28DB38D9C9183A1892B8C93A08DB18D8A
:1038400082A19C9144FF02C0892B02C080958923EC
:103850008C93A28DB38D9C9183A1809589238C93A9
:10386000A28DB38D9C9183A1892B8C93A08DB18D5A
:1038700082A19C9143FF02C0892B02C080958923BD
:103880008C93A28DB38D9C9183A1809589238C9379
:10389000A28DB38D9C9183A1892B8C93A08DB18D2A
:1038A00082A19C9142FF02C0892B02C0809589238E
:1038B0008C93A28DB38D9C9183A1809589238C9349
:1038C000A28DB38D9C9183A1892B8C93A08DB18DFA
:1038D00082A19C9141FF02C0892B02C0809589235F
:1038E0008C93A28DB38D9C9183A1809589238C9319
:1038F000A28DB38D9C9183A1892B8C93A08DB18DCA
:1039000082A19C9140FF02C0892B02C0809589232F
:103910008C93A28DB38D9C9183A1809589238C93E8
:10392000A28DB38D9C9183A1A2C062B9A289B389F3
:103930009C91878D809589238C93A289B3899C91D2
:10394000878D892B8C9342B902C062B948B9A2898C
:10395000B3899C91878D809589238C93A289B389A3
:103960009C91878D84C0A59894B3862F8071880F11
:10397000892B84BB80910201877E80930201909104
:103980000201862F807C869586958695892B80936B
:1039900002018EB1847C8EB99EB1262F2C70220F2D
:1039A000220F862F8370280F862F8072682F70E079
:1039B0007595679575956795620F692B6EB9A48D9E
:1039C000B58D9C9184A1809589238C93A48DB58D10
:1039D0009C9184A1892B8C93A48DB58D9C9184A1FD
:1039E000809589238C93A489B5899C9180A1809529
:1039F00089238C93A59894B3842F8071880F892B89
:103A000084BB80910201877E809302019091020124
:103A1000842F807C869586958695892B80930201DC
:103A20008EB1847C8EB99EB1242F2C70220F220F70
:103A3000842F8370280F842F8072482F50E0559573
:103A4000479555954795420F492B4EB9A289B389A1
:103A50009C91878D809589238C93A289B3899C91B1
:103A6000878D892B8C93A489B5899C9180A1892B02
:103A70008C930895613131F08FEF81B9603149F451
:103A800087B9089588E18093010180E283BB8BE3CD
:103A90008DB908958F929F92AF92BF92CF92DF928D
:103AA000EF92FF920F931F93CF93DF93EC01680186
:103AB000790162B948B9C901B80120E130E040E0BC
:103AC00050E00E94044B49015A0180E090E0DC0183
:103AD00088159905AA05BB050CF0D4C0EA89FB89B5
:103AE00030812F8D209523232083EA89FB89308123
:103AF0002F8D232B2083EA89FB8930812F8D209500
:103B000023232083EA89FB8930812F8D232B208377
:103B1000EA89FB8930812F8D209523232083EA8930
:103B2000FB8930812F8D232B2083EA89FB8930810B
:103B30002F8D209523232083EA89FB8930812F8DC7
:103B4000232B2083EA89FB8930812F8D2095232325
:103B50002083EA89FB8930812F8D232B2083EA89FA
:103B6000FB8930812F8D209523232083EA89FB89CF
:103B700030812F8D232B2083EA89FB8930812F8D83
:103B8000209523232083EA89FB8930812F8D232BE5
:103B90002083EA89FB8930812F8D20952323208380
:103BA000EA89FB8930812F8D232B2083EA89FB89C9
:103BB00030812F8D209523232083EA89FB89308152
:103BC0002F8D232B2083EA89FB8930812F8D20952F
:103BD00023232083EA89FB8930812F8D232B2083A7
:103BE000EA89FB8930812F8D209523232083EA8960
:103BF000FB8930812F8D232B2083EA89FB8930813B
:103C00002F8D209523232083EA89FB8930812F8DF6
:103C1000232B2083EA89FB8930812F8D2095232354
:103C20002083EA89FB8930812F8D232B2083EA8929
:103C3000FB8930812F8D209523232083EA89FB89FE
:103C400030812F8D232B2083EA89FB8930812F8DB2
:103C5000209523232083EA89FB8930812F8D232B14
:103C60002083EA89FB8940813F8D3095342330835E
:103C7000EA89FB8920813F8D322B30830196A11D7B
:103C8000B11D26CFD701C6018F709927AA27BB2760
:103C9000892B8A2B8B2B19F1C701B60120E130E06B
:103CA00040E050E00E94044BC12CD12C76016C15F1
:103CB0007D058E059F059CF0EA89FB8930812F8D5B
:103CC000209523232083EA89FB8930812F8D232BA4
:103CD00020832FEFC21AD20AE20AF20AE8CFDF915C
:103CE000CF911F910F91FF90EF90DF90CF90BF90F9
:103CF000AF909F908F9008958F929F92AF92BF92B6
:103D0000CF92DF92EF92FF92CF93DF93EC016901A4
:103D10007A0162B9CA01B90120E130E040E050E027
:103D20000E94044B49015A0180E090E0DC018815B3
:103D30009905AA05BB050CF0A4C1EA89FB8930816D
:103D40002F8D209523232083EA89FB8930812F8DB5
:103D5000232B2083EA89FB8930812F8D2095232313
:103D60002083EA89FB8930812F8D232B2083EA89E8
:103D7000FB8930812F8D209523232083EA89FB89BD
:103D800030812F8D232B2083EA89FB8930812F8D71
:103D9000209523232083EA89FB8930812F8D232BD3
:103DA0002083EA89FB8930812F8D2095232320836E
:103DB000EA89FB8930812F8D232B2083EA89FB89B7
:103DC00030812F8D209523232083EA89FB89308140
:103DD0002F8D232B2083EA89FB8930812F8D20951D
:103DE00023232083EA89FB8930812F8D232B208395
:103DF000EA89FB8930812F8D209523232083EA894E
:103E0000FB8930812F8D232B2083EA89FB89308128
:103E10002F8D209523232083EA89FB8930812F8DE4
:103E2000232B2083EA89FB8930812F8D2095232342
:103E30002083EA89FB8930812F8D232B2083EA8917
:103E4000FB8930812F8D209523232083EA89FB89EC
:103E500030812F8D232B2083EA89FB8930812F8DA0
:103E6000209523232083EA89FB8930812F8D232B02
:103E70002083EA89FB8930812F8D2095232320839D
:103E8000EA89FB8930812F8D232B2083EA89FB89E6
:103E900030812F8D209523232083EA89FB8930816F
:103EA0002F8D232B2083EA89FB8930812F8D20954C
:103EB00023232083EA89FB8930812F8D232B2083C4
:103EC000EA89FB8930812F8D209523232083EA897D
:103ED000FB8930812F8D232B2083EA89FB89308158
:103EE0002F8D209523232083EA89FB8930812F8D14
:103EF000232B2083EA89FB8930812F8D2095232372
:103F00002083EA89FB8930812F8D232B2083EA8946
:103F1000FB8930812F8D209523232083EA89FB891B
:103F200030812F8D232B2083EA89FB8930812F8DCF
:103F3000209523232083EA89FB8930812F8D232B31
:103F40002083EA89FB8930812F8D209523232083CC
:103F5000EA89FB8930812F8D232B2083EA89FB8915
:103F600030812F8D209523232083EA89FB8930819E
:103F70002F8D232B2083EA89FB8930812F8D20957B
:103F800023232083EA89FB8930812F8D232B2083F3
:103F9000EA89FB8930812F8D209523232083EA89AC
:103FA000FB8930812F8D232B2083EA89FB89308187
:103FB0002F8D209523232083EA89FB8930812F8D43
:103FC000232B2083EA89FB8930812F8D20952323A1
:103FD0002083EA89FB8930812F8D232B2083EA8976
:103FE000FB8930812F8D209523232083EA89FB894B
:103FF00030812F8D232B2083EA89FB8930812F8DFF
:10400000209523232083EA89FB8930812F8D232B60
:104010002083EA89FB8930812F8D209523232083FB
:10402000EA89FB8930812F8D232B2083EA89FB8944
:1040300030812F8D209523232083EA89FB893081CD
:104040002F8D232B2083EA89FB8930812F8D2095AA
:1040500023232083EA89FB8930812F8D232B208322
:10406000EA89FB8940813F8D309534233083EA898A
:10407000FB8920813F8D322B30830196A11DB11D1C
:1040800056CED701C6018F709927AA27BB27892B47
:104090008A2B8B2B81F1C701B60120E130E040E093
:1040A00050E00E94044BC12CD12C76016C157D058B
:1040B0008E059F0504F1EA89FB8930812F8D2095BB
:1040C00023232083EA89FB8930812F8D232B2083B2
:1040D000EA89FB8930812F8D209523232083EA896B
:1040E000FB8930812F8D232B20832FEFC21AD20A18
:1040F000E20AF20ADBCFDF91CF91FF90EF90DF90E1
:10410000CF90BF90AF909F908F90089508954F9259
:104110005F926F927F928F929F92AF92BF92CF9257
:10412000DF92EF92FF920F931F93CF93DF93CDB760
:10413000DEB7C05AD1090FB6F894DEBF0FBECDBFAF
:1041400070E4E9E0F2E0DE01AF5BBF4F01900D9259
:104150007A95E1F770E4E9E4F2E0DE01119601906E
:104160000D927A95E1F770E2E9E8F2E0DE01AF57EF
:10417000BF4F01900D927A95E1F7E62FF0E05F01D5
:10418000AA0CBB1CA1E4B0E0AC0FBD1FAA0DBB1D67
:104190000D90BC91A02D2D01612C712CDC01159688
:1041A0004D925D926D927C921897A1E0B0E0AC0FB9
:1041B000BD1FAA0DBB1D0D90BC91A02D4D01A12CC2
:1041C000B12CDC0119968D929D92AD92BC921C97F8
:1041D000A1E8B0E0AC0FBD1FEA0FFB1F7081FC012E
:1041E0007687658745A326A307A3E0A6C1A67430FA
:1041F00019F461E066877787DC011E966C911E9743
:10420000653031F471E01E967C931E971F966C9377
:10421000FC016685613009F498C049013A015C01EE
:1042200029DCF301E058FC4EE491F0E0EE0FFF1FB3
:10423000E052FC4E25913491D50151963C932E933A
:104240005097F301E65CFC4EE4915E96EC935E972A
:10425000F401E058FC4EE491F0E0EE0FFF1FE05255
:10426000FC4E25913491F501338B228BF401E65CF1
:10427000FC4EE4915F96EC935F97C801F801E0581B
:10428000FC4EE491F0E0EE0FFF1FE052FC4E259152
:104290003491F501358B248BFC01E65CFC4EE491F6
:1042A0009096EC939097F701E058FC4EE491F0E083
:1042B000EE0FFF1FE052FC4E85919491F501978B14
:1042C000868BF701E65CFC4EE4909196EC92919718
:1042D0001E968C91813109F0ADC0F601E058FC4E7C
:1042E000E491F0E0EE0FFF1FE052FC4EA591B49177
:1042F000F501B58FA48FF601E65CFC4E9491F501B3
:1043000094A38C91E92FE095E823EC9361E088E099
:104310000E94484860E088E0C056DF4F0FB6F8942E
:10432000DEBF0FBECDBFDF91CF911F910F91FF90E8
:10433000EF90DF90CF90BF90AF909F908F907F9045
:104340006F905F904F900C948448BA01FA01E05846
:10435000FC4EE491F0E0EE0FFF1FE052FC4E459161
:104360005491DC0159965C934E935897FB01E65C9F
:10437000FC4EE4919296EC939297A901F901E058D2
:10438000FC4EE491F0E0EE0FFF1FE052FC4E259151
:104390003491FC01338F228FFA01E65CFC4EE491EC
:1043A0009396EC939397F801E058FC4EE491F0E07B
:1043B000EE0FFF1FE052FC4E45915491FC01558BCE
:1043C000448BF801E65CFC4EE4919096EC93BFEFD1
:1043D000EB16F104A9F0F701E058FC4EE491F0E08F
:1043E000EE0FFF1FE052FC4E25913491FC01378BFC
:1043F000268BF701E65CFC4EE490DC019196EC9292
:10440000FC0127852430B1F0F601E058FC4EE49120
:10441000F0E0EE0FFF1FE052FC4E45915491DC019D
:1044200051965C934E935097F601E65CFC4EE491F6
:104430005E96EC93C056DF4F0FB6F894DEBF0FBE0A
:10444000CDBFDF91CF911F910F91FF90EF90DF9043
:10445000CF90BF90AF909F908F907F906F905F9024
:104460004F900895462FDC011E962C911E97213007
:1044700071F05096ED91FC91519730815E962C91A0
:104480005E972095232320831E962C9101C021E066
:1044900060E059C91F93CF93DF93DC011E962C91E6
:1044A0001E97213069F05096ED91FC915197308123
:1044B0005E962C915E97232B20831E962C910AC02A
:1044C000142F462FEC0121E061E03DD92E85412FCC
:1044D00061E0CE01DF91CF911F9135C9462FDC01FC
:1044E0001E962C911E97213071F05096ED91FC9103
:1044F000519730815E962C915E97232B20831E96D8
:104500002C9160E002C021E061E01DC90F931F9370
:10451000CF93DF93EC018A01A5DF402F612FCE01FD
:10452000DF91CF911F910F91B5CFAF92BF92CF92F4
:10453000DF92EF92FF920F931F93CF93DF93EC01E3
:104540006B01B42EA52E79018C81813069F48985A7
:104550009A859C01261B370B8E199F0978018901CA
:10456000C42ED52EB82EA92EED858E2F90E0FC01FD
:104570003297EE31F10508F00EC18827EE58FF4F53
:104580008F4F0C94204B4D2D50E062E0CE01BEDFEA
:10459000A60163E0CE01BADF4F2D50E064E0CE010A
:1045A000B5DFA70165E0CE01B1DF4A2D50E066E03E
:1045B000CE01ACDF4B2D5A2D67E0CE01A7DF412F96
:1045C00050E052C05E2D44274C0D5D1D64E4CE01C9
:1045D0009DDF4B2D5A2D65E4CE0198DFA80166E4DE
:1045E000CE0194DFA6016EE4CE0190DF4B2D5A2D53
:1045F0006FE4CE018BDF62E2C2C0A60160E2CE01B1
:1046000085DF4B2D5A2D61E2CE0180DFA60160E5EA
:10461000CE017CDF4B2D5A2D62E5CE0177DFA7015D
:1046200061E5CE0173DFA80163E5E3CF40E050E030
:1046300062E0CE016BDFA60163E0CE0167DF40E000
:1046400050E064E0CE0162DFA70165E0CE015EDFED
:1046500040E050E066E0CE0159DF4B2D5A2D67E077
:10466000CE0154DF40E050E068E0CE014FDFA8010A
:1046700069E0BFCF6AE2CE01F5DE6C2DCE012EDF00
:104680006E2DCE012BDF6BE2CE01ECDE6B2D71C007
:104690006AE2CE01E7DE6A2DCE0120DF6B2DCE016E
:1046A0001DDF612FCE011ADF602FCE0117DF6BE215
:1046B000CE01D8DE6D2DCE0111DF6C2DCE010EDFC7
:1046C0006F2DCE010BDF6E2D57C05E2D44274C2978
:1046D0005D2966E4CE011ADFA80167E4CE0116DF8A
:1046E0004B2D5A2D68E40FC0A70166E3CE010EDF03
:1046F000A60167E3CE010ADFA80168E3CE0106DF69
:104700004B2D5A2D69E3CE0101DFA60160E2CE01F7
:10471000FDDE4B2D5A2D61E26CCF4B2D5A2D62E000
:10472000CE01F4DEA60163E0CE01F0DEA80166E072
:10473000CE01ECDEA70167E0CE01E8DE6FE01FC02E
:104740006AE2CE018FDE6D2DCE01C8DE6C2DCE016A
:10475000C5DE6F2DCE01C2DE6E2DCE01BFDE6BE257
:10476000CE0180DE6A2DCE01B9DE6B2DCE01B6DE24
:10477000612FCE01B3DE602FCE01B0DE6CE2CE0140
:10478000DF91CF911F910F91FF90EF90DF90CF902D
:10479000BF90AF9067CEDF91CF911F910F91FF90A7
:1047A000EF90DF90CF90BF90AF9008950F931F933D
:1047B000CF93DF93EC016C8361E08DA10E944848A8
:1047C00061E08EA10E94484861E08FA10E944848A4
:1047D00088A58F3F19F061E00E9448488E8581319D
:1047E00029F0813039F48F85853021F461E089A585
:1047F0000E9448486E85613011F0CE013BD9EE89A8
:10480000FF89908189A1892B808365E070E080E039
:1048100090E00E945847EE89FF89908189A1809598
:10482000892380836FE070E080E090E00E94584729
:10483000EE89FF89908189A1892B80836FE070E0E8
:1048400080E090E00E945847EC89FD89908188A122
:10485000809589238083ED858E2F90E0FC0132972F
:10486000EE31F10510F00C94A9368827E057FF4F80
:104870008F4F0C94204B41E050E060E0CE0146DECB
:1048800044EA58EA63E0CE0141DE40E050E06CE0EB
:10489000CE013CDE4CE058E06DE0CE0137DE40E07A
:1048A0005BE26EE0CE0132DE47EB50E06EE1CE011E
:1048B0002DDE4FE35BE261E0CE0128DE40E056E012
:1048C00062E0CE0123DE40E050E060E1CE011EDE7A
:1048D00040E750E661E1CE0119DE40E050E065E0DE
:1048E000CE0114DE40E050E066E0CE010FDE4CE188
:1048F0005FEE66E1CE010ADE43E050E067E1CE0103
:1049000005DE43E352E067E0CE0100DE40E050E028
:104910006BE0CE01FBDD40E050E06FE0CE01F6DD64
:1049200040E050E061E4CE01F1DD40E050E062E4BF
:10493000CE01ECDD40E050E068E4CE01E7DD4FE37E
:1049400051E069E4CE01E2DD40E050E06AE4CE01EE
:10495000DDDD40E050E06BE4CE01D8DD40E05FEE0D
:1049600064E4CE01D3DD40E050E065E4CE01CEDD6D
:104970004FE351E066E4CE01C9DD47E057E060E374
:10498000CE01C4DD44E052E061E3CE01BFDD44E08E
:1049900052E062E3CE01BADD42E055E063E3CE01CE
:1049A000B5DD47E055E064E3CE01B0DD44E052E020
:1049B00065E3CE01ABDD44E052E066E3CE01A6DD67
:1049C00042E055E067E3CE01A1DD42E053E06AE357
:1049D000CE019CDD42E053E06BE3CE0197DD40E089
:1049E00050E063E2CE0192DD40E050E064E2CE01AF
:1049F0008DDD40E050E865E2CE0188DD40E050E02A
:104A00006FE4CE0183DD40E050E06EE40C94413071
:104A100040EF58E765EECE0179DD40E051E061E01E
:104A2000CE0174DD40E052E062E0CE016FDD40E394
:104A300050E163E0CE016ADD40E050E064E0CE0189
:104A400065DD47E052E068E0CE0160DD40E050E027
:104A500069E0CE015BDD40E050E06AE0CE0156DD6A
:104A600040E050E06CE0CE0151DD40E050E06DE010
:104A7000CE014CDD40E050E06FE0CE0147DD40E08C
:104A800050E060E1CE0142DD47E050E061E1CE015F
:104A90003DDD40E050E062E1CE0138DD40E050E035
:104AA00063E1CE0133DD41E050E067E0CE012EDD71
:104AB00068EC70E080E090E00E94584740E956E1E1
:104AC00060E1CE0123DD47E252E061E1CE011EDD6F
:104AD00062E370E080E090E00E9458474DE050E0D3
:104AE00062E1CE0113DD62E370E080E090E00E94BD
:104AF000584740E052E163E1CE0108DD4AE050E072
:104B000069E2CE0103DD4DE050E07DC040EF58E7A3
:104B100065EECE01FBDC40E051E061E0CE01F6DC69
:104B200040E057E062E0CE01F1DC40E350E163E0B9
:104B3000CE01ECDC40E050E064E0CE01E7DC47E091
:104B400052E068E0CE01E2DC40E050E069E0CE01F6
:104B5000DDDC40E050E06AE0CE01D8DC40E050E02F
:104B60006CE0CE01D3DC40E050E06DE0CE01CEDC65
:104B700040E050E06FE0CE01C9DC40E050E060E191
:104B8000CE01C4DC47E050E061E1CE01BFDC40E093
:104B900050E062E1CE01BADC40E050E063E1CE01DA
:104BA000B5DC41E050E067E0CE01B0DC68EC70E0DD
:104BB00080E090E00E94584740E955E160E1CE0175
:104BC000A5DC47E252E061E1CE01A0DC62E370E0E7
:104BD00080E090E00E9458474CE950E062E1CE014D
:104BE00095DC62E370E080E090E00E94584740E08E
:104BF00059E163E1CE018ADC43E250E069E2CE0193
:104C000085DC4EE050E06BE2CE0180DC62E370E0D8
:104C100080E090E00E94584740E050E060E2CE0122
:104C200075DC40E050E061E2CE0170DC40E050E035
:104C300060E3CE016BDC44E054E061E3CE0166DC6E
:104C400043E050E062E3CE0161DC45E054E065E31F
:104C5000CE015CDC48E058E066E3CE0157DC47E07B
:104C600054E067E3CE0152DC43E053E068E3CE0159
:104C70004DDC47E057E069E3CE0148DC44E055E015
:104C80006CE3CE0143DC48E058E06DE3CE013EDC4E
:104C900040E050E060E5CE0139DC4FEE50E061E5E8
:104CA000CE0134DC40E050E062E5CE012FDC4FE382
:104CB00051E063E5CE012ADC40E057EA60E6CE0130
:104CC00025DC41E050E061E6CE0120DC40E050E030
:104CD0006AE6CE011BDC40E050E060E8CE0116DC65
:104CE00040E050E061E8CE0111DC40E050E062E8D5
:104CF000CE010CDC40E050E063E8CE0107DC40E090
:104D000050E064E8CE0102DC40E050E065E8CE010E
:104D1000FDDB40E150E060E9CE01F8DB40E050E02F
:104D200062E9CE01F3DB43E351E067E0CE01EEDB65
:104D30000C94A93644E850E066E2CE01E7DB68E275
:104D400070E080E090E00E94584748EB50E066E257
:104D5000CE01DCDB68E270E080E090E00E94584722
:104D60004CEB50E066E2CE01D1DB64E170E080E024
:104D700090E00E94584740E050E060E6CE01C6DB7C
:104D800046E050E061E6CE01C1DB40E050E062E683
:104D9000CE01BCDB48EC50E063E6CE01B7DB64E15A
:104DA00070E080E090E00E94584740E750E063E701
:104DB000CE01ACDB40E050E060E4CE01A7DB40E494
:104DC00050E061E4CE01A2DB45E450E062E4CE01B4
:104DD0009DDB41E050E063E4CE0198DB40E650E02B
:104DE00064E4CE0193DB45E050E065E4CE018EDB68
:104DF0004CE050E066E4CE0189DB41ED50E067E431
:104E0000CE0184DB45E050E068E4CE017FDB45E77E
:104E100050E060E5CE017ADB41E050E061E5CE0193
:104E200075DB47E650E062E5CE0170DB44E150E01F
:104E300063E5CE016BDB42EF50E064E5CE0166DB5B
:104E400047E050E065E5CE0161DB43E050E066E518
:104E5000CE015CDB49E450E067E5CE0157DB64E15D
:104E600070E080E090E00E94584743E050E06FE13E
:104E7000CE014CDB40E050E060E2CE0147DB44E293
:104E800050E064E2CE0142DB44E350E065E2CE0153
:104E90003DDB4FE250E063E2CE0138DB64E170E0DD
:104EA00080E090E00E94584744E450E068E1CE0181
:104EB0002DDB41E050E061E2CE0128DB40E050E034
:104EC00061E0CE0123DB43E050E06CE1CE011EDB6C
:104ED00046E050E069E1CE0119DB64E170E080E07A
:104EE00090E00E94584744E850E066E2CE010EDBB5
:104EF00068E270E080E090E00E94584748EB50E0A4
:104F000066E2CE0103DB68E270E080E090E00E94A0
:104F100058474CEB50E066E2CE01F8DA64E170E00D
:104F200080E090E00E94584740E050E062E0CE010F
:104F3000EDDA40E050E063E0CE01E8DA40E050E036
:104F400064E0CE01E3DA4FEA50E065E0CE01DEDA5C
:104F500040E050E066E0CE01D9DA40E050E067E0A2
:104F6000CE01D4DA40E050E068E0CE01CFDA4BED7C
:104F700050E069E0CE01CADA64E170E080E090E0E0
:104F80000E94584748E050E066E1CE01BFDA45E0B4
:104F900050E067E1CE01BADA61E2CE0163DA62E2A3
:104FA000CE0160DA0C94A93661E1CE015BDA6CE0E7
:104FB00070E080E090E00E94584761EBCE0152DA49
:104FC00061E0CE018BDA6CE2CE0188DA6DE2CE01CF
:104FD00085DA62EBCE0146DA61E0CE017FDA6CE27F
:104FE000CE017CDA6DE2CE0179DA63EBCE013ADAFA
:104FF00061E0CE0173DA6CE2CE0170DA6DE2CE01CF
:105000006DDA61E0CE016ADA6CE2CE0167DA6DE258
:10501000CE0164DA64EBCE0125DA67E0CE015EDA18
:1050200060ECCE011FDA62EACE0158DA62E0CE010E
:1050300055DA64E8CE0152DA61ECCE0113DA65ECA0
:10504000CE014CDA62ECCE010DDA6AE0CE0146DA2E
:1050500060E0CE0143DA63ECCE0104DA6AE8CE0107
:105060003DDA6AE2CE013ADA64ECCE01FBD96AE8B5
:10507000CE0134DA6EEECE0131DA65ECCE01F2D932
:105080006EE0CE012BDA66E3CE01ECD968EC73C09A
:1050900061E1CE01E7D96CE070E080E090E00E9431
:1050A000584761EBCE01DED961E0CE0117DA6CE240
:1050B000CE0114DA6DE2CE0111DA62EBCE01D2D963
:1050C00061E0CE010BDA6CE2CE0108DA6DE2CE01CE
:1050D00005DA63EBCE01C6D961E0CE01FFD96CE2FF
:1050E000CE01FCD96DE2CE01F9D961E0CE01F6D94D
:1050F0006CE2CE01F3D96DE2CE01F0D964EBCE01C2
:10510000B1D967E0CE01EAD960ECCE01ABD962EA51
:10511000CE01E4D962E0CE01E1D964E8CE01DED966
:1051200061ECCE019FD965ECCE01D8D962ECCE01FD
:1051300099D96AE0CE01D2D960E0CE01CFD963EC33
:10514000CE0190D96AE8CE01C9D96AE2CE01C6D9AA
:1051500064ECCE0187D96AE8CE01C0D96EEECE01EB
:10516000BDD965ECCE017ED96EE0CE01B7D966E33C
:10517000CE0178D960ECCE01B1D960EECE0172D902
:105180006FE0CE01ABD96AE1CE01A8D96FE0CE01C4
:10519000A5D968E1CE01A2D96FE2CE019FD968E21C
:1051A000CE019CD960E2CE0199D962E2CE0196D9B6
:1051B0006FE1CE0193D96BE1CE0190D963E2CE01CC
:1051C0008DD967E3CE018AD960E0CE0187D967E047
:1051D000CE0184D962E0CE0181D960E1CE017ED9D1
:1051E00061EECE013FD96FE0CE0178D96BE1CE01FF
:1051F00075D96FE0CE0172D967E1CE016FD963E353
:10520000CE016CD96CE2CE0169D969E2CE0166D9D2
:105210006EE2CE0163D960E3CE0160D960E3CE01D6
:105220005DD969E3CE015AD96FE3CE0157D960E069
:10523000CE0154D967E0CE0151D963E0CE014ED9F9
:1052400060E1CE014BD96AE2CE010CD960E0CE011B
:1052500045D960E0CE0142D960E0CE013FD96FE789
:10526000CE013CD96BE2CE01FDD860E0CE0136D94B
:1052700060E0CE0133D960E0CE0130D96FE9CE01D4
:105280002DD960EFCE01EED861E0CE0127D966EFCF
:10529000CE01E8D860E00C94653161E0CE01E2D83F
:1052A00065E2CE01DFD860E4CE0118D961E1CE011C
:1052B000D9D86AE070E080E090E00E94584760E250
:1052C000CE01D0D868E3CE01CDD869E2CE01CAD8EC
:1052D00063E1CE01C7D866E3CE01C4D860E6CE0153
:1052E000FDD86AE3CE01BED865E0CE01F7D86AE208
:1052F000CE01B8D860E0CE01F1D86FE7CE01EED88C
:1053000064EBCE01AFD863E0CE01E8D868E0CE010F
:10531000E5D86BE0CE01E2D86EE0CE01DFD86AEBD3
:10532000CE01A0D867E0CE01D9D86DE0CE01D6D8A5
:105330006BE2CE0197D860E0CE01D0D86FE75EC2B5
:1053400063E8CE018FD862E0CE01C8D865E8CE010F
:1053500089D863E0CE01C2D86BE8CE0183D861E082
:10536000CE01BCD86CE8CE017DD863E9CE01B6D8B9
:1053700061E9CE0177D861E0CE01B0D863E8CE0113
:1053800071D860E0CE01AAD86EE3CE016BD860EB95
:10539000CE01A4D86FE3CE0165D863E0CE019ED8DC
:1053A00060E4CE015FD860E1CE0198D861E4CE011F
:1053B00059D866E5CE0192D862E4CE0153D863E1B4
:1053C000CE018CD863E4CE014DD866E4CE0186D8F8
:1053D00064E4CE0147D863E2CE0180D865E4CE0113
:1053E00041D866E7CE017AD866E4CE013BD860E0CA
:1053F000CE0174D867E4CE0135D86EE5CE016ED803
:1054000068E4CE012FD86FE4CE0168D869E4CE01FC
:1054100029D860E4CE0162D867E1CE0123D861E9E2
:10542000CE015CD86BE2CE011DD869EFCE0156D813
:105430006AE070E080E090E00E9458476BE1CE01A6
:1054400011D864E1CE014AD86AE1CE010BD861E1FE
:10545000CE0144D86CE1CE0105D866E0CE013ED83D
:105460006FE1CE010E94322262E4CE0137D864E1BE
:1054700070E080E090E00E94584769E1CE010E9410
:1054800032226AE0CE012AD869E1CE010E9432229E
:105490006AE1CE0123D868E270E080E090E00E94EB
:1054A000584769E1CE010E94322262E1CE0116D84E
:1054B00068E270E080E090E00E9458476EE1CE0123
:1054C0000E94322267E2CE0109D864E670E080E0F3
:1054D00090E00E94584764E2CE010E94322260E6CA
:1054E000CE010E946E226DE3CE010E94322260E462
:1054F000CE010E946E2264E3CE010E94322268E354
:10550000CE010E946E2265E3CE010E94322268E342
:10551000CE010E946E2264E2CE010E94322268E334
:10552000CE010E946E2268E270E080E090E00E946E
:10553000584764E2CE010E9432226CE3CE010E9401
:105540006E2266E1CE010E9432226CE1CE010E9401
:105550006E2261E0CE010E94322266E0CE010E94FE
:105560006E2265E5CE010E94322260E0CE010E94EB
:105570006E2262E0CE010E94322260E0CE010E94E3
:105580006E2263E0CE010E94322260E0CE010E94D2
:105590006E2264E0CE010E94322260E0CE010E94C1
:1055A0006E2265E0CE010E9432226FEECE010E9493
:1055B0006E2266E0CE010E94322260E0CE010E949F
:1055C0006E2267E0CE010E94322260E0CE010E948E
:1055D0006E2268E0CE010E94322261E0CE010E947C
:1055E0006E2269E0CE010E9432226FE8CE010E9455
:1055F0006E22D5CC62EECE010E94322263E2CE0151
:105600000E946E2262E0CE010E946E2264E5CE010D
:105610000E946E2260EECE010E94322261E0CE0135
:105620000E946E226AE070E080E090E00E9458479D
:1056300060EECE010E94322263E0CE010E946E2213
:105640006AE070E080E090E00E94584761E0CE019F
:105650000E94322264E670E080E090E00E945847A9
:1056600066EECE010E94322261E0CE010E946E22DF
:105670006FE1CE010E946E226FEFCE010E946E227A
:1056800060EBCE010E94322260E2CE010E946E22C7
:1056900060E0CE010E946E2261E0CE010E946E2287
:1056A0006FEDCE010E946E2261E0CE010E946E225B
:1056B0006FE0CE010E946E2260E0CE010E946E2259
:1056C00064EBCE010E94322262E0CE010E946E2283
:1056D00063E1CE010E946E2260E0CE010E946E2244
:1056E00068E0CE010E946E226BE2CE010E946E2223
:1056F00060E0CE010E946E2262E0CE010E946E2226
:1057000060E0CE010E946E2266EBCE010E94322242
:1057100061E0CE010E946E2260E2CE010E946E2204
:1057200060E0CE010E946E2264E0CE010E946E22F3
:105730006CE0CE010E946E2260E0CE010E946E22DB
:1057400062E0CE010E946E226AEBCE010E943222FC
:105750006FE0CE010E946E2268EBCE010E943222E1
:1057600067E0CE010E946E2261E0CE010E946E22AF
:1057700066E3CE010E94322262E2CE010E946E22D6
:1057800060EFCE010E94322263E0CE010E946E22C1
:1057900061E070E080E090E00E9458470FE011E087
:1057A0002FED31E040E050E060E070E0CE010E947B
:1057B000952269E2CE010E9432226EEBCE010E9458
:1057C000322266E0CE010E946E2260EFCE010E947E
:1057D0006E2261E0CE010E946E2260EFCE010E9437
:1057E0006E2260E0CE010E946E2260E0CE010E9437
:1057F0006E2260EDCE010E9432226DE0CE010E9449
:105800006E220C94A83562EECE010E9432226EE127
:10581000CE010E946E2262E0CE010E946E2264E5FB
:10582000CE010E946E2260EECE010E94322261E023
:10583000CE010E946E226AE070E080E090E00E945B
:10584000584760EECE010E94322263E0CE010E94F2
:105850006E226AE070E080E090E00E94584761E0CC
:10586000CE010E94322264E670E080E090E00E9467
:10587000584766EECE010E94322263E0CE010E94BC
:105880006E226FEFCE010E946E226FEFCE010E945A
:105890006E2260EBCE010E94322264E2CE010E94B1
:1058A0006E2260E0CE010E946E2263E0CE010E9473
:1058B0006E226FE1CE010E946E2261E0CE010E9455
:1058C0006E226FEDCE010E946E2260E0CE010E943A
:1058D0006E2264EBCE010E94322263E0CE010E9470
:1058E0006E2260EACE010E946E2260E0CE010E942C
:1058F0006E226EE2CE010E946E2260E3CE010E9413
:105900006E2260E0CE010E946E226FE0CE010E9406
:105910006E2260E0CE010E946E2266EBCE010E94F4
:10592000322262E0CE010E946E226DE0CE010E9422
:105930006E2260E0CE010E946E2260E1CE010E94E4
:105940006E2260E1CE010E946E2260E0CE010E94D4
:105950006E2268E0CE010E946E226AEBCE010E94A8
:1059600032226FE0CE010E946E2268EBCE010E94CF
:10597000322267E0CE010E946E2261E0CE010E94D9
:105980006E2266E3CE010E94322262E2CE010E94C4
:105990006E2260EFCE010E94322263E0CE010E94AF
:1059A0006E2261E070E080E090E0D2C062EECE0155
:1059B0000E94322263E2CE010E946E2262E0CE019A
:1059C0000E946E2264E0CE010E946E2260EECE0143
:1059D0000E94322261E0CE010E946E226AE070E0F5
:1059E00080E090E00E94584760EECE010E94322293
:1059F00063E0CE010E946E226AE070E080E090E0F9
:105A00000E94584761E0CE010E94322264E670E0B5
:105A100080E090E00E94584766EECE010E9432225C
:105A200064E0CE010E946E2263E9CE010E946E22E4
:105A300060EECE010E946E2260EBCE010E94322207
:105A400060E0CE010E946E2260E0CE010E946E22D4
:105A500063E0CE010E946E226FE1CE010E946E22B1
:105A600061E0CE010E946E226FEDCE010E946E2297
:105A700060E0CE010E946E2264EBCE010E943222D1
:105A800063E0CE010E946E2260EACE010E946E2287
:105A900060E0CE010E946E226EE2CE010E946E2274
:105AA00060E3CE010E946E2260E0CE010E946E2271
:105AB0006FE0CE010E946E2260E0CE010E946E2255
:105AC00066EBCE010E94322262E0CE010E946E227D
:105AD0006DE0CE010E946E2260E0CE010E946E2237
