:100000000C94130A0C94440A0C94440A0C94440A69
:100010000C94440A0C94440A0C94440A0C94440A28
:100020000C94440A0C94440A0C94440A0C94440A18
:100030000C94440A0C94440A0C94440A0C94440A08
:100040000C94440A0C94440A0C94440A0C94440AF8
:100050000C94ED1A0C94440A0C94440A0C94174422
:100060000C94440A0C94440A0C94440A0C94440AD8
:100070000C94440A0C94440A0C94440A0C94440AC8
:100080000C94440A0C94440A0C94440A0C94440AB8
:100090000C94440A0C94440A0C94440A0C94863F31
:1000A0000C94440A0C94440A0C94440A0C94440A98
:1000B0000C94440A0C94440A0C94440A0C94440A88
:1000C0000C94440A0C94440A0C94440A0C94440A78
:1000D0000C94440A0C94440A0C94440A0C94440A68
:1000E0000C94440AED22D623082308232123D62387
:1000F000CE22AB234523D6235323532370237023CF
:10010000ED22AB23D623ED225323AB2308237F23F9
:10011000AB23AB23AB23AB23AB239823AB23AB2382
:100120004624B43613251325A526B436AB29DF277C
:100130005829B436052B0E2CBA2DBA2D4624573229
:10014000B4364624E12CBA2E9125832F51305732F4
:100150007E3110335734B635CA35532805A84CCDF7
:10016000B2D44EB93836A9020C50B9918688083CF1
:10017000A6AAAA2ABE000000803F3B453E452D4569
:10018000314537457545424546454C4550455445F2
:100190005A455E456245754568456C457045004069
:1001A0007A10F35A00A0724E18090010A5D4E80086
:1001B00000E87648170000E40B54020000CA9A3B9E
:1001C000000000E1F5050000809698000000404224
:1001D0000F000000A08601000000102700000000B2
:1001E000E803000000006400000000000A000000B6
:1001F00000000100000000002C76D888DC674F0862
:1002000023DFC1DFAE59E1B1B796E5E3E453C63A67
:10021000E651997696E8E6C28426EB898C9B62EDDE
:10022000407C6FFCEFBC9C9F40F2BAA56FA5F49098
:10023000055A2AF75C936B6CF9676DC11BFCE0E40F
:100240000D47FEF520E6B500D0ED902E0300943565
:1002500077050080841E080000204E0A000000C8B8
:100260000C333333330F986E12831141EF8D211409
:10027000893BE65516CFFEE6DB18D1844B381BF7D9
:100280007C1D901DA4BBE424203284725E22810078
:10029000C9F124ECA1E53D271010205F000000000B
:1002A000000000000000000000000000000000004E
:1002B000000000000000000000000000000000003E
:1002C00007000F800F800F800F800F80070007004E
:1002D00000000000070007000700000000000E38C3
:1002E0000E380E380E380630000000000000000006
:1002F00000000000000000000000000000000C30C2
:100300000C300C307FFE7FFE0C300C300C300C308B
:100310007FFE7FFE0C300C300C30000000000240ED
:1003200002400FF81FF81A401A401FF00FF8025849
:1003300002581FF81FF002400240000000000000B9
:1003400000000E100E300E7000E001C003800700A8
:100350000E700C700870000000000000000000002B
:100360000F001980198019800F000F080F9819F8D5
:1003700018F018E019F00F980000000000000000CD
:100380000700070007000E0000000000000000004A
:10039000000000000000000000000000000000005D
:1003A00000F001C0038007000E000E000E000E00DA
:1003B0000700038001C000F0000000000000000002
:1003C0000F00038001C000E000700070007000703A
:1003D00000E001C003800F000000000000000000EA
:1003E00001801188099007E007E03FFC3FFC07E02F
:1003F00007E0099011880180000000000000000063
:10040000000000000180018001800FF00FF00180EA
:1004100001800180000000000000000000000000DA
:1004200000000000000000000000000000000000CC
:1004300000000700070007000E0000000000000099
:10044000000000000000000000001FF81FF800007E
:10045000000000000000000000000000000000009C
:10046000000000000000000000000000000000008C
:100470000000070007000700000000000000000067
:1004800000020006000E001C0038007000E001C0F1
:10049000038007000E001C000000000000000000A8
:1004A0000FF01C381C781CF81CF81DB81DB81F383C
:1004B0001F381E381C380FF000000000000000003C
:1004C0000180018003801F801F80038003800380E0
:1004D0000380038003801FF0000000000000000084
:1004E0000FE01C701C380038007000E001C0038071
:1004F00007000E381C381FF8000000000000000044
:100500000FE01C701C380038007003C003C000707E
:1005100000381C381C700FE00000000000000000D4
:1005200000E001E003E006E00CE018E01FF81FF82F
:1005300000E000E000E003F8000000000000000020
:100540001FF81C001C001C001C001FE01FF000789E
:1005500000381C381C700FE0000000000000000094
:1005600003E007000E001C001C001FF01FF81C38E1
:100570001C381C381C380FF0000000000000000080
:100580001FFC1C1C1C1C1C1C001C0038007000E004
:1005900001C0038003800380000000000000000011
:1005A0000FF01C381C381C381F3807E007E01CF817
:1005B0001C381C381C380FF0000000000000000040
:1005C0000FF01C381C381C381C381FF80FF8003886
:1005D0000038007000E007C00000000000000000CC
:1005E00000000000038003800380000000000380FF
:1005F00003800380000000000000000000000000F5
:1006000000000000038003800380000000000380DE
:10061000038003800700000000000000000000705D
:1006200000E001C0038007000E001C001C000E004B
:100630000700038001C000E000700000000000001F
:100640000000000000003FFC3FFC000000003FFCF9
:100650003FFC0000000000000000000000001C0043
:100660000E000700038001C000E00070007000E091
:1006700001C0038007000E001C000000000003C042
:100680000FF01E7818380038007000E001C001C07B
:100690000000000001C001C001C0000000000FF810
:1006A0001C1C1C1C1C1C1C1C1CFC1CFC1CFC1CFC0A
:1006B0001C001C001C001FF007F8000000000000D8
:1006C00003C007E00E701C381C381C381C381FF89B
:1006D0001C381C381C381C380000000000000000CA
:1006E0001FF00E380E380E380E380FF00FF00E389F
:1006F0000E380E380E381FF0000000000000000019
:1007000007F00E381C381C001C001C001C001C00CC
:100710001C001C380E3807F000000000000000002C
:100720001FE00E700E380E380E380E380E380E38A8
:100730000E380E380E701FE00000000000000000B0
:100740001FF80E180E080E000E300FF00FF00E30CE
:100750000E000E080E181FF8000000000000000038
:100760001FF80E180E080E000E300FF00FF00E30AE
:100770000E000E000E001F00000000000000000030
:1007800007F00E381C381C381C001C001C001CF81C
:100790001C381C380E3807F800000000000000006C
:1007A0001C701C701C701C701C701FF01FF01C70E3
:1007B0001C701C701C701C70000000000000000009
:1007C0000FE00380038003800380038003800380A5
:1007D0000380038003800FE00000000000000000A1
:1007E00001FC0070007000700070007000703870C4
:1007F0003870387038700FE0000000000000000012
:100800001E380E380E700EE00FC00F800F800FC024
:100810000EE00E700E381E380000000000000000D0
:100820001F000E000E000E000E000E000E000E0047
:100830000E080E180E381FF800000000000000001F
:100840001C1C1E3C1F7C1FFC1FFC1DDC1C9C1C1C5C
:100850001C1C1C1C1C1C1C1C0000000000000000B8
:100860001C1C1C1C1E1C1F1C1F9C1DDC1CFC1C7C3F
:100870001C3C1C1C1C1C1C1C000000000000000078
:1008800003E007F00E381C1C1C1C1C1C1C1C1C1C30
:100890001C1C0E3807F003E0000000000000000000
:1008A0001FF00E380E380E380E380FF00FF00E0015
:1008B0000E000E000E001F000000000000000000EF
:1008C00003E00F780E381C1C1C1C1C1C1C1C1C7C00
:1008D0001CFC0FF80FF8003800FC000000000000BE
:1008E0001FF00E380E380E380E380FF00FF00E7065
:1008F0000E380E380E381E380000000000000000D0
:100900000FF01C381C381C381C000FE007F00038B2
:100910001C381C381C380FF00000000000000000DC
:100920001FFC19CC11C401C001C001C001C001C02D
:1009300001C001C001C007F000000000000000007D
:100940001C701C701C701C701C701C701C701C7047
:100950001C701C701C700FE0000000000000000004
:100960001C701C701C701C701C701C701C701C7027
:100970001C700EE007C003800000000000000000B3
:100980001C1C1C1C1C1C1C1C1C1C1C9C1C9C1C9C27
:100990000FF80FF80770077000000000000000005B
:1009A0001C701C701C700EE007C00380038007C021
:1009B0000EE01C701C701C700000000000000000A5
:1009C0001C701C701C701C701C700EE007C0038033
:1009D0000380038003800FE000000000000000009F
:1009E0001FF81C381838107000E001C003800700A1
:1009F0000E081C181C381FF8000000000000000042
:100A000007F00700070007000700070007000700BE
:100A100007000700070007F00000000000000000CA
:100A2000100018001C000E000700038001C000E049
:100A300000700038001C00070000000000000000EB
:100A400007F000700070007000700070007000709F
:100A500000700070007007F00000000000000180CE
:100A600003C007E00E701C3800000000000000000A
:100A70000000000000000000000000000000000076
:100A80000000000000000000000000000000000066
:100A900000000000000000007FFF7FFF000000005A
:100AA0001C001C0007000700000000000000000000
:100AB0000000000000000000000000000000000036
:100AC00000000000000000000FE0007000700FF058
:100AD0001C701C701C700FD800000000000000008B
:100AE0001E000E000E000E000FF00E380E380E38ED
:100AF0000E380E380E381BF0000000000000000019
:100B000000000000000000000FE01C701C701C00C2
:100B10001C001C701C700FE00000000000000000B2
:100B200000F80070007000700FF01C701C701C70DA
:100B30001C701C701C700FD800000000000000002A
:100B400000000000000000000FE01C701C701FF08F
:100B50001C001C701C700FE0000000000000000072
:100B600003E007700770070007001FE01FE00700A1
:100B70000700070007001FC0000000000000000081
:100B800000000000000000000FD81C701C701C70DA
:100B90001C700FF007F000701C700FE000000000E8
:100BA0001E000E000E000E000EF00F380F380E382B
:100BB0000E380E380E381E3800000000000000000D
:100BC00001C001C001C000000FC001C001C001C0D0
:100BD00001C001C001C00FF80000000000000000CB
:100BE000007000700070000003F000700070007072
:100BF0000070007000701C700CF007E00000000036
:100C00001E000E000E000E000E380E700EE00FC01B
:100C10000EE00E700E381E380000000000000000CC
:100C20000FC001C001C001C001C001C001C001C0AE
:100C300001C001C001C00FF800000000000000006A
:100C400000000000000000001FF81C9C1C9C1C9C65
:100C50001C9C1C9C1C9C1C9C0000000000000000B4
:100C600000000000000000001FE01C701C701C70E1
:100C70001C701C701C701C70000000000000000044
:100C800000000000000000000FE01C701C701C70D1
:100C90001C701C701C700FE00000000000000000C1
:100CA00000000000000000001BF00E380E380E3867
:100CB0000E380E380FF00E000E001F00000000006E
:100CC00000000000000000001FB038E038E038E00D
:100CD00038E038E01FE000E000E001F00000000034
:100CE00000000000000000001EF00FF80F380E009A
:100CF0000E000E000E001F000000000000000000AB
:100D000000000000000000000FE01C301C300F80CD
:100D100003E0187018700FE00000000000000000F1
:100D200000000100030007001FF007000700070094
:100D300007000770077003E00000000000000000DB
:100D400000000000000000001C701C701C701C7073
:100D50001C701C701C700FD8000000000000000008
:100D600000000000000000001C701C701C701C7053
:100D70001C700EE007C003800000000000000000AF
:100D800000000000000000001C1C1C1C1C1C1C9C03
:100D90001C9C0FF8077007700000000000000000A6
:100DA00000000000000000001CE01CE00FC00780F5
:100DB00007800FC01CE01CE00000000000000000E5
:100DC00000000000000000000E380E380E380E380B
:100DD0000E3807F003E000E001C01F8000000000B3
:100DE00000000000000000001FE018E011C00380B8
:100DF00007000E201C601FE0000000000000000043
:100E000001F803800380038007001C001C0007001A
:100E100003800380038001F800000000000001C08F
:100E200001C001C001C001C001C001C001C001C0BA
:100E300001C001C001C001C001C0000000000000ED
:100E40001F8001C001C001C000E00038003800E090
:100E500001C001C001C01F800000000000000000B0
:100E60001F1C3B9C39DC38F800000000000000002B
:100E7000000000000000000000000000080C205FDF
:100E80000000000000000000000000000000202022
:100E900020202020002000000028505000000000EA
:100EA0000000000000002828FC2850FC50500000E2
:100EB000002078A8A0603028A8F02000000048A8F2
:100EC000B050283454480000000020505078A8A8A2
:100ED000906C000000404080000000000000000016
:100EE000000408101010101010080400004020101A
:100EF000101010101020400000000020A87070A8F2
:100F0000200000000000202020F820202000000009
:100F100000000000000000000040408000000000D1
:100F200000F80000000000000000000000000000C9
:100F300000400000000810101020204040408000B9
:100F40000000708888888888887000000000206011
:100F50002020202020700000000070888810204091
:100F600080F80000000070880830080888700000D1
:100F70000000103050509078101800000000F880E9
:100F800080F00808887000000000709080F0888869
:100F9000887000000000F890102020202020000021
:100FA0000000708888708888887000000000708851
:100FB00088887808487000000000000020000000C9
:100FC00000200000000000000020000000202000A1
:100FD0000004081020402010080400000000000059
:100FE000F80000F80000000000402010080408107D
:100FF00020400000000070888810202000200000A1
:101000000000708898A8A8B8807800000000202010
:101010003050507848CC00000000F04848704848F4
:1010200048F0000000007888808080808870000090
:101030000000F0484848484848F000000000F848E0
:101040005070504048F800000000F8485070504080
:1010500040E000000000384880809C884830000054
:101060000000CC484878484848CC00000000F820F0
:101070002020202020F8000000007C10101010100C
:101080001090E0000000EC485060505048EC000028
:101090000000E0404040404044FC00000000D8D840
:1010A000D8D8A8A8A8A800000000DC48686858584C
:1010B00048E80000000070888888888888700000F0
:1010C0000000F0484870404040E000000000708898
:1010D000888888E8987018000000F04848705048E8
:1010E00048EC0000000078888060100888F000005C
:1010F0000000F8A820202020207000000000CC482C
:1011000048484848483000000000CC48485050301B
:10111000202000000000A8A8A870505050500000E7
:101120000000D8505020205050D800000000D85067
:1011300050202020207000000000F8901020204057
:1011400048F80000003820202020202020203800EF
:1011500000404040202010101008000000701010C7
:10116000101010101010700000205000000000003F
:10117000000000000000000000000000000000FC73
:10118000002000000000000000000000000000003F
:1011900000304838483C00000000C04040704848DB
:1011A000487000000000000000384840403800004F
:1011B0000000180808384848483C000000000000BB
:1011C000003048784038000000001C2020782020A3
:1011D0002078000000000000003C4830407844388F
:1011E0000000C0404070484848EC0000000020006B
:1011F000006020202070000000001000003010105F
:10120000101010E00000C040405C507048EC00003E
:101210000000E0202020202020F800000000000036
:1012200000F0A8A8A8A800000000000000F04848AE
:1012300048EC000000000000003048484830000042
:101240000000000000F04848487040E00000000046
:10125000003848484838081C0000000000D86040AA
:1012600040E00000000000000078403008780000F6
:101270000000002020702020201800000000000046
:1012800000D84848483C00000000000000EC4850EE
:10129000302000000000000000A8A870505000009E
:1012A0000000000000D8502050D8000000000000CE
:1012B00000EC4850302020C00000000000781020D2
:1012C00020780000001810101020101010101800C6
:1012D00010101010101010101010101000602020AE
:1012E000201020202020600040A4180000000000F2
:1012F0000000000000000A0B02090C0D0E08070395
:1013000004010000000000000000000000000000D8
:1013100000000000000000000000000000000000CD
:10132000121110000000000000000000000000008A
:101330000000000000000000000001021020200852
:101340000810204010204080020102010804020120
:10135000010204081020408080402010080402018F
:1013600080040201804020100804020108040201E8
:10137000010204081020408001020408102040806F
:1013800005050505070508080808020202020A0A01
:10139000080804040404010101010101010103031F
:1013A000030303030303040707070C0C0C0C0C0CCA
:1013B0000C0C0202020206060606060606060B0BC7
:1013C0000B0B0B0B0B0B0000200023002600290049
:1013D0002C002F003200000100000301060109016A
:1013E00000002200250028002B002E0031003400D0
:1013F00002010000050108010B010000210024008A
:1014000027002A002D0030003300010100000401F4
:1014100007010A01F80C7D157C17F7189E41BE0DD7
:10142000431642180C1A11241FBECFEFD1E2DEBFC3
:10143000CDBF00E00CBF13E0A0E0B2E0EEEDF7E9B5
:1014400000E00BBF02C007900D92AE37B107D9F78D
:1014500029E0AEE7B3E001C01D92A137B207E1F782
:101460001AE0CFE0DAE000E006C021970109802F02
:10147000FE010E943047CA30D10780E00807A9F773
:101480000E9409440C94DE4B0C940000CF93DF9330
:10149000EC01EDD31B8A1C8A8CED90E09E8B8D8B2A
:1014A0001F8A80E090E0A0E8B0E4888F998FAA8F2F
:1014B000BB8F1C8E80EE9EE29E8F8D8F88E28F8F79
:1014C00018A21AA219A288EC90E09CA38BA384EB2B
:1014D0008DA38AEF90E09FA38EA318A619A61AA643
:1014E0001BA68FE78CA71DA61EA61FA6CE01C09621
:1014F000BED3CE018D5B9F4FBAD3CE018A5A9F4F88
:10150000B6D3CE0187599F4FB2D3FE01E857FF4FA4
:1015100081E0808331968083C458DF4F188262E077
:101520008EE0DF91CF910C947645FC01E258FF4F9D
:10153000A081B1819C919F5F9C930190F081E02DEF
:101540008081853008F0108208950F931F93CF9308
:10155000DF93EC01FC01E258FF4F0190F081E02D98
:101560008081823009F451C0B8F4882371F1813050
:1015700009F090C045E061E0CE01C096AAD300E03A
:1015800010E020EA31E440E050E060E87FE3CE0183
:101590008D5B9F4F90D36EC0833009F460C0843060
:1015A00009F078C045E061E0CE01C09692D345E0F5
:1015B00061E0CE018D5B9F4F8CD345E061E0CE01B1
:1015C0008A5A9F4F86D341E05CC041E061E0CE0182
:1015D000C0967FD300E010E020EA31E440E050E024
:1015E00060E87FE3CE018D5B9F4F65D341E061E012
:1015F000CE018A5A9F4F6DD300E010E020E030E426
:101600004DEC5CEC6CEC7DE325C000E010E020EAE2
:1016100031E440E050E060E87FE3CE01C0964BD378
:1016200000E010E020EA31E440E050E060E87FE3D1
:10163000CE018D5B9F4F3FD345E061E0CE018A5ADA
:101640009F4F47D300E010E020EA31E440E050E053
:1016500060E87FE3CE0187599F4F2DD31BC045E043
:1016600061E0CE01C09635D345E061E0CE018D5BEF
:101670009F4F2FD345E061E0CE018A5A9F4F29D377
:1016800045E061E0CE0187599F4FDF91CF911F91D7
:101690000F911FC3DF91CF911F910F9108950F9369
:1016A0001F93CF93DF93EC01FC01E258FF4F71834E
:1016B000608383E090E00E9416448C0143E062E086
:1016C0000E94B31AFE01E058FF4F1183008342E1EC
:1016D000B801CE01C096E7D283E090E00E941644A4
:1016E0008C0145E064E00E94B31AFE01EE57FF4F03
:1016F0001183008341E1B801CE018D5B9F4FD3D2AE
:1017000083E090E00E9416448C0147E066E00E946E
:10171000B31AFE01EC57FF4F1183008340E1B8017B
:10172000CE018A5A9F4FBFD283E090E00E941644B8
:101730008C0149E068E00E94B31AFE01EA57FF4FAE
:10174000118300834FE0B801CE0187599F4FABD280
:10175000CE01DF91CF911F910F91F7CEEF92FF92C3
:101760000F931F93CF93DF93EC018EE00E94E0452F
:101770008E0108571F4F21E0892B09F420E0F80162
:1017800020836AE070E080E090E00E948644F801E7
:1017900080819E0127573F4F790181110DC0F901CA
:1017A0008081882349F0CE01C0DEFE01E458FF4F5E
:1017B00081E08083CE01C9DEF8018081F70180835A
:1017C000DF91CF911F910F91FF90EF900895C6CFB9
:1017D000EF92FF920F931F93CF93DF93EC018C0155
:1017E00002581F4FD801ED91FC918081823009F49D
:1017F00094C060F5882309F45EC0813009F0F1C01F
:10180000BF01675F7F4F2FEF40E0CE01C09600D44D
:10181000D8016D917C91665F7F4F20EE3EE24EE1F4
:1018200050E0CE018D5B9F4FF3D2F8016081718152
:10183000645F7F4F2FEF40E0CE018A5A9F4FE8D37D
:10184000D8016D917C91635F7F4FBFC0833009F4F5
:1018500099C0843009F0C5C0BF01675E7F4F2FE794
:1018600041E8CE01C09654D3F80160817181665E73
:101870007F4F2FEF40E0CE018D5B9F4FC9D3D80142
:101880006D917C91655E7F4F2FE741E8CE018A5ACA
:101890009F4F3ED3F80160817181645E7F4F2FE0DE
:1018A00040E0CE0187599F4FDF91CF911F910F915B
:1018B000FF90EF90ADC3BF016F5F7F4F23E040E02B
:1018C000CE01C096A5D3F801608171816E5F7F4F14
:1018D00020E43FE14EE150E0CE018D5B9F4F98D276
:1018E000D8016D917C916C5F7F4F23E040E0CE0189
:1018F0008A5A9F4F8DD3F801608171816B5F7F4F52
:10190000E12CF12C00E412E42FE632E143E85AE343
:10191000CE0187599F4FE1D164C0BF01625F7F4F05
:1019200020E737E140E050E0CE01C09671D2F801E7
:1019300060817181605F7F4F20E737E140E050E0D8
:10194000CE018D5B9F4F64D2D8016D917C916E5E0C
:101950007F4F2FEF40E0CE018A5A9F4F59D3F801B5
:10196000608171816D5E7F4F20E737E140E050E09C
:10197000CE0187599F4FDF91CF911F910F91FF901B
:10198000EF9046C2BF016B5E7F4F27E040E0CE0183
:10199000C0963ED3D8016D917C916A5E7F4F2FEF48
:1019A00040E0CE018D5B9F4F33D3F80160817181A0
:1019B000695E7F4F2FEF40E0CE018A5A9F4F28D3B8
:1019C000D8016D917C91685E7F4F2FE741E8CE0191
:1019D00087599F4FDF91CF911F910F91FF90EF900B
:1019E00097C2DF91CF911F910F91FF90EF900895D3
:1019F000CF93DF9366EA72E08EE394E00E946F4635
:101A00006BEA72E084E494E00E946F4660EB72E05F
:101A10008AE494E00E946F4665EB72E080E594E012
:101A20000E946F4668EB72E086E594E00E946F4684
:101A30006EEB72E086E294E00E946F4664EC72E026
:101A40008CE294E00E946F466AEC72E082E394E0DC
:101A50000E946F4664EC72E088E394E00E946F4657
:101A60006FEC72E08EE094E00E946F4664EC72E0EE
:101A700084E194E00E946F4665ED72E08AE194E0B3
:101A80000E946F466AEC72E080E294E00E946F462A
:101A90006AED72E086EF93E00E946F466FED72E0B0
:101AA0008CEF93E00E946F4664EE72E082E094E077
:101AB0000E946F4669EE72E088E094E00E946F46F3
:101AC0006FEC72E08EED93E00E946F466EEE72E076
:101AD00084EE93E00E946F4663EF72E08AEE93E03B
:101AE0000E946F466AEC72E080EF93E00E946F46BE
:101AF0006AEF72E086EC93E00E946F4664E073E068
:101B00008CEC93E00E946F466CE073E082ED93E012
:101B10000E946F4665E173E088ED93E00E946F4696
:101B20006DE173E08EEA93E00E946F4661E273E03C
:101B300084EB93E00E946F4665E273E08AEB93E0EA
:101B40000E946F4669E273E080EC93E00E946F466A
:101B50006DE273E08EE793E00E946F46C0E0D0E054
:101B600026966AEA72E0CE0182589C4F0E946F4628
:101B7000CA32D105A9F7DF91CF910895CF93DF93B2
:101B8000CEEAD3E02697CE010E94084683E0CE3706
:101B9000D807C1F780EC93E00E9408468AEB93E0F7
:101BA0000E94084684EB93E00E9408468EEA93E088
:101BB0000E94084688ED93E00E94084682ED93E07B
:101BC0000E9408468CEC93E00E94084686EC93E065
:101BD0000E94084680EF93E00E9408468AEE93E058
:101BE0000E94084684EE93E00E9408468EED93E042
:101BF0000E94084688E094E00E94084682E094E053
:101C00000E9408468CEF93E00E94084686EF93E01E
:101C10000E94084680E294E00E9408468AE194E02F
:101C20000E94084684E194E00E9408468EE094E019
:101C30000E94084688E394E00E94084682E394E00C
:101C40000E9408468CE294E00E94084686E294E0F6
:101C50000E940846CCE5D4E02697CE010E940846B3
:101C600084E0CE33D807C1F7DF91CF910895CF93A9
:101C7000DF93EC010E94B21A80E090E0A0E8BFE39D
:101C80008F839887A987BA8780E090E0A0E2B1E4CB
:101C90008B879C87AD87BE8781E08F8784E0888BA8
:101CA000DF91CF910895FC0175836483468362E0E0
:101CB000842F0C9476450F931F93FC014783508724
:101CC0006187728703871487258736871F910F9155
:101CD0000895FC016787408B08954F925F926F9241
:101CE0007F928F929F92AF92BF92CF92DF92EF92AC
:101CF000FF920F931F93CF93DF93EC016B012901A8
:101D00003A018E810E94E04521E0892B09F420E010
:101D10002A8B8C819D810E94CC1A898B803189F518
:101D20008A89882329F06B857C858D859E8504C0F2
:101D30006F81788589859A85F6012081318142817C
:101D400053810E94D0414B015C019201A3010E948A
:101D5000344287FD0BC09701A801B401C5010E9460
:101D6000574318162CF44701580102C04201530191
:101D7000C401D501F60180839183A283B38381E0FE
:101D80008B838989803299F58A89882329F02B856C
:101D90003C854D855E8504C02F81388549855A85EF
:101DA000F60160817181828193810E94CF414B0154
:101DB0005C019B01AC01B201C3010E94574318169C
:101DC0005CF09401A501B701C8010E94344287FF6D
:101DD00005C04701580102C042015301C401D501A9
:101DE000F60180839183A283B38381E08B83DF91AB
:101DF000CF911F910F91FF90EF90DF90CF90BF9008
:101E0000AF909F908F907F906F905F904F900895CC
:101E10008F929F92AF92BF92DF92EF92FF920F93B9
:101E20001F93CF93DF93EC017B01142FD22E8E8171
:101E30000E94E04521E0892B09F420E02A8B8C8167
:101E40009D810E94CC1A898B803151F58A89882323
:101E500011F0688901C06F8570E080E090E00E9419
:101E60006C424B015C01012FF70160817181072EEB
:101E7000000C880B990B0E946E42A50194010E94F0
:101E8000D0410E943B42611720F00D2D6D1508F4E2
:101E9000062F802F90E0F7019183808381E08B8370
:101EA0008989803249F58A89882311F0688901C0BF
:101EB0006F8570E080E090E00E946C424B015C0115
:101EC000F70160817181072E000C880B990B0E942D
:101ED0006E42A50194010E94CF410E943B426117CE
:101EE00020F01D2D6D1508F4162F412F50E0F7013D
:101EF0005183408381E08B83DF91CF911F910F91BC
:101F0000FF90EF90DF90BF90AF909F908F900895DB
:101F10004F925F926F927F928F929F92AF92BF92F9
:101F2000EF92FF920F931F93CF93DF93EC017B010E
:101F3000142F022F8E810E94E04521E0892B09F4A5
:101F400020E02A8B8C819D810E94CC1A898B803164
:101F500039F58A89882311F0688901C06F8570E09E
:101F600080E090E00E946C422B013C01B12EF70111
:101F70006081062E000C770B880B990B0E946E4235
:101F8000A30192010E94D0410E943B42611720F0C0
:101F9000B02E601708F4B62EF701B08281E08B8373
:101FA0008989803231F58A89882311F0688901C0D6
:101FB0006F8570E080E090E00E946C424B015C0114
:101FC000F7016081062E000C770B880B990B0E949D
:101FD0006E42A50194010E94CF410E943B426117CD
:101FE00020F0102F601708F4162FF701108381E0FE
:101FF0008B83DF91CF911F910F91FF90EF90BF9056
:10200000AF909F908F907F906F905F904F900895CA
:102010008F929F92AF92BF92EF92FF920F931F9376
:10202000CF93DF93EC017B01142F022F8E810E944E
:10203000E04521E0892B09F420E02A8B8C819D81E9
:102040000E94CC1A898B803129F58A89882311F066
:10205000688901C06F8570E080E090E00E946C426A
:102060004B015C01F701608170E080E090E00E942C
:102070006E42A50194010E94D0410E944042611726
:1020800020F0061718F4602F01C0612FF70160835C
:1020900081E08B838989803221F58A89882311F038
:1020A000688901C06F8570E080E090E00E946C421A
:1020B0004B015C01F701608170E080E090E00E94DC
:1020C0006E42A50194010E94CF410E9440426117D7
:1020D00020F0102F601708F4162FF701108381E00D
:1020E0008B83DF91CF911F910F91FF90EF90BF9065
:1020F000AF909F908F900895FC01108211828CED1B
:1021000090E093838283148280E090E0A0E8B0E4C2
:1021100085839683A783B087118680EE9EE293879E
:10212000828788E2848715861786168688EC90E079
:10213000918B808B84EB828B8AEF90E0948B838BE6
:10214000158A168A178A108E8FE7818F128E138E4A
:10215000148E80E685A388E786A387E287A3089587
:102160000F931F93FC0114A303A3768F658F50A3D5
:10217000478F32A321A31F910F9108958F929F92B1
:10218000AF92BF92CF92DF92EF92FF920F931F9385
:10219000CF93DF9300D000D0CDB7DEB77C01DC0158
:1021A00091966D917C9192975D968D919C915E97A1
:1021B0000E94093F60E078EFF701858D968D0E94BF
:1021C0007A37D70197960C91979710E02FED31E071
:1021D00040E050E060E070E05D968D919C915E97EC
:1021E0000E9454388CE1A82E85E0B82EC12CD12C49
:1021F000D7019396ED91FC919497208130E05D9604
:102200008D919C915E97F60131964F0160E070E0F0
:102210002C153D0509F456C00E947A37D7019596D2
:102220008C91959790E097960C91979710E00350BA
:102230001109889E9001899E300D989E300D1124C1
:10224000235031098C9DB0018D9D700D9C9D700DAA
:1022500011246D5F7F4F43E050E05D968D919C911E
:102260005E970E94543860E078EFF701858D968D77
:102270000E947A3740E050E0BA01D7015D968D9117
:102280009C915E970E947E37F70125A12C9DC0018D
:102290002D9D900D11246C01F3E0CF0ED11CB501E2
:1022A000CE0101960E94984600E010E02AE030E05E
:1022B000A601BE016F5F7F4FD7015D968D919C9106
:1022C0005E9727C00E947A3740E058EF6FEF7FEFAC
:1022D000F701858D968D0E947E37D70195962C91BA
:1022E0002C9DC0012D9D900D11246C01B3E0CB0EEF
:1022F000D11CB501CE0101960E94984600E010E085
:102300002AE030E0A601BE016F5F7F4FF701858DA7
:10231000968D0E94563DCE0101960E9408466401AA
:10232000F6E0AF0EB11C25E08216910409F060CFF3
:1023300026960FB6F894DEBF0FBECDBFDF91CF91CA
:102340001F910F91FF90EF90DF90CF90BF90AF90D3
:102350009F908F9008954F925F926F927F928F928D
:102360009F92AF92BF92CF92DF92EF92FF920F9324
:102370001F93CF93DF9300D000D0CDB7DEB77C01A1
:102380005B01C12CD12C8DE4482E5524539460E080
:1023900078EFF701858D968D0E947A3740E050E006
:1023A000BA01F701858D968D0E947E37F70187A1CE
:1023B0003201681A710886A18C9D40018D9D900C98
:1023C0001124F5E08F0E911CB501CE0101960E94FB
:1023D000984600E010E09301A401BE016F5F7F4FBB
:1023E000F701858D968D0E94563DCE0101960E9483
:1023F0000846FFEFCF1ADF0A86E0A80EB11CE4E022
:10240000CE16D10421F626960FB6F894DEBF0FBE85
:10241000CDBFDF91CF911F910F91FF90EF90DF9093
:10242000CF90BF90AF909F908F907F906F905F9074
:102430004F900895CF92DF92EF92FF920F931F93E8
:10244000CF93DF93EC016F8D78A18D8D9E8D0E94CF
:10245000093F60E078EF8D8D9E8D0E947A378FA1C5
:102460004FE351E0481B51090FE311E02FED31E03C
:1024700060E070E08D8D9E8D0E94543860E070E0C9
:102480008D8D9E8D0E947A37E12CF12C82E4C82E2E
:10249000DD24D3948EA190E02FEFE21AF20A8E9DF4
:1024A000B0018F9D700D9E9D700D11249B012350D6
:1024B00031094FA1F601E41BF109AF01681B790B4B
:1024C0006D5F7F4F0CE311E08D8D9E8D0E9454381F
:1024D000F4E0EF16F104F1F6EBA1FCA1808182306B
:1024E00091F038F4882361F08130E1F46CEE74E00F
:1024F0000FC0833059F08430A9F464EA74E008C056
:1025000064E075E005C064ED74E002C06CEB74E05B
:10251000CE01DF91CF911F910F91FF90EF90DF904F
:10252000CF9019CFDF91CF911F910F91FF90EF9036
:10253000DF90CF900895CF93DF93EC017BDFCE0146
:10254000DF91CF911BCE6F927F928F929F92AF922D
:10255000BF92CF92DF92EF92FF920F931F93CF9390
:10256000DF9300D000D0CDB7DEB73C01DC015F9631
:102570006D917C9190975D968D919C915E970E9454
:10258000093F60E078EFF301858D968D0E947A37E0
:1025900040E050E0BA01D3015D968D919C915E9729
:1025A0000E947E37D3019396ED91FC9194978081A0
:1025B000823009F49EC108F076C0882309F4EEC089
:1025C000813009F085C2D30197968C9197971DE4CD
:1025D000A12EBB24B3948501081B110996962C915A
:1025E0009697269530E02D5F3F4F418550E060E0A3
:1025F00070E080E2C82EE12CF12C5D968D919C91CB
:102600005E970E949C3DF30186A197A18501091B5D
:102610001109282F30E02D5F3F4F8695280F311D7F
:1026200003A0F4A1E02D42855385052E000C660B16
:10263000770BD3015D968D919C915E970E949C3D96
:10264000F30186A197A18501091B1109282F30E00C
:10265000220F331F2D5F3F4F8695280F311D03A09A
:10266000F4A1E02D448550E060E070E0D3015D9678
:102670008D919C915E970E949C3DF30186A197A14C
:102680008501091B1109F3E08F9F900111242D5F33
:102690003F4F8695280F311DD3019396ED91FC9104
:1026A000949745850AC2833009F49AC1843009F0B1
:1026B0000FC2D30197968C9197979DE4A92EBB24C6
:1026C000B3948501081B110996962C91969726952F
:1026D00030E02D5F3F4F418D042E000C550B660BF3
:1026E000770BE0E2CE2EE12CF12C5D968D919C9142
:1026F0005E970E949C3DF30186A197A18501091B6D
:102700001109282F30E02D5F3F4F8695280F311D8E
:1027100003A0F4A1E02D428D50E060E070E0D30111
:102720005D968D919C915E970E949C3DF30186A1E0
:1027300097A18501091B1109282F30E0220F331FB3
:102740002D5F3F4F8695280F311D03A0F4A1E02D8A
:10275000438D042E000C550B660B770BD3015D9651
:102760008D919C915E970E949C3DF30186A197A15B
:102770008501091B1109F3E08F9F900111242D5F42
:102780003F4F8695280F311DD3019396ED91FC9113
:102790009497448D50E060E070E094C1D301979627
:1027A0008C9197972DE4A22EBB24B3946501C81A8F
:1027B000D1089696EC90E694F12CB3E0EB0EF11C68
:1027C000618136E0932E969EB001112464577B4FB1
:1027D000CE0101960E94984600E010E09601A70104
:1027E000BE016F5F7F4FF301858D968D0E94563D30
:1027F000CE0101960E940846D30196968C91969739
:1028000097969C9197978501091B1109282F30E015
:102810002D5F3F4F8695280F311D9396ED91FC91CA
:10282000949742815381052E000C660B770BE0E2F2
:10283000CE2EE12CF12C5D968D919C915E970E949D
:102840009C3DF30187A17501E81AF10886A1C82E05
:10285000D12CCC0CDD1CF3E0CF0ED11C8695C80E1C
:10286000D11CD3019396ED91FC9194976481969E2F
:10287000B001112464577B4FCE0101960E94984607
:1028800000E010E09701A601BE016F5F7F4FF301EA
:10289000858D968D0E94563DCE0101960E94084678
:1028A000D30196968C91969797969C917501E91A0B
:1028B000F108B3E08B9F800111240D5F1F4F8695B7
:1028C000080F111DD3019396ED91FC9194974581CA
:1028D00056816781708580E2882EA12CB12C9EE202
:1028E000C92E21E05D968D919C915E970E94853E58
:1028F000EFC0D30197968C9197972DE4A22EBB241D
:10290000B3948501081B110996962C9196972695EC
:1029100030E02D5F3F4F46855785052E000C660B36
:10292000770BE0E2CE2EE12CF12C5D968D919C91FF
:102930005E970E949C3DF30186A197A18501091B2A
:102940001109282F30E02D5F3F4F8695280F311D4C
:1029500003A0F4A1E02D40895189052E000C660BDF
:10296000770BD3015D968D919C915E970E949C3D63
:10297000F30186A197A18501091B1109282F30E0D9
:10298000220F331F2D5F3F4F8695280F311D03A067
:10299000F4A1E02D428950E060E070E0D3015D9643
:1029A0008D919C915E970E949C3DF30186A197A119
:1029B0008501091B1109F3E08F9F900111242D5F00
:1029C0003F4F8695280F311DD3019396ED91FC91D1
:1029D000949743895489052E000C660B770B72C0BF
:1029E000D30197968C9197971DE4A12EBB24B394A5
:1029F0008501081B110996962C919697269530E033
:102A00002D5F3F4F458950E060E070E080E2C82EC6
:102A1000E12CF12C5D968D919C915E970E949C3DDE
:102A2000F30186A197A18501091B1109282F30E028
:102A30002D5F3F4F8695280F311D03A0F4A1E02D97
:102A4000468950E060E070E0D3015D968D919C91E5
:102A50005E970E949C3DF30186A197A18501091B09
:102A60001109282F30E0220F331F2D5F3F4F86952D
:102A7000280F311D03A0F4A1E02D478950E060E04C
:102A800070E0D3015D968D919C915E970E949C3D74
:102A9000F30186A197A18501091B1109F3E08F9F1E
:102AA000900111242D5F3F4F8695280F311DD301D2
:102AB0009396ED91FC919497408D042E000C550B4C
:102AC000660B770B5D968D919C915E970E949C3D65
:102AD00026960FB6F894DEBF0FBECDBFDF91CF9123
:102AE0001F910F91FF90EF90DF90CF90BF90AF902C
:102AF0009F908F907F906F900895CF93DF9366EAB9
:102B000072E08CE195E00E946F466BEA72E082E22F
:102B100095E00E946F4660EB72E088E295E00E94CB
:102B20006F4665EB72E08EE295E00E946F4668EBBF
:102B300072E084E395E00E946F466EEB72E084E001
:102B400095E00E946F4664EC72E08AE095E00E9496
:102B50006F466AEC72E080E195E00E946F4664EC9B
:102B600072E086E195E00E946F466FEC72E08CEEB9
:102B700094E00E946F4664EC72E082EF94E00E9461
:102B80006F4665ED72E088EF94E00E946F466AEC54
:102B900072E08EEF94E00E946F466AED72E084ED81
:102BA00094E00E946F466FED72E08AED94E00E941F
:102BB0006F4664EE72E080EE94E00E946F4669EE2C
:102BC00072E086EE94E00E946F466FEC72E08CEB50
:102BD00094E00E946F466EEE72E082EC94E00E94F8
:102BE0006F4663EF72E088EC94E00E946F466AECF7
:102BF00072E08EEC94E00E946F466AEF72E084EA25
:102C000094E00E946F4664E073E08AEA94E00E94D8
:102C10006F466CE073E080EB94E00E946F4665E1E4
:102C200073E086EB94E00E946F466DE173E08CE800
:102C300094E00E946F4661E273E082E994E00E94B2
:102C40006F4665E273E088E994E00E946F4669E2AE
:102C500073E08EE994E00E946F466DE273E08CE5CC
:102C600094E00E946F46C0E0D0E026966AEA72E0E7
:102C7000CE01845A9B4F0E946F46CA32D105A9F7F4
:102C8000DF91CF910895CF93DF93CCE8D4E02697DE
:102C9000CE010E94084684E0CC35D807C1F78EE902
:102CA00094E00E94084688E994E00E94084682E980
:102CB00094E00E9408468CE894E00E94084686EB67
:102CC00094E00E94084680EB94E00E9408468AEA5D
:102CD00094E00E94084684EA94E00E9408468EEC44
:102CE00094E00E94084688EC94E00E94084682EC3A
:102CF00094E00E9408468CEB94E00E94084686EE21
:102D000094E00E94084680EE94E00E9408468AED16
:102D100094E00E94084684ED94E00E9408468EEFFD
:102D200094E00E94084688EF94E00E94084682EFF3
:102D300094E00E9408468CEE94E00E94084686E1EA
:102D400095E00E94084680E195E00E9408468AE0EE
:102D500095E00E94084684E095E00E940846CAE398
:102D6000D5E02697CE010E94084685E0CC31D807F1
:102D7000C1F7DF91CF910895CF93DF93EC010E94CB
:102D80009120CE01C196B8D9CE01875A9F4F0E949B
:102D9000A141CE0180589F4F0E949120CE018F54B7
:102DA0009F4FAAD9CE0187529F4FDF91CF910C94AC
:102DB000A1418F929F92AF92BF92CF92DF92EF92FA
:102DC000FF920F931F93CF93DF93EC015C018EE78B
:102DD000A80EB11CD5016D937C9381E390E00E9415
:102DE00016444C01C12CD12C89E2E82EF12C08E2CA
:102DF00010E027E230E046E250E065E1C4010E94C5
:102E000092207E01B0E8EB0EF11C81E3F401D701C2
:102E100001900D928A95E1F761E0C7010E94E123DC
:102E2000CF54DF4FD501ED91FC91E258FF4F008167
:102E3000118128E932E04CE75EE0B701CE0190D97C
:102E4000C7010E94DE36CE0176DBCE01DF91CF9145
:102E50001F910F91FF90EF90DF90CF90BF90AF90B8
:102E60009F908F9070CBEF92FF920F931F93CF9311
:102E7000DF938C01EC01C258DF4FE881F981E458FF
:102E8000FF4F8081882369F0780181EBE80EF11C07
:102E9000C70151DBC70157DBE881F981E458FF4FD7
:102EA0001082E881F98183A981110FC0DF01AA5B3B
:102EB000BF4F8C91811109C053968C91811105C02F
:102EC000E459FF4F8081882381F0C8018F549F4FC0
:102ED0003ADBE881F98113AADF01AA5BBF4F1C929C
:102EE00053961C92E459FF4F1082DF91CF911F91AE
:102EF0000F91FF90EF900895CF93DF9366EA72E011
:102F00008AEF95E00E946F466BEA72E080E096E0FF
:102F10000E946F4660EB72E086E096E00E946F468A
:102F200065EB72E08CE096E00E946F4668EB72E021
:102F300082E196E00E946F466EEB72E082EE95E0D1
:102F40000E946F4664EC72E088EE95E00E946F4646
:102F50006AEC72E08EEE95E00E946F4664EC72E0DF
:102F600084EF95E00E946F466FEC72E08AEC95E08A
:102F70000E946F4664EC72E080ED95E00E946F461F
:102F800065ED72E086ED95E00E946F466AEC72E0B6
:102F90008CED95E00E946F466AED72E082EB95E061
:102FA0000E946F466FED72E088EB95E00E946F46DD
:102FB00064EE72E08EEB95E00E946F4669EE72E07F
:102FC00084EC95E00E946F466FEC72E08AE995E030
:102FD0000E946F466EEE72E080EA95E00E946F46B6
:102FE00063EF72E086EA95E00E946F466AEC72E059
:102FF0008CEA95E00E946F466AEF72E082E895E005
:103000000E946F4664E073E088E895E00E946F4696
:103010006CE073E08EE895E00E946F4665E173E036
:1030200084E995E00E946F466DE173E08AE695E0E1
:103030000E946F4661E273E080E795E00E946F4670
:1030400065E273E086E795E00E946F4669E273E00F
:103050008CE795E00E946F466DE273E08AE395E0AD
:103060000E946F46C0E0D0E026966AEA72E0CE0188
:10307000865C9A4F0E946F46CA32D105A9F7DF914C
:10308000CF910895CF93DF93CAE6D5E02697CE017E
:103090000E94084685E0CA33D807C1F78CE795E05F
:1030A0000E94084686E795E00E94084680E795E082
:1030B0000E9408468AE695E00E94084684E995E069
:1030C0000E9408468EE895E00E94084688E895E050
:1030D0000E94084682E895E00E9408468CEA95E046
:1030E0000E94084686EA95E00E94084680EA95E03C
:1030F0000E9408468AE995E00E94084684EC95E023
:103100000E9408468EEB95E00E94084688EB95E009
:103110000E94084682EB95E00E9408468CED95E0FF
:103120000E94084686ED95E00E94084680ED95E0F5
:103130000E9408468AEC95E00E94084684EF95E0DC
:103140000E9408468EEE95E00E94084688EE95E0C3
:103150000E94084682EE95E00E940846C8E1D6E04B
:103160002697CE010E94084685E0CA3FD807C1F7DE
:10317000DF91CF91089586E197E00C94E80B68E029
:1031800070E08FE099E00E94984160EA77E086E184
:1031900097E00E944F0B66E177E088E196E009DE58
:1031A00048EE53E060E070E08BE998E0A9D22FEFA1
:1031B0003FEFA9016BEB78E18BE998E0B6C286E1BD
:1031C00097E00E94E70B8BE998E0A0D265E87AE1EE
:1031D0008FE099E00E94994188E196E044DE2FEF6C
:1031E0003FEFA9016BEB78E18BE998E09EC2CF93AA
:1031F000DF9366EA72E08DE798E00E946F466BEA23
:1032000072E083E898E00E946F4660EB72E089E824
:1032100098E00E946F4665EB72E08FE898E00E94AC
:103220006F4668EB72E085E998E00E946F466EEBAE
:1032300072E085E698E00E946F4664EC72E08BE6EF
:1032400098E00E946F466AEC72E081E798E00E9485
:103250006F4664EC72E087E798E00E946F466FEC7F
:1032600072E08DE498E00E946F4664EC72E083E5C2
:1032700098E00E946F4665ED72E089E598E00E9453
:103280006F466AEC72E08FE598E00E946F466AED47
:1032900072E085E398E00E946F466FED72E08BE389
:1032A00098E00E946F4664EE72E081E498E00E942C
:1032B0006F4669EE72E087E498E00E946F466FEC1B
:1032C00072E08DE198E00E946F466EEE72E083E25C
:1032D00098E00E946F4663EF72E089E298E00E94F6
:1032E0006F466AEC72E08FE298E00E946F466AEFE8
:1032F00072E085E098E00E946F4664E073E08BE046
:1033000098E00E946F466CE073E081E198E00E94D3
:103310006F4665E173E087E198E00E946F466DE1DA
:1033200073E08DEE97E00E946F4661E273E083EFF9
:1033300097E00E946F4665E273E089EF97E00E9494
:103340006F4669E273E08FEF97E00E946F466DE28F
:1033500073E08DEB97E00E946F46C0E0D0E02696C8
:103360006AEA72E0CE018354984F0E946F46CA32D7
:10337000D105A9F71092A0071092A1078CED90E05B
:103380009093A3078093A2071092A40780E090E097
:10339000A0E8B0E48093A5079093A607A093A707A1
:1033A000B093A8071092A90780EE9EE29093AB0716
:1033B0008093AA0788E28093AC071092AD07109221
:1033C000AF071092AE0788EC90E09093B10780931E
:1033D000B00784EB8093B2078AEF90E09093B40734
:1033E0008093B3071092B5071092B6071092B707F3
:1033F0001092B8078FE78093B9071092BA0710921E
:10340000BB071092BC0786E197E00E94460A88E15C
:1034100096E0DF91CF91B0CCCF93DF93CDEED7E0A4
:103420002697CE010E94084687E0CD3BD807C1F71A
:103430008FEF97E00E94084689EF97E00E940846C8
:1034400083EF97E00E9408468DEE97E00E940846C1
:1034500087E198E00E94084681E198E00E940846D2
:103460008BE098E00E94084685E098E00E940846BC
:103470008FE298E00E94084689E298E00E940846A0
:1034800083E298E00E9408468DE198E00E94084699
:1034900087E498E00E94084681E498E00E9408468C
:1034A0008BE398E00E94084685E398E00E94084676
:1034B0008FE598E00E94084689E598E00E9408465A
:1034C00083E598E00E9408468DE498E00E94084653
:1034D00087E798E00E94084681E798E00E94084646
:1034E0008BE698E00E94084685E698E00E94084630
:1034F000CBE9D8E02697CE010E94084688E0CD3778
:10350000D807C1F7DF91CF910895CF936091A007BD
:10351000611117C080914907882319F0C091A10754
:1035200002C0C0E060E880915C07811160E1809199
:103530006F07811160E280918207882321F060E3A8
:1035400002C0C0E060E88FE099E00E9442416C2F29
:103550008FE099E00E94424160E08FE099E0CF91D6
:103560000C9442410895CF93DF93EC01862F698339
:103570004A8360E00E94764560E08A810E94764539
:1035800061E089810E94B24561E08A810E94B24572
:103590001882DF91CF9108950F931F93CF93DF93FC
:1035A000EC018A810E94E0458C0189810E94E045FE
:1035B000E881EF70000F111F802B94E0E99FF0016C
:1035C0001124EE5AFC4FE80FF11D8081888380732F
:1035D000DF91CF911F910F9108951F920F920FB617
:1035E0000F9211240BB60F922F933F934F935F933B
:1035F0006F937F938F939F93AF93BF93EF93FF93BB
:10360000E0919F08F091A0081995FF91EF91BF916B
:10361000AF919F918F917F916F915F914F913F916A
:103620002F910F900BBE0F900FBE0F901F9018950B
:10363000FC01A3E0440F551F661F771FAA95D1F721
:103640004115510581E06807710514F481E00EC051
:1036500033E075956795579547953A95D1F741159C
:10366000510581E0680771051CF482E0828331C056
:1036700023E075956795579547952A95D1F741159C
:10368000510581E06807710514F483E0EFCF92E003
:1036900075956795579547959A95D1F741155105B9
:1036A00081E06807710514F484E0E0CF82E075954D
:1036B0006795579547958A95D1F785E0828341159F
:1036C000510581E06807710524F04FEF5FEF60E07E
:1036D00070E08FB78383F8945183408350938700C1
:1036E0004093860083818FBF80918100887F809383
:1036F0008100909181008281892B809381000895BF
:103700001092800020E12093810092CFEFE6F0E05C
:1037100080818E7F80830895E1E8F0E02081DC01E4
:1037200012968C91822B808308950F931F93CF93D1
:10373000DF93EC018B01BA01A901141615061606D8
:1037400017060CF475DF1D830C8381E080936F00F6
:10375000CE01DF91CF911F910F91DECFFC01283078
:1037600009F4EEC018F4213041F00895203109F435
:10377000F7C0213109F402C1089587858430C1F46E
:10378000A08DB18D82A19C91613011F4892B02C072
:10379000809589238C93A28DB38D9C9183A1809574
:1037A00089238C93A28DB38D9C9183A1892B08C012
:1037B000A089B189868D9C916130C1F38095892360
:1037C0008C93A08DB18D82A19C9147FF02C0892B63
:1037D00002C0809589238C93A28DB38D9C9183A187
:1037E000809589238C93A28DB38D9C9183A1892B85
:1037F0008C93A08DB18D82A19C9146FF02C0892B34
:1038000002C0809589238C93A28DB38D9C9183A156
:10381000809589238C93A28DB38D9C9183A1892B54
:103820008C93A08DB18D82A19C9145FF02C0892B04
:1038300002C0809589238C93A28DB38D9C9183A126
:10384000809589238C93A28DB38D9C9183A1892B24
:103850008C93A08DB18D82A19C9144FF02C0892BD5
:1038600002C0809589238C93A28DB38D9C9183A1F6
:10387000809589238C93A28DB38D9C9183A1892BF4
:103880008C93A08DB18D82A19C9143FF02C0892BA6
:1038900002C0809589238C93A28DB38D9C9183A1C6
:1038A000809589238C93A28DB38D9C9183A1892BC4
:1038B0008C93A08DB18D82A19C9142FF02C0892B77
:1038C00002C0809589238C93A28DB38D9C9183A196
:1038D000809589238C93A28DB38D9C9183A1892B94
:1038E0008C93A08DB18D82A19C9141FF02C0892B48
:1038F00002C0809589238C93A28DB38D9C9183A166
:10390000809589238C93A28DB38D9C9183A1892B63
:103910008C93A08DB18D82A19C9140FF02C0892B18
:1039200002C0809589238C93A28DB38D9C9183A135
:10393000809589238C93A28DB38D9C9183A1A2C085
:1039400062B9A289B3899C91878D809589238C93D4
:10395000A289B3899C91878D892B8C9342B902C02F
:1039600062B948B9A289B3899C91878D80958923D2
:103970008C93A289B3899C91878D84C0A59894B3B8
:10398000862F8071880F892B84BB80910201877EEE
:103990008093020190910201862F807C8695869506
:1039A0008695892B809302018EB1847C8EB99EB15D
:1039B000262F2C70220F220F862F8370280F862F20
:1039C0008072682F70E07595679575956795620FA1
:1039D000692B6EB9A48DB58D9C9184A180958923A6
:1039E0008C93A48DB58D9C9184A1892B8C93A48DEF
:1039F000B58D9C9184A1809589238C93A489B589E8
:103A00009C9180A1809589238C93A59894B3842F51
:103A10008071880F892B84BB80910201877E8093FF
:103A2000020190910201842F807C8695869586956F
:103A3000892B809302018EB1847C8EB99EB1242F94
:103A40002C70220F220F842F8370280F842F8072F6
:103A5000482F50E05595479555954795420F492B6E
:103A60004EB9A289B3899C91878D809589238C93C7
:103A7000A289B3899C91878D892B8C93A489B58960
:103A80009C9180A1892B8C930895613131F08FEF47
:103A900081B9603149F487B9089588E180930101C3
:103AA00080E283BB8BE38DB908958F929F92AF9292
:103AB000BF92CF92DF92EF92FF920F931F93CF931B
:103AC000DF93EC016801790162B948B9C901B80115
:103AD00020E130E040E050E00E94144749015A01E3
:103AE00080E090E0DC0188159905AA05BB050CF083
:103AF000D4C0EA89FB8930812F8D20952323208330
:103B0000EA89FB8930812F8D232B2083EA89FB8969
:103B100030812F8D209523232083EA89FB893081F2
:103B20002F8D232B2083EA89FB8930812F8D2095CF
:103B300023232083EA89FB8930812F8D232B208347
:103B4000EA89FB8930812F8D209523232083EA8900
:103B5000FB8930812F8D232B2083EA89FB893081DB
:103B60002F8D209523232083EA89FB8930812F8D97
:103B7000232B2083EA89FB8930812F8D20952323F5
:103B80002083EA89FB8930812F8D232B2083EA89CA
:103B9000FB8930812F8D209523232083EA89FB899F
:103BA00030812F8D232B2083EA89FB8930812F8D53
:103BB000209523232083EA89FB8930812F8D232BB5
:103BC0002083EA89FB8930812F8D20952323208350
:103BD000EA89FB8930812F8D232B2083EA89FB8999
:103BE00030812F8D209523232083EA89FB89308122
:103BF0002F8D232B2083EA89FB8930812F8D2095FF
:103C000023232083EA89FB8930812F8D232B208376
:103C1000EA89FB8930812F8D209523232083EA892F
:103C2000FB8930812F8D232B2083EA89FB8930810A
:103C30002F8D209523232083EA89FB8930812F8DC6
:103C4000232B2083EA89FB8930812F8D2095232324
:103C50002083EA89FB8930812F8D232B2083EA89F9
:103C6000FB8930812F8D209523232083EA89FB89CE
:103C700030812F8D232B2083EA89FB8940813F8D62
:103C8000309534233083EA89FB8920813F8D322BA4
:103C900030830196A11DB11D26CFD701C6018F70BB
:103CA0009927AA27BB27892B8A2B8B2B19F1C701B0
:103CB000B60120E130E040E050E00E941447C12C02
:103CC000D12C76016C157D058E059F059CF0EA8947
:103CD000FB8930812F8D209523232083EA89FB895E
:103CE00030812F8D232B20832FEFC21AD20AE20AB4
:103CF000F20AE8CFDF91CF911F910F91FF90EF90E3
:103D0000DF90CF90BF90AF909F908F9008958F924B
:103D10009F92AF92BF92CF92DF92EF92FF92CF939A
:103D2000DF93EC0169017A0162B9CA01B90120E1AE
:103D300030E040E050E00E94144749015A0180E021
:103D400090E0DC0188159905AA05BB050CF0A4C11B
:103D5000EA89FB8930812F8D209523232083EA89EE
:103D6000FB8930812F8D232B2083EA89FB893081C9
:103D70002F8D209523232083EA89FB8930812F8D85
:103D8000232B2083EA89FB8930812F8D20952323E3
:103D90002083EA89FB8930812F8D232B2083EA89B8
:103DA000FB8930812F8D209523232083EA89FB898D
:103DB00030812F8D232B2083EA89FB8930812F8D41
:103DC000209523232083EA89FB8930812F8D232BA3
:103DD0002083EA89FB8930812F8D2095232320833E
:103DE000EA89FB8930812F8D232B2083EA89FB8987
:103DF00030812F8D209523232083EA89FB89308110
:103E00002F8D232B2083EA89FB8930812F8D2095EC
:103E100023232083EA89FB8930812F8D232B208364
:103E2000EA89FB8930812F8D209523232083EA891D
:103E3000FB8930812F8D232B2083EA89FB893081F8
:103E40002F8D209523232083EA89FB8930812F8DB4
:103E5000232B2083EA89FB8930812F8D2095232312
:103E60002083EA89FB8930812F8D232B2083EA89E7
:103E7000FB8930812F8D209523232083EA89FB89BC
:103E800030812F8D232B2083EA89FB8930812F8D70
:103E9000209523232083EA89FB8930812F8D232BD2
:103EA0002083EA89FB8930812F8D2095232320836D
:103EB000EA89FB8930812F8D232B2083EA89FB89B6
:103EC00030812F8D209523232083EA89FB8930813F
:103ED0002F8D232B2083EA89FB8930812F8D20951C
:103EE00023232083EA89FB8930812F8D232B208394
:103EF000EA89FB8930812F8D209523232083EA894D
:103F0000FB8930812F8D232B2083EA89FB89308127
:103F10002F8D209523232083EA89FB8930812F8DE3
:103F2000232B2083EA89FB8930812F8D2095232341
:103F30002083EA89FB8930812F8D232B2083EA8916
:103F4000FB8930812F8D209523232083EA89FB89EB
:103F500030812F8D232B2083EA89FB8930812F8D9F
:103F6000209523232083EA89FB8930812F8D232B01
:103F70002083EA89FB8930812F8D2095232320839C
:103F8000EA89FB8930812F8D232B2083EA89FB89E5
:103F900030812F8D209523232083EA89FB8930816E
:103FA0002F8D232B2083EA89FB8930812F8D20954B
:103FB00023232083EA89FB8930812F8D232B2083C3
:103FC000EA89FB8930812F8D209523232083EA897C
:103FD000FB8930812F8D232B2083EA89FB89308157
:103FE0002F8D209523232083EA89FB8930812F8D13
:103FF000232B2083EA89FB8930812F8D2095232371
:104000002083EA89FB8930812F8D232B2083EA8945
:10401000FB8930812F8D209523232083EA89FB891A
:1040200030812F8D232B2083EA89FB8930812F8DCE
:10403000209523232083EA89FB8930812F8D232B30
:104040002083EA89FB8930812F8D209523232083CB
:10405000EA89FB8930812F8D232B2083EA89FB8914
:1040600030812F8D209523232083EA89FB8930819D
:104070002F8D232B2083EA89FB8940813F8D30954A
:1040800034233083EA89FB8920813F8D322B3083B2
:104090000196A11DB11D56CED701C6018F7099277B
:1040A000AA27BB27892B8A2B8B2B81F1C701B6014D
:1040B00020E130E040E050E00E941447C12CD12CB8
:1040C00076016C157D058E059F0504F1EA89FB8953
:1040D00030812F8D209523232083EA89FB8930812D
:1040E0002F8D232B2083EA89FB8930812F8D20950A
:1040F00023232083EA89FB8930812F8D232B208382
:104100002FEFC21AD20AE20AF20ADBCFDF91CF9177
:10411000FF90EF90DF90CF90BF90AF909F908F90E7
:10412000089508954F925F926F927F928F929F921F
:10413000AF92BF92CF92DF92EF92FF920F931F93B5
:10414000CF93DF93CDB7DEB7C05AD1090FB6F8943D
:10415000DEBF0FBECDBF70E4E6E0F2E0DE01AF5B94
:10416000BF4F01900D927A95E1F770E4E6E4F2E03A
:10417000DE01119601900D927A95E1F770E2E6E882
:10418000F2E0DE01AF57BF4F01900D927A95E1F753
:10419000E62FF0E05F01AA0CBB1CA1E4B0E0AC0F7D
:1041A000BD1FAA0DBB1D0D90BC91A02D2D01612C32
:1041B000712CDC0115964D925D926D927C92189750
:1041C000A1E0B0E0AC0FBD1FAA0DBB1D0D90BC91CE
:1041D000A02D4D01A12CB12CDC0119968D929D9240
:1041E000AD92BC921C97A1E8B0E0AC0FBD1FEA0FE6
:1041F000FB1F7081FC017687658745A326A307A373
:10420000E0A6C1A6743019F461E066877787DC0107
:104210001E966C911E97653031F471E01E967C936A
:104220001E971F966C93FC016685613009F498C057
:1042300049013A015C0129DCF301E058FC4EE491AC
:10424000F0E0EE0FFF1FE052FC4E25913491D501B6
:1042500051963C932E935097F301E65CFC4EE4910B
:104260005E96EC935E97F401E058FC4EE491F0E02A
:10427000EE0FFF1FE052FC4E25913491F501338B78
:10428000228BF401E65CFC4EE4915F96EC935F9721
:10429000C801F801E058FC4EE491F0E0EE0FFF1F7A
:1042A000E052FC4E25913491F501358B248BFC01B5
:1042B000E65CFC4EE4919096EC939097F701E05801
:1042C000FC4EE491F0E0EE0FFF1FE052FC4E8591B2
:1042D0009491F501978B868BF701E65CFC4EE49098
:1042E0009196EC9291971E968C91813109F0ADC018
:1042F000F601E058FC4EE491F0E0EE0FFF1FE052B3
:10430000FC4EA591B491F501B58FA48FF601E65C42
:10431000FC4E9491F50194A38C91E92FE095E8234C
:10432000EC9361E088E00E94764560E088E0C0564A
:10433000DF4F0FB6F894DEBF0FBECDBFDF91CF9138
:104340001F910F91FF90EF90DF90CF90BF90AF90B3
:104350009F908F907F906F905F904F900C94B2459C
:10436000BA01FA01E058FC4EE491F0E0EE0FFF1FB5
:10437000E052FC4E45915491DC0159965C934E936A
:104380005897FB01E65CFC4EE4919296EC93929771
:10439000A901F901E058FC4EE491F0E0EE0FFF1F97
:1043A000E052FC4E25913491FC01338F228FFA01AB
:1043B000E65CFC4EE4919396EC939397F801E058F9
:1043C000FC4EE491F0E0EE0FFF1FE052FC4E4591F1
:1043D0005491FC01558B448BF801E65CFC4EE49152
:1043E0009096EC93BFEFEB16F104A9F0F701E058BB
:1043F000FC4EE491F0E0EE0FFF1FE052FC4E2591E1
:104400003491FC01378B268BF701E65CFC4EE4907F
:10441000DC019196EC92FC0127852430B1F0F60185
:10442000E058FC4EE491F0E0EE0FFF1FE052FC4E2E
:1044300045915491DC0151965C934E935097F6014F
:10444000E65CFC4EE4915E96EC93C056DF4F0FB6EF
:10445000F894DEBF0FBECDBFDF91CF911F910F91BA
:10446000FF90EF90DF90CF90BF90AF909F908F9094
:104470007F906F905F904F900895462FDC011E96BD
:104480002C911E97213071F05096ED91FC9151972F
:1044900030815E962C915E972095232320831E9673
:1044A0002C9101C021E060E059C91F93CF93DF93A5
:1044B000DC011E962C911E97213069F05096ED91EB
:1044C000FC91519730815E962C915E97232B20832F
:1044D0001E962C910AC0142F462FEC0121E061E0BA
:1044E0003DD92E85412F61E0CE01DF91CF911F9103
:1044F00035C9462FDC011E962C911E97213071F094
:104500005096ED91FC91519730815E962C915E977B
:10451000232B20831E962C9160E002C021E061E0F5
:104520001DC90F931F93CF93DF93EC018A01A5DF81
:10453000402F612FCE01DF91CF911F910F91B5CF09
:10454000AF92BF92CF92DF92EF92FF920F931F93A1
:10455000CF93DF93EC016B01B42EA52E79018C81F2
:10456000813069F489859A859C01261B370B8E1949
:104570009F0978018901C42ED52EB82EA92EED856C
:104580008E2F90E0FC013297EE31F10508F00EC15C
:104590008827EE58FF4F8F4F0C9430474D2D50E039
:1045A00062E0CE01BEDFA60163E0CE01BADF4F2D8F
:1045B00050E064E0CE01B5DFA70165E0CE01B1DFD8
:1045C0004A2D50E066E0CE01ACDF4B2D5A2D67E05E
:1045D000CE01A7DF412F50E052C05E2D44274C0D85
:1045E0005D1D64E4CE019DDF4B2D5A2D65E4CE01A7
:1045F00098DFA80166E4CE0194DFA6016EE4CE0147
:1046000090DF4B2D5A2D6FE4CE018BDF62E2C2C0EA
:10461000A60160E2CE0185DF4B2D5A2D61E2CE016D
:1046200080DFA60160E5CE017CDF4B2D5A2D62E5CF
:10463000CE0177DFA70161E5CE0173DFA80163E555
:10464000E3CF40E050E062E0CE016BDFA60163E023
:10465000CE0167DF40E050E064E0CE0162DFA701F9
:1046600065E0CE015EDF40E050E066E0CE0159DF5C
:104670004B2D5A2D67E0CE0154DF40E050E068E05A
:10468000CE014FDFA80169E0BFCF6AE2CE01F5DEBF
:104690006C2DCE012EDF6E2DCE012BDF6BE2CE0115
:1046A000ECDE6B2D71C06AE2CE01E7DE6A2DCE0131
:1046B00020DF6B2DCE011DDF612FCE011ADF602FB1
:1046C000CE0117DF6BE2CE01D8DE6D2DCE0111DFFA
:1046D0006C2DCE010EDF6F2DCE010BDF6E2D57C07E
:1046E0005E2D44274C295D2966E4CE011ADFA8011E
:1046F00067E4CE0116DF4B2D5A2D68E40FC0A701E9
:1047000066E3CE010EDFA60167E3CE010ADFA80152
:1047100068E3CE0106DF4B2D5A2D69E3CE0101DFA0
:10472000A60160E2CE01FDDE4B2D5A2D61E26CCF79
:104730004B2D5A2D62E0CE01F4DEA60163E0CE01DE
:10474000F0DEA80166E0CE01ECDEA70167E0CE0155
:10475000E8DE6FE01FC06AE2CE018FDE6D2DCE0174
:10476000C8DE6C2DCE01C5DE6F2DCE01C2DE6E2DF2
:10477000CE01BFDE6BE2CE0180DE6A2DCE01B9DE56
:104780006B2DCE01B6DE612FCE01B3DE602FCE01E0
:10479000B0DE6CE2CE01DF91CF911F910F91FF90BF
:1047A000EF90DF90CF90BF90AF9067CEDF91CF9129
:1047B0001F910F91FF90EF90DF90CF90BF90AF903F
:1047C00008950F931F93CF93DF93EC016C8361E007
:1047D0008DA10E94764561E08EA10E94764561E040
:1047E0008FA10E94764588A58F3F19F061E00E9455
:1047F00076458E85813129F0813039F48F85853079
:1048000021F461E089A50E9476456E85613011F042
:10481000CE013BD9EE89FF89908189A1892B8083C4
:1048200065E070E080E090E00E948644EE89FF89B8
:10483000908189A18095892380836FE070E080E07A
:1048400090E00E948644EE89FF89908189A1892B9E
:1048500080836FE070E080E090E00E948644EC8905
:10486000FD89908188A1809589238083ED858E2F95
:1048700090E0FC013297EE31F10510F00C94B43663
:104880008827E057FF4F8F4F0C94304741E050E0AE
:1048900060E0CE0146DE44EA58EA63E0CE0141DE44
:1048A00040E050E06CE0CE013CDE4CE058E06DE0D2
:1048B000CE0137DE40E05BE26EE0CE0132DE47EB58
:1048C00050E06EE1CE012DDE4FE35BE261E0CE0110
:1048D00028DE40E056E062E0CE0123DE40E050E01A
:1048E00060E1CE011EDE40E750E661E1CE0119DE57
:1048F00040E050E065E0CE0114DE40E050E066E0CC
:10490000CE010FDE4CE15FEE66E1CE010ADE43E050
:1049100050E067E1CE0105DE43E352E067E0CE01FF
:1049200000DE40E050E06BE0CE01FBDD40E050E017
:104930006FE0CE01F6DD40E050E061E4CE01F1DD54
:1049400040E050E062E4CE01ECDD40E050E068E49D
:10495000CE01E7DD4FE351E069E4CE01E2DD40E066
:1049600050E06AE4CE01DDDD40E050E06BE4CE01D2
:10497000D8DD40E05FEE64E4CE01D3DD40E050E0FE
:1049800065E4CE01CEDD4FE351E066E4CE01C9DD42
:1049900047E057E060E3CE01C4DD44E052E061E36C
:1049A000CE01BFDD44E052E062E3CE01BADD42E079
:1049B00055E063E3CE01B5DD47E055E064E3CE01A9
:1049C000B0DD44E052E065E3CE01ABDD44E052E00F
:1049D00066E3CE01A6DD42E055E067E3CE01A1DD4E
:1049E00042E053E06AE3CE019CDD42E053E06BE33A
:1049F000CE0197DD40E050E063E2CE0192DD40E081
:104A000050E064E2CE018DDD40E050E865E2CE0189
:104A100088DD40E050E06FE4CE0183DD40E050E00F
:104A20006EE40C944C3040EF58E765EECE0179DD32
:104A300040E051E061E0CE0174DD40E052E062E030
:104A4000CE016FDD40E350E163E0CE016ADD40E07E
:104A500050E064E0CE0165DD47E052E068E0CE0161
:104A600060DD40E050E069E0CE015BDD40E050E019
:104A70006AE0CE0156DD40E050E06CE0CE0151DD51
:104A800040E050E06DE0CE014CDD40E050E06FE0F2
:104A9000CE0147DD40E050E060E1CE0142DD47E07D
:104AA00050E061E1CE013DDD40E050E062E1CE0149
:104AB00038DD40E050E063E1CE0133DD41E050E01D
:104AC00067E0CE012EDD68EC70E080E090E00E94AF
:104AD000864440E956E160E1CE0123DD47E252E041
:104AE00061E1CE011EDD62E370E080E090E00E94B3
:104AF00086444DE050E062E1CE0113DD62E370E0F8
:104B000080E090E00E94864440E052E163E1CE0103
:104B100008DD4AE050E069E2CE0103DD4DE050E0FF
:104B20007DC040EF58E765EECE01FBDC40E051E090
:104B300061E0CE01F6DC40E057E062E0CE01F1DC5E
:104B400040E350E163E0CE01ECDC40E050E064E0A3
:104B5000CE01E7DC47E052E068E0CE01E2DC40E075
:104B600050E069E0CE01DDDC40E050E06AE0CE01DB
:104B7000D8DC40E050E06CE0CE01D3DC40E050E017
:104B80006DE0CE01CEDC40E050E06FE0CE01C9DC4C
:104B900040E050E060E1CE01C4DC47E050E061E17C
:104BA000CE01BFDC40E050E062E1CE01BADC40E083
:104BB00050E063E1CE01B5DC41E050E067E0CE01BA
:104BC000B0DC68EC70E080E090E00E94864440E950
:104BD00055E160E1CE01A5DC47E252E061E1CE01A2
:104BE000A0DC62E370E080E090E00E9486444CE943
:104BF00050E062E1CE0195DC62E370E080E090E09D
:104C00000E94864440E059E163E1CE018ADC43E240
:104C100050E069E2CE0185DC4EE050E06BE2CE016F
:104C200080DC62E370E080E090E00E94864440E037
:104C300050E060E2CE0175DC40E050E061E2CE0180
:104C400070DC40E050E060E3CE016BDC44E054E017
:104C500061E3CE0166DC43E050E062E3CE0161DC5B
:104C600045E054E065E3CE015CDC48E058E066E3F3
:104C7000CE0157DC47E054E067E3CE0152DC43E06D
:104C800053E068E3CE014DDC47E057E069E3CE0135
:104C900048DC44E055E06CE3CE0143DC48E058E0FA
:104CA0006DE3CE013EDC40E050E060E5CE0139DC52
:104CB0004FEE50E061E5CE0134DC40E050E062E5CB
:104CC000CE012FDC4FE351E063E5CE012ADC40E06A
:104CD00057EA60E6CE0125DC41E050E061E6CE0116
:104CE00020DC40E050E06AE6CE011BDC40E050E012
:104CF00060E8CE0116DC40E050E061E8CE0111DC56
:104D000040E050E062E8CE010CDC40E050E063E8B7
:104D1000CE0107DC40E050E064E8CE0102DC40E078
:104D200050E065E8CE01FDDB40E150E060E9CE01F6
:104D3000F8DB40E050E062E9CE01F3DB43E351E011
:104D400067E0CE01EEDB0C94B43644E850E066E256
:104D5000CE01E7DB68E270E080E090E00E948644EC
:104D600048EB50E066E2CE01DCDB68E270E080E018
:104D700090E00E9486444CEB50E066E2CE01D1DB2D
:104D800064E170E080E090E00E94864440E050E002
:104D900060E6CE01C6DB46E050E061E6CE01C1DB55
:104DA00040E050E062E6CE01BCDB48EC50E063E658
:104DB000CE01B7DB64E170E080E090E00E948644C1
:104DC00040E750E063E7CE01ACDB40E050E060E458
:104DD000CE01A7DB40E450E061E4CE01A2DB45E474
:104DE00050E062E4CE019DDB41E050E063E4CE019F
:104DF00098DB40E650E064E4CE0193DB45E050E010
:104E000065E4CE018EDB4CE050E066E4CE0189DB48
:104E100041ED50E067E4CE0184DB45E050E068E41A
:104E2000CE017FDB45E750E060E5CE017ADB41E073
:104E300050E061E5CE0175DB47E650E062E5CE016A
:104E400070DB44E150E063E5CE016BDB42EF50E004
:104E500064E5CE0166DB47E050E065E5CE0161DB4D
:104E600043E050E066E5CE015CDB49E450E067E5F5
:104E7000CE0157DB64E170E080E090E00E94864460
:104E800043E050E06FE1CE014CDB40E050E060E2F7
:104E9000CE0147DB44E250E064E2CE0142DB44E372
:104EA00050E065E2CE013DDB4FE250E063E2CE012F
:104EB00038DB64E170E080E090E00E94864444E4E6
:104EC00050E068E1CE012DDB41E050E061E2CE012F
:104ED00028DB40E050E061E0CE0123DB43E050E01E
:104EE0006CE1CE011EDB46E050E069E1CE0119DB4A
:104EF00064E170E080E090E00E94864444E850E085
:104F000066E2CE010EDB68E270E080E090E00E9495
:104F1000864448EB50E066E2CE0103DB68E270E0D5
:104F200080E090E00E9486444CEB50E066E2CE01C7
:104F3000F8DA64E170E080E090E00E94864440E0AE
:104F400050E062E0CE01EDDA40E050E063E0CE01F7
:104F5000E8DA40E050E064E0CE01E3DA4FEA50E006
:104F600065E0CE01DEDA40E050E066E0CE01D9DA5D
:104F700040E050E067E0CE01D4DA40E050E068E085
:104F8000CE01CFDA4BED50E069E0CE01CADA64E140
:104F900070E080E090E00E94864448E050E066E1E6
:104FA000CE01BFDA45E050E067E1CE01BADA61E256
:104FB000CE0163DA62E2CE0160DA0C94B43661E1CC
:104FC000CE015BDA6CE070E080E090E00E94864405
:104FD00061EBCE0152DA61E0CE018BDA6CE2CE01F8
:104FE00088DA6DE2CE0185DA62EBCE0146DA61E065
:104FF000CE017FDA6CE2CE017CDA6DE2CE0179DAA5
:1050000063EBCE013ADA61E0CE0173DA6CE2CE01F5
:1050100070DA6DE2CE016DDA61E0CE016ADA6CE23F
:10502000CE0167DA6DE2CE0164DA64EBCE0125DAF7
:1050300067E0CE015EDA60ECCE011FDA62EACE01F3
:1050400058DA62E0CE0155DA64E8CE0152DA61EC5A
:10505000CE0113DA65ECCE014CDA62ECCE010DDA4A
:105060006AE0CE0146DA60E0CE0143DA63ECCE01BD
:1050700004DA6AE8CE013DDA6AE2CE013ADA64EC9B
:10508000CE01FBD96AE8CE0134DA6EEECE0131DA18
:1050900065ECCE01F2D96EE0CE012BDA66E3CE01EB
:1050A000ECD968EC73C061E1CE01E7D96CE070E047
:1050B00080E090E00E94864461EBCE01DED961E0A1
:1050C000CE0117DA6CE2CE0114DA6DE2CE0111DA0C
:1050D00062EBCE01D2D961E0CE010BDA6CE2CE01F7
:1050E00008DA6DE2CE0105DA63EBCE01C6D961E0E4
:1050F000CE01FFD96CE2CE01FCD96DE2CE01F9D927
:1051000061E0CE01F6D96CE2CE01F3D96DE2CE01B9
:10511000F0D964EBCE01B1D967E0CE01EAD960ECF9
:10512000CE01ABD962EACE01E4D962E0CE01E1D989
:1051300064E8CE01DED961ECCE019FD965ECCE01E9
:10514000D8D962ECCE0199D96AE0CE01D2D960E01B
:10515000CE01CFD963ECCE0190D96AE8CE01C9D98E
:105160006AE2CE01C6D964ECCE0187D96AE8CE01E5
:10517000C0D96EEECE01BDD965ECCE017ED96EE010
:10518000CE01B7D966E3CE0178D960ECCE01B1D9B2
:1051900060EECE0172D96FE0CE01ABD96AE1CE01EB
:1051A000A8D96FE0CE01A5D968E1CE01A2D96FE2FE
:1051B000CE019FD968E2CE019CD960E2CE0199D997
:1051C00062E2CE0196D96FE1CE0193D96BE1CE01B7
:1051D00090D963E2CE018DD967E3CE018AD960E030
:1051E000CE0187D967E0CE0184D962E0CE0181D9B2
:1051F00060E1CE017ED961EECE013FD96FE0CE01F4
:1052000078D96BE1CE0175D96FE0CE0172D967E133
:10521000CE016FD963E3CE016CD96CE2CE0169D9BE
:1052200069E2CE0166D96EE2CE0163D960E3CE01B8
:1052300060D960E3CE015DD969E3CE015AD96FE34D
:10524000CE0157D960E0CE0154D967E0CE0151D9E3
:1052500063E0CE014ED960E1CE014BD96AE2CE01C6
:105260000CD960E0CE0145D960E0CE0142D960E0C2
:10527000CE013FD96FE7CE013CD96BE2CE01FDD81C
:1052800060E0CE0136D960E0CE0133D960E0CE01D6
:1052900030D96FE9CE012DD960EFCE01EED861E0B3
:1052A000CE0127D966EFCE01E8D860E00C947031CA
:1052B00061E0CE01E2D865E2CE01DFD860E4CE0144
:1052C00018D961E1CE01D9D86AE070E080E090E0C1
:1052D0000E94864460E2CE01D0D868E3CE01CDD8EA
:1052E00069E2CE01CAD863E1CE01C7D866E3CE0138
:1052F000C4D860E6CE01FDD86AE3CE01BED865E031
:10530000CE01F7D86AE2CE01B8D860E0CE01F1D87C
:105310006FE7CE01EED864EBCE01AFD863E0CE01EB
:10532000E8D868E0CE01E5D86BE0CE01E2D86EE0C7
:10533000CE01DFD86AEBCE01A0D867E0CE01D9D884
:105340006DE0CE01D6D86BE2CE0197D860E0CE01F9
:10535000D0D86FE75EC263E8CE018FD862E0CE019D
:10536000C8D865E8CE0189D863E0CE01C2D86BE821
:10537000CE0183D861E0CE01BCD86CE8CE017DD8E7
:1053800063E9CE01B6D861E9CE0177D861E0CE01FC
:10539000B0D863E8CE0171D860E0CE01AAD86EE340
:1053A000CE016BD860EBCE01A4D86FE3CE0165D8F7
:1053B00063E0CE019ED860E4CE015FD860E1CE010B
:1053C00098D861E4CE0159D866E5CE0192D862E45E
:1053D000CE0153D863E1CE018CD863E4CE014DD821
:1053E00066E4CE0186D864E4CE0147D863E2CE01FC
:1053F00080D865E4CE0141D866E7CE017AD866E46C
:10540000CE013BD860E0CE0174D867E4CE0135D838
:105410006EE5CE016ED868E4CE012FD86FE4CE01E0
:1054200068D869E4CE0129D860E4CE0162D867E18A
:10543000CE0123D861E9CE015CD86BE2CE011DD844
:1054400069EFCE0156D86AE070E080E090E00E94FB
:1054500086446BE1CE0111D864E1CE014AD86AE1FD
:10546000CE010BD861E1CE0144D86CE1CE0105D864
:1054700066E0CE013ED86FE1CE010E943D2262E49B
:10548000CE0137D864E170E080E090E00E9486446D
:1054900069E1CE010E943D226AE0CE012AD869E18D
:1054A000CE010E943D226AE1CE0123D868E270E07D
:1054B00080E090E00E94864469E1CE010E943D2296
:1054C00062E1CE0116D868E270E080E090E00E94D0
:1054D00086446EE1CE010E943D2267E2CE0109D8EA
:1054E00064E670E080E090E00E94864464E2CE01D1
:1054F0000E943D2260E6CE010E9479226DE3CE013A
:105500000E943D2260E4CE010E94792264E3CE0134
:105510000E943D2268E3CE010E94792265E3CE011C
:105520000E943D2268E3CE010E94792264E2CE010E
:105530000E943D2268E3CE010E94792268E270E079
:1055400080E090E00E94864464E2CE010E943D2209
:105550006CE3CE010E94792266E1CE010E943D22D9
:105560006CE1CE010E94792261E0CE010E943D22D1
:1055700066E0CE010E94792265E5CE010E943D22BF
:1055800060E0CE010E94792262E0CE010E943D22BD
:1055900060E0CE010E94792263E0CE010E943D22AC
:1055A00060E0CE010E94792264E0CE010E943D229B
:1055B00060E0CE010E94792265E0CE010E943D228A
:1055C0006FEECE010E94792266E0CE010E943D225C
:1055D00060E0CE010E94792267E0CE010E943D2268
:1055E00060E0CE010E94792268E0CE010E943D2257
:1055F00061E0CE010E94792269E0CE010E943D2245
:105600006FE8CE010E947922D5CC62EECE010E94D5
:105610003D2263E2CE010E94792262E0CE010E9427
:10562000792264E5CE010E94792260EECE010E94CB
:105630003D2261E0CE010E9479226AE070E080E0C4
:1056400090E00E94864460EECE010E943D2263E01D
:10565000CE010E9479226AE070E080E090E00E9432
:10566000864461E0CE010E943D2264E670E080E065
:1056700090E00E94864466EECE010E943D2261E0E9
:10568000CE010E9479226FE1CE010E9479226FEF54
:10569000CE010E94792260EBCE010E943D2260E2A1
:1056A000CE010E94792260E0CE010E94792261E061
:1056B000CE010E9479226FEDCE010E94792261E035
:1056C000CE010E9479226FE0CE010E94792260E033
:1056D000CE010E94792264EBCE010E943D2262E05D
:1056E000CE010E94792263E1CE010E94792260E01E
:1056F000CE010E94792268E0CE010E9479226BE2FD
:10570000CE010E94792260E0CE010E94792262E0FF
:10571000CE010E94792260E0CE010E94792266EBE0
:10572000CE010E943D2261E0CE010E94792260E21A
:10573000CE010E94792260E0CE010E94792264E0CD
:10574000CE010E9479226CE0CE010E94792260E0B5
:10575000CE010E94792262E0CE010E9479226AEB9A
:10576000CE010E943D226FE0CE010E94792268EBBB
:10577000CE010E943D2267E0CE010E94792261E0C5
:10578000CE010E94792266E3CE010E943D2262E2B0
:10579000CE010E94792260EFCE010E943D2263E09B
:1057A000CE010E94792261E070E080E090E00E94EA
:1057B00086440FE011E02FED31E040E050E060E082
:1057C00070E0CE010E94A02269E2CE010E943D223B
:1057D0006EEBCE010E943D2266E0CE010E9479224E
:1057E00060EFCE010E94792261E0CE010E94792211
:1057F00060EFCE010E94792260E0CE010E94792202
:1058000060E0CE010E94792260EDCE010E943D222F
:105810006DE0CE010E9479220C94B33562EECE0188
:105820000E943D226EE1CE010E94792262E0CE010B
:105830000E94792264E5CE010E94792260EECE01B9
:105840000E943D2261E0CE010E9479226AE070E070
:1058500080E090E00E94864460EECE010E943D22EE
:1058600063E0CE010E9479226AE070E080E090E07F
:105870000E94864461E0CE010E943D2264E670E011
:1058800080E090E00E94864466EECE010E943D22B8
:1058900063E0CE010E9479226FEFCE010E9479224F
:1058A0006FEFCE010E94792260EBCE010E943D2273
:1058B00064E2CE010E94792260E0CE010E9479224A
:1058C00063E0CE010E9479226FE1CE010E9479222D
:1058D00061E0CE010E9479226FEDCE010E94792213
:1058E00060E0CE010E94792264EBCE010E943D224D
:1058F00063E0CE010E94792260EACE010E94792203
:1059000060E0CE010E9479226EE2CE010E947922EF
:1059100060E3CE010E94792260E0CE010E947922EC
:105920006FE0CE010E94792260E0CE010E947922D0
:1059300066EBCE010E943D2262E0CE010E947922F8
:105940006DE0CE010E94792260E0CE010E947922B2
:1059500060E1CE010E94792260E1CE010E947922AD
:1059600060E0CE010E94792268E0CE010E94792297
:105970006AEBCE010E943D226FE0CE010E947922A7
:1059800068EBCE010E943D2267E0CE010E947922A1
:1059900061E0CE010E94792266E3CE010E943D22A1
:1059A00062E2CE010E94792260EFCE010E943D2288
:1059B00063E0CE010E94792261E070E080E090E037
:1059C000D2C062EECE010E943D2263E2CE010E946F
:1059D000792262E0CE010E94792264E0CE010E9429
:1059E000792260EECE010E943D2261E0CE010E944C
:1059F00079226AE070E080E090E00E94864460EEE8
:105A0000CE010E943D2263E0CE010E9479226AE02D
:105A100070E080E090E00E94864461E0CE010E9448
:105A20003D2264E670E080E090E00E94864466EEED
:105A3000CE010E943D2264E0CE010E94792263E9FA
:105A4000CE010E94792260EECE010E94792260EBA5
:105A5000CE010E943D2260E0CE010E94792260E0EA
:105A6000CE010E94792263E0CE010E9479226FE18B
:105A7000CE010E94792261E0CE010E9479226FED71
:105A8000CE010E94792260E0CE010E94792264EB6F
:105A9000CE010E943D2263E0CE010E94792260EA9D
:105AA000CE010E94792260E0CE010E9479226EE24E
:105AB000CE010E94792260E3CE010E94792260E04B
:105AC000CE010E9479226FE0CE010E94792260E02F
:105AD000CE010E94792266EBCE010E943D2262E057
