S01C00004F7363696C6C61746F72436F6E74726F6C6C65722E73726563C8
S11300000C948E090C9447350C9472350C949D35E0
S11300100C94C8350C94F3350C941E360C94493664
S11300200C9474360C94BF090C94BF090C94BF094A
S11300300C94BF090C94BF090C94BF090C94BF091C
S11300400C94BF090C94BF090C94BF090C94BF090C
S11300500C94BF090C94BF090C94BF090C949F36EF
S11300600C94BF090C94B8320C94EE320C94BF0972
S11300700C94BF090C94BF090C94BF090C94BF09DC
S11300800C94BF090C94BF090C94BF090C94BF09CC
S11300900C94BF090C94BF090C94BF090C94BF09BC
S11300A00C94BF090C94BF090C94BF090C94BF09AC
S11300B00C94BF090C94BF090C94BF090C94BF099C
S11300C00C94BF090C94BF090C94BF090C94BF098C
S11300D00C94BF090C94BF090C94BF090C94BF097C
S11300E00C94BF0925190E1A4019401959190E1AF2
S11300F00619E3197D190E1A8B198B19A819A81959
S11301002519E3190E1A25198B19E3194019B71982
S1130110E319E319E319E319E319D019E319E3190E
S11301207E1AEC2C4B1B4B1BDD1CEC2CE31F171E07
S1130130901FEC2C3D214622F223F2237E1A8F28B5
S1130140EC2C7E1A1923F224C91BBB2589268F287F
S1130150B62748298F2AEE2B022C8B1E2135EB342F
S1130160F334FF340C352D353A35CE37D137C0371B
S1130170C437CA370838D537D937DF37E337E737D5
S1130180ED37F137F5370838FB37FF3703381010F0
S1130190205F0000000000000000000000000000DC
S11301A0000000000000000000000000000000004B
S11301B000000000000007000F800F800F800F80F8
S11301C00F80070007000000000007000700070079
S11301D0000000000E380E380E380E3806300000CD
S11301E0000000000000000000000000000000000B
S11301F0000000000C300C300C307FFE7FFE0C3011
S11302000C300C300C307FFE7FFE0C300C300C3088
S113021000000000024002400FF81FF81A401A4084
S11302201FF00FF8025802581FF81FF00240024056
S113023000000000000000000E100E300E7000E000
S113024001C0038007000E700C70087000000000ED
S11302500000000000000F001980198019800F00B1
S11302600F080F9819F818F018E019F00F9800000B
S11302700000000000000700070007000E00000057
S1130280000000000000000000000000000000006A
S113029000000000000000F001C0038007000E0011
S11302A00E000E000E000700038001C000F00000E5
S11302B00000000000000F00038001C000E0007097
S11302C000700070007000E001C003800F000000A7
S11302D000000000000001801188099007E007E099
S11302E03FFC3FFC07E007E0099011880180000013
S11302F00000000000000000000001800180018077
S11303000FF00FF001800180018000000000000068
S113031000000000000000000000000000000000D9
S113032000000000000000000700070007000E00A6
S113033000000000000000000000000000000000B9
S11303401FF81FF80000000000000000000000007B
S11303500000000000000000000000000000000099
S11303600000000000000000070007000700000074
S113037000000000000000020006000E001C00380F
S1130380007000E001C0038007000E001C000000A4
S11303900000000000000FF01C381C781CF81CF84A
S11303A01DB81DB81F381F381E381C380FF0000048
S11303B00000000000000180018003801F801F8076
S11303C00380038003800380038003801FF0000008
S11303D00000000000000FE01C701C3800380070A2
S11303E000E001C0038007000E381C381FF800002D
S11303F00000000000000FE01C701C380038007082
S113040003C003C0007000381C381C700FE00000EB
S113041000000000000000E001E003E006E00CE062
S113042018E01FF81FF800E000E000E003F8000007
S11304300000000000001FF81C001C001C001C0031
S11304401FE01FF0007800381C381C700FE000001B
S113045000000000000003E007000E001C001C0068
S11304601FF01FF81C381C381C381C380FF0000013
S11304700000000000001FFC1C1C1C1C1C1C001C99
S11304800038007000E001C0038003800380000096
S11304900000000000000FF01C381C381C381F3806
S11304A007E007E01CF81C381C381C380FF000006B
S11304B00000000000000FF01C381C381C381C38E9
S11304C01FF80FF800380038007000E007C0000083
S11304D0000000000000000000000380038003808F
S11304E0000000000380038003800000000000007F
S11304F0000000000000000000000380038003806F
S11305000000000003800380038007000000000057
S113051000000000007000E001C0038007000E002E
S11305201C001C000E000700038001C000E00070E6
S11305300000000000000000000000003FFC3FFC41
S1130540000000003FFC3FFC000000000000000031
S1130550000000001C000E000700038001C000E042
S11305600070007000E001C0038007000E001C0052
S11305700000000003C00FF01E7818380038007027
S113058000E001C001C00000000001C001C001C0C2
S1130590000000000FF81C1C1C1C1C1C1C1C1CFC58
S11305A01CFC1CFC1CFC1C001C001C001FF007F89D
S11305B000000000000003C007E00E701C381C3867
S11305C01C381C381FF81C381C381C381C38000018
S11305D00000000000001FF00E380E380E380E38F0
S11305E00FF00FF00E380E380E380E381FF00000E2
S11305F000000000000007F00E381C381C001C002E
S11306001C001C001C001C001C380E3807F00000E5
S11306100000000000001FE00E700E380E380E3887
S11306200E380E380E380E380E380E701FE00000EB
S11306300000000000001FF80E180E080E000E3017
S11306400FF00FF00E300E000E080E181FF8000009
S11306500000000000001FF80E180E080E000E30F7
S11306600FF00FF00E300E000E000E001F00000001
S113067000000000000007F00E381C381C381C0075
S11306801C001C001CF81C381C380E3807F800002D
S11306900000000000001C701C701C701C701C709A
S11306A01FF01FF01C701C701C701C701C7000006C
S11306B00000000000000FE003800380038003803B
S11306C00380038003800380038003800FE0000025
S11306D000000000000001FC007000700070007059
S11306E00070007038703870387038700FE0000097
S11306F00000000000001E380E380E700EE00FC01F
S11307000F800F800FC00EE00E700E381E380000F0
S11307100000000000001F000E000E000E000E007E
S11307200E000E000E000E080E180E381FF8000002
S11307300000000000001C1C1E3C1F7C1FFC1FFC52
S11307401DDC1C9C1C1C1C1C1C1C1C1C1C1C0000DC
S11307500000000000001C1C1C1C1E1C1F1C1F9CF5
S11307601DDC1CFC1C7C1C3C1C1C1C1C1C1C0000DC
S113077000000000000003E007F00E381C1C1C1CE5
S11307801C1C1C1C1C1C1C1C0E3807F003E0000065
S11307900000000000001FF00E380E380E380E382E
S11307A00FF00FF00E000E000E000E001F000000F0
S11307B000000000000003E00F780E381C1C1C1C15
S11307C01C1C1C1C1C7C1CFC0FF80FF8003800FCC3
S11307D00000000000001FF00E380E380E380E38EE
S11307E00FF00FF00E700E380E380E381E38000061
S11307F00000000000000FF01C381C381C381C00DE
S11308000FE007F000381C381C381C380FF00000CB
S11308100000000000001FFC19CC11C401C001C07D
S113082001C001C001C001C001C001C007F0000047
S11308300000000000001C701C701C701C701C70F8
S11308401C701C701C701C701C701C700FE000006D
S11308500000000000001C701C701C701C701C70D8
S11308601C701C701C701C700EE007C0038000001C
S11308700000000000001C1C1C1C1C1C1C1C1C1C5C
S11308801C9C1C9C1C9C0FF80FF807700770000040
S11308900000000000001C701C701C700EE007C0FB
S11308A00380038007C00EE01C701C701C700000E5
S11308B00000000000001C701C701C701C701C7078
S11308C00EE007C003800380038003800FE0000074
S11308D00000000000001FF81C381838107000E0F9
S11308E001C0038007000E081C181C381FF8000004
S11308F000000000000007F00700070007000700E1
S113090007000700070007000700070007F00000C2
S1130910000000000000100018001C000E0007007A
S1130920038001C000E000700038001C00070000D4
S113093000000000000007F00070007000700070FC
S113094000700070007000700070007007F000000C
S113095000000000018003C007E00E701C38000096
S11309600000000000000000000000000000000083
S11309700000000000000000000000000000000073
S113098000000000000000000000000000007FFFE5
S11309907FFF000000001C001C000700070000008F
S11309A00000000000000000000000000000000043
S11309B000000000000000000000000000000FE044
S11309C0007000700FF01C701C701C700FD80000B9
S11309D00000000000001E000E000E000E000FF0CC
S11309E00E380E380E380E380E380E381BF0000054
S11309F000000000000000000000000000000FE004
S1130A001C701C701C001C001C701C700FE000008B
S1130A1000000000000000F80070007000700FF08B
S1130A201C701C701C701C701C701C700FD8000093
S1130A3000000000000000000000000000000FE0C3
S1130A401C701C701FF01C001C701C700FE0000058
S1130A5000000000000003E00770077007000700B3
S1130A601FE01FE007000700070007001FC0000089
S1130A7000000000000000000000000000000FD88B
S1130A801C701C701C701C700FF007F000701C7040
S1130A900FE0000000001E000E000E000E000EF01D
S1130AA00F380F380E380E380E380E381E38000046
S1130AB000000000000001C001C001C000000FC020
S1130AC001C001C001C001C001C001C00FF8000095
S1130AD0000000000000007000700070000003F0CF
S1130AE00070007000700070007000701C700CF0DA
S1130AF007E0000000001E000E000E000E000E387D
S1130B000E700EE00FC00EE00E700E381E3800009E
S1130B100000000000000FC001C001C001C001C0FE
S1130B2001C001C001C001C001C001C00FF8000034
S1130B3000000000000000000000000000001FF89A
S1130B401C9C1C9C1C9C1C9C1C9C1C9C1C9C000099
S1130B5000000000000000000000000000001FE092
S1130B601C701C701C701C701C701C701C700000AD
S1130B7000000000000000000000000000000FE082
S1130B801C701C701C701C701C701C700FE000002A
S1130B9000000000000000000000000000001BF046
S1130BA00E380E380E380E380E380FF00E000E00C8
S1130BB01F000000000000000000000000001FB043
S1130BC038E038E038E038E038E01FE000E000E0EA
S1130BD001F00000000000000000000000001EF012
S1130BE00FF80F380E000E000E000E001F0000005C
S1130BF000000000000000000000000000000FE002
S1130C001C301C300F8003E0187018700FE00000D7
S1130C1000000000000000000100030007001FF0B6
S1130C2007000700070007000770077003E00000D3
S1130C3000000000000000000000000000001C7024
S1130C401C701C701C701C701C701C700FD8000071
S1130C5000000000000000000000000000001C7004
S1130C601C701C701C701C700EE007C00380000018
S1130C7000000000000000000000000000001C1C38
S1130C801C1C1C1C1C9C1C9C0FF80770077000008B
S1130C9000000000000000000000000000001CE054
S1130CA01CE00FC0078007800FC01CE01CE00000A0
S1130CB000000000000000000000000000000E38EA
S1130CC00E380E380E380E3807F003E000E001C08D
S1130CD01F800000000000000000000000001FE072
S1130CE018E011C0038007000E201C601FE0000004
S1130CF000000000000001F8038003800380070067
S1130D001C001C00070003800380038001F800001E
S1130D100000000001C001C001C001C001C001C049
S1130D2001C001C001C001C001C001C001C001C0B7
S1130D300000000000001F8001C001C001C000E0ED
S1130D400038003800E001C001C001C01F8000006D
S1130D500000000000001F1C3B9C39DC38F8000038
S1130D60000000000000000000000000000000007F
S1130D700000080C205F00000000000000000000DC
S1130D800000000020202020202000200000002857
S1130D905050000000000000000000002828FC283B
S1130DA050FC50500000002078A8A0603028A8F023
S1130DB02000000048A8B050283454480000000027
S1130DC020505078A8A8906C00000040408000009B
S1130DD0000000000000000408101010101010089B
S1130DE004000040201010101010102040000000DB
S1130DF00020A87070A8200000000000202020F827
S1130E00202020000000000000000000000000403E
S1130E1040800000000000F8000000000000000016
S1130E200000000000000040000000081010102026
S1130E30204040408000000070888888888888703E
S1130E40000000002060202020202070000000000E
S1130E5070888810204080F80000000070880830F6
S1130E600808887000000000103050509078101866
S1130E7000000000F88080F008088870000000007E
S1130E80709080F08888887000000000F89010202E
S1130E9020202020000000007088887088888870D6
S1130EA000000000708888887808487000000000FE
S1130EB000002000000000200000000000000020CE
S1130EC00000002020000004081020402010080426
S1130ED0000000000000F80000F8000000000040DE
S1130EE020100804081020400000000070888810BA
S1130EF02020002000000000708898A8A8B88078FE
S1130F000000000020203050507848CC0000000041
S1130F10F0484870484848F0000000007888808015
S1130F208080887000000000F0484848484848F035
S1130F3000000000F8485070504048F800000000DD
S1130F40F8485070504040E000000000384880806D
S1130F509C88483000000000CC484878484848CC79
S1130F6000000000F8202020202020F800000000CD
S1130F707C10101010101090E0000000EC4850603D
S1130F80505048EC00000000E0404040404044FC29
S1130F9000000000D8D8D8D8A8A8A8A8000000004D
S1130FA0DC486868585848E8000000007088888861
S1130FB08888887000000000F0484870404040E095
S1130FC0000000007088888888E898701800000085
S1130FD0F0484870504848EC000000007888806071
S1130FE0100888F000000000F8A8202020202070BD
S1130FF000000000CC484848484848300000000041
S1131000CC4848505030202000000000A8A8A87008
S11310105050505000000000D8505020205050D85C
S113102000000000D8505020202020700000000054
S1131030F8901020204048F800000038202020209C
S113104020202020380000404040202010101008AC
S1131050000000701010101010101010700000200C
S1131060500000000000000000000000000000002C
S11310700000000000FC0020000000000000000050
S113108000000000000000304838483C0000000028
S1131090C04040704848487000000000000000381C
S11310A04840403800000000180808384848483CC8
S11310B000000000000000304878403800000000C4
S11310C01C20207820202078000000000000003C34
S11310D04830407844380000C0404070484848ECEC
S11310E000000000200000602020207000000000AC
S11310F0100000301010101010E00000C040405CE0
S1131100507048EC00000000E0202020202020F84F
S113111000000000000000F0A8A8A8A8000000003B
S1131120000000F0484848EC0000000000000030D7
S11311304848483000000000000000F0484848706B
S113114040E000000000003848484838081C00000F
S1131150000000D8604040E000000000000000787B
S11311604030087800000000002020702020201863
S113117000000000000000D84848483C000000007F
S1131180000000EC4850302000000000000000A8DF
S1131190A870505000000000000000D8502050D823
S11311A000000000000000EC4850302020C0000087
S11311B00000007810202078000000181010102083
S11311C01010101018001010101010101010101023
S11311D0101000602020201020202020600040A457
S11311E01800000000000000000000000A0B0209C3
S11311F00C0D0E08070304010000000000000000AD
S113120000000000000000000000000000000000DA
S11312100000000000001211100000000000000097
S113122000000000000000000000000000000000BA
S113123001021020200808102040102040800201E4
S113124002010804020101020408102040808040C9
S113125020100804020180040201804020100804C8
S11312600201080402010102040810204080010266
S1131270040810204080050505050705080808082E
S1131280020202020A0A080804040404010101011A
S11312900101010103030303030303030407070715
S11312A00C0C0C0C0C0C0C0C0202020206060606BA
S11312B0060606060B0B0B0B0B0B0B0B000020009A
S11312C02300260029002C002F003200000100001A
S11312D003010601090100002200250028002B005B
S11312E02E003100340002010000050108010B0149
S11312F000002100240027002A002D0030003300C4
S113130001010000040107010A010D0BAA0D340FAD
S113131067102033BB0B580EE20F7D1111241FBE42
S1131320CFEFD1E2DEBFCDBF00E00CBF13E0A0E001
S1131330B2E0EAE3F8E700E00BBF02C007900D92C9
S1131340A436B107D9F728E0A4E6B3E001C01D92A2
S1131350AE3AB207E1F719E0CAE8D9E000E006C006
S113136021970109802FFE010E94DA39C538D1077F
S113137080E00807A9F70E944E330C940C3C0C94AF
S11313800000DC01ED91FD918081ED91FD91908152
S1131390ED91FD916C9163708E2309F064609F233D
S11313A009F06860EEEDF9E0E60FF11D65956595CD
S11313B06D936D917D918D919D91099423C01AC077
S11313C012C016C010C01EC009C014C013C006C08D
S11313D019C009C00DC007C00DC014C062507040D0
S11313E0804090400BC0615070408040904006C0E7
S11313F06E5F01C06F5F7F4F8F4F9F4F9E938E93A1
S11314007E936E9308958091FA079091FB07B9CF6C
S11314108091F8079091F907B4CFCF93DF93EC0153
S113142013D21D8E80E090E0ACE5B3E48E8F9F8FE5
S1131430A8A3B9A31AA280E090E0A0E8B0E48BA32B
S11314409CA3ADA3BEA31FA280E090E8ABE3B6E4E7
S113145088A799A7AAA7BBA788E28CA71DA61EA642
S11314601FA618AA19AA80E090E0A8E4B3E48AAB06
S11314709BABACABBDAB84EB8EAB80E090E0AAE75A
S1131480B3E48FAB98AFA9AFBAAF1BAE1CAE1DAE21
S11314901EAE1FAEFE01E05CFF4F8FEF80833196DE
S11314A0108231961082CE018B5B9F4FDF91CF91DA
S11314B0CBC10F931F93CF93DF938C01FC01EC59A5
S11314C0FF4F718360838CE090E00E945A33EC01FB
S11314D062E082E00E94093862E083E00E940938F9
S11314E0E8E7F2E1E491F0E0EE0FFF1FE454FD4E73
S11314F08591949199838883E2E3F2E1E491EC830A
S1131500E9E7F2E1E491F0E0EE0FFF1FE454FD4E51
S1131510859194919B838A83E3E3F2E1E491ED83E3
S11315201F82188619861A8680ED97E00E94473735
S1131530E881F98190818C81982381E009F480E02D
S1131540EA81FB8120819D81922309F082608E8350
S1131550D093F907C093F80741E050E068E07AE0DF
S113156080E00E94D43481E08B87D093FB07C09342
S1131570FA0741E050E063E07AE00E94D4348B85BE
S11315808F5F8B87F801ED5BFF4FD183C08342E10E
S1131590BE01C8018B5B9F4FDF91CF911F910F91CB
S11315A069C1CF92DF92EF92FF920F931F93CF9373
S11315B0DF93EC016C0185E4C80ED11C00E010E05F
S11315C020E231E440E050E060E87FE3C6015AD114
S11315D0CC59DF4F688179816F5F7F4FE12C10E830
S11315E0F12E0BE316E420E030E040EF51E4C601B5
S11315F06DD1E881F981418152816381748122E056
S113160030E084E098E0DF91CF911F910F91FF903B
S1131610EF90DF90CF900C94C334CF93DF9366EBBD
S113162072E08CE094E00E9402396BEB72E082E19C
S113163094E00E94023960EC72E088E194E00E9438
S1131640023965EC72E08EE194E00E94023968ECA4
S113165072E084E294E00E9402396EEC72E084EF5E
S113166093E00E94023964ED72E08AEF93E00E94F5
S113167002396AED72E080E094E00E94023964ED80
S113168072E086E094E00E9402396FED72E08CED26
S113169093E00E94023964ED72E082EE93E00E94CE
S11316A0023965EE72E088EE93E00E9402396AEE38
S11316B072E08EEE93E00E9402396FEE72E084ECE9
S11316C093E00E94023964EF72E08AEC93E00E9496
S11316D0023969EF72E080ED93E00E9402396EEF07
S11316E072E086ED93E00E9402396FED72E08CEABD
S11316F093E00E94023963E073E082EB93E00E947E
S1131700023968E073E088EB93E00E9402396AEDE5
S113171072E08EEB93E00E9402396FE073E084E99B
S113172093E00E94023964E173E08AE993E00E9445
S1131730023968E173E080EA93E00E9402396CE1C7
S113174073E086EA93E00E94023960E273E084E683
S113175093E00E940239C0E0D0E0269667E573E08A
S1131760CE018C599C4F0E940239CA32D105A9F787
S1131770DF91CF910895CF93DF93C4E9D3E0269707
S1131780CE010E949B3883E0C436D807C1F786EAAD
S113179093E00E949B3880EA93E00E949B388AE998
S11317A093E00E949B3884E993E00E949B388EEB7F
S11317B093E00E949B3888EB93E00E949B3882EB75
S11317C093E00E949B388CEA93E00E949B3886ED5C
S11317D093E00E949B3880ED93E00E949B388AEC52
S11317E093E00E949B3884EC93E00E949B388EEE39
S11317F093E00E949B3888EE93E00E949B3882EE2F
S113180093E00E949B388CED93E00E949B3886E025
S113181094E00E949B3880E094E00E949B388AEF19
S113182093E00E949B3884EF93E00E949B38CAE2C5
S1131830D4E02697CE010E949B3884E0CC30D807B0
S1131840C1F7DF91CF910895FC01118E108E138E94
S1131850128E80E090E0A0E8BFE3808B918BA28B96
S1131860B38B80E090E0A0E8BEE3848B958BA68BDD
S1131870B78B0895FC0176876587478762E0842FDC
S11318800C940938CF92DF92EF92FF920F931F933B
S1131890CF93DF93EC016A017B01C901B801C88AC7
S11318A0D98AEA8AFB8A20E030E040E85EE30E94BD
S11318B000316C8B7D8B8E8B9F8BDF91CF911F9131
S11318C00F91FF90EF90DF90CF9008952F923F9269
S11318D04F925F926F927F928F929F92AF92BF923C
S11318E0CF92DF92EF92FF920F931F93CF93DF93E8
S11318F000D000D0CDB7DEB79E838D836B01490144
S11319005A0109831A83FC0187850E94733821E0F8
S1131910892B09F420E0ED81FE81248F058516854D
S1131920F8018385823020F4F894C8012ADD01C0CF
S1131930F894F801478050846184728478945C82BE
S11319404B82ED81FE81518E408E828D938D841564
S11319509505CCF5848D882329F064897589868959
S1131960978906C0ED81FE81608971898289938996
S1131970F60120813181428153810E94B62F1B01DF
S11319808C019401A5010E941A3087FD0DC09701B6
S113199049815A81B101C8010E94FC30181634F4FF
S11319A0170109811A8102C014018501C101D801FE
S11319B0F60180839183A283B383ED81FE81538EEC
S11319C0428E81E08487ED81FE81828D938D2B810F
S11319D03C8128173907DCF5848D882329F0248974
S11319E035894689578906C0ED81FE812089318970
S11319F042895389F60160817181828193810E94B9
S1131A00B52F1B018C019B01AC01B401C5010E94DF
S1131A10FC3018166CF09101A801B70189819A81F4
S1131A200E941A3087FF06C0170109811A8102C07B
S1131A3014018501C101D801F60180839183A28339
S1131A40B383ED81FE81538E428E81E08487269696
S1131A500FB6F894DEBF0FBECDBFDF91CF911F91BB
S1131A600F91FF90EF90DF90CF90BF90AF909F9039
S1131A708F907F906F905F904F903F902F9008953C
S1131A80FC01108280E090E0ACE5B3E481839283B2
S1131A90A383B483158280E090E0A0E8B0E4868359
S1131AA09783A087B187128680E090E8ABE3B6E421
S1131AB083879487A587B68788E28787108A118AE7
S1131AC0128A138A148A80E090E0A8E4B3E4858B38
S1131AD0968BA78BB08F84EB818F80E090E0AAE790
S1131AE0B3E4828F938FA48FB58F168E178E10A2B6
S1131AF011A212A28FEF83A314A215A208950F932B
S1131B001F93FC0115A704A777A366A351A740A7B9
S1131B1033A722A71F910F9108950F931F93CF937B
S1131B20DF93EC0160E078EF8EA19FA10E94B22DBB
S1131B3000E411E020EE31E048E750E068E770E0AF
S1131B408EA19FA10E947A2EDF91CF911F910F91B8
S1131B5008950895CF93DF9366EB72E082ED94E0ED
S1131B600E9402396BEB72E088ED94E00E94023926
S1131B7060EC72E08EED94E00E94023965EC72E054
S1131B8084EE94E00E94023968EC72E08AEE94E0FC
S1131B900E9402396EEC72E08AEB94E00E940239F2
S1131BA064ED72E080EC94E00E9402396AED72E028
S1131BB086EC94E00E94023964ED72E08CEC94E0CF
S1131BC00E9402396FED72E082EA94E00E940239C9
S1131BD064ED72E088EA94E00E94023965EE72E0F6
S1131BE08EEA94E00E9402396AEE72E084EB94E09B
S1131BF00E9402396FEE72E08AE894E00E94023992
S1131C0064EF72E080E994E00E94023969EF72E0C7
S1131C1086E994E00E9402396EEF72E08CE994E068
S1131C200E9402396FED72E082E794E00E9402396B
S1131C3063E073E088E794E00E94023968E073E0AF
S1131C408EE794E00E9402396AED72E084E894E041
S1131C500E9402396FE073E08AE594E00E94023941
S1131C6064E173E080E694E00E94023968E173E085
S1131C7086E694E00E9402396CE173E08CE694E01D
S1131C800E94023960E273E08AE294E00E94023921
S1131C90C0E0D0E0269667E573E0CE01865D9B4FF9
S1131CA00E940239CA32D105A9F7DF91CF91089574
S1131CB0CF93DF93CAE5D4E02697CE010E949B38E8
S1131CC084E0CA32D807C1F78CE694E00E949B38BE
S1131CD086E694E00E949B3880E694E00E949B385C
S1131CE08AE594E00E949B3884E894E00E949B3843
S1131CF08EE794E00E949B3888E794E00E949B382A
S1131D0082E794E00E949B388CE994E00E949B381F
S1131D1086E994E00E949B3880E994E00E949B3815
S1131D208AE894E00E949B3884EB94E00E949B38FC
S1131D308EEA94E00E949B3888EA94E00E949B38E3
S1131D4082EA94E00E949B388CEC94E00E949B38D9
S1131D5086EC94E00E949B3880EC94E00E949B38CF
S1131D608AEB94E00E949B38C0EFD4E02697CE0122
S1131D700E949B3884E0C23DD807C1F7DF91CF9120
S1131D800895CF93DF93EC010E94C916CE01C1964A
S1131D9077DECE01815A9F4F0E94762FCE01815764
S1131DA09F4FF7D7CE0180549F4FDF91CF9168CEDC
S1131DB08F929F92AF92BF92CF92DF92EF92FF9257
S1131DC00F931F93CF93DF93EC015C018DE8A80E72
S1131DD0B11CD5016D937C9381E390E00E945A334A
S1131DE04C01C12CD12C89E2E82EF12C08E210E040
S1131DF027E230E046E250E065E1C401CBD77E0142
S1131E00BFE8EB0EF11C81E3F401D70101900D92C0
S1131E108A95E1F761E0C7010E94191AC054DF4FA7
S1131E20D501ED91FC91EC59FF4F008111812EE811
S1131E3031E042E75DE0B701CE0161DEC7010E94F7
S1131E40162DCE016ADECE01DF91CF911F910F9145
S1131E50FF90EF90DF90CF90BF90AF909F908F90C6
S1131E6078CE80549F4F59CECF93DF9366EB72E0C8
S1131E7088E995E00E9402396BEB72E08EE995E007
S1131E800E94023960EC72E084EA95E00E94023913
S1131E9065EC72E08AEA95E00E94023968EC72E02F
S1131EA080EB95E00E9402396EEC72E080E895E0E8
S1131EB00E94023964ED72E086E895E00E940239DE
S1131EC06AED72E08CE895E00E94023964ED72E0FC
S1131ED082E995E00E9402396FED72E088E695E0B0
S1131EE00E94023964ED72E08EE695E00E940239A8
S1131EF065EE72E084E795E00E9402396AEE72E0D2
S1131F008AE795E00E9402396FEE72E080E595E081
S1131F100E94023964EF72E086E595E00E9402397E
S1131F2069EF72E08CE595E00E9402396EEF72E091
S1131F3082E695E00E9402396FED72E088E395E055
S1131F400E94023963E073E08EE395E00E94023957
S1131F5068E073E084E495E00E9402396AED72E07F
S1131F608AE495E00E9402396FE073E080E295E034
S1131F700E94023964E173E086E295E00E9402392E
S1131F8068E173E08CE295E00E9402396CE173E051
S1131F9082E395E00E94023960E273E080EF94E00E
S1131FA00E940239C0E0D0E0269667E573E0CE01D6
S1131FB080519B4F0E940239CA32D105A9F7DF91A3
S1131FC0CF910895CF93DF93C0E2D5E02697CE0159
S1131FD00E949B3884E0C03FD807C1F782E395E0B4
S1131FE00E949B388CE295E00E949B3886E295E043
S1131FF00E949B3880E295E00E949B388AE495E039
S11320000E949B3884E495E00E949B388EE395E01F
S11320100E949B3888E395E00E949B3882E695E015
S11320200E949B388CE595E00E949B3886E595E0FC
S11320300E949B3880E595E00E949B388AE795E0F2
S11320400E949B3884E795E00E949B388EE695E0D9
S11320500E949B3888E695E00E949B3882E995E0CF
S11320600E949B388CE895E00E949B3886E895E0B6
S11320700E949B3880E895E00E949B38C6EBD5E02F
S11320802697CE010E949B3885E0C839D807C1F74E
S1132090DF91CF91089526E040E052EC61E070E0DA
S11320A084E098E00E9455326CE077E086EA96E09E
S11320B000DA66EA76E086EB95E07ADE86EA96E078
S11320C070CA86EA96E06DDA86EB95E0CACECF93C5
S11320D0DF9366EB72E08AED97E00E9402396BEBC6
S11320E072E080EE97E00E94023960EC72E086EEC6
S11320F097E00E94023965EC72E08CEE97E00E9452
S1132100023968EC72E082EF97E00E9402396EECCB
S113211072E082EC97E00E94023964ED72E088EC90
S113212097E00E9402396AED72E08EEC97E00E941B
S1132130023964ED72E084ED97E00E9402396FED9C
S113214072E08AEA97E00E94023964ED72E080EB63
S113215097E00E94023965EE72E086EB97E00E94F8
S113216002396AEE72E08CEB97E00E9402396FEE5E
S113217072E082E997E00E94023964EF72E088E934
S113218097E00E94023969EF72E08EE997E00E94BD
S113219002396EEF72E084EA97E00E9402396FED33
S11321A072E08AE797E00E94023963E073E080E816
S11321B097E00E94023968E073E086E897E00E94A5
S11321C002396AED72E08CE897E00E9402396FE010
S11321D073E082E697E00E94023964E173E088E6E6
S11321E097E00E94023968E173E08EE697E00E946E
S11321F002396CE173E084E797E00E94023960E2FF
S113220073E082E397E00E940239C0E0D0E02696B2
S113221067E573E0CE018E5C984F0E940239CA32A2
S1132220D105A9F710920C0780E090E0ACE5B3E487
S113223080930D0790930E07A0930F07B093100798
S11322401092110780E090E0A0E8B0E480931207B8
S113225090931307A0931407B093150710921607D1
S113226080E090E8ABE3B6E48093170790931807F7
S1132270A0931907B0931A0788E280931B07109262
S11322801C0710921D0710921E0710921F07109230
S1132290200780E090E0A8E4B3E4809321079093C2
S11322A02207A0932307B093240784EB8093250788
S11322B080E090E0AAE7B3E4809326079093270791
S11322C0A0932807B093290710922A0710922B078E
S11322D010922C0710922D0710922E078FEF8093E7
S11322E02F07109230071092310786EA96E095D8AE
S11322F086EB95E0DF91CF9144CDCF93DF93C2E697
S1132300D7E02697CE010E949B3887E0C233D807D6
S1132310C1F784E797E00E949B388EE697E00E941D
S11323209B3888E697E00E949B3882E697E00E94FB
S11323309B388CE897E00E949B3886E897E00E94DF
S11323409B3880E897E00E949B388AE797E00E94D8
S11323509B3884EA97E00E949B388EE997E00E94BC
S11323609B3888E997E00E949B3882E997E00E94B5
S11323709B388CEB97E00E949B3886EB97E00E9499
S11323809B3880EB97E00E949B388AEA97E00E9492
S11323909B3884ED97E00E949B388EEC97E00E9476
S11323A09B3888EC97E00E949B3882EC97E00E946F
S11323B09B38C8EFD7E02697CE010E949B3887E070
S11323C0CA3DD807C1F7DF91CF910895FC012830A9
S11323D009F4EEC018F4213041F00895203109F4D5
S11323E0F7C0213109F402C1089587858430C1F40E
S11323F0A08DB18D82A19C91613011F4892B02C012
S1132400809589238C93A28DB38D9C9183A1809513
S113241089238C93A28DB38D9C9183A1892B08C0B1
S1132420A089B189868D9C916130C1F380958923FF
S11324308C93A08DB18D82A19C9147FF02C0892B02
S113244002C0809589238C93A28DB38D9C9183A126
S1132450809589238C93A28DB38D9C9183A1892B24
S11324608C93A08DB18D82A19C9146FF02C0892BD3
S113247002C0809589238C93A28DB38D9C9183A1F6
S1132480809589238C93A28DB38D9C9183A1892BF4
S11324908C93A08DB18D82A19C9145FF02C0892BA4
S11324A002C0809589238C93A28DB38D9C9183A1C6
S11324B0809589238C93A28DB38D9C9183A1892BC4
S11324C08C93A08DB18D82A19C9144FF02C0892B75
S11324D002C0809589238C93A28DB38D9C9183A196
S11324E0809589238C93A28DB38D9C9183A1892B94
S11324F08C93A08DB18D82A19C9143FF02C0892B46
S113250002C0809589238C93A28DB38D9C9183A165
S1132510809589238C93A28DB38D9C9183A1892B63
S11325208C93A08DB18D82A19C9142FF02C0892B16
S113253002C0809589238C93A28DB38D9C9183A135
S1132540809589238C93A28DB38D9C9183A1892B33
S11325508C93A08DB18D82A19C9141FF02C0892BE7
S113256002C0809589238C93A28DB38D9C9183A105
S1132570809589238C93A28DB38D9C9183A1892B03
S11325808C93A08DB18D82A19C9140FF02C0892BB8
S113259002C0809589238C93A28DB38D9C9183A1D5
S11325A0809589238C93A28DB38D9C9183A1A2C025
S11325B062B9A289B3899C91878D809589238C9374
S11325C0A289B3899C91878D892B8C9342B902C0CF
S11325D062B948B9A289B3899C91878D8095892372
S11325E08C93A289B3899C91878D84C0A59894B358
S11325F0862F8071880F892B84BB80910201877E8E
S11326008093020190910201862F807C86958695A5
S11326108695892B809302018EB1847C8EB99EB1FC
S1132620262F2C70220F220F862F8370280F862FBF
S11326308072682F70E07595679575956795620F40
S1132640692B6EB9A48DB58D9C9184A18095892345
S11326508C93A48DB58D9C9184A1892B8C93A48D8E
S1132660B58D9C9184A1809589238C93A489B58987
S11326709C9180A1809589238C93A59894B3842FF1
S11326808071880F892B84BB80910201877E80939F
S1132690020190910201842F807C8695869586950F
S11326A0892B809302018EB1847C8EB99EB1242F34
S11326B02C70220F220F842F8370280F842F807296
S11326C0482F50E05595479555954795420F492B0E
S11326D04EB9A289B3899C91878D809589238C9367
S11326E0A289B3899C91878D892B8C93A489B58900
S11326F09C9180A1892B8C930895613131F08FEFE7
S113270081B9603149F487B9089588E18093010162
S113271080E283BB8BE38DB908958F929F92AF9231
S1132720BF92CF92DF92EF92FF920F931F93CF93BA
S1132730DF93EC016801790162B948B9C901B801B4
S113274020E130E040E050E00E94BE3949015A01E6
S113275080E090E0DC0188159905AA05BB050CF022
S1132760D4C0EA89FB8930812F8D209523232083CF
S1132770EA89FB8930812F8D232B2083EA89FB8909
S113278030812F8D209523232083EA89FB89308192
S11327902F8D232B2083EA89FB8930812F8D20956F
S11327A023232083EA89FB8930812F8D232B2083E7
S11327B0EA89FB8930812F8D209523232083EA89A0
S11327C0FB8930812F8D232B2083EA89FB8930817B
S11327D02F8D209523232083EA89FB8930812F8D37
S11327E0232B2083EA89FB8930812F8D2095232395
S11327F02083EA89FB8930812F8D232B2083EA896A
S1132800FB8930812F8D209523232083EA89FB893E
S113281030812F8D232B2083EA89FB8930812F8DF2
S1132820209523232083EA89FB8930812F8D232B54
S11328302083EA89FB8930812F8D209523232083EF
S1132840EA89FB8930812F8D232B2083EA89FB8938
S113285030812F8D209523232083EA89FB893081C1
S11328602F8D232B2083EA89FB8930812F8D20959E
S113287023232083EA89FB8930812F8D232B208316
S1132880EA89FB8930812F8D209523232083EA89CF
S1132890FB8930812F8D232B2083EA89FB893081AA
S11328A02F8D209523232083EA89FB8930812F8D66
S11328B0232B2083EA89FB8930812F8D20952323C4
S11328C02083EA89FB8930812F8D232B2083EA8999
S11328D0FB8930812F8D209523232083EA89FB896E
S11328E030812F8D232B2083EA89FB8940813F8D02
S11328F0309534233083EA89FB8920813F8D322B44
S113290030830196A11DB11D26CFD701C6018F705A
S11329109927AA27BB27892B8A2B8B2B19F1C7014F
S1132920B60120E130E040E050E00E94BE39C12C05
S1132930D12C76016C157D058E059F059CF0EA89E6
S1132940FB8930812F8D209523232083EA89FB89FD
S113295030812F8D232B20832FEFC21AD20AE20A53
S1132960F20AE8CFDF91CF911F910F91FF90EF9082
S1132970DF90CF90BF90AF909F908F9008958F92EB
S11329809F92AF92BF92CF92DF92EF92FF92CF933A
S1132990DF93EC0169017A0162B9CA01B90120E14E
S11329A030E040E050E00E94BE3949015A0180E025
S11329B090E0DC0188159905AA05BB050CF0A4C1BB
S11329C0EA89FB8930812F8D209523232083EA898E
S11329D0FB8930812F8D232B2083EA89FB89308169
S11329E02F8D209523232083EA89FB8930812F8D25
S11329F0232B2083EA89FB8930812F8D2095232383
S1132A002083EA89FB8930812F8D232B2083EA8957
S1132A10FB8930812F8D209523232083EA89FB892C
S1132A2030812F8D232B2083EA89FB8930812F8DE0
S1132A30209523232083EA89FB8930812F8D232B42
S1132A402083EA89FB8930812F8D209523232083DD
S1132A50EA89FB8930812F8D232B2083EA89FB8926
S1132A6030812F8D209523232083EA89FB893081AF
S1132A702F8D232B2083EA89FB8930812F8D20958C
S1132A8023232083EA89FB8930812F8D232B208304
S1132A90EA89FB8930812F8D209523232083EA89BD
S1132AA0FB8930812F8D232B2083EA89FB89308198
S1132AB02F8D209523232083EA89FB8930812F8D54
S1132AC0232B2083EA89FB8930812F8D20952323B2
S1132AD02083EA89FB8930812F8D232B2083EA8987
S1132AE0FB8930812F8D209523232083EA89FB895C
S1132AF030812F8D232B2083EA89FB8930812F8D10
S1132B00209523232083EA89FB8930812F8D232B71
S1132B102083EA89FB8930812F8D2095232320830C
S1132B20EA89FB8930812F8D232B2083EA89FB8955
S1132B3030812F8D209523232083EA89FB893081DE
S1132B402F8D232B2083EA89FB8930812F8D2095BB
S1132B5023232083EA89FB8930812F8D232B208333
S1132B60EA89FB8930812F8D209523232083EA89EC
S1132B70FB8930812F8D232B2083EA89FB893081C7
S1132B802F8D209523232083EA89FB8930812F8D83
S1132B90232B2083EA89FB8930812F8D20952323E1
S1132BA02083EA89FB8930812F8D232B2083EA89B6
S1132BB0FB8930812F8D209523232083EA89FB898B
S1132BC030812F8D232B2083EA89FB8930812F8D3F
S1132BD0209523232083EA89FB8930812F8D232BA1
S1132BE02083EA89FB8930812F8D2095232320833C
S1132BF0EA89FB8930812F8D232B2083EA89FB8985
S1132C0030812F8D209523232083EA89FB8930810D
S1132C102F8D232B2083EA89FB8930812F8D2095EA
S1132C2023232083EA89FB8930812F8D232B208362
S1132C30EA89FB8930812F8D209523232083EA891B
S1132C40FB8930812F8D232B2083EA89FB893081F6
S1132C502F8D209523232083EA89FB8930812F8DB2
S1132C60232B2083EA89FB8930812F8D2095232310
S1132C702083EA89FB8930812F8D232B2083EA89E5
S1132C80FB8930812F8D209523232083EA89FB89BA
S1132C9030812F8D232B2083EA89FB8930812F8D6E
S1132CA0209523232083EA89FB8930812F8D232BD0
S1132CB02083EA89FB8930812F8D2095232320836B
S1132CC0EA89FB8930812F8D232B2083EA89FB89B4
S1132CD030812F8D209523232083EA89FB8930813D
S1132CE02F8D232B2083EA89FB8940813F8D3095EA
S1132CF034233083EA89FB8920813F8D322B308352
S1132D000196A11DB11D56CED701C6018F7099271A
S1132D10AA27BB27892B8A2B8B2B81F1C701B601EC
S1132D2020E130E040E050E00E94BE39C12CD12CBB
S1132D3076016C157D058E059F0504F1EA89FB89F2
S1132D4030812F8D209523232083EA89FB893081CC
S1132D502F8D232B2083EA89FB8930812F8D2095A9
S1132D6023232083EA89FB8930812F8D232B208321
S1132D702FEFC21AD20AE20AF20ADBCFDF91CF9117
S1132D80FF90EF90DF90CF90BF90AF909F908F9087
S1132D90089508954F925F926F927F928F929F92BF
S1132DA0AF92BF92CF92DF92EF92FF920F931F9355
S1132DB0CF93DF93CDB7DEB7C05AD1090FB6F894DD
S1132DC0DEBF0FBECDBF70E4E6E1F2E0DE01AF5B33
S1132DD0BF4F01900D927A95E1F770E4E6E5F2E0D9
S1132DE0DE01119601900D927A95E1F770E2E6E921
S1132DF0F2E0DE01AF57BF4F01900D927A95E1F7F3
S1132E00E62FF0E05F01AA0CBB1CA1E4B0E0AC0F1C
S1132E10BD1FAA0DBB1D0D90BC91A02D2D01612CD1
S1132E20712CDC0115964D925D926D927C921897EF
S1132E30A1E0B0E0AC0FBD1FAA0DBB1D0D90BC916D
S1132E40A02D4D01A12CB12CDC0119968D929D92DF
S1132E50AD92BC921C97A1E8B0E0AC0FBD1FEA0F85
S1132E60FB1F7081FC017687658745A326A307A312
S1132E70E0A6C1A6743019F461E066877787DC01A7
S1132E801E966C911E97653031F471E01E967C930A
S1132E901E971F966C93FC016685613009F498C0F7
S1132EA049013A015C0129DCF301EA58FD4EE49141
S1132EB0F0E0EE0FFF1FEA52FD4E25913491D5014B
S1132EC051963C932E935097F301E05DFD4EE491AF
S1132ED05E96EC935E97F401EA58FD4EE491F0E0BF
S1132EE0EE0FFF1FEA52FD4E25913491F501338B0D
S1132EF0228BF401E05DFD4EE4915F96EC935F97C5
S1132F00C801F801EA58FD4EE491F0E0EE0FFF1F0E
S1132F10EA52FD4E25913491F501358B248BFC0149
S1132F20E05DFD4EE4919096EC939097F701EA589A
S1132F30FD4EE491F0E0EE0FFF1FEA52FD4E859145
S1132F409491F501978B868BF701E05DFD4EE4903B
S1132F509196EC9291971E968C91813109F0ADC0B7
S1132F60F601EA58FD4EE491F0E0EE0FFF1FEA523D
S1132F70FD4EA591B491F501B58FA48FF601E05DE6
S1132F80FD4E9491F50194A38C91E92FE095E823EB
S1132F90EC9361E088E00E94093860E088E0C05664
S1132FA0DF4F0FB6F894DEBF0FBECDBFDF91CF91D8
S1132FB01F910F91FF90EF90DF90CF90BF90AF9053
S1132FC09F908F907F906F905F904F900C944538B6
S1132FD0BA01FA01EA58FD4EE491F0E0EE0FFF1F4A
S1132FE0EA52FD4E45915491DC0159965C934E93FF
S1132FF05897FB01E05DFD4EE4919296EC93929715
S1133000A901F901EA58FD4EE491F0E0EE0FFF1F2B
S1133010EA52FD4E25913491FC01338F228FFA013F
S1133020E05DFD4EE4919396EC939397F801EA5892
S1133030FD4EE491F0E0EE0FFF1FEA52FD4E459184
S11330405491FC01558B448BF801E05DFD4EE491F5
S11330509096EC93BFEFEB16F104A9F0F701EA5850
S1133060FD4EE491F0E0EE0FFF1FEA52FD4E259174
S11330703491FC01378B268BF701E05DFD4EE49023
S1133080DC019196EC92FC0127852430B1F0F60125
S1133090EA58FD4EE491F0E0EE0FFF1FEA52FD4EB8
S11330A045915491DC0151965C934E935097F601EF
S11330B0E05DFD4EE4915E96EC93C056DF4F0FB693
S11330C0F894DEBF0FBECDBFDF91CF911F910F915A
S11330D0FF90EF90DF90CF90BF90AF909F908F9034
S11330E07F906F905F904F900895462FDC011E965D
S11330F02C911E97213071F05096ED91FC915197CF
S113310030815E962C915E972095232320831E9612
S11331102C9101C021E060E059C91F93CF93DF9344
S1133120DC011E962C911E97213069F05096ED918A
S1133130FC91519730815E962C915E97232B2083CE
S11331401E962C910AC0142F462FEC0121E061E059
S11331503DD92E85412F61E0CE01DF91CF911F91A2
S113316035C9462FDC011E962C911E97213071F033
S11331705096ED91FC91519730815E962C915E971B
S1133180232B20831E962C9160E002C021E061E095
S11331901DC90F931F93CF93DF93EC018A01A5DF21
S11331A0402F612FCE01DF91CF911F910F91B5CFA9
S11331B0AF92BF92CF92DF92EF92FF920F931F9341
S11331C0CF93DF93EC016B01B42EA52E79018C8192
S11331D0813069F489859A859C01261B370B8E19E9
S11331E09F0978018901C42ED52EB82EA92EED850C
S11331F08E2F90E0FC013297EE31F10508F00EC1FC
S11332008827EE58FF4F8F4F0C94DA394D2D50E03C
S113321062E0CE01BEDFA60163E0CE01BADF4F2D2E
S113322050E064E0CE01B5DFA70165E0CE01B1DF77
S11332304A2D50E066E0CE01ACDF4B2D5A2D67E0FD
S1133240CE01A7DF412F50E052C05E2D44274C0D24
S11332505D1D64E4CE019DDF4B2D5A2D65E4CE0146
S113326098DFA80166E4CE0194DFA6016EE4CE01E6
S113327090DF4B2D5A2D6FE4CE018BDF62E2C2C08A
S1133280A60160E2CE0185DF4B2D5A2D61E2CE010D
S113329080DFA60160E5CE017CDF4B2D5A2D62E56F
S11332A0CE0177DFA70161E5CE0173DFA80163E5F5
S11332B0E3CF40E050E062E0CE016BDFA60163E0C3
S11332C0CE0167DF40E050E064E0CE0162DFA70199
S11332D065E0CE015EDF40E050E066E0CE0159DFFC
S11332E04B2D5A2D67E0CE0154DF40E050E068E0FA
S11332F0CE014FDFA80169E0BFCF6AE2CE01F5DE5F
S11333006C2DCE012EDF6E2DCE012BDF6BE2CE01B4
S1133310ECDE6B2D71C06AE2CE01E7DE6A2DCE01D0
S113332020DF6B2DCE011DDF612FCE011ADF602F50
S1133330CE0117DF6BE2CE01D8DE6D2DCE0111DF99
S11333406C2DCE010EDF6F2DCE010BDF6E2D57C01D
S11333505E2D44274C295D2966E4CE011ADFA801BD
S113336067E4CE0116DF4B2D5A2D68E40FC0A70188
S113337066E3CE010EDFA60167E3CE010ADFA801F2
S113338068E3CE0106DF4B2D5A2D69E3CE0101DF40
S1133390A60160E2CE01FDDE4B2D5A2D61E26CCF19
S11333A04B2D5A2D62E0CE01F4DEA60163E0CE017E
S11333B0F0DEA80166E0CE01ECDEA70167E0CE01F5
S11333C0E8DE6FE01FC06AE2CE018FDE6D2DCE0114
S11333D0C8DE6C2DCE01C5DE6F2DCE01C2DE6E2D92
S11333E0CE01BFDE6BE2CE0180DE6A2DCE01B9DEF6
S11333F06B2DCE01B6DE612FCE01B3DE602FCE0180
S1133400B0DE6CE2CE01DF91CF911F910F91FF905E
S1133410EF90DF90CF90BF90AF9067CEDF91CF91C8
S11334201F910F91FF90EF90DF90CF90BF90AF90DE
S113343008950F931F93CF93DF93EC016C8361E0A6
S11334408DA10E94093861E08EA10E94093861E0D3
S11334508FA10E94093888A58F3F19F061E00E946E
S113346009388E85813129F0813039F48F85853092
S113347021F461E089A50E9409386E85613011F05C
S1133480CE013BD9EE89FF89908189A1892B808364
S113349065E070E080E090E00E940E37EE89FF89DD
S11334A0908189A18095892380836FE070E080E01A
S11334B090E00E940E37EE89FF89908189A1892BC3
S11334C080836FE070E080E090E00E940E37EC892A
S11334D0FD89908188A1809589238083ED858E2F35
S11334E090E0FC013297EE31F10510F00C94EC2CD5
S11334F08827E057FF4F8F4F0C94DA3941E050E0B2
S113350060E0CE0146DE44EA58EA63E0CE0141DEE3
S113351040E050E06CE0CE013CDE4CE058E06DE071
S1133520CE0137DE40E05BE26EE0CE0132DE47EBF7
S113353050E06EE1CE012DDE4FE35BE261E0CE01AF
S113354028DE40E056E062E0CE0123DE40E050E0B9
S113355060E1CE011EDE40E750E661E1CE0119DEF6
S113356040E050E065E0CE0114DE40E050E066E06B
S1133570CE010FDE4CE15FEE66E1CE010ADE43E0F0
S113358050E067E1CE0105DE43E352E067E0CE019F
S113359000DE40E050E06BE0CE01FBDD40E050E0B7
S11335A06FE0CE01F6DD40E050E061E4CE01F1DDF4
S11335B040E050E062E4CE01ECDD40E050E068E43D
S11335C0CE01E7DD4FE351E069E4CE01E2DD40E006
S11335D050E06AE4CE01DDDD40E050E06BE4CE0172
S11335E0D8DD40E05FEE64E4CE01D3DD40E050E09E
S11335F065E4CE01CEDD4FE351E066E4CE01C9DDE2
S113360047E057E060E3CE01C4DD44E052E061E30B
S1133610CE01BFDD44E052E062E3CE01BADD42E018
S113362055E063E3CE01B5DD47E055E064E3CE0148
S1133630B0DD44E052E065E3CE01ABDD44E052E0AE
S113364066E3CE01A6DD42E055E067E3CE01A1DDED
S113365042E053E06AE3CE019CDD42E053E06BE3D9
S1133660CE0197DD40E050E063E2CE0192DD40E020
S113367050E064E2CE018DDD40E050E865E2CE0129
S113368088DD40E050E06FE4CE0183DD40E050E0AF
S11336906EE40C94842640EF58E765EECE0179DDA4
S11336A040E051E061E0CE0174DD40E052E062E0D0
S11336B0CE016FDD40E350E163E0CE016ADD40E01E
S11336C050E064E0CE0165DD47E052E068E0CE0101
S11336D060DD40E050E069E0CE015BDD40E050E0B9
S11336E06AE0CE0156DD40E050E06CE0CE0151DDF1
S11336F040E050E06DE0CE014CDD40E050E06FE092
S1133700CE0147DD40E050E060E1CE0142DD47E01C
S113371050E061E1CE013DDD40E050E062E1CE01E8
S113372038DD40E050E063E1CE0133DD41E050E0BC
S113373067E0CE012EDD68EC70E080E090E00E944E
S11337400E3740E956E160E1CE0123DD47E252E065
S113375061E1CE011EDD62E370E080E090E00E9452
S11337600E374DE050E062E1CE0113DD62E370E01C
S113377080E090E00E940E3740E052E163E1CE0128
S113378008DD4AE050E069E2CE0103DD4DE050E09F
S11337907DC040EF58E765EECE01FBDC40E051E030
S11337A061E0CE01F6DC40E057E062E0CE01F1DCFE
S11337B040E350E163E0CE01ECDC40E050E064E043
S11337C0CE01E7DC47E052E068E0CE01E2DC40E015
S11337D050E069E0CE01DDDC40E050E06AE0CE017B
S11337E0D8DC40E050E06CE0CE01D3DC40E050E0B7
S11337F06DE0CE01CEDC40E050E06FE0CE01C9DCEC
S113380040E050E060E1CE01C4DC47E050E061E11B
S1133810CE01BFDC40E050E062E1CE01BADC40E022
S113382050E063E1CE01B5DC41E050E067E0CE0159
S1133830B0DC68EC70E080E090E00E940E3740E974
S113384055E160E1CE01A5DC47E252E061E1CE0141
S1133850A0DC62E370E080E090E00E940E374CE967
S113386050E062E1CE0195DC62E370E080E090E03C
S11338700E940E3740E059E163E1CE018ADC43E265
S113388050E069E2CE0185DC4EE050E06BE2CE010F
S113389080DC62E370E080E090E00E940E3740E05C
S11338A050E060E2CE0175DC40E050E061E2CE0120
S11338B070DC40E050E060E3CE016BDC44E054E0B7
S11338C061E3CE0166DC43E050E062E3CE0161DCFB
S11338D045E054E065E3CE015CDC48E058E066E393
S11338E0CE0157DC47E054E067E3CE0152DC43E00D
S11338F053E068E3CE014DDC47E057E069E3CE01D5
S113390048DC44E055E06CE3CE0143DC48E058E099
S11339106DE3CE013EDC40E050E060E5CE0139DCF1
S11339204FEE50E061E5CE0134DC40E050E062E56A
S1133930CE012FDC4FE351E063E5CE012ADC40E009
S113394057EA60E6CE0125DC41E050E061E6CE01B5
S113395020DC40E050E06AE6CE011BDC40E050E0B1
S113396060E8CE0116DC40E050E061E8CE0111DCF5
S113397040E050E062E8CE010CDC40E050E063E857
S1133980CE0107DC40E050E064E8CE0102DC40E018
S113399050E065E8CE01FDDB40E150E060E9CE0196
S11339A0F8DB40E050E062E9CE01F3DB43E351E0B1
S11339B067E0CE01EEDB0C94EC2C44E850E066E2C8
S11339C0CE01E7DB68E270E080E090E00E940E3711
S11339D048EB50E066E2CE01DCDB68E270E080E0B8
S11339E090E00E940E374CEB50E066E2CE01D1DB52
S11339F064E170E080E090E00E940E3740E050E027
S1133A0060E6CE01C6DB46E050E061E6CE01C1DBF4
S1133A1040E050E062E6CE01BCDB48EC50E063E6F7
S1133A20CE01B7DB64E170E080E090E00E940E37E5
S1133A3040E750E063E7CE01ACDB40E050E060E4F7
S1133A40CE01A7DB40E450E061E4CE01A2DB45E413
S1133A5050E062E4CE019DDB41E050E063E4CE013E
S1133A6098DB40E650E064E4CE0193DB45E050E0AF
S1133A7065E4CE018EDB4CE050E066E4CE0189DBE8
S1133A8041ED50E067E4CE0184DB45E050E068E4BA
S1133A90CE017FDB45E750E060E5CE017ADB41E013
S1133AA050E061E5CE0175DB47E650E062E5CE010A
S1133AB070DB44E150E063E5CE016BDB42EF50E0A4
S1133AC064E5CE0166DB47E050E065E5CE0161DBED
S1133AD043E050E066E5CE015CDB49E450E067E595
S1133AE0CE0157DB64E170E080E090E00E940E3785
S1133AF043E050E06FE1CE014CDB40E050E060E297
S1133B00CE0147DB44E250E064E2CE0142DB44E311
S1133B1050E065E2CE013DDB4FE250E063E2CE01CE
S1133B2038DB64E170E080E090E00E940E3744E40A
S1133B3050E068E1CE012DDB41E050E061E2CE01CE
S1133B4028DB40E050E061E0CE0123DB43E050E0BD
S1133B506CE1CE011EDB46E050E069E1CE0119DBE9
S1133B6064E170E080E090E00E940E3744E850E0A9
S1133B7066E2CE010EDB68E270E080E090E00E9435
S1133B800E3748EB50E066E2CE0103DB68E270E0FA
S1133B9080E090E00E940E374CEB50E066E2CE01EC
S1133BA0F8DA64E170E080E090E00E940E3740E0D3
S1133BB050E062E0CE01EDDA40E050E063E0CE0197
S1133BC0E8DA40E050E064E0CE01E3DA4FEA50E0A6
S1133BD065E0CE01DEDA40E050E066E0CE01D9DAFD
S1133BE040E050E067E0CE01D4DA40E050E068E025
S1133BF0CE01CFDA4BED50E069E0CE01CADA64E1E0
S1133C0070E080E090E00E940E3748E050E066E10A
S1133C10CE01BFDA45E050E067E1CE01BADA61E2F5
S1133C20CE0163DA62E2CE0160DA0C94EC2C61E13D
S1133C30CE015BDA6CE070E080E090E00E940E3729
S1133C4061EBCE0152DA61E0CE018BDA6CE2CE0197
S1133C5088DA6DE2CE0185DA62EBCE0146DA61E004
S1133C60CE017FDA6CE2CE017CDA6DE2CE0179DA44
S1133C7063EBCE013ADA61E0CE0173DA6CE2CE0195
S1133C8070DA6DE2CE016DDA61E0CE016ADA6CE2DF
S1133C90CE0167DA6DE2CE0164DA64EBCE0125DA97
S1133CA067E0CE015EDA60ECCE011FDA62EACE0193
S1133CB058DA62E0CE0155DA64E8CE0152DA61ECFA
S1133CC0CE0113DA65ECCE014CDA62ECCE010DDAEA
S1133CD06AE0CE0146DA60E0CE0143DA63ECCE015D
S1133CE004DA6AE8CE013DDA6AE2CE013ADA64EC3B
S1133CF0CE01FBD96AE8CE0134DA6EEECE0131DAB8
S1133D0065ECCE01F2D96EE0CE012BDA66E3CE018A
S1133D10ECD968EC73C061E1CE01E7D96CE070E0E6
S1133D2080E090E00E940E3761EBCE01DED961E0C5
S1133D30CE0117DA6CE2CE0114DA6DE2CE0111DAAB
S1133D4062EBCE01D2D961E0CE010BDA6CE2CE0196
S1133D5008DA6DE2CE0105DA63EBCE01C6D961E083
S1133D60CE01FFD96CE2CE01FCD96DE2CE01F9D9C6
S1133D7061E0CE01F6D96CE2CE01F3D96DE2CE0159
S1133D80F0D964EBCE01B1D967E0CE01EAD960EC99
S1133D90CE01ABD962EACE01E4D962E0CE01E1D929
S1133DA064E8CE01DED961ECCE019FD965ECCE0189
S1133DB0D8D962ECCE0199D96AE0CE01D2D960E0BB
S1133DC0CE01CFD963ECCE0190D96AE8CE01C9D92E
S1133DD06AE2CE01C6D964ECCE0187D96AE8CE0185
S1133DE0C0D96EEECE01BDD965ECCE017ED96EE0B0
S1133DF0CE01B7D966E3CE0178D960ECCE01B1D952
S1133E0060EECE0172D96FE0CE01ABD96AE1CE018A
S1133E10A8D96FE0CE01A5D968E1CE01A2D96FE29D
S1133E20CE019FD968E2CE019CD960E2CE0199D936
S1133E3062E2CE0196D96FE1CE0193D96BE1CE0156
S1133E4090D963E2CE018DD967E3CE018AD960E0CF
S1133E50CE0187D967E0CE0184D962E0CE0181D951
S1133E6060E1CE017ED961EECE013FD96FE0CE0193
S1133E7078D96BE1CE0175D96FE0CE0172D967E1D3
S1133E80CE016FD963E3CE016CD96CE2CE0169D95E
S1133E9069E2CE0166D96EE2CE0163D960E3CE0158
S1133EA060D960E3CE015DD969E3CE015AD96FE3ED
S1133EB0CE0157D960E0CE0154D967E0CE0151D983
S1133EC063E0CE014ED960E1CE014BD96AE2CE0166
S1133ED00CD960E0CE0145D960E0CE0142D960E062
S1133EE0CE013FD96FE7CE013CD96BE2CE01FDD8BC
S1133EF060E0CE0136D960E0CE0133D960E0CE0176
S1133F0030D96FE9CE012DD960EFCE01EED861E052
S1133F10CE0127D966EFCE01E8D860E00C94A8273B
S1133F2061E0CE01E2D865E2CE01DFD860E4CE01E3
S1133F3018D961E1CE01D9D86AE070E080E090E060
S1133F400E940E3760E2CE01D0D868E3CE01CDD80E
S1133F5069E2CE01CAD863E1CE01C7D866E3CE01D7
S1133F60C4D860E6CE01FDD86AE3CE01BED865E0D0
S1133F70CE01F7D86AE2CE01B8D860E0CE01F1D81C
S1133F806FE7CE01EED864EBCE01AFD863E0CE018B
S1133F90E8D868E0CE01E5D86BE0CE01E2D86EE067
S1133FA0CE01DFD86AEBCE01A0D867E0CE01D9D824
S1133FB06DE0CE01D6D86BE2CE0197D860E0CE0199
S1133FC0D0D86FE75EC263E8CE018FD862E0CE013D
S1133FD0C8D865E8CE0189D863E0CE01C2D86BE8C1
S1133FE0CE0183D861E0CE01BCD86CE8CE017DD887
S1133FF063E9CE01B6D861E9CE0177D861E0CE019C
S1134000B0D863E8CE0171D860E0CE01AAD86EE3DF
S1134010CE016BD860EBCE01A4D86FE3CE0165D896
S113402063E0CE019ED860E4CE015FD860E1CE01AA
S113403098D861E4CE0159D866E5CE0192D862E4FD
S1134040CE0153D863E1CE018CD863E4CE014DD8C0
S113405066E4CE0186D864E4CE0147D863E2CE019B
S113406080D865E4CE0141D866E7CE017AD866E40B
S1134070CE013BD860E0CE0174D867E4CE0135D8D8
S11340806EE5CE016ED868E4CE012FD86FE4CE0180
S113409068D869E4CE0129D860E4CE0162D867E12A
S11340A0CE0123D861E9CE015CD86BE2CE011DD8E4
S11340B069EFCE0156D86AE070E080E090E00E949B
S11340C00E376BE1CE0111D864E1CE014AD86AE122
S11340D0CE010BD861E1CE0144D86CE1CE0105D804
S11340E066E0CE013ED86FE1CE010E94751862E40D
S11340F0CE0137D864E170E080E090E00E940E3792
S113410069E1CE010E9475186AE0CE012AD869E1FE
S1134110CE010E9475186AE1CE0123D868E270E0EE
S113412080E090E00E940E3769E1CE010E9475188C
S113413062E1CE0116D868E270E080E090E00E946F
S11341400E376EE1CE010E94751867E2CE0109D8E0
S113415064E670E080E090E00E940E3764E2CE01F5
S11341600E94751860E6CE010E94B1186DE3CE017D
S11341700E94751860E4CE010E94B11864E3CE0178
S11341800E94751868E3CE010E94B11865E3CE0160
S11341900E94751868E3CE010E94B11864E2CE0152
S11341A00E94751868E3CE010E94B11868E270E0BD
S11341B080E090E00E940E3764E2CE010E94751800
S11341C06CE3CE010E94B11866E1CE010E9475181D
S11341D06CE1CE010E94B11861E0CE010E94751815
S11341E066E0CE010E94B11865E5CE010E94751803
S11341F060E0CE010E94B11862E0CE010E94751801
S113420060E0CE010E94B11863E0CE010E947518EF
S113421060E0CE010E94B11864E0CE010E947518DE
S113422060E0CE010E94B11865E0CE010E947518CD
S11342306FEECE010E94B11866E0CE010E9475189F
S113424060E0CE010E94B11867E0CE010E947518AB
S113425060E0CE010E94B11868E0CE010E9475189A
S113426061E0CE010E94B11869E0CE010E94751888
S11342706FE8CE010E94B118D5CC62EECE010E9447
S1134280751863E2CE010E94B11862E0CE010E946B
S1134290B11864E5CE010E94B11860EECE010E940F
S11342A0751861E0CE010E94B1186AE070E080E008
S11342B090E00E940E3760EECE010E94751863E014
S11342C0CE010E94B1186AE070E080E090E00E94A4
S11342D00E3761E0CE010E94751864E670E080E05C
S11342E090E00E940E3766EECE010E94751861E0E0
S11342F0CE010E94B1186FE1CE010E94B1186FEF98
S1134300CE010E94B11860EBCE010E94751860E2E4
S1134310CE010E94B11860E0CE010E94B11861E0A4
S1134320CE010E94B1186FEDCE010E94B11861E078
S1134330CE010E94B1186FE0CE010E94B11860E076
S1134340CE010E94B11864EBCE010E94751862E0A0
S1134350CE010E94B11863E1CE010E94B11860E061
S1134360CE010E94B11868E0CE010E94B1186BE240
S1134370CE010E94B11860E0CE010E94B11862E043
S1134380CE010E94B11860E0CE010E94B11866EB24
S1134390CE010E94751861E0CE010E94B11860E25E
S11343A0CE010E94B11860E0CE010E94B11864E011
S11343B0CE010E94B1186CE0CE010E94B11860E0F9
S11343C0CE010E94B11862E0CE010E94B1186AEBDE
S11343D0CE010E9475186FE0CE010E94B11868EBFF
S11343E0CE010E94751867E0CE010E94B11861E009
S11343F0CE010E94B11866E3CE010E94751862E2F4
S1134400CE010E94B11860EFCE010E94751863E0DE
S1134410CE010E94B11861E070E080E090E00E945B
S11344200E370FE011E02FED31E040E050E060E0A6
S113443070E0CE010E94D81869E2CE010E9475187E
S11344406EEBCE010E94751866E0CE010E94B11891
S113445060EFCE010E94B11861E0CE010E94B11854
S113446060EFCE010E94B11860E0CE010E94B11845
S113447060E0CE010E94B11860EDCE010E94751873
S11344806DE0CE010E94B1180C94EB2B62EECE01CC
S11344900E9475186EE1CE010E94B11862E0CE014F
S11344A00E94B11864E5CE010E94B11860EECE01FD
S11344B00E94751861E0CE010E94B1186AE070E0B4
S11344C080E090E00E940E3760EECE010E947518E5
S11344D063E0CE010E94B1186AE070E080E090E0F1
S11344E00E940E3761E0CE010E94751864E670E008
S11344F080E090E00E940E3766EECE010E947518AF
S113450063E0CE010E94B1186FEFCE010E94B11892
S11345106FEFCE010E94B11860EBCE010E947518B6
S113452064E2CE010E94B11860E0CE010E94B1188D
S113453063E0CE010E94B1186FE1CE010E94B11870
S113454061E0CE010E94B1186FEDCE010E94B11856
S113455060E0CE010E94B11864EBCE010E94751890
S113456063E0CE010E94B11860EACE010E94B11846
S113457060E0CE010E94B1186EE2CE010E94B11833
S113458060E3CE010E94B11860E0CE010E94B11830
S11345906FE0CE010E94B11860E0CE010E94B11814
S11345A066EBCE010E94751862E0CE010E94B1183C
S11345B06DE0CE010E94B11860E0CE010E94B118F6
S11345C060E1CE010E94B11860E1CE010E94B118F1
S11345D060E0CE010E94B11868E0CE010E94B118DB
S11345E06AEBCE010E9475186FE0CE010E94B118EB
S11345F068EBCE010E94751867E0CE010E94B118E5
S113460061E0CE010E94B11866E3CE010E947518E4
S113461062E2CE010E94B11860EFCE010E947518CB
S113462063E0CE010E94B11861E070E080E090E0A8
S1134630D2C062EECE010E94751863E2CE010E94E0
S1134640B11862E0CE010E94B11864E0CE010E946C
S1134650B11860EECE010E94751861E0CE010E948F
S1134660B1186AE070E080E090E00E940E3760EEDE
S1134670CE010E94751863E0CE010E94B1186AE071
S113468070E080E090E00E940E3761E0CE010E946D
S1134690751864E670E080E090E00E940E3766EEE4
S11346A0CE010E94751864E0CE010E94B11863E93E
S11346B0CE010E94B11860EECE010E94B11860EBE9
S11346C0CE010E94751860E0CE010E94B11860E02E
S11346D0CE010E94B11863E0CE010E94B1186FE1CF
S11346E0CE010E94B11861E0CE010E94B1186FEDB5
S11346F0CE010E94B11860E0CE010E94B11864EBB3
S1134700CE010E94751863E0CE010E94B11860EAE0
S1134710CE010E94B11860E0CE010E94B1186EE291
S1134720CE010E94B11860E3CE010E94B11860E08E
S1134730CE010E94B1186FE0CE010E94B11860E072
S1134740CE010E94B11866EBCE010E94751862E09A
S1134750CE010E94B1186DE0CE010E94B11860E054
S1134760CE010E94B11860E1CE010E94B11860E14F
S1134770CE010E94B11860E0CE010E94B11868E039
S1134780CE010E94B1186AEBCE010E94751865E053
S1134790CE010E94B11868EBCE010E94751867E043
S11347A0CE010E94B11861E0CE010E94B11866E307
S11347B0CE010E94751862E2CE010E94B11860EF2A
S11347C0CE010E94751863E0CE010E94B1186AE020
S11347D070E080E090E00E940E370FED11E02FE1D1
S11347E033E023CE44E050E261E1CE010E94C918D7
S11347F040E05CEC63E1CE010E94C91840E056E25F
S113480065E1CE010E94C9184AE255E264E1CE0195
S11348100E94C91843E350E062E1CE010E94C91826
S113482044E05CEC63E1CE010E94C91846E05CEC14
S113483063E1CE010E94C9184FE45CEC63E1CE0150
S11348400E94C9184FE457E663E1CE010E94C918DB
S113485043E050E261E1CE010E94C91849E056E20A
S113486060E3CE010E94C9184CE254E261E3CE0138
S11348700E94C91843E25FE162E3CE010E94C918B5
S113488045E254E263E3CE010E94C91846E252E2D3
S113489064E3CE010E94C91843E255E265E3CE0108
S11348A00E94C9184AE15CE166E3CE010E94C9187E
S11348B04DE153E167E3CE010E94C91841E15BE099
S11348C068E3CE010E94C91840E152E169E3CE01D8
S11348D00E94C91845E153E16AE3CE010E94C91858
S11348E049E156E36BE3CE010E94C91840E05DE064
S11348F06CE3CE010E94C9184DE050E06DE3CE0197
S11349000E94C91847E050E066E1CE010E94C91830
S113491043E150E062E0CE010E94C91843E050E058
S113492063E0CE010E94C91847E251E061E0CE0184
S11349300E94C91843E053E068E0CE010E94C91800
S11349404BE050E06AE0CE010E94C91843E050E019
S11349506BE0CE010E94C91840E050E06CE0CE014B
S11349600E94C91840E050E061E4CE010E94C918D9
S113497040E050E060E5CE010E94C91845E050E0F7
S113498060E6CE010E94C9184BE050E060E7CE011A
S11349900E94C91840E050E061E7CE010E94C918A6
S11349A040E050E068E7CE010E94C91840E050E0C2
S11349B06AE7CE010E94C91847E050E069E7CE01DA
S11349C00E94C91841E550E067E0CE010E94C91871
S11349D043E550E067E0CE010E94C91840E050E092
S11349E069E792C161E1CE010E94751864E170E04B
S11349F080E090E00E940E3760EDCE010E947518B1
S1134A0067E0CE010E94B11862E4CE010E94B118A1
S1134A1068E1CE010E94B11861EDCE010E947518C3
S1134A2060E0CE010E94B11867E0CE010E94B11887
S1134A3060E1CE010E94B11862EDCE010E947518AA
S1134A4061E0CE010E94B11862E0CE010E94B1186B
S1134A5060ECCE010E94751860E1CE010E94B1188D
S1134A606BE3CE010E94B11860E0CE010E94B11840
S1134A7062E0CE010E94B11861E1CE010E94B1183A
S1134A8065ECCE010E94751863E0CE010E94B11856
S1134A9068ECCE010E94751860E0CE010E94B11846
S1134AA062E3CE010E94B11866E3CE010E94B11800
S1134AB065E4CE010E94B11866E0CE010E94B118EF
S1134AC066E1CE010E94B11867E3CE010E94B118DD
S1134AD065E7CE010E94B11867E7CE010E94B118C4
S1134AE064E5CE010E94B1186CE0CE010E94B118B9
S1134AF060E0CE010E94B11866E3CE010E947518F1
S1134B006AE0CE010E94B1186AE3CE010E947518D2
S1134B1065E5CE010E94B1186AE2CE010E947518C3
S1134B2060E0CE010E94B11860E0CE010E94B1188D
S1134B3061E0CE010E94B1186FE3CE010E94B1186A
S1134B406BE2CE010E94751860E0CE010E94B1189C
S1134B5060E0CE010E94B11861E0CE010E94B1185C
S1134B6060EECE010E94B11868E770E080E090E04A
S1134B700E940E37F8C14AE150E061E1CE010E9483
S1134B80C91841E251E362E1CE010E94C9184CE622
S1134B9050E063E1CE010E94C91849E452E464E1A3
S1134BA0CE010E94C91840E058E060E1CE010E94A5
S1134BB0C9186AE070E080E090E00E940E374AE194
S1134BC051E061E1CE010E94C9186AE070E080E022
S1134BD090E00E940E374AE153E061E1CE010E9469
S1134BE0C9186AE070E080E090E00E940E374AE164
S1134BF057E061E1CE010E94C9186AE070E080E0EC
S1134C0090E00E940E374AE15FE061E1CE010E942C
S1134C10C9186AE070E080E090E00E940E374AE331
S1134C205FE061E1CE010E94C9186EE170E080E0AE
S1134C3090E00E940E374CE151E061E0CE010E9409
S1134C40C91840E051E062E0CE010E94C91840E377
S1134C5050E163E0CE010E94C91840E050E067E0F3
S1134C60CE010E94C91848E058E068E0CE010E94D5
S1134C70C91840E051E16BE0CE010E94C91840E040
S1134C8050E06CE0CE010E94C91841E054E16FE0AD
S1134C90CE010E94C91840E050E065E1CE010E94B7
S1134CA0C91840E050E060E2CE010E94C91840E01B
S1134CB050E061E2CE010E94C9184FEA50E066E379
S1134CC0CE010E94C91840E050E067E3CE010E9483
S1134CD0C9184BED50E068E3CE010E94C91840E0CA
S1134CE050E069E3CE010E94C91841E05BE06FE047
S1134CF0CE010E94C91846E150E067E0CE010E944F
S1134D00C91847E150E067E0CE010E94C9180C942D
S1134D10121E61E1CE010E94751868E770E080E020
S1134D2090E00E940E3761EBCE010E94751865E099
S1134D30CE010E94B1186CE3CE010E94B1186CE35D
S1134D40CE010E94B11862EBCE010E94751865E095
S1134D50CE010E94B1186CE3CE010E94B1186CE33D
S1134D60CE010E94B11863EBCE010E94751865E074
S1134D70CE010E94B1186CE3CE010E94B1186CE31D
S1134D80CE010E94B11865E0CE010E94B1186CE317
S1134D90CE010E94B1186CE3CE010E94B11864EBFD
S1134DA0CE010E94751863E0CE010E94B11860EC38
S1134DB0CE010E94751868E2CE010E94B11868E025
S1134DC0CE010E94B11864E0CE010E94B11861ECDA
S1134DD0CE010E94751860ECCE010E94B11862ECFD
S1134DE0CE010E9475186DE0CE010E94B11860E0FA
S1134DF0CE010E94B11863ECCE010E9475186DE8D3
S1134E00CE010E94B1186AE2CE010E94B11864EC8E
S1134E10CE010E9475186DE8CE010E94B1186EEEA5
S1134E20CE010E94B11865ECCE010E9475186AE1AA
S1134E30CE010E94B11866E3CE010E94751860ECA1
S1134E40CE010E94B11860EECE010E94751863E095
S1134E50CE010E94B11862E2CE010E94B11867E04F
S1134E60CE010E94B1186AE0CE010E94B1186EE230
S1134E70CE010E94B11860E3CE010E94B11865E230
S1134E80CE010E94B1186AE2CE010E94B11868E214
S1134E90CE010E94B11866E2CE010E94B1186EE202
S1134EA0CE010E94B1186AE3CE010E94B11860E0FD
S1134EB0CE010E94B11861E0CE010E94B11863E0F6
S1134EC0CE010E94B11863E1CE010E94B11861EED7
S1134ED0CE010E94751864E0CE010E94B11866E10B
S1134EE0CE010E94B11866E0CE010E94B1186DE0B7
S1134EF0CE010E94B1186DE2CE010E94B11866E2A3
S1134F00CE010E94B11863E2CE010E94B11867E29B
S1134F10CE010E94B11867E2CE010E94B11865E289
S1134F20CE010E94B1186DE2CE010E94B1186BE36C
S1134F30CE010E94B11860E0CE010E94B11861E078
S1134F40CE010E94B11864E0CE010E94B11863E161
S1134F50CE010E94B1186AE3CE010E94751865E083
S1134F60CE010E94B11869E20C94131E61E1CE01D6
S1134F700E94751864E170E080E090E00E940E37B2
S1134F8068E2CE010E94751865E070E080E090E070
S1134F900E940E376FECCE010E94751860E0CE01BE
S1134FA00E94B11863E8CE010E94B11860E3CE01FB
S1134FB00E94B1186DEECE010E94751864E6CE0110
S1134FC00E94B11863E0CE010E94B11862E1CE01E3
S1134FD00E94B11861E8CE010E94B11868EECE01BA
S1134FE00E94751865E8CE010E94B11861E0CE01F7
S1134FF00E94B11869E7CE010E94B1186BECCE0192
S11350000E94751869E3CE010E94B1186CE2CE01CA
S11350100E94B11860E0CE010E94B11864E3CE0191
S11350200E94B11862E0CE010E94B11867EFCE0170
S11350300E94751860E2CE010E94B1186AEECE019A
S11350400E94751860E0CE010E94B11860E0CE01A4
S11350500E94B11860ECCE010E94751866E2CE0180
S11350600E94B11861ECCE010E94751861E1CE0175
S11350700E94B11865ECCE010E94751865E3CE015B
S11350800E94B1186EE3CE010E94B11867ECCE0104
S11350900E9475186EEBCE010E94B11861EBCE012F
S11350A00E94751860E0CE010E94B1186BE1CE0138
S11350B00E94B11866EBCE010E9475186AE0CE0119
S11350C00E94B11862E8CE010E94B11867E2CE01D5
S11350D00E94B11860E0CE010E94B11867EBCE01C6
S11350E00E94751867E0CE010E94B1186AE3CE01F0
S11350F00E94751865E5CE010E94B11866E3CE01E1
S11351000E94751868E4CE010E94B11869E2CE01CC
S11351100E94751865E070E080E090E05BC46BEC81
S1135120CE010E94751869E3CE010E94B1186CE2A9
S1135130CE010E94B11860E0CE010E94B11864E370
S1135140CE010E94B11862E0CE010E94B1186FEC4A
S1135150CE010E94751860E0CE010E94B11861EC86
S1135160CE010E94B11860E3CE010E94B11868EE2E
S1135170CE010E94751865E8CE010E94B11860E066
S1135180CE010E94B11868E7CE010E94B1186AEE00
S1135190CE010E94751860E0CE010E94B11860E053
S11351A0CE010E94B1186DEECE010E94751864E61E
S11351B0CE010E94B11863E0CE010E94B11862E1F1
S11351C0CE010E94B11861E8CE010E94B11867EFC8
S11351D0CE010E94751860E2CE010E94B11860EC05
S11351E0CE010E94751863E2CE010E94B11861ECF1
S11351F0CE010E94751860E1CE010E94B11865ECE1
S1135200CE010E9475186EE3CE010E94B11868E2C7
S1135210CE010E94B11867ECCE010E94751866E8B1
S1135220CE010E94B11866E3CE010E94751868E4AD
S1135230CE010E94B1186AE3CE010E94751865E59B
S1135240CE010E94B11861EBCE010E94751860E096
S1135250CE010E94B11868E1CE010E94B11866EB3C
S1135260CE010E94751868E0CE010E94B11862E870
S1135270CE010E94B11867E2CE010E94B11861E12B
S1135280CE010E94751868E770E080E090E09DC24E
S113529060EBCE010E9475186EE1CE010E94B11838
S11352A060EBCE010E94751860E0CE010E94B11837
S11352B063EBCE010E94751862E0CE010E94B11822
S11352C060E0CE010E94B11860E0CE010E94B118E6
S11352D060E1CE010E94B11864EBCE010E94751802
S11352E060E0CE010E94B11860ECCE010E947518F6
S11352F063E0CE010E94B1186BE3CE010E94B118A5
S113530060E0CE010E94B11860E0CE010E94B118A5
S113531060E0CE010E94B11861E0CE010E94B11894
S113532060E0CE010E94B11863E4CE010E94B1187E
S113533061ECCE010E94751868E0CE010E94B1189C
S113534065E1CE010E94B11868E0CE010E94B11857
S113535068E0CE010E94B11864ECCE010E94751879
S113536065E1CE010E94B11863E0CE010E94B1183C
S113537063E0CE010E94B11861E0CE010E94B11831
S113538066ECCE010E94751862E0CE010E94B1184D
S113539068ECCE010E9475186CE0CE010E94B11831
S11353A065E0CE010E94B1186AE0CE010E94B118F6
S11353B06BE6CE010E94B11864E0CE010E94B118E0
S11353C066E0CE010E94B11865E1CE010E94B118D9
S11353D060E1CE010E94B11860E0CE010E94B118D4
S11353E060E6CE010E94B11866E3CE010E947518F2
S11353F06AE0CE010E94B1186CE0CE010E947518DB
S113540065E5CE010E94B1186AE3CE010E947518C9
S113541065E5CE010E94B11868E3CE010E947518BB
S113542060EDCE010E94751867E0CE010E94B118AC
S113543067E0CE010E94B11864E1CE010E94B11868
S113544062EACE010E94B11861EDCE010E94751886
S113545063E0CE010E94B1186AE5CE010E94B11842
S113546060E1CE010E94B11862EDCE010E94751870
S113547063E0CE010E94B11864E0CE010E94B1182D
S113548064E0CE010E94B11861E1CE010E9475185A
S113549066E970E080E090E00E940E376AE2CE0197
S11354A00E94751860E0CE010E94B11860E0CE0140
S11354B00E94B11861E0CE010E94B1186FEDCE01D7
S11354C00E94B1186BE2CE010E94751860E0CE0113
S11354D00E94B11860E0CE010E94B11861E0CE01D3
S11354E00E94B1186FE3CE010E94B11864E670E027
S11354F080E090E00E940E3769E2CE010E947518A8
S11355006EE170E080E090E00E940E376CE2CE0124
S11355100E9475186EE170E080E090E05BC261E18A
S1135520CE010E94751862E370E080E090E00E9472
S11355300E3762EFCE010E9475186CE1CE010E9415
S1135540B11863EACE010E94B11862E3CE010E9451
S1135550B11862E0CE010E94B11862EBCE010E9444
S1135560B11862E1CE010E94B1186FEFCE010E9422
S1135570B11862E1CE010E94B11860E0CE010E9430
S1135580B11861EFCE010E94751866E3CE010E9446
S1135590B11864EACE010E94B11868EFCE010E94EE
S11355A0751861E2CE010E94B11864E0CE010E9438
S11355B0B11869EFCE010E94751860E0CE010E9417
S11355C0B11868E0CE010E94B11860ECCE010E94CF
S11355D075186DE0CE010E94B1186DE0CE010E94F5
S11355E0B11861ECCE010E94751863E4CE010E94EB
S11355F0B11860E0CE010E94B11862ECCE010E94A5
S1135600751860E0CE010E94B11865ECCE010E94CD
S1135610751860E0CE010E94B11868E4CE010E94C2
S1135620B11866EBCE010E94751860E0CE010E94AD
S1135630B11862E2CE010E94B1186BE3CE010E9460
S1135640B11860EECE010E9475186FE0CE010E9481
S1135650B11864E2CE010E94B1186CE1CE010E943F
S1135660B1186AE0CE010E94B1186FE0CE010E9429
S1135670B11868E0CE010E94B11863E4CE010E9423
S1135680B11868E8CE010E94B11862E3CE010E940D
S1135690B1186FE0CE010E94B11860E1CE010E9402
S11356A0B11866E0CE010E94B1186FE0CE010E94ED
S11356B0B11867E0CE010E94B11860E0CE010E94EB
S11356C0B11861EECE010E9475186FE0CE010E9400
S11356D0B11868E3CE010E94B11860E3CE010E94C4
S11356E0B11869E0CE010E94B1186FE0CE010E94AA
S11356F0B1186FE0CE010E94B1186EE4CE010E9491
S1135700B11867E7CE010E94B1186CE3CE010E9484
S1135710B11867E0CE010E94B11860E1CE010E9489
S1135720B11865E0CE010E94B11863E2CE010E9477
S1135730B1186BE1CE010E94B11860E0CE010E9465
S1135740B11860E2CE010E94751860E0CE010E949B
S1135750B11866E3CE010E9475186AE0CE010E947A
S1135760B1186AE3CE010E94751865E5CE010E9466
S1135770B1186AE2CE010E94751860E0CE010E9461
S1135780B11860E0CE010E94B11861E0CE010E9420
S1135790B1186FEDCE010E94B1186BE2CE010E94E8
S11357A0751860E0CE010E94B11860E0CE010E943D
S11357B0B11861E0CE010E94B1186FE3CE010E94DE
S11357C0B11862E370E080E090E00E940E3769E275
S11357D0CE010E9475186CE20C94131E8C818130EA
S11357E011F41C8202C081E08C836FE0CE010E9420
S11357F0751840E150E061E0CE010E94C9186FE0E5
S11358000C94131E69EBCE010E9475186FEFCE0144
S11358100E94B11863E8CE010E94B11863E5CE017D
S11358200E94B11860EBCE010E9475186CE3CE01A2
S11358300E94B11861E0CE010E94B11866EBCE015E
S11358400E94751864E9CE010E94B1186CE6CE017D
S11358500E94B11860E5CE010E94B11861EBCE013F
S11358600E94751860E0CE010E94B11861E0CE017B
S11358700E94B1186BE1CE010E94B11863E0CE0121
S11358800E94B11861E0CE010E94B11868E0CE0117
S11358900E94B11867E7CE010E94B11869E8CE01F1
S11358A00E94B11860EECE010E94751860E5CE0129
S11358B00E94B11867E7CE010E94B11860E4CE01DE
S11358C00E94B11868E0CE010E94B1186FEBCE01BE
S11358D00E94B11860E0CE010E94B11863E0CE01CD
S11358E00E94B1186FE0CE010E94B11860E0CE01B1
S11358F00E94B11861E0CE010E94B11863E7CE01A5
S11359000E94B11860E0CE010E94B11862E7CE0196
S11359100E94B11863E0CE010E94B11860EBCE0181
S11359200E94B1186FE0CE010E94B11868E0CE0168
S11359300E94B11860E0CE010E94B1186FE0CE0160
S11359400E94B1186AE3CE010E94751865E0CE0189
S11359500E94B11866E3CE010E94751860ECCE0176
S11359600E94B11861E1CE010E94751866E970E0E9
S113597080E090E00E940E3769E2CE010E94751823
S113598066E970E080E090E00E940E376DE2CE019F
S11359900E94751810E0612FCE010E94B1181E5F9D
S11359A01034C9F710E0612FCE010E94B1181F5FB7
S11359B01034C9F710E0612FCE010E94B1181E5FA8
S11359C01034C9F76CE2CE010E94751866E970E0E4
S11359D080E090E00E940E37EC89FD89908188A1D7
S11359E0892B80838FEF888389831A821B8218AA6C
S11359F01BA61AA6DF91CF911F910F9108950F93C3
S1135A001F93FC0164812185328545815681611192
S1135A1003C089019A0101C08A0140E050E060E0BE
S1135A2070E00E94D8181F910F910895CF92DF92D1
S1135A30EF92FF920F931F93CF93DF93EC01EC89C6
S1135A40FD89908188A1809589238083CE01D7DF49
S1135A508E85813031F0E889F98990818E8D892B8A
S1135A608083EE854D815E816F81788589859A85F5
S1135A70AB85BC85E031C1F49A01AB012F5F3F4F88
S1135A804F4F5F4FBC01CD016F5F7F4F8F4F9F4FD3
S1135A900E948D398B019C0140E050E060E070E091
S1135AA0CE010E948D134FC0E83021F0C12CD12CBF
S1135AB0760123C09A01AB012F5F3F4F4F4F5F4FD9
S1135AC0BC01CD016F5F7F4F8F4F9F4F0E948D3977
S1135AD09B01AC0160E070E0CE010E94BF1433C0B2
S1135AE02E85213031F140E060E0CE010E94E611C4
S1135AF08FEFC81AD80AE80AF80A8D819E81AF810F
S1135B00B8859C01AD012F5F3F4F4F4F5F4F898593
S1135B109A85AB85BC85BC01CD016F5F7F4F8F4FEC
S1135B209F4F0E948D39C616D706E806F906C4F2BF
S1135B300AC021E040E061E0CE010E94E6112E851A
S1135B4040E061E0D2CFEC89FD89908188A1892B66
S1135B508083DF91CF911F910F91FF90EF90DF90A1
S1135B60CF900895FC01708361830895EF92FF92B2
S1135B700F931F93CF93DF93EC01790137FF05C097
S1135B80620F731FF194E194F108EC89FD8990810F
S1135B9088A18095892380839B012E0D3F1D8A0156
S1135BA0CE010E94D8188E85803191F4E889F98954
S1135BB090818E8D892B80838701FF0C220B330B00
S1135BC0498150E0688170E0CE010E948D1322C0AB
S1135BD08830A1F498818981981310C0E889F989E3
S1135BE090818E8D892B80839701FF0C440B550B7C
S1135BF0688170E0CE010E94BF140CC000E010E088
S1135C0049816881CE010E948D180F5F1F4FE016F5
S1135C10F106B4F7EC89FD89908188A1892B8083F2
S1135C20CE01DF91CF911F910F91FF90EF90E7CEBE
S1135C30EF92FF920F931F93CF93DF93EC017901BF
S1135C4037FF05C0420F531FF194E194F108EC892A
S1135C50FD89908188A18095892380838A010E0D16
S1135C601F1D9B01CE010E94D8188E85803191F4AE
S1135C70E889F98990818E8D892B80838701FF0CB7
S1135C80220B330B498150E0688170E0CE010E9401
S1135C908D1322C08830A1F498818981981310C093
S1135CA0E889F98990818E8D892B80839701FF0C77
S1135CB0440B550B688170E0CE010E94BF140CC0E8
S1135CC000E010E049816881CE010E948D180F5FC9
S1135CD01F4FE016F106B4F7EC89FD89908188A185
