:100000000C941A0A0C94E7450C9412460C943D4645
:100010000C9468460C9493460C94BE460C94E946A6
:100020000C9414470C944B0A0C944B0A0C944B0AF6
:100030000C944B0A0C944B0A0C944B0A0C944B0AEC
:100040000C944B0A0C944B0A0C944B0A0C944B0ADC
:100050000C944B0A0C944B0A0C944B0A0C943F479B
:100060000C944B0A0C94E6420C941C430C944B0ADF
:100070000C944B0A0C944B0A0C944B0A0C944B0AAC
:100080000C944B0A0C944B0A0C944B0A0C944B0A9C
:100090000C944B0A0C944B0A0C944B0A0C944B0A8C
:1000A0000C944B0A0C944B0A0C944B0A0C944B0A7C
:1000B0000C944B0A0C944B0A0C944B0A0C944B0A6C
:1000C0000C944B0A0C944B0A0C944B0A0C944B0A5C
:1000D0000C944B0A0C944B0A0C944B0A0C944B0A4C
:1000E0000C944B0AE222CB23FD22FD221623CB23C4
:1000F000C322A0233A23CB23482348236523652327
:10010000E222A023CB23E2224823A023FD22742352
:10011000A023A023A023A023A0238D23A023A023DA
:100120003B24A936082508259A26A936A029D427D4
:100130004D29A936FA2A032CAF2DAF2D3B244C3282
:10014000A9363B24D62CAF2E8625782F46304C324C
:10015000733105334C34AB35BF35482805A84CCD39
:10016000B2D44EB93836A9020C50B9918688083CF1
:10017000A6AAAA2ABE000000803FC1458B45934530
:100180009F45AC45CD45DA456E48714860486448A6
:100190006A48A848754879487F48834887488D4809
:1001A00091489548A8489B489F48A34800407A102A
:1001B000F35A00A0724E18090010A5D4E80000E818
:1001C0007648170000E40B54020000CA9A3B000076
:1001D00000E1F505000080969800000040420F0005
:1001E0000000A08601000000102700000000E803C6
:1001F000000000006400000000000A000000000091
:100200000100000000002C76D888DC674F0823DF4F
:10021000C1DFAE59E1B1B796E5E3E453C63AE65122
:10022000997696E8E6C28426EB898C9B62ED407C49
:100230006FFCEFBC9C9F40F2BAA56FA5F490055AE5
:100240002AF75C936B6CF9676DC11BFCE0E40D470A
:10025000FEF520E6B500D0ED902E0300943577052D
:100260000080841E080000204E0A000000C80C33E5
:100270003333330F986E12831141EF8D2114893B74
:10028000E65516CFFEE6DB18D1844B381BF77C1DF4
:10029000901DA4BBE424203284725E228100C9F147
:1002A00024ECA1E53D271010205F000000000000B5
:1002B000000000000000000000000000000000003E
:1002C0000000000000000000000000000000070027
:1002D0000F800F800F800F800F8007000700000045
:1002E0000000070007000700000000000E380E386D
:1002F0000E380E380630000000000000000000003C
:100300000000000000000000000000000C300C3075
:100310000C307FFE7FFE0C300C300C300C307FFE3A
:100320007FFE0C300C300C30000000000240024018
:100330000FF81FF81A401A401FF00FF80258025821
:100340001FF81FF002400240000000000000000003
:100350000E100E300E7000E001C0038007000E701A
:100360000C700870000000000000000000000F008A
:100370001980198019800F000F080F9819F818F0CC
:1003800018E019F00F9800000000000000000700BE
:10039000070007000E000000000000000000000041
:1003A000000000000000000000000000000000F05D
:1003B00001C0038007000E000E000E000E000700B3
:1003C000038001C000F000000000000000000F00EA
:1003D000038001C000E0007000700070007000E059
:1003E00001C003800F000000000000000000018039
:1003F0001188099007E007E03FFC3FFC07E007E0B9
:100400000990118801800000000000000000000039
:1004100000000180018001800FF00FF00180018059
:10042000018000000000000000000000000000004B
:1004300000000000000000000000000000000000BC
:100440000700070007000E00000000000000000089
:1004500000000000000000001FF81FF8000000006E
:10046000000000000000000000000000000000008C
:10047000000000000000000000000000000000007C
:100480000700070007000000000000000000000255
:100490000006000E001C0038007000E001C0038060
:1004A00007000E001C0000000000000000000FF01C
:1004B0001C381C781CF81CF81DB81DB81F381F38D4
:1004C0001E381C380FF00000000000000000018002
:1004D000018003801F801F800380038003800380CE
:1004E000038003801FF000000000000000000FE008
:1004F0001C701C380038007000E001C00380070049
:100500000E381C381FF800000000000000000FE04B
:100510001C701C380038007003C003C00070003825
:100520001C381C700FE0000000000000000000E01C
:1005300001E003E006E00CE018E01FF81FF800E01F
:1005400000E000E003F800000000000000001FF8D9
:100550001C001C001C001C001FE01FF0007800386D
:100560001C381C700FE0000000000000000003E0D9
:1005700007000E001C001C001FF01FF81C381C3860
:100580001C381C380FF000000000000000001FFCA9
:100590001C1C1C1C1C1C001C0038007000E001C04E
:1005A00003800380038000000000000000000FF0C3
:1005B0001C381C381C381F3807E007E01CF81C38B2
:1005C0001C381C380FF000000000000000000FF085
:1005D0001C381C381C381C381FF80FF8003800383D
:1005E000007000E007C000000000000000000000F4
:1005F000000003800380038000000000038003806C
:100600000380000000000000000000000000000067
:10061000000003800380038000000000038003804B
:10062000038007000000000000000000007000E0F0
:1006300001C0038007000E001C001C000E00070014
:10064000038001C000E00070000000000000000016
:10065000000000003FFC3FFC000000003FFC3FFCAE
:100660000000000000000000000000001C000E0060
:100670000700038001C000E00070007000E001C0CE
:10068000038007000E001C000000000003C00FF0F4
:100690001E7818380038007000E001C001C000006A
:1006A000000001C001C001C0000000000FF81C1CC8
:1006B0001C1C1C1C1C1C1CFC1CFC1CFC1CFC1C0016
:1006C0001C001C001FF007F800000000000003C021
:1006D00007E00E701C381C381C381C381FF81C38FA
:1006E0001C381C381C3800000000000000001FF0FF
:1006F0000E380E380E380E380FF00FF00E380E3858
:100700000E380E381FF0000000000000000007F057
:100710000E381C381C001C001C001C001C001C0097
:100720001C380E3807F000000000000000001FE039
:100730000E700E380E380E380E380E380E380E3851
:100740000E380E701FE000000000000000001FF8CF
:100750000E180E080E000E300FF00FF00E300E00C7
:100760000E080E181FF800000000000000001FF81F
:100770000E180E080E000E300FF00FF00E300E00A7
:100780000E000E001F00000000000000000007F037
:100790000E381C381C381C001C001C001CF81C38AF
:1007A0001C380E3807F800000000000000001C7024
:1007B0001C701C701C701C701FF01FF01C701C70D3
:1007C0001C701C701C7000000000000000000FE096
:1007D0000380038003800380038003800380038001
:1007E000038003800FE0000000000000000001FC17
:1007F0000070007000700070007000703870387009
:10080000387038700FE000000000000000001E3853
:100810000E380E700EE00FC00F800F800FC00EE07C
:100820000E700E381E3800000000000000001F008F
:100830000E000E000E000E000E000E000E000E0840
:100840000E180E381FF800000000000000001C1CED
:100850001E3C1F7C1FFC1FFC1DDC1C9C1C1C1C1C4C
:100860001C1C1C1C1C1C00000000000000001C1CA8
:100870001C1C1E1C1F1C1F9C1DDC1CFC1C7C1C3C0F
:100880001C1C1C1C1C1C000000000000000003E0DD
:1008900007F00E381C1C1C1C1C1C1C1C1C1C1C1CCB
:1008A0000E3807F003E000000000000000001FF019
:1008B0000E380E380E380E380FF00FF00E000E0006
:1008C0000E000E001F00000000000000000003E00A
:1008D0000F780E381C1C1C1C1C1C1C1C1C7C1CFCBB
:1008E0000FF80FF8003800FC0000000000001FF0B7
:1008F0000E380E380E380E380FF00FF00E700E381E
:100900000E380E381E3800000000000000000FF006
:100910001C381C381C381C000FE007F000381C384D
:100920001C381C380FF000000000000000001FFC05
:1009300019CC11C401C001C001C001C001C001C077
:1009400001C001C007F000000000000000001C70A2
:100950001C701C701C701C701C701C701C701C7037
:100960001C701C700FE000000000000000001C70F4
:100970001C701C701C701C701C701C701C701C7017
:100980000EE007C0038000000000000000001C1CF7
:100990001C1C1C1C1C1C1C1C1C9C1C9C1C9C0FF848
:1009A0000FF80770077000000000000000001C70C6
:1009B0001C701C700EE007C00380038007C00EE0AF
:1009C0001C701C701C7000000000000000001C70F7
:1009D0001C701C701C701C700EE007C0038003802C
:1009E000038003800FE000000000000000001FF8FB
:1009F0001C381838107000E001C0038007000E0892
:100A00001C181C381FF8000000000000000007F050
:100A1000070007000700070007000700070007009E
:100A20000700070007F000000000000000001000B1
:100A300018001C000E000700038001C000E00070D9
:100A40000038001C0007000000000000000007F054
:100A50000070007000700070007000700070007016
:100A60000070007007F0000000000000018003C06B
:100A700007E00E701C3800000000000000000000BD
:100A80000000000000000000000000000000000066
:100A90000000000000000000000000000000000056
:100AA0000000000000007FFF7FFF000000001C002E
:100AB0001C0007000700000000000000000000000C
:100AC0000000000000000000000000000000000026
:100AD0000000000000000FE0007000700FF01C70BC
:100AE0001C701C700FD800000000000000001E00E9
:100AF0000E000E000E000FF00E380E380E380E38B5
:100B00000E380E381BF0000000000000000000004E
:100B10000000000000000FE01C701C701C001C0096
:100B20001C701C700FE0000000000000000000F8C6
:100B30000070007000700FF01C701C701C701C7036
:100B40001C701C700FD800000000000000000000A6
:100B50000000000000000FE01C701C701FF01C0063
:100B60001C701C700FE0000000000000000003E09B
:100B700007700770070007001FE01FE0070007006D
:100B8000070007001FC00000000000000000000078
:100B90000000000000000FD81C701C701C701C703E
:100BA0000FF007F000701C700FE0000000001E0046
:100BB0000E000E000E000EF00F380F380E380E38F3
:100BC0000E380E381E38000000000000000001C082
:100BD00001C001C000000FC001C001C001C001C0C0
:100BE00001C001C00FF8000000000000000000700C
:100BF00000700070000003F0007000700070007062
:100C0000007000701C700CF007E0000000001E0077
:100C10000E000E000E000E380E700EE00FC00EE03B
:100C20000E700E381E3800000000000000000FC0DB
:100C300001C001C001C001C001C001C001C001C0AC
:100C400001C001C00FF8000000000000000000001B
:100C50000000000000001FF81C9C1C9C1C9C1C9C9D
:100C60001C9C1C9C1C9C000000000000000000005C
:100C70000000000000001FE01C701C701C701C7045
:100C80001C701C701C7000000000000000000000C0
:100C90000000000000000FE01C701C701C701C7035
:100CA0001C701C700FE0000000000000000000003D
:100CB0000000000000001BF00E380E380E380E3811
:100CC0000E380FF00E000E001F00000000000000A4
:100CD0000000000000001FB038E038E038E038E0E5
:100CE00038E01FE000E000E001F00000000000003C
:100CF0000000000000001EF00FF80F380E000E007C
:100D00000E000E001F0000000000000000000000A8
:100D10000000000000000FE01C301C300F8003E0DA
:100D2000187018700FE000000000000000000000C4
:100D30000100030007001FF007000700070007007D
:100D40000770077003E000000000000000000000D2
:100D50000000000000001C701C701C701C701C70D7
:100D60001C701C700FD80000000000000000000084
:100D70000000000000001C701C701C701C701C70B7
:100D80000EE007C00380000000000000000000002B
:100D90000000000000001C1C1C1C1C1C1C9C1C9C3B
:100DA0000FF807700770000000000000000000004E
:100DB0000000000000001CE01CE00FC0078007805E
:100DC0000FC01CE01CE0000000000000000000005C
:100DD0000000000000000E380E380E380E380E38B5
:100DE00007F003E000E001C01F80000000000000E9
:100DF0000000000000001FE018E011C003800700A1
:100E00000E201C601FE0000000000000000001F840
:100E100003800380038007001C001C000700038080
:100E20000380038001F800000000000001C001C041
:100E300001C001C001C001C001C001C001C001C0AA
:100E400001C001C001C001C00000000000001F80FF
:100E500001C001C001C000E00038003800E001C05E
:100E600001C001C01F8000000000000000001F1C26
:100E70003B9C39DC38F80000000000000000000056
:100E800000000000000000000000080C205F0000CF
:100E900000000000000000000000000020202020D2
:100EA000202000200000002850500000000000001A
:100EB000000000002828FC2850FC505000000020B2
:100EC00078A8A0603028A8F02000000048A8B05002
:100ED000283454480000000020505078A8A8906C96
:100EE00000000040408000000000000000000004FE
:100EF00008101010101010080400004020101010EE
:100F000010101020400000000020A87070A82000E1
:100F100000000000202020F8202020000000000019
:100F2000000000000000004040800000000000F8C9
:100F30000000000000000000000000000000004071
:100F400000000008101010202040404080000000E9
:100F500070888888888888700000000020602020C1
:100F6000202020700000000070888810204080F849
:100F70000000000070880830080888700000000039
:100F8000103050509078101800000000F88080F069
:100F90000808887000000000709080F088888870D1
:100FA00000000000F8901020202020200000000009
:100FB0007088887088888870000000007088888831
:100FC00078084870000000000000200000000020A9
:100FD00000000000000000200000002020000004AD
:100FE0000810204020100804000000000000F80055
:100FF00000F8000000000040201008040810204005
:1010000000000000708888102020002000000000F0
:10101000708898A8A8B88078000000002020305080
:10102000507848CC00000000F0484870484848F02C
:1010300000000000788880808080887000000000B8
:10104000F0484848484848F000000000F848507010
:10105000504048F800000000F8485070504040E010
:1010600000000000384880809C8848300000000064
:10107000CC484878484848CC00000000F8202020A0
:10108000202020F8000000007C101010101010909C
:10109000E0000000EC485060505048EC00000000B8
:1010A000E0404040404044FC00000000D8D8D8D880
:1010B000A8A8A8A800000000DC486868585848E8BC
:1010C0000000000070888888888888700000000010
:1010D000F0484870404040E0000000007088888878
:1010E00088E8987018000000F0484870504848ECB4
:1010F0000000000078888060100888F00000000080
:10110000F8A820202020207000000000CC4848488B
:101110004848483000000000CC484850503020205B
:1011200000000000A8A8A870505050500000000017
:10113000D8505020205050D800000000D8505020E7
:101140002020207000000000F8901020204048F877
:1011500000000038202020202020202038000040DF
:1011600040402020101010080000007010101010D7
:10117000101010107000002050000000000000004F
:1011800000000000000000000000000000FC002043
:10119000000000000000000000000000000000301F
:1011A0004838483C00000000C04040704848487043
:1011B00000000000000000384840403800000000F7
:1011C000180808384848483C00000000000000307B
:1011D00048784038000000001C202078202020782B
:1011E000000000000000003C483040784438000017
:1011F000C0404070484848EC0000000020000060FB
:10120000202020700000000010000030101010108E
:1012100010E00000C040405C507048EC000000004E
:10122000E0202020202020F800000000000000F036
:10123000A8A8A8A800000000000000F0484848EC5A
:101240000000000000000030484848300000000066
:10125000000000F04848487040E0000000000038FE
:1012600048484838081C0000000000D8604040E0B2
:101270000000000000000078403008780000000006
:10128000002020702020201800000000000000D85E
:101290004848483C00000000000000EC4850302066
:1012A00000000000000000A8A870505000000000DE
:1012B000000000D8502050D800000000000000ECD2
:1012C0004850302020C00000000000781020207816
:1012D000000000181010102010101010180010102E
:1012E000101010101010101010100060202020108E
:1012F00020202020600040A4180000000000000012
:10130000000000000A0B02090C0D0E08070304017F
:1013100000000000000000000000000000000000CD
:10132000000000000000000000000000000012119A
:10133000100000000000000000000000000000009D
:10134000000000000000000001021020200808102A
:101350002040102040800201020108040201010225
:1013600004081020408080402010080402018004FE
:101370000201804020100804020108040201010259
:101380000408102040800102040810204080050558
:101390000505070508080808020202020A0A0808EB
:1013A0000404040401010101010101010303030319
:1013B00003030303040707070C0C0C0C0C0C0C0CA8
:1013C0000202020206060606060606060B0B0B0BB9
:1013D0000B0B0B0B000020002300260029002C0023
:1013E0002F00320000010000030106010901000086
:1013F0002200250028002B002E00310034000201BD
:101400000000050108010B01000021002400270055
:101410002A002D0030003300010100000401070103
:101420000A01320EA0169F18F9194E43F80E6617DE
:1014300065192A1B11241FBECFEFD1E2DEBFCDBF3D
:1014400000E00CBF13E0A0E0B2E0E0E3FFE900E061
:101450000BBF02C007900D92AA39B107D9F729E056
:10146000AAE9B3E001C01D92A53EB207E1F71AE078
:10147000C6E1DAE000E006C021970109802FFE01F5
:101480000E94D94AC131D10780E00807A9F70E941C
:101490007C430C94874F0C940000DC01ED91FD918E
:1014A0008081ED91FD919081ED91FD916C91637042
:1014B0008E2309F064609F2309F06860EAE6FAE091
:1014C000E60FF11D659565956D936D917D918D91FB
:1014D0009D91099423C01AC012C016C010C01EC02E
:1014E00009C014C013C006C019C009C00DC007C090
:1014F0000DC014C062507040804090400BC06150DD
:1015000070408040904006C06E5F01C06F5F7F4FAB
:101510008F4F9F4F9E938E937E936E9308958091ED
:10152000390990913A09B9CF8091370990913809DA
:10153000B4CF8091350990913609AFCF80913309AE
:1015400090913409AACF8091310990913209A5CFA9
:1015500080912F0990913009A0CF823109F43FC0CA
:1015600070F48230D9F0833009F043C070933209AF
:101570006093310941E050E063EA7AE017C08431BA
:10158000B9F000F18531A9F57093340960933309FE
:1015900041E050E06EE97AE082E01DC070933009CE
:1015A00060932F0941E050E068EA7AE08FEF13C0C2
:1015B000709336096093350941E050E069E97AE0BB
:1015C00083E009C0709338096093370941E050E027
:1015D00064E97AE084E00E94744581E008957093A4
:1015E0003A096093390941E050E06FE87AE085E01C
:1015F000F2CF80E008950F931F93CF93DF93EC0118
:10160000062F142F62E0802F0E94A94862E0812FEC
:101610000E94A948802F90E0FC01E257FC4EE49123
:10162000F0E0EE0FFF1FEC52FC4E25913491398310
:101630002883FC01E85BFC4EE491EC83812F90E071
:10164000FC01E257FC4EE491F0E0EE0FFF1FEC527C
:10165000FC4E259134913B832A83FC01E85BFC4ED0
:10166000E491ED831F82188619861A8680ED97E033
:101670000E94E747E881F98190818C81982381E07D
:1016800009F480E0EA81FB8120819D81922309F0A9
:1016900082608E83BE01802F60DF8B87BE01812F29
:1016A0005CDF9B85890F8B87DF91CF911F910F9115
:1016B0000895CF93DF93EC0114D41F8E18A280E01D
:1016C00090E0ACE5B3E489A39AA3ABA3BCA31DA2AD
:1016D00080E090E0A0E8B0E48EA39FA3A8A7B9A7FC
:1016E0001AA680E090E8ABE3B6E48BA79CA7ADA771
:1016F000BEA788E28FA718AA19AA1AAA1BAA1CAA11
:1017000080E090E0A8E4B3E48DAB9EABAFABB8AFA4
:1017100084EB89AF80E090E0AAE7B3E48AAF9BAFA7
:10172000ACAFBDAF1EAE1FAEFE01E05CFF4F10823E
:101730003196108231968FEF8083319610823196E8
:10174000108231961082CE018A5B9F4FCAD3CE01A0
:101750008B599F4FC6D3CE018C579F4FC2D3CE011A
:101760008D559F4FBED3FE01E253FF4F81E0808332
:1017700031968083CE53DF4F188262E08EE0DF9196
:10178000CF910C94A9480F931F93CF93DF93EC0153
:10179000FC01EC53FF4F718360838CE090E00E946A
:1017A00088438C0143E062E026DFFE01EA53FF4FED
:1017B0001183008342E1B801CE018A5B9F4FABD316
:1017C0008CE090E00E9488438C0146E065E013DFE6
:1017D000FE01E853FF4F1183008341E1B801CE01C0
:1017E0008B599F4F98D38CE090E00E9488438C01E6
:1017F0004BE067E000DFFE01E653FF4F11830083FB
:1018000040E1B801CE018C579F4F85D38CE090E02A
:101810000E9488438C014EE26CE2EDDEFE01E4534F
:10182000FF4F118300834FE0B801CE018D559F4FCC
:10183000DF91CF911F910F916EC3FC01EC53FF4FCD
:10184000A081B1819C919F5F9C930190F081E02DDC
:101850008081853008F0108208950F931F93CF93F5
:10186000DF93EC01FC01EC53FF4F0190F081E02D80
:101870008081823009F454C0C0F4882381F1813022
:1018800009F095C045E061E0CE018A5B9F4F59D3D6
:1018900000E010E020EA31E440E050E060E87FE35F
:1018A000CE018B599F4F3FD372C0833009F463C080
:1018B000843009F07CC045E061E0CE018A5B9F4F37
:1018C00040D345E061E0CE018B599F4F3AD345E0CC
:1018D00061E0CE018C579F4F34D341E05FC041E0BF
:1018E00061E0CE018A5B9F4F2CD300E010E020EA3C
:1018F00031E440E050E060E87FE3CE018B599F4F38
:1019000012D341E061E0CE018C579F4F1AD300E023
:1019100010E020E030E44DEC5CEC6CEC7DE326C0A4
:1019200000E010E020EA31E440E050E060E87FE3CE
:10193000CE018A5B9F4FF7D200E010E020EA31E44D
:1019400040E050E060E87FE3CE018B599F4FEBD23F
:1019500045E061E0CE018C579F4FF3D200E010E0EC
:1019600020EA31E440E050E060E87FE3CE018D55AD
:101970009F4FD9D21CC045E061E0CE018A5B9F4FEA
:10198000E0D245E061E0CE018B599F4FDAD245E0CD
:1019900061E0CE018C579F4FD4D245E061E0CE018B
:1019A0008D559F4FDF91CF911F910F91CAC2DF914B
:1019B000CF911F910F910895EF92FF920F931F9374
:1019C000CF93DF93EC018EE00E9413498E01025306
:1019D0001F4F21E0892B09F420E0F80120836AE001
:1019E00070E080E090E00E94AE47F80180819E01A7
:1019F00021533F4F790181110DC0F9018081882366
:101A000049F0CE011ADFFE01EE53FF4F81E08083E3
:101A1000CE0123DFF8018081F7018083DF91CF9130
:101A20001F910F91FF90EF900895CF92DF92EF9268
:101A3000FF920F931F93CF93DF93EC016C0184EC23
:101A4000C80ED11CD601ED91FC918081823009F441
:101A500093C090F5882309F45BC0813009F0F1C090
:101A6000BF01655F7F4F2FEF40E0CE018A5B9F4F44
:101A700074D3D6016D917C91645F7F4FE12C10E8A7
:101A8000F12E0BE316E420E030E040EF51E4CE010C
:101A90008B599F4F5AD2F60160817181605F7F4FF1
:101AA0002FEF40E0CE018C579F4F57D3D6016D9159
:101AB0007C916F5E7F4FB7C0833009F490C0843053
:101AC00009F0BFC0BF016D5D7F4F2FEF40E0CE0139
:101AD0008A5B9F4F42D3F601608171816C5D7F4FBD
:101AE0002FEF40E0CE018B599F4F37D3D6016D9138
:101AF0007C916B5D7F4F2FEF40E0CE018C579F4F65
:101B00002CD3F601608171816A5D7F4F2FE08CC01C
:101B1000BF016F5F7F4F23E040E0CE018A5B9F4FA4
:101B20001CD3F601608171816E5F7F4FE12C10E85C
:101B3000F12E0BE316E420E030E040EF51E4CE015B
:101B40008B599F4F02D2D6016D917C916A5F7F4F76
:101B500023E040E0CE018C579F4FFFD2F601608119
:101B60007181695F7F4FE12CF12C00E412E42FE6D4
:101B700032E143E85AE32EC0BF016E5E7F4FE12C95
:101B800010E8F12E0BEB15E420E030E0A901CE01C6
:101B90008A5B9F4FDAD1F601608171816A5E7F4F67
:101BA00020E030E0A901CE018B599F4FCED1D60164
:101BB0006D917C91665E7F4F2FEF40E0CE018C5798
:101BC0009F4FCBD2F60160817181655E7F4F20E02F
:101BD00030E0A901CE018D559F4FB7D132C0BF0172
:101BE000615E7F4F27E040E0CE018A5B9F4FB5D218
:101BF000D6016D917C91605E7F4F2FEF40E0CE016A
:101C00008B599F4FAAD2F601608171816F5D7F4F22
:101C10002FEF40E0CE018C579F4F9FD2D6016D91A0
:101C20007C916E5D7F4F2FEF40E0CE018D559F4F31
:101C3000DF91CF911F910F91FF90EF90DF90CF90A8
:101C40008CC2DF91CF911F910F91FF90EF90DF90A9
:101C5000CF900895CF93DF93EC01AEDECE01DF91FC
:101C6000CF91E3CECF93DF9366EB72E08AE594E009
:101C70000E94A2496BEB72E080E694E00E94A249C8
:101C800060EC72E086E694E00E94A24965EC72E0A6
:101C90008CE694E00E94A24968EC72E082E794E04E
:101CA0000E94A2496EEC72E082E494E00E94A24994
:101CB00064ED72E088E494E00E94A2496AED72E06B
:101CC0008EE494E00E94A24964ED72E084E594E021
:101CD0000E94A2496FED72E08AE294E00E94A2495C
:101CE00064ED72E080E394E00E94A24965EE72E048
:101CF00086E394E00E94A2496AED72E08CE394E0EE
:101D00000E94A2496AEE72E082E194E00E94A24938
:101D10006FEE72E088E194E00E94A24964EF72E005
:101D20008EE194E00E94A24969EF72E084E294E0BF
:101D30000E94A2496FED72E08AEF93E00E94A249EF
:101D40006EEF72E080E094E00E94A24963E073E0ED
:101D500086E094E00E94A2496AED72E08CE094E093
:101D60000E94A2496AE073E082EE93E00E94A249D9
:101D700064E173E088EE93E00E94A2496CE173E0B5
:101D80008EEE93E00E94A24965E273E084EF93E057
:101D90000E94A2496DE273E08AEC93E00E94A2499E
:101DA00061E373E080ED93E00E94A24965E373E094
:101DB00086ED93E00E94A24969E373E08CED93E025
:101DC0000E94A2496DE373E08AE993E00E94A24970
:101DD000C0E0D0E026966CE873E0CE0186569C4FBA
:101DE0000E94A249CA32D105A9F7DF91CF91089587
:101DF000CF93DF93CAECD3E02697CE010E943B49F4
:101E000083E0CA39D807C1F78CED93E00E943B49C3
:101E100086ED93E00E943B4980ED93E00E943B49B0
:101E20008AEC93E00E943B4984EF93E00E943B4997
:101E30008EEE93E00E943B4988EE93E00E943B497E
:101E400082EE93E00E943B498CE094E00E943B4983
:101E500086E094E00E943B4980E094E00E943B4988
:101E60008AEF93E00E943B4984E294E00E943B4960
:101E70008EE194E00E943B4988E194E00E943B4956
:101E800082E194E00E943B498CE394E00E943B494C
:101E900086E394E00E943B4980E394E00E943B4942
:101EA0008AE294E00E943B4984E594E00E943B4929
:101EB0008EE494E00E943B4988E494E00E943B4910
:101EC00082E494E00E943B49C8E7D4E02697CE0123
:101ED0000E943B4984E0CA35D807C1F7DF91CF9112
:101EE0000895FC01138E128E158E148E80E090E002
:101EF000A0E8BFE3808B918BA28BB38B80E090E056
:101F0000A0E8BEE3848B958BA68BB78B81E0808F96
:101F100084E0818F0895FC0176876587478762E0BA
:101F2000842F0C94A9480F931F93FC01408B518B75
:101F3000628B738B048B158B268B378B1F910F91C4
:101F40000895FC01608F418F08954F925F926F92C8
:101F50007F928F929F92AF92BF92CF92DF92EF9239
:101F6000FF920F931F93CF93DF93EC016B01290135
:101F70003A018F850E94134921E0892B09F420E062
:101F80002E8FAD84BE84F5018385823020F4F894D1
:101F9000C50183DA01C0F894F50147815085618558
:101FA000728578945B8F4A8F8C8D9D8D84179507F1
:101FB0000CF054C062E673E08BE399E00E94C843E2
:101FC0006A8D7B8D4AE050E08BE399E00E948C445F
:101FD0008E8D882329F06C897D898E899F8904C024
:101FE000688979898A899B89F601208131814281BA
:101FF00053810E94593F4B015C019201A3010E9451
:10200000BD3F87FD0BC09701A801B401C5010E9427
:10201000E04018162CF44701580102C04201530158
:10202000C401D501F60180839183A283B3838A8D95
:102030009B8D9D8F8C8F81E08C8760E773E08BE3B5
:1020400099E00E94C843F601408151816281738109
:1020500022E030E08BE399E00E9463452A8D3B8DBE
:102060008C8D9D8D281739070CF066C062E673E0F1
:102070008BE399E00E94C8436A8D7B8D4AE050E073
:102080008BE399E00E948C448E8D882329F02C8963
:102090003D894E895F8904C0288939894A895B89CD
:1020A000F60160817181828193810E94583F4B01CA
:1020B0005C019B01AC01B201C3010E94E040181613
:1020C0005CF09401A501B701C8010E94BD3F87FFE4
:1020D00005C04701580102C042015301C401D501A6
:1020E000F60180839183A283B3838A8D9B8D9D8F1C
:1020F0008C8F81E08C8760E773E08BE399E00E942E
:10210000C843F601408151816281738122E030E051
:102110008BE399E0DF91CF911F910F91FF90EF90AA
:10212000DF90CF90BF90AF909F908F907F906F90F7
:102130005F904F900C946345DF91CF911F910F9169
:10214000FF90EF90DF90CF90BF90AF909F908F90D7
:102150007F906F905F904F9008958F929F92AF9273
:10216000BF92CF92DF92EF92FF920F931F93CF9384
:10217000DF93EC017B01142F022F8F850E941349FE
:1021800021E0892B09F420E02E8FCD84DE84F60136
:102190008385823020F4F894C6017FD901C0F89479
:1021A000F60187819085A185B28578949B8F8A8F6F
:1021B0002C8D3D8D281739070CF045C062E673E081
:1021C0008BE399E00E94C8436A8D7B8D4AE050E022
:1021D0008BE399E00E948C448E8D882311F0698DE9
:1021E00001C0688D70E080E090E00E94F53F4B01F7
:1021F0005C01F701608170E080E090E00E94F73FB1
:10220000A50194010E94593F0E94C93F611720F027
:10221000061718F4602F01C0612FF70160838A8DC3
:102220009B8D9D8F8C8F81E08C8760E773E08BE3C3
:1022300099E00E94C8434AE050E0F70160818BE3D7
:1022400099E00E942C442A8D3B8D8C8D9D8D281702
:1022500039070CF050C062E673E08BE399E00E940E
:10226000C8436A8D7B8D4AE050E08BE399E00E9481
:102270008C448E8D882311F0698D01C0688D70E0CB
:1022800080E090E00E94F53F4B015C01F701608126
:1022900070E080E090E00E94F73FA50194010E9469
:1022A000583F0E94C93F611720F0102F601708F4B3
:1022B000162FF70110838A8D9B8D9D8F8C8F81E067
:1022C0008C8760E773E08BE399E00E94C8434AE0A3
:1022D00050E0F70160818BE399E0DF91CF911F918E
:1022E0000F91FF90EF90DF90CF90BF90AF909F90B5
:1022F0008F900C942C44DF91CF911F910F91FF9000
:10230000EF90DF90CF90BF90AF909F908F90089507
:10231000FC011082118280E090E0ACE5B3E482839E
:102320009383A483B583168280E090E0A0E8B0E4B4
:1023300087839087A187B287138680E090E8ABE31C
:10234000B6E484879587A687B78788E2808B118A51
:10235000128A138A148A158A80E090E0A8E4B3E414
:10236000868B978BA08FB18F84EB828F80E090E07B
:10237000AAE7B3E4838F948FA58FB68F178E10A230
:1023800011A212A28FEF83A314A215A216A280E6B7
:1023900087A788E780AB87E281AB08950F931F93EF
:1023A000FC0116A705A770A767A352A741A734A7EA
:1023B00023A71F910F9108958F929F92AF92BF9282
:1023C000CF92DF92EF92FF920F931F93CF93DF9301
:1023D00000D000D0CDB7DEB77C01DC019B966D91BB
:1023E0007C919C9797968D919C9198970E94FD3E29
:1023F00060E078EFF70187A190A50E946F37D701C1
:10240000D1960C91D19710E02FED31E040E050E0F3
:1024100060E070E097968D919C9198970E94493862
:1024200088E3A82E85E0B82EC12CD12CD7019D962B
:10243000ED91FC919E97208130E097968D919C9133
:102440009897F60131964F0160E070E02C153D053C
:1024500009F456C00E946F37D7019F968C919F97C1
:1024600090E0D1960C91D19710E003501109889E0D
:102470009001899E300D989E300D11242350310912
:102480008C9DB0018D9D700D9C9D700D11246D5F14
:102490007F4F43E050E097968D919C9198970E94D2
:1024A000493860E078EFF70187A190A50E946F3767
:1024B00040E050E0BA01D70197968D919C91989792
:1024C0000E947337F70127A52C9DC0012D9D900D0B
:1024D00011246C01F3E0CF0ED11CB501CE010196A1
:1024E0000E94CB4900E010E02AE030E0A601BE01E6
:1024F0006F5F7F4FD70197968D919C91989727C0DA
:102500000E946F3740E058EF6FEF7FEFF70187A130
:1025100090A50E947337D7019F962C912C9DC001E6
:102520002D9D900D11246C01B3E0CB0ED11CB50193
:10253000CE0101960E94CB4900E010E02AE030E095
:10254000A601BE016F5F7F4FF70187A190A50E9492
:102550004A3DCE0101960E943B496401F6E0AF0E70
:10256000B11C25E08216910409F060CF26960FB6C3
:10257000F894DEBF0FBECDBFDF91CF911F910F91B9
:10258000FF90EF90DF90CF90BF90AF909F908F9093
:1025900008954F925F926F927F928F929F92AF9227
:1025A000BF92CF92DF92EF92FF920F931F93CF9340
:1025B000DF9300D000D0CDB7DEB77C015B01C12C2A
:1025C000D12C8DE4482E5524539460E078EFF70128
:1025D00087A190A50E946F3740E050E0BA01F70153
:1025E00087A190A50E947337F70181A93201681A6B
:1025F000710880A98C9D40018D9D900C1124F5E0FF
:102600008F0E911CB501CE0101960E94CB4900E0CE
:1026100010E09301A401BE016F5F7F4FF70187A116
:1026200090A50E944A3DCE0101960E943B49FFEFD2
:10263000CF1ADF0A86E0A80EB11CE4E0CE16D10462
:1026400021F626960FB6F894DEBF0FBECDBFDF9100
:10265000CF911F910F91FF90EF90DF90CF90BF909F
:10266000AF909F908F907F906F905F904F90089564
:10267000CF92DF92EF92FF920F931F93CF93DF934E
:10268000EC0169A57AA58FA198A50E94FD3E60E0A6
:1026900078EF8FA198A50E946F3789A94FE351E089
:1026A000481B51090FE311E02FED31E060E070E0CD
:1026B0008FA198A50E94493860E070E08FA198A58D
:1026C0000E946F37E12CF12C82E4C82EDD24D394D4
:1026D00088A990E02FEFE21AF20A8E9DB0018F9D3B
:1026E000700D9E9D700D11249B012350310949A945
:1026F000F601E41BF109AF01681B790B6D5F7F4F99
:102700000CE311E08FA198A50E944938F4E0EF1680
:10271000F104F1F6EDA5FEA58081823091F038F448
:10272000882361F08130E1F468E075E00FC0833008
:1027300059F08430A9F460EC74E008C060E275E000
:1027400005C060EF74E002C068ED74E0CE01DF9177
:10275000CF911F910F91FF90EF90DF90CF9019CF05
:10276000DF91CF911F910F91FF90EF90DF90CF906D
:102770000895CF93DF93EC017BDFCE01DF91CF9102
:102780001BCE2F923F924F925F926F927F928F92C9
:10279000AF92BF92CF92DF92EF92FF920F931F936F
:1027A000CF93DF9300D000D0CDB7DEB73C01DC0182
:1027B00099966D917C919A9797968D919C91989707
:1027C0000E94FD3E60E078EFF30187A190A50E9492
:1027D0006F3740E050E0BA01D30197968D919C91FC
:1027E00098970E947337D3019D96ED91FC919E9727
:1027F0008081823009F494C108F07FC0882309F4F5
:10280000F0C0813009F084C2D301D1968C91D19768
:102810009DE4492E552453948201081B1109D0963A
:102820002C91D097269530E02D5F3F4F438550E0A7
:1028300060E070E0E0E2CE2EE12CF12C97968D91D5
:102840009C9198970E94903DF30180A991A97201F3
:10285000E91AF108082F10E00D5F1F4F8695080F49
:10286000111D05A4F6A5E02D44855585668577855F
:10287000F0E28F2EA12CB12CAEE2CA2E21E0D301C2
:1028800097968D919C9198970E94793EF30180A92B
:1028900091A98201091B1109282F30E0220F331F53
:1028A0002D5F3F4F8695280F311D05A4F6A5E02D1D
:1028B000408950E060E070E080E2C82EE12CF12C0D
:1028C000D30197968D919C9198970E94903DF3012A
:1028D00080A991A98201091B1109F3E08F9F900142
:1028E00011242D5F3F4F8695280F311DD3019D96F2
:1028F000ED91FC919E97418902C2833009F492C107
:10290000843009F005C2D301D1968C91D1979DE412
:10291000492E552453948201081B1109D0962C91FD
:10292000D097269530E02D5F3F4F43A150E060E007
:1029300070E0E0E2CE2EE12CF12C97968D919C91E7
:1029400098970E94903DF30180A991A98201091BEB
:102950001109282F30E02D5F3F4F8695280F311D3C
:1029600005A4F6A5E02D44A150E060E070E0D3019D
:1029700097968D919C9198970E94903DF30180A924
:1029800091A98201091B1109282F30E0220F331F62
:102990002D5F3F4F8695280F311D05A4F6A5E02D2C
:1029A00045A150E060E070E0D30197968D919C9135
:1029B00098970E94903DF30180A991A98201091B7B
:1029C0001109F3E08F9F900111242D5F3F4F8695F1
:1029D000280F311DD3019D96ED91FC919E9746A144
:1029E0008EC1D301D1968C91D1979DE4292E3324A9
:1029F00033947101E81AF108D0964C904694512C0A
:102A0000B3E04B0E511C618126E0D22ED69EB00160
:102A1000112468557B4FCE0101960E94CB4900E0FE
:102A200010E09701A201BE016F5F7F4FF30187A104
:102A300090A50E944A3DCE0101960E943B49D301D8
:102A4000D0968C91D097D1969C91D1977101E91A2B
:102A5000F108082F10E00D5F1F4F8695080F111D1C
:102A60009D96ED91FC919E97428153816481758181
:102A700030E2832EA12CB12CEEE2CE2E21E09796EF
:102A80008D919C9198970E94793EF30181A97101E3
:102A9000E81AF10880A9482E512C440C551CF3E08B
:102AA0004F0E511C8695480E511CD3019D96ED91F9
:102AB000FC919E976681D69EB001112468557B4F8C
:102AC000CE0101960E94CB4900E010E09701A201DF
:102AD000BE016F5F7F4FF30187A190A50E944A3D21
:102AE000CE0101960E943B49D301D0968C91D0979C
:102AF000D1969C917101E91AF108B3E08B9F800196
:102B000011240D5F1F4F8695080F111DD3019D964F
:102B1000ED91FC919E9747815085618572857AC0C1
:102B2000D301D1968C91D1972DE4422E5524539404
:102B30007201E81AF108D0960C91D097069510E032
:102B40000D5F1F4F428953896489758930E2832E56
:102B5000A12CB12CEEE2CE2E21E097968D919C9186
:102B600098970E94793EF30180A991A97201E91A10
:102B7000F108082F10E00D5F1F4F8695080F111DFB
:102B800005A4F6A5E02D46895789608D718D21E059
:102B9000D30197968D919C9198970E94793EF3016D
:102BA00080A991A98201091B1109282F30E0220F69
:102BB000331F2D5F3F4F8695280F311D05A4F6A5C5
:102BC000E02D428D50E060E070E0B0E2CB2EE12CD1
:102BD000F12CD30197968D919C9198970E94903DEE
:102BE000F30180A991A97201E91AF108F3E08F9F1E
:102BF000800111240D5F1F4F8695080F111DD30111
:102C00009D96ED91FC919E97438D548D658D768DAB
:102C10008EE2C82E21E097968D919C9198970E9404
:102C2000793E76C0D301D1968C91D1971DE4412E87
:102C3000552453948201081B1109D0962C91D097EA
:102C4000269530E02D5F3F4F478D50E060E070E00B
:102C500080E2C82EE12CF12C97968D919C9198974B
:102C60000E94903DF30180A991A98201091B1109DD
:102C7000282F30E02D5F3F4F8695280F311D05A48A
:102C8000F6A5E02D40A150E060E070E0D3019796FA
:102C90008D919C9198970E94903DF30180A991A9F4
:102CA0008201091B1109282F30E0220F331F2D5FED
:102CB0003F4F8695280F311D05A4F6A5E02D41A1B3
:102CC00050E060E070E0D30197968D919C919897C9
:102CD0000E94903DF30180A991A98201091B11096D
:102CE000F3E08F9F900111242D5F3F4F8695280FB1
:102CF000311DD3019D96ED91FC919E9742A150E02C
:102D000060E070E097968D919C9198970E94903D1D
:102D100026960FB6F894DEBF0FBECDBFDF91CF91E0
:102D20001F910F91FF90EF90DF90CF90BF90AF90E9
:102D30008F907F906F905F904F903F902F9008956D
:102D4000CF93DF9366EB72E088E395E00E94A2499F
:102D50006BEB72E08EE395E00E94A24960EC72E0BA
:102D600084E495E00E94A24965EC72E08AE495E073
:102D70000E94A24968EC72E080E595E00E94A249B9
:102D80006EEC72E080E295E00E94A24964ED72E090
:102D900086E295E00E94A2496AED72E08CE295E03D
:102DA0000E94A24964ED72E082E395E00E94A2498C
:102DB0006FED72E088E095E00E94A24964ED72E058
:102DC0008EE095E00E94A24965EE72E084E195E014
:102DD0000E94A2496AED72E08AE195E00E94A24950
:102DE0006AEE72E080EF94E00E94A2496FEE72E01A
:102DF00086EF94E00E94A24964EF72E08CEF94E0C9
:102E00000E94A24969EF72E082E095E00E94A24927
:102E10006FED72E088ED94E00E94A2496EEF72E0DF
:102E20008EED94E00E94A24963E073E084EE94E0AA
:102E30000E94A2496AED72E08AEE94E00E94A249E3
:102E40006AE073E080EC94E00E94A24964E173E0E0
:102E500086EC94E00E94A2496CE173E08CEC94E073
:102E60000E94A24965E273E082ED94E00E94A249CB
:102E70006DE273E088EA94E00E94A24961E373E0A6
:102E80008EEA94E00E94A24965E373E084EB94E04B
:102E90000E94A24969E373E08AEB94E00E94A24990
:102EA0006DE373E088E794E00E94A249C0E0D0E0BF
:102EB00026966CE873E0CE0188589B4F0E94A24989
:102EC000CA32D105A9F7DF91CF910895CF93DF934F
:102ED000C8EAD4E02697CE010E943B4984E0C83777
:102EE000D807C1F78AEB94E00E943B4984EB94E059
:102EF0000E943B498EEA94E00E943B4988EA94E0B4
:102F00000E943B4982ED94E00E943B498CEC94E0A6
:102F10000E943B4986EC94E00E943B4980EC94E09F
:102F20000E943B498AEE94E00E943B4984EE94E083
:102F30000E943B498EED94E00E943B4988ED94E06D
:102F40000E943B4982E095E00E943B498CEF94E06F
:102F50000E943B4986EF94E00E943B4980EF94E059
:102F60000E943B498AE195E00E943B4984E195E05B
:102F70000E943B498EE095E00E943B4988E095E045
:102F80000E943B4982E395E00E943B498CE295E038
:102F90000E943B4986E295E00E943B4980E295E031
:102FA0000E943B49C6E5D5E02697CE010E943B49E9
:102FB00085E0C833D807C1F7DF91CF910895CF934B
:102FC000DF93EC010E948620CE01C196A1D9CE01EB
:102FD0008D599F4F0E94183FCE018C569F4F0E94E3
:102FE0008620CE018B539F4F93D9CE0189509F4F9E
:102FF000DF91CF910C94183F8F929F92AF92BF9226
:10300000CF92DF92EF92FF920F931F93CF93DF93B4
:10301000EC015C0182E9A80EB11CD5016D937C9393
:1030200081E390E00E9488434C01C12CD12C89E2BD
:10303000E82EF12C08E210E027E230E046E250E012
:1030400065E1C4010E9487207E01B4E9EB0EF11C0A
:1030500081E3F401D70101900D928A95E1F761E0D7
:10306000C7010E94D623CB53DF4FD501ED91FC91D0
:10307000EC53FF4F0081118126EA32E04AE85EE01E
:10308000B701CE018BD9C7010E94D336CE0171DBC7
:10309000CE01DF91CF911F910F91FF90EF90DF90C4
:1030A000CF90BF90AF909F908F906BCBEF92FF929D
:1030B0000F931F93CF93DF938C01EC01CE56DF4F1C
:1030C000E881F981EE53FF4F8081882369F0780110
:1030D00085ECE80EF11CC7014CDBC70152DBE8812F
:1030E000F981EE53FF4F108288819981FC01EE5ADD
:1030F000FF4F208121110CC07F962081211108C033
:103100007F962081211104C07F968081882381F0E1
:10311000C8018B539F4F35DB88819981FC01EE5AA2
:10312000FF4F10827F9610827F9610827F961082CA
:10313000DF91CF911F910F91FF90EF900895CF9362
:10314000DF9366EB72E086E196E00E94A2496BEBAA
:1031500072E08CE196E00E94A24960EC72E082E2AB
:1031600096E00E94A24965EC72E088E296E00E9437
:10317000A24968EC72E08EE296E00E94A2496EECF1
:1031800072E08EEF95E00E94A24964ED72E084E067
:1031900096E00E94A2496AED72E08AE096E00E9401
:1031A000A24964ED72E080E196E00E94A2496FEDD1
:1031B00072E086EE95E00E94A24964ED72E08CEE2A
:1031C00095E00E94A24965EE72E082EF95E00E94D0
:1031D000A2496AED72E088EF95E00E94A2496AEE8A
:1031E00072E08EEC95E00E94A2496FEE72E084EDF1
:1031F00095E00E94A24964EF72E08AED95E00E949A
:10320000A24969EF72E080EE95E00E94A2496FED5D
:1032100072E086EB95E00E94A2496EEF72E08CEBC3
:1032200095E00E94A24963E073E082EC95E00E9481
:10323000A2496AED72E088EC95E00E94A2496AE03A
:1032400073E08EE995E00E94A24964E173E084EAAC
:1032500095E00E94A2496CE173E08AEA95E00E9441
:10326000A24965E273E080EB95E00E94A2496DE21D
:1032700073E086E895E00E94A24961E373E08CE880
:1032800095E00E94A24965E373E082E995E00E941F
:10329000A24969E373E088E995E00E94A2496DE3E1
:1032A00073E086E595E00E94A249C0E0D0E0269652
:1032B0006CE873E0CE018A5A9A4F0E94A249CA3242
:1032C000D105A9F7DF91CF910895CF93DF93C6E899
:1032D000D5E02697CE010E943B4985E0C635D80748
:1032E000C1F788E995E00E943B4982E995E00E9498
:1032F0003B498CE895E00E943B4986E895E00E94B6
:103300003B4980EB95E00E943B498AEA95E00E94A8
:103310003B4984EA95E00E943B498EE995E00E9492
:103320003B4988EC95E00E943B4982EC95E00E9485
:103330003B498CEB95E00E943B4986EB95E00E946F
:103340003B4980EE95E00E943B498AED95E00E9462
:103350003B4984ED95E00E943B498EEC95E00E944C
:103360003B4988EF95E00E943B4982EF95E00E943F
:103370003B498CEE95E00E943B4986EE95E00E9429
:103380003B4980E196E00E943B498AE096E00E943A
:103390003B4984E096E00E943B498EEF95E00E9415
:1033A0003B49C4E3D6E02697CE010E943B4986E024
:1033B000C631D807C1F7DF91CF91089526E040E0EC
:1033C00052EC61E070E08BE399E00E9483426AE294
:1033D00078E08AE597E00E94C30B6AE577E084E332
:1033E00096E00ACE8AE597E00E942A0E84E396E0F2
:1033F0005DCECF93DF9366EB72E081E199E00E94AE
:10340000A2496BEB72E087E199E00E94A24960EC6F
:1034100072E08DE199E00E94A24965EC72E083E2DE
:1034200099E00E94A24968EC72E089E299E00E946A
:10343000A2496EEC72E089EF98E00E94A24964ED27
:1034400072E08FEF98E00E94A2496AED72E085E099
:1034500099E00E94A24964ED72E08BE099E00E943D
:10346000A2496FED72E081EE98E00E94A24964EDFE
:1034700072E087EE98E00E94A24965EE72E08DEE60
:1034800098E00E94A2496AED72E083EF98E00E9402
:10349000A2496AEE72E089EC98E00E94A2496FEEC0
:1034A00072E08FEC98E00E94A24964EF72E085ED33
:1034B00098E00E94A24969EF72E08BED98E00E94CB
:1034C000A2496FED72E081EB98E00E94A2496EEF95
:1034D00072E087EB98E00E94A24963E073E08DEB15
:1034E00098E00E94A2496AED72E083EC98E00E94A5
:1034F000A2496AE073E089E998E00E94A24964E188
:1035000073E08FE998E00E94A2496CE173E085EADC
:1035100098E00E94A24965E273E08BEA98E00E947D
:10352000A2496DE273E081E898E00E94A24961E35C
:1035300073E087E898E00E94A24965E373E08DE8B4
:1035400098E00E94A24969E373E083E998E00E9451
:10355000A2496DE373E081E598E00E94A249C0E0D2
:10356000D0E026966CE873E0CE018F5A974F0E9408
:10357000A249CA32D105A9F710922A0810922B0845
:1035800080E090E0ACE5B3E480932C0890932D08A4
:10359000A0932E08B0932F081092300880E090E09E
:1035A000A0E8B0E48093310890933208A0933308E8
:1035B000B09334081092350880E090E8ABE3B6E4AD
:1035C0008093360890933708A0933808B093390851
:1035D00088E280933A0810923B0810923C081092BF
:1035E0003D0810923E0810923F0880E090E0A8E469
:1035F000B3E48093400890934108A0934208B093AD
:10360000430884EB8093440880E090E0AAE7B3E4A9
:103610008093450890934608A0934708B0934808C4
:103620001092490810924A0810924B0810924C08C8
:103630008FEF80934D0810924E0810924F08109211
:1036400050088AE597E00E94590B84E396E0DF91E9
:10365000CF91B5CCCF93DF93C1E8D8E02697CE01C8
:103660000E943B4988E0C135D807C1F783E998E05B
:103670000E943B498DE898E00E943B4987E898E02A
:103680000E943B4981E898E00E943B498BEA98E020
:103690000E943B4985EA98E00E943B498FE998E007
:1036A0000E943B4989E998E00E943B4983EC98E0FD
:1036B0000E943B498DEB98E00E943B4987EB98E0E4
:1036C0000E943B4981EB98E00E943B498BED98E0DA
:1036D0000E943B4985ED98E00E943B498FEC98E0C1
:1036E0000E943B4989EC98E00E943B4983EF98E0B7
:1036F0000E943B498DEE98E00E943B4987EE98E09E
:103700000E943B4981EE98E00E943B498BE099E0A2
:103710000E943B4985E099E00E943B498FEF98E089
:103720000E943B4989EF98E00E943B49CFE2D9E0F3
:103730002697CE010E943B4989E0C131D807C1F7E5
:10374000DF91CF910895FC01283009F4EEC018F400
:10375000213041F00895203109F4F7C0213109F4F6
:1037600002C1089587858430C1F4A08DB18D82A1F6
:103770009C91613011F4892B02C0809589238C9330
:10378000A28DB38D9C9183A1809589238C93A28D6A
:10379000B38D9C9183A1892B08C0A089B189868DA6
:1037A0009C916130C1F3809589238C93A08DB18D5C
:1037B00082A19C9147FF02C0892B02C0809589237A
:1037C0008C93A28DB38D9C9183A1809589238C933A
:1037D000A28DB38D9C9183A1892B8C93A08DB18DEB
:1037E00082A19C9146FF02C0892B02C0809589234B
:1037F0008C93A28DB38D9C9183A1809589238C930A
:10380000A28DB38D9C9183A1892B8C93A08DB18DBA
:1038100082A19C9145FF02C0892B02C0809589231B
:103820008C93A28DB38D9C9183A1809589238C93D9
:10383000A28DB38D9C9183A1892B8C93A08DB18D8A
:1038400082A19C9144FF02C0892B02C080958923EC
:103850008C93A28DB38D9C9183A1809589238C93A9
:10386000A28DB38D9C9183A1892B8C93A08DB18D5A
:1038700082A19C9143FF02C0892B02C080958923BD
:103880008C93A28DB38D9C9183A1809589238C9379
:10389000A28DB38D9C9183A1892B8C93A08DB18D2A
:1038A00082A19C9142FF02C0892B02C0809589238E
:1038B0008C93A28DB38D9C9183A1809589238C9349
:1038C000A28DB38D9C9183A1892B8C93A08DB18DFA
:1038D00082A19C9141FF02C0892B02C0809589235F
:1038E0008C93A28DB38D9C9183A1809589238C9319
:1038F000A28DB38D9C9183A1892B8C93A08DB18DCA
:1039000082A19C9140FF02C0892B02C0809589232F
:103910008C93A28DB38D9C9183A1809589238C93E8
:10392000A28DB38D9C9183A1A2C062B9A289B389F3
:103930009C91878D809589238C93A289B3899C91D2
:10394000878D892B8C9342B902C062B948B9A2898C
:10395000B3899C91878D809589238C93A289B389A3
:103960009C91878D84C0A59894B3862F8071880F11
:10397000892B84BB80910201877E80930201909104
:103980000201862F807C869586958695892B80936B
:1039900002018EB1847C8EB99EB1262F2C70220F2D
:1039A000220F862F8370280F862F8072682F70E079
:1039B0007595679575956795620F692B6EB9A48D9E
:1039C000B58D9C9184A1809589238C93A48DB58D10
:1039D0009C9184A1892B8C93A48DB58D9C9184A1FD
:1039E000809589238C93A489B5899C9180A1809529
:1039F00089238C93A59894B3842F8071880F892B89
:103A000084BB80910201877E809302019091020124
:103A1000842F807C869586958695892B80930201DC
:103A20008EB1847C8EB99EB1242F2C70220F220F70
:103A3000842F8370280F842F8072482F50E0559573
:103A4000479555954795420F492B4EB9A289B389A1
:103A50009C91878D809589238C93A289B3899C91B1
:103A6000878D892B8C93A489B5899C9180A1892B02
:103A70008C930895613131F08FEF81B9603149F451
:103A800087B9089588E18093010180E283BB8BE3CD
:103A90008DB908958F929F92AF92BF92CF92DF928D
:103AA000EF92FF920F931F93CF93DF93EC01680186
:103AB000790162B948B9C901B80120E130E040E0BC
:103AC00050E00E94BD4A49015A0180E090E0DC01CB
:103AD00088159905AA05BB050CF0D4C0EA89FB89B5
:103AE00030812F8D209523232083EA89FB89308123
:103AF0002F8D232B2083EA89FB8930812F8D209500
:103B000023232083EA89FB8930812F8D232B208377
:103B1000EA89FB8930812F8D209523232083EA8930
:103B2000FB8930812F8D232B2083EA89FB8930810B
:103B30002F8D209523232083EA89FB8930812F8DC7
:103B4000232B2083EA89FB8930812F8D2095232325
:103B50002083EA89FB8930812F8D232B2083EA89FA
:103B6000FB8930812F8D209523232083EA89FB89CF
:103B700030812F8D232B2083EA89FB8930812F8D83
:103B8000209523232083EA89FB8930812F8D232BE5
:103B90002083EA89FB8930812F8D20952323208380
:103BA000EA89FB8930812F8D232B2083EA89FB89C9
:103BB00030812F8D209523232083EA89FB89308152
:103BC0002F8D232B2083EA89FB8930812F8D20952F
:103BD00023232083EA89FB8930812F8D232B2083A7
:103BE000EA89FB8930812F8D209523232083EA8960
:103BF000FB8930812F8D232B2083EA89FB8930813B
:103C00002F8D209523232083EA89FB8930812F8DF6
:103C1000232B2083EA89FB8930812F8D2095232354
:103C20002083EA89FB8930812F8D232B2083EA8929
:103C3000FB8930812F8D209523232083EA89FB89FE
:103C400030812F8D232B2083EA89FB8930812F8DB2
:103C5000209523232083EA89FB8930812F8D232B14
:103C60002083EA89FB8940813F8D3095342330835E
:103C7000EA89FB8920813F8D322B30830196A11D7B
:103C8000B11D26CFD701C6018F709927AA27BB2760
:103C9000892B8A2B8B2B19F1C701B60120E130E06B
:103CA00040E050E00E94BD4AC12CD12C76016C1539
:103CB0007D058E059F059CF0EA89FB8930812F8D5B
:103CC000209523232083EA89FB8930812F8D232BA4
:103CD00020832FEFC21AD20AE20AF20AE8CFDF915C
:103CE000CF911F910F91FF90EF90DF90CF90BF90F9
:103CF000AF909F908F9008958F929F92AF92BF92B6
:103D0000CF92DF92EF92FF92CF93DF93EC016901A4
:103D10007A0162B9CA01B90120E130E040E050E027
:103D20000E94BD4A49015A0180E090E0DC018815FB
:103D30009905AA05BB050CF0A4C1EA89FB8930816D
:103D40002F8D209523232083EA89FB8930812F8DB5
:103D5000232B2083EA89FB8930812F8D2095232313
:103D60002083EA89FB8930812F8D232B2083EA89E8
:103D7000FB8930812F8D209523232083EA89FB89BD
:103D800030812F8D232B2083EA89FB8930812F8D71
:103D9000209523232083EA89FB8930812F8D232BD3
:103DA0002083EA89FB8930812F8D2095232320836E
:103DB000EA89FB8930812F8D232B2083EA89FB89B7
:103DC00030812F8D209523232083EA89FB89308140
:103DD0002F8D232B2083EA89FB8930812F8D20951D
:103DE00023232083EA89FB8930812F8D232B208395
:103DF000EA89FB8930812F8D209523232083EA894E
:103E0000FB8930812F8D232B2083EA89FB89308128
:103E10002F8D209523232083EA89FB8930812F8DE4
:103E2000232B2083EA89FB8930812F8D2095232342
:103E30002083EA89FB8930812F8D232B2083EA8917
:103E4000FB8930812F8D209523232083EA89FB89EC
:103E500030812F8D232B2083EA89FB8930812F8DA0
:103E6000209523232083EA89FB8930812F8D232B02
:103E70002083EA89FB8930812F8D2095232320839D
:103E8000EA89FB8930812F8D232B2083EA89FB89E6
:103E900030812F8D209523232083EA89FB8930816F
:103EA0002F8D232B2083EA89FB8930812F8D20954C
:103EB00023232083EA89FB8930812F8D232B2083C4
:103EC000EA89FB8930812F8D209523232083EA897D
:103ED000FB8930812F8D232B2083EA89FB89308158
:103EE0002F8D209523232083EA89FB8930812F8D14
:103EF000232B2083EA89FB8930812F8D2095232372
:103F00002083EA89FB8930812F8D232B2083EA8946
:103F1000FB8930812F8D209523232083EA89FB891B
:103F200030812F8D232B2083EA89FB8930812F8DCF
:103F3000209523232083EA89FB8930812F8D232B31
:103F40002083EA89FB8930812F8D209523232083CC
:103F5000EA89FB8930812F8D232B2083EA89FB8915
:103F600030812F8D209523232083EA89FB8930819E
:103F70002F8D232B2083EA89FB8930812F8D20957B
:103F800023232083EA89FB8930812F8D232B2083F3
:103F9000EA89FB8930812F8D209523232083EA89AC
:103FA000FB8930812F8D232B2083EA89FB89308187
:103FB0002F8D209523232083EA89FB8930812F8D43
:103FC000232B2083EA89FB8930812F8D20952323A1
:103FD0002083EA89FB8930812F8D232B2083EA8976
:103FE000FB8930812F8D209523232083EA89FB894B
:103FF00030812F8D232B2083EA89FB8930812F8DFF
:10400000209523232083EA89FB8930812F8D232B60
:104010002083EA89FB8930812F8D209523232083FB
:10402000EA89FB8930812F8D232B2083EA89FB8944
:1040300030812F8D209523232083EA89FB893081CD
:104040002F8D232B2083EA89FB8930812F8D2095AA
:1040500023232083EA89FB8930812F8D232B208322
:10406000EA89FB8940813F8D309534233083EA898A
:10407000FB8920813F8D322B30830196A11DB11D1C
:1040800056CED701C6018F709927AA27BB27892B47
:104090008A2B8B2B81F1C701B60120E130E040E093
:1040A00050E00E94BD4AC12CD12C76016C157D05D3
:1040B0008E059F0504F1EA89FB8930812F8D2095BB
:1040C00023232083EA89FB8930812F8D232B2083B2
:1040D000EA89FB8930812F8D209523232083EA896B
:1040E000FB8930812F8D232B20832FEFC21AD20A18
:1040F000E20AF20ADBCFDF91CF91FF90EF90DF90E1
:10410000CF90BF90AF909F908F90089508954F9259
:104110005F926F927F928F929F92AF92BF92CF9257
:10412000DF92EF92FF920F931F93CF93DF93CDB760
:10413000DEB7C05AD1090FB6F894DEBF0FBECDBFAF
:1041400070E4E6E1F2E0DE01AF5BBF4F01900D925B
:104150007A95E1F770E4E6E5F2E0DE011196019070
:104160000D927A95E1F770E2E6E9F2E0DE01AF57F1
:10417000BF4F01900D927A95E1F7E62FF0E05F01D5
:10418000AA0CBB1CA1E4B0E0AC0FBD1FAA0DBB1D67
:104190000D90BC91A02D2D01612C712CDC01159688
:1041A0004D925D926D927C921897A1E0B0E0AC0FB9
:1041B000BD1FAA0DBB1D0D90BC91A02D4D01A12CC2
:1041C000B12CDC0119968D929D92AD92BC921C97F8
:1041D000A1E8B0E0AC0FBD1FEA0FFB1F7081FC012E
:1041E0007687658745A326A307A3E0A6C1A67430FA
:1041F00019F461E066877787DC011E966C911E9743
:10420000653031F471E01E967C931E971F966C9377
:10421000FC016685613009F498C049013A015C01EE
:1042200029DCF301E257FC4EE491F0E0EE0FFF1FB2
:10423000E251FC4E25913491D50151963C932E9339
:104240005097F301E85BFC4EE4915E96EC935E9729
:10425000F401E257FC4EE491F0E0EE0FFF1FE25153
:10426000FC4E25913491F501338B228BF401E85BF0
:10427000FC4EE4915F96EC935F97C801F801E2571A
:10428000FC4EE491F0E0EE0FFF1FE251FC4E259151
:104290003491F501358B248BFC01E85BFC4EE491F5
:1042A0009096EC939097F701E257FC4EE491F0E082
:1042B000EE0FFF1FE251FC4E85919491F501978B13
:1042C000868BF701E85BFC4EE4909196EC92919717
:1042D0001E968C91813109F0ADC0F601E257FC4E7B
:1042E000E491F0E0EE0FFF1FE251FC4EA591B49176
:1042F000F501B58FA48FF601E85BFC4E9491F501B2
:1043000094A38C91E92FE095E823EC9361E088E099
:104310000E94A94860E088E0C056DF4F0FB6F894CD
:10432000DEBF0FBECDBFDF91CF911F910F91FF90E8
:10433000EF90DF90CF90BF90AF909F908F907F9045
:104340006F905F904F900C94E548BA01FA01E257E4
:10435000FC4EE491F0E0EE0FFF1FE251FC4E459160
:104360005491DC0159965C934E935897FB01E85B9E
:10437000FC4EE4919296EC939297A901F901E257D1
:10438000FC4EE491F0E0EE0FFF1FE251FC4E259150
:104390003491FC01338F228FFA01E85BFC4EE491EB
:1043A0009396EC939397F801E257FC4EE491F0E07A
:1043B000EE0FFF1FE251FC4E45915491FC01558BCD
:1043C000448BF801E85BFC4EE4919096EC93BFEFD0
:1043D000EB16F104A9F0F701E257FC4EE491F0E08E
:1043E000EE0FFF1FE251FC4E25913491FC01378BFB
:1043F000268BF701E85BFC4EE490DC019196EC9291
:10440000FC0127852430B1F0F601E257FC4EE4911F
:10441000F0E0EE0FFF1FE251FC4E45915491DC019C
:1044200051965C934E935097F601E85BFC4EE491F5
:104430005E96EC93C056DF4F0FB6F894DEBF0FBE0A
:10444000CDBFDF91CF911F910F91FF90EF90DF9043
:10445000CF90BF90AF909F908F907F906F905F9024
:104460004F900895462FDC011E962C911E97213007
:1044700071F05096ED91FC91519730815E962C91A0
:104480005E972095232320831E962C9101C021E066
:1044900060E059C91F93CF93DF93DC011E962C91E6
:1044A0001E97213069F05096ED91FC915197308123
:1044B0005E962C915E97232B20831E962C910AC02A
:1044C000142F462FEC0121E061E03DD92E85412FCC
:1044D00061E0CE01DF91CF911F9135C9462FDC01FC
:1044E0001E962C911E97213071F05096ED91FC9103
:1044F000519730815E962C915E97232B20831E96D8
:104500002C9160E002C021E061E01DC90F931F9370
:10451000CF93DF93EC018A01A5DF402F612FCE01FD
:10452000DF91CF911F910F91B5CFAF92BF92CF92F4
:10453000DF92EF92FF920F931F93CF93DF93EC01E3
:104540006B01B42EA52E79018C81813069F48985A7
:104550009A859C01261B370B8E199F0978018901CA
:10456000C42ED52EB82EA92EED858E2F90E0FC01FD
:104570003297EE31F10508F00EC18827EE58FF4F53
:104580008F4F0C94D94A4D2D50E062E0CE01BEDF32
:10459000A60163E0CE01BADF4F2D50E064E0CE010A
:1045A000B5DFA70165E0CE01B1DF4A2D50E066E03E
:1045B000CE01ACDF4B2D5A2D67E0CE01A7DF412F96
:1045C00050E052C05E2D44274C0D5D1D64E4CE01C9
:1045D0009DDF4B2D5A2D65E4CE0198DFA80166E4DE
:1045E000CE0194DFA6016EE4CE0190DF4B2D5A2D53
:1045F0006FE4CE018BDF62E2C2C0A60160E2CE01B1
:1046000085DF4B2D5A2D61E2CE0180DFA60160E5EA
:10461000CE017CDF4B2D5A2D62E5CE0177DFA7015D
:1046200061E5CE0173DFA80163E5E3CF40E050E030
:1046300062E0CE016BDFA60163E0CE0167DF40E000
:1046400050E064E0CE0162DFA70165E0CE015EDFED
:1046500040E050E066E0CE0159DF4B2D5A2D67E077
:10466000CE0154DF40E050E068E0CE014FDFA8010A
:1046700069E0BFCF6AE2CE01F5DE6C2DCE012EDF00
:104680006E2DCE012BDF6BE2CE01ECDE6B2D71C007
:104690006AE2CE01E7DE6A2DCE0120DF6B2DCE016E
:1046A0001DDF612FCE011ADF602FCE0117DF6BE215
:1046B000CE01D8DE6D2DCE0111DF6C2DCE010EDFC7
:1046C0006F2DCE010BDF6E2D57C05E2D44274C2978
:1046D0005D2966E4CE011ADFA80167E4CE0116DF8A
:1046E0004B2D5A2D68E40FC0A70166E3CE010EDF03
:1046F000A60167E3CE010ADFA80168E3CE0106DF69
:104700004B2D5A2D69E3CE0101DFA60160E2CE01F7
:10471000FDDE4B2D5A2D61E26CCF4B2D5A2D62E000
:10472000CE01F4DEA60163E0CE01F0DEA80166E072
:10473000CE01ECDEA70167E0CE01E8DE6FE01FC02E
:104740006AE2CE018FDE6D2DCE01C8DE6C2DCE016A
:10475000C5DE6F2DCE01C2DE6E2DCE01BFDE6BE257
:10476000CE0180DE6A2DCE01B9DE6B2DCE01B6DE24
:10477000612FCE01B3DE602FCE01B0DE6CE2CE0140
:10478000DF91CF911F910F91FF90EF90DF90CF902D
:10479000BF90AF9067CEDF91CF911F910F91FF90A7
:1047A000EF90DF90CF90BF90AF9008950F931F933D
:1047B000CF93DF93EC016C8361E08DA10E94A94847
:1047C00061E08EA10E94A94861E08FA10E94A948E2
:1047D00088A58F3F19F061E00E94A9488E8581313C
:1047E00029F0813039F48F85853021F461E089A585
:1047F0000E94A9486E85613011F0CE013BD9EE8947
:10480000FF89908189A1892B808365E070E080E039
:1048100090E00E94AE47EE89FF89908189A1809542
:10482000892380836FE070E080E090E00E94AE47D3
:10483000EE89FF89908189A1892B80836FE070E0E8
:1048400080E090E00E94AE47EC89FD89908188A1CC
:10485000809589238083ED858E2F90E0FC0132972F
:10486000EE31F10510F00C94A9368827E057FF4F80
:104870008F4F0C94D94A41E050E060E0CE0146DE13
:1048800044EA58EA63E0CE0141DE40E050E06CE0EB
:10489000CE013CDE4CE058E06DE0CE0137DE40E07A
:1048A0005BE26EE0CE0132DE47EB50E06EE1CE011E
:1048B0002DDE4FE35BE261E0CE0128DE40E056E012
:1048C00062E0CE0123DE40E050E060E1CE011EDE7A
:1048D00040E750E661E1CE0119DE40E050E065E0DE
:1048E000CE0114DE40E050E066E0CE010FDE4CE188
:1048F0005FEE66E1CE010ADE43E050E067E1CE0103
:1049000005DE43E352E067E0CE0100DE40E050E028
:104910006BE0CE01FBDD40E050E06FE0CE01F6DD64
:1049200040E050E061E4CE01F1DD40E050E062E4BF
:10493000CE01ECDD40E050E068E4CE01E7DD4FE37E
:1049400051E069E4CE01E2DD40E050E06AE4CE01EE
:10495000DDDD40E050E06BE4CE01D8DD40E05FEE0D
:1049600064E4CE01D3DD40E050E065E4CE01CEDD6D
:104970004FE351E066E4CE01C9DD47E057E060E374
:10498000CE01C4DD44E052E061E3CE01BFDD44E08E
:1049900052E062E3CE01BADD42E055E063E3CE01CE
:1049A000B5DD47E055E064E3CE01B0DD44E052E020
:1049B00065E3CE01ABDD44E052E066E3CE01A6DD67
:1049C00042E055E067E3CE01A1DD42E053E06AE357
:1049D000CE019CDD42E053E06BE3CE0197DD40E089
:1049E00050E063E2CE0192DD40E050E064E2CE01AF
:1049F0008DDD40E050E865E2CE0188DD40E050E02A
:104A00006FE4CE0183DD40E050E06EE40C94413071
:104A100040EF58E765EECE0179DD40E051E061E01E
:104A2000CE0174DD40E052E062E0CE016FDD40E394
:104A300050E163E0CE016ADD40E050E064E0CE0189
:104A400065DD47E052E068E0CE0160DD40E050E027
:104A500069E0CE015BDD40E050E06AE0CE0156DD6A
:104A600040E050E06CE0CE0151DD40E050E06DE010
:104A7000CE014CDD40E050E06FE0CE0147DD40E08C
:104A800050E060E1CE0142DD47E050E061E1CE015F
:104A90003DDD40E050E062E1CE0138DD40E050E035
:104AA00063E1CE0133DD41E050E067E0CE012EDD71
:104AB00068EC70E080E090E00E94AE4740E956E18B
:104AC00060E1CE0123DD47E252E061E1CE011EDD6F
:104AD00062E370E080E090E00E94AE474DE050E07D
:104AE00062E1CE0113DD62E370E080E090E00E94BD
:104AF000AE4740E052E163E1CE0108DD4AE050E01C
:104B000069E2CE0103DD4DE050E07DC040EF58E7A3
:104B100065EECE01FBDC40E051E061E0CE01F6DC69
:104B200040E057E062E0CE01F1DC40E350E163E0B9
:104B3000CE01ECDC40E050E064E0CE01E7DC47E091
:104B400052E068E0CE01E2DC40E050E069E0CE01F6
:104B5000DDDC40E050E06AE0CE01D8DC40E050E02F
:104B60006CE0CE01D3DC40E050E06DE0CE01CEDC65
:104B700040E050E06FE0CE01C9DC40E050E060E191
:104B8000CE01C4DC47E050E061E1CE01BFDC40E093
:104B900050E062E1CE01BADC40E050E063E1CE01DA
:104BA000B5DC41E050E067E0CE01B0DC68EC70E0DD
:104BB00080E090E00E94AE4740E955E160E1CE011F
:104BC000A5DC47E252E061E1CE01A0DC62E370E0E7
:104BD00080E090E00E94AE474CE950E062E1CE01F7
:104BE00095DC62E370E080E090E00E94AE4740E038
:104BF00059E163E1CE018ADC43E250E069E2CE0193
:104C000085DC4EE050E06BE2CE0180DC62E370E0D8
:104C100080E090E00E94AE4740E050E060E2CE01CC
:104C200075DC40E050E061E2CE0170DC40E050E035
:104C300060E3CE016BDC44E054E061E3CE0166DC6E
:104C400043E050E062E3CE0161DC45E054E065E31F
:104C5000CE015CDC48E058E066E3CE0157DC47E07B
:104C600054E067E3CE0152DC43E053E068E3CE0159
:104C70004DDC47E057E069E3CE0148DC44E055E015
:104C80006CE3CE0143DC48E058E06DE3CE013EDC4E
:104C900040E050E060E5CE0139DC4FEE50E061E5E8
:104CA000CE0134DC40E050E062E5CE012FDC4FE382
:104CB00051E063E5CE012ADC40E057EA60E6CE0130
:104CC00025DC41E050E061E6CE0120DC40E050E030
:104CD0006AE6CE011BDC40E050E060E8CE0116DC65
:104CE00040E050E061E8CE0111DC40E050E062E8D5
:104CF000CE010CDC40E050E063E8CE0107DC40E090
:104D000050E064E8CE0102DC40E050E065E8CE010E
:104D1000FDDB40E150E060E9CE01F8DB40E050E02F
:104D200062E9CE01F3DB43E351E067E0CE01EEDB65
:104D30000C94A93644E850E066E2CE01E7DB68E275
:104D400070E080E090E00E94AE4748EB50E066E201
:104D5000CE01DCDB68E270E080E090E00E94AE47CC
:104D60004CEB50E066E2CE01D1DB64E170E080E024
:104D700090E00E94AE4740E050E060E6CE01C6DB26
:104D800046E050E061E6CE01C1DB40E050E062E683
:104D9000CE01BCDB48EC50E063E6CE01B7DB64E15A
:104DA00070E080E090E00E94AE4740E750E063E7AB
:104DB000CE01ACDB40E050E060E4CE01A7DB40E494
:104DC00050E061E4CE01A2DB45E450E062E4CE01B4
:104DD0009DDB41E050E063E4CE0198DB40E650E02B
:104DE00064E4CE0193DB45E050E065E4CE018EDB68
:104DF0004CE050E066E4CE0189DB41ED50E067E431
:104E0000CE0184DB45E050E068E4CE017FDB45E77E
:104E100050E060E5CE017ADB41E050E061E5CE0193
:104E200075DB47E650E062E5CE0170DB44E150E01F
:104E300063E5CE016BDB42EF50E064E5CE0166DB5B
:104E400047E050E065E5CE0161DB43E050E066E518
:104E5000CE015CDB49E450E067E5CE0157DB64E15D
:104E600070E080E090E00E94AE4743E050E06FE1E8
:104E7000CE014CDB40E050E060E2CE0147DB44E293
:104E800050E064E2CE0142DB44E350E065E2CE0153
:104E90003DDB4FE250E063E2CE0138DB64E170E0DD
:104EA00080E090E00E94AE4744E450E068E1CE012B
:104EB0002DDB41E050E061E2CE0128DB40E050E034
:104EC00061E0CE0123DB43E050E06CE1CE011EDB6C
:104ED00046E050E069E1CE0119DB64E170E080E07A
:104EE00090E00E94AE4744E850E066E2CE010EDB5F
:104EF00068E270E080E090E00E94AE4748EB50E04E
:104F000066E2CE0103DB68E270E080E090E00E94A0
:104F1000AE474CEB50E066E2CE01F8DA64E170E0B7
:104F200080E090E00E94AE4740E050E062E0CE01B9
:104F3000EDDA40E050E063E0CE01E8DA40E050E036
:104F400064E0CE01E3DA4FEA50E065E0CE01DEDA5C
:104F500040E050E066E0CE01D9DA40E050E067E0A2
:104F6000CE01D4DA40E050E068E0CE01CFDA4BED7C
:104F700050E069E0CE01CADA64E170E080E090E0E0
:104F80000E94AE4748E050E066E1CE01BFDA45E05E
:104F900050E067E1CE01BADA61E2CE0163DA62E2A3
:104FA000CE0160DA0C94A93661E1CE015BDA6CE0E7
:104FB00070E080E090E00E94AE4761EBCE0152DAF3
:104FC00061E0CE018BDA6CE2CE0188DA6DE2CE01CF
:104FD00085DA62EBCE0146DA61E0CE017FDA6CE27F
:104FE000CE017CDA6DE2CE0179DA63EBCE013ADAFA
:104FF00061E0CE0173DA6CE2CE0170DA6DE2CE01CF
:105000006DDA61E0CE016ADA6CE2CE0167DA6DE258
:10501000CE0164DA64EBCE0125DA67E0CE015EDA18
:1050200060ECCE011FDA62EACE0158DA62E0CE010E
:1050300055DA64E8CE0152DA61ECCE0113DA65ECA0
:10504000CE014CDA62ECCE010DDA6AE0CE0146DA2E
:1050500060E0CE0143DA63ECCE0104DA6AE8CE0107
:105060003DDA6AE2CE013ADA64ECCE01FBD96AE8B5
:10507000CE0134DA6EEECE0131DA65ECCE01F2D932
:105080006EE0CE012BDA66E3CE01ECD968EC73C09A
:1050900061E1CE01E7D96CE070E080E090E00E9431
:1050A000AE4761EBCE01DED961E0CE0117DA6CE2EA
:1050B000CE0114DA6DE2CE0111DA62EBCE01D2D963
:1050C00061E0CE010BDA6CE2CE0108DA6DE2CE01CE
:1050D00005DA63EBCE01C6D961E0CE01FFD96CE2FF
:1050E000CE01FCD96DE2CE01F9D961E0CE01F6D94D
:1050F0006CE2CE01F3D96DE2CE01F0D964EBCE01C2
:10510000B1D967E0CE01EAD960ECCE01ABD962EA51
:10511000CE01E4D962E0CE01E1D964E8CE01DED966
:1051200061ECCE019FD965ECCE01D8D962ECCE01FD
:1051300099D96AE0CE01D2D960E0CE01CFD963EC33
:10514000CE0190D96AE8CE01C9D96AE2CE01C6D9AA
:1051500064ECCE0187D96AE8CE01C0D96EEECE01EB
:10516000BDD965ECCE017ED96EE0CE01B7D966E33C
:10517000CE0178D960ECCE01B1D960EECE0172D902
:105180006FE0CE01ABD96AE1CE01A8D96FE0CE01C4
:10519000A5D968E1CE01A2D96FE2CE019FD968E21C
:1051A000CE019CD960E2CE0199D962E2CE0196D9B6
:1051B0006FE1CE0193D96BE1CE0190D963E2CE01CC
:1051C0008DD967E3CE018AD960E0CE0187D967E047
:1051D000CE0184D962E0CE0181D960E1CE017ED9D1
:1051E00061EECE013FD96FE0CE0178D96BE1CE01FF
:1051F00075D96FE0CE0172D967E1CE016FD963E353
:10520000CE016CD96CE2CE0169D969E2CE0166D9D2
:105210006EE2CE0163D960E3CE0160D960E3CE01D6
:105220005DD969E3CE015AD96FE3CE0157D960E069
:10523000CE0154D967E0CE0151D963E0CE014ED9F9
:1052400060E1CE014BD96AE2CE010CD960E0CE011B
:1052500045D960E0CE0142D960E0CE013FD96FE789
:10526000CE013CD96BE2CE01FDD860E0CE0136D94B
:1052700060E0CE0133D960E0CE0130D96FE9CE01D4
:105280002DD960EFCE01EED861E0CE0127D966EFCF
:10529000CE01E8D860E00C94653161E0CE01E2D83F
:1052A00065E2CE01DFD860E4CE0118D961E1CE011C
:1052B000D9D86AE070E080E090E00E94AE4760E2FA
:1052C000CE01D0D868E3CE01CDD869E2CE01CAD8EC
:1052D00063E1CE01C7D866E3CE01C4D860E6CE0153
:1052E000FDD86AE3CE01BED865E0CE01F7D86AE208
:1052F000CE01B8D860E0CE01F1D86FE7CE01EED88C
:1053000064EBCE01AFD863E0CE01E8D868E0CE010F
:10531000E5D86BE0CE01E2D86EE0CE01DFD86AEBD3
:10532000CE01A0D867E0CE01D9D86DE0CE01D6D8A5
:105330006BE2CE0197D860E0CE01D0D86FE75EC2B5
:1053400063E8CE018FD862E0CE01C8D865E8CE010F
:1053500089D863E0CE01C2D86BE8CE0183D861E082
:10536000CE01BCD86CE8CE017DD863E9CE01B6D8B9
:1053700061E9CE0177D861E0CE01B0D863E8CE0113
:1053800071D860E0CE01AAD86EE3CE016BD860EB95
:10539000CE01A4D86FE3CE0165D863E0CE019ED8DC
:1053A00060E4CE015FD860E1CE0198D861E4CE011F
:1053B00059D866E5CE0192D862E4CE0153D863E1B4
:1053C000CE018CD863E4CE014DD866E4CE0186D8F8
:1053D00064E4CE0147D863E2CE0180D865E4CE0113
:1053E00041D866E7CE017AD866E4CE013BD860E0CA
:1053F000CE0174D867E4CE0135D86EE5CE016ED803
:1054000068E4CE012FD86FE4CE0168D869E4CE01FC
:1054100029D860E4CE0162D867E1CE0123D861E9E2
:10542000CE015CD86BE2CE011DD869EFCE0156D813
:105430006AE070E080E090E00E94AE476BE1CE0150
:1054400011D864E1CE014AD86AE1CE010BD861E1FE
:10545000CE0144D86CE1CE0105D866E0CE013ED83D
:105460006FE1CE010E94322262E4CE0137D864E1BE
:1054700070E080E090E00E94AE4769E1CE010E94BA
:1054800032226AE0CE012AD869E1CE010E9432229E
:105490006AE1CE0123D868E270E080E090E00E94EB
:1054A000AE4769E1CE010E94322262E1CE0116D8F8
:1054B00068E270E080E090E00E94AE476EE1CE01CD
:1054C0000E94322267E2CE0109D864E670E080E0F3
:1054D00090E00E94AE4764E2CE010E94322260E674
:1054E000CE010E946E226DE3CE010E94322260E462
:1054F000CE010E946E2264E3CE010E94322268E354
:10550000CE010E946E2265E3CE010E94322268E342
:10551000CE010E946E2264E2CE010E94322268E334
:10552000CE010E946E2268E270E080E090E00E946E
:10553000AE4764E2CE010E9432226CE3CE010E94AB
:105540006E2266E1CE010E9432226CE1CE010E9401
:105550006E2261E0CE010E94322266E0CE010E94FE
:105560006E2265E5CE010E94322260E0CE010E94EB
:105570006E2262E0CE010E94322260E0CE010E94E3
:105580006E2263E0CE010E94322260E0CE010E94D2
:105590006E2264E0CE010E94322260E0CE010E94C1
:1055A0006E2265E0CE010E9432226FEECE010E9493
:1055B0006E2266E0CE010E94322260E0CE010E949F
:1055C0006E2267E0CE010E94322260E0CE010E948E
:1055D0006E2268E0CE010E94322261E0CE010E947C
:1055E0006E2269E0CE010E9432226FE8CE010E9455
:1055F0006E22D5CC62EECE010E94322263E2CE0151
:105600000E946E2262E0CE010E946E2264E5CE010D
:105610000E946E2260EECE010E94322261E0CE0135
:105620000E946E226AE070E080E090E00E94AE4747
:1056300060EECE010E94322263E0CE010E946E2213
:105640006AE070E080E090E00E94AE4761E0CE0149
:105650000E94322264E670E080E090E00E94AE4753
:1056600066EECE010E94322261E0CE010E946E22DF
:105670006FE1CE010E946E226FEFCE010E946E227A
:1056800060EBCE010E94322260E2CE010E946E22C7
:1056900060E0CE010E946E2261E0CE010E946E2287
:1056A0006FEDCE010E946E2261E0CE010E946E225B
:1056B0006FE0CE010E946E2260E0CE010E946E2259
:1056C00064EBCE010E94322262E0CE010E946E2283
:1056D00063E1CE010E946E2260E0CE010E946E2244
:1056E00068E0CE010E946E226BE2CE010E946E2223
:1056F00060E0CE010E946E2262E0CE010E946E2226
:1057000060E0CE010E946E2266EBCE010E94322242
:1057100061E0CE010E946E2260E2CE010E946E2204
:1057200060E0CE010E946E2264E0CE010E946E22F3
:105730006CE0CE010E946E2260E0CE010E946E22DB
:1057400062E0CE010E946E226AEBCE010E943222FC
:105750006FE0CE010E946E2268EBCE010E943222E1
:1057600067E0CE010E946E2261E0CE010E946E22AF
:1057700066E3CE010E94322262E2CE010E946E22D6
:1057800060EFCE010E94322263E0CE010E946E22C1
:1057900061E070E080E090E00E94AE470FE011E031
:1057A0002FED31E040E050E060E070E0CE010E947B
:1057B000952269E2CE010E9432226EEBCE010E9458
:1057C000322266E0CE010E946E2260EFCE010E947E
:1057D0006E2261E0CE010E946E2260EFCE010E9437
:1057E0006E2260E0CE010E946E2260E0CE010E9437
:1057F0006E2260EDCE010E9432226DE0CE010E9449
:105800006E220C94A83562EECE010E9432226EE127
:10581000CE010E946E2262E0CE010E946E2264E5FB
:10582000CE010E946E2260EECE010E94322261E023
:10583000CE010E946E226AE070E080E090E00E945B
:10584000AE4760EECE010E94322263E0CE010E949C
:105850006E226AE070E080E090E00E94AE4761E076
:10586000CE010E94322264E670E080E090E00E9467
:10587000AE4766EECE010E94322263E0CE010E9466
:105880006E226FEFCE010E946E226FEFCE010E945A
:105890006E2260EBCE010E94322264E2CE010E94B1
:1058A0006E2260E0CE010E946E2263E0CE010E9473
:1058B0006E226FE1CE010E946E2261E0CE010E9455
:1058C0006E226FEDCE010E946E2260E0CE010E943A
:1058D0006E2264EBCE010E94322263E0CE010E9470
:1058E0006E2260EACE010E946E2260E0CE010E942C
:1058F0006E226EE2CE010E946E2260E3CE010E9413
:105900006E2260E0CE010E946E226FE0CE010E9406
:105910006E2260E0CE010E946E2266EBCE010E94F4
:10592000322262E0CE010E946E226DE0CE010E9422
:105930006E2260E0CE010E946E2260E1CE010E94E4
:105940006E2260E1CE010E946E2260E0CE010E94D4
:105950006E2268E0CE010E946E226AEBCE010E94A8
:1059600032226FE0CE010E946E2268EBCE010E94CF
:10597000322267E0CE010E946E2261E0CE010E94D9
:105980006E2266E3CE010E94322262E2CE010E94C4
:105990006E2260EFCE010E94322263E0CE010E94AF
:1059A0006E2261E070E080E090E0D2C062EECE0155
:1059B0000E94322263E2CE010E946E2262E0CE019A
:1059C0000E946E2264E0CE010E946E2260EECE0143
:1059D0000E94322261E0CE010E946E226AE070E0F5
:1059E00080E090E00E94AE4760EECE010E9432223D
:1059F00063E0CE010E946E226AE070E080E090E0F9
:105A00000E94AE4761E0CE010E94322264E670E05F
:105A100080E090E00E94AE4766EECE010E94322206
:105A200064E0CE010E946E2263E9CE010E946E22E4
:105A300060EECE010E946E2260EBCE010E94322207
:105A400060E0CE010E946E2260E0CE010E946E22D4
:105A500063E0CE010E946E226FE1CE010E946E22B1
:105A600061E0CE010E946E226FEDCE010E946E2297
:105A700060E0CE010E946E2264EBCE010E943222D1
:105A800063E0CE010E946E2260EACE010E946E2287
:105A900060E0CE010E946E226EE2CE010E946E2274
:105AA00060E3CE010E946E2260E0CE010E946E2271
:105AB0006FE0CE010E946E2260E0CE010E946E2255
:105AC00066EBCE010E94322262E0CE010E946E227D
:105AD0006DE0CE010E946E2260E0CE010E946E2237
