:100000000C9463000C948B000C948B000C948B006C
:100010000C948B000C948B000C948B000C940A03B2
:100020000C948B000C948B000C948B000C948B0024
:100030000C948B000C9431030C948B000C948B006B
:100040000C94D1060C948B000C9416050C94480566
:100050000C948B000C948B000C948B000C948B00F4
:100060000C948B000C948B0000000008000201002F
:100070000003040700000000000000000102040863
:100080001020408001020408102001020408102002
:10009000040404040404040402020202020203032E
:1000A00003030303000000002300260029000000D2
:1000B0000000250028002B0000000000240027007D
:1000C0002A009501780511241FBECFEFD4E0DEBFD2
:1000D000CDBF11E0A0E0B1E0E6E2F3E102C005909F
:1000E0000D92A233B107D9F721E0A2E3B1E001C03C
:1000F0001D92AB3FB207E1F710E0C3E6D0E004C0C9
:100100002197FE010E947C09C136D107C9F70E94E0
:10011000A6050C9491090C94000086E391E00E94DE
:1001200068028823D9F0609136017091370180917F
:1001300038019091390129E330E040E050E00E941D
:1001400030092550310937FD05C030934C0120930B
:100150004B01089510924C0110924B01089526E036
:1001600040E052EC61E070E085E591E00E94B1046E
:1001700061E089E00E94730861E086E00E947308F4
:100180000E941B0760933201709333018093340106
:100190009093350140ED57E060E070E08FE491E02E
:1001A0000E94C0032FEF3FEFA90162E771E08FE4E7
:1001B00091E00C94D003CF92DF92EF92FF920E94D5
:1001C0001B07C0903201D0903301E0903401F090D1
:1001D00035016C157D058E059F05D0F0209100013D
:1001E00030910101D701C601820F931FA11DB11DDE
:1001F0008093320190933301A0933401B093350181
:1002000048E250E06DE870E086E391E00E94EB0286
:1002100063E071E085E591E00E94F40560914B0197
:1002200070914C014AE050E085E591E00E94CA06D9
:100230006AE071E085E591E00E9401066DE071E001
:1002400085E591E00E94F4054AE050E060914801A4
:1002500085E591E00E94700662E370E080E090E046
:10026000FF90EF90DF90CF900C944C07AF92BF922D
:10027000CF92DF92EF92FF920F931F93682F660F3A
:10028000680F660FA0904A01209149016A1518F085
:10029000261718F41BC06217D8F0B12CC12CD12C32
:1002A00070E080E090E01F921F921F922F93E12C4C
:1002B000F12C8701EA9420E030E0A9010E94DE08D9
:1002C000862F0F900F900F900F9003C0A61628F75F
:1002D00080E01F910F91FF90EF90DF90CF90BF9043
:1002E000AF90089580E00E94CE07959587959595EB
:1002F000879580934A0181E00E94CE079595879566
:10030000959587958093490180914B010E94360114
:1003100080934801682F70E089E00E94EB076091AC
:10032000480170E086E00C94EB0728E230E04BE0F7
:100330006CE086E391E00C9420020F931F93CF931F
:10034000DF93EC01EA85FB8590818C81892B80838A
:10035000EE81FF8190818C8180958923808384E068
:1003600090E00E948807EE81FF8190818C81892B2B
:1003700080838AE090E00E948807EE81FF8190816F
:100380008C81809589238083EA85FB8590818C818F
:10039000809589238083E885F98590818D818923E3
:1003A00011F080E036C00E9427072C853D85890129
:1003B00020E030E00855194E2F4F3F4FDC01CB01B4
:1003C000800F911FA21FB31F8E879F87A88BB98BA9
:1003D000E885F98590818D81892361F40E94270742
:1003E0000E851F85288939890617170728073907B9
:1003F00078F7D7CF0E9427072C853D85DC01CB01FC
:10040000820F931FA11DB11D8E879F87A88BB98B6B
:1004100081E0DF91CF911F910F9108956F5F7F4F22
:1004200049E3469F9001479F300D11242E384FE637
:10043000340710F02DE83FE6FC0135872487089546
:10044000DC0170E0FB01E458FF4FE4911496EC935B
:10045000149750E0FA01E458FF4FE4911596EC939D
:10046000159760577F4FFB018491E82FF0E0EE0F66
:10047000FF1FE255FF4F8591949117969C938E93A1
:100480001697FA01E057FF4FE491F0E0EE0FFF1FDF
:10049000EC55FF4F8591949119969C938E931897E4
:1004A000FB016491E62FF0E0EE0FFF1FE854FF4FD1
:1004B000859194911B969C938E931A97B901CD01C7
:1004C0000C940E02E0E7F0E080818D7F8083089538
:1004D0008F929F92AF92BF92CF92DF92EF92FF9254
:1004E0000F931F93CF93DF93EC010E9427070E8594
:1004F0001F8528893989061717072807390718F42F
:100500000E9462022BC0E885F98590818D81892344
:1005100029F50E9462020E9427072C853D8569010A
:10052000E12CF12C0E851F85288939894601570158
:10053000801A910AA20AB30A950184010D5011098B
:1005400021093109DC01CB01800F911FA21FB31FCC
:1005500088839983AA83BB8381E001C080E0DF9117
:10056000CF911F910F91FF90EF90DF90CF90BF90B0
:10057000AF909F908F9008950E946202E6EBF0E0AA
:1005800080818F7D808382E08093B00084E08093BF
:10059000B1001092B2000895CF93DF93EC017093F5
:1005A0004E0160934D010E94BC02CE019695879545
:1005B0009695879501978F3F910519F010F08FEF71
:1005C00090E08093B300809170008260809370000F
:1005D000DF91CF9108950F931F93CF93DF93EC0199
:1005E0008B014115510519F0BA010E940E02CE018E
:1005F0000E949D01882349F0B80188E190E0DF91D5
:10060000CF911F910F910C94CC02DF91CF911F914C
:100610000F9108951F920F920FB60F9211242F93EE
:100620003F934F935F936F937F938F939F93AF937A
:10063000BF93EF93FF93E0914D01F0914E01099527
:10064000FF91EF91BF91AF919F918F917F916F91AA
:100650005F914F913F912F910F900FBE0F901F9080
:1006600018951F920F920FB60F9211242F933F935C
:100670004F935F936F937F938F939F93AF93BF93AA
:10068000EF93FF93E0915301F09154010995FF918D
:10069000EF91BF91AF919F918F917F916F915F91FA
:1006A0004F913F912F910F900FBE0F901F90189573
:1006B000FC01A3E0440F551F661F771FAA95D1F7D1
:1006C0004115510581E06807710514F481E00EC001
:1006D00033E075956795579547953A95D1F741154C
:1006E000510581E0680771051CF482E0828331C006
:1006F00023E075956795579547952A95D1F741154C
:10070000510581E06807710514F483E0EFCF92E0B2
:1007100075956795579547959A95D1F74115510568
:1007200081E06807710514F484E0E0CF82E07595FC
:100730006795579547958A95D1F785E0828341154E
:10074000510581E06807710524F04FEF5FEF60E02D
:1007500070E08FB78383F894518340835093870070
:100760004093860083818FBF80918100887F809332
:100770008100909181008281892B8093810008956E
:100780001092800020E1209381000C945803E1E84E
:10079000F0E02081DC0112968C91822B80830895F9
:1007A0000F931F93CF93DF93EC018B01BA01A90143
:1007B000141615061606170614F40E9458031D8316
:1007C0000C8381E080936F00CE01DF91CF911F9168
:1007D0000F910C94C703FC01918D228D892F90E01D
:1007E000805C9F4F821B91098F7399270895FC01AC
:1007F000918D828D981731F0828DE80FF11D858DD6
:1008000090E008958FEF9FEF0895FC01918D828D08
:10081000981761F0828DDF01A80FB11D5D968C9154
:10082000928D9F5F9F73928F90E008958FEF9FEF5F
:1008300008958EE695E0892B49F080E090E0892BC1
:1008400029F00E946E0581110C9400000895FC01AE
:10085000848DDF01A80FB11DA35ABF4F2C91848D49
:1008600090E001968F739927848FA689B7892C937E
:10087000A089B1898C9180648C93938D848D981319
:1008800006C00288F389E02D80818F7D80830895E2
:10089000EF92FF920F931F93CF93DF93EC0181E0D0
:1008A000888F9B8D8C8D981305C0E889F98980818C
:1008B00085FD24C0F62E0B8D10E00F5F1F4F0F73C8
:1008C0001127E02E8C8DE8120CC00FB607FCFACF72
:1008D000E889F989808185FFF5CFCE010E94270440
:1008E000F1CF8B8DFE01E80FF11DE35AFF4FF0822F
:1008F0000B8FEA89FB898081806207C0EE89FF89BE
:100900006083E889F98980818064808381E090E058
:10091000DF91CF911F910F91FF90EF900895CF93AA
:10092000DF93EC01888D8823C9F0EA89FB898081F7
:1009300085FD05C0A889B9898C9186FD0FC00FB6C9
:1009400007FCF5CF808185FFF2CFA889B9898C910A
:1009500085FFEDCFCE010E942704E7CFDF91CF9135
:100960000895CF92DF92EF92FF921F93CF93DF9380
:10097000EC016A017B01122FE889F98982E080830A
:100980004115514E61057105B1F060E079E08DE3EC
:1009900090E0A70196010E943009DA01C901019790
:1009A000A109B109B695A795979587959C01211541
:1009B00080E13807A8F0E889F989108260E874E8D6
:1009C0008EE190E0A70196010E943009DA01C90189
:1009D0000197A109B109B695A795979587959C01AF
:1009E000EC85FD853083EE85FF852083188EEC89AC
:1009F000FD891083EA89FB89808180618083EA898F
:100A0000FB89808188608083EA89FB898081806896
:100A10008083EA89FB8980818F7D8083DF91CF91FC
:100A20001F91FF90EF90DF90CF9008951F920F924B
:100A30000FB60F9211242F938F939F93EF93FF93F1
:100A4000E0916501F09166018081E0916B01F09188
:100A50006C0182FD12C0908180916E018F5F8F7357
:100A600020916F01821751F0E0916E01F0E0EB5A96
:100A7000FE4F958F80936E0101C08081FF91EF91B1
:100A80009F918F912F910F900FBE0F901F901895EF
:100A90001F920F920FB60F9211242F933F934F93F3
:100AA0005F936F937F938F939F93AF93BF93EF93D6
:100AB000FF9385E591E00E942704FF91EF91BF919C
:100AC000AF919F918F917F916F915F914F913F91E6
:100AD0002F910F900FBE0F901F90189585E591E014
:100AE0000E94EB0321E0892B09F420E0822F089576
:100AF000E5E5F1E01382128288EE93E0A0E0B0E039
:100B000084839583A683B78386E191E09183808374
:100B100085EC90E09587848784EC90E097878687C2
:100B200080EC90E0918B808B81EC90E0938B828BBA
:100B300082EC90E0958B848B86EC90E0978B868B93
:100B4000118E128E138E148E089508950E949307AD
:100B50000E94A5050E94AF00C9E1D4E00E94DB001D
:100B60002097E1F30E941904F9CFCF92DF92EF9220
:100B7000FF920F931F93CF93DF936C017A018B0148
:100B8000C0E0D0E0CE15DF0581F0D8016D918D0178
:100B9000D601ED91FC910190F081E02DC6010995FF
:100BA000892B11F02196EECF7E01C701DF91CF9105
:100BB0001F910F91FF90EF90DF90CF9008956115F6
:100BC000710579F0FB0101900020E9F73197AF0141
:100BD000461B570BDC01ED91FC910280F381E02D67
:100BE000099480E090E008950C94DF05DC01ED911C
:100BF000FC910190F081E02D099462E271E00C9487
:100C0000DF050F931F93CF93DF93EC010E94DF0565
:100C10008C01CE010E94FD05800F911FDF91CF91C5
:100C20001F910F9108958F929F92AF92BF92EF9272
:100C3000FF920F931F93CF93DF93CDB7DEB7A197AA
:100C40000FB6F894DEBF0FBECDBF7C01FA01CB0119
:100C500019A2223008F42AE08E010F5D1F4F822E68
:100C6000912CA12CB12CBF01A50194010E94300947
:100C7000F901CA01015011096A3010F4605D01C028
:100C8000695CD8016C93232B242B252B61F7B801C9
:100C9000C7010E94DF05A1960FB6F894DEBF0FBE14
:100CA000CDBFDF91CF911F910F91FF90EF90BF903B
:100CB000AF909F908F9008952115310541F4DC018C
:100CC000ED91FC910190F081E02D642F09940C943A
:100CD00013069A01462F50E060E070E00C945C0629
:100CE0000F931F93CF93DF93EC010E9469068C0151
:100CF000CE010E94FD05800F911FDF91CF911F91C2
:100D00000F910895CF92DF92EF92FF920F931F936E
:100D1000CF93DF932115310581F4DC01ED91FC9136
:100D20000190F081E02D642FDF91CF911F910F9101
:100D3000FF90EF90DF90CF9009942A30310501F5B4
:100D400077FF1DC06A017B01EC016DE20E94F60590
:100D50008C0144275527BA014C195D096E097F099A
:100D60002AE0CE010E941306800F911FDF91CF91E0
:100D70001F910F91FF90EF90DF90CF9008952AE0A0
:100D8000DF91CF911F910F91FF90EF90DF90CF9067
:100D90000C9413069A01AB01770F660B770B0C943A
:100DA00082061F920F920FB60F9211242F933F933A
:100DB0008F939F93AF93BF938091F3019091F40130
:100DC000A091F501B091F6013091F20123E0230FDB
:100DD0002D3720F40196A11DB11D05C026E8230F73
:100DE0000296A11DB11D2093F2018093F30190930F
:100DF000F401A093F501B093F6018091F701909171
:100E0000F801A091F901B091FA010196A11DB11D5F
:100E10008093F7019093F801A093F901B093FA0140
:100E2000BF91AF919F918F913F912F910F900FBEE6
:100E30000F901F9018952FB7F8946091F30170915F
:100E4000F4018091F5019091F6012FBF08953FB70D
:100E5000F8948091F7019091F801A091F901B09177
:100E6000FA0126B5A89B05C02F3F19F00196A11DD8
:100E7000B11D3FBFBA2FA92F982F8827820F911D30
:100E8000A11DB11DBC01CD0142E0660F771F881F77
:100E9000991F4A95D1F708958F929F92AF92BF9272
:100EA000CF92DF92EF92FF926B017C010E942707A5
:100EB0004B015C01C114D104E104F10401F10E9471
:100EC0001F090E942707DC01CB0188199909AA098B
:100ED000BB09883E9340A105B10560F321E0C21A29
:100EE000D108E108F10888EE880E83E0981EA11C65
:100EF000B11CC114D104E104F10419F7DBCFFF9058
:100F0000EF90DF90CF90BF90AF909F908F9008951B
:100F10008230910538F0880F991F880F991F059727
:100F20000197F1F70895789484B5826084BD84B503
:100F3000816084BD85B5826085BD85B5816085BDD4
:100F4000EEE6F0E0808181608083E1E8F0E01082ED
:100F5000808182608083808181608083E0E8F0E02E
:100F6000808181608083E1EBF0E080818460808318
:100F7000E0EBF0E0808181608083EAE7F0E080814F
:100F800084608083808182608083808181608083AF
:100F90008081806880831092C10008958E3008F0AF
:100FA0008E502091020190E4299F900111248770B6
:100FB000822B80937C0080917A00806480937A00F9
:100FC00080917A0086FDFCCF809178002091790095
:100FD00090E0922B08951F93CF93DF93182FEB018E
:100FE00061E00E947308209711F460E004C0CF3FD5
:100FF000D10539F461E0812FDF91CF911F910C94DD
:10100000AF08E12FF0E0E859FF4FE491E330F9F049
:1010100048F4E130B9F0E230A1F584B5806284BDD6
:10102000C8BD34C0E730E9F0E83019F1E43049F5E3
:1010300080918000806280938000D0938B00C09369
:101040008A0024C084B5806884BDC7BD1FC080915C
:101050008000806880938000D0938900C0938800CE
:1010600015C08091B00080688093B000C093B30039
:101070000DC08091B00080628093B000C093B40036
:1010800005C0C038D1050CF0B5CFAFCFDF91CF91FF
:101090001F910895833081F028F4813099F08230D7
:1010A000A1F008958730A9F08830B9F08430D1F4E8
:1010B000809180008F7D03C0809180008F77809326
:1010C0008000089584B58F7702C084B58F7D84BD7C
:1010D00008958091B0008F7703C08091B0008F7D1C
:1010E0008093B0000895CF93DF9390E0FC01E45823
:1010F000FF4F2491FC01E057FF4F8491882361F159
:1011000090E0880F991FFC01E854FF4FC591D491DE
:10111000FC01E255FF4FA591B491611109C09FB741
:10112000F8948881209582238883EC912E230BC02C
:10113000623061F49FB7F8948881322F3095832311
:101140008883EC912E2B2C939FBF06C08FB7F89409
:10115000E8812E2B28838FBFDF91CF9108951F93B5
:10116000CF93DF93282F30E0F901E859FF4F8491A6
:10117000F901E458FF4FD491F901E057FF4FC491B2
:10118000CC23C1F0162F81110E944A08EC2FF0E009
:10119000EE0FFF1FE255FF4FA591B4919FB7F89452
:1011A000111104C08C91D095D82302C0EC91DE2B94
:1011B000DC939FBFDF91CF911F9108954F925F9273
:1011C0006F927F92AF92BF92CF92DF92EF92FF9297
:1011D0000F931F93CF93DF93CDB7DEB729013A0169
:1011E0009B01AC01241935094609570989899A8957
:1011F000AB89BC89BC01CD016A197B098C099D09A9
:101200000E942009A80197012419350946095709A8
:101210000E945209CA01B9016A0D7B1D8C1D9D1DDA
:10122000DF91CF911F910F91FF90EF90DF90CF90C2
:10123000BF90AF907F906F905F904F90089508950A
:10124000DB018F939F930E947109BF91AF91A29F81
:10125000800D911DA39F900DB29F900D11240895B4
:10126000A1E21A2EAA1BBB1BFD010DC0AA1FBB1FAA
:10127000EE1FFF1FA217B307E407F50720F0A21B1C
:10128000B30BE40BF50B661F771F881F991F1A9489
:1012900069F760957095809590959B01AC01BD01B3
:1012A000CF010895052E97FB1EF400940E94690952
:1012B00057FD07D00E94300907FC03D04EF40C9470
:1012C000690950954095309521953F4F4F4F5F4F9D
:1012D000089590958095709561957F4F8F4F9F4FA2
:1012E00008950E948209A59F900DB49F900DA49F20
:1012F000800D911D11240895EE0FFF1F0590F491AC
:10130000E02D0994A29FB001B39FC001A39F700D6F
:10131000811D1124911DB29F700D811D1124911DFD
:061320000895F894FFCFD0
:1013260032000150696E673A2000636D0043563AF9
:101336002000000000004804B505EB030504F70390
:101346008F040D0A006E616E00696E66006F766628
:02135600000095
:00000001FF
