S01700004F7363696C6C61746F7253796E74682E73726563DB
S11300000C9437000C945F000C945F000C945F0018
S11300100C945F000C945F000C945F000C945F00E0
S11300200C945F000C945F000C945F000C945F00D0
S11300300C945F000C94AD000C94C3020C945F000C
S11300400C94D8050C945F000C9424040C9456046E
S11300500C945F000C9448010C945F000C945F00B6
S11300600C9436020C945F00FA007A018604112481
S11300701FBECFEFD8E0DEBFCDBF11E0A0E0B1E0FE
S1130080EEE0FDE002C005900D92A632B107D9F76B
S113009024E0A6E2B1E001C01D92A732B207E1F765
S11300A010E0C7E3D0E004C02197FE010E947F0660
S11300B0C433D107C9F70E94B4040C9485060C9488
S11300C000000E94810126E040E855E260E070E013
S11300D081E893E00C94BF0363E088E00E94AF01E1
S11300E063E08AE291E00E94D30160912A0167FDF6
S11300F033C06F70609329014AE050E081E893E0D7
S11301000E94700562E071E081E893E00E940005BE
S113011060912A0170E084E0759567958A95E1F70E
S1130120609328014AE050E081E893E00E94700562
S113013062E071E081E893E00E94000560912B0188
S113014070912C0170932701609326014AE050E0DE
S113015081E893E00C94C60508951F920F920FB6A0
S11301600F9211242F933F938F939F93AF93BF9339
S1130170EF93FF9380912D0191E0892780932D01C6
S1130180882359F180912E03E82FF0E0EE0FFF1F32
S1130190E25DFE4F208131818F5F80932E038111B8
S11301A018C08091300398279093300380913203D4
S11301B090913303A0913403B09135030196A11DAE
S11301C0B11D8093320390933303A0933403B0930F
S11301D035033093890020938800FF91EF91BF91FC
S11301E0AF919F918F913F912F910F900FBE0F90E0
S11301F01F90189510922E0310922F031092300323
S11302001092310308958770806480937C00EAE73C
S1130210F0E08081806480830895CF93DF931F9200
S1130220CDB7DEB780913E0390913F038F3F2FEF10
S1130230920761F0FC01EA5CFC4F2081298301975D
S113024090933F0380933E03898101C08FEF809395
S11302500101809101018F3F21F0809101010E94F1
S113026003010F90DF91CF910895EAE7F0E08081D8
S1130270806480830895E0910101809178009091D9
S11302807900EE0FFF0BE05CFC4F918380830895AF
S11302901F920F920FB60F9211242F933F934F93F7
S11302A05F936F937F938F939F93AF93BF93EF93DA
S11302B0FF9380910001882329F00E943501109258
S11302C0000107C00E943B010E940D0181E0809360
S11302D00001FF91EF91BF91AF919F918F917F9119
S11302E06F915F914F913F912F910F900FBE0F909F
S11302F01F9018958FEF9FEF90933F0380933E03D9
S11303000895109257031092560310927D03449A55
S1130310459AE9EBF0E080818E7F808380818D7F38
S1130320808388E48093B80085E48093BC000895BA
S113033082E080937D038FEF8093580310925A03D9
S11303408091500381508093590380915103880F09
S1130350816080937B0385EE8093BC0008956132B5
S113036010F080E0089560935003809351038091CE
S11303707D03811103C00E94980103C081E0809332
S11303807D03809158038F3F61F38091580380323D
S113039031F080915803803321F084E0089582E0A5
S11303A0089583E00895FC01862FABE5B3E09C91AA
S11303B0908311969C911197918312969C919283AC
S11303C0089584E080937D038FEF80935803109207
S11303D05A03809152038093590390915303ABE5E0
S11303E0B3E0E92FF09154032E2F291B281718F49A
S11303F021912D93F9CF8091550390E0880F991F97
S113040080937B0385EE8093BC00089585ED8093F3
S1130410BC008091BC0084FDFCCF80917D0380935F
S11304207C0310927D0380917C03833011F40C943F
S1130430E10180917C03813011F40C9498010895BA
S113044085EC8093BC0080917D0380937C031092A3
S11304507D0380917C03833011F40C94E10180913D
S11304607C03813011F40C94980108951F920F922B
S11304700FB60F9211242F933F934F935F936F9373
S11304807F938F939F93AF93BF93EF93FF93809149
S1130490B900887F883239F170F4803109F130F481
S11304A0882309F45BC08830D9F05CC08831D9F066
S11304B0803261F157C08034C1F150F4803331F19E
S11304C0883309F04FC0809358030E9420024AC029
S11304D08035F9F08835A9F1883409F043C040C06B
S11304E080917B0310C090915A038091590398170F
S11304F0B8F5E0915A0381E08E0F80935A03F0E03F
S1130500E55AFC4F80818093BB0015C0809358034B
S113051027C0E0915A0381E08E0F80935A038091A3
S1130520BB00F0E0E55AFC4F808390915A03809120
S11305305903981710F485EC01C085E88093BC003A
S113054011C0E0915A0381E08E0F80935A03809189
S1130550BB00F0E0E55AFC4F808302C010925803C0
S11305600E940602FF91EF91BF91AF919F918F91ED
S11305707F916F915F914F913F912F910F900FBE9B
S11305800F901F90189578941F920F920FB60F92A8
S113059011242F933F934F935F936F937F938F9384
S11305A09F93AF93BF93EF93FF9310926E00E091EC
S11305B07E03F0917F030995F8948091800388234A
S11305C011F016BCA99A80916E00826080936E002F
S11305D0FF91EF91BF91AF919F918F917F916F9117
S11305E05F914F913F912F910F900FBE0F901F90ED
S11305F01895FC01918D228D892F90E0805C9F4F8E
S1130600821B91098F7399270895FC01918D828D26
S1130610981731F0828DE80FF11D858D90E00895D3
S11306208FEF9FEF0895FC01918D828D981761F0F3
S1130630828DDF01A80FB11D5D968C91928D9F5F15
S11306409F73928F90E008958FEF9FEF08958CE74A
S113065094E0892B49F080E090E0892B29F00E94F6
S11306607C0481110C9400000895FC01848DDF0149
S1130670A80FB11DA35ABF4F2C91848D90E0019611
S11306808F739927848FA689B7892C93A089B18900
S11306908C9180648C93938D848D981306C002880A
S11306A0F389E02D80818F7D80830895EF92FF92FE
S11306B00F931F93CF93DF93EC0181E0888F9B8D81
S11306C08C8D981305C0E889F989808185FD24C043
S11306D0F62E0B8D10E00F5F1F4F0F731127E02EC6
S11306E08C8DE8120CC00FB607FCFACFE889F989A3
S11306F0808185FFF5CFCE010E943503F1CF8B8D2C
S1130700FE01E80FF11DE35AFF4FF0820B8FEA89D7
S1130710FB898081806207C0EE89FF896083E88954
S1130720F98980818064808381E090E0DF91CF91BA
S11307301F910F91FF90EF900895CF93DF93EC01F9
S1130740888D8823C9F0EA89FB89808185FD05C0ED
S1130750A889B9898C9186FD0FC00FB607FCF5CF27
S1130760808185FFF2CFA889B9898C9185FFEDCF6F
S1130770CE010E943503E7CFDF91CF910895CF9248
S1130780DF92EF92FF921F93CF93DF93EC016A0104
S11307907B01122FE889F98982E080834115514E4B
S11307A061057105B1F060E079E08DE390E0A701A7
S11307B096010E945D06DA01C9010197A109B109F8
S11307C0B695A795979587959C01211580E13807E3
S11307D0A8F0E889F989108260E874E88EE190E075
S11307E0A70196010E945D06DA01C9010197A109DA
S11307F0B109B695A795979587959C01EC85FD85DC
S11308003083EE85FF852083188EEC89FD89108363
S1130810EA89FB89808180618083EA89FB89808100
S113082088608083EA89FB89808180688083EA8983
S1130830FB8980818F7D8083DF91CF911F91FF9011
S1130840EF90DF90CF9008951F920F920FB60F9202
S113085011242F938F939F93EF93FF93E091910330
S1130860F09192038081E0919703F091980382FDC7
S113087012C0908180919A038F5F8F7320919B03A4
S1130880821751F0E0919A03F0E0EF57FC4F958FF7
S113089080939A0301C08081FF91EF919F918F9182
S11308A02F910F900FBE0F901F9018951F920F92CB
S11308B00FB60F9211242F933F934F935F936F932F
S11308C07F938F939F93AF93BF93EF93FF9381E8AD
S11308D093E00E943503FF91EF91BF91AF919F91F7
S11308E08F917F916F915F914F913F912F910F90D5
S11308F00FBE0F901F90189581E893E00E94F902B3
S113090021E0892B09F420E0822F0895E1E8F3E047
S11309101382128288EE93E0A0E0B0E08483958392
S1130920A683B78388E091E09183808385EC90E08F
S11309309587848784EC90E09787868780EC90E0A5
S1130940918B808B81EC90E0938B828B82EC90E096
S1130950958B848B86EC90E0978B868B118E128E10
S1130960138E148E089508950E9422060E94B304E3
S11309700E946100C7E2D3E00E946C002097E1F37B
S11309800E942703F9CFCF92DF92EF92FF920F9349
S11309901F93CF93DF936C01EB017B01E40EF51EF3
S11309A000E010E0CE15DF0561F06991D601ED910C
S11309B0FC910190F081E02DC6010995080F191FE3
S11309C0F1CFC801DF91CF911F910F91FF90EF906C
S11309D0DF90CF9008956115710579F0FB010190C6
S11309E00020E9F73197AF01461B570BDC01ED916D
S11309F0FC910280F381E02D099480E090E0089559
S1130A000C94EB04DC01ED91FC910190F081E02D5C
S1130A10099464E171E00C94EB048F929F92AF927D
S1130A20BF92CF92DF92EF92FF920F931F93CF93D7
S1130A30DF93CDB7DEB7A1970FB6F894DEBF0FBE34
S1130A40CDBF6C01142FE52FCB01022F19A2223048
S1130A5008F40AE07E0121E2E20EF11C802E912CC2
S1130A60A12CB12C612F7E2FA50194010E945D065B
S1130A70029F1019112481E0E81AF1081A3010F4C9
S1130A80105D01C0195CF7011083122FE32FCA0116
S1130A90232B242B252B31F7B701C6010E94EB042D
S1130AA0A1960FB6F894DEBF0FBECDBFDF91CF91F4
S1130AB01F910F91FF90EF90DF90CF90BF90AF9078
S1130AC09F908F9008952115310541F4DC01ED913B
S1130AD0FC910190F081E02D642F09940C940D0594
S1130AE09A01462F50E060E070E00C946305CF92C9
S1130AF0DF92EF92FF920F931F93CF93DF93211511
S1130B00310581F4DC01ED91FC910190F081E02D3F
S1130B10642FDF91CF911F910F91FF90EF90DF90A1
S1130B20CF9009942A30310501F577FF1DC06A0181
S1130B307B01EC016DE20E9402058C0144275527DC
S1130B40BA014C195D096E097F092AE0CE010E94A1
S1130B500D05800F911FDF91CF911F910F91FF9091
S1130B60EF90DF90CF9008952AE0DF91CF911F910D
S1130B700F91FF90EF90DF90CF900C940D059A01A8
S1130B80AB01770F660B770B0C9477050F931F93CC
S1130B90CF93DF93EC010E94BF058C01CE010E942C
S1130BA00905800F911FDF91CF911F910F91089537
S1130BB01F920F920FB60F9211242F933F938F938E
S1130BC09F93AF93BF9380911F0490912004A091B1
S1130BD02104B091220430911E0423E0230F2D3709
S1130BE020F40196A11DB11D05C026E8230F02962D
S1130BF0A11DB11D20931E0480931F049093200413
S1130C00A0932104B093220480912304909124049E
S1130C10A0912504B09126040196A11DB11D8093D5
S1130C20230490932404A0932504B0932604BF9135
S1130C30AF919F918F913F912F910F900FBE0F9085
S1130C401F901895789484B5826084BD84B58160C2
S1130C5084BD85B5826085BD85B5816085BDEEE6C0
S1130C60F0E0808181608083E1E8F0E0108280819F
S1130C7082608083808181608083E0E8F0E080810D
S1130C8081608083E1EBF0E0808184608083E0EB2D
S1130C90F0E0808181608083EAE7F0E08081846015
S1130CA08083808182608083808181608083808171
S1130CB0806880831092C1000895A1E21A2EAA1BB5
S1130CC0BB1BFD010DC0AA1FBB1FEE1FFF1FA217F8
S1130CD0B307E407F50720F0A21BB30BE40BF50BF5
S1130CE0661F771F881F991F1A9469F7609570957E
S1130CF0809590959B01AC01BD01CF010895EE0F45
S1110D00FF1F0590F491E02D0994F894FFCFA5
S1130D0E01FF2000000000005603C304F902130380
S1130D1E05039D030D0A006E616E00696E66006F19
S1090D2E7666002E0000B1
S9030000FC
